:10000000CDC50000FCC50000FAC50000F8C5000021
:10001000F6C50000F4C50000F2C50000F0C5000000
:10002000EEC50000ECC50000EAC50000E8C5000010
:10003000E6C50000E4C50000E2C50000E0C5000020
:10004000DEC50000DCC50000DAC50000D8C5000030
:10005000D6C50000D4C50000D2C500000C948C1A8F
:10006000CEC500000C94561A0C942C1AC8C500007A
:10007000C6C50000C4C50000C2C50000C0C5000060
:10008000BEC50000BCC50000BAC50000B8C5000070
:10009000B6C50000B4C50000B2C50000B0C5000080
:1000A000AEC50000ACC50000AAC50000A8C5000090
:1000B000A6C50000A4C50000A2C50000A0C50000A0
:1000C0009EC500009CC500009AC5000098C50000B0
:1000D00096C5000094C5000092C5000090C50000C0
:1000E0008EC500004552524F52202D20436F6D6D3A
:1000F000616E6420627566666572206F76657266F1
:100100006C6F772100556E7265636F676E697A65F3
:100110006420636F6D6D616E640020616E64200009
:1001200056616C69642072616E6765206973206234
:1001300065747765656E20002000536574206465E2
:1001400076696365207072696D617279206164649B
:100150007265737320746F3A20005468617420696B
:1001600073206D792061646472657373212041642A
:100170006472657373206F6620612072656D6F74A1
:1001800065206465766963652069732072657175A1
:10019000697265642E00206D696C6C697365636FAC
:1001A0006E647300536574205B726561645F746D87
:1001B0006F5F6D735D20746F3A2000536574204546
:1001C0004F5320746F3A200053657420454F4920E7
:1001D000617373657274696F6E3A2000496E74655D
:1001E0007266616365206D6F646520736574207449
:1001F0006F3A2000417070656E64696E67206F66AB
:1002000020454F54206368617261637465723A20BF
:1002100000454F542073657420746F204153434947
:1002200049206368617261637465723A20004175A8
:10023000746F206D6F64653A2000202020202020FC
:100240002020202761646472657373656420746F75
:100250002074616C6B20627574206E6F7468696EB7
:100260006720746F2073617927206572726F7273D3
:10027000005741524E494E473A206175746F6D6F79
:100280006465204F4E2063616E2063617573652045
:10029000736F6D65206465766963657320746F2084
:1002A00067656E6572617465004152343838204765
:1002B00050494220636F6E74726F6C6C65722C20B3
:1002C0007665722E20302E34392E31322C20313189
:1002D0002F30312F323032310041523438382047FC
:1002E00050494220636F6E74726F6C6C65722C2083
:1002F0007665722E20302E34392E31322C20313159
:100300002F30312F3230323100496E76616C6964A2
:10031000207465726D696E6174696F6E20636861C7
:10032000726163746572202D2069676E6F726564F7
:1003300021004661696C656420746F20756E74617C
:100340006C6B204750494220627573004661696CAE
:10035000656420746F2073656E64205344430046C7
:1003600061696C656420746F206164647265737385
:1003700020646576696365004661696C6564207414
:100380006F20756E6C697374656E207468652047A4
:1003900050494220627573004661696C656420743F
:1003A0006F2073656E64204C4C4F20746F20646521
:1003B00076696365004661696C656420746F2061CD
:1003C000646472657373207468652064657669631C
:1003D000652E004661696C656420746F2073656EDC
:1003E0006420756E6976657273616C204C4C4F2E7B
:1003F000004661696C656420746F20756E6C69736A
:1004000074656E2047504942206275732E00466124
:10041000696C65642073656E64696E67204C4F4338
:100420002E004661696C656420746F20616464729B
:10043000657373206465766963652E0049464320C1
:100440007369676E616C2061737365727465642093
:10045000666F7220313530206D6963726F7365632A
:100460006F6E64730047726F75702074726967678E
:10047000657220636F6D706C657465642E004661F3
:10048000696C656420746F20756E6C697374656E39
:10049000204750494220627573004661696C65646B
:1004A00020746F207472696767657220646576696D
:1004B0006365004661696C656420746F20616464E3
:1004C0007265737320646576696365005265736550
:1004D00074204641494C45442E0053657269616C55
:1004E00020706F6C6C20636F6D706C657465642E2A
:1004F000004661696C656420746F2072657472696E
:100500006576652073746174757320627974650013
:100510005D2066726F6D2064657669636520617425
:1005200020616464726573733A2000526563656983
:1005300076656420737461747573206279746520C4
:100540005B002C005352513A00496E76616C69642D
:1005500020706172616D65746572005365726961C6
:100560006C20706F6C6C206F6620616C6C20646511
:100570007669636573207265717565737465642E41
:100580002E2E0053525120756E2D61737365727457
:1005900065642E00535251206173736572746564F3
:1005A0002E0053657474696E677320736176656499
:1005B0002E004C4F4E3A200053656E64696E6720E2
:1005C00044434C206661696C656400536574204542
:1005D0004F5220746F3A2000506172616C6C656CF0
:1005E00020706F6C6C20636F6D706C657465642E29
:1005F0000052454E3A2000544F4E3A20004D697348
:1006000073696E6720706172616D657465727300E5
:100610004D697373696E6720706172616D65746591
:10062000720044697361626C656400496E76616C46
:1006300069643A20303D64617461206275733B20C7
:10064000313D636F6E74726F6C2062757300546D10
:100650004275732073657420746F3A20005365727D
:1006600069616C206E756D626572206D75737420A2
:100670006E6F7420657863656564203920636861F6
:100680007261637465727321004C656E67746820D3
:100690006F66206E616D65206D757374206E6F746A
:1006A0002065786365656420313520636861726117
:1006B000637465727321004C656E677468206F66A1
:1006C0002076657273696F6E20737472696E67202D
:1006D0006D757374206E6F74206578636565642032
:1006E00034382063686172616374657273210056E7
:1006F00065725374723A20002077697468207365BC
:100700007269616C206E756D6265720053656E640E
:10071000696E672049444E3A200020746F2064655A
:1007200076696365006770696253656E64436D64E2
:100730003A206661696C656420746F2073656E642D
:1007400020636F6D6D616E64200067706962536530
:100750006E64446174613A204661696C656420741A
:100760006F20756E74616C6B206275730054696DD7
:10077000656F75742077616974696E6720666F7242
:10078000207472616E7366657220746F20636F6D82
:10079000706C657465210054696D656F75742077A0
:1007A000616974696E6720666F722073656E646537
:1007B000722100454F492064657465637465642146
:1007C00000427974657320726561643A2000207478
:1007D0006F2074616C6B004661696C656420746F96
:1007E0002061646472657373207468652064657643
:1007F0006963650067706962526561644279746516
:100800003A2074696D656F75742077616974696EDB
:10081000672044415620746F20676F20484947483D
:10082000006770696252656164427974653A207448
:10083000696D656F75742077616974696E6720668C
:100840006F722044415620746F20676F204C4F57C1
:1008500000677069625772697465427974653A20FD
:1008600074696D656F75742077616974696E67204E
:10087000666F722064617461206163636570746582
:1008800064207369676E616C202D205B4E44414388
:1008900020756E61737365727465645D006770695D
:1008A000625772697465427974653A2074696D653E
:1008B0006F75742077616974696E6720666F722046
:1008C0006461746120746F20626520616363657088
:1008D000746564202D205B4E52464420617373651D
:1008E000727465645D00677069625772697465420D
:1008F0007974653A2074696D656F757420776169E4
:1009000074696E6720666F722072656365697665CB
:1009100072207265616479202D205B4E524644201E
:10092000756E61737365727465645D00677069628A
:100930005772697465427974653A2074696D656FA0
:1009400075742077616974696E6720666F722072B2
:100950006563656976657220617474656E74696F2C
:100960006E205B4E4441432061737365727465640D
:100970005D006770696253656E64446174613A201A
:100980004661696C656420746F20756E6C69737460
:10099000656E206275730020746F206C69737465D6
:1009A0006E006770696253656E64446174613A20D9
:1009B0006661696C656420746F206164647265733C
:1009C00073206465766963652000000020002300C1
:1009D000260029002C002F00320000010000030136
:1009E0000601090100000A0B02090C0D0E0807039D
:1009F00004010000000000000000000000000000F2
:100A000000000000000000000000000000000000E6
:100A100012111000000000000000000000000000A3
:100A2000000000000000000000000000220025007F
:100A300028002B002E0031003400020100000501C7
:100A400008010B0100002100240027002A002D00CE
:100A50003000330001010000040107010A0105050F
:100A60000505070508080808020202020A0A080824
:100A70000404040401010101010101010303030352
:100A800003030303040707070C0C0C0C0C0C0C0CE1
:100A90000202020206060606060606060B0B0B0BF2
:100AA0000B0B0B0B01021020200808102040102017
:100AB0004080020102010804020101020408102022
:100AC0004080804020100804020180040201804020
:100AD0002010080402010804020101020408102089
:100AE00040800102040810204080436F6D6D616EEC
:100AF00064206E6F7420617661696C61626C652040
:100B0000696E2074686973206D6F64652E0053658B
:100B10006E64696E67207374617475732062797492
:100B2000653A20005352512062697420636C6561FC
:100B30007265642028696620736574292E005374D9
:100B4000617475732073656E742E005365726961EC
:100B50006C20706F6C6C2072657175657374207297
:100B6000656365697665642066726F6D20636F6E7C
:100B700074726F6C6C6572202D3E003C2D20736585
:100B80007269616C20706F6C6C2072657175657331
:100B90007420656E6465642E0000D61A11241FBE91
:100BA000CFEFD1E2DEBFCDBF00E00CBF26E0AEE765
:100BB000B4E001C01D92AC30B207E1F714E0A0E050
:100BC000B2E0EAEDF3E400E00BBF02C007900D9243
:100BD000AE37B107D9F715E0CEECD5E000E006C09E
:100BE00021970109802FFE010E94C51ECD3CD1072F
:100BF00080E00807A9F70E94031B0C94EB2100CAB0
:100C0000E9E1F5E06DE675E02FEF3FEF8191832795
:100C1000982F92959F708927482F50E0922F9A0124
:100C2000322F22273295307F822793279A01B5E011
:100C3000220F331FBA95E1F7282739276E177F0750
:100C400029F7C90108958230910538F0880F991F5E
:100C5000880F991F05970197F1F70895DC01ED9131
:100C6000FC910190F081E02D1994EF92FF920F9387
:100C70001F93CF93DF938C017B01D0E0C0E0F7019D
:100C8000EC0FFD1F6491662361F0D801ED91FC919A
:100C90000190F081E02DC8011995892B11F0219662
:100CA000EECFCE01DF91CF911F910F91FF90EF908A
:100CB0000895AF92BF92CF92DF92EF92FF920F937F
:100CC0001F93CF93DF936C017B018B01040F151FE2
:100CD000EB015E01AE18BF08C017D10759F069914A
:100CE000D601ED91FC910190F081E02DC60119959E
:100CF000892B79F7C501DF91CF911F910F91FF905B
:100D0000EF90DF90CF90BF90AF900895FC01538D8E
:100D1000448D252F30E0842F90E0821B930B5417D5
:100D200010F0CF96089501970895FC01918D828D62
:100D3000981761F0A28DAE0FBF2FB11D5D968C91FB
:100D4000928D9F5F9F73928F90E008958FEF9FEF3A
:100D50000895FC01918D828D981731F0828DE80FF6
:100D6000F11D858D90E008958FEF9FEF0895FC01B0
:100D7000918D228D892F90E0805C9F4F821B91097D
:100D80008F73992708958DE695E0F1DF21E0892B97
:100D900009F420E0822F0895FC01A48DA80FB92F3B
:100DA000B11DA35ABF4F2C91848D90E001968F7393
:100DB0009927848FA689B7892C93A089B1898C91B2
:100DC000837080648C93938D848D981306C0028801
:100DD000F389E02D80818F7D80830895EF92FF92CB
:100DE0000F931F93CF93DF93EC0181E0888F9B8D4E
:100DF0008C8D98131AC0E889F989808185FF15C008
:100E00009FB7F894EE89FF896083E889F98980812A
:100E10008370806480839FBF81E090E0DF91CF91F9
:100E20001F910F91FF90EF900895F62E0B8D10E01B
:100E30000F5F1F4F0F731127E02E8C8D8E110BC08B
:100E40000FB607FCFACFE889F989808185FFF5CFD5
:100E5000CE01A2DFF2CFEB8DEC0FFD2FF11DE35A97
:100E6000FF4FF0829FB7F8940B8FEA89FB8980814E
:100E70008062D0CFCF93DF93EC01888D8823B1F0CF
:100E8000AA89BB89E889F9898C9185FD03C0808195
:100E900086FD0CC00FB607FCF7CF8C9185FFF2CF13
:100EA000808185FFEDCFCE0177DFEACFDF91CF9153
:100EB000089580E090E0892B21F065DF81110E9488
:100EC000000080E090E0892B49F080E090E0892BE1
:100ED00029F00E94000081110E94000080E090E053
:100EE000892B49F080E090E0892B29F00E940000D6
:100EF00081110E94000080E090E0892B49F080E0A1
:100F000090E0892B29F00E94000081110C940000D0
:100F100008958150823108F05AC0E82FF0E0882708
:100F2000EB56F84F8F4F0C94C51EB507B907A707AE
:100F3000AD07B107E707BC07C207C607CC07D00754
:100F4000D407DA07DE07E707E207E807EC07809136
:100F500080008F77809380000895809180008F7D3E
:100F6000F9CF80918000877FF5CF84B58F7784BDDE
:100F7000089584B58F7DFBCF8091B0008F778093EB
:100F8000B00008958091B0008F7DF9CF80919000DE
:100F90008F77809390000895809190008F7DF9CF96
:100FA00080919000877FF5CF8091A0008F7780930C
:100FB000A00008958091A0008F7DF9CF8091A000BE
:100FC000877FF5CF809120018F778093200108954E
:100FD000809120018F7DF9CF80912001877FF5CF0F
:100FE000CF93DF93282F30E0F901EC51F64F849135
:100FF000F901EC55F54FD491F901E25AF54FC4913E
:10100000CC2399F0811185DFEC2FF0E0EE0FFF1F6C
:10101000E653F64FA591B491EC91ED2381E090E079
:1010200009F480E0DF91CF91089580E090E0FACF5D
:101030001F93CF93DF93282F30E0F901EC51F64F47
:101040008491F901EC55F54FD491F901E25AF54F2D
:10105000C491CC23A1F0162F81115BDFEC2FF0E0BF
:10106000EE0FFF1FE65DF54FA591B4918FB7F89491
:10107000EC91111108C0D095DE23DC938FBFDF9176
:10108000CF911F910895DE2BF8CF3FB7F894809150
:10109000870490918804A0918904B0918A0426B5B0
:1010A000A89B05C02F3F19F00196A11DB11D3FBFA0
:1010B000BA2FA92F982F8827BC01CD01620F711D6F
:1010C000811D911D42E0660F771F881F991F4A9569
:1010D000D1F708958F929F92AF92BF92CF92DF92F5
:1010E000EF92FF926B017C01D0DF4B015C01C114D8
:1010F000D104E104F104B1F0C8DF681979098A0963
:101100009B09683E73408105910588F321E0C21A6E
:10111000D108E108F10888EE880E83E0981EA11C32
:10112000B11CE5CFFF90EF90DF90CF90BF90AF90D4
:101130009F908F900895EF92FF920F931F93CF93FC
:10114000DF93C82FD0E0E62FF0E08F0196E01595F1
:1011500007959A95E1F723E0000F111F2A95E1F713
:101160000870661F6627661F660F600F7F0135E0F7
:10117000F594E7943A95E1F7F694FE2CEE24F79473
:10118000E7949F0174E0359527957A95E1F7220F52
:10119000331F722F72709F013595279513E0220F30
:1011A000331F1A95E1F72870DF01AA0FBB1FA27049
:1011B0002A2BDF01B595A795B595A79535E0AA0F20
:1011C000BB1F3A95E1F7A07253E0F595E7955A9564
:1011D000E1F7F695FE2FEE27F795E795EA0FE20F78
:1011E000562F50958E0196E0159507959A95E1F743
:1011F00023E0000F111F2A95E1F70870881F882748
:10120000881F880F080F06231E2D10959E0165E08C
:10121000359527956A95E1F73695322F2227379530
:101220002795E222F72EF0949E01A4E035952795AC
:10123000AA95E1F7220F331F7223FE2FF095DE01EE
:10124000B595A79593E0AA0FBB1F9A95E1F7A870F3
:101250009E01220F331F2270A22BCE0195958795F8
:101260009595879525E0880F991F2A95E1F780725B
:101270009E0163E0359527956A95E1F73695322F03
:10128000222737952795280F2A0F2E234130C9F0A2
:1012900085B15823052B05B98BB11823E12AEBB88A
:1012A00094B39F21972B94BBE0910B01EF232E2B3E
:1012B00020930B01DF91CF911F910F91FF90EF9041
:1012C000089584B15823052B04B98AB11823E12A63
:1012D000EAB893B39F21972B93BBE0910A01EF23C8
:1012E0002E2B20930A01E6CF91B1956591B997B164
:1012F0009A6A97B98095282F30E0881F8827881F21
:10130000982F9295990F990F907C24FB882780F94C
:10131000892BA9015695542F442757954795842B1F
:10132000A90163E0559547956A95E1F7440F551F6C
:101330004270842BA9015595479555954795F3E043
:10134000440F551FFA95E1F74870842BA901559574
:101350004795B5E0440F551FBA95E1F74072842BCD
:10136000A90196E0559547959A95E1F764E0440FF9
:10137000551F6A95E1F74071842B75E035952795E7
:101380007A95E1F7220F331F220F331F2470822B2F
:1013900092B19A7A282F2575922B92B998B19575AA
:1013A0008A7A892B88B9089590B186B195758A7A21
:1013B000982B9095292F30E0A9015595479563E02A
:1013C000440F551F6A95E1F74870B901E3E0759540
:1013D0006795EA95E1F7660F771F660F771F862FEF
:1013E0008470842BA901A5E055954795AA95E1F74E
:1013F000440F551F4270842BB90146E075956795DF
:101400004A95E1F77695762F662777956795A90136
:1014100074E0440F551F7A95E1F74071462BB901EE
:10142000E4E075956795EA95E1F7F6E0660F771FBA
:10143000FA95E1F76074462B3595279535952795F4
:10144000B5E0220F331FBA95E1F72072242B991FC4
:101450009927991F892B822B08958250883088F410
:10146000E82FF0E041E08827E75CF54F8F4F0C94C0
:10147000C51E490A4F0A620A5B0A650A6C0A720AAB
:10148000790A41E06FEF88EB56DE40E06FEF8FEDB9
:101490000CC06EE988EB4FDE40E06EE9F8CF6FE9F3
:1014A00089EB49DE40E06FE98FE545DE8091550527
:1014B00090915605C8CB6EE986EA3DDE40E06EE9C4
:1014C00088EDF3CF6EE989EBE6CF6FEF80E033DE96
:1014D00040E06FEF8FEFE9CF6EE080E02CDE40E080
:1014E0006EE0F8CF6EE086E026DE40E06EE089EF49
:1014F000DCCF6EE088E0F8CFBF92CF92DF92EF9220
:10150000FF920F931F93CF93DF93C82FB62E2FB761
:10151000F8948091830490918404A0918504B09103
:1015200086042FBF6A01550FEE08FF08C80ED91EAA
:10153000EA1EFB1E84E354DD8C01D0E08B2D50DDD0
:101540008C179D0719F12FB7F8948091830490911F
:101550008404A0918504B09186042FBF8C159D054D
:10156000AE05BF0558F081E0DF91CF911F910F913B
:10157000FF90EF90DF90CF90BF9008950115110577
:10158000E9F684E32DDD0197C9F6EDCF80E0ECCFDD
:1015900041E060E480E0CFDD40E060E480E4CBCD7A
:1015A00090919104E92FF0E0EB56FB4F80839F5F11
:1015B000909391040895E9E1F5E084E5DF011D923F
:1015C0008A95E9F782E0828381E0848380EB94E06E
:1015D000928781870895EFCFFF920F931F93CF9348
:1015E000DF9309E115E0C2E0D0E0F801F1908F014E
:1015F000CE010E948D1EF81621F06F2DCE010E94A3
:10160000951E2196C635D10581F7FADAD82FC92F54
:1016100090E080E00E948D1ED81729F06D2F90E099
:1016200080E00E94951E81E090E00E948D1EC81708
:1016300051F06C2F81E090E0DF91CF911F910F91DD
:10164000FF900C94951EDF91CF911F910F91FF9009
:101650000895CF93DF93EC0190E080E00E948D1E0F
:10166000888381E090E00E948D1E8983CE01DF9106
:10167000CF910895FB0101900020E9F73197AF0168
:10168000461B570BDC01ED91FC910280F381E02DAC
:1016900019948F929F92AF92BF92EF92FF920F9305
:1016A0001F93CF93DF93CDB7DEB7A1970FB6F89412
:1016B000DEBF0FBECDBF7C01FA01CB0119A22230E3
:1016C00008F42AE08E010F5D1F4F822E912CB12C61
:1016D000A12CBF01A50194010E94A31EF901CA011A
:1016E0006A3004F5605DD8016E938D01232B242BA5
:1016F000252B79F790E080E0109719F0BD01C70124
:10170000B9DFA1960FB6F894DEBF0FBECDBFDF9153
:10171000CF911F910F91FF90EF90BF90AF909F904E
:101720008F900895695CDFCF61EF72E0A3CFCF9215
:10173000DF92EF92FF920F931F93CF93DF938C0171
:101740006B01770FEE08FF08F7FE1CC06DE286DA2A
:10175000EC0144275527BA014C195D096E097F0930
:101760002AE0C80196DFC80FD91FC801DDDF8C0F42
:101770009D1FDF91CF911F910F91FF90EF90DF9010
:10178000CF9008952AE0B701A60183DFEC01EDCFE9
:1017900082E326DC61E070E0892B11F070E060E00C
:1017A0008DE695E0C4CF0F931F93CF93DF93EC01A9
:1017B000AB0170E060E02AE06CDF8C01CE01B4DFA9
:1017C000800F911FDF91CF911F910F9108950F937B
:1017D0001F93CF93DF93EC01462F50E070E060E061
:1017E0002AE057DF8C01CE019FDF800F911FDF9130
:1017F000CF911F910F9108950F931F93CF93DF9374
:10180000EC0138DF8C01CE018FDF800F911FDF915B
:10181000CF911F910F9108950F931F93CF93DF9353
:10182000EC0123DA8C01CE017FDF800F911FDF9165
:10183000CF911F910F910895CF93C82F409122050A
:10184000509123056EE280E057DE8823C9F0C091F5
:101850001605C1110FC0C1E040E068E088E06BDC14
:1018600080E042DD8091550590915605ECD98C2F92
:10187000CF9108956CE279E08DE695E0CDDFECCF75
:1018800040912205509123056CE281E035DE8823EA
:1018900039F0C091160566EE78E0CC23E1F2ECCF8A
:1018A0008C2F22DD40E068E080E045DC409122059D
:1018B000509123056CE280E01FDE882341F0C09147
:1018C00016056DE978E0CC2309F4C5CFD5CF40915A
:1018D0002205509123056EE281E00EDEC82F882399
:1018E00009F4BACFC0911605CC2309F4B4CF61E551
:1018F00078E0C2CFEF92FF920F931F93CF93DF93C5
:101900008C01EB0184E36CDB7C01188240E064E035
:1019100084E011DCEF2881F484E362DB019761F459
:1019200040E064E080E007DC83E0DF91CF911F912D
:101930000F91FF90EF90089540912205509123055B
:101940006AE280E0D9DD882379F08091160588234A
:1019500029F061E278E08DE695E05EDF40E064E04A
:1019600080E0E9DB81E0E1CF40E064E080E0E3DBC0
:1019700080918C04882331F088E232DB892B11F4CA
:1019800081E0888311DDF801808340E062E082E03D
:10199000D2DB40912205509123056AE281E0ACDD63
:1019A000882359F080911605882329F064EF77E0A9
:1019B0008DE695E031DF82E0B8CF40E062E080E084
:1019C000BADB80915505909156053DD980E0ADCFA9
:1019D000CF93DF93C82F83E040DD8C2F2DDFD82FEE
:1019E0008823B1F080911605882391F065E277E0B5
:1019F0008DE695E03AD94C2F50E070E060E020E1B0
:101A00008DE695E046DE6AE177E08DE695E004DF5D
:101A10008D2FDF91CF91089583E790E00197F1F743
:101A20008FE3D6DF811102C08FE5D2CF0895CF9327
:101A3000DF93C82FD62F8FE3CBDF811116C0DD23B4
:101A400059F080E48C0FC4DF81110FC080911C0518
:101A5000805EDF91CF91BCCF80E28C0FB9DF811126
:101A600004C080911C05805CF4CF81E0DF91CF91B0
:101A70000895CF92DF92EF92FF920F931F93CF932F
:101A80006C01E62E80911B05823009F073C08091B5
:101A90000002882329F160E080911D05C8DF8823BA
:101AA000F9F080911605882309F478C062EA79E09C
:101AB0008DE695E0DAD840911D0550E070E060E0D9
:101AC0002AE08DE695E0E5DD67E979E08DE695E0D1
:101AD000CF911F910F91FF90EF90DF90CF909CCE10
:101AE0008091170591E089278093000284E0B5DC9E
:101AF0008601F12CC8018C199D098E159F050CF0EB
:101B00003FC0F80181918F0197DEC82F882391F3A0
:101B100080911A05882379F08091170581110BC0F7
:101B200040E060E108DB8BE990E00197F1F740E0ED
:101B300060E180E100DB80911B058230E9F4C11196
:101B400010C080910002882361F066DF882349F08D
:101B500080911605882329F062E779E08DE695E00B
:101B60005BDE82E0CF911F910F91FF90EF90DF90AD
:101B7000CF9073CC89E0BBCF813081F487E0F2CF86
:101B800080911F0581FD02C08DE056DE80911F050A
:101B900080FD02C08AE050DEC0E0BACFCF911F9135
:101BA0000F91FF90EF90DF90CF900895CF93DF9348
:101BB00082E053DCCBE4D0E0CE010197F1F740E0C6
:101BC00060E980E0B8DA2197F1F7EEDBC82F82E018
:101BD00044DC6C2F8DE695E0FADD809116058823B4
:101BE00039F068ED75E08DE695E0DF91CF9114CE88
:101BF000DF91CF91089584E1EBDE882349F0809155
:101C00001605882339F068EB75E08DE695E004CE83
:101C100082E023CC0895E0DC80911605882329F02A
:101C200062EA75E08DE695E0F7CD08952FB7F89458
:101C30008091830490918404A0918504B0918604DE
:101C40002FBF8053984FAF4FBF4F28E13EE00FB6F4
:101C5000F894A895209360000FBE309360002FB7D2
:101C6000F8944091830450918404609185047091AC
:101C700086042FBF481759076A077B0780F38091B6
:101C80001605882329F06CEC74E08DE695E0C4CD50
:101C9000089580911B058823A9F040E061E080E071
:101CA0004ADA83E592E00197F1F740E061E081E0F4
:101CB00042DA80911605882329F06CE374E08DE602
:101CC00095E0AACD089560E080911D05B0DE8823DF
:101CD00039F0809116056FE573E081110BC008950E
:101CE00084E076DE882349F0809116058823B9F3D5
:101CF0006CE473E08DE695E08FCD8EDE882339F0BD
:101D00008091160562E373E0882349F3F3CF82E004
:101D1000A4CB65E071E08DE695E07ECD809116055F
:101D200091E089278093160564EF72E08DE695E0D7
:101D3000A1DC8091160569E573E0882311F06DE45C
:101D400073E08DE695E058CD8DE695E0EDDC6EEF25
:101D500072E08DE695E08ECC25E0FC0111922A958B
:101D6000E9F762E276E08DE695E056CDE5E9F4E04C
:101D700080E8DF011D928A95E9F710929104089599
:101D8000E82FF0E0EC56FB4F90819F3319F491E07F
:101D90009093180590919404911104C0682F85E9DF
:101DA00094E067DE809117058111109217058091EC
:101DB00016058111C9DFDADF109215050895CF935A
:101DC000DF93EC0186E20CD9892B79F5209709F194
:101DD00043E050E061E073E0CE010E94F91E892BE0
:101DE00021F540E060E280E2A6D968E270E080E0A0
:101DF00090E070D940E060EA80E09DD968E270E050
:101E000080E090E067D940E060E880E8DF91CF9122
:101E100092C960E080911D050ADE882349F0809117
:101E2000160562E274E081110DC0DF91CF91089533
:101E300081E0CEDD882359F0809116058823A9F32F
:101E40006EE074E08DE695E0DF91CF91E5CCE4DDC6
:101E5000882339F08091160561EF73E0882329F318
:101E6000F1CF82E0DF91CF91F8CACF93DF93EC01FD
:101E700086E2B6D8892BC1F42097D1F043E050E038
:101E800061E073E0CE010E94F91E892B69F481E1C3
:101E90009FDD882349F080911605882329F063EDA2
:101EA00073E08DE695E0B8DC82E0DF91CF91D5CA92
:101EB00060E080911D05BBDD882349F08091160507
:101EC00065EB73E081110DC0DF91CF91089581E141
:101ED0007FDD882359F0809116058823A9F368E9EE
:101EE00073E08DE695E0DF91CF9196CC95DD882368
:101EF000D9F28091160568E773E0882329F3F1CFC2
:101F0000009751F043E050E065E073E00E94F91E55
:101F100069EA72E0892B59F08091250569ED72E03C
:101F2000882329F065E275E08DE695E065CC8DE6C5
:101F300095E072CC1F93CF93DF93C0E011E08DE664
:101F400095E00E94B706892B09F4A0C0C1119EC07C
:101F50008DE695E00E949506D82F8091910487FD2B
:101F600052C080911605882329F06D2F8DE695E0EB
:101F70000E942E06DD30C9F024F4DA30B1F08D2F46
:101F800073C0DB3109F46BC0DB32C9F780917F0489
:101F9000882341F010927F0480919104823010F4E4
:101FA00010937E048BE2FCDA2EC080917F048111B5
:101FB000E6CF80919104C0911605811105C0D6DE4F
:101FC000C111C2DEC0E0BBCFCC2319F08DE695E095
:101FD000ABDBC0919104C33008F43EC090919504EE
:101FE0009B3219F5909196049B32F9F490917E04FE
:101FF00091111BC080919704C1E0813211F4B6DECB
:10200000C3E010927E048091910487FF98CF809165
:1020100095048B3231F4809196048B3211F4CC23E9
:1020200051F110931705C2E08ACFC33011F4C2E01A
:10203000E8CF80916C058823D1F345E050E06AE059
:1020400073E085E994E00E94F91E892B81F71093D3
:102050008D048CDEC0E0D5CFCC2399F2E8CF8091FF
:102060007F04882329F08BE19BDA10927F04CBCF89
:1020700010937F04C8CF80911605882329F064EE61
:1020800070E08DE695E0C8DB71DE59CF8C2FDF91D3
:10209000CF911F910895AF92BF92DF92EF92FF927E
:1020A0000F931F93CF93DF9300D01F92CDB7DEB76E
:1020B00019821A821B8280915705082F07701C8293
:1020C00010928B04D0908C04873019F481E08093B7
:1020D0008C0480911B05823009F0C5C061E08091BD
:1020E0001D05A5DC8823C1F0809116058823A1F089
:1020F00067ED77E08DE695E00E94350640911D057D
:1021000050E070E060E02AE08DE695E0C2DA6EEC27
:1021100077E08DE695E080DB409122055091230524
:102120006CE281E0E9D985E098D981B18A7A81B9F8
:1021300087B1857587B982B1856582B988B18A6AA8
:1021400088B9F12CE12CA02EB12C10918B04111127
:10215000E6C084E30E94F007892BC9F0BE016C5FE2
:102160007F4FCE010196C6DB182F80912105833069
:1021700021F080918C04882319F0DCDE8093150512
:1021800080911505882309F474C010928F04809102
:102190001605882351F061EC77E08DE695E00E940A
:1021A0003506B7018DE695E0C2DA8C81882399F077
:1021B00080911605882329F063EB77E08DE695E0A2
:1021C0002BDB80911905882331F0609124058DE681
:1021D00095E00E942E06D0928C041123B1F08091DC
:1021E0001605882339F0113029F467E977E08DE688
:1021F00095E012DB80911605882339F0123029F41E
:102200006DE677E08DE695E007DB80911B05823077
:1022100009F087C001DC882351F0809116058823DE
:1022200031F06AE477E08DE695E00E943506809112
:102230001B05823009F411D980918B048111109211
:102240008B0481E0111101C080E00F900F900F907E
:102250000F90DF91CF911F910F91FF90EF90DF9042
:10226000BF90AF90089588E0F8D881E080938C0407
:102270005CCF84E30E94F007892B09F488CF698141
:102280008DE695E00E942E068FEFE81AF80A8091FD
:102290008C04882351F08C81811179CF111177CF73
:1022A0008A818B8389818A8350CF8091810488239E
:1022B00031F09981809180049813F0CF68CF073076
:1022C00040F5F5018827E859FE4E8F4F0C94C51E46
:1022D00089116F1173114E1177117C118011898151
:1022E0008D30E1F654CF89818A30C1F650CF898193
:1022F0008D30A1F68A81F8CF8981833079F647CF76
:102300008981833059F68A818A3009F0C7CF8B8161
:10231000E7CF89818A3009F0C1CF8A81E1CF10E00F
:1023200036CF87E088CFBF92CF92DF92EF92FF92B5
:102330000F931F93CF93DF9300D000D000D01F9254
:10234000CDB7DEB7009709F445C060E173E00E94A5
:10235000461E7C01DC010D900020E9F76D01FD01B6
:1023600001900020E9F731978F010A1B1B0B46E013
:1023700050E063E173E0002309F47FC00E94F91E7E
:10238000892B51F5F09016058FEF800F8F32D8F41E
:10239000E5E2F5E080E3DF011D928A95E9F7A80107
:1023A0005527B601CF010E94071FFF2031F06FEEC5
:1023B00076E08DE695E00E94350665E275E08DE6F3
:1023C00095E01ADA23C0FF2029F067EB76E08DE66E
:1023D00095E022DA9EDC1AC044E050E06AE173E046
:1023E000C7010E94F91E892B41F58FEF800F8F30B6
:1023F000E8F4E8E5F5E080E1DF011D928A95E9F770
:10240000A8015527B601CF010E94071F2A960FB6D3
:10241000F894DEBF0FBECDBFDF91CF911F910F911A
:10242000FF90EF90DF90CF90BF90089580911605B8
:1024300069E876E0882371F2CACF46E050E06FE1A8
:1024400073E0C7010E94F91E892B21F6B9E0B0178D
:1024500060F0C6010E94201E6093680570936905B4
:1024600080936A0590936B05D1CF809116056DE539
:1024700076E0882309F4AECFAACF0E94F91E892BFB
:1024800009F49BCF44E050E06AE173E0C7010E9489
:10249000F91E892B19F468E575E091CF46E050E00C
:1024A0006FE173E0C7010E94F91E892B09F092CFFA
:1024B0008AE08E010F5F1F4FF801982F11929A95B5
:1024C000E9F790916B059F9390916A059F93909186
:1024D00069059F93909168059F9326E233E03F93AF
:1024E0002F931F928F931F930F930E94161FB80173
:1024F0008DE695E081D90FB6F894DEBF0FBECDBF53
:1025000085CFCF93DF9360E173E00E94461E009772
:10251000A9F0FC0101900020E9F73197E81BF90BC5
:10252000349760F40E94031EC82F833040F06BE2A2
:1025300076E08DE695E0DF91CF916EC9C0E060E175
:1025400073E090E080E00E94461E0097C9F1FC0114
:1025500001900020E9F73197E81BF90BD0E03497A0
:1025600018F40E94031ED82FCC23E1F041E06FEF56
:102570008FEF0E949B0840E06FEF8D2F80950E94A7
:102580009B0860E177E280E090E00E946A08809119
:102590001B05823029F481E0DF91CF910C942D0A44
:1025A00086E0FACF8D2F0E94740960E177E280E027
:1025B00090E00E946A0880E0DF91CF910C9474094A
:1025C000DF91CF910895CF93DF9310928C041092F6
:1025D0008104009799F0EC01FC0101900020E9F7DB
:1025E0003197E81BF90B349798F0809116058823F2
:1025F00029F069E073E08DE695E00ED98091210520
:102600008330D9F481E080938F04DF91CF910895D6
:1026100043E050E06CE273E00E94F91E892B21F444
:1026200081E080938C04EACF81E080938104CE0125
:102630000E94031E80938004E1CFDF91CF912BCDC8
:10264000EF92FF920F931F93CF93DF93DC01EC91F6
:10265000E11109C0C1E08C2FDF91CF911F910F9143
:10266000FF90EF900895E9017A018B011982188299
:102670000E94031E998388838017910720F0C0E091
:10268000E816F90640F745DBC0911605CC2311F397
:1026900060E271E08DE695E00E943506A80170E0E9
:1026A00060E02AE08DE695E00E94490B6AE171E066
:1026B0008DE695E00E943506B7018DE695E073D86A
:1026C000CACFCF93DF931F921F92CDB7DEB700978B
:1026D000B1F19E012F5F3F4F42E050E070E060E0BB
:1026E000AFDF811127C0898180936C058091160529
:1026F000882301F16CE077E08DE695E00E943506D5
:1027000089819A8160E373E0892B11F069E373E0BA
:102710008DE695E00E943A0B89819A81029731F407
:1027200068EF76E08DE695E00E9435068DE695E04F
:102730000E94940B0F900F90DF91CF9108956091BC
:102740006C058DE695E043D8F5CFCF93DF931F92CC
:102750001F92CDB7DEB7009721F19E012F5F3F4F4B
:1027600040E355E770E060E06BDF811115C08981BF
:102770009A8190935605809355058091160588237C
:1027800059F06EE476E08DE695E00E9435066981A9
:102790007A818DE695E007D80F900F90DF91CF9169
:1027A00008956091550570915605F3CFEF92FF9211
:1027B0000F931F93CF93DF9300D01F92CDB7DEB757
:1027C000009709F468C060E173E00E94461EFC01B6
:1027D0002081211122C060E173E090E080E00E943E
:1027E000461EFC01208121112DC061E473E090E0C0
:1027F00080E00E94461E8C01FC018081F12CE12CBE
:1028000081112BC086DA8091160560E176E088237D
:1028100071F08DE695E000D80AC09E012F5F3F4F12
:102820004FEF50E062E070E00BDF8823A1F20F90E1
:102830000F900F900F90DF91CF911F910F91FF900C
:10284000EF9008959E012D5F3F4F40E355E770E004
:1028500060E0F6DE8111EBCFC8CF89819A81E8165E
:10286000F90628F7F80101900020E9F73197BF0138
:10287000601B710B80919404811102C0C801F9D8CA
:102880006B817C8190E080E00E946A0804DCFFEFAD
:10289000EF1AFF0AE2CF3DDA80911605882339F25C
:1028A0006DEF75E0B6CFCF93DF931F921F92CDB738
:1028B000DEB7009761F19E012F5F3F4F41E050E08E
:1028C00070E060E0BDDE811116C089819A810097B9
:1028D000B9F00197C1F080911605882361F08091CD
:1028E000900460E573E0882311F064E473E08DE602
:1028F00095E00E94FC0B0F900F90DF91CF9108950F
:1029000010929004E8CF81E080939004E4CF60912E
:10291000900470E08DE695E00E94970BECCFCF938A
:10292000DF931F921F92CDB7DEB7009789F19E010A
:102930002F5F3F4F41E050E070E060E081DE8111A9
:1029400022C089819A8121E0009709F420E0209338
:102950008E04892B11F0109294048091160588231F
:1029600091F067EF75E08DE695E00E94350689816C
:102970009A8169E573E0892B11F06DE473E08DE6CF
:1029800095E00E94FC0B0F900F90DF91CF9108957E
:1029900060918E0470E08DE695E00E94970BF3CF76
:1029A000CF93DF931F921F92CDB7DEB7009771F1DF
:1029B0009E012F5F3F4F41E050E070E060E040DE5D
:1029C00081111FC061E089819A81892B09F060E043
:1029D00086E20E94180880911605882391F061EF25
:1029E00075E08DE695E00E94350689819A816AE658
:1029F00073E0892B11F06DE573E08DE695E00E94A0
:102A0000FC0B0F900F90DF91CF91089586E20E940A
:102A1000F00761E070E0892B11F070E060E08DE676
:102A200095E00E94970BEDCFCF93DF931F921F92FB
:102A3000CDB7DEB7009711F19E012F5F3F4F4FE0FA
:102A400050E070E060E0FCDD811113C0898180936B
:102A5000570580911605882361F06BEC75E08DE6D3
:102A600095E00E94350669817A818DE695E00E94A5
:102A7000D30B0F900F90DF91CF9108958091570560
:102A8000883010F010925705609157058DE695E05B
:102A90000E94E70BEECFCF93DF931F921F92CDB72B
:102AA000DEB7009791F19E012F5F3F4F41E050E06C
:102AB00070E060E0C5DD811123C081E029813A81A9
:102AC000232B09F480E08093940480918E0481117B
:102AD00010928E0480911605882391F062EB75E0C8
:102AE0008DE695E00E94350689819A8169E573E05B
:102AF000892B11F06DE473E08DE695E00E94FC0BEC
:102B00000F900F90DF91CF9108956091940470E041
:102B10008DE695E00E94970BF3CF1F93CF93DF9341
:102B20001F921F92CDB7DEB71A821982009781F1EA
:102B30009E012F5F3F4F4FEF50E070E060E080DD7F
:102B4000811115C08981809320051091160586FF9B
:102B500014C041E060E480E40E949B0840E060E42F
:102B600080E00E949B0864E975E011110CC00F9091
:102B70000F90DF91CF911F9108950E94C80A1123F1
:102B8000B1F363E875E08DE695E00E940C0CEFCFA1
:102B9000609120058DE695E00E94E70BE8CF6F92EB
:102BA0007F928F929F92AF92BF92CF92DF92EF92DD
:102BB000FF920F931F93CF93DF93CDB7DEB7639749
:102BC0000FB6F894DEBF0FBECDBF6C011A8A198A0A
:102BD000188A1B8A8E010F5F1F4F4E0180E1880EFD
:102BE000911CF801580111928E169F06E1F7F12C05
:102BF000C114D10409F07DC080911D058983E12CA9
:102C0000FF24F3948FE30E94E80C811198C0809117
:102C10001C05805E0E94E80C811191C088E10E9431
:102C2000E80C81118CC010E000E0CF2CD12C0C15E9
:102C30001D050CF0D6C0EE2009F499C0198B088B45
:102C40008889998920911C052817190699F1805CBB
:102C50000E94E80C811173C085E00E942D0ABE011C
:102C60006D5E7F4FCE0142960E947A0C8111ADC0FD
:102C70006A8981E0F81609F482C066FF1BC064E42B
:102C800075E08DE695E00E943506A801110F660BF0
:102C9000770B2AE08DE695E00E94490B62E475E02F
:102CA0008DE695E00E9435066A898DE695E00E94E2
:102CB000E70B86010F5F1F4FBACFF601019000208E
:102CC000E9F73197EC19FD09339788F594014EE146
:102CD00050E061E070E0C301B3DCE82E81112FC049
:102CE0008889F80181938F01F394FFE0FF1609F4BE
:102CF00089CF60E173E0C601FF2011F090E080E031
:102D0000C5D73C0143E050E061E073E00E94F91E4A
:102D1000892B99F6E0901605EE2031F16BE575E010
:102D20008DE695E00E940C0C8EE1F82E6BCF0E9490
:102D3000890E8091160569E475E0811179C063966A
:102D40000FB6F894DEBF0FBECDBFDF91CF911F91BC
:102D50000F91FF90EF90DF90CF90BF90AF909F903A
:102D60008F907F906F900895EE24E394DDCFF5016E
:102D7000E00FF11F808190E0998B888B61CF8DE609
:102D800095E00E94E70B809116058823D9F06BE24D
:102D900075E08DE695E00E9435064A8950E070E0C6
:102DA00060E02AE08DE695E00E94490B60E175E065
:102DB0008DE695E00E943506688979898DE695E073
:102DC0000E94D30B01E010E075CF80911605882397
:102DD00009F470CF61EF74E08DE695E00E940C0C71
:102DE00069CFEE2021F08DE695E00E94940B89E1F9
:102DF0000E94E80C8111A3CF8FE50E94E80C81119D
:102E00009ECF8FE30E94E80C811199CF82E00E944F
:102E10002D0A82E30E94F007892B79F481E08093E8
:102E2000920480911605882309F489CF6AED74E035
:102E30008DE695E00E940C0C82CF10929204F1CFA7
:102E400081E093E0ACCE8F929F92AF92BF92CF92EF
:102E5000DF92EF92FF920F931F93CF93DF93CDB743
:102E6000DEB761970FB6F894DEBF0FBECDBF4C0141
:102E7000198A188ACE0101967C015E0190E1A90EA3
:102E8000B11CF7011192EA15FB05E1F7670100E0BB
:102E90008114910471F580911D05898301E067011A
:102EA00010E0C6018E199F09801791070CF056C0DB
:102EB00060E0F60181916F010E94170D882389F16E
:102EC0008091160563EB74E0811136C061960FB6F0
:102ED000F894DEBF0FBECDBFDF91CF911F910F9150
:102EE000FF90EF90DF90CF90BF90AF909F908F902A
:102EF000089560E173E0C401002311F090E080E0E8
:102F0000C5D695014EE150E061E070E099DB81119A
:102F1000DDCF8889F60181936F010F5F0F3049F78C
:102F2000BECF88E00E94E80C882359F080911605F6
:102F30006AE974E0882351F28DE695E00E940C0C5A
:102F4000C5CF0E940C0D882309F4ABCF80911605E4
:102F50006EE774E0882309F4B9CFEECF82E00E94D7
:102F60002D0A80911605882309F4B0CF65E674E038
:102F7000E3CFCF93DF931F921F92CDB7DEB70097B9
:102F800079F19E012F5F3F4F43E050E070E060E039
:102F900057DB81112BC089819A81892B81F0809127
:102FA0001605882361F061E772E08DE695E00E94E6
:102FB0000C0C6AE372E08DE695E00E940C0C8981AE
:102FC00080932105833010F410928F0480911605B0
:102FD000882361F06EE272E08DE695E00E9435068E
:102FE000609121058DE695E00E94E70B0F900F9010
:102FF000DF91CF910895CF93DF931F921F92CDB7AA
:10300000DEB7009711F19E012F5F3F4F4FEF50E069
:1030100070E060E015DB811113C089818093240585
:1030200080911605882361F061E172E08DE695E0FC
:103030000E94350669817A818DE695E00E94D30B66
:103040000F900F90DF91CF91089560912405062E87
:10305000000C770B8DE695E00E94970BF1CFCF9394
:10306000DF931F921F92CDB7DEB7009769F19E01E3
:103070002F5F3F4F41E050E070E060E0E1DA811106
:103080001EC081E029813A81232B09F480E08093DE
:10309000190580911605882391F064EF71E08DE6A3
:1030A00095E00E94350689819A8169E573E0892B54
:1030B00011F06DE473E08DE695E00E94FC0B0F903B
:1030C0000F90DF91CF9108956091190570E08DE622
:1030D00095E00E94970BF3CFCF93DF931F921F923F
:1030E000CDB7DEB7009709F43FC09E012F5F3F4F79
:1030F00041E050E070E060E0A3DA81111CC08981FA
:103100009A810097E9F0019721F1809116058823B3
:1031100091F06CED71E08DE695E00E9435068981B5
:103120009A8165E873E0892B11F06AE773E08DE618
:1031300095E00E94FC0B0F900F90DF91CF910895C6
:1031400081E080931B0586E00E942D0A0E94D4092D
:10315000DCCF82E080931B0581E00E942D0A0E9453
:10316000D4090E94490ED1CF60911B056150770BA5
:103170008DE695E00E94970BDECFCF93DF931F92F1
:103180001F92CDB7DEB7009769F19E012F5F3F4FC9
:1031900041E050E070E060E053DA81111EC081E050
:1031A00029813A81232B09F480E080931A058091CC
:1031B0001605882391F068EC71E08DE695E00E9499
:1031C000350689819A8169E573E0892B11F06DE4F8
:1031D00073E08DE695E00E94FC0B0F900F90DF915D
:1031E000CF91089560911A0570E08DE695E00E94F8
:1031F000970BF3CFCF93DF931F921F92CDB7DEB71C
:10320000009711F19E012F5F3F4F43E050E070E0C7
:1032100060E016DA811113C0898180931F058091C7
:103220001605882361F06BEB71E08DE695E00E9456
:10323000350669817A818DE695E00E94D30B0F9067
:103240000F90DF91CF91089560911F058DE695E075
:103250000E94E70BF4CFCF93DF931F921F92CDB75D
:10326000DEB7009771F19E012F5F3F4F40E05DE7B1
:1032700061E070E0E5D981111FC089819A81909346
:10328000230580932205809116058823A9F064EA1E
:1032900071E08DE695E00E94350649815A8170E023
:1032A00060E02AE08DE695E00E94490B66E971E056
:1032B0008DE695E00E940C0C0F900F90DF91CF915E
:1032C000089560912205709123058DE695E00E9496
:1032D000970BF2CFCF93DF931F921F92CDB7DEB73C
:1032E000009709F460C060E173E0D0D49E012F5FC5
:1032F0003F4F4EE150E061E070E0A2D9811113C070
:1033000089819A8120911C052817190689F40E9449
:10331000890E80911605882331F06AE571E08DE60B
:1033200095E00E940C0C0F900F90DF91CF910895C3
:1033300080931D0580911605882361F06AE371E092
:103340008DE695E00E94350669817A818DE695E0EB
:103350000E94D30B10921E051A82198260E173E05D
:1033600090E080E093D40097F1F29E012F5F3F4FF1
:103370004EE750E060E670E063D98111D4CF8981D7
:1033800080931E0580911605882369F26CE873E02E
:103390008DE695E00E943A0B69817A818DE695E091
:1033A0000E94D30BC0CF40911D0550E070E060E05B
:1033B0002AE08DE695E00E94490B80911E05882346
:1033C00081F068E371E08DE695E00E94350640915A
:1033D0001E0550E070E060E02AE08DE695E00E9476
:1033E000490B8DE695E00E94940B9DCFCF93DF9320
:1033F000CDB7DEB7C054D1090FB6F894DEBF0FBE0B
:10340000CDBFFC0101900020E9F73197AF01481BC7
:10341000590BFE0137962AE3DF011D922A95E9F741
:1034200027E0EEEAF3E0DE01119601900D922A9575
:10343000E1F75527BC01CE010196CBD4CE01019610
:103440000E949311C05CDF4F0FB6F894DEBF0FBE31
:10345000CDBFDF91CF9108951F920F920FB60F92BB
:1034600011240BB60F922F933F934F935F936F935B
:103470007F938F939F93AF93BF93EF93FF938DE6CB
:1034800095E00E94CC06FF91EF91BF91AF919F9183
:103490008F917F916F915F914F913F912F910F90FD
:1034A0000BBE0F900FBE0F901F9018951F920F929A
:1034B0000FB60F9211240BB60F922F938F939F93F9
:1034C000EF93FF93E0917D05F0917E058081E0917F
:1034D0008305F091840582FD1DC090818091860551
:1034E0008F5F8F7320918705821741F0E0918605E9
:1034F000F0E0E359FA4F958F80938605FF91EF91A5
:103500009F918F912F910F900BBE0F900FBE0F9038
:103510001F9018958081F2CF1F920F920FB60F92D5
:1035200011242F933F938F939F93AF93BF938091D9
:10353000830490918404A0918504B0918604309115
:10354000820423E0230F2D3758F50196A11DB11DEC
:10355000209382048093830490938404A093850431
:10356000B09386048091870490918804A091890487
:10357000B0918A040196A11DB11D80938704909398
:103580008804A0938904B0938A04BF91AF919F915E
:103590008F913F912F910F900FBE0F901F90189514
:1035A00026E8230F0296A11DB11DD2CFEDE6F5E06E
:1035B0001382128288EE93E0A0E0B0E084839583CA
:1035C000A683B78383EE92E09183808385EC90E0BD
:1035D0009587848784EC90E09787868780EC90E0DD
:1035E000918B808B81EC90E0938B828B82EC90E0CE
:1035F000958B848B86EC90E0978B868B118E128E48
:10360000138E148E0895CF93DF93CDB7DEB7C158D4
:10361000D1090FB6F894DEBF0FBECDBF789484B544
:10362000826084BD84B5816084BD85B5826085BDBE
:1036300085B5816085BD80916E00816080936E004C
:10364000109281008091810082608093810080913E
:1036500081008160809381008091800081608093EF
:1036600080008091B10084608093B1008091B000AF
:1036700081608093B000809191008260809391007E
:103680008091910081608093910080919000816091
:10369000809390008091A10082608093A10080912E
:1036A000A10081608093A1008091A000816080933F
:1036B000A0008091210182608093210180912101ED
:1036C000816080932101809120018160809320019D
:1036D00080917A00846080937A0080917A00826081
:1036E00080937A0080917A00816080937A00809143
:1036F0007A00806880937A001092C1000FB6F89427
:10370000A8958091600088618093600010926000AD
:103710000FBEE1EBFAE02491EBE6FAE08491882316
:1037200099F090E0880F991FFC01EC5BF54FA59193
:10373000B491FC01E65DF54F859194918FB7F894B3
:10374000EC91E22BEC938FBF60E08DE00E941808B3
:103750000E94B60EE0917D05F0917E0582E08083A7
:10376000E0917905F0917A051082E0917B05F09166
:103770007C0580E1808310928505E0918105F091C0
:10378000820586E08083E0917F05F091800580814D
:1037900080618083E0917F05F09180058081886061
:1037A0008083E0917F05F09180058081806880832F
:1037B000E0917F05F091800580818F7D80830E945C
:1037C000DB0A1A8219828E010F5F1F4FC8010E9407
:1037D000290B89819A81019669F1C8010E94290B00
:1037E00069E1C62E65E0D62E72E0E72EF12CC70106
:1037F00094D2D6018D936D01BFEFEB1AFB0AE6E57B
:10380000EE16F104A1F70E94000629813A81821781
:10381000930781F0F12CE12C6FEFC70186D2FFEF07
:10382000EF1AFF0AE11422E0F206B1F70E94DB0A68
:103830000E94EC0A80911B05813029F486E00E94E9
:103840002D0A0E94D40980911B05823039F481E051
:103850000E942D0A0E94D4090E94490E10929304DE
:103860001092920496E0792E20E2622E30E4532EDC
:1038700043E0442E5FE0A52EB12C84E30E94F007C4
:1038800021E0892B09F020E02093930482E30E9439
:10389000F00721E0892B09F020E020939204809129
:1038A0001505813009F061C0E0909104F12CA70169
:1038B00065E974E0C80171D20E94B60E1092150538
:1038C000F801C70102979F01201B310B2817390708
:1038D0001CF422812193F7CF800F911FDC011C92F1
:1038E000FE01EE0DFF1D108280911605882321F048
:1038F0008DE695E00E94940B8981882389F18D30B3
:1039000079F18A3069F160E173E0C801BFD17C01CF
:1039100081E0882E82E0982ED12CC12CB701F401D1
:103920008081918143D2892B09F44EC1FFEFCF1AD8
:10393000DF0A26E0820E911C85E2C816D10471F7D9
:103940000E94890E0DC0D7010D900020E9F7CD012E
:103950000480F581E02D2C91222309F44BC01995A8
:103960008091160581110E94A40E80911B05823062
:1039700081F5809115058230B1F4809191040E9407
:10398000C00E80912105813011F40E944B1080916E
:103990002105823041F480911805882321F00E948E
:1039A0004B101092180580919204882349F0809161
:1039B0009004882329F090E080E0F1D810929204DE
:1039C00080912105833029F480918F0481110E9418
:1039D0004B1080911B058130E9F480918E0488237F
:1039E00061F0809115058230A9F4809191040E94C4
:1039F000C00E10C090E080E0B2CFE0909404EE20C2
:103A000009F443C00E944B1080911505823011F4D7
:103A10000E94B60E80918D04882369F180916C0517
:103A2000813031F468E575E08DE695E00E94FC0B8D
:103A300080916C058230E9F468E575E08DE695E0EB
:103A40000E943A0B66EB73E08DE695E00E943A0B1C
:103A5000409168055091690560916A0570916B0508
:103A60002AE08DE695E00E94490B8DE695E00E94E4
:103A7000940B10928D040E949A0F80931505C50136
:103A80000197F1F70E945907F8CEF0909304FF20B8
:103A900009F4A7CFCF57DF4F1882C158D040198201
:103AA00088E00E942D0AD12CC12C912C84E30E9425
:103AB000F007892B41F5B801CE018F579F4F0E9427
:103AC0007A0C8111F3CF90911D05CF57DF4F88817C
:103AD000C158D040282F2625921301C0EF2C282F43
:103AE0002525921301C09F2C883149F0893149F076
:103AF0008F33E1F610928C0440928B04D7CFCF2CF9
:103B0000D5CFDF2CD3CFE1100E944B10992009F4C0
:103B100042C0CC2009F44FC080911605882331F0B3
:103B20006BE47BE08DE695E00E940C0C809116051D
:103B3000882361F06EE07BE08DE695E00E9435061B
:103B4000609120058DE695E00E94E70B89E00E94D8
:103B50002D0A809120050E941C0C87E00E942D0AEE
:103B600080911605882331F06EE37BE08DE695E0C9
:103B70000E940C0C809120058F7B809320050E9471
:103B8000C80A80911605882391F064E27BE08DE6F7
:103B900095E00E940C0CDD2051F0809116058823E1
:103BA00031F06BE77BE08DE695E00E940C0C87E03E
:103BB0000E942D0A16CF80911505823061F7809101
:103BC00091040E94C00EE7CF7C9CF0017D9CF00D1B
:103BD0001124EF5FFD4F80911B0590E0228133811E
:103BE00082239323892B09F0AECE0E94890E809107
:103BF0001605882309F4B9CE6AEE7AE08DE695E0E1
:103C00000E940C0CADCEFC0188279927E8942191E5
:103C10002032E9F3293010F02E30C8F32B3239F07E
:103C20002D3231F4689403C070D0820F911D219120
:103C300020532A30C8F31EF4909581959F4F089524
:103C40001F93FC0199278827BC01E8941191103239
:103C5000E9F3193010F01E30C8F31B3249F01D3261
:103C600041F4689405C03CD0610F711D811D911D08
:103C7000119110531A30B8F33EF4909580957095D9
:103C800061957F4F8F4F9F4F1F9108954AE056E0F7
:103C900000C0FA01A191B081009719F41097E1F0EA
:103CA000CD01DC01CD010D90002011F4C00113C045
:103CB000FB012191222319F02015D9F7F3CFFB0145
:103CC0002191201519F41E92119606C02223C1F7E6
:103CD0000D900020A1F7D001FA01A193B0830895BF
:103CE000592F482F372F262F660F771F881F991FB0
:103CF000660F771F881F991F620F731F841F951F00
:103D0000660F771F881F991F08957AE0979F902D5F
:103D1000879F802D910D11240895F999FECF92BDB2
:103D200081BDF89A992780B50895262FF999FECF7D
:103D30001FBA92BD81BD20BD0FB6F894FA9AF99AC8
:103D40000FBE01960895A1E21A2EAA1BBB1BFD010E
:103D50000DC0AA1FBB1FEE1FFF1FA217B307E4076A
:103D6000F50720F0A21BB30BE40BF50B661F771FC2
:103D7000881F991F1A9469F76095709580959095A2
:103D80009B01AC01BD01CF010895EE0FFF1F881FFD
:103D90008BBF0790F691E02D1994FB01DC0102C066
:103DA00001900D9241505040D8F70895FB01DC017D
:103DB0008D9181341CF08B350CF4805E61916134FF
:103DC0001CF06B350CF4605E861B611189F3990B56
:103DD0000895FB01DC010D900020E9F71197415097
:103DE000504028F0019000200D92C9F708951C92D0
:103DF0000895FB01DC014150504030F08D9101905D
:103E0000801919F40020B9F7881B990B0895FB015C
:103E1000DC014150504048F001900D920020C9F75C
:103E200001C01D9241505040E0F708950F931F9339
:103E3000CF93DF93CDB7DEB72E970FB6F894DEBFE2
:103E40000FBECDBF0E891F89888D998D26E02C83EA
:103E50001A83098397FF02C080E090E801979E8350
:103E60008D83AE01445E5F4F6A8D7B8DCE010196DE
:103E700019D04D815E8157FD0AC02F8138854217C8
:103E800053070CF49A01020F131FF80110822E96AB
:103E90000FB6F894DEBF0FBECDBFDF91CF911F915B
:103EA0000F9108952F923F924F925F926F927F925F
:103EB0008F929F92AF92BF92CF92DF92EF92FF923A
:103EC0000F931F93CF93DF9300D000D000D01F92A9
:103ED0001F92CDB7DEB77C013B018A01FC0117823E
:103EE0001682838181FFD0C1CE0101965C01F7016A
:103EF0009381F30193FD859193FF81913F01882385
:103F000009F449C1853239F493FD859193FF81917C
:103F10003F01853221F4B70190E0CFD1E8CF912C59
:103F2000212C312CFFE1F31538F08B3211F190F494
:103F3000803209F1833229F137FC3CC020ED280F93
:103F40002A3050F536FE20C08AE0989E200D1124BC
:103F5000922E06C08D3291F0803371F7689430F85C
:103F6000F30193FD859193FF81913F018111DACF98
:103F700021C0689431F8689432F8F2CF689433F82D
:103F8000EFCF689434F8ECCFEAE02E9E200D112498
:103F9000222E689435F8E4CF8E3229F436FCFBC02B
:103FA000689436F8DDCF8C3619F4689437F8D8CF9A
:103FB0008836B1F2982F9F7D95549330D8F0833690
:103FC00091F18337B1F1833509F05EC02801F2E049
:103FD0004F0E511CF801C080D180692D70E036FC75
:103FE00002C06FEF7FEFC60152D14C01689437F8E1
:103FF00082010AC00C5F1F4FFFE3F983882483947A
:10400000912C6501E89437F833FE2AC0522C8114B4
:10401000910459F5552009F46ACFB70180E290E088
:104020004CD15A94F7CFF801808189830E5F1F4FDE
:10403000E5CF2801F2E04F0E511CF801C080D1807D
:10404000692D70E036FC02C06FEF7FEFC6012AD108
:104050004C018201D7CFB70180E290E02ED12A94A3
:104060002814190409F0B8F7D1CFF60137FC85916F
:1040700037FE81916F01B70190E01FD151105A9422
:10408000F1E08F1A9108C3CF843619F0893609F010
:1040900073C0F80137FE67C06081718182819381AE
:1040A0000C5F1F4FF32DFF763F2E97FF09C09095B1
:1040B0008095709561957F4F8F4F9F4F689437F82B
:1040C0002AE030E0A50129D1C82ECA188C2C432C37
:1040D00036FE0CC0E89440F8C91440F434FE05C024
:1040E00032FC03C0F32DFE7E4F2E892C44FEA6C069
:1040F000FE01EC0DF11D8081803309F098C0242D64
:10410000297E422E842D8870582E43FCA5C040FE87
:104110009FC09C2C821418F42C0C922C981844FEEE
:10412000A1C0B70180E390E0C8D042FE08C088E794
:1041300090E041FE02C088E590E0B701BED0C9140E
:1041400008F49CC0CA94D12C9FEFC91AD90ACA0C92
:10415000DB1CF60182916F01B70190E0AED0AC1488
:10416000BD04B9F757CF60817181072E000C880B11
:10417000990B0E5F1F4F96CFD32CE894D4F82AE00A
:1041800030E08537E1F1232D297FD22E8F36A9F13A
:10419000F0F4883551F1F701868197812B960FB69F
:1041A000F894DEBF0FBECDBFDF91CF911F910F916D
:1041B000FF90EF90DF90CF90BF90AF909F908F9047
:1041C0007F906F905F904F903F902F900895803731
:1041D00049F0883701F7D4FE02C06894D2F820E194
:1041E00030E00DC06894D4F8F6CF34FE03C0822FBF
:1041F0008660D82E20E132E002C028E030E0F801ED
:10420000D7FE0EC060817181828193810C5F1F4F48
:10421000A50183D0C82ECA183D2CE89437F856CF94
:104220006081718190E080E00E5F1F4FF1CF42FC12
:1042300002C0839467CF8394839464CF842D86785F
:1042400009F460CFF6CFB70180E290E036D08394D6
:104250008214C8F3512C63CF522C5818821408F4DE
:104260005ECFF8CF842D867809F469CF8BE241FECA
:1042700080E247FC8DE2B70190E060CFB70180E3B8
:1042800090E01BD09A945BCF8FEF9FEF87CFFC011C
:104290000590615070400110D8F7809590958E0F71
:1042A0009F1F0895FC016150704001900110D8F7E4
:1042B000809590958E0F9F1F08950F931F93CF9316
:1042C000DF93182F092FEB018B8181FD09C01FEFB0
:1042D0000FEF812F902FDF91CF911F910F910895B4
:1042E00082FF14C02E813F818C819D812817390760
:1042F0003CF4E881F981CF0101969983888310838A
:104300008E819F8101969F838E83E3CFE885F98517
:10431000812F1995892BA1F3DACFFA01AA2728302A
:1043200051F1203181F1E8946F936E7F6E5F7F4F82
:104330008F4F9F4FAF4FB1E03ED0B4E03CD0670FFE
:10434000781F891F9A1FA11D680F791F8A1F911D51
:10435000A11D6A0F711D811D911DA11D20D009F4A1
:1043600068943F912AE0269F11243019305D3193E3
:10437000DEF6CF010895462F4770405D4193B3E0CC
:104380000FD0C9F7F6CF462F4F70405D4A3318F073
:10439000495D31FD4052419302D0A9F7EACFB4E024
:1043A000A6959795879577956795BA95C9F70097DC
:1043B0006105710508959B01AC010A2E069457957D
:1043C000479537952795BA95C9F7620F731F841FD4
:0A43D000951FA01D0895F894FFCF7B
:1043DA0001B80303006A19BD03020020175504023D
:1043EA0000B917C6030200630ECA030200FB0DCE12
:1043FA00030300EB0A2C030300BD18D603030014C1
:10440A0015DA030300FA18DE030300FB17E70303B8
:10441A00002F18F2030200490EF60303009311F964
:10442A000303006113FD030200350F01040200DFDC
:10443A000E050401004B1509040200AC0E0F04031B
:10444A00006C1814040200D60D1A040200E3121FAD
:10445A000402002B192B040200D0142F040200D6E8
:10446A001336040300160E3A04020023173E04030F
:10447A00000B0E46040300F619C0030200CF154EC6
:10448A00040200C80B5204020053145A0401008D9E
:10449A0015610401008F1465040300800F69040389
:1044AA00008E0E71040300A5137704030081120025
:1044BA00000000EE06590686063A07B7069506A9D1
:1044CA00060D0A00566572626F73653A20003E2037
:1044DA0000616C6C007265616C002A69646E3F0051
:1044EA00200900766572737472006E616D650073DF
:1044FA00657269616C002530396C7500656F6900F9
:10450A0044697361626C656400456E61626C6564DE
:10451A00000A0D00535251206175746F204F4E00EE
:10452A00535251206175746F204F46460052454ED2
:10453A002061737365727465640052454E20756E0E
:10454A002D617373657274656400434F4E54524F04
:10455A004C4C455200444556494345005365742026
:10456A00646576696365207365636F6E64617279E9
:10457A00206164647265737320746F3A20007665F3
:10458A007273747220002D006164647200616C6C35
:10459A0073706F6C6C00636C720064636C006465AA
:1045AA006661756C7400656F7200656F7300656F84
:1045BA00745F6368617200656F745F656E61626CD7
:1045CA0065006966630069640069646E006C6C6FFB
:1045DA00006C6F63006C6F6E006D6163726F006DCB
:1045EA006F64650070706F6C6C0072656164007254
:1045FA006561645F746D6F5F6D730072656E0072E2
:10460A006570656174007273740074726700736117
:10461A007665636667007365747673747200737285
:10462A0071007372716175746F007374617475735C
:10463A0000746F6E0076657200766572626F7365DC
:0E464A0000746D62757300786469616700002A
:020000023000CC
:10E000000D9489F10D94B2F10D94B2F10D94B2F129
:10E010000D94B2F10D94B2F10D94B2F10D94B2F1F0
:10E020000D94B2F10D94B2F10D94B2F10D94B2F1E0
:10E030000D94B2F10D94B2F10D94B2F10D94B2F1D0
:10E040000D94B2F10D94B2F10D94B2F10D94B2F1C0
:10E050000D94B2F10D94B2F10D94B2F10D94B2F1B0
:10E060000D94B2F10D94B2F10D94B2F10D94B2F1A0
:10E070000D94B2F10D94B2F10D94B2F10D94B2F190
:10E080000D94B2F10D94B2F10D94B2F10D94B2F180
:10E090000D94B2F10D94B2F10D94B2F10D94B2F170
:10E0A0000D94B2F10D94B2F10D94B2F10D94B2F160
:10E0B0000D94B2F10D94B2F10D94B2F10D94B2F150
:10E0C0000D94B2F10D94B2F10D94B2F10D94B2F140
:10E0D0000D94B2F10D94B2F10D94B2F10D94B2F130
:10E0E0000D94B2F141546D656761323536300041AF
:10E0F000726475696E6F206578706C6F72657220DE
:10E1000073746B3530305632206279204D4C530099
:10E11000426F6F746C6F616465723E004875683F52
:10E1200000436F6D70696C6564206F6E203D200048
:10E130004350552054797065202020203D20005FF9
:10E140005F4156525F415243485F5F3D2000415658
:10E1500052204C696243205665723D20004743437C
:10E160002056657273696F6E203D20004350552024
:10E1700049442020202020203D20004C6F7720663D
:10E18000757365202020203D20004869676820665F
:10E190007573652020203D200045787420667573D6
:10E1A00065202020203D20004C6F636B2066757336
:10E1B000652020203D20004D617220203720323024
:10E1C000313300312E362E3800342E332E350056A2
:10E1D00023202020414444522020206F7020636F70
:10E1E00064652020202020696E73747275637469E1
:10E1F0006F6E2061646472202020496E74657272B3
:10E20000757074006E6F20766563746F7200726A49
:10E210006D702020006A6D70200057686174207056
:10E220006F72743A00506F7274206E6F7420737541
:10E2300070706F72746564004D7573742062652030
:10E2400061206C6574746572002000577269747483
:10E25000696E672045450052656164696E672045B7
:10E26000450045452065727220636E743D00504F35
:10E27000525400303D5A65726F2061646472003FF1
:10E280003D43505520737461747300403D454550C3
:10E29000524F4D207465737400423D426C696E6B41
:10E2A000204C454400453D44756D70204545505215
:10E2B0004F4D00463D44756D7020464C415348001B
:10E2C000483D48656C70004C3D4C69737420492F83
:10E2D0004F20506F72747300513D51756974005234
:10E2E0003D44756D702052414D00563D73686F7707
:10E2F00020696E7465727275707420566563746FF0
:10E30000727300593D506F727420626C696E6B00BD
:10E310002A0011241FBECFEFD1E2DEBFCDBF01E046
:10E320000CBF12E0A0E0B2E0EEE1FDEF03E00BBFB6
:10E3300002C007900D92A030B107D9F712E0A0E01B
:10E34000B2E001C01D92AE30B107E1F70F9460F367
:10E350000D948DFE01E20EBF0FEF0DBF11241FBE05
:10E360000D9460F30D9400F020E030E040ED57E0B4
:10E3700005C0FA013197F1F72F5F3F4F2817390792
:10E38000C0F308959C01260F311DC901A0E0B0E043
:10E390002F5F3F4FABBFFC018791882361F08093D3
:10E3A000C6008091C00086FFFCCF8091C0008064D1
:10E3B0008093C000EACF08958DE08093C6008091DD
:10E3C000C00086FFFCCF8091C00080648093C000B5
:10E3D0008AE08093C6008091C00086FFFCCF8091C8
:10E3E000C00080648093C00008950F94C2F10F9420
:10E3F000DCF10895FC019081992359F09093C600B7
:10E400008091C00086FFFCCF8091C0008064809323
:10E41000C0003196992379F70895282F982F929567
:10E420009F70892F805D8A3308F0895F8093C600D2
:10E430008091C00086FFFCCF8091C00080648093F3
:10E44000C000822F8F70982F905D9A3308F0995FEB
:10E450009093C6008091C00086FFFCCF8091C000E1
:10E4600080648093C00008959C01FB01853691056E
:10E470001CF46330710594F0C90164E670E00F94F8
:10E480002EFE605D7F4F6093C6008091C00086FFC6
:10E49000FCCF8091C00080648093C0002B30310598
:10E4A00014F43297B4F0C90164E670E00F942EFEC4
:10E4B0006AE070E00F942EFE605D7F4F6093C600AF
:10E4C0008091C00086FFFCCF8091C0008064809363
:10E4D000C000C9016AE070E00F942EFEC0968093E0
:10E4E000C6008091C00086FFFCCF8091C000806490
:10E4F0008093C00008951F93182F8EE692EE60E07F
:10E500000F94C2F11093C6008091C00086FFFCCF2B
:10E510008091C00080648093C0000F94DCF11F9153
:10E5200008952F923F924F925F926F927F928F92B7
:10E530009F92AF92BF92CF92DF92EF92FF920F9392
:10E540001F93DF93CF93CDB7DEB762970FB6F894E2
:10E55000DEBF0FBECDBF382E622ECA01DB015C01CB
:10E560006D01772420E2222E2E010894411C511CBB
:10E570008BC081E0A81680E0B80681E0C80680E084
:10E58000D80628F0C601AA27BB270F940DF2BB2797
:10E59000AD2D9C2D8B2D0F940DF28A2D0F940DF225
:10E5A0002092C6008091C00086FFFCCF8091C00001
:10E5B00080648093C0009DE29093C6008091C0006B
:10E5C00086FFFCCF8091C00080648093C0002092C1
:10E5D000C6008091C00086FFFCCF8091C00080649F
:10E5E0008093C00019828601750188249924A1E0D6
:10E5F0003A1651F03A1620F0B2E03B1661F409C029
:10E600000BBFF701779007C0C7010F9477FE782EF4
:10E6100002C0F7017080872D0F940DF22092C60082
:10E620008091C00086FFFCCF8091C0008064809301
:10E63000C000872D8052F401EF70F0708F3520F408
:10E64000E40DF51D708204C0E40DF51D8EE280839B
:10E650000894E11CF11C011D111D0894811C911CE2
:10E6600090E18916910409F0C2CF80E190E0A0E02A
:10E67000B0E0A80EB91ECA1EDB1E198AC2010F9493
:10E68000FAF10F94DCF16A94662009F072CF629679
:10E690000FB6F894DEBF0FBECDBFCF91DF911F91B3
:10E6A0000F91FF90EF90DF90CF90BF90AF909F9031
:10E6B0008F907F906F905F904F903F902F90089534
:10E6C0002F923F924F925F926F927F928F929F9282
:10E6D000AF92BF92CF92DF92EF92FF920F931F9370
:10E6E000DF93CF93CDB7DEB7CD53D1400FB6F894BB
:10E6F000DEBF0FBECDBF01E20EBF0FEF0DBF94B75F
:10E70000F894A89514BE80916000886180936000A1
:10E7100010926000789493FF05C0E0910002F091A0
:10E7200001021995279A2F9A8091C00082608093E8
:10E73000C00080E18093C40088E18093C1000000A4
:10E74000EE24FF24870144E0A42EB12CCC24DD2448
:10E7500024C0C5010197F1F70894E11CF11C011DCB
:10E76000111D21E2E2162EE4F20620E0020720E06D
:10E77000120718F031E0C32ED12CC801B70127ECE5
:10E780003BE140E050E00F9441FE611571058105C9
:10E79000910519F485B1805885B98091C00087FD35
:10E7A00003C0C114D104A9F2A6014F5F5F4FC25E3E
:10E7B000DE4F59834883CE51D140C25EDE4F8881FF
:10E7C0009981CE51D140019711F00D9410FEC05D9A
:10E7D000DE4F19821882C053D14060E0C15DDE4F28
:10E7E0001882CF52D14088249924C35DDE4F19820C
:10E7F0001882CD52D140C05EDE4F188219821A8233
:10E800001B82C052D140CE5CDE4F188219821A8220
:10E810001B82C253D140EE24FF2487010BBFF701B6
:10E8200007911691C45CDE4F19830883CC53D14005
:10E830000D940BFEC25EDE4F28813981CE51D1404E
:10E840002130310509F52091C600C25EDE4F1982E4
:10E850001882CE51D14022C02F5F3F4F4F4F5F4FA4
:10E86000213082E138078AE7480780E0580780F0C6
:10E87000C45CDE4FE881F981CC53D140EF5FFF4F9C
:10E8800019F0EE27FF27099420E030E040E050E047
:10E890008091C00087FFE0CF2091C600C35DDE4FAE
:10E8A00048815981CD52D1404F5F5F4FC35DDE4FEC
:10E8B00059834883CD52D140213209F063C64A3092
:10E8C000510508F05FC60894811C911C53E0851621
:10E8D000910409F059C600E010E018C081E280936D
:10E8E000C6008091C00086FFFCCF8091C00080648C
:10E8F0008093C0002F5F3F4F2931310579F70F9486
:10E90000DCF10F5F1F4F0530110519F020E030E0FA
:10E91000E5CF10920A0210920B0210920C02109294
:10E920000D02109206021092070210920802109235
:10E930000902109202021092030210920402109235
:10E9400005028FEE90EE60E00F94F5F180E191EE1C
:10E9500060E00F94C2F18091C00087FFFCCF9091DE
:10E96000C600903608F09F759032B8F09093C600BC
:10E970008091C00086FFFCCF8091C00080648093AE
:10E98000C000A0E2A093C6008091C00086FFFCCF2B
:10E990008091C00080648093C000983409F4D7C18E
:10E9A0009934B8F4923409F459C1933458F490333B
:10E9B00019F1903308F4E3C59F33A1F1903409F0C5
:10E9C000DEC5BDC0953409F470C1963409F0D7C5D1
:10E9D00098C1923509F42BC2933538F49C3409F46C
:10E9E000F5C1913509F0CBC518C2963509F445C279
:10E9F000993509F0C4C567C483E792EE62E00F94CD
:10EA0000F5F110920602109207021092080210927D
:10EA1000090210920A0210920B0210920C0210923C
:10EA20000D0213C18FE792EE62E00F94F5F18FEEC5
:10EA300090EE60E00F94F5F181E291EE60E00F94CA
:10EA4000C2F187EB91EE60E00F94F5F180E391EE77
:10EA500060E00F94C2F184EE90EE60E00F94F5F167
:10EA60008FE391EE60E00F94C2F186E090E061E008
:10EA700070E00F9434F20F94DCF18DE591EE60E0DC
:10EA80000F94C2F189EC91EE60E00F94F5F18EE401
:10EA900091EE60E00F94C2F183EC91EE60E00F9490
:10EAA000F5F18CE691EE60E00F94C2F18EE10F94E7
:10EAB0000DF288E90F940DF281E00F940DF20F949E
:10EAC000DCF18BE791EE60E00F94C2F119E0E0E039
:10EAD000F0E010935700E4918E2F0F940DF20F94F5
:10EAE000DCF18AE891EE60E00F94C2F1E3E0F0E03F
:10EAF00010935700E4918E2F0F940DF20F94DCF1D8
:10EB000089E991EE60E00F94C2F1E2E0F0E0109349
:10EB10005700E4918E2F0F940DF20F94DCF188EAE8
:10EB200091EE60E00F94C2F1E1E0F0E01093570045
:10EB30001491812F0F940DF20F94DCF107CF8BE825
:10EB400092EE62E00F94F5F18BE492EE60E00F94A8
:10EB5000F5F10F94DCF100E010E019C0C8016F2D51
:10EB60000F947FFEFF2031F489E492EE60E00F9471
:10EB7000C2F10BC0F092C6008091C00086FFFCCFAE
:10EB80008091C00080648093C0000F5F1F4FC80158
:10EB900081519F41A0E0B0E0ABBFFC01F790BAE229
:10EBA000FB1621F0E2E000301E07C1F60F94DCF105
:10EBB0000F94DCF187E592EE60E00F94F5F10F948D
:10EBC000DCF1CC24DD2400E010E01EC0C8010F946D
:10EBD00077FEF82E882331F489E492EE60E00F94FA
:10EBE000C2F10BC08093C6008091C00086FFFCCFAD
:10EBF0008091C00080648093C000FE1419F00894D6
:10EC0000C11CD11C0F5F1F4FC80181519F41A0E063
:10EC1000B0E0ABBFFC01E790FAE2EF1621F022E092
:10EC20000030120799F60F94DCF10F94DCF182E6C4
:10EC300092EE60E00F94C2F1C60161E070E00F94C3
:10EC400034F20F94DCF10F94DCF110920202109276
:10EC50000302109204021092050278CE89E992EE26
:10EC600062E00F94F5F1279A2F9A16C02F9880E052
:10EC700090E0E0EDF7E03197F1F7019684369105E9
:10EC8000C1F72F9A80E090E0E0EDF7E03197F1F7DF
:10EC9000019684369105C1F78091C00087FFE6CFC9
:10ECA0008091C00087FFFCCF64C485EA92EE62E0E9
:10ECB0000F94F5F140910202509103026091040219
:10ECC0007091050281E020E10F9491F2809102029F
:10ECD00090910302A0910402B091050280509F4FD1
:10ECE000AF4FBF4F8093020290930302A0930402A0
:10ECF000B093050280509041A040B04008F426CE69
:10ED0000A4CF83EB92EE62E00F94F5F140910602FE
:10ED100050910702609108027091090280E020E1A1
:10ED20000F9491F28091060290910702A09108023F
:10ED3000B091090280509F4FAF4FBF4F80930602A2
:10ED400090930702A0930802B0930902FFCD80ECD4
:10ED500092EE62E00F94F5F183E792EE60E00F949B
:10ED6000F5F18FE792EE60E00F94F5F18BE892EE0B
:10ED700060E00F94F5F189E992EE60E00F94F5F10F
:10ED800085EA92EE60E00F94F5F183EB92EE60E09D
:10ED90000F94F5F180EC92EE60E00F94F5F187ECC2
:10EDA00092EE60E00F94F5F188ED92EE60E00F9442
:10EDB000F5F18FED92EE60E00F94F5F18AEE92EEB0
:10EDC00060E00F94F5F183E093EEBDCD87EC92EE19
:10EDD00062E00F94F5F181E40F947BF282E40F94EA
:10EDE0007BF283E40F947BF284E40F947BF285E45E
:10EDF0000F947BF286E40F947BF287E40F947BF20E
:10EE000088E40F947BF28AE40F947BF28BE40F94F6
:10EE10007BF28CE40F947BF299CD88ED92EE62E068
:10EE20000F94F5F1772473948824992409C48FED05
:10EE300092EE62E00F94F5F140910A0250910B02BC
:10EE400060910C0270910D0282E020E10F9491F22A
:10EE500080910A0290910B02A0910C02B0910D02D8
:10EE600080509F4FAF4FBF4F80930A0290930B0289
:10EE7000A0930C02B0930D0269CD8AEE92EE62E08F
:10EE80000F94F5F184EE90EE60E00F94F5F18FECC5
:10EE900091EE60E00F94F5F1662477244301CC5D98
:10EEA000DE4F19821882C452D140D401C301B695F5
:10EEB000A79597958795CA5DDE4F88839983AA8326
:10EEC000BB83C652D140CC5DDE4FA881B981C4520C
:10EED000D1401196CC5DDE4FB983A883C452D14096
:10EEE000CD0162E070E00F9434F2B0E2B093C6005E
:10EEF0008091C00086FFFCCF8091C0008064809329
:10EF0000C000EDE2E093C6008091C00086FFFCCF18
:10EF10008091C00080648093C000F0E2F093C6004E
:10EF20008091C00086FFFCCF8091C00080648093F8
:10EF3000C000CA5DDE4FE880F9800A811B81C6529D
:10EF4000D140BB27A12F902F8F2D0F940DF2CA5DBA
:10EF5000DE4F8881C652D1400F940DF2B0E2FB2EF5
:10EF6000F092C6008091C00086FFFCCF8091C00067
:10EF700080648093C0000DE30093C6008091C000C0
:10EF800086FFFCCF8091C00080648093C00010E2B7
:10EF90001093C6008091C00086FFFCCF8091C00016
:10EFA00080648093C0008BBEF3012791C65DDE4F65
:10EFB0002883CA52D140A22EBB24CC24DD2408943D
:10EFC000611C711C811C911C8BBEF3018791282E42
:10EFD0003324442455240894611C711C811C911C09
:10EFE0008BBEF3013791C55DDE4F3883CB52D140E4
:10EFF0000894611C711C811C911C8BBEF30147910C
:10F00000C45DDE4F4883CC52D140ADEFEA2EAFEF66
:10F01000FA2EAFEF0A2FAFEF1A2F6E0C7F1C801E57
:10F02000911E142D032DF22CEE24EA0CFB1C0C1D5A
:10F030001D1D0F940DF220E22093C6008091C000A8
:10F0400086FFFCCF8091C00080648093C000C65DC5
:10F05000DE4F8881CA52D1400F940DF230E23093D6
:10F06000C6008091C00086FFFCCF8091C000806404
:10F070008093C000C45DDE4F8881CC52D1400F9494
:10F080000DF240E24093C6008091C00086FFFCCFA5
:10F090008091C00080648093C000C55DDE4F888190
:10F0A000CB52D1400F940DF250E25093C6008091A4
:10F0B000C00086FFFCCF8091C00080648093C000B8
:10F0C0008FEFE8168FEFF80680E0080780E018075A
:10F0D00031F484E092EE60E00F94C2F1DFC0D80119
:10F0E000C7018070907CA070B0708050904CA040A0
:10F0F000B040D1F52FEF3FE340E050E0E222F322B1
:10F1000004231523CA5DDE4FA880B980CA80DB8046
:10F11000C652D140AE0CBF1CC01ED11EAA0CBB1CD7
:10F12000CC1CDD1C8EE092EE60E00F94C2F1BB2798
:10F13000A12F902F8F2D0F940DF28E2D0F940DF285
:10F1400030E23093C6008091C00086FFFCCF8091F2
:10F15000C00080648093C0004EE34093C60080915D
:10F16000C00086FFFCCF87C08EE09EEFA0E0B0E03D
:10F17000E822F9220A231B239CE0E91694E9F90608
:10F1800090E0090790E0190709F088C0C45DDE4FE0
:10F19000A881CC52D140EA2EFF2400E010E0102FCD
:10F1A0000F2DFE2CEE24C55DDE4FB881CB52D14031
:10F1B000EB0EF11C011D111DD601C501817090706F
:10F1C000A070B070DC0199278827E80EF91E0A1F8D
:10F1D0001B1F20EF30E040E050E0A222B322C42207
:10F1E000D52241E1AA0CBB1CCC1CDD1C4A95D1F7F1
:10F1F000EA0CFB1C0C1D1D1D81E090E0A0E0B0E0BE
:10F20000282239224A225B2235E1220C331C441C7D
:10F21000551C3A95D1F7E20CF31C041D151D57013E
:10F220006801AA0CBB1CCC1CDD1C85E192EE60E0E1
:10F230000F94C2F1C801AA27BB270F940DF2BB2778
:10F24000A12F902F8F2D0F940DF28E2D0F940DF274
:10F2500090E29093C6008091C00086FFFCCF809121
:10F26000C00080648093C000AEE3A093C60080918C
:10F27000C00086FFFCCF8091C00080648093C000F6
:10F28000C601AA27BB270F940DF2BB27AD2D9C2DDD
:10F290008B2D0F940DF28A2D0F940DF20F94DCF14B
:10F2A000CC5DDE4FE881F981C452D140F99709F471
:10F2B0004DCBF4E0EF2EF12C012D112D6E0C7F1CA7
:10F2C000801E911EF2CD83E093EE62E00F94F5F183
:10F2D0008AE192EE60E00F94C2F18091C00087FF56
:10F2E000FCCF1091C6001F751093C6008091C0001E
:10F2F00086FFFCCF8091C00080648093C0000F9493
:10F30000DCF1812F81548A3108F036C1163409F4BA
:10F3100095C0173490F4133409F44EC0143430F40B
:10F320001134F1F0123409F01DC130C0143409F465
:10F3300059C0153409F016C16BC01A3409F4C4C0A1
:10F340001B3438F4173409F48FC0183409F00AC19B
:10F35000A1C01B3409F4D2C01C3409F003C1E8C0B9
:10F360008FEF81B90DC082B1809582B980E090E0C5
:10F37000E0EDF7E03197F1F70196883C9105C1F790
:10F380008091C00087FFEFCF12B8EFC08FEF84B934
:10F390000DC085B1809585B980E090E0E0EDF7E0A3
:10F3A0003197F1F70196883C9105C1F78091C00033
:10F3B00087FFEFCF15B8D9C08FEF87B90DC088B1DF
:10F3C000809588B980E090E0E0EDF7E03197F1F7C3
:10F3D0000196883C9105C1F78091C00087FFEFCF6F
:10F3E00018B8C3C08FEF8AB90DC08BB180958BB9A7
:10F3F00080E090E0E0EDF7E03197F1F70196883C8E
:10F400009105C1F78091C00087FFEFCF1BB8ADC059
:10F410008FEF8DB90DC08EB180958EB980E090E0F0
:10F42000E0EDF7E03197F1F70196883C9105C1F7DF
:10F430008091C00087FFEFCF1EB897C08FEF80BBD1
:10F440000DC081B3809581BB80E090E0E0EDF7E0F6
:10F450003197F1F70196883C9105C1F78091C00082
:10F4600087FFEFCF11BA81C08FEF83BB0DC084B38C
:10F47000809584BB80E090E0E0EDF7E03197F1F714
