:10000000CDC50000FCC50000FAC50000F8C5000021
:10001000F6C50000F4C50000F2C50000F0C5000000
:10002000EEC50000ECC50000EAC50000E8C5000010
:10003000E6C50000E4C50000E2C50000E0C5000020
:10004000DEC50000DCC50000DAC50000D8C5000030
:10005000D6C50000D4C50000D2C500000C941D19FF
:10006000CEC500000C94E7180C94BD18C8C500005C
:10007000C6C50000C4C50000C2C50000C0C5000060
:10008000BEC50000BCC50000BAC50000B8C5000070
:10009000B6C50000B4C50000B2C50000B0C5000080
:1000A000AEC50000ACC50000AAC50000A8C5000090
:1000B000A6C50000A4C50000A2C50000A0C50000A0
:1000C0009EC500009CC500009AC5000098C50000B0
:1000D00096C5000094C5000092C5000090C50000C0
:1000E0008EC50000556E7265636F676E697A6564D0
:1000F00020636F6D6D616E64004552524F52202D2A
:1001000020436F6D6D616E64206275666665722056
:100110006F766572666C6F77210020616E642000D7
:1001200056616C69642072616E6765206973206234
:1001300065747765656E20002000536574206465E2
:1001400076696365207072696D617279206164649B
:100150007265737320746F3A20005468617420696B
:1001600073206D792061646472657373212041642A
:100170006472657373206F6620612072656D6F74A1
:1001800065206465766963652069732072657175A1
:10019000697265642E00206D696C6C697365636FAC
:1001A0006E647300536574205B726561645F746D87
:1001B0006F5F6D735D20746F3A2000536574204546
:1001C0004F5320746F3A200053657420454F4920E7
:1001D000617373657274696F6E3A2000496E74655D
:1001E0007266616365206D6F646520736574207449
:1001F0006F3A2000417070656E64696E67206F66AB
:1002000020454F54206368617261637465723A20BF
:1002100000454F542073657420746F204153434947
:1002200049206368617261637465723A20004175A8
:10023000746F206D6F64653A2000202020202020FC
:100240002020202761646472657373656420746F75
:100250002074616C6B20627574206E6F7468696EB7
:100260006720746F2073617927206572726F7273D3
:10027000005741524E494E473A206175746F6D6F79
:100280006465204F4E2063616E2063617573652045
:10029000736F6D65206465766963657320746F2084
:1002A00067656E6572617465004152343838204765
:1002B00050494220636F6E74726F6C6C65722C20B3
:1002C0007665722E20302E34382E32382C20303184
:1002D0002F30372F323032300041523438382047F7
:1002E00050494220636F6E74726F6C6C65722C2083
:1002F0007665722E20302E34382E32382C20303154
:100300002F30372F3230323000496E76616C69649D
:10031000207465726D696E6174696F6E20636861C7
:10032000726163746572202D2069676E6F726564F7
:1003300021004661696C656420746F20756E74617C
:100340006C6B204750494220627573004661696CAE
:10035000656420746F2073656E64205344430046C7
:1003600061696C656420746F206164647265737385
:1003700020646576696365004661696C6564207414
:100380006F20756E6C697374656E207468652047A4
:1003900050494220627573004661696C656420743F
:1003A0006F2073656E64204C4C4F20746F20646521
:1003B00076696365004661696C656420746F2061CD
:1003C000646472657373207468652064657669631C
:1003D000652E004661696C656420746F2073656EDC
:1003E0006420756E6976657273616C204C4C4F2E7B
:1003F000004661696C656420746F20756E6C69736A
:1004000074656E2047504942206275732E00466124
:10041000696C65642073656E64696E67204C4F4338
:100420002E004661696C656420746F20616464729B
:10043000657373206465766963652E0049464320C1
:100440007369676E616C2061737365727465642093
:10045000666F7220313530206D6963726F7365632A
:100460006F6E64730047726F75702074726967678E
:10047000657220636F6D706C657465642E004661F3
:10048000696C656420746F20756E6C697374656E39
:10049000204750494220627573004661696C65646B
:1004A00020746F207472696767657220646576696D
:1004B0006365004661696C656420746F20616464E3
:1004C0007265737320646576696365005265736550
:1004D00074204641494C45442E0053657269616C55
:1004E00020706F6C6C20636F6D706C657465642E2A
:1004F000004661696C656420746F2072657472696E
:100500006576652073746174757320627974650013
:100510005D2066726F6D2064657669636520617425
:1005200020616464726573733A2000526563656983
:1005300076656420737461747573206279746520C4
:100540005B002C005352513A00496E76616C69642D
:1005500020706172616D65746572005365726961C6
:100560006C20706F6C6C206F6620616C6C20646511
:100570007669636573207265717565737465642E41
:100580002E2E0053525120756E2D61737365727457
:1005900065642E00535251206173736572746564F3
:1005A0002E0053657474696E677320736176656499
:1005B0002E004C4F4E3A200053656E64696E6720E2
:1005C00044434C206661696C656400536574204542
:1005D0004F5220746F3A2000506172616C6C656CF0
:1005E00020706F6C6C20636F6D706C657465642E29
:1005F0000052454E3A2000544F4E3A20004D697348
:1006000073696E6720706172616D657465727300E5
:100610004D697373696E6720706172616D65746591
:10062000720044697361626C656400496E76616C46
:1006300069643A20303D64617461206275733B20C7
:10064000313D636F6E74726F6C2062757300546D10
:100650004275732073657420746F3A20005365727D
:1006600069616C206E756D626572206D75737420A2
:100670006E6F7420657863656564203920636861F6
:100680007261637465727321004C656E67746820D3
:100690006F66206E616D65206D757374206E6F746A
:1006A0002065786365656420313520636861726117
:1006B000637465727321004C656E677468206F66A1
:1006C0002076657273696F6E20737472696E67202D
:1006D0006D757374206E6F74206578636565642032
:1006E00034382063686172616374657273210056E7
:1006F00065725374723A20002077697468207365BC
:100700007269616C206E756D6265720053656E640E
:10071000696E672049444E3A200020746F2064655A
:1007200076696365006770696253656E64436D64E2
:100730003A206661696C656420746F2073656E642D
:1007400020636F6D6D616E64200067706962536530
:100750006E64446174613A204661696C656420741A
:100760006F20756E74616C6B206275730054696DD7
:10077000656F75742077616974696E6720666F7242
:10078000207472616E7366657220746F20636F6D82
:10079000706C657465210054696D656F75742077A0
:1007A000616974696E6720666F722073656E646537
:1007B000722100454F492064657465637465642146
:1007C00000427974657320726561643A2000207478
:1007D0006F2074616C6B004661696C656420746F96
:1007E0002061646472657373207468652064657643
:1007F0006963650067706962526561644279746516
:100800003A2074696D656F75742077616974696EDB
:10081000672044415620746F20676F20484947483D
:10082000006770696252656164427974653A207448
:10083000696D656F75742077616974696E6720668C
:100840006F722044415620746F20676F204C4F57C1
:1008500000677069625772697465427974653A20FD
:1008600074696D656F75742077616974696E67204E
:10087000666F722064617461206163636570746582
:1008800064207369676E616C202D205B4E44414388
:1008900020756E61737365727465645D006770695D
:1008A000625772697465427974653A2074696D653E
:1008B0006F75742077616974696E6720666F722046
:1008C0006461746120746F20626520616363657088
:1008D000746564202D205B4E52464420617373651D
:1008E000727465645D00677069625772697465420D
:1008F0007974653A2074696D656F757420776169E4
:1009000074696E6720666F722072656365697665CB
:1009100072207265616479202D205B4E524644201E
:10092000756E61737365727465645D00677069628A
:100930005772697465427974653A2074696D656FA0
:1009400075742077616974696E6720666F722072B2
:100950006563656976657220617474656E74696F2C
:100960006E205B4E4441432061737365727465640D
:100970005D006770696253656E64446174613A201A
:100980004661696C656420746F20756E6C69737460
:10099000656E206275730020746F206C69737465D6
:1009A0006E006770696253656E64446174613A20D9
:1009B0006661696C656420746F206164647265733C
:1009C00073206465766963652000000020002300C1
:1009D000260029002C002F00320000010000030136
:1009E0000601090100000A0B02090C0D0E0807039D
:1009F00004010000000000000000000000000000F2
:100A000000000000000000000000000000000000E6
:100A100012111000000000000000000000000000A3
:100A2000000000000000000000000000220025007F
:100A300028002B002E0031003400020100000501C7
:100A400008010B0100002100240027002A002D00CE
:100A50003000330001010000040107010A0105050F
:100A60000505070508080808020202020A0A080824
:100A70000404040401010101010101010303030352
:100A800003030303040707070C0C0C0C0C0C0C0CE1
:100A90000202020206060606060606060B0B0B0BF2
:100AA0000B0B0B0B01021020200808102040102017
:100AB0004080020102010804020101020408102022
:100AC0004080804020100804020180040201804020
:100AD0002010080402010804020101020408102089
:100AE00040800102040810204080436F6D6D616EEC
:100AF00064206E6F7420617661696C61626C652040
:100B0000696E2074686973206D6F64652E0053658B
:100B10006E64696E67207374617475732062797492
:100B2000653A20005352512062697420636C6561FC
:100B30007265642028696620736574292E005374D9
:100B4000617475732073656E742E005365726961EC
:100B50006C20706F6C6C2072657175657374207297
:100B6000656365697665642066726F6D20636F6E7C
:100B700074726F6C6C6572202D3E003C2D20736585
:100B80007269616C20706F6C6C2072657175657331
:100B90007420656E6465642E0000671911241FBE01
:100BA000CFEFD1E2DEBFCDBF00E00CBF26E0AEE765
:100BB000B4E001C01D92AD30B207E1F714E0A0E04F
:100BC000B2E0ECEEF0E400E00BBF02C007900D9243
:100BD000AE37B107D9F715E0CEECD5E000E006C09E
:100BE00021970109802FFE010E944E1DCD3CD107A7
:100BF00080E00807A9F70E9494190C94742000CA99
:100C0000EAE1F5E06EE675E02FEF3FEF8191832793
:100C1000982F92959F708927482F50E0922F9A0124
:100C2000322F22273295307F822793279A01B5E011
:100C3000220F331FBA95E1F7282739276E177F0750
:100C400029F7C90108958230910538F0880F991F5E
:100C5000880F991F05970197F1F70895DC01ED9131
:100C6000FC910190F081E02D1994EF92FF920F9387
:100C70001F93CF93DF938C017B01D0E0C0E0F7019D
:100C8000EC0FFD1F6491662361F0D801ED91FC919A
:100C90000190F081E02DC8011995892B11F0219662
:100CA000EECFCE01DF91CF911F910F91FF90EF908A
:100CB0000895AF92BF92CF92DF92EF92FF920F937F
:100CC0001F93CF93DF936C017B018B01040F151FE2
:100CD000EB015E01AE18BF08C017D10759F069914A
:100CE000D601ED91FC910190F081E02DC60119959E
:100CF000892B79F7C501DF91CF911F910F91FF905B
:100D0000EF90DF90CF90BF90AF900895FC01538D8E
:100D1000448D252F30E0842F90E0821B930B5417D5
:100D200010F0CF96089501970895FC01918D828D62
:100D3000981761F0A28DAE0FBF2FB11D5D968C91FB
:100D4000928D9F5F9F73928F90E008958FEF9FEF3A
:100D50000895FC01918D828D981731F0828DE80FF6
:100D6000F11D858D90E008958FEF9FEF0895FC01B0
:100D7000918D228D892F90E0805C9F4F821B91097D
:100D80008F73992708958EE695E0F1DF21E0892B96
:100D900009F420E0822F0895FC01A48DA80FB92F3B
:100DA000B11DA35ABF4F2C91848D90E001968F7393
:100DB0009927848FA689B7892C93A089B1898C91B2
:100DC000837080648C93938D848D981306C0028801
:100DD000F389E02D80818F7D80830895EF92FF92CB
:100DE0000F931F93CF93DF93EC0181E0888F9B8D4E
:100DF0008C8D98131AC0E889F989808185FF15C008
:100E00009FB7F894EE89FF896083E889F98980812A
:100E10008370806480839FBF81E090E0DF91CF91F9
:100E20001F910F91FF90EF900895F62E0B8D10E01B
:100E30000F5F1F4F0F731127E02E8C8D8E110BC08B
:100E40000FB607FCFACFE889F989808185FFF5CFD5
:100E5000CE01A2DFF2CFEB8DEC0FFD2FF11DE35A97
:100E6000FF4FF0829FB7F8940B8FEA89FB8980814E
:100E70008062D0CFCF93DF93EC01888D8823B1F0CF
:100E8000AA89BB89E889F9898C9185FD03C0808195
:100E900086FD0CC00FB607FCF7CF8C9185FFF2CF13
:100EA000808185FFEDCFCE0177DFEACFDF91CF9153
:100EB00008958150823108F05AC0E82FF0E0882769
:100EC000EB59F84F8F4F0C944E1D85078907770714
:100ED0007D078107B7078C07920796079C07A00735
:100EE000A407AA07AE07B707B207B807BC078091E7
:100EF00080008F77809380000895809180008F7D9F
:100F0000F9CF80918000877FF5CF84B58F7784BD3E
:100F1000089584B58F7DFBCF8091B0008F7780934B
:100F2000B00008958091B0008F7DF9CF809190003E
:100F30008F77809390000895809190008F7DF9CFF6
:100F400080919000877FF5CF8091A0008F7780936C
:100F5000A00008958091A0008F7DF9CF8091A0001E
:100F6000877FF5CF809120018F77809320010895AE
:100F7000809120018F7DF9CF80912001877FF5CF6F
:100F8000CF93DF93282F30E0F901EC51F64F849195
:100F9000F901EC55F54FD491F901E25AF54FC4919E
:100FA000CC2399F0811185DFEC2FF0E0EE0FFF1FCD
:100FB000E653F64FA591B491EC91ED2381E090E0DA
:100FC00009F480E0DF91CF91089580E090E0FACFBE
:100FD0001F93CF93DF93282F30E0F901EC51F64FA8
:100FE0008491F901EC55F54FD491F901E25AF54F8E
:100FF000C491CC23A1F0162F81115BDFEC2FF0E020
:10100000EE0FFF1FE65DF54FA591B4918FB7F894F1
:10101000EC91111108C0D095DE23DC938FBFDF91D6
:10102000CF911F910895DE2BF8CF3FB7F8948091B0
:10103000880490918904A0918A04B0918B0426B50C
:10104000A89B05C02F3F19F00196A11DB11D3FBF00
:10105000BA2FA92F982F8827BC01CD01620F711DCF
:10106000811D911D42E0660F771F881F991F4A95C9
:10107000D1F708958F929F92AF92BF92CF92DF9255
:10108000EF92FF926B017C01D0DF4B015C01C11438
:10109000D104E104F104B1F0C8DF681979098A09C3
:1010A0009B09683E73408105910588F321E0C21ACF
:1010B000D108E108F10888EE880E83E0981EA11C93
:1010C000B11CE5CFFF90EF90DF90CF90BF90AF9035
:1010D0009F908F900895CF93DF93C82FD0E0262F55
:1010E00030E0D901AA0FBB1FA8776370A62B3595F6
:1010F00027953595279520733A2F3095FE01EE0FF1
:10110000FF1FE8778370E82BEA23922F9095D595FF
:10111000C795D595C7952C23413069F060910201A0
:101120006323E62BE093020185B18923282B25B99F
:10113000DF91CF910895609101016323E62BE09345
:10114000010184B18923282B24B9F2CF8250883041
:1011500088F4E82FF0E041E08827EE54F74F8F4FF6
:101160000C944E1DC208C808DB08D408DE08E50848
:10117000EB08F20841E06FEF88EBADDF40E06FEF86
:101180008FED0CC06EE988EBA6DF40E06EE9F8CF8A
:101190006FE989EBA0DF40E06FE98FE59CDF80918C
:1011A0005605909157054FCD6EE986EA94DF40E0F1
:1011B0006EE988EDF3CF6EE989EBE6CF6FEF80E063
:1011C0008ADF40E06FEF8FEFE9CF6EE080E083DFF2
:1011D00040E06EE0F8CF6EE086E07DDF40E06EE05C
:1011E00089EFDCCF6EE088E0F8CFBF92CF92DF923C
:1011F000EF92FF920F931F93CF93DF93C82FB62EDA
:101200002FB7F8948091840490918504A09186046E
:10121000B09187042FBF6A01550FEE08FF08C80E72
:10122000D91EEA1EFB1E8BE0ABDE8C01D0E08B2DBD
:10123000A7DE8C179D0719F12FB7F89480918404CD
:1012400090918504A0918604B09187042FBF8C15DE
:101250009D05AE05BF0558F081E0DF91CF911F914C
:101260000F91FF90EF90DF90CF90BF900895011500
:101270001105E9F68BE084DE0197C9F6EDCF80E039
:10128000ECCF41E060E480E026DF40E060E480E411
:1012900022CF90919204E92FF0E0EA56FB4F808331
:1012A0009F5F909392040895EAE1F5E084E5DF0101
:1012B0001D928A95E9F782E0828381E0848380EB46
:1012C00094E0928781870895EFCFFF920F931F9349
:1012D000CF93DF930AE115E0C2E0D0E0F801F1908E
:1012E0008F01CE010E94161DF81621F06F2DCE0140
:1012F0000E941E1D2196C635D10581F781DCD82FAD
:10130000C92F90E080E00E94161DD81729F06D2F9C
:1013100090E080E00E941E1D81E090E00E94161D7A
:10132000C81751F06C2F81E090E0DF91CF911F91B1
:101330000F91FF900C941E1DDF91CF911F910F9183
:10134000FF900895CF93DF93EC0190E080E00E943E
:10135000161D888381E090E00E94161D8983CE01CE
:10136000DF91CF910895FB0101900020E9F73197BB
:10137000AF01461B570BDC01ED91FC910280F3811C
:10138000E02D19948F929F92AF92BF92EF92FF92AD
:101390000F931F93CF93DF93CDB7DEB7A1970FB60F
:1013A000F894DEBF0FBECDBF7C01FA01CB0119A2BC
:1013B000223008F42AE08E010F5D1F4F822E912CFF
:1013C000B12CA12CBF01A50194010E942C1DF90193
:1013D000CA016A3004F5605DD8016E938D01232B3C
:1013E000242B252B79F790E080E0109719F0BD01B0
:1013F000C701B9DFA1960FB6F894DEBF0FBECDBF0F
:10140000DF91CF911F910F91FF90EF90BF90AF9020
:101410009F908F900895695CDFCF61EF72E0A3CF5A
:10142000CF92DF92EF92FF920F931F93CF93DF93B0
:101430008C016B01770FEE08FF08F7FE1CC06DE210
:101440000DDCEC0144275527BA014C195D096E09E2
:101450007F092AE0C80196DFC80FD91FC801DDDF68
:101460008C0F9D1FDF91CF911F910F91FF90EF90F7
:10147000DF90CF9008952AE0B701A60183DFEC0149
:10148000EDCF8AE07DDD61E070E0892B11F070E046
:1014900060E08EE695E0C4CF0F931F93CF93DF9368
:1014A000EC01AB0170E060E02AE06CDF8C01CE0162
:1014B000B4DF800F911FDF91CF911F910F9108959D
:1014C0000F931F93CF93DF93EC01462F50E070E012
:1014D00060E02AE057DF8C01CE019FDF800F911F73
:1014E000DF91CF911F910F9108950F931F93CF9389
:1014F000DF93EC0138DF8C01CE018FDF800F911F6D
:10150000DF91CF911F910F9108950F931F93CF9368
:10151000DF93EC01AADB8C01CE017FDF800F911FEE
:10152000DF91CF911F910F910895CF93C82F4091D4
:1015300023055091240560E180E057DE8823D9F02F
:10154000C0911705C11111C0C1E040E068E088E01A
:10155000C2DD80B38FEF80BB81BB80915605909137
:10156000570571DB8C2FCF9108956CE279E08EE600
:1015700095E0CBDFEACF409123055091240566E04A
:1015800081E033DE882339F0C091170566EE78E0FC
:10159000CC23D1F2ECCF80B38FEF80BBC095C1BB21
:1015A00040E068E080E097DD4091230550912405FC
:1015B00066E080E01ADE882341F0C09117056DE9EE
:1015C00078E0CC2309F4C0CFD2CF409123055091CD
:1015D000240560E181E009DEC82F882309F4B5CF36
:1015E000C0911705CC2309F4AFCF61E578E0BFCFF8
:1015F0000F931F93CF93DF93EC018BE0C1DC8C0141
:1016000040E064E084E067DD012B71F48BE0B8DC3E
:10161000019751F440E064E080E05DDD83E0DF911C
:10162000CF911F910F91089540912305509124056A
:1016300067E080E0DADD882379F080911705882360
:1016400029F061E278E08EE695E05FDF40E064E05B
:1016500080E041DD81E0E3CF40E064E080E03BDD1D
:1016600080918D04882339F088E08ADC892B19F475
:1016700085E080938C048FB18095888340E062E0A0
:1016800082E029DD409123055091240567E081E047
:10169000ACDD882359F080911705882329F064EF89
:1016A00077E08EE695E031DF82E0B9CF40E062E09E
:1016B00080E011DD8091560590915705C4DA80E0F5
:1016C000AECFCF93DF93C82F83E040DD8C2F2DDF8B
:1016D000D82F8823B1F080911705882391F065E217
:1016E00077E08EE695E0C1DA4C2F50E070E060E0E4
:1016F00020E18EE695E046DE6AE177E08EE695E051
:1017000004DF8D2FDF91CF91089583E790E001975B
:10171000F1F78FE3D6DF811102C08FE5D2CF0895B4
:10172000CF93DF93C82FD62F8FE3CBDF811116C065
:10173000DD2359F080E48C0FC4DF81110FC080914C
:101740001D05805EDF91CF91BCCF80E28C0FB9DFA9
:10175000811104C080911D05805CF4CF81E0DF9190
:10176000CF910895CF92DF92EF92FF920F931F9344
:10177000CF936C01E62E80911C05823009F073C076
:1017800080910002882329F160E080911E05C8DF66
:101790008823F9F080911705882309F478C062EA5C
:1017A00079E08EE695E061DA40911E0550E070E048
:1017B00060E02AE08EE695E0E5DD67E979E08EE617
:1017C00095E0CF911F910F91FF90EF90DF90CF9018
:1017D0009CCE8091180591E089278093000284E0D7
:1017E000B5DC8601F12CC8018C199D098E159F0569
:1017F0000CF03FC0F80181918F0197DEC82F88233C
:1018000091F380911B05882379F08091180581114F
:101810000BC040E060E15FDC8BE990E00197F1F7FD
:1018200040E060E180E157DC80911C058230E9F402
:10183000C11110C080910002882361F066DF882307
:1018400049F080911705882329F062E779E08EE658
:1018500095E05BDE82E0CF911F910F91FF90EF90BA
:10186000DF90CF9073CC89E0BBCF813081F487E0EB
:10187000F2CF8091200581FD02C08DE056DE80917F
:10188000200580FD02C08AE050DEC0E0BACFCF91D3
:101890001F910F91FF90EF90DF90CF900895CF931D
:1018A000DF9382E053DCCBE4D0E0CE010197F1F787
:1018B00040E060E980E00FDC2197F1F7CFB182E0F2
:1018C00045DC6C2F60958EE695E0FADD809117057A
:1018D000882339F068ED75E08EE695E0DF91CF91D1
:1018E00014CEDF91CF91089584E1EBDE882349F097
:1018F00080911705882339F068EB75E08EE695E056
:1019000004CE82E023CC0895E0DC80911705882383
:1019100029F062EA75E08EE695E0F7CD08952FB7DD
:10192000F8948091840490918504A0918604B091EC
:1019300087042FBF8053984FAF4FBF4F28E13EE041
:101940000FB6F894A895209360000FBE3093600006
:101950002FB7F894409184045091850460918604D7
:10196000709187042FBF481759076A077B0780F3D8
:1019700080911705882329F06CEC74E08EE695E0E1
:10198000C4CD089580911C058823A9F040E061E052
:1019900080E0A1DB83E592E00197F1F740E061E0B0
:1019A00081E099DB80911705882329F06CE374E0CE
:1019B0008EE695E0AACD089560E080911E05B0DE28
:1019C000882339F0809117056FE573E081110BC012
:1019D000089584E076DE882349F0809117058823F6
:1019E000B9F36CE473E08EE695E08FCD8EDE88234C
:1019F00039F08091170562E373E0882349F3F3CF50
:101A000082E0A4CB64EE70E08EE695E07ECD80911E
:101A1000170591E089278093170564EF72E08EE641
:101A200095E0A1DC8091170569E573E0882311F04A
:101A30006DE473E08EE695E058CD8EE695E0EDDC42
:101A40006EEF72E08EE695E08ECC25E0FC011192FF
:101A50002A95E9F762E276E08EE695E056CDE6E972
:101A6000F4E080E8DF011D928A95E9F71092920474
:101A70000895E82FF0E0EB56FB4F90819F3319F467
:101A800091E09093190590919504911104C0682FED
:101A900086E994E067DE809118058111109218059F
:101AA000809117058111C9DFDADF109216050895BC
:101AB000CF93DF93EC0189E063DA892B79F52097E6
:101AC00009F143E050E061E073E0CE010E94821D25
:101AD000892B21F540E060E280E2FDDA68E270E007
:101AE00080E090E0C7DA40E060EA80E0F4DA68E2A3
:101AF00070E080E090E0BEDA40E060E880E8DF91EE
:101B0000CF91E9CA60E080911E050ADE882349F082
:101B10008091170562E274E081110DC0DF91CF91D1
:101B2000089581E0CEDD882359F080911705882340
:101B3000A9F36EE074E08EE695E0DF91CF91E5CCFD
:101B4000E4DD882339F08091170561EF73E0882385
:101B500029F3F1CF82E0DF91CF91F8CACF93DF93E1
:101B6000EC0189E00DDA892BC1F42097D1F043E034
:101B700050E061E073E0CE010E94821D892B69F480
:101B800081E19FDD882349F080911705882329F0A2
:101B900063ED73E08EE695E0B8DC82E0DF91CF91F3
:101BA000D5CA60E080911E05BBDD882349F0809195
:101BB000170565EB73E081110DC0DF91CF9108959A
:101BC00081E17FDD882359F0809117058823A9F3EF
:101BD00068E973E08EE695E0DF91CF9196CC95DDD4
:101BE0008823D9F28091170568E773E0882329F3E9
:101BF000F1CF009751F043E050E065E073E00E94C0
:101C0000821D69EA72E0892B59F08091260569ED01
:101C100072E0882329F066E275E08EE695E065CCF7
:101C20008EE695E072CCCF93DF93D82FC0919204CB
:101C3000C7FD85C08D3041F15CF48A3029F1809177
:101C40001705882329F16D2F8EE695E007D820C06F
:101C50008B3109F46AC08B3291F78091800488231C
:101C600039F010928004C23018F481E080937F0430
:101C70008BE20FDB80911705882371F06BE28EE613
:101C800095E00E942E0608C080918004882331F0E0
:101C90008D2FFFDA10928004C0E030C0C11109C05E
:101CA000DEDE809117058111C8DE8C2FDF91CF9188
:101CB0000895C33060F0809196048B3241F4809196
:101CC00097048B3221F480917F04882351F1C43032
:101CD00050F180916D05882331F145E050E06AE0D4
:101CE00073E086E994E00E94821D892BE1F481E093
:101CF00080938E04B4DEC0E010927F048091920441
:101D000087FFD3CF809196048B3231F48091970472
:101D10008B3211F4CC23A9F081E080931805C2E046
:101D2000C4CFC1E0E9CFC2E0E7CF8091800488232F
:101D300011F08BE1AECF81E080938004ADCFC0E0A5
:101D4000E1CF80911705882329F069EF70E08EE6D6
:101D500095E0DBDB84DEA9CF8EE695E00E94950658
:101D600062DF8093160508950ED88111F5DF80E0BB
:101D700090E0892B49F080E090E0892B29F00E94C7
:101D8000000081110E94000080E090E0892B49F062
:101D900080E090E0892B29F00E94000081110E94D0
:101DA000000080E090E0892B49F080E090E0892BF2
:101DB00029F00E94000081110C9400000895AF9258
:101DC000BF92CF92DF92EF92FF920F931F93CF9328
:101DD000DF9300D0CDB7DEB719821A821B828091C3
:101DE0005805082F077010928C04D0908D0487300E
:101DF00019F481E080938D0480911C05823009F0F4
:101E0000DCC061E080911E058BDC8823C1F08091ED
:101E100017058823A1F067ED77E08EE695E00E9434
:101E2000350640911E0550E070E060E02AE08EE645
:101E300095E0A8DA6EEC77E08EE695E066DB4091FF
:101E400023055091240566E081E0CFD985E07ED955
:101E500080B310BA81B38FEF81BBF12CE12C87E006
:101E6000C82EA02EB12C10918C041111EEC08BE065
:101E700087D80197A9F5CE010196BADB182F8111F9
:101E80002FC080912205833089F48EE695E00E9470
:101E9000B706892B59F08EE695E00E949506C3DEC1
:101EA00080931605813011F4C0928C0480918C04CB
:101EB0008730B1F08BE064D8892B91F069818EE690
:101EC00095E00E942E068FEFE81AF80A80918D04A3
:101ED000882309F478C080918C04853009F07DC096
:101EE00080911705882351F061EC77E08EE695E04C
:101EF0000E943506B7018EE695E092DA80918C0457
:101F0000853099F480911705882329F063EB77E0F9
:101F10008EE695E0FADA80911A05882331F0609117
:101F200025058EE695E00E942E06D0928D041123A1
:101F3000B1F080911705882339F0113029F467E951
:101F400077E08EE695E0E1DA80911705882339F095
:101F5000123029F46DE677E08EE695E0D6DA8091CE
:101F60001C05823009F073C0D0DB882351F08091CA
:101F70001705882331F06AE477E08EE695E00E9449
:101F8000350680911C05823009F4E0D880918C04DC
:101F9000811110928C0481E0111101C080E00F903A
:101FA0000F900F90DF91CF911F910F91FF90EF90C5
:101FB000DF90CF90BF90AF90089588E0C7D881E0C0
:101FC00080938D0445CF998180918204882351F0BC
:101FD00080918104891709F483CF8A818B83898159
:101FE0008A8341CF073068F5F5018827E550F04F27
:101FF0008F4F0C944E1D021009100C10ED0F0F1096
:10200000151018109A3049F78A818D3031F7102F4A
:1020100067CF9D3011F764CF9A30F9F661CF9D30CC
:10202000E1F68A818A30C9F65BCF9330B1F658CF9A
:10203000933099F68A818A3081F68B818D3069F6EA
:102040004FCF9A3051F68A81F9CF10E049CF87E01F
:102050009CCFBF92CF92DF92EF92FF920F931F938C
:10206000CF93DF9300D000D000D01F92CDB7DEB762
:10207000009709F445C060E173E00E94CF1C7C0129
:10208000DC010D900020E9F76D01FD0101900020B9
:10209000E9F731978F010A1B1B0B46E050E063E123
:1020A00073E0002309F47FC00E94821D892B51F543
:1020B000F09017058FEF800F8F32D8F4E6E2F5E04D
:1020C00080E3DF011D928A95E9F7A8015527B60143
:1020D000CF010E94901DFF2031F06FEE76E08EE67A
:1020E00095E00E94350666E275E08EE695E0FDD942
:1020F00023C0FF2029F067EB76E08EE695E005DA55
:1021000081DC1AC044E050E06AE173E0C7010E943C
:10211000821D892B41F58FEF800F8F30E8F4E9E5C0
:10212000F5E080E1DF011D928A95E9F7A8015527C6
:10213000B601CF010E94901D2A960FB6F894DEBF1B
:102140000FBECDBFDF91CF911F910F91FF90EF9008
:10215000DF90CF90BF9008958091170569E876E0F1
:10216000882371F2CACF46E050E06FE173E0C70107
:102170000E94821D892B21F6B9E0B01760F0C601DC
:102180000E94A91C6093690570936A0580936B0592
:1021900090936C05D1CF809117056DE576E088238B
:1021A00009F4AECFAACF0E94821D892B09F49BCFE0
:1021B00044E050E06AE173E0C7010E94821D892B70
:1021C00019F469E575E091CF46E050E06FE173E006
:1021D000C7010E94821D892B09F092CF8AE08E01EF
:1021E0000F5F1F4FF801982F11929A95E9F7909180
:1021F0006C059F9390916B059F9390916A059F93B7
:10220000909169059F9326E233E03F932F931F92AD
:102210008F931F930F930E949F1DB8018EE695E048
:1022200064D90FB6F894DEBF0FBECDBF85CFCF9374
:10223000DF9360E173E00E94CF1C0097A9F0FC01DE
:1022400001900020E9F73197E81BF90B349760F40F
:102250000E948C1CD82F833040F06BE276E08EE633
:1022600095E0DF91CF9151C9D0E060E173E090E05B
:1022700080E00E94CF1C0097C9F1FC010190002072
:10228000E9F73197E81BF90B3497F8F40E948C1C9E
:10229000C82FC095DD23E9F041E06FEF8FEF0E947A
:1022A0006B0840E06FEF8C2F0E946B0860E177E2D3
:1022B00080E090E00E943A0880911C05823039F459
:1022C00081E0DF91CF910C94A60880E0E1CF86E019
:1022D000F8CF80B3DFEFD0BBC1BB60E177E280E035
:1022E00090E00E943A0880B3D0BBD1BBDF91CF9180
:1022F0000895CF93DF9310928D041092820400977B
:1023000099F0EC01FC0101900020E9F73197E81BFE
:10231000F90B349798F080911705882329F069E02C
:1023200073E08EE695E0F1D8809122058330D9F4F0
:1023300081E080939004DF91CF91089543E050E0D5
:102340006CE273E00E94821D892B21F481E080936E
:102350008D04EACF81E080938204CE010E948C1C20
:1023600080938104E1CFDF91CF9129CDEF92FF924D
:102370000F931F93CF93DF93DC01EC91E11109C020
:10238000C1E08C2FDF91CF911F910F91FF90EF90C3
:102390000895E9017A018B01198218820E948C1C30
:1023A000998388838017910720F0C0E0E816F9062A
:1023B00040F728DBC0911705CC2311F360E271E0F0
:1023C0008EE695E00E943506A80170E060E02AE004
:1023D0008EE695E00E94C2096AE171E08EE695E022
:1023E0000E943506B7018EE695E056D8CACFCF9346
:1023F000DF931F921F92CDB7DEB70097B1F19E0118
:102400002F5F3F4F42E050E070E060E0AFDF8111AE
:1024100027C0898180936D0580911705882301F17C
:102420006CE077E08EE695E00E94350689819A811E
:1024300060E373E0892B11F069E373E08EE695E0C9
:102440000E94B30989819A81029731F468EF76E09E
:102450008EE695E00E9435068EE695E00E940D0A14
:102460000F900F90DF91CF91089560916D058EE6EA
:1024700095E026D8F5CFCF93DF931F921F92CDB76B
:10248000DEB7009729F19E012F5F3F4F40E355E7EC
:1024900070E060E06BDF811116C089819A819093B2
:1024A00057058093560580911705882361F06EE4E7
:1024B00076E08EE695E00E94350669817A818EE6A7
:1024C00095E00E944C0A0F900F90DF91CF910895F4
:1024D0006091560570915705F2CFEF92FF920F93DE
:1024E0001F93CF93DF9300D01F92CDB7DEB7009735
:1024F00009F469C060E173E00E94CF1CFC012081F7
:10250000211123C060E173E090E080E00E94CF1CC5
:10251000FC01208121112EC061E473E090E080E095
:102520000E94CF1C8C01FC018081F12CE12C8111D7
:102530002CC068DA8091170560E176E0882379F095
:102540008EE695E00E94850A0AC09E012F5F3F4FEC
:102550004FEF50E062E070E009DF882399F20F90BE
:102560000F900F900F90DF91CF911F910F91FF90DF
:10257000EF9008959E012D5F3F4F40E355E770E0D7
:1025800060E0F4DE8111EBCFC7CF89819A81E81634
:10259000F90628F7F80101900020E9F73197BF010B
:1025A000601B710B80919504811102C0C801DAD8BB
:1025B0006B817C8190E080E00E943A0800DCFFEFB4
:1025C000EF1AFF0AE2CF1EDA80911705882339F24D
:1025D0006DEF75E0B5CFCF93DF931F921F92CDB70C
:1025E000DEB7009761F19E012F5F3F4F41E050E061
:1025F00070E060E0BBDE811116C089819A8100978E
:10260000B9F00197C1F080911705882361F080919E
:10261000910460E573E0882311F064E473E08EE6D2
:1026200095E00E94750A0F900F90DF91CF91089569
:1026300010929104E8CF81E080939104E4CF6091FF
:10264000910470E08EE695E00E94100AECCFCF93E3
:10265000DF931F921F92CDB7DEB7009789F19E01DD
:102660002F5F3F4F41E050E070E060E07FDE81117E
:1026700022C089819A8121E0009709F420E020930B
:102680008F04892B11F010929504809117058823EF
:1026900091F067EF75E08EE695E00E94350689813E
:1026A0009A8169E573E0892B11F06DE473E08EE6A1
:1026B00095E00E94750A0F900F90DF91CF910895D9
:1026C00060918F0470E08EE695E00E94100AF3CFCF
:1026D000CF93DF931F921F92CDB7DEB7009771F1B2
:1026E0009E012F5F3F4F41E050E070E060E03EDE32
:1026F00081111FC061E089819A81892B09F060E016
:1027000089E00E94E80780911705882391F061EF26
:1027100075E08EE695E00E94350689819A816AE629
:1027200073E0892B11F06DE573E08EE695E00E9471
:10273000750A0F900F90DF91CF91089589E00E9464
:10274000C00761E070E0892B11F070E060E08EE678
:1027500095E00E94100AEDCFCF93DF931F921F9256
:10276000CDB7DEB7009711F19E012F5F3F4F4FE0CD
:1027700050E070E060E0FADD811113C08981809340
:10278000580580911705882361F06BEC75E08EE6A3
:1027900095E00E94350669817A818EE695E00E9477
:1027A0004C0A0F900F90DF91CF91089580915805BA
:1027B000883010F010925805609158058EE695E02B
:1027C0000E94600AEECFCF93DF931F921F92CDB786
:1027D000DEB7009791F19E012F5F3F4F41E050E03F
:1027E00070E060E0C3DD811123C081E029813A817E
:1027F000232B09F480E08093950480918F0481114C
:1028000010928F0480911705882391F062EB75E098
:102810008EE695E00E94350689819A8169E573E02C
:10282000892B11F06DE473E08EE695E00E94750A45
:102830000F900F90DF91CF9108956091950470E013
:102840008EE695E00E94100AF3CF1F93CF93DF939B
:102850001F921F92CDB7DEB71A821982009781F1BD
:102860009E012F5F3F4F4FEF50E070E060E07EDD54
:10287000811115C08981809321051091170586FF6C
:1028800014C041E060E480E40E946B0840E060E432
:1028900080E00E946B0864E975E011110CC00F9094
:1028A0000F90DF91CF911F9108950E94410911234C
:1028B000B1F363E875E08EE695E00E94850AEFCFFC
:1028C000609121058EE695E00E94600AE8CF6F9244
:1028D0007F928F929F92AF92BF92CF92DF92EF92B0
:1028E000FF920F931F93CF93DF93CDB7DEB762971D
:1028F0000FB6F894DEBF0FBECDBF6C011A8A198ADD
:10290000188A8E010F5F1F4F4E0180E1880E911CC7
:10291000F801580111928E169F06E1F7F12CC114AF
:10292000D10409F07AC080911E058983E12CFF242F
:10293000F3948FE30E94610B811195C080911D0576
:10294000805E0E94610B81118EC088E10E94610B44
:10295000811189C010E000E0CF2CD12C0C151D0591
:102960000CF0D3C0EE2009F496C0198B088B88892F
:10297000998920911D052817190681F1805C0E9414
:10298000610B811170C085E00E94A608CE014296BD
:102990000E94F80A8111ADC06A8981E0F81609F435
:1029A00082C066FF1BC064E475E08EE695E00E947D
:1029B0003506A801110F660B770B2AE08EE695E02D
:1029C0000E94C20962E475E08EE695E00E94350639
:1029D0006A898EE695E00E94600A86010F5F1F4FAC
:1029E000BDCFF60101900020E9F73197EC19FD0900
:1029F000339788F594014EE150E061E070E0C30147
:102A0000B5DCE82E81112FC08889F80181938F01F0
:102A1000F394FFE0FF1609F48CCF60E173E0C60188
:102A2000FF2011F090E080E0BAD73C0143E050E095
:102A300061E073E00E94821D892B99F6E0901705F2
:102A4000EE2031F16BE575E08EE695E00E94850A97
:102A50008EE1F82E6ECF0E94020D8091170569E479
:102A600075E0811179C062960FB6F894DEBF0FBE93
:102A7000CDBFDF91CF911F910F91FF90EF90DF902D
:102A8000CF90BF90AF909F908F907F906F90089560
:102A9000EE24E394DDCFF501E00FF11F808190E09B
:102AA000998B888B64CF8EE695E00E94600A8091B6
:102AB00017058823D9F06BE275E08EE695E00E9459
:102AC00035064A8950E070E060E02AE08EE695E045
:102AD0000E94C20960E175E08EE695E00E9435062D
:102AE000688979898EE695E00E944C0A01E010E041
:102AF00075CF80911705882309F470CF61EF74E0DA
:102B00008EE695E00E94850A69CFEE2021F08EE6E0
:102B100095E00E940D0A89E10E94610B8111A3CF0B
:102B20008FE50E94610B81119ECF8FE30E94610BA4
:102B3000811199CF82E00E94A6088AE00E94C00716
:102B4000892B79F481E08093930480911705882381
:102B500009F489CF6AED74E08EE695E00E94850A5B
:102B600082CF10929304F1CF81E093E0B0CE8F92A8
:102B70009F92AF92BF92CF92DF92EF92FF920F930C
:102B80001F93CF93DF93CDB7DEB761970FB6F8945D
:102B9000DEBF0FBECDBF4C01198A188ACE01019647
:102BA0007C015E0190E1A90EB11CF7011192EA15BA
:102BB000FB05E1F7670100E08114910471F5809154
:102BC0001E05898301E0670110E0C6018E199F0987
:102BD000801791070CF056C060E0F60181916F01FB
:102BE0000E94900B882389F18091170563EB74E0B4
:102BF000811136C061960FB6F894DEBF0FBECDBF0F
:102C0000DF91CF911F910F91FF90EF90DF90CF90C8
:102C1000BF90AF909F908F90089560E173E0C401E2
:102C2000002311F090E080E0BAD695014EE150E02B
:102C300061E070E09BDB8111DDCF8889F601819333
:102C40006F010F5F0F3049F7BECF88E00E94610B24
:102C5000882359F0809117056AE974E0882351F2BE
:102C60008EE695E00E94850AC5CF0E94850B8823D9
:102C700009F4ABCF809117056EE774E0882309F45F
:102C8000B9CFEECF82E00E94A60880911705882375
:102C900009F4B0CF65E674E0E3CFCF93DF931F92E2
:102CA0001F92CDB7DEB7009779F19E012F5F3F4F9E
:102CB00043E050E070E060E059DB81112BC0898176
:102CC0009A81892B81F080911705882361F061E753
:102CD00072E08EE695E00E94850A6AE372E08EE675
:102CE00095E00E94850A898180932205833010F443
:102CF0001092900480911705882361F06EE272E0D3
:102D00008EE695E00E943506609122058EE695E0FC
:102D10000E94600A0F900F90DF91CF910895CF939A
:102D2000DF931F921F92CDB7DEB7009711F19E017E
:102D30002F5F3F4F4FEF50E070E060E017DB8111F5
:102D400013C089818093250580911705882361F040
:102D500061E172E08EE695E00E94350669817A8134
:102D60008EE695E00E944C0A0F900F90DF91CF9174
:102D7000089560912505062E000C770B8EE695E0F0
:102D80000E94100AF1CFCF93DF931F921F92CDB70D
:102D9000DEB7009769F19E012F5F3F4F41E050E0A1
:102DA00070E060E0E3DA81111EC081E029813A81A0
:102DB000232B09F480E080931A058091170588235E
:102DC00091F064EF71E08EE695E00E94350689810E
:102DD0009A8169E573E0892B11F06DE473E08EE66A
:102DE00095E00E94750A0F900F90DF91CF910895A2
:102DF00060911A0570E08EE695E00E94100AF3CF0C
:102E0000CF93DF931F921F92CDB7DEB70097E9F102
:102E10009E012F5F3F4F41E050E070E060E0A6DA96
:102E200081111CC089819A810097E9F0019719F1FD
:102E300080911705882391F06CED71E08EE695E0A6
:102E40000E94350689819A8165E873E0892B11F02B
:102E50006AE773E08EE695E00E94750A0F900F9086
:102E6000DF91CF91089581E080931C0586E00E9458
:102E7000A6088FB1DDCF82E080931C0581E00E941F
:102E8000A6088FB10E94C20CD3CF60911C0561507F
:102E9000770B8EE695E00E94100AE0CFCF93DF9388
:102EA0001F921F92CDB7DEB7009769F19E012F5F89
:102EB0003F4F41E050E070E060E058DA81111EC001
:102EC00081E029813A81232B09F480E080931B055E
:102ED00080911705882391F068EC71E08EE695E00B
:102EE0000E94350689819A8169E573E0892B11F08A
:102EF0006DE473E08EE695E00E94750A0F900F90E6
:102F0000DF91CF91089560911B0570E08EE695E00A
:102F10000E94100AF3CFCF93DF931F921F92CDB779
:102F2000DEB7009711F19E012F5F3F4F43E050E065
:102F300070E060E01BDA811113C089818093200565
:102F400080911705882361F06BEB71E08EE695E0C8
:102F50000E94350669817A818EE695E00E944C0ACE
:102F60000F900F90DF91CF910895609120058EE62C
:102F700095E00E94600AF4CFCF93DF931F921F92D7
:102F8000CDB7DEB7009771F19E012F5F3F4F40E054
:102F90005DE761E070E0EAD981111FC089819A8103
:102FA0009093240580932305809117058823A9F029
:102FB00064EA71E08EE695E00E94350649815A8107
:102FC00070E060E02AE08EE695E00E94C20966E9C2
:102FD00071E08EE695E00E94850A0F900F90DF91D8
:102FE000CF91089560912305709124058EE695E0B8
:102FF0000E94100AF2CFCF93DF931F921F92CDB79A
:10300000DEB7009709F460C060E173E0C8D49E01A8
:103010002F5F3F4F4EE150E061E070E0A7D9811192
:1030200013C089819A8120911D052817190689F4FA
:103030000E94020D80911705882331F06AE571E046
:103040008EE695E00E94850A0F900F90DF91CF9158
:10305000089580931E0580911705882361F06AE327
:1030600071E08EE695E00E94350669817A818EE6F0
:1030700095E00E944C0A10921F051A82198260E1A5
:1030800073E090E080E08BD40097F1F29E012F5F17
:103090003F4F4EE750E060E670E068D98111D4CF31
:1030A000898180931F0580911705882369F26CE858
:1030B00073E08EE695E00E94B30969817A818EE61D
:1030C00095E00E944C0AC0CF40911E0550E070E090
:1030D00060E02AE08EE695E00E94C20980911F051B
:1030E000882381F068E371E08EE695E00E94350662
:1030F00040911F0550E070E060E02AE08EE695E028
:103100000E94C2098EE695E00E940D0A9DCFCF93E2
:10311000DF93CDB7DEB7C054D1090FB6F894DEBF48
:103120000FBECDBFFC0101900020E9F73197AF0140
:10313000481B590BFE0137962AE3DF011D922A95A1
:10314000E9F727E0EEEAF3E0DE01119601900D9237
:103150002A95E1F75527BC01CE010196C3D4CE01D3
:1031600001960E942910C05CDF4F0FB6F894DEBFB5
:103170000FBECDBFDF91CF9108951F920F920FB672
:103180000F9211240BB60F922F933F934F935F939F
:103190006F937F938F939F93AF93BF93EF93FF931F
:1031A0008EE695E00E94CC06FF91EF91BF91AF9122
:1031B0009F918F917F916F915F914F913F912F914F
:1031C0000F900BBE0F900FBE0F901F9018951F927F
:1031D0000F920FB60F9211240BB60F922F938F936D
:1031E0009F93EF93FF93E0917E05F0917F0580819F
:1031F000E0918405F091850582FD1DC0908180914C
:1032000087058F5F8F7320918805821741F0E091C9
:103210008705F0E0E259FA4F958F80938705FF917B
:10322000EF919F918F912F910F900BBE0F900FBE3A
:103230000F901F9018958081F2CF1F920F920FB6BA
:103240000F9211242F933F938F939F93AF93BF932C
:103250008091840490918504A0918604B0918704A4
:103260003091830423E0230F2D3758F50196A11DDB
:10327000B11D209383048093840490938504A093CC
:103280008604B09387048091880490918904A0916A
:103290008A04B0918B040196A11DB11D809388040E
:1032A00090938904A0938A04B0938B04BF91AF914B
:1032B0009F918F913F912F910F900FBE0F901F9074
:1032C000189526E8230F0296A11DB11DD2CFEEE678
:1032D000F5E01382128288EE93E0A0E0B0E08483F0
:1032E0009583A683B78383EE92E09183808385ECF8
:1032F00090E09587848784EC90E09787868780ECC0
:1033000090E0918B808B81EC90E0938B828B82ECB0
:1033100090E0958B848B86EC90E0978B868B118E5A
:10332000128E138E148E0895CF93DF93CDB7DEB730
:10333000C058D1090FB6F894DEBF0FBECDBF789448
:1033400084B5826084BD84B5816084BD85B58260AA
:1033500085BD85B5816085BD80916E00816080935B
:103360006E001092810080918100826080938100C4
:1033700080918100816080938100809180008160D4
:10338000809380008091B10084608093B10080912F
:10339000B00081608093B000809191008260809342
:1033A00091008091910081608093910080919000C4
:1033B0008160809390008091A10082608093A10041
:1033C0008091A10081608093A1008091A000816024
:1033D0008093A000809121018260809321018091DF
:1033E000210181608093210180912001816080937F
:1033F000200180917A00846080937A0080917A0025
:10340000826080937A0080917A00816080937A0054
:1034100080917A00806880937A001092C1000FB684
:10342000F894A89580916000886180936000109264
:1034300060000FBEE1EBFAE02491EBE6FAE0849144
:10344000882399F090E0880F991FFC01EC5BF54F01
:10345000A591B491FC01E65DF54F859194918FB7EC
:10346000F894EC91E22BEC938FBF60E08DE00E942A
:10347000E8070E942F0DE0917E05F0917F0582E024
:103480008083E0917A05F0917B051082E0917C05C4
:10349000F0917D0580E1808310928605E0918205A0
:1034A000F091830586E08083E0918005F0918105AD
:1034B000808180618083E0918005F0918105808129
:1034C00088608083E0918005F0918105808180682B
:1034D0008083E0918005F091810580818F7D8083DC
:1034E0000E9454091A8219828E010F5F1F4FC80172
:1034F0000E94A20989819A81019669F1C8010E94FE
:10350000A2096AE1C62E65E0D62E72E0E72EF12C04
:10351000C7018CD2D6018D936D01BFEFEB1AFB0A68
:10352000E6E5EE16F104A1F70E94000629813A8132
:103530008217930781F0F12CE12C6FEFC7017ED247
:10354000FFEFEF1AFF0AE11422E0F206B1F70E9442
:1035500054090E94650980911C05813021F486E0A0
:103560000E94A6088FB180911C05823031F481E061
:103570000E94A6088FB10E94C20C1092940410926F
:10358000930496E0792E20E2622E30E4532E43E03D
:10359000442E5FE0A52EB12C8BE00E94C00721E0F5
:1035A000892B09F020E0209394048AE00E94C00750
:1035B00021E0892B09F020E0209393048EE695E02A
:1035C0000E94B7066C01892B49F08EE695E00E94B7
:1035D00095060E94130E80931605F0CF8091160574
:1035E000813009F05BC0E0909204F12CA70166E9FC
:1035F00074E0C8015BD20E942F0D10921605F801ED
:10360000C70102979F01201B310B281739071CF4B3
:1036100022812193F7CF800F911FDC011C92FE01C4
:10362000EE0DFF1D108280911705882321F08EE694
:1036300095E00E940D0A8981813059F160E173E0C3
:10364000C801ADD17C0181E0882E82E0982EB701BF
:10365000F4018081918133D2892B09F43EC1FFEFBF
:10366000CF1ADF0A26E0820E911C85E2C816D1042B
:1036700071F70E94020D0DC0D7010D900020E9F7EF
:10368000CD010480F581E02D2C91222309F44BC05B
:1036900019958091170581110E941D0D80911C05BF
:1036A000823081F5809116058230B1F480919204C8
:1036B0000E94390D80912205813011F40E94DF0EA5
:1036C00080912205823041F480911905882321F0F0
:1036D0000E94DF0E1092190580919304882349F00F
:1036E00080919104882329F090E080E0F0D8109236
:1036F000930480912205833029F4809190048111F4
:103700000E94DF0E80911C058130E9F480918F04C6
:10371000882361F0809116058230A9F4809192048B
:103720000E94390D10C090E080E0B2CFE090950487
:10373000EE2009F43FC00E94DF0E80911605823012
:1037400011F40E942F0D80918E04882369F18091DD
:103750006D05813031F469E575E08EE695E00E94F3
:10376000750A80916D058230E9F469E575E08EE6B1
:1037700095E00E94B30966EB73E08EE695E00E9447
:10378000B3094091690550916A0560916B0570918C
:103790006C052AE08EE695E00E94C2098EE695E06F
:1037A0000E940D0A10928E04C5010197F1F70E9444
:1037B000B40EF2CEF0909404FF2009F4ABCF19823E
:1037C00088E00E94A608D12CC12C912C8BE00E948D
:1037D000C007892B09F5C8010E94F80A8111F6CFAC
:1037E00090911E058981282F2625921301C0EF2C68
:1037F000282F2525921301C09F2C883149F089314B
:1038000049F08F3319F710928D0440928C04DECF6B
:10381000CF2CDCCFDF2CDACFE1100E94DF0E992015
:1038200009F442C0CC2009F44FC0809117058823C9
:1038300031F06BE47BE08EE695E00E94850A809192
:103840001705882361F06EE07BE08EE695E00E942C
:103850003506609121058EE695E00E94600A89E0B8
:103860000E94A608809121050E94950A87E00E9487
:10387000A60880911705882331F06EE37BE08EE681
:1038800095E00E94850A809121058F7B8093210518
:103890000E94410980911705882391F064E27BE042
:1038A0008EE695E00E94850ADD2051F08091170593
:1038B000882331F06BE77BE08EE695E00E94850A75
:1038C00087E00E94A60826CF80911605823061F716
:1038D000809192040E94390DE7CF7C9CF0017D9C81
:1038E000F00D1124EF5FFD4F80911C0590E02281C7
:1038F000338182239323892B09F0BECE0E94020DCF
:1039000080911705882309F4C9CE6AEE7AE08EE625
:1039100095E00E94850ABDCEFC0188279927E8948E
:1039200021912032E9F3293010F02E30C8F32B32E8
:1039300039F02D3231F4689403C070D0820F911D9C
:10394000219120532A30C8F31EF4909581959F4F02
:1039500008951F93FC0199278827BC01E8941191D1
:103960001032E9F3193010F01E30C8F31B3249F061
:103970001D3241F4689405C03CD0610F711D811D5A
:10398000911D119110531A30B8F33EF49095809523
:10399000709561957F4F8F4F9F4F1F9108954BE01A
:1039A00056E000C0FA01A191B081009719F4109778
:1039B000E1F0CD01DC01CD010D90002011F4C0013A
:1039C00013C0FB012191222319F02015D9F7F3CF61
:1039D000FB012191201519F41E92119606C0222395
:1039E000C1F70D900020A1F7D001FA01A193B08397
:1039F0000895592F482F372F262F660F771F881FBE
:103A0000991F660F771F881F991F620F731F841FEE
:103A1000951F660F771F881F991F08957AE0979F5B
:103A2000902D879F802D910D11240895F999FECF37
:103A300092BD81BDF89A992780B50895262FF999EE
:103A4000FECF1FBA92BD81BD20BD0FB6F894FA9A81
:103A5000F99A0FBE01960895A1E21A2EAA1BBB1B6C
:103A6000FD010DC0AA1FBB1FEE1FFF1FA217B3074A
:103A7000E407F50720F0A21BB30BE40BF50B661F60
:103A8000771F881F991F1A9469F760957095809524
:103A900090959B01AC01BD01CF010895EE0FFF1F72
:103AA000881F8BBF0790F691E02D1994FB01DC0174
:103AB00002C001900D9241505040D8F70895FB018B
:103AC000DC018D9181341CF08B350CF4805E6191AA
:103AD00061341CF06B350CF4605E861B611189F358
:103AE000990B0895FB01DC010D900020E9F7119777
:103AF0004150504028F0019000200D92C9F70895E0
:103B00001C920895FB01DC014150504030F08D9132
:103B10000190801919F40020B9F7881B990B0895BA
:103B2000FB01DC014150504048F001900D92002013
:103B3000C9F701C01D9241505040E0F708950F931E
:103B40001F93CF93DF93CDB7DEB72E970FB6F894C0
:103B5000DEBF0FBECDBF0E891F89888D998D26E0EF
:103B60002C831A83098397FF02C080E090E80197B5
:103B70009E838D83AE01445E5F4F6A8D7B8DCE0147
:103B8000019619D04D815E8157FD0AC02F8138857D
:103B9000421753070CF49A01020F131FF801108209
:103BA0002E960FB6F894DEBF0FBECDBFDF91CF913A
:103BB0001F910F9108952F923F924F925F926F92B3
:103BC0007F928F929F92AF92BF92CF92DF92EF92AD
:103BD000FF920F931F93CF93DF9300D000D000D0BC
:103BE0001F921F92CDB7DEB77C013B018A01FC0119
:103BF00017821682838181FFD0C1CE0101965C01BC
:103C0000F7019381F30193FD859193FF81913F012A
:103C1000882309F449C1853239F493FD859193FFD6
:103C200081913F01853221F4B70190E0CFD1E8CFF7
:103C3000912C212C312CFFE1F31538F08B3211F14E
:103C400090F4803209F1833229F137FC3CC020ED39
:103C5000280F2A3050F536FE20C08AE0989E200DAD
:103C60001124922E06C08D3291F0803371F7689442
:103C700030F8F30193FD859193FF81913F0181110C
:103C8000DACF21C0689431F8689432F8F2CF6894A2
:103C900033F8EFCF689434F8ECCFEAE02E9E200D95
:103CA0001124222E689435F8E4CF8E3229F436FCA4
:103CB000FBC0689436F8DDCF8C3619F4689437F879
:103CC000D8CF8836B1F2982F9F7D95549330D8F095
:103CD000833691F18337B1F1833509F05EC0280155
:103CE000F2E04F0E511CF801C080D180692D70E0C8
:103CF00036FC02C06FEF7FEFC60152D14C016894D1
:103D000037F882010AC00C5F1F4FFFE3F983882454
:103D10008394912C6501E89437F833FE2AC0522C25
:103D20008114910459F5552009F46ACFB70180E256
:103D300090E04CD15A94F7CFF801808189830E5FCF
:103D40001F4FE5CF2801F2E04F0E511CF801C08053
:103D5000D180692D70E036FC02C06FEF7FEFC601A5
:103D60002AD14C018201D7CFB70180E290E02ED159
:103D70002A942814190409F0B8F7D1CFF60137FCBA
:103D8000859137FE81916F01B70190E01FD15110ED
:103D90005A94F1E08F1A9108C3CF843619F089360E
:103DA00009F073C0F80137FE67C0608171818281BC
:103DB00093810C5F1F4FF32DFF763F2E97FF09C0B5
:103DC00090958095709561957F4F8F4F9F4F689428
:103DD00037F82AE030E0A50129D1C82ECA188C2C6A
:103DE000432C36FE0CC0E89440F8C91440F434FE6D
:103DF00005C032FC03C0F32DFE7E4F2E892C44FEFD
:103E0000A6C0FE01EC0DF11D8081803309F098C041
:103E1000242D297E422E842D8870582E43FCA5C067
:103E200040FE9FC09C2C821418F42C0C922C9818E5
:103E300044FEA1C0B70180E390E0C8D042FE08C0B4
:103E400088E790E041FE02C088E590E0B701BED06F
:103E5000C91408F49CC0CA94D12C9FEFC91AD90A7E
:103E6000CA0CDB1CF60182916F01B70190E0AED065
:103E7000AC14BD04B9F757CF60817181072E000CD7
:103E8000880B990B0E5F1F4F96CFD32CE894D4F874
:103E90002AE030E08537E1F1232D297FD22E8F36BD
:103EA000A9F1F0F4883551F1F701868197812B96BD
:103EB0000FB6F894DEBF0FBECDBFDF91CF911F913B
:103EC0000F91FF90EF90DF90CF90BF90AF909F90B9
:103ED0008F907F906F905F904F903F902F900895BC
:103EE000803749F0883701F7D4FE02C06894D2F8D1
:103EF00020E130E00DC06894D4F8F6CF34FE03C062
:103F0000822F8660D82E20E132E002C028E030E027
:103F1000F801D7FE0EC060817181828193810C5FB0
:103F20001F4FA50183D0C82ECA183D2CE89437F83E
:103F300056CF6081718190E080E00E5F1F4FF1CF1E
:103F400042FC02C0839467CF8394839464CF842D12
:103F5000867809F460CFF6CFB70180E290E036D0E2
:103F600083948214C8F3512C63CF522C58188214B6
:103F700008F45ECFF8CF842D867809F469CF8BE200
:103F800041FE80E247FC8DE2B70190E060CFB701CF
:103F900080E390E01BD09A945BCF8FEF9FEF87CFA9
:103FA000FC010590615070400110D8F78095909504
:103FB0008E0F9F1F0895FC01615070400190011009
:103FC000D8F7809590958E0F9F1F08950F931F939C
:103FD000CF93DF93182F092FEB018B8181FD09C04F
:103FE0001FEF0FEF812F902FDF91CF911F910F9136
:103FF000089582FF14C02E813F818C819D812817F6
:1040000039073CF4E881F981CF01019699838883CF
:1040100010838E819F8101969F838E83E3CFE885F5
:10402000F985812F1995892BA1F3DACFFA01AA27F7
:10403000283051F1203181F1E8946F936E7F6E5FEB
:104040007F4F8F4F9F4FAF4FB1E03ED0B4E03CD099
:10405000670F781F891F9A1FA11D680F791F8A1F7C
:10406000911DA11D6A0F711D811D911DA11D20D0E3
:1040700009F468943F912AE0269F11243019305D9D
:104080003193DEF6CF010895462F4770405D41938E
:10409000B3E00FD0C9F7F6CF462F4F70405D4A33DB
:1040A00018F0495D31FD4052419302D0A9F7EACFA3
:1040B000B4E0A6959795879577956795BA95C9F7D2
:1040C00000976105710508959B01AC010A2E0694C5
:1040D0005795479537952795BA95C9F7620F731F7E
:0C40E000841F951FA01D0895F894FFCFC9
:1040EC0001B8030300FB17BD030200B4155504020D
:1040FC00004D16C6030200DC0CCA030200740CCE81
:10410C0003030064092C0303004E17D6030300AC11
:10411C0013DA0303008B17DE0303008F16E7030388
:10412C0000C316F2030200C20CF60303002910F9B7
:10413C00030300F711FD030200AE0D010402005849
:10414C000D05040100E31309040200250D0F0403FF
:10415C00000017140402004F0C1A04020079111FFE
:10416C00040200BC172B04020068132F0402006D1C
:10417C0012360403008F0C3A040200B7153E0403F8
:10418C0000840C460403008718C003020067144E19
:10419C00040200410A52040200EB125A04010025E9
:1041AC001461040100271365040300F90D6904036D
:1041BC0000070D710403003B127704030017110074
:1041CC00000000EE06590686063A07B7069506A9C2
:1041DC00060D0A00566572626F73653A20003E2028
:1041EC0000616C6C007265616C002A69646E3F0042
:1041FC00200900766572737472006E616D650073D0
:10420C00657269616C002530396C7500656F6900E9
:10421C0044697361626C656400456E61626C6564CF
:10422C00000A0D00535251206175746F204F4E00DF
:10423C00535251206175746F204F46460052454EC3
:10424C002061737365727465640052454E20756EFF
:10425C002D617373657274656400434F4E54524FF5
:10426C004C4C455200444556494345005365742017
:10427C00646576696365207365636F6E64617279DA
:10428C00206164647265737320746F3A20007665E4
:10429C007273747220002D006164647200616C6C26
:1042AC0073706F6C6C00636C720064636C0064659B
:1042BC006661756C7400656F7200656F7300656F75
:1042CC00745F6368617200656F745F656E61626CC8
:1042DC0065006966630069640069646E006C6C6FEC
:1042EC00006C6F63006C6F6E006D6163726F006DBC
:1042FC006F64650070706F6C6C0072656164007245
:10430C006561645F746D6F5F6D730072656E0072D2
:10431C006570656174007273740074726700736108
:10432C007665636667007365747673747200737276
:10433C0071007372716175746F007374617475734D
:10434C0000746F6E0076657200766572626F7365CD
:0E435C0000746D62757300786469616700001B
:020000023000CC
:10E000000D9489F10D94B2F10D94B2F10D94B2F129
:10E010000D94B2F10D94B2F10D94B2F10D94B2F1F0
:10E020000D94B2F10D94B2F10D94B2F10D94B2F1E0
:10E030000D94B2F10D94B2F10D94B2F10D94B2F1D0
:10E040000D94B2F10D94B2F10D94B2F10D94B2F1C0
:10E050000D94B2F10D94B2F10D94B2F10D94B2F1B0
:10E060000D94B2F10D94B2F10D94B2F10D94B2F1A0
:10E070000D94B2F10D94B2F10D94B2F10D94B2F190
:10E080000D94B2F10D94B2F10D94B2F10D94B2F180
:10E090000D94B2F10D94B2F10D94B2F10D94B2F170
:10E0A0000D94B2F10D94B2F10D94B2F10D94B2F160
:10E0B0000D94B2F10D94B2F10D94B2F10D94B2F150
:10E0C0000D94B2F10D94B2F10D94B2F10D94B2F140
:10E0D0000D94B2F10D94B2F10D94B2F10D94B2F130
:10E0E0000D94B2F141546D656761323536300041AF
:10E0F000726475696E6F206578706C6F72657220DE
:10E1000073746B3530305632206279204D4C530099
:10E11000426F6F746C6F616465723E004875683F52
:10E1200000436F6D70696C6564206F6E203D200048
:10E130004350552054797065202020203D20005FF9
:10E140005F4156525F415243485F5F3D2000415658
:10E1500052204C696243205665723D20004743437C
:10E160002056657273696F6E203D20004350552024
:10E1700049442020202020203D20004C6F7720663D
:10E18000757365202020203D20004869676820665F
:10E190007573652020203D200045787420667573D6
:10E1A00065202020203D20004C6F636B2066757336
:10E1B000652020203D20004D617220203720323024
:10E1C000313300312E362E3800342E332E350056A2
:10E1D00023202020414444522020206F7020636F70
:10E1E00064652020202020696E73747275637469E1
:10E1F0006F6E2061646472202020496E74657272B3
:10E20000757074006E6F20766563746F7200726A49
:10E210006D702020006A6D70200057686174207056
:10E220006F72743A00506F7274206E6F7420737541
:10E2300070706F72746564004D7573742062652030
:10E2400061206C6574746572002000577269747483
:10E25000696E672045450052656164696E672045B7
:10E26000450045452065727220636E743D00504F35
:10E27000525400303D5A65726F2061646472003FF1
:10E280003D43505520737461747300403D454550C3
:10E29000524F4D207465737400423D426C696E6B41
:10E2A000204C454400453D44756D70204545505215
:10E2B0004F4D00463D44756D7020464C415348001B
:10E2C000483D48656C70004C3D4C69737420492F83
:10E2D0004F20506F72747300513D51756974005234
:10E2E0003D44756D702052414D00563D73686F7707
:10E2F00020696E7465727275707420566563746FF0
:10E30000727300593D506F727420626C696E6B00BD
:10E310002A0011241FBECFEFD1E2DEBFCDBF01E046
:10E320000CBF12E0A0E0B2E0EEE1FDEF03E00BBFB6
:10E3300002C007900D92A030B107D9F712E0A0E01B
:10E34000B2E001C01D92AE30B107E1F70F9460F367
:10E350000D948DFE01E20EBF0FEF0DBF11241FBE05
:10E360000D9460F30D9400F020E030E040ED57E0B4
:10E3700005C0FA013197F1F72F5F3F4F2817390792
:10E38000C0F308959C01260F311DC901A0E0B0E043
:10E390002F5F3F4FABBFFC018791882361F08093D3
:10E3A000C6008091C00086FFFCCF8091C0008064D1
:10E3B0008093C000EACF08958DE08093C6008091DD
:10E3C000C00086FFFCCF8091C00080648093C000B5
:10E3D0008AE08093C6008091C00086FFFCCF8091C8
:10E3E000C00080648093C00008950F94C2F10F9420
:10E3F000DCF10895FC019081992359F09093C600B7
:10E400008091C00086FFFCCF8091C0008064809323
:10E41000C0003196992379F70895282F982F929567
:10E420009F70892F805D8A3308F0895F8093C600D2
:10E430008091C00086FFFCCF8091C00080648093F3
:10E44000C000822F8F70982F905D9A3308F0995FEB
:10E450009093C6008091C00086FFFCCF8091C000E1
:10E4600080648093C00008959C01FB01853691056E
:10E470001CF46330710594F0C90164E670E00F94F8
:10E480002EFE605D7F4F6093C6008091C00086FFC6
:10E49000FCCF8091C00080648093C0002B30310598
:10E4A00014F43297B4F0C90164E670E00F942EFEC4
:10E4B0006AE070E00F942EFE605D7F4F6093C600AF
:10E4C0008091C00086FFFCCF8091C0008064809363
:10E4D000C000C9016AE070E00F942EFEC0968093E0
:10E4E000C6008091C00086FFFCCF8091C000806490
:10E4F0008093C00008951F93182F8EE692EE60E07F
:10E500000F94C2F11093C6008091C00086FFFCCF2B
:10E510008091C00080648093C0000F94DCF11F9153
:10E5200008952F923F924F925F926F927F928F92B7
:10E530009F92AF92BF92CF92DF92EF92FF920F9392
:10E540001F93DF93CF93CDB7DEB762970FB6F894E2
:10E55000DEBF0FBECDBF382E622ECA01DB015C01CB
:10E560006D01772420E2222E2E010894411C511CBB
:10E570008BC081E0A81680E0B80681E0C80680E084
:10E58000D80628F0C601AA27BB270F940DF2BB2797
:10E59000AD2D9C2D8B2D0F940DF28A2D0F940DF225
:10E5A0002092C6008091C00086FFFCCF8091C00001
:10E5B00080648093C0009DE29093C6008091C0006B
:10E5C00086FFFCCF8091C00080648093C0002092C1
:10E5D000C6008091C00086FFFCCF8091C00080649F
:10E5E0008093C00019828601750188249924A1E0D6
:10E5F0003A1651F03A1620F0B2E03B1661F409C029
:10E600000BBFF701779007C0C7010F9477FE782EF4
:10E6100002C0F7017080872D0F940DF22092C60082
:10E620008091C00086FFFCCF8091C0008064809301
:10E63000C000872D8052F401EF70F0708F3520F408
:10E64000E40DF51D708204C0E40DF51D8EE280839B
:10E650000894E11CF11C011D111D0894811C911CE2
:10E6600090E18916910409F0C2CF80E190E0A0E02A
:10E67000B0E0A80EB91ECA1EDB1E198AC2010F9493
:10E68000FAF10F94DCF16A94662009F072CF629679
:10E690000FB6F894DEBF0FBECDBFCF91DF911F91B3
:10E6A0000F91FF90EF90DF90CF90BF90AF909F9031
:10E6B0008F907F906F905F904F903F902F90089534
:10E6C0002F923F924F925F926F927F928F929F9282
:10E6D000AF92BF92CF92DF92EF92FF920F931F9370
:10E6E000DF93CF93CDB7DEB7CD53D1400FB6F894BB
:10E6F000DEBF0FBECDBF01E20EBF0FEF0DBF94B75F
:10E70000F894A89514BE80916000886180936000A1
:10E7100010926000789493FF05C0E0910002F091A0
:10E7200001021995279A2F9A8091C00082608093E8
:10E73000C00080E18093C40088E18093C1000000A4
:10E74000EE24FF24870144E0A42EB12CCC24DD2448
:10E7500024C0C5010197F1F70894E11CF11C011DCB
:10E76000111D21E2E2162EE4F20620E0020720E06D
:10E77000120718F031E0C32ED12CC801B70127ECE5
:10E780003BE140E050E00F9441FE611571058105C9
:10E79000910519F485B1805885B98091C00087FD35
:10E7A00003C0C114D104A9F2A6014F5F5F4FC25E3E
:10E7B000DE4F59834883CE51D140C25EDE4F8881FF
:10E7C0009981CE51D140019711F00D9410FEC05D9A
:10E7D000DE4F19821882C053D14060E0C15DDE4F28
:10E7E0001882CF52D14088249924C35DDE4F19820C
:10E7F0001882CD52D140C05EDE4F188219821A8233
:10E800001B82C052D140CE5CDE4F188219821A8220
:10E810001B82C253D140EE24FF2487010BBFF701B6
:10E8200007911691C45CDE4F19830883CC53D14005
:10E830000D940BFEC25EDE4F28813981CE51D1404E
:10E840002130310509F52091C600C25EDE4F1982E4
:10E850001882CE51D14022C02F5F3F4F4F4F5F4FA4
:10E86000213082E138078AE7480780E0580780F0C6
:10E87000C45CDE4FE881F981CC53D140EF5FFF4F9C
:10E8800019F0EE27FF27099420E030E040E050E047
:10E890008091C00087FFE0CF2091C600C35DDE4FAE
:10E8A00048815981CD52D1404F5F5F4FC35DDE4FEC
:10E8B00059834883CD52D140213209F063C64A3092
:10E8C000510508F05FC60894811C911C53E0851621
:10E8D000910409F059C600E010E018C081E280936D
:10E8E000C6008091C00086FFFCCF8091C00080648C
:10E8F0008093C0002F5F3F4F2931310579F70F9486
:10E90000DCF10F5F1F4F0530110519F020E030E0FA
:10E91000E5CF10920A0210920B0210920C02109294
:10E920000D02109206021092070210920802109235
:10E930000902109202021092030210920402109235
:10E9400005028FEE90EE60E00F94F5F180E191EE1C
:10E9500060E00F94C2F18091C00087FFFCCF9091DE
:10E96000C600903608F09F759032B8F09093C600BC
:10E970008091C00086FFFCCF8091C00080648093AE
:10E98000C000A0E2A093C6008091C00086FFFCCF2B
:10E990008091C00080648093C000983409F4D7C18E
:10E9A0009934B8F4923409F459C1933458F490333B
:10E9B00019F1903308F4E3C59F33A1F1903409F0C5
:10E9C000DEC5BDC0953409F470C1963409F0D7C5D1
:10E9D00098C1923509F42BC2933538F49C3409F46C
:10E9E000F5C1913509F0CBC518C2963509F445C279
:10E9F000993509F0C4C567C483E792EE62E00F94CD
:10EA0000F5F110920602109207021092080210927D
:10EA1000090210920A0210920B0210920C0210923C
:10EA20000D0213C18FE792EE62E00F94F5F18FEEC5
:10EA300090EE60E00F94F5F181E291EE60E00F94CA
:10EA4000C2F187EB91EE60E00F94F5F180E391EE77
:10EA500060E00F94C2F184EE90EE60E00F94F5F167
:10EA60008FE391EE60E00F94C2F186E090E061E008
:10EA700070E00F9434F20F94DCF18DE591EE60E0DC
:10EA80000F94C2F189EC91EE60E00F94F5F18EE401
:10EA900091EE60E00F94C2F183EC91EE60E00F9490
:10EAA000F5F18CE691EE60E00F94C2F18EE10F94E7
:10EAB0000DF288E90F940DF281E00F940DF20F949E
:10EAC000DCF18BE791EE60E00F94C2F119E0E0E039
:10EAD000F0E010935700E4918E2F0F940DF20F94F5
:10EAE000DCF18AE891EE60E00F94C2F1E3E0F0E03F
:10EAF00010935700E4918E2F0F940DF20F94DCF1D8
:10EB000089E991EE60E00F94C2F1E2E0F0E0109349
:10EB10005700E4918E2F0F940DF20F94DCF188EAE8
:10EB200091EE60E00F94C2F1E1E0F0E01093570045
:10EB30001491812F0F940DF20F94DCF107CF8BE825
:10EB400092EE62E00F94F5F18BE492EE60E00F94A8
:10EB5000F5F10F94DCF100E010E019C0C8016F2D51
:10EB60000F947FFEFF2031F489E492EE60E00F9471
:10EB7000C2F10BC0F092C6008091C00086FFFCCFAE
:10EB80008091C00080648093C0000F5F1F4FC80158
:10EB900081519F41A0E0B0E0ABBFFC01F790BAE229
:10EBA000FB1621F0E2E000301E07C1F60F94DCF105
:10EBB0000F94DCF187E592EE60E00F94F5F10F948D
:10EBC000DCF1CC24DD2400E010E01EC0C8010F946D
:10EBD00077FEF82E882331F489E492EE60E00F94FA
:10EBE000C2F10BC08093C6008091C00086FFFCCFAD
:10EBF0008091C00080648093C000FE1419F00894D6
:10EC0000C11CD11C0F5F1F4FC80181519F41A0E063
:10EC1000B0E0ABBFFC01E790FAE2EF1621F022E092
:10EC20000030120799F60F94DCF10F94DCF182E6C4
:10EC300092EE60E00F94C2F1C60161E070E00F94C3
:10EC400034F20F94DCF10F94DCF110920202109276
:10EC50000302109204021092050278CE89E992EE26
:10EC600062E00F94F5F1279A2F9A16C02F9880E052
:10EC700090E0E0EDF7E03197F1F7019684369105E9
:10EC8000C1F72F9A80E090E0E0EDF7E03197F1F7DF
:10EC9000019684369105C1F78091C00087FFE6CFC9
:10ECA0008091C00087FFFCCF64C485EA92EE62E0E9
:10ECB0000F94F5F140910202509103026091040219
:10ECC0007091050281E020E10F9491F2809102029F
:10ECD00090910302A0910402B091050280509F4FD1
:10ECE000AF4FBF4F8093020290930302A0930402A0
:10ECF000B093050280509041A040B04008F426CE69
:10ED0000A4CF83EB92EE62E00F94F5F140910602FE
:10ED100050910702609108027091090280E020E1A1
:10ED20000F9491F28091060290910702A09108023F
:10ED3000B091090280509F4FAF4FBF4F80930602A2
:10ED400090930702A0930802B0930902FFCD80ECD4
:10ED500092EE62E00F94F5F183E792EE60E00F949B
:10ED6000F5F18FE792EE60E00F94F5F18BE892EE0B
:10ED700060E00F94F5F189E992EE60E00F94F5F10F
:10ED800085EA92EE60E00F94F5F183EB92EE60E09D
:10ED90000F94F5F180EC92EE60E00F94F5F187ECC2
:10EDA00092EE60E00F94F5F188ED92EE60E00F9442
:10EDB000F5F18FED92EE60E00F94F5F18AEE92EEB0
:10EDC00060E00F94F5F183E093EEBDCD87EC92EE19
:10EDD00062E00F94F5F181E40F947BF282E40F94EA
:10EDE0007BF283E40F947BF284E40F947BF285E45E
:10EDF0000F947BF286E40F947BF287E40F947BF20E
:10EE000088E40F947BF28AE40F947BF28BE40F94F6
:10EE10007BF28CE40F947BF299CD88ED92EE62E068
:10EE20000F94F5F1772473948824992409C48FED05
:10EE300092EE62E00F94F5F140910A0250910B02BC
:10EE400060910C0270910D0282E020E10F9491F22A
:10EE500080910A0290910B02A0910C02B0910D02D8
:10EE600080509F4FAF4FBF4F80930A0290930B0289
:10EE7000A0930C02B0930D0269CD8AEE92EE62E08F
:10EE80000F94F5F184EE90EE60E00F94F5F18FECC5
:10EE900091EE60E00F94F5F1662477244301CC5D98
:10EEA000DE4F19821882C452D140D401C301B695F5
:10EEB000A79597958795CA5DDE4F88839983AA8326
:10EEC000BB83C652D140CC5DDE4FA881B981C4520C
:10EED000D1401196CC5DDE4FB983A883C452D14096
:10EEE000CD0162E070E00F9434F2B0E2B093C6005E
:10EEF0008091C00086FFFCCF8091C0008064809329
:10EF0000C000EDE2E093C6008091C00086FFFCCF18
:10EF10008091C00080648093C000F0E2F093C6004E
:10EF20008091C00086FFFCCF8091C00080648093F8
:10EF3000C000CA5DDE4FE880F9800A811B81C6529D
:10EF4000D140BB27A12F902F8F2D0F940DF2CA5DBA
:10EF5000DE4F8881C652D1400F940DF2B0E2FB2EF5
:10EF6000F092C6008091C00086FFFCCF8091C00067
:10EF700080648093C0000DE30093C6008091C000C0
:10EF800086FFFCCF8091C00080648093C00010E2B7
:10EF90001093C6008091C00086FFFCCF8091C00016
:10EFA00080648093C0008BBEF3012791C65DDE4F65
:10EFB0002883CA52D140A22EBB24CC24DD2408943D
:10EFC000611C711C811C911C8BBEF3018791282E42
:10EFD0003324442455240894611C711C811C911C09
:10EFE0008BBEF3013791C55DDE4F3883CB52D140E4
:10EFF0000894611C711C811C911C8BBEF30147910C
:10F00000C45DDE4F4883CC52D140ADEFEA2EAFEF66
:10F01000FA2EAFEF0A2FAFEF1A2F6E0C7F1C801E57
:10F02000911E142D032DF22CEE24EA0CFB1C0C1D5A
:10F030001D1D0F940DF220E22093C6008091C000A8
:10F0400086FFFCCF8091C00080648093C000C65DC5
:10F05000DE4F8881CA52D1400F940DF230E23093D6
:10F06000C6008091C00086FFFCCF8091C000806404
:10F070008093C000C45DDE4F8881CC52D1400F9494
:10F080000DF240E24093C6008091C00086FFFCCFA5
:10F090008091C00080648093C000C55DDE4F888190
:10F0A000CB52D1400F940DF250E25093C6008091A4
:10F0B000C00086FFFCCF8091C00080648093C000B8
:10F0C0008FEFE8168FEFF80680E0080780E018075A
:10F0D00031F484E092EE60E00F94C2F1DFC0D80119
:10F0E000C7018070907CA070B0708050904CA040A0
:10F0F000B040D1F52FEF3FE340E050E0E222F322B1
:10F1000004231523CA5DDE4FA880B980CA80DB8046
:10F11000C652D140AE0CBF1CC01ED11EAA0CBB1CD7
:10F12000CC1CDD1C8EE092EE60E00F94C2F1BB2798
:10F13000A12F902F8F2D0F940DF28E2D0F940DF285
:10F1400030E23093C6008091C00086FFFCCF8091F2
:10F15000C00080648093C0004EE34093C60080915D
:10F16000C00086FFFCCF87C08EE09EEFA0E0B0E03D
:10F17000E822F9220A231B239CE0E91694E9F90608
:10F1800090E0090790E0190709F088C0C45DDE4FE0
:10F19000A881CC52D140EA2EFF2400E010E0102FCD
:10F1A0000F2DFE2CEE24C55DDE4FB881CB52D14031
:10F1B000EB0EF11C011D111DD601C501817090706F
:10F1C000A070B070DC0199278827E80EF91E0A1F8D
:10F1D0001B1F20EF30E040E050E0A222B322C42207
:10F1E000D52241E1AA0CBB1CCC1CDD1C4A95D1F7F1
:10F1F000EA0CFB1C0C1D1D1D81E090E0A0E0B0E0BE
:10F20000282239224A225B2235E1220C331C441C7D
:10F21000551C3A95D1F7E20CF31C041D151D57013E
:10F220006801AA0CBB1CCC1CDD1C85E192EE60E0E1
:10F230000F94C2F1C801AA27BB270F940DF2BB2778
:10F24000A12F902F8F2D0F940DF28E2D0F940DF274
:10F2500090E29093C6008091C00086FFFCCF809121
:10F26000C00080648093C000AEE3A093C60080918C
:10F27000C00086FFFCCF8091C00080648093C000F6
:10F28000C601AA27BB270F940DF2BB27AD2D9C2DDD
:10F290008B2D0F940DF28A2D0F940DF20F94DCF14B
:10F2A000CC5DDE4FE881F981C452D140F99709F471
:10F2B0004DCBF4E0EF2EF12C012D112D6E0C7F1CA7
:10F2C000801E911EF2CD83E093EE62E00F94F5F183
:10F2D0008AE192EE60E00F94C2F18091C00087FF56
:10F2E000FCCF1091C6001F751093C6008091C0001E
:10F2F00086FFFCCF8091C00080648093C0000F9493
:10F30000DCF1812F81548A3108F036C1163409F4BA
:10F3100095C0173490F4133409F44EC0143430F40B
:10F320001134F1F0123409F01DC130C0143409F465
:10F3300059C0153409F016C16BC01A3409F4C4C0A1
:10F340001B3438F4173409F48FC0183409F00AC19B
:10F35000A1C01B3409F4D2C01C3409F003C1E8C0B9
:10F360008FEF81B90DC082B1809582B980E090E0C5
:10F37000E0EDF7E03197F1F70196883C9105C1F790
:10F380008091C00087FFEFCF12B8EFC08FEF84B934
:10F390000DC085B1809585B980E090E0E0EDF7E0A3
:10F3A0003197F1F70196883C9105C1F78091C00033
:10F3B00087FFEFCF15B8D9C08FEF87B90DC088B1DF
:10F3C000809588B980E090E0E0EDF7E03197F1F7C3
:10F3D0000196883C9105C1F78091C00087FFEFCF6F
:10F3E00018B8C3C08FEF8AB90DC08BB180958BB9A7
:10F3F00080E090E0E0EDF7E03197F1F70196883C8E
:10F400009105C1F78091C00087FFEFCF1BB8ADC059
:10F410008FEF8DB90DC08EB180958EB980E090E0F0
:10F42000E0EDF7E03197F1F70196883C9105C1F7DF
:10F430008091C00087FFEFCF1EB897C08FEF80BBD1
:10F440000DC081B3809581BB80E090E0E0EDF7E0F6
:10F450003197F1F70196883C9105C1F78091C00082
:10F4600087FFEFCF11BA81C08FEF83BB0DC084B38C
:10F47000809584BB80E090E0E0EDF7E03197F1F714
:10F480000196883C9105C1F78091C00087FFEFCFBE
:10F4900014BA6BC08FEF809301010FC080910201FD
:10F4A00080958093020180E090E0E0EDF7E03197F5
:10F4B000F1F70196883C9105C1F78091C00087FF64
:10F4C000EDCF1092020151C08FEF809304010FC065
:10F4D0008091050180958093050180E090E0E0ED4A
:10F4E000F7E03197F1F70196883C9105C1F78091DB
:10F4F000C00087FFEDCF1092050137C08FEF8093DA
:10F5000007010FC08091080180958093080180E079
:10F5100090E0E0EDF7E03197F1F70196883C910536
:10F52000C1F78091C00087FFEDCF109208011DC088
:10F530008FEF80930A010FC080910B01809580931B
:10F540000B0180E090E0E0EDF7E03197F1F70196F4
:10F55000883C9105C1F78091C00087FFEDCF1092E4
:10F560000B0103C085E292EEEEC98091C00087FFD7
:10F57000FCCF8091C600EAC988E392EEE4C98CE131
:10F5800091EEE1C988249924933011F1943028F444
:10F59000913089F09230B8F408C0953061F195301F
:10F5A000F0F0963009F048C043C02B3109F042C951
:10F5B00091E06BE13FC96227C15DDE4F2883CF52E6
:10F5C000D14092E037C9B22FA0E0622793E032C960
:10F5D000822F90E0A82BB92B622794E02BC92E3004
:10F5E00009F039C3622795E0C05DDE4F19821882A9
:10F5F000C053D1401FC9E1E0F0E0EC0FFD1FC05D3A
:10F60000DE4F08811981C053D140E00FF11F2083E4
:10F610000F5F1F4FC05DDE4F19830883C053D14079
:10F6200062270A171B0709F005C9D80196E002C92D
:10F63000261709F010C303C0973009F0FBC87724E0
:10F640009981933109F412C19431C8F4963009F4C8
:10F65000D8C0973050F4923009F406C1933009F4C1
:10F660006DC0913009F059C253C0913109F477C08F
:10F67000923108F0BBC0903109F04FC2F5C098310B
:10F6800009F487C0993150F4953109F4EFC09531F0
:10F6900008F4C6C1963109F040C2C2C19A3109F4DA
:10F6A0006CC09A3108F491C09B3109F45BC09D3164
:10F6B00009F033C29D81903359F48F81882311F46E
:10F6C0009EE11CC0813011F091E018C098E916C08D
:10F6D000892F807591F0903539F4E0E0F0E089E011
:10F6E0008093570094910AC0983539F4E3E0F0E034
:10F6F00089E080935700949101C090E01A821B82A8
:10F700008D818C831D829E831F8227E030E009C299
:10F710001A8288E08B8381E48C8386E58D8382E581
:10F720008E8389E48F8383E5888780E589878FE5E9
:10F730008A8782E38B872BE030E0F3C18A818139AD
:10F7400041F0823941F0803911F48FE005C080E04A
:10F7500003C082E001C08AE01A828B8344C0772410
:10F76000739482C08D81882311F48EE12CC0813086
