:10000000E9C6000018C7000016C7000014C70000AA
:1000100012C7000010C700000EC700000CC7000088
:100020000AC7000008C7000006C7000004C7000098
:1000300002C7000000C70000FEC60000FCC60000AA
:10004000FAC60000F8C60000F6C60000F4C60000BC
:10005000F2C60000F0C60000EEC600000C94F418D2
:10006000EAC600000C9468190C943E19E4C600001E
:10007000E2C60000E0C60000DEC60000DCC60000EC
:10008000DAC60000D8C60000D6C60000D4C60000FC
:10009000D2C60000D0C60000CEC60000CCC600000C
:1000A000CAC60000C8C60000C6C60000C4C600001C
:1000B000C2C60000C0C60000BEC60000BCC600002C
:1000C000BAC60000B8C60000B6C60000B4C600003C
:1000D000B2C60000B0C60000AEC60000ACC600004C
:1000E000AAC60000556E7265636F676E697A6564B3
:1000F00020636F6D6D616E640020616E6420004945
:100100006E76616C69643A2072616E67652069730E
:10011000206265747765656E200020005365742049
:10012000646576696365207072696D6172792061BA
:1001300064647265737320746F3A2000546861744C
:10014000206973206D792061646472657373212066
:1001500041646472657373206F6620612072656DFF
:100160006F746520646576696365206973207265C4
:100170007175697265642E00496E76616C69643AC6
:100180002076616C69642074696D6F75742072618A
:100190006E67652069732031202D20333230303076
:1001A000206D732E00206D696C6C697365636F6ED2
:1001B000647300536574205B726561645F746D6F76
:1001C0005F6D735D20746F3A2000496E76616C69D3
:1001D000643A20657870656374656420454F5320E8
:1001E00076616C7565206F662030202D20330053BA
:1001F000657420454F5320746F3A2000496E766134
:100200006C69643A20657870656374656420454F55
:10021000492076616C7565206F662030206F7220F2
:10022000310053657420454F4920617373657274C2
:10023000696F6E3A2000496E74657266616365206D
:100240006D6F64652073657420746F3A2000496E89
:1002500076616C69643A206D6F6465206D757374A6
:100260002062652030206F72203100496E76616C0B
:1002700069643A20657870656374656420454F54FD
:100280002076616C7565206F662030206F7220319A
:1002900000417070656E64696E67206F6620454F1F
:1002A00054206368617261637465723A2000496E1C
:1002B00076616C69643A2065787065637465642062
:1002C000454F5420636861726163746572204153C5
:1002D0004349492076616C756520696E20746865B4
:1002E0002072616E67652030202D20323535004543
:1002F0004F542073657420746F2041534349492043
:100300006368617261637465723A20004175746F4D
:10031000206D6F64653A20002020202020202020BE
:10032000202761646472657373656420746F207440
:10033000616C6B20627574206E6F7468696E6720E3
:10034000746F2073617927206572726F7273005722
:1003500041524E494E473A206175746F6D6F646526
:10036000204F4E2063616E20636175736520736F4B
:100370006D65206465766963657320746F206765B9
:100380006E6572617465004175746F6D6F64653A76
:100390002076616C69642072616E676520697320E4
:1003A0005B302D64697361626C657C312D50726FB6
:1003B0006C6F6769787C322D6F6E2D7175657279FF
:1003C0007C332D636F6E74696E756F75735D2E006F
:1003D0004152343838204750494220636F6E74725E
:1003E0006F6C6C65722C207665722E20302E34383E
:1003F0002E30372C2032332F30312F323032300034
:100400004152343838204750494220636F6E74722D
:100410006F6C6C65722C207665722E20302E34380D
:100420002E30372C2032332F30312F323032300003
:10043000496E76616C6964207465726D696E617471
:10044000696F6E20636861726163746572202D202C
:1004500069676E6F72656421004661696C6564202E
:10046000746F20756E74616C6B2047504942206236
:100470007573004661696C656420746F2073656EE6
:100480006420534443004661696C656420746F20A6
:1004900061646472657373206465766963650046A0
:1004A00061696C656420746F20756E6C6973746526
:1004B0006E2074686520475049422062757300467B
:1004C00061696C656420746F2073656E64204C4CA8
:1004D0004F20746F20646576696365004661696CBE
:1004E000656420746F20616464726573732074683E
:1004F00065206465766963652E004661696C656494
:1005000020746F2073656E6420756E6976657273F2
:10051000616C204C4C4F2E004661696C6564207400
:100520006F20756E6C697374656E20475049422068
:100530006275732E004661696C65642073656E6434
:10054000696E67204C4F432E004661696C656420DC
:10055000746F206164647265737320646576696387
:10056000652E00494643207369676E616C20617394
:1005700073657274656420666F7220313530206D4A
:100580006963726F7365636F6E64730047726F7532
:1005900070207472696767657220636F6D706C6537
:1005A0007465642E004661696C656420746F207503
:1005B0006E6C697374656E20475049422062757392
:1005C000004661696C656420746F207472696767A6
:1005D000657220646576696365004661696C65646F
:1005E00020746F206164647265737320646576693A
:1005F000636500496E76616C69643A2047504942F0
:10060000207072696D6172792061646472657373C0
:1006100020697320696E207468652072616E676559
:100620002031202D203330005265736574204641FF
:10063000494C45442E0053657269616C20706F6CA3
:100640006C20636F6D706C657465642E0046616923
:100650006C656420746F20726574726965766520BC
:100660007374617475732062797465005D206672BD
:100670006F6D2064657669636520617420616464D0
:10068000726573733A20005265636569766564200C
:100690007374617475732062797465205B002C003B
:1006A0005352513A00496E76616C696420706172F0
:1006B000616D6574657200496E76616C69643A209B
:1006C00047504942206164647265737365732061A9
:1006D000726520696E207468652072616E6765209E
:1006E000312D33300053657269616C20706F6C6C12
:1006F000206F6620616C6C20646576696365732089
:100700007265717565737465642E2E2E0053525197
:1007100020756E2D61737365727465642E0053527B
:10072000512061737365727465642E00496E766141
:100730006C69643A206578706563746564206279D9
:1007400074652076616C756520696E20746865201B
:1007500072616E67652030202D203235350053657B
:100760007474696E67732073617665642E005365D7
:100770007474696E67732073617665642E004C4FE4
:100780004E3A2076616C69642072616E67652069FB
:1007900073205B302D64697361626C657C312D65FB
:1007A0006E61626C655D2E004C4F4E3A20005365C1
:1007B0006E64696E672044434C206661696C6564B1
:1007C00000496E76616C69643A206578706563747F
:1007D000656420454F522076616C7565206F6620F8
:1007E00030202D20370053657420454F5220746F00
:1007F0003A2000506172616C6C656C20706F6C6C9B
:1008000020636F6D706C657465642E0052454E3ABE
:100810002000496E76616C69643A20657870656382
:1008200074656420303D756E2D6173736572742C30
:1008300020313D617373657274004368616E676552
:10084000642076657273696F6E20737472696E6767
:1008500020746F3A2000544F4E3A2076616C6964E0
:100860002072616E6765206973205B302D64697347
:1008700061626C657C312D656E61626C655D2E0018
:10088000544F4E3A2000496E76616C69643A206597
:100890007870656374656420303D64697361626C6F
:1008A00065206F7220313D656E61626C65004D6937
:1008B0007373696E6720706172616D6574657273C0
:1008C000004D697373696E6720706172616D657444
:1008D00065720044697361626C656400496E76619B
:1008E0006C69643A20303D64617461206275733BC9
:1008F00020313D636F6E74726F6C206275730049B6
:100900006E76616C69643A206578706563746564BD
:1009100020454F54206368617261637465722041A1
:10092000534349492076616C756520696E2074686F
:10093000652072616E67652030202D2033302C30A9
:10094000303000544D6275732073657420746F3AB3
:10095000200020746F2064657669636500677069A4
:100960006253656E64436D643A206661696C6564C8
:1009700020746F2073656E6420636F6D6D616E64AB
:1009800020006770696253656E64446174613A2047
:100990004661696C656420746F20756E6C69737450
:1009A000656E206275730020746F206C69737465C6
:1009B0006E006770696253656E64446174613A20C9
:1009C0006661696C656420746F206164647265732C
:1009D000732064657669636520006770696253659A
:1009E0006E64446174613A204661696C6564207488
:1009F0006F20756E74616C6B20627573006770692F
:100A00006252656365697665446174613A20746910
:100A10006D656F75742077616974696E6720666FA4
:100A200072207472616E7366657220746F20636FDA
:100A30006D706C65746500677069625265636569A5
:100A40007665446174613A2074696D656F757420D0
:100A500077616974696E6720666F722074616C6B70
:100A6000657200454F49206465746563746564214F
:100A700000427974657320726561643A20002074C5
:100A80006F2074616C6B004661696C656420746FE3
:100A90002061646472657373207468652064657690
:100AA0006963650067706962526561644279746563
:100AB0003A2074696D656F75742077616974696E29
:100AC000672044415620746F20676F20484947488B
:100AD000006770696252656164427974653A207496
:100AE000696D656F75742077616974696E672066DA
:100AF0006F722044415620746F20676F204C4F570F
:100B000000677069625772697465427974653A204A
:100B100074696D656F75742077616974696E67209B
:100B2000666F7220646174612061636365707465CF
:100B300064205B4E44414320756E6173736572742B
:100B400065645D00677069625772697465427974A3
:100B5000653A2074696D656F7574207265636569A7
:100B600076696E67202D205B4E5246442061737378
:100B700065727465645D0067706962577269746557
:100B8000427974653A2074696D656F757420776178
:100B90006974696E6720666F722072656365697635
:100BA0006572207265616479202D205B4E52464447
:100BB00020756E61737365727465645D006770693A
:100BC000625772697465427974653A2074696D651B
:100BD0006F75742077616974696E6720666F722023
:100BE000726563656976657220617474656E746997
:100BF0006F6E205B4E444143206173736572746570
:100C0000645D0000002100240027002A002D003030
:100C100000330001010000040107010A0153656E61
:100C200064696E672073746174757320627974658A
:100C30003A20005352512062697420636C656172DE
:100C400065642028696620736574292E00537461D9
:100C50007475732073656E742E0053657269616CD0
:100C600020706F6C6C20726571756573742072658D
:100C70006365697665642066726F6D20636F6E745C
:100C8000726F6C6C6572202D3E003C2D2073657276
:100C900069616C20706F6C6C20726571756573741E
:100CA00020656E6465642E00000022002500280087
:100CB0002B002E0031003400020100000501080164
:100CC0000B01000020002300260029002C002F002B
:100CD00032000001000003010601090105050505B8
:100CE000070508080808020202020A0A08080404A4
:100CF00004040101010101010101030303030303D2
:100D00000303040707070C0C0C0C0C0C0C0C020260
:100D1000020206060606060606060B0B0B0B0B0B5D
:100D20000B0B0102102020080810204010204080EA
:100D3000020102010804020101020408102040809F
:100D4000804020100804020180040201804020102D
:100D50000804020108040201010204081020408076
:100D6000010204081020408000000A0B02090C0D4B
:100D70000E0807030401000000000000000000004E
:100D80000000000000000000000000000000000063
:100D90000000000012111000000000000000000020
:100DA0000000000000000000000000000000436F91
:100DB0006D6D616E64206E6F7420617661696C6127
:100DC000626C6520696E2074686973206D6F64655C
:100DD0002E00B21B11241FBECFEFD1E2DEBFCDBF6C
:100DE00000E00CBF25E0A0E3B4E001C01D92A93AE9
:100DF000B207E1F714E0A0E0B2E0E8E6F9E300E0D2
:100E00000BBF02C007900D92A033B107D9F716E0CF
:100E1000CAEED6E000E006C021970109802FFE014E
:100E20000E94661CC93ED10780E00807A9F70E940E
:100E30009E190C94B21CE4C88150823108F05AC04B
:100E4000E82FF0E08827E85DF84F8F4F0C94661C80
:100E500048074C073A07400744077A074F075507EA
:100E600059075F07630767076D0771077A077507FB
:100E70007B077F07809180008F77809380000895A3
:100E8000809180008F7DF9CF80918000877FF5CFA2
:100E900084B58F7784BD089584B58F7DFBCF809115
:100EA000B0008F778093B00008958091B0008F7D5F
:100EB000F9CF809190008F77809390000895809172
:100EC00090008F7DF9CF80919000877FF5CF809142
:100ED000A0008F778093A00008958091A0008F7D5F
:100EE000F9CF8091A000877FF5CF809120018F7787
:100EF000809320010895809120018F7DF9CF80910A
:100F00002001877FF5CFCF93DF93282F30E0F901C1
:100F1000E859F24F8491F901EE5DF24FD491F90155
:100F2000E452F34FC491CC2399F0811185DFEC2F6B
:100F3000F0E0EE0FFF1FEE53F34FA591B491EC914B
:100F4000ED2381E090E009F480E0DF91CF910895F6
:100F500080E090E0FACF1F93CF93DF93282F30E00B
:100F6000F901E859F24F8491F901EE5DF24FD49105
:100F7000F901E452F34FC491CC23A1F0162F811153
:100F80005BDFEC2FF0E0EE0FFF1FE855F34FA5916C
:100F9000B4918FB7F894EC91111108C0D095DE236D
:100FA000DC938FBFDF91CF911F910895DE2BF8CF97
:100FB0008230910538F0880F991F880F991F059787
:100FC0000197F1F708953FB7F8948091E00490916C
:100FD000E104A091E204B091E30426B5A89B05C00A
:100FE0002F3F19F00196A11DB11D3FBFBA2FA92FA8
:100FF000982F8827BC01CD01620F711D811D911DA5
:1010000042E0660F771F881F991F4A95D1F7089510
:101010008F929F92AF92BF92CF92DF92EF92FF9208
:101020006B017C01D0DF4B015C01C114D104E104F0
:10103000F104B1F0C8DF681979098A099B09683E93
:1010400073408105910588F321E0C21AD108E108B7
:10105000F10888EE880E83E0981EA11CB11CE5CF34
:10106000FF90EF90DF90CF90BF90AF909F908F90C8
:101070000895DC01ED91FC910190F081E02D19942F
:10108000EF92FF920F931F93CF93DF938C017B011D
:10109000D0E0C0E0F701EC0FFD1F6491662361F022
:1010A000D801ED91FC910190F081E02DC8011995D6
:1010B000892B11F02196EECFCE01DF91CF911F91B8
:1010C0000F91FF90EF900895AF92BF92CF92DF9271
:1010D000EF92FF920F931F93CF93DF936C017B01ED
:1010E0008B01040F151FEB015E01AE18BF08C0177E
:1010F000D10759F06991D601ED91FC910190F081F1
:10110000E02DC6011995892B79F7C501DF91CF91A3
:101110001F910F91FF90EF90DF90CF90BF90AF9015
:101120000895FC01538D448D252F30E0842F90E0ED
:10113000821B930B541710F0CF96089501970895D2
:10114000FC01918D828D981761F0A28DAE0FBF2F9B
:10115000B11D5D968C91928D9F5F9F73928F90E0F1
:1011600008958FEF9FEF0895FC01918D828D981760
:1011700031F0828DE80FF11D858D90E008958FEF9D
:101180009FEF0895FC01918D228D892F90E0805C66
:101190009F4F821B91098F739927089585E394E0EF
:1011A000F1DF21E0892B09F420E0822F0895FC0172
:1011B000A48DA80FB92FB11DA35ABF4F2C91848DB8
:1011C00090E001968F739927848FA689B7892C9315
:1011D000A089B1898C91837080648C93938D848D68
:1011E000981306C00288F389E02D80818F7D80836B
:1011F0000895EF92FF920F931F93CF93DF93EC012B
:1012000081E0888F9B8D8C8D98131AC0E889F989AD
:10121000808185FF15C09FB7F894EE89FF896083B0
:10122000E889F98980818370806480839FBF81E031
:1012300090E0DF91CF911F910F91FF90EF90089573
:10124000F62E0B8D10E00F5F1F4F0F731127E02E4E
:101250008C8D8E110BC00FB607FCFACFE889F98987
:10126000808185FFF5CFCE01A2DFF2CFEB8DEC0FB1
:10127000FD2FF11DE35AFF4FF0829FB7F8940B8FBB
:10128000EA89FB8980818062D0CFCF93DF93EC0124
:10129000888D8823B1F0AA89BB89E889F9898C9166
:1012A00085FD03C0808186FD0CC00FB607FCF7CF1B
:1012B0008C9185FFF2CF808185FFEDCFCE0177DF66
:1012C000EACFDF91CF910895CF93DF93C82FD0E07D
:1012D000262F30E0D901AA0FBB1FA8776370A62B79
:1012E000359527953595279520733A2F3095FE0132
:1012F000EE0FFF1FE8778370E82BEA23922F90957B
:10130000D595C795D595C7952C23413069F0609147
:1013100002016323E62BE093020185B18923282B88
:1013200025B9DF91CF910895609101016323E62BE8
:10133000E093010184B18923282B24B9F2CF825094
:10134000883088F4E82FF0E041E08827E555F64F33
:101350008F4F0C94661CBB09C109D409CD09D7096C
:10136000DE09E409EB0941E06FEF88EBADDF40E017
:101370006FEF8FED0CC06EE988EBA6DF40E06EE901
:10138000F8CF6FE989EBA0DF40E06FE98FE59CDFE4
:1013900080912105909122050BCE6EE986EA94DFBB
:1013A00040E06EE988EDF3CF6EE989EBE6CF6FEFB1
:1013B00080E08ADF40E06FEF8FEFE9CF6EE080E002
:1013C00083DF40E06EE0F8CF6EE086E07DDF40E056
:1013D0006EE089EFDCCF6EE088E0F8CFBF92CF926D
:1013E000DF92EF92FF920F931F93CF93DF93C82F5B
:1013F000B62E2FB7F8948091DC049091DD04A09173
:10140000DE04B091DF042FBF6A01550FEE08FF081C
:10141000C80ED91EEA1EFB1E8BE075DD8C01D0E0E4
:101420008B2D71DD8C179D0719F12FB7F8948091E2
:10143000DC049091DD04A091DE04B091DF042FBFA5
:101440008C159D05AE05BF0558F081E0DF91CF9169
:101450001F910F91FF90EF90DF90CF90BF90089574
:1014600001151105E9F68BE04EDD0197C9F6EDCFC8
:1014700080E0ECCF41E060E480E026DF40E060E423
:1014800080E422CF9091D804E92FF0E0EC5DFA4F90
:1014900080839F5F9093D8040895E4EEF4E080E4A5
:1014A000DF011D928A95E9F78CEC808382E08383CB
:1014B00081E0858380EB94E0938782870895EDCF68
:1014C000E4E2F5E080E8DF011D928A95E9F71092E9
:1014D000D8040895FB0101900020E9F73197AF018E
:1014E000461B570BDC01ED91FC910280F381E02D4E
:1014F00019948F929F92AF92BF92EF92FF920F93A7
:101500001F93CF93DF93CDB7DEB7A1970FB6F894B3
:10151000DEBF0FBECDBF7C01FA01CB0119A2223084
:1015200008F42AE08E010F5D1F4F822E912CB12C02
:10153000A12CBF01A50194010E94441CF901CA011C
:101540006A3004F5605DD8016E938D01232B242B46
:10155000252B79F790E080E0109719F0BD01C701C5
:10156000B9DFA1960FB6F894DEBF0FBECDBFDF91F5
:10157000CF911F910F91FF90EF90BF90AF909F90F0
:101580008F900895695CDFCFCF92DF92EF92FF9248
:101590000F931F93CF93DF936B01770FEE08FF0834
:1015A000F7FE19C0EC016DE264DD8C01442755277C
:1015B000BA014C195D096E097F092AE0CE0199DF55
:1015C000800F911FDF91CF911F910F91FF90EF90AE
:1015D000DF90CF9008952AE0B701A601DF91CF9167
:1015E0001F910F91FF90EF90DF90CF9082CF64EE2C
:1015F00072E070CFCF92DF92EF92FF920F931F9322
:10160000CF93DF938C016B01770FEE08FF08F7FE95
:101610001CC06DE22EDDEC0144275527BA014C19A0
:101620005D096E097F092AE0C80163DFC80FD91F71
:10163000C801DDDF8C0F9D1FDF91CF911F910F91AE
:10164000FF90EF90DF90CF9008952AE0B701A601B8
:1016500050DFEC01EDCF8AE056DC61E070E0892BD1
:1016600011F070E060E085E394E0C4CF0F931F9326
:10167000CF93DF93EC01AB0170E060E02AE039DF4B
:101680008C01CE01B4DF800F911FDF91CF911F91AC
:101690000F9108950F931F93CF93DF93EC01462F83
:1016A00050E070E060E02AE024DF8C01CE019FDF93
:1016B000800F911FDF91CF911F910F9108950F938C
:1016C0001F93CF93DF938C01D0E0C0E061157105CB
:1016D00011F000DFEC01C8018ADF8C0F9D1FDF9144
:1016E000CF911F910F9108950F931F93CF93DF9385
:1016F000EC01C6DC8C01CE017ADF800F911FDF91F7
:10170000CF911F910F910895CF93DF93C82F4091F0
:10171000EE045091EF0460E180E060DE882379F010
:10172000C091A505C11105C0C1E08C2FDF91CF91FB
:1017300008956DEB7BE085E394E0D6DFF6CF409132
:10174000EE045091EF0466E081E048DE882339F032
:10175000C091A50567E77BE0CC2331F3ECCF80B3E4
:10176000DFEFD0BBC095C1BB40E068E080E0ACDDFE
:101770004091EE045091EF0466E080E02FDE882374
:1017800039F0C091A50564E47BE0CC2369F2D3CFA6
:101790004091EE045091EF0460E181E01FDEC82F1C
:1017A000882341F0C091A505CC2309F4BDCF61E0A9
:1017B0007BE0C1CF40E068E088E086DD80B3D0BB4D
:1017C000D1BB8091210590912205F2DBAECF0F9322
:1017D0001F93CF93DF93EC018BE095DB8C0140E00E
:1017E00064E084E071DD012B71F48BE08CDB019708
:1017F00051F440E064E080E067DD83E0DF91CF9169
:101800001F910F9108954091EE045091EF0467E00D
:1018100080E0E4DD882379F08091A505882329F014
:1018200061ED7AE085E394E05FDF40E064E080E032
:101830004BDD81E0E3CF40E064E080E045DD809176
:10184000D304882339F088E05EDB892B19F485E026
:101850008093D2048FB18095888340E062E082E07B
:1018600033DD4091EE045091EF0467E081E0B6DD96
:10187000882359F08091A505882329F064EA7AE04D
:1018800085E394E031DF82E0B9CF40E062E080E0C0
:101890001BDD80912105909122058ADB80E0AECF8F
:1018A000CF93DF93C82F83E04ADD8C2F2DDFD82F15
:1018B0008823B1F08091A505882391F06DE579E04A
:1018C00085E394E0DDDB4C2F50E070E060E020E148
:1018D00085E394E00EDE62E579E085E394E004DFE1
:1018E0008D2FDF91CF91089583E790E00197F1F775
:1018F0008FE3D6DF811102C08FE5D2CF0895CF9359
:10190000DF93C82FD62F8FE3CBDF811116C0DD23E5
:1019100059F080E48C0FC4DF81110FC08091E8047E
:10192000805EDF91CF91BCCF80E28C0FB9DF811157
:1019300004C08091E804805CF4CF81E0DF91CF9116
:101940000895EF92FF920F931F93CF93DF9320910F
:10195000D404211174C0C62F8C018091E704823019
:1019600009F06BC060E08091E904C9DF8823F1F0E1
:101970008091A505882309F462C062EB79E085E3D4
:1019800094E07EDB4091E90450E070E060E02AE002
:1019900085E394E0AEDD67EA79E085E394E0DF91EA
:1019A000CF911F910F91FF90EF909ECE84E0C7DC06
:1019B0007801D0E0C701801B910B8C179D072CF498
:1019C000F70181917F01A0DEF5CF8091EB0481FDCD
:1019D00002C08DE099DE8091EB0480FD02C08AE0B8
:1019E00093DE8091E604882361F040E060E180E0CE
:1019F0006BDC8BE990E00197F1F740E060E180E17A
:101A000063DC8091E7048230A1F46EDF882349F023
:101A10008091A505882329F062E879E085E394E0C8
:101A200063DE82E0DF91CF911F910F91FF90EF90E5
:101A300086CC813021F487E0F5CF89E0B8CFDF9103
:101A4000CF911F910F91FF90EF90089525E0FC0139
:101A500011922A95E9F763ED78E085E394E044CEAE
:101A6000CF93DF9382E06BDCCBE4D0E0CE01019733
:101A7000F1F740E060E980E027DC2197F1F7CFB192
:101A800082E05DDC6C2F609585E394E003DE80915D
:101A9000A505882339F063EF77E085E394E0DF91D3
:101AA000CF9122CEDF91CF91089584E1F9DE882392
:101AB00049F08091A505882339F06EEA77E085E347
:101AC00094E012CE82E03BCC08952FB7F894809139
:101AD000DC049091DD04A091DE04B091DF042FBFFF
:101AE0008053984FAF4FBF4F28E13EE00FB6F894B8
:101AF000A895209360000FBE309360002FB7F89434
:101B00004091DC045091DD046091DE047091DF04AB
:101B10002FBF481759076A077B0780F38091A505F7
:101B2000882329F068E276E085E394E0DDCD08952E
:101B30008091E7048823A9F040E061E080E0C4DB05
:101B400083E592E00197F1F740E061E081E0BCDBE2
:101B50008091A505882329F063E675E085E394E08C
:101B6000C3CD089560E08091E904C9DE882339F08F
:101B70008091A50566E874E081110BC0089584E0AA
:101B80008FDE882349F08091A5058823B9F363E7A8
:101B900074E085E394E0A8CDA7DE882339F0809136
:101BA000A50569E574E0882349F3F3CF82E0C7CB4C
:101BB00064EE70E085E394E097CD8F929F92AF92B0
:101BC000BF92CF92DF92EF92FF920F931F93CF932A
:101BD000DF93CDB7DEB7C05CD1090FB6F894DEBF96
:101BE0000FBECDBFD82EC62EE82EF12C8E010F5F72
:101BF0001F4FA70164E275E0C8010E946E1C60DC03
:101C00001092A605C701019721E0C212B7C0F801E2
:101C1000A2E0EA1AF1089F01201B310B2E153F05A7
:101C20001CF422812193F7CFE00EF11EF701108200
:101C3000800F911FDC011C928091A505882319F06B
:101C400085E394E0D4DC7E01B1E8EB0EF11C80E486
:101C5000F70111928A95E9F78981813009F44EC024
:101C600067EE72E0C8010E94FC1B4C0182E1A82EC5
:101C700082E0B82E10E000E0B401D5018D919C9176
:101C80000E94771C6C01892B09F45BC00F5F1F4F0A
:101C9000B6E0AB0EB11C0332110571F789DF2EC01F
:101CA000EFEFCE1ADE0A67EE72E090E080E00E946D
:101CB000FC1B5C01DC018C91882369F0B1E0CB1640
:101CC000D10429F065EF72E0C7010E948A1CB501BA
:101CD000C7010E948A1CAB2819F786E0809FF0019B
:101CE000819FF00D1124EE5EFD4F0480F581E02D03
:101CF000D7018C91882311F1C70119958091A50511
:101D0000882341F085E394E072DC6AEE72E085E3BB
:101D100094E0E0DBC054DF4F0FB6F894DEBF0FBE97
:101D2000CDBFDF91CF911F910F91FF90EF90DF908A
:101D3000CF90BF90AF909F908F90089590E080E0FB
:101D4000DCCF86E0809FF001819FF00D1124EE5ED4
:101D5000FD4F8091E70490E0228133818223932319
:101D6000892B09F09DCF24DF8091A505882331F2CE
:101D70006EEA7DE085E394E0B7DCC0CF800F911F71
:101D8000FC0180818F3319F481E08093A4056D2DCF
:101D9000C801D7DDB3CFCF93DF93C091D804CE373E
:101DA00008F064C0D82F8D3039F15CF48A3021F10D
:101DB0008091A505882321F16D2F85E394E059D901
:101DC0001FC08B3109F448C08B3291F780913204E7
:101DD000882339F010923204C23018F481E08093E5
:101DE00031048BE24FDB8091A5058823A9F06BE2DB
:101DF00085E394E03ED910C080913204882329F015
:101E00008D2F40DB1092320407C0C11113C058DB84
:101E10008091A505811102C0C0E008C085E394E06F
:101E2000E6DB6AEE72E085E394E054DB8C2FDF9111
:101E3000CF910895C33060F0809124058B3241F436
:101E4000809125058B3221F480913104C1E081110C
:101E5000C2E010923104EACF80913204882311F05D
:101E60008BE1CFCF81E080933204D6CFC2E0DECFCA
:101E700085E394E065D98FDF8093A60508958ED918
:101E80008111F6DF80E090E0892B49F080E090E05E
:101E9000892B29F00E94000081110E94000080E03F
:101EA00090E0892B49F080E090E0892B29F00E9496
:101EB000000081110E94000080E090E0892B49F031
:101EC00080E090E0892B29F00E94000081110C94A1
:101ED00000000895AF92BF92CF92DF92EF92FF92EF
:101EE0000F931F93CF93DF9300D0CDB7DEB7198246
:101EF0001A821B8280912305082F07701092D2044A
:101F0000D090D304873019F481E08093D30480917A
:101F1000E704823009F0D6C061E08091E904EFDC8B
:101F20008823B9F08091A505882399F067E87AE0C5
:101F300085E394E0A5D84091E90450E070E060E0CA
:101F40002AE085E394E0D5DA6EE77AE085E394E071
:101F5000CBDB4091EE045091EF0466E081E03EDA85
:101F600085E0EDD980B310BA81B38FEF81BBF12C3E
:101F7000E12C87E0C82EA02EB12C8091D2048111D3
:101F800035C08BE00E948307019781F5CE01019651
:101F90001EDC182F81112BC08091ED04833079F461
:101FA00085E394E0EFD8892B51F085E394E0C8D81D
:101FB000F2DE8093A605813011F4C092D2048091A4
:101FC000D204873099F08BE00E948307892B71F04F
:101FD000698185E394E04DD88091D304882309F486
:101FE00073C08091D204853009F078C010E08091F0
:101FF000A505882349F061E77AE085E394E040D8BD
:10200000B70185E394E0F6DA8091D204853091F44B
:102010008091A505882329F063E67AE085E394E0C2
:1020200063DB8091E504882329F06091F00485E367
:1020300094E01FD8D092D3041123B1F08091A5056C
:10204000882339F0113029F467E37AE085E394E0DE
:102050004BDB8091A505882339F0123029F46DEF10
:1020600079E085E394E040DB8091E704823009F079
:1020700069C03ADC882351F08091A505882331F0AE
:102080006AED79E085E394E00E9440088091E704DE
:10209000823009F454D98091D20481111092D20473
:1020A00081E0111101C080E00F900F900F90DF913F
:1020B000CF911F910F91FF90EF90DF90CF90BF9045
:1020C000AF90089588E04DCF9981809134048823A2
:1020D00069F080913304891709F488CF8FEFE81AEB
:1020E000F80A8A818B8389818A8347CF073030F54C
:1020F000F5018827E158FF4E8F4F0C94661C9E1007
:10210000861089106E108C10921095109D3031F74A
:102110006DCF9A3019F76ACF9D3001F78A818A30E6
:10212000E9F664CF9330D1F661CF9330B9F68A8166
:102130008A30A1F68B818D3089F658CF9A3071F6AE
:102140008A81F9CF87E0A6CF8091A50591E0892704
:102150008093A5056DEE72E085E394E0BBD9809194
:10216000A5056CE073E0882311F060E073E085E37F
:1021700094E0A5CACF93DF93009739F10E94DF1B4B
:10218000EC01C13385E7D80760F012DD8091A50529
:10219000882321F16FEF78E085E394E0DF91CF9120
:1021A000A3CAD0932205C09321058091A505882359
:1021B000A9F063E479E085E394E00E944008BE0161
:1021C00085E394E0DF91CF9115CA6091210570916C
:1021D000220585E394E0DF91CF9148CADF91CF914A
:1021E0000895CF93DF9367EE72E00E94FC1B009787
:1021F000A9F0FC0101900020E9F73197E81BF90BE9
:10220000349760F40E94DF1BD82F833040F06CEDD0
:1022100078E085E394E0DF91CF9166CAD0E067EE85
:1022200072E090E080E00E94FC1B0097B1F1FC019D
:1022300001900020E9F73197E81BF90B3497E0F49F
:102240000E94DF1BC82FC095DD23D1F041E06FEF66
:102250008FEF3AD840E06FEF8C2F36D860E177E20D
:1022600080E090E00E9408088091E704823031F419
:1022700081E0DF91CF9163C880E0E4CF86E0F9CFC1
:1022800080B3DFEFD0BBC1BB60E177E280E090E0DC
:102290000E94080880B3D0BBD1BBDF91CF910895D5
:1022A000009731F10E94DF1B8230910550F080DCF5
:1022B0008091A505882311F166E878E085E394E034
:1022C00013CA019789F01092D7048091A50588233D
:1022D000A9F08091D70463E073E0882311F067EFE1
:1022E00072E085E394E0EBC981E08093D704EDCF01
:1022F0006091D70470E085E394E07CC90895CF93A2
:10230000DF93009781F10E94DF1BEC018230910581
:1023100060F04EDC8091A505882369F166E578E0E0
:1023200085E394E0DF91CF91DFC981708093D5047C
:10233000CE0121E0822781708093D4048091A5058D
:102340008823C9F060E878E085E394E00E944008C3
:102350006CE073E0CD2B11F060E073E085E394E076
:10236000DF91CF91ACC96091D50470E085E394E032
:10237000DF91CF913FC9DF91CF9108951F93CF9304
:10238000DF93009761F10E94DF1BEC011091A5051E
:102390008230910550F0112389F162E178E085E304
:1023A00094E0DF91CF911F919FC9BC0181E0682724
:1023B00089E00E94AB07112309F16CE078E085E326
:1023C00094E00E94400860E173E0CD2B11F46DE1D0
:1023D00073E085E394E0DF91CF911F9170C989E0AC
:1023E0000E94830761E070E0892B11F070E060E0EB
:1023F00085E394E0DF91CF911F91FCC8DF91CF91ED
:102400001F910895CF93DF93009721F10E94DF1B66
:10241000EC018031910560F0CBDB8091A50588232C
:1024200031F161EC77E085E394E0DF91CF915CC915
:10243000809323058091A5058823C9F066EE77E097
:1024400085E394E00E944008BE0185E394E0DF91BB
:10245000CF91D0C880912305803110F010922305D0
:102460006091230585E394E0DF91CF9113C9DF915B
:10247000CF910895CF93DF93009781F10E94DF1BE6
:10248000EC018230910560F093DB8091A5058823F3
:1024900069F16EE777E085E394E0DF91CF9124C99D
:1024A00081708093D404CE0121E0822781708093D3
:1024B000D5048091A5058823C9F068EA77E085E313
:1024C00094E00E9440086CE073E0CD2B11F060E0D6
:1024D00073E085E394E0DF91CF91F1C86091D4047B
:1024E00070E085E394E0DF91CF9184C8DF91CF91D4
:1024F0000895CF93009799F10E94DF1BAC01990FCB
:10250000660B770B413051406105710548F050DB97
:102510008091A5056CE277E0811116C0CF910895F6
:102520008093EC04C091A50586FF12C041E060E4F1
:1025300080E40E94640940E060E480E00E94640955
:10254000CC2361F36EE177E085E394E0CF91CCC8D2
:102550000E943A0A6DE077E0CC2301F3F5CF609159
:10256000EC0485E394E0CF9195C8AF92BF92CF92EF
:10257000DF92EF92FF920F931F93CF93DF93CDB72C
:10258000DEB72F970FB6F894DEBF0FBECDBF5C014C
:10259000CE0101967C010F96F70111928E179F07CD
:1025A000E1F7670100E0A114B104A1F58091E9040D
:1025B000898301E0670110E0C6018E199F09801729
:1025C00091070CF069C060E0F60181916F0197D925
:1025D000882309F44BC08091A5056AED75E0882336
:1025E00089F185E394E02F960FB6F894DEBF0FBE15
:1025F000CDBFDF91CF911F910F91FF90EF90DF90B2
:10260000CF90BF90AF9070C8F60181936F010F5FBC
:102610000F3081F267EE72E0C501002311F090E007
:1026200080E00E94FC1B0E94DF1B8823E1F09FEFEB
:10263000980F9E3148F3BCDA8091A50563EF75E0F1
:102640008111CFCF2F960FB6F894DEBF0FBECDBF4E
:10265000DF91CF911F910F91FF90EF90DF90CF907E
:10266000BF90AF900895002369F3A4CF88E018D9F4
:10267000882339F08091A50561EC75E0882311F37A
:10268000B0CF32D9882309F497CF8091A50565EAA8
:1026900075E08823B9F2A5CF82E00E949F0980915E
:1026A000A505882379F26CE875E09BCFCF93DF9383
:1026B0000097A1F10E94DF1BEC018430910560F0CE
:1026C00077DA8091A505882389F167E873E085E3CF
:1026D00094E0DF91CF9108C8892B81F08091A50506
:1026E000882361F06FE473E085E394E00E94740B4B
:1026F00068E173E085E394E00E94740BC093ED04FD
:10270000C33011F01092D6048091A505882371F092
:102710006CE073E085E394E00E9440086091ED0472
:1027200085E394E0DF91CF910C944A0BDF91CF9138
:102730000895CF93DF93009739F10E94DF1BEC01DE
:102740008F3F910571F068F033DA8091A5058823F9
:1027500009F16EEA72E085E394E0DF91CF910C9489
:10276000740B8093F0048091A505882399F06FEE97
:1027700072E085E394E00E944008BE0185E394E0A6
:10278000DF91CF910C94FA0A6091F004062E000CB0
:10279000770BF4CFDF91CF910895CF93DF9300971C
:1027A00061F10E94DF1BEC018230910568F000DAD4
:1027B0008091A505882351F16BE672E085E394E0F2
:1027C000DF91CF910C94740B81708093E50480911C
:1027D000A5058823D9F061E972E085E394E00E94C1
:1027E00040086CE073E0CD2B11F060E073E085E30E
:1027F00094E0DF91CF910C945F0B6091E50470E061
:1028000085E394E0DF91CF910C94FA0ADF91CF91A8
:102810000895CF93DF930097D1F1D1D7EC018230A7
:10282000910568F0C5D98091A5058823D1F16EE4A2
:1028300072E085E394E0DF91CF910C94740B0197E3
:10284000E9F081E08093E70486E00E949F098FB160
:102850008091A505882329F166E372E085E394E081
:102860000E94400868E373E0CD2B11F06DE273E045
:1028700085E394E0DF91CF910C945F0B82E080932D
:10288000E70481E00E949F098FB152D9E1CF6091A6
:10289000E7046150770B85E394E0DF91CF910C94CE
:1028A000FA0ADF91CF910895CF93DF93009759F102
:1028B00086D7EC018230910568F07AD98091A50520
:1028C000882351F16CEF71E085E394E0DF91CF91C3
:1028D0000C94740B81708093E6048091A505882385
:1028E000D9F062E272E085E394E00E9440086CE077
:1028F00073E0CD2B11F060E073E085E394E0DF91AD
:10290000CF910C945F0B6091E60470E085E394E056
:10291000DF91CF910C94FA0ADF91CF910895CF9374
:10292000DF93009729F14BD7EC018430910568F0D3
:102930003FD98091A505882319F16AEC71E085E300
:1029400094E0DF91CF910C94740B8093EB04809111
:10295000A5058823A9F06FEE71E085E394E00E945D
:102960004008BE0185E394E0DF91CF910C94FA0A10
:102970006091EB0485E394E0DF91CF910C944A0BD6
:10298000DF91CF910895CF93DF93009759F117D737
:10299000EC01019781159D4750F00AD98091A5055A
:1029A00068E771E0811118C0DF91CF910895D0934D
:1029B000EF04C093EE048091A5058823A9F363EB8F
:1029C00071E085E394E00E944008BE0185E394E055
:1029D0000E94C40A65EA71E085E394E0DF91CF913B
:1029E0000C94740B6091EE047091EF0485E394E015
:1029F000DF91CF910C94FA0AEF92FF920F931F93FD
:102A0000CF93DF93DC01EC91E11109C0C1E08C2F81
:102A1000DF91CF911F910F91FF90EF900895E90101
:102A20007A018B0119821882CAD69983888380170C
:102A3000910720F0C0E0E816F90648F7B9D8C09130
:102A4000A505CC2319F36FEF70E085E394E00E94B5
:102A50004008A80170E060E02AE085E394E00E946D
:102A6000790A69EF70E085E394E00E944008B701BD
:102A700085E394E00E94360BCACFEF92FF920F934A
:102A80001F93CF93DF9300D01F92CDB7DEB700978F
:102A900009F463C067EE72E0AFD6FC01208121111A
:102AA00021C067EE72E090E080E0A6D6FC012081B4
:102AB00021112DC06FE373E090E080E09DD68C0182
:102AC000FC018081F12CE12C81112CC071D8809106
:102AD000A50561EC78E0882379F085E394E00E9415
:102AE000740B0AC09E012F5F3F4F4FEF50E062E032
:102AF00070E082DF8823A9F20F900F900F900F9063
:102B0000DF91CF911F910F91FF90EF9008959E015B
:102B10002D5F3F4F40E355E770E060E06DDF8111CE
:102B2000EBCFC8CF89819A81E816F90628F7F8011A
:102B300001900020E9F73197BF01601B710BC801BC
:102B40000E94A10C6B817C8190E080E00E940808CB
:102B5000C1D9FFEFEF1AFF0AE5CF2AD88091A5056A
:102B6000882351F26EEA78E0B8CFCF93DF931F92BB
:102B70001F92CDB7DEB7009709F45FC067EE72E031
:102B80003BD69E012F5F3F4F4EE150E061E070E089
:102B900033DF811112C089819A812091E8042817BE
:102BA000190681F405D88091A505882331F06CE3DE
:102BB00071E085E394E00E94740B0F900F90DF9119
:102BC000CF9108958093E9048091A505882361F051
:102BD0006CE171E085E394E00E94400869817A81AC
:102BE00085E394E00E94360B1092EA041A8219825F
:102BF00067EE72E090E080E0FFD50097F1F29E0171
:102C00002F5F3F4F4EE750E060E670E0F5DE811148
:102C1000D4CF89818093EA048091A505882369F245
:102C200062E473E085E394E00E946A0A69817A8134
:102C300085E394E00E94360BC0CF4091E90450E058
:102C400070E060E02AE085E394E00E94790A8091D8
:102C5000EA04882381F06AE171E085E394E00E9450
:102C600040084091EA0450E070E060E02AE085E32B
:102C700094E00E94790A85E394E00E94F70A9DCFD0
:102C8000CF93DF93009759F1DC010D900020E9F715
:102C9000AD0141505109E1EFF4E020E3DF011D9265
:102CA0002A95E9F7481B590B4033510510F04FE2C4
:102CB00050E0EC01BC0181EF94E045D68091A50580
:102CC000882369F06AE378E085E394E00E94400895
:102CD000BE0185E394E0DF91CF910C945F0BDF910F
:102CE000CF910895FF920F931F93CF93DF9304EE3C
:102CF00014E0D0E0C0E0F801F1908F01CE01AED534
:102D0000F81619F06F2DCE01B1D52196C034D1053A
:102D100091F78091A505882331F06EE577E085E392
:102D200094E00E9440088091A505882359F06EE642
:102D300077E085E394E0DF91CF911F910F91FF90B1
:102D40000C94740BDF91CF911F910F91FF90089518
:102D50006F927F928F929F92AF92BF92CF92DF92AB
:102D6000EF92FF920F931F93CF93DF93CDB7DEB710
:102D700060970FB6F894DEBF0FBECDBF4C01188A26
:102D80008E010F5F1F4F6E0180E1C80ED11CF8014C
:102D900058011192CE16DF06E1F7F12C811491044F
:102DA00009F058C08091E9048983E12CFF24F39451
:102DB0008FE30E94500C811184C08091E804805EF2
:102DC0000E94500C81117DC088E10E94500C81113D
:102DD00078C010E000E08F2C912C081519050CF03C
:102DE000CBC0702EE11004C0F501E00FF11F708020
:102DF0008091E804871509F4BCC080E4870D0E9427
:102E0000500C81115EC085E00E949F09C6010E949E
:102E1000E70B8111A4C0688981E08F1508F07FC09D
:102E200066FFA7C060EA76E085E394E00E94400870
:102E3000B80185E394E00E94C40A6EE976E085E378
:102E400094E00E944008688985E394E00E944A0B60
:102E500084018FC067EE72E0C401FF2011F090E0A2
:102E600080E0CAD43C0143E050E064E673E05DD505
:102E7000892B71F4E090A505EE2009F44DC065EEB4
:102E800076E085E394E00E94740B8EE1F82E90CFFB
:102E9000F40101900020E9F73197E819F909339717
:102EA00070F5C3018CD4882341F19FEF980F9E31B8
:102EB000E8F00E94D80D8091A50567EB76E08111BE
:102EC00026C060960FB6F894DEBF0FBECDBFDF916F
:102ED000CF911F910F91FF90EF90DF90CF90BF9017
:102EE000AF909F908F907F906F900895F80181939D
:102EF0008F01F394FFE0FF12ADCFE12C59CF0E9478
:102F0000D80D8091A50565EA76E08823D1F285E3A6
:102F100094E00E94740BD5CFEE24E394B6CF85E302
:102F200094E00E944A0B8091A505882309F490CF74
:102F300067E876E085E394E00E944008488950E025
:102F400070E060E02AE085E394E00E94790A6CE694
:102F500076E085E394E00E944008672D75CF80916C
:102F6000A505882331F06DE476E085E394E00E94C6
:102F7000740B0F5F1F4F31CFEE2021F085E394E0FB
:102F80000E94F70A89E10E94500C81119ACF8FE5C7
:102F90000E94500C811195CF8FE30E94500C81113B
:102FA00090CF82E00E949F098AE00E948307892BCC
:102FB00059F481E08093D9048091A505882309F410
:102FC00080CF66E376E0A3CF1092D904F5CF84E6F4
:102FD00093E0BECECF93DF93EC0189E00E9483079C
:102FE000892BA1F5209729F143E050E064E673E0D6
:102FF000CE019BD4892B51F540E060E280E20E9433
:10300000640968E270E080E090E00E94080840E017
:1030100060EA80E00E94640968E270E080E090E08D
:103020000E94080840E060E880E8DF91CF910C94AE
:10303000640960E08091E9040E947F0C882349F0D4
:103040008091A50569E475E081110EC0DF91CF91F3
:10305000089581E00E94500C882361F08091A505BD
:103060008823A1F365E375E085E394E0DF91CF91D8
:103070000C94740B0E94740C882339F08091A50580
:1030800068E175E0882311F3EFCF82E0DF91CF9103
:103090000C949F09CF93DF93EC0189E00E94830792
:1030A000892BC9F42097E1F043E050E064E673E037
:1030B000CE013BD4892B79F481E10E94500C882306
:1030C00051F08091A505882331F06AEF74E085E323
:1030D00094E00E94740B82E0DF91CF910C949F09E1
:1030E00060E08091E9040E947F0C882349F0809180
:1030F000A5056CED74E081110EC0DF91CF910895AC
:1031000081E10E94500C882361F08091A5058823FD
:10311000A1F36FEB74E085E394E0DF91CF910C9421
:10312000740B0E94740C8823B1F28091A5056FE99D
:1031300074E0882311F3EFCFCF93DF931092D30481
:10314000109234040097A1F0EC01FC0101900020E2
:10315000E9F73197E81BF90B3497A0F08091A505AA
:10316000882331F060E374E085E394E00E94740BFF
:103170008091ED048330C9F481E08093D604DF911F
:10318000CF91089543E050E068E673E0CED3892BF9
:1031900021F481E08093D304EBCF81E08093340469
:1031A000CE010DD380933304E3CFDF91CF910C9404
:1031B0006A0F009749F043E050E06CE673E0B5D346
:1031C00060ED73E0892B61F08091F10460E074E0C0
:1031D000882331F061EF74E085E394E00C945F0B99
:1031E00085E394E00C94740B1F920F920FB60F922C
:1031F00011242F933F938F939F93AF93BF9380910D
:10320000DC049091DD04A091DE04B091DF043091E4
:10321000DB0423E0230F2D3758F50196A11DB11DC6
:103220002093DB048093DC049093DD04A093DE0400
:10323000B093DF048091E0049091E104A091E20456
:10324000B091E3040196A11DB11D8093E004909319
:10325000E104A093E204B093E304BF91AF919F9186
:103260008F913F912F910F900FBE0F901F90189547
:1032700026E8230F0296A11DB11DD2CF1F920F92F7
:103280000FB60F9211240BB60F922F933F934F93CB
:103290005F936F937F938F939F93AF93BF93EF93BE
:1032A000FF9385E394E00E94D708FF91EF91BF91CF
:1032B000AF919F918F917F916F915F914F913F91CE
:1032C0002F910F900BBE0F900FBE0F901F9018956F
:1032D0001F920F920FB60F9211240BB60F922F93DD
:1032E0008F939F93EF93FF93E0914504F0914604F1
:1032F0008081E0914B04F0914C0482FD1DC09081CF
:1033000080914E048F5F8F7320914F04821741F09C
:10331000E0914E04F0E0EB5CFB4F958F80934E0400
:10332000FF91EF919F918F912F910F900BBE0F9076
:103330000FBE0F901F9018958081F2CFCF93DF932F
:103340001F92CDB7DEB7789484B5826084BD84B512
:10335000816084BD85B5826085BD85B5816085BD90
:1033600080916E00816080936E0010928100809148
:1033700081008260809381008091810081608093D0
:103380008100809180008160809380008091B100F5
:1033900084608093B1008091B00081608093B00020
:1033A0008091910082608093910080919100816072
:1033B0008093910080919000816080939000809133
:1033C000A10082608093A1008091A1008160809320
:1033D000A1008091A00081608093A00080912101D4
:1033E000826080932101809121018160809321017D
:1033F0008091200181608093200180917A00846017
:1034000080937A0080917A00826080937A00809124
:103410007A00816080937A0080917A00806880933E
:103420007A001092C1000FB6F894A89580916000C0
:10343000886180936000109260000FBEEFE2FDE0B3
:103440002491E9EEFCE08491882399F090E0880FC4
:10345000991FFC01ED5FF34FA591B491FC01E85574
:10346000F34F859194918FB7F894EC91E22BEC9304
:103470008FBF60E08DE00E94AB070E94600AE09180
:103480004504F091460482E08083E0914104F0918C
:1034900042041082E0914304F091440480E180836F
:1034A00010924D04E0914904F0914A0486E0808333
:1034B000E0914704F0914804808180618083E0912D
:1034C0004704F0914804808188608083E09147043C
:1034D000F0914804808180688083E0914704F091F6
:1034E000480480818F7D80830E944D0A90E080E0B7
:1034F000B5D18C3C81F444EEE42E44E0F42E10E08F
:1035000000E0C801ABD1F70181937F010F5F1F4F2E
:1035100000341105B1F78091E704813021F486E091
:103520000E949F098FB18091E704823031F481E0DD
:103530000E949F098FB10E94980D1092DA04109298
:10354000D90480E2A82E90E4992E23E0822E3FE059
:10355000E32EF12C8BE00E94830721E0892B09F0F8
:1035600020E02093DA048AE00E94830721E0892B7F
:1035700009F020E02093D9048091A605813029F438
:1035800061E08091D8040E94DD0D8091E7048230D3
:1035900089F58091A6058230B9F462E08091D80463
:1035A0000E94DD0D8091ED04813011F40E946A0FBC
:1035B0008091ED04823041F48091A405882321F0AC
:1035C0000E946A0F1092A4058091D904882349F0C3
:1035D0008091D704882329F090E080E0B9DB109235
:1035E000D9048091ED04833029F48091D6048111AF
:1035F0000E946A0F8091E704813069F48091D504BC
:10360000882379F08091A605823029F462E08091C8
:10361000D8040E94DD0DC7010197F1F70E943F0F0A
:1036200099CF0091D404002349F00E946A0F809141
:10363000A605823081F70E94600AEDCF1091DA046E
:10364000112349F3198288E00E949F09D12CC12CD3
:10365000B12C8BE00E948307892B11F5CE010196D6
:103660000E94E70B8111F5CF9091E9048981282F01
:103670002A25921301C0012F282F2925921301C05A
:10368000B12E883149F0893149F08F3311F710920A
:10369000D3048092D204DDCFC12EDBCFD12ED9CF7F
:1036A00001110E946A0FBB2009F442C0CC2009F42A
:1036B0004FC08091A505882331F06AE57CE085E361
:1036C00094E00E94740B8091A505882361F06DE160
:1036D0007CE085E394E00E9440086091EC0485E37F
:1036E00094E00E944A0B89E00E949F098091EC04BB
:1036F0000E94840B87E00E949F098091A505882382
:1037000031F06DE47CE085E394E00E94740B8091DD
:10371000EC048F7B8093EC040E943A0A8091A5050B
:10372000882391F063E37CE085E394E00E94740BCE
:10373000DD2051F08091A505882331F06AE87CE016
:1037400085E394E00E94740B87E00E949F0963CF99
:103750008091A605823061F762E08091D8040E94D2
:10376000DD0DE6CFE5E3F4E01382128288EE93E00C
:10377000A0E0B0E084839583A683B78384E092E0E1
:103780009183808385EC90E09587848784EC90E03A
:103790009787868780EC90E0918B808B81EC90E01E
:1037A000938B828B82EC90E0958B848B86EC90E0FF
:1037B000978B868B118E128E138E148E0895FC01BA
:1037C00088279927E89421912032E9F3293010F0D5
:1037D0002E30C8F32B3239F02D3231F4689403C007
:1037E00035D0820F911D219120532A30C8F31EF449
:1037F000909581959F4F089547EA55E000C0FA01E2
:10380000A191B081009719F41097E1F0CD01DC018E
:10381000CD010D90002011F4C00113C0FB012191D6
:10382000222319F02015D9F7F3CFFB0121912015A0
:1038300019F41E92119606C02223C1F70D900020A4
:10384000A1F7D001FA01A193B08308957AE0979F80
:10385000902D879F802D910D11240895F999FECF09
:1038600092BD81BDF89A992780B50895262FF999C0
:10387000FECF1FBA92BD81BD20BD0FB6F894FA9A53
:10388000F99A0FBE01960895A1E21A2EAA1BBB1B3E
:10389000FD010DC0AA1FBB1FEE1FFF1FA217B3071C
:1038A000E407F50720F0A21BB30BE40BF50B661F32
:1038B000771F881F991F1A9469F7609570958095F6
:1038C00090959B01AC01BD01CF010895EE0FFF1F44
:1038D000881F8BBF0790F691E02D1994FB01DC0146
:1038E00002C001900D9241505040D8F70895FB015D
:1038F000DC018D9181341CF08B350CF4805E61917C
:1039000061341CF06B350CF4605E861B611189F329
:10391000990B0895FB01DC010D900020E9F7119748
:1039200001900D920020E1F70895FB01DC01415068
:10393000504030F08D910190801919F40020B9F7B2
:10394000881B990B0895FB01DC014150504048F061
:1039500001900D920020C9F701C01D9241505040C6
:08396000E0F70895F894FFCF91
:1039680000000000F908640891084509C208A00889
:10397800B40871030300B51576030200E7170704BE
:10398800020056137F030200B20D83030200550D97
:10399800870303005F0A6803030054148F030300BE
:1039A8000212930303008F14970303009913A003D3
:1039B8000300CD13AB030200980DAF0302004A18B1
:1039C800B3030200EA17B70301003A12BB0302006F
:1039D800260DC10303000914C6030200300DCC03F1
:1039E80002009C18D1030200C314DD030200BE11BB
:1039F800E10302003D15E8030300650DEC03020036
:103A0800B512F00303007216F80303004016790399
:103A18000200A816000402002B0B04040200501137
:103A28000C0401007912130401007F11170403002C
:103A3800D9181B040300A41023040300BA10290496
:103A48000300F1100D0A002009003E20005665729F
:103A5800626F73653A2000535251206175746F206C
:103A68004F4E00535251206175746F204F464600E7
:103A780052454E2061737365727465640052454EF9
:103A880020756E2D617373657274656400434F4EC3
:103A980054524F4C4C455200444556494345000A40
:103AA8000D005365742064657669636520736563EA
:103AB8006F6E6461727920616464726573732074D7
:103AC8006F3A2000616C6C00656F69007265616C0B
:103AD800006164647200616C6C73706F6C6C00637D
:103AE8006C720064636C0064656661756C74006573
:103AF8006F7200656F7300656F745F636861720051
:103B0800656F745F656E61626C6500696663006C01
:103B18006C6F006C6F63006C6F6E006D6163726F29
:103B2800006D6F64650070706F6C6C007265616425
:103B380000726561645F746D6F5F6D730072656EAE
:103B48000072657065617400727374007472670046
:103B58007361766563666700736574767374720063
:103B6800737271007372716175746F00737461742C
:103B7800757300746F6E0076657200766572626F99
:103B8800736500746D62757300786469616700001D
:020000023000CC
:10E000000D9489F10D94B2F10D94B2F10D94B2F129
:10E010000D94B2F10D94B2F10D94B2F10D94B2F1F0
:10E020000D94B2F10D94B2F10D94B2F10D94B2F1E0
:10E030000D94B2F10D94B2F10D94B2F10D94B2F1D0
:10E040000D94B2F10D94B2F10D94B2F10D94B2F1C0
:10E050000D94B2F10D94B2F10D94B2F10D94B2F1B0
:10E060000D94B2F10D94B2F10D94B2F10D94B2F1A0
:10E070000D94B2F10D94B2F10D94B2F10D94B2F190
:10E080000D94B2F10D94B2F10D94B2F10D94B2F180
:10E090000D94B2F10D94B2F10D94B2F10D94B2F170
:10E0A0000D94B2F10D94B2F10D94B2F10D94B2F160
:10E0B0000D94B2F10D94B2F10D94B2F10D94B2F150
:10E0C0000D94B2F10D94B2F10D94B2F10D94B2F140
:10E0D0000D94B2F10D94B2F10D94B2F10D94B2F130
:10E0E0000D94B2F141546D656761323536300041AF
:10E0F000726475696E6F206578706C6F72657220DE
:10E1000073746B3530305632206279204D4C530099
:10E11000426F6F746C6F616465723E004875683F52
:10E1200000436F6D70696C6564206F6E203D200048
:10E130004350552054797065202020203D20005FF9
:10E140005F4156525F415243485F5F3D2000415658
:10E1500052204C696243205665723D20004743437C
:10E160002056657273696F6E203D20004350552024
:10E1700049442020202020203D20004C6F7720663D
:10E18000757365202020203D20004869676820665F
:10E190007573652020203D200045787420667573D6
:10E1A00065202020203D20004C6F636B2066757336
:10E1B000652020203D20004D617220203720323024
:10E1C000313300312E362E3800342E332E350056A2
:10E1D00023202020414444522020206F7020636F70
:10E1E00064652020202020696E73747275637469E1
:10E1F0006F6E2061646472202020496E74657272B3
:10E20000757074006E6F20766563746F7200726A49
:10E210006D702020006A6D70200057686174207056
:10E220006F72743A00506F7274206E6F7420737541
:10E2300070706F72746564004D7573742062652030
:10E2400061206C6574746572002000577269747483
:10E25000696E672045450052656164696E672045B7
:10E26000450045452065727220636E743D00504F35
:10E27000525400303D5A65726F2061646472003FF1
:10E280003D43505520737461747300403D454550C3
:10E29000524F4D207465737400423D426C696E6B41
:10E2A000204C454400453D44756D70204545505215
:10E2B0004F4D00463D44756D7020464C415348001B
:10E2C000483D48656C70004C3D4C69737420492F83
:10E2D0004F20506F72747300513D51756974005234
:10E2E0003D44756D702052414D00563D73686F7707
:10E2F00020696E7465727275707420566563746FF0
:10E30000727300593D506F727420626C696E6B00BD
:10E310002A0011241FBECFEFD1E2DEBFCDBF01E046
:10E320000CBF12E0A0E0B2E0EEE1FDEF03E00BBFB6
:10E3300002C007900D92A030B107D9F712E0A0E01B
:10E34000B2E001C01D92AE30B107E1F70F9460F367
:10E350000D948DFE01E20EBF0FEF0DBF11241FBE05
:10E360000D9460F30D9400F020E030E040ED57E0B4
:10E3700005C0FA013197F1F72F5F3F4F2817390792
:10E38000C0F308959C01260F311DC901A0E0B0E043
:10E390002F5F3F4FABBFFC018791882361F08093D3
:10E3A000C6008091C00086FFFCCF8091C0008064D1
:10E3B0008093C000EACF08958DE08093C6008091DD
:10E3C000C00086FFFCCF8091C00080648093C000B5
:10E3D0008AE08093C6008091C00086FFFCCF8091C8
:10E3E000C00080648093C00008950F94C2F10F9420
:10E3F000DCF10895FC019081992359F09093C600B7
:10E400008091C00086FFFCCF8091C0008064809323
:10E41000C0003196992379F70895282F982F929567
:10E420009F70892F805D8A3308F0895F8093C600D2
:10E430008091C00086FFFCCF8091C00080648093F3
:10E44000C000822F8F70982F905D9A3308F0995FEB
:10E450009093C6008091C00086FFFCCF8091C000E1
:10E4600080648093C00008959C01FB01853691056E
:10E470001CF46330710594F0C90164E670E00F94F8
:10E480002EFE605D7F4F6093C6008091C00086FFC6
:10E49000FCCF8091C00080648093C0002B30310598
:10E4A00014F43297B4F0C90164E670E00F942EFEC4
:10E4B0006AE070E00F942EFE605D7F4F6093C600AF
:10E4C0008091C00086FFFCCF8091C0008064809363
:10E4D000C000C9016AE070E00F942EFEC0968093E0
:10E4E000C6008091C00086FFFCCF8091C000806490
:10E4F0008093C00008951F93182F8EE692EE60E07F
:10E500000F94C2F11093C6008091C00086FFFCCF2B
:10E510008091C00080648093C0000F94DCF11F9153
:10E5200008952F923F924F925F926F927F928F92B7
:10E530009F92AF92BF92CF92DF92EF92FF920F9392
:10E540001F93DF93CF93CDB7DEB762970FB6F894E2
:10E55000DEBF0FBECDBF382E622ECA01DB015C01CB
:10E560006D01772420E2222E2E010894411C511CBB
:10E570008BC081E0A81680E0B80681E0C80680E084
:10E58000D80628F0C601AA27BB270F940DF2BB2797
:10E59000AD2D9C2D8B2D0F940DF28A2D0F940DF225
:10E5A0002092C6008091C00086FFFCCF8091C00001
:10E5B00080648093C0009DE29093C6008091C0006B
:10E5C00086FFFCCF8091C00080648093C0002092C1
:10E5D000C6008091C00086FFFCCF8091C00080649F
:10E5E0008093C00019828601750188249924A1E0D6
:10E5F0003A1651F03A1620F0B2E03B1661F409C029
:10E600000BBFF701779007C0C7010F9477FE782EF4
:10E6100002C0F7017080872D0F940DF22092C60082
:10E620008091C00086FFFCCF8091C0008064809301
:10E63000C000872D8052F401EF70F0708F3520F408
:10E64000E40DF51D708204C0E40DF51D8EE280839B
:10E650000894E11CF11C011D111D0894811C911CE2
:10E6600090E18916910409F0C2CF80E190E0A0E02A
:10E67000B0E0A80EB91ECA1EDB1E198AC2010F9493
:10E68000FAF10F94DCF16A94662009F072CF629679
:10E690000FB6F894DEBF0FBECDBFCF91DF911F91B3
:10E6A0000F91FF90EF90DF90CF90BF90AF909F9031
:10E6B0008F907F906F905F904F903F902F90089534
:10E6C0002F923F924F925F926F927F928F929F9282
:10E6D000AF92BF92CF92DF92EF92FF920F931F9370
:10E6E000DF93CF93CDB7DEB7CD53D1400FB6F894BB
:10E6F000DEBF0FBECDBF01E20EBF0FEF0DBF94B75F
:10E70000F894A89514BE80916000886180936000A1
:10E7100010926000789493FF05C0E0910002F091A0
:10E7200001021995279A2F9A8091C00082608093E8
:10E73000C00080E18093C40088E18093C1000000A4
:10E74000EE24FF24870144E0A42EB12CCC24DD2448
:10E7500024C0C5010197F1F70894E11CF11C011DCB
:10E76000111D21E2E2162EE4F20620E0020720E06D
:10E77000120718F031E0C32ED12CC801B70127ECE5
:10E780003BE140E050E00F9441FE611571058105C9
:10E79000910519F485B1805885B98091C00087FD35
:10E7A00003C0C114D104A9F2A6014F5F5F4FC25E3E
:10E7B000DE4F59834883CE51D140C25EDE4F8881FF
:10E7C0009981CE51D140019711F00D9410FEC05D9A
:10E7D000DE4F19821882C053D14060E0C15DDE4F28
:10E7E0001882CF52D14088249924C35DDE4F19820C
:10E7F0001882CD52D140C05EDE4F188219821A8233
:10E800001B82C052D140CE5CDE4F188219821A8220
:10E810001B82C253D140EE24FF2487010BBFF701B6
:10E8200007911691C45CDE4F19830883CC53D14005
:10E830000D940BFEC25EDE4F28813981CE51D1404E
:10E840002130310509F52091C600C25EDE4F1982E4
:10E850001882CE51D14022C02F5F3F4F4F4F5F4FA4
:10E86000213082E138078AE7480780E0580780F0C6
:10E87000C45CDE4FE881F981CC53D140EF5FFF4F9C
:10E8800019F0EE27FF27099420E030E040E050E047
:10E890008091C00087FFE0CF2091C600C35DDE4FAE
:10E8A00048815981CD52D1404F5F5F4FC35DDE4FEC
:10E8B00059834883CD52D140213209F063C64A3092
:10E8C000510508F05FC60894811C911C53E0851621
:10E8D000910409F059C600E010E018C081E280936D
:10E8E000C6008091C00086FFFCCF8091C00080648C
:10E8F0008093C0002F5F3F4F2931310579F70F9486
:10E90000DCF10F5F1F4F0530110519F020E030E0FA
:10E91000E5CF10920A0210920B0210920C02109294
:10E920000D02109206021092070210920802109235
:10E930000902109202021092030210920402109235
:10E9400005028FEE90EE60E00F94F5F180E191EE1C
:10E9500060E00F94C2F18091C00087FFFCCF9091DE
:10E96000C600903608F09F759032B8F09093C600BC
:10E970008091C00086FFFCCF8091C00080648093AE
:10E98000C000A0E2A093C6008091C00086FFFCCF2B
:10E990008091C00080648093C000983409F4D7C18E
:10E9A0009934B8F4923409F459C1933458F490333B
:10E9B00019F1903308F4E3C59F33A1F1903409F0C5
:10E9C000DEC5BDC0953409F470C1963409F0D7C5D1
:10E9D00098C1923509F42BC2933538F49C3409F46C
:10E9E000F5C1913509F0CBC518C2963509F445C279
:10E9F000993509F0C4C567C483E792EE62E00F94CD
:10EA0000F5F110920602109207021092080210927D
:10EA1000090210920A0210920B0210920C0210923C
:10EA20000D0213C18FE792EE62E00F94F5F18FEEC5
:10EA300090EE60E00F94F5F181E291EE60E00F94CA
:10EA4000C2F187EB91EE60E00F94F5F180E391EE77
:10EA500060E00F94C2F184EE90EE60E00F94F5F167
:10EA60008FE391EE60E00F94C2F186E090E061E008
:10EA700070E00F9434F20F94DCF18DE591EE60E0DC
:10EA80000F94C2F189EC91EE60E00F94F5F18EE401
:10EA900091EE60E00F94C2F183EC91EE60E00F9490
:10EAA000F5F18CE691EE60E00F94C2F18EE10F94E7
:10EAB0000DF288E90F940DF281E00F940DF20F949E
:10EAC000DCF18BE791EE60E00F94C2F119E0E0E039
:10EAD000F0E010935700E4918E2F0F940DF20F94F5
:10EAE000DCF18AE891EE60E00F94C2F1E3E0F0E03F
:10EAF00010935700E4918E2F0F940DF20F94DCF1D8
:10EB000089E991EE60E00F94C2F1E2E0F0E0109349
:10EB10005700E4918E2F0F940DF20F94DCF188EAE8
:10EB200091EE60E00F94C2F1E1E0F0E01093570045
:10EB30001491812F0F940DF20F94DCF107CF8BE825
:10EB400092EE62E00F94F5F18BE492EE60E00F94A8
:10EB5000F5F10F94DCF100E010E019C0C8016F2D51
:10EB60000F947FFEFF2031F489E492EE60E00F9471
:10EB7000C2F10BC0F092C6008091C00086FFFCCFAE
:10EB80008091C00080648093C0000F5F1F4FC80158
:10EB900081519F41A0E0B0E0ABBFFC01F790BAE229
:10EBA000FB1621F0E2E000301E07C1F60F94DCF105
:10EBB0000F94DCF187E592EE60E00F94F5F10F948D
:10EBC000DCF1CC24DD2400E010E01EC0C8010F946D
:10EBD00077FEF82E882331F489E492EE60E00F94FA
:10EBE000C2F10BC08093C6008091C00086FFFCCFAD
:10EBF0008091C00080648093C000FE1419F00894D6
:10EC0000C11CD11C0F5F1F4FC80181519F41A0E063
:10EC1000B0E0ABBFFC01E790FAE2EF1621F022E092
:10EC20000030120799F60F94DCF10F94DCF182E6C4
:10EC300092EE60E00F94C2F1C60161E070E00F94C3
:10EC400034F20F94DCF10F94DCF110920202109276
:10EC50000302109204021092050278CE89E992EE26
:10EC600062E00F94F5F1279A2F9A16C02F9880E052
:10EC700090E0E0EDF7E03197F1F7019684369105E9
:10EC8000C1F72F9A80E090E0E0EDF7E03197F1F7DF
:10EC9000019684369105C1F78091C00087FFE6CFC9
:10ECA0008091C00087FFFCCF64C485EA92EE62E0E9
:10ECB0000F94F5F140910202509103026091040219
:10ECC0007091050281E020E10F9491F2809102029F
:10ECD00090910302A0910402B091050280509F4FD1
:10ECE000AF4FBF4F8093020290930302A0930402A0
:10ECF000B093050280509041A040B04008F426CE69
:10ED0000A4CF83EB92EE62E00F94F5F140910602FE
:10ED100050910702609108027091090280E020E1A1
:10ED20000F9491F28091060290910702A09108023F
:10ED3000B091090280509F4FAF4FBF4F80930602A2
:10ED400090930702A0930802B0930902FFCD80ECD4
:10ED500092EE62E00F94F5F183E792EE60E00F949B
:10ED6000F5F18FE792EE60E00F94F5F18BE892EE0B
:10ED700060E00F94F5F189E992EE60E00F94F5F10F
:10ED800085EA92EE60E00F94F5F183EB92EE60E09D
:10ED90000F94F5F180EC92EE60E00F94F5F187ECC2
:10EDA00092EE60E00F94F5F188ED92EE60E00F9442
:10EDB000F5F18FED92EE60E00F94F5F18AEE92EEB0
:10EDC00060E00F94F5F183E093EEBDCD87EC92EE19
:10EDD00062E00F94F5F181E40F947BF282E40F94EA
:10EDE0007BF283E40F947BF284E40F947BF285E45E
:10EDF0000F947BF286E40F947BF287E40F947BF20E
:10EE000088E40F947BF28AE40F947BF28BE40F94F6
:10EE10007BF28CE40F947BF299CD88ED92EE62E068
:10EE20000F94F5F1772473948824992409C48FED05
:10EE300092EE62E00F94F5F140910A0250910B02BC
:10EE400060910C0270910D0282E020E10F9491F22A
:10EE500080910A0290910B02A0910C02B0910D02D8
:10EE600080509F4FAF4FBF4F80930A0290930B0289
:10EE7000A0930C02B0930D0269CD8AEE92EE62E08F
:10EE80000F94F5F184EE90EE60E00F94F5F18FECC5
:10EE900091EE60E00F94F5F1662477244301CC5D98
:10EEA000DE4F19821882C452D140D401C301B695F5
:10EEB000A79597958795CA5DDE4F88839983AA8326
:10EEC000BB83C652D140CC5DDE4FA881B981C4520C
:10EED000D1401196CC5DDE4FB983A883C452D14096
:10EEE000CD0162E070E00F9434F2B0E2B093C6005E
:10EEF0008091C00086FFFCCF8091C0008064809329
:10EF0000C000EDE2E093C6008091C00086FFFCCF18
:10EF10008091C00080648093C000F0E2F093C6004E
:10EF20008091C00086FFFCCF8091C00080648093F8
:10EF3000C000CA5DDE4FE880F9800A811B81C6529D
:10EF4000D140BB27A12F902F8F2D0F940DF2CA5DBA
:10EF5000DE4F8881C652D1400F940DF2B0E2FB2EF5
:10EF6000F092C6008091C00086FFFCCF8091C00067
:10EF700080648093C0000DE30093C6008091C000C0
:10EF800086FFFCCF8091C00080648093C00010E2B7
:10EF90001093C6008091C00086FFFCCF8091C00016
:10EFA00080648093C0008BBEF3012791C65DDE4F65
:10EFB0002883CA52D140A22EBB24CC24DD2408943D
:10EFC000611C711C811C911C8BBEF3018791282E42
:10EFD0003324442455240894611C711C811C911C09
:10EFE0008BBEF3013791C55DDE4F3883CB52D140E4
:10EFF0000894611C711C811C911C8BBEF30147910C
:10F00000C45DDE4F4883CC52D140ADEFEA2EAFEF66
:10F01000FA2EAFEF0A2FAFEF1A2F6E0C7F1C801E57
:10F02000911E142D032DF22CEE24EA0CFB1C0C1D5A
:10F030001D1D0F940DF220E22093C6008091C000A8
:10F0400086FFFCCF8091C00080648093C000C65DC5
:10F05000DE4F8881CA52D1400F940DF230E23093D6
:10F06000C6008091C00086FFFCCF8091C000806404
:10F070008093C000C45DDE4F8881CC52D1400F9494
:10F080000DF240E24093C6008091C00086FFFCCFA5
:10F090008091C00080648093C000C55DDE4F888190
:10F0A000CB52D1400F940DF250E25093C6008091A4
:10F0B000C00086FFFCCF8091C00080648093C000B8
:10F0C0008FEFE8168FEFF80680E0080780E018075A
:10F0D00031F484E092EE60E00F94C2F1DFC0D80119
:10F0E000C7018070907CA070B0708050904CA040A0
:10F0F000B040D1F52FEF3FE340E050E0E222F322B1
:10F1000004231523CA5DDE4FA880B980CA80DB8046
:10F11000C652D140AE0CBF1CC01ED11EAA0CBB1CD7
:10F12000CC1CDD1C8EE092EE60E00F94C2F1BB2798
:10F13000A12F902F8F2D0F940DF28E2D0F940DF285
:10F1400030E23093C6008091C00086FFFCCF8091F2
:10F15000C00080648093C0004EE34093C60080915D
:10F16000C00086FFFCCF87C08EE09EEFA0E0B0E03D
:10F17000E822F9220A231B239CE0E91694E9F90608
:10F1800090E0090790E0190709F088C0C45DDE4FE0
:10F19000A881CC52D140EA2EFF2400E010E0102FCD
:10F1A0000F2DFE2CEE24C55DDE4FB881CB52D14031
:10F1B000EB0EF11C011D111DD601C501817090706F
:10F1C000A070B070DC0199278827E80EF91E0A1F8D
:10F1D0001B1F20EF30E040E050E0A222B322C42207
:10F1E000D52241E1AA0CBB1CCC1CDD1C4A95D1F7F1
:10F1F000EA0CFB1C0C1D1D1D81E090E0A0E0B0E0BE
:10F20000282239224A225B2235E1220C331C441C7D
:10F21000551C3A95D1F7E20CF31C041D151D57013E
:10F220006801AA0CBB1CCC1CDD1C85E192EE60E0E1
:10F230000F94C2F1C801AA27BB270F940DF2BB2778
:10F24000A12F902F8F2D0F940DF28E2D0F940DF274
:10F2500090E29093C6008091C00086FFFCCF809121
:10F26000C00080648093C000AEE3A093C60080918C
:10F27000C00086FFFCCF8091C00080648093C000F6
:10F28000C601AA27BB270F940DF2BB27AD2D9C2DDD
:10F290008B2D0F940DF28A2D0F940DF20F94DCF14B
:10F2A000CC5DDE4FE881F981C452D140F99709F471
:10F2B0004DCBF4E0EF2EF12C012D112D6E0C7F1CA7
:10F2C000801E911EF2CD83E093EE62E00F94F5F183
:10F2D0008AE192EE60E00F94C2F18091C00087FF56
:10F2E000FCCF1091C6001F751093C6008091C0001E
:10F2F00086FFFCCF8091C00080648093C0000F9493
:10F30000DCF1812F81548A3108F036C1163409F4BA
:10F3100095C0173490F4133409F44EC0143430F40B
:10F320001134F1F0123409F01DC130C0143409F465
:10F3300059C0153409F016C16BC01A3409F4C4C0A1
:10F340001B3438F4173409F48FC0183409F00AC19B
:10F35000A1C01B3409F4D2C01C3409F003C1E8C0B9
:10F360008FEF81B90DC082B1809582B980E090E0C5
:10F37000E0EDF7E03197F1F70196883C9105C1F790
:10F380008091C00087FFEFCF12B8EFC08FEF84B934
:10F390000DC085B1809585B980E090E0E0EDF7E0A3
:10F3A0003197F1F70196883C9105C1F78091C00033
:10F3B00087FFEFCF15B8D9C08FEF87B90DC088B1DF
:10F3C000809588B980E090E0E0EDF7E03197F1F7C3
:10F3D0000196883C9105C1F78091C00087FFEFCF6F
:10F3E00018B8C3C08FEF8AB90DC08BB180958BB9A7
:10F3F00080E090E0E0EDF7E03197F1F70196883C8E
:10F400009105C1F78091C00087FFEFCF1BB8ADC059
:10F410008FEF8DB90DC08EB180958EB980E090E0F0
:10F42000E0EDF7E03197F1F70196883C9105C1F7DF
:10F430008091C00087FFEFCF1EB897C08FEF80BBD1
:10F440000DC081B3809581BB80E090E0E0EDF7E0F6
:10F450003197F1F70196883C9105C1F78091C00082
:10F4600087FFEFCF11BA81C08FEF83BB0DC084B38C
:10F47000809584BB80E090E0E0EDF7E03197F1F714
:10F480000196883C9105C1F78091C00087FFEFCFBE
:10F4900014BA6BC08FEF809301010FC080910201FD
:10F4A00080958093020180E090E0E0EDF7E03197F5
:10F4B000F1F70196883C9105C1F78091C00087FF64
:10F4C000EDCF1092020151C08FEF809304010FC065
:10F4D0008091050180958093050180E090E0E0ED4A
:10F4E000F7E03197F1F70196883C9105C1F78091DB
:10F4F000C00087FFEDCF1092050137C08FEF8093DA
:10F5000007010FC08091080180958093080180E079
:10F5100090E0E0EDF7E03197F1F70196883C910536
:10F52000C1F78091C00087FFEDCF109208011DC088
:10F530008FEF80930A010FC080910B01809580931B
:10F540000B0180E090E0E0EDF7E03197F1F70196F4
:10F55000883C9105C1F78091C00087FFEDCF1092E4
:10F560000B0103C085E292EEEEC98091C00087FFD7
:10F57000FCCF8091C600EAC988E392EEE4C98CE131
:10F5800091EEE1C988249924933011F1943028F444
:10F59000913089F09230B8F408C0953061F195301F
:10F5A000F0F0963009F048C043C02B3109F042C951
:10F5B00091E06BE13FC96227C15DDE4F2883CF52E6
:10F5C000D14092E037C9B22FA0E0622793E032C960
:10F5D000822F90E0A82BB92B622794E02BC92E3004
:10F5E00009F039C3622795E0C05DDE4F19821882A9
:10F5F000C053D1401FC9E1E0F0E0EC0FFD1FC05D3A
:10F60000DE4F08811981C053D140E00FF11F2083E4
:10F610000F5F1F4FC05DDE4F19830883C053D14079
:10F6200062270A171B0709F005C9D80196E002C92D
:10F63000261709F010C303C0973009F0FBC87724E0
:10F640009981933109F412C19431C8F4963009F4C8
:10F65000D8C0973050F4923009F406C1933009F4C1
:10F660006DC0913009F059C253C0913109F477C08F
:10F67000923108F0BBC0903109F04FC2F5C098310B
:10F6800009F487C0993150F4953109F4EFC09531F0
:10F6900008F4C6C1963109F040C2C2C19A3109F4DA
:10F6A0006CC09A3108F491C09B3109F45BC09D3164
:10F6B00009F033C29D81903359F48F81882311F46E
:10F6C0009EE11CC0813011F091E018C098E916C08D
:10F6D000892F807591F0903539F4E0E0F0E089E011
:10F6E0008093570094910AC0983539F4E3E0F0E034
:10F6F00089E080935700949101C090E01A821B82A8
:10F700008D818C831D829E831F8227E030E009C299
:10F710001A8288E08B8381E48C8386E58D8382E581
:10F720008E8389E48F8383E5888780E589878FE5E9
:10F730008A8782E38B872BE030E0F3C18A818139AD
:10F7400041F0823941F0803911F48FE005C080E04A
:10F7500003C082E001C08AE01A828B8344C0772410
:10F76000739482C08D81882311F48EE12CC0813086
:10F7700011F081E028C088E926C01A82E1E0F0E0BB
:10F7800089E08093570084918B831C8224E030E0D1
:10F79000C8C18B81803589F48C81883039F4E2E0EE
:10F7A000F0E089E08093570084910DC0E0E0F0E044
:10F7B00089E080935700849106C0E3E0F0E089E09F
:10F7C0008093570084911A82DFCF8D81836C99E0FA
:10F7D000E1E0F0E0082E90935700E89507B600FCB2
:10F7E000FDCF1A821B8223E030E09BC180EC8A832C
:10F7F000CE5CDE4F188219821A821B82C253D1401E
:10F800008EC18A8190E0A0E0B0E0582F44273327D2
:10F8100022278B8190E0A0E0B0E0DC0199278827C7
:10F82000282B392B4A2B5B2B8D8190E0A0E0B0E098
:10F83000282B392B4A2B5B2B8C8190E0A0E0B0E089
:10F84000BA2FA92F982F8827282B392B4A2B5B2BCF
:10F85000220F331F441F551FC05EDE4F288339839C
:10F860004A835B83C052D1401A8259C13A81C95C34
:10F87000DE4F3883C753D140CA5CDE4F1882C6536F
:10F88000D1408B81C82EDD24CA5CDE4F488159816E
:10F89000C653D140C42AD52A933109F082C0CE5C28
:10F8A000DE4F88819981AA81BB81C253D1408050AB
:10F8B000904CA340B04030F583E0CE5CDE4FE88052
:10F8C000F9800A811B81C253D140F70100935B008C
:10F8D00080935700E89507B600FCFDCFCE5CDE4F65
:10F8E000088119812A813B81C253D14000501F4FAA
:10F8F0002F4F3F4FCE5CDE4F088319832A833B8313
:10F90000C253D140C05EDE4F488159816A817B81FC
:10F91000C052D140DE011B9631E08C9111962C91A2
:10F9200011971296C75CDE4F2883C953D140C85C3B
:10F93000DE4F1882C853D14090E0C85CDE4FE881AA
:10F94000F981C853D1408E2B9F2B0C01FA01609393
:10F950005B0030935700E89511244E5F5F4F6F4F67
:10F960007F4F0EEFE02E0FEFF02ECE0CDF1CC114F8
:10F97000D10499F685E0C05EDE4F088119812A81A5
:10F980003B81C052D140F80120935B008093570027
:10F99000E89507B600FCFDCF81E180935700E8951C
:10F9A00035C0C05EDE4F88819981AA81BB81C0527B
:10F9B000D140B695A795979587957C018601ABE0D8
:10F9C000AA2EB12CAC0EBD1E0BC0D5016D915D01F0
:10F9D000C7010F947FFE0894E11CF11C01501040F8
:10F9E0000115110591F7A60160E070E0440F551F65
:10F9F000661F771FC05EDE4FE880F9800A811B8199
:10FA0000C052D1404E0D5F1D601F711F1A82C05E33
:10FA1000DE4F488359836A837B83C052D1407FC0C5
:10FA2000FA80C55CDE4FF882CB53D140C65CDE4F16
:10FA30001882CA53D1408B81C82EDD24C65CDE4FAC
:10FA400008811981CA53D140C02AD12A1A828981DA
:10FA5000BE016D5F7F4F843121F59601C05EDE4FA0
:10FA6000E880F9800A811B81C052D1400BBFF701A9
:10FA700087919691DB018C9311969C936E5F7F4FDB
:10FA8000D801C7010296A11DB11DC05EDE4F88835B
:10FA90009983AA83BB83C052D14022503040F1F6F3
:10FAA00036C0C05EDE4F288139814A815B81C052F9
:10FAB000D1400894C108D108760100E010E0089414
:10FAC000C11CD11C0894E11CF11C011D111DE20E8A
:10FAD000F31E041F151F21BDBB27A52F942F832FB5
:10FAE00082BD2F5F3F4F4F4F5F4FF89A80B5DB01CC
:10FAF0008D93BD012E153F054007510761F7C05E8C
:10FB0000DE4F288339834A835B83C052D1409601FC
:10FB10002D5F3F4FFB01108204C080EC8A8322E0FE
:10FB200030E08BE18093C6008091C00086FFFCCF5F
:10FB30008091C00080648093C000C15DDE4FF88179
:10FB4000CF52D140F093C6008091C00086FFFCCF19
:10FB50008091C00080648093C000432F3093C60022
:10FB60008091C00086FFFCCF8091C00080648093AC
:10FB7000C000922F2093C6008091C00086FFFCCF6A
:10FB80008091C00080648093C0008EE08093C600A6
:10FB90008091C00086FFFCCF8091C000806480937C
:10FBA000C00065E1C15DDE4FE880CF52D1406E25D7
:10FBB00069276427FE01319610C090819093C6009A
:10FBC0008091C00086FFFCCF31968091C000806498
:10FBD0008093C0006927215030402115310569F715
:10FBE0006093C6008091C00086FFFCCF8091C0006A
:10FBF00080648093C00085B1805885B9772081F4F6
:10FC0000C15DDE4F0881CF52D1400F5FC15DDE4F35
:10FC10000883CF52D14090E0A0E0B0E00D941AF4F8
:10FC200027982F9880E090E020ED37E0F901319798
:10FC3000F1F7019684369105C9F700008091C00064
:10FC40008D7F8093C00081E180935700E895EE2777
:10FC5000FF270994FFCF90E00D941AF497FB092E2B
:10FC600007260AD077FD04D02ED006D000201AF443
:10FC7000709561957F4F0895F6F7909581959F4F08
:10FC80000895A1E21A2EAA1BBB1BFD010DC0AA1FDD
:10FC9000BB1FEE1FFF1FA217B307E407F50720F0F5
:10FCA000A21BB30BE40BF50B661F771F881F991F70
:10FCB0001A9469F760957095809590959B01AC01B9
:10FCC000BD01CF010895AA1BBB1B51E107C0AA1FAC
:10FCD000BB1FA617B70710F0A61BB70B881F991FED
:10FCE0005A95A9F780959095BC01CD010895F99991
:10FCF000FECF92BD81BDF89A992780B50895262F31
:10FD0000F999FECF1FBA92BD81BD20BD0FB6F89400
:0EFD1000FA9AF99A0FBE01960895F894FFCF63
:040000033000E000E9
:00000001FF
