:10000000EAC6000019C7000017C7000015C70000A6
:1000100013C7000011C700000FC700000DC7000084
:100020000BC7000009C7000007C7000005C7000094
:1000300003C7000001C70000FFC60000FDC60000A6
:10004000FBC60000F9C60000F7C60000F5C60000B8
:10005000F3C60000F1C60000EFC600000C941B1AA6
:10006000EBC600000C94E5190C94BB19E5C6000022
:10007000E3C60000E1C60000DFC60000DDC60000E8
:10008000DBC60000D9C60000D7C60000D5C60000F8
:10009000D3C60000D1C60000CFC60000CDC6000008
:1000A000CBC60000C9C60000C7C60000C5C6000018
:1000B000C3C60000C1C60000BFC60000BDC6000028
:1000C000BBC60000B9C60000B7C60000B5C6000038
:1000D000B3C60000B1C60000AFC60000ADC6000048
:1000E000ABC60000556E7265636F676E697A6564B2
:1000F00020636F6D6D616E64004552524F52202D2A
:1001000020436F6D6D616E64206275666665722056
:100110006F766572666C6F77210020616E642000D7
:10012000496E76616C69643A2072616E6765206918
:1001300073206265747765656E20002000536574D6
:1001400020646576696365207072696D61727920DB
:100150006164647265737320746F3A20005468613F
:1001600074206973206D79206164647265737321F2
:100170002041646472657373206F6620612072652C
:100180006D6F74652064657669636520697320729C
:10019000657175697265642E00496E76616C69647B
:1001A0003A2076616C69642074696D6F7574207291
:1001B000616E67652069732031202D203332303025
:1001C00030206D732E00206D696C6C697365636FF0
:1001D0006E647300536574205B726561645F746D57
:1001E0006F5F6D735D20746F3A2000496E76616CAD
:1001F00069643A20657870656374656420454F537F
:100200002076616C7565206F662030202D203300CC
:1002100053657420454F5320746F3A2000496E7621
:10022000616C69643A206578706563746564204523
:100230004F492076616C7565206F662030206F72A3
:1002400020310053657420454F49206173736572F6
:1002500074696F6E3A2000496E74657266616365F9
:10026000206D6F64652073657420746F3A200049B7
:100270006E76616C69643A206D6F6465206D75738C
:10028000742062652030206F72203100496E7661E3
:100290006C69643A20657870656374656420454FC5
:1002A000542076616C7565206F662030206F722057
:1002B0003100417070656E64696E67206F6620451D
:1002C0004F54206368617261637465723A2000491B
:1002D0006E76616C69643A206578706563746564F4
:1002E00020454F54206368617261637465722041D8
:1002F000534349492076616C756520696E207468A6
:10030000652072616E67652030202D203235350002
:10031000454F542073657420746F204153434949FD
:10032000206368617261637465723A20004175747C
:100330006F206D6F64653A2000202020202020204F
:1003400020202761646472657373656420746F2074
:1003500074616C6B20627574206E6F7468696E676F
:1003600020746F2073617927206572726F72730039
:100370005741524E494E473A206175746F6D6F6414
:1003800065204F4E2063616E206361757365207335
:100390006F6D65206465766963657320746F20678F
:1003A000656E6572617465004175746F6D6F64652B
:1003B0003A2076616C69642072616E6765206973AA
:1003C000205B302D64697361626C657C312D5072E5
:1003D0006F6C6F6769787C322D6F6E2D71756572E9
:1003E000797C332D636F6E74696E756F75735D2ED6
:1003F000004152343838204750494220636F6E74B0
:10040000726F6C6C65722C207665722E20302E34E3
:10041000382E32312C2030362F30342F32303230DB
:10042000004152343838204750494220636F6E747F
:10043000726F6C6C65722C207665722E20302E34B3
:10044000382E32312C2030362F30342F32303230AB
:1004500000496E76616C6964207465726D696E61C5
:1004600074696F6E20636861726163746572202DB8
:100470002069676E6F72656421004661696C65640E
:1004800020746F20756E74616C6B20475049422058
:10049000627573004661696C656420746F207365D2
:1004A0006E6420534443004661696C656420746F38
:1004B00020616464726573732064657669636500A6
:1004C0004661696C656420746F20756E6C69737425
:1004D000656E20746865204750494220627573003C
:1004E0004661696C656420746F2073656E64204C8E
:1004F0004C4F20746F2064657669636500466169BE
:100500006C656420746F2061646472657373207419
:100510006865206465766963652E004661696C656F
:100520006420746F2073656E6420756E69766572E1
:1005300073616C204C4C4F2E004661696C656420E1
:10054000746F20756E6C697374656E2047504942F4
:10055000206275732E004661696C65642073656E58
:1005600064696E67204C4F432E004661696C656478
:1005700020746F20616464726573732064657669AA
:1005800063652E00494643207369676E616C206184
:100590007373657274656420666F72203135302024
:1005A0006D6963726F7365636F6E64730047726F1A
:1005B0007570207472696767657220636F6D706C07
:1005C000657465642E004661696C656420746F20F3
:1005D000756E6C697374656E204750494220627570
:1005E00073004661696C656420746F20747269677A
:1005F00067657220646576696365004661696C654C
:100600006420746F2061646472657373206465761E
:1006100069636500496E76616C69643A20475049A8
:1006200042207072696D61727920616464726573D1
:100630007320697320696E207468652072616E672B
:10064000652031202D2033300052657365742046BB
:1006500041494C45442E0053657269616C20706FAE
:100660006C6C20636F6D706C657465642E00466100
:10067000696C656420746F20726574726965766553
:10068000207374617475732062797465005D2066EF
:10069000726F6D20646576696365206174206164A2
:1006A00064726573733A20005265636569766564A8
:1006B000207374617475732062797465205B002CFB
:1006C000005352513A00496E76616C696420706142
:1006D00072616D6574657200496E76616C69643A29
:1006E00020475049422061646472657373657320CA
:1006F00061726520696E207468652072616E67653D
:1007000020312D33300053657269616C20706F6C3D
:100710006C206F6620616C6C20646576696365731C
:10072000207265717565737465642E2E2E005352A8
:100730005120756E2D61737365727465642E00535C
:1007400052512061737365727465642E00496E7630
:10075000616C69643A2065787065637465642062D1
:100760007974652076616C756520696E20746865A2
:100770002072616E67652030202D203235350053A0
:10078000657474696E67732073617665642E0053B7
:10079000657474696E67732073617665642E004CAE
:1007A0004F4E3A2076616C69642072616E676520F5
:1007B0006973205B302D64697361626C657C312DD7
:1007C000656E61626C655D2E004C4F4E3A200053A1
:1007D000656E64696E672044434C206661696C6590
:1007E0006400496E76616C69643A2065787065636F
:1007F00074656420454F522076616C7565206F6684
:100800002030202D20370053657420454F5220742E
:100810006F3A2000506172616C6C656C20706F6C77
:100820006C20636F6D706C657465642E0052454E6C
:100830003A2000496E76616C69643A20657870658B
:100840006374656420303D756E2D617373657274D9
:100850002C20313D617373657274004368616E676B
:1008600065642076657273696F6E20737472696E49
:100870006720746F3A2000544F4E3A2076616C69BD
:10088000642072616E6765206973205B302D646936
:100890007361626C657C312D656E61626C655D2E85
:1008A00000544F4E3A2000496E76616C69643A20DC
:1008B000657870656374656420303D646973616256
:1008C0006C65206F7220313D656E61626C65004D14
:1008D000697373696E6720706172616D65746572AA
:1008E00073004D697373696E6720706172616D6525
:1008F0007465720044697361626C656400496E7668
:10090000616C69643A20303D646174612062757382
:100910003B20313D636F6E74726F6C2062757300A3
:10092000496E76616C69643A2065787065637465B8
:100930006420454F5420636861726163746572205E
:1009400041534349492076616C756520696E207476
:1009500068652072616E67652030202D2033302C51
:1009600030303000544D6275732073657420746F9D
:100970003A200020746F20646576696365006770B3
:10098000696253656E64436D643A206661696C65A3
:100990006420746F2073656E6420636F6D6D616E8B
:1009A0006420006770696253656E64446174613AE3
:1009B000204661696C656420746F20756E74616C8B
:1009C0006B206275730054696D656F757420776173
:1009D0006974696E6720666F72207472616E7366E7
:1009E000657220746F20636F6D706C657465210093
:1009F00054696D656F75742077616974696E6720DD
:100A0000666F722073656E6465722100454F4920E0
:100A1000646574656374656421004279746573204C
:100A2000726561643A200020746F2074616C6B0001
:100A30004661696C656420746F20616464726573DB
:100A40007320746865206465766963650067706902
:100A50006252656164427974653A2074696D656FAC
:100A600075742077616974696E67204441562074FB
:100A70006F20676F20484947480067706962526578
:100A80006164427974653A2074696D656F7574208C
:100A900077616974696E6720666F722044415620E1
:100AA000746F20676F204C4F5700677069625772F0
:100AB000697465427974653A2074696D656F7574FF
:100AC0002077616974696E6720666F722064617453
:100AD00061206163636570746564205B4E444143CB
:100AE00020756E61737365727465645D006770690B
:100AF000625772697465427974653A2074696D65EC
:100B00006F757420726563656976696E67202D2044
:100B10005B4E5246442061737365727465645D0078
:100B2000677069625772697465427974653A2074B6
:100B3000696D656F75742077616974696E67206689
:100B40006F72207265636569766572207265616493
:100B500079202D205B4E52464420756E617373657B
:100B6000727465645D00677069625772697465428A
:100B70007974653A2074696D656F75742077616961
:100B800074696E6720666F72207265636569766549
:100B90007220617474656E74696F6E205B4E44419F
:100BA000432061737365727465645D006770696288
:100BB00053656E64446174613A204661696C656492
:100BC00020746F20756E6C697374656E2062757326
:100BD0000020746F206C697374656E0067706962C1
:100BE00053656E64446174613A206661696C656442
:100BF00020746F2061646472657373206465766924
:100C000063652000000020002300260029002C003E
:100C10002F0032000001000003010601090100005D
:100C20000A0B02090C0D0E08070304010000000066
:100C300000000000000000000000000000000000B4
:100C40000000000000000000000012111000000071
:100C50000000000000000000000000000000000094
:100C60000000000000002200250028002B002E00BC
:100C70003100340002010000050108010B010000F1
:100C80002100240027002A002D003000330001013C
:100C90000000040107010A0105050505070508080C
:100CA0000808020202020A0A0808040404040101F6
:100CB000010101010101030303030303030304070B
:100CC00007070C0C0C0C0C0C0C0C020202020606A2
:100CD0000606060606060B0B0B0B0B0B0B0B010295
:100CE000102020080810204010204080020102013E
:100CF00008040201010204081020408080402010F6
:100D0000080402018004020180402010080402014E
:100D100008040201010204081020408001020408B6
:100D200010204080436F6D6D616E64206E6F742083
:100D3000617661696C61626C6520696E20746869B6
:100D400073206D6F64652E0053656E64696E672055
:100D500073746174757320627974653A200053521C
:100D6000512062697420636C656172656420286932
:100D70006620736574292E00537461747573207333
:100D8000656E742E0053657269616C20706F6C6CB7
:100D90002072657175657374207265636569766527
:100DA000642066726F6D20636F6E74726F6C6C6519
:100DB00072202D3E003C2D2073657269616C20709D
:100DC0006F6C6C207265717565737420656E6465F7
:100DD000642E0000311D11241FBECFEFD1E2DEBF13
:100DE000CDBF00E00CBF25E0A0E3B4E001C01D9240
:100DF000AA3AB207E1F714E0A0E0B2E0E6E6FCE3CD
:100E000000E00BBF02C007900D92A033B107D9F7E5
:100E100016E0CBEED6E000E006C021970109802F56
:100E2000FE010E94E51DCA3ED10780E00807A9F730
:100E30000E94651A0C94311EE3C88230910538F087
:100E4000880F991F880F991F05970197F1F708954B
:100E5000DC01ED91FC910190F081E02D1994EF926D
:100E6000FF920F931F93CF93DF938C017B01D0E010
:100E7000C0E0F701EC0FFD1F6491662361F0D8011B
:100E8000ED91FC910190F081E02DC8011995892B1D
:100E900011F02196EECFCE01DF91CF911F910F91EE
:100EA000FF90EF900895AF92BF92CF92DF92EF92B2
:100EB000FF920F931F93CF93DF936C017B018B0104
:100EC000040F151FEB015E01AE18BF08C017D10754
:100ED00059F06991D601ED91FC910190F081E02DDE
:100EE000C6011995892B79F7C501DF91CF911F9123
:100EF0000F91FF90EF90DF90CF90BF90AF9008954B
:100F0000FC01538D448D252F30E0842F90E0821B0F
:100F1000930B541710F0CF96089501970895FC0194
:100F2000918D828D981761F0A28DAE0FBF2FB11DEC
:100F30005D968C91928D9F5F9F73928F90E0089544
:100F40008FEF9FEF0895FC01918D828D981731F0FE
:100F5000828DE80FF11D858D90E008958FEF9FEF52
:100F60000895FC01918D228D892F90E0805C9F4F28
:100F7000821B91098F73992708958EE394E0F1DF26
:100F800021E0892B09F420E0822F0895FC01A48D33
:100F9000A80FB92FB11DA35ABF4F2C91848D90E09B
:100FA00001968F739927848FA689B7892C93A0897E
:100FB000B1898C91837080648C93938D848D981308
:100FC00006C00288F389E02D80818F7D808308959B
:100FD000EF92FF920F931F93CF93DF93EC0181E089
:100FE000888F9B8D8C8D98131AC0E889F989808130
:100FF00085FF15C09FB7F894EE89FF896083E88963
:10100000F98980818370806480839FBF81E090E054
:10101000DF91CF911F910F91FF90EF900895F62EE1
:101020000B8D10E00F5F1F4F0F731127E02E8C8D7B
:101030008E110BC00FB607FCFACFE889F9898081C1
:1010400085FFF5CFCE01A2DFF2CFEB8DEC0FFD2FA8
:10105000F11DE35AFF4FF0829FB7F8940B8FEA8996
:10106000FB8980818062D0CFCF93DF93EC01888DA4
:101070008823B1F0AA89BB89E889F9898C9185FD1B
:1010800003C0808186FD0CC00FB607FCF7CF8C91A2
:1010900085FFF2CF808185FFEDCFCE0177DFEACFEC
:1010A000DF91CF9108958150823108F05AC0E82F26
:1010B000F0E08827E15AF74F8F4F0C94E51D7F0829
:1010C0008308710877087B08B10886088C089008A7
:1010D00096089A089E08A408A808B108AC08B208A7
:1010E000B608809180008F7780938000089580916A
:1010F00080008F7DF9CF80918000877FF5CF84B508
:101100008F7784BD089584B58F7DFBCF8091B0002B
:101110008F778093B00008958091B0008F7DF9CFD4
:10112000809190008F778093900008958091900037
:101130008F7DF9CF80919000877FF5CF8091A000BF
:101140008F778093A00008958091A0008F7DF9CFC4
:101150008091A000877FF5CF809120018F778093C9
:1011600020010895809120018F7DF9CF8091200189
:10117000877FF5CFCF93DF93282F30E0F901E25E30
:10118000F34F8491F901E252F34FD491F901E856FB
:10119000F34FC491CC2399F0811185DFEC2FF0E05F
:1011A000EE0FFF1FEC5FF34FA591B491EC91ED238F
:1011B00081E090E009F480E0DF91CF91089580E034
:1011C00090E0FACF1F93CF93DF93282F30E0F901FF
:1011D000E25EF34F8491F901E252F34FD491F901A9
:1011E000E856F34FC491CC23A1F0162F81115BDF99
:1011F000EC2FF0E0EE0FFF1FEC59F34FA591B491E7
:101200008FB7F894EC91111108C0D095DE23DC93D0
:101210008FBFDF91CF911F910895DE2BF8CF3FB79D
:10122000F89480913A0490913B04A0913C04B091D1
:101230003D0426B5A89B05C02F3F19F00196A11DBE
:10124000B11D3FBFBA2FA92F982F8827BC01CD0110
:10125000620F711D811D911D42E0660F771F881F6F
:10126000991F4A95D1F708958F929F92AF92BF929E
:10127000CF92DF92EF92FF926B017C01D0DF4B01A6
:101280005C01C114D104E104F104B1F0C8DF6819B4
:1012900079098A099B09683E73408105910588F3A5
:1012A00021E0C21AD108E108F10888EE880E83E037
:1012B000981EA11CB11CE5CFFF90EF90DF90CF905E
:1012C000BF90AF909F908F900895EF92FF920F93F1
:1012D0001F93CF93DF93C82FD0E0E62FF0E08F016C
:1012E00096E0159507959A95E1F723E0000F111FF9
:1012F0002A95E1F70870661F6627661F660F600F64
:101300007F0135E0F594E7943A95E1F7F694FE2CE9
:10131000EE24F794E7949F0174E0359527957A952C
:10132000E1F7220F331F722F72709F0135952795B9
:1013300013E0220F331F1A95E1F72870DF01AA0F7F
:10134000BB1FA2702A2BDF01B595A795B595A79570
:1013500035E0AA0FBB1F3A95E1F7A07253E0F5956F
:10136000E7955A95E1F7F695FE2FEE27F795E79565
:10137000EA0FE20F562F50958E0196E015950795CE
:101380009A95E1F723E0000F111F2A95E1F7087005
:10139000881F8827881F880F080F06231E2D109589
:1013A0009E0165E0359527956A95E1F73695322FD0
:1013B000222737952795E222F72EF0949E01A4E08C
:1013C00035952795AA95E1F7220F331F7223FE2F3B
:1013D000F095DE01B595A79593E0AA0FBB1F9A95EE
:1013E000E1F7A8709E01220F331F2270A22BCE01BD
:1013F000959587959595879525E0880F991F2A954E
:10140000E1F780729E0163E0359527956A95E1F7D3
:101410003695322F222737952795280F2A0F2E230E
:101420004130C9F085B15823052B05B98BB118237C
:10143000E12AEBB894B39F21972B94BBE0910B0169
:10144000EF232E2B20930B01DF91CF911F910F9152
:10145000FF90EF90089584B15823052B04B98AB109
:101460001823E12AEAB893B39F21972B93BBE0910D
:101470000A01EF232E2B20930A01E6CF91B1956547
:1014800091B997B19A6A97B98095282F30E0881F53
:101490008827881F982F9295990F990F907C24FB8D
:1014A000882780F9892BA9015695542F44275795F1
:1014B0004795842BA90163E0559547956A95E1F717
:1014C000440F551F4270842BA9015595479555959A
:1014D0004795F3E0440F551FFA95E1F74870842BC8
:1014E000A90155954795B5E0440F551FBA95E1F709
:1014F0004072842BA90196E0559547959A95E1F79E
:1015000064E0440F551F6A95E1F74071842B75E044
:10151000359527957A95E1F7220F331F220F331F58
:101520002470822B92B19A7A282F2575922B92B92A
:1015300098B195758A7A892B88B9089590B186B14A
:1015400095758A7A982B9095292F30E0A9015595A9
:10155000479563E0440F551F6A95E1F74870B9015C
:10156000E3E075956795EA95E1F7660F771F660FDB
:10157000771F862F8470842BA901A5E05595479588
:10158000AA95E1F7440F551F4270842BB90146E03C
:10159000759567954A95E1F77695762F6627779545
:1015A0006795A90174E0440F551F7A95E1F74071E2
:1015B000462BB901E4E075956795EA95E1F7F6E009
:1015C000660F771FFA95E1F76074462B35952795DE
:1015D00035952795B5E0220F331FBA95E1F72072B4
:1015E000242B991F9927991F892B822B08958250AC
:1015F000883088F4E82FF0E041E08827ED5FF44F71
:101600008F4F0C94E51D130B190B2C0B250B2F0B77
:10161000360B3C0B430B41E06FEF88EB56DE40E0AE
:101620006FEF8FED0CC06EE988EB4FDE40E06EE9A6
:10163000F8CF6FE989EB49DE40E06FE98FE545DEE1
:1016400080911D0590911E05F8CB6EE986EA3DDE7E
:1016500040E06EE988EDF3CF6EE989EBE6CF6FEFFE
:1016600080E033DE40E06FEF8FEFE9CF6EE080E0A7
:101670002CDE40E06EE0F8CF6EE086E026DE40E053
:101680006EE089EFDCCF6EE088E0F8CFBF92CF92BA
:10169000DF92EF92FF920F931F93CF93DF93C82FA8
:1016A000B62E2FB7F8948091360490913704A0910C
:1016B0003804B09139042FBF6A01550FEE08FF08B6
:1016C000C80ED91EEA1EFB1E84E354DD8C01D0E057
:1016D0008B2D50DD8C179D0719F12FB7F894809151
:1016E000360490913704A0913804B09139042FBF8B
:1016F0008C159D05AE05BF0558F081E0DF91CF91B7
:101700001F910F91FF90EF90DF90CF90BF900895C1
:1017100001151105E9F684E32DDD0197C9F6EDCF3A
:1017200080E0ECCF41E060E480E0CFDD40E060E4C9
:1017300080E4CBCD90912005E92FF0E0EC5DFA4FED
:1017400080839F5F909320050895E0EEF4E080E4AD
:10175000DF011D928A95E9F78CEC808382E0838318
:1017600081E0858380EB94E0938782870895EDCFB5
:10177000E4E2F5E080E8DF011D928A95E9F7109236
:1017800020050895FB0101900020E9F73197AF0192
:10179000461B570BDC01ED91FC910280F381E02D9B
:1017A00019948F929F92AF92BF92EF92FF920F93F4
:1017B0001F93CF93DF93CDB7DEB7A1970FB6F89401
:1017C000DEBF0FBECDBF7C01FA01CB0119A22230D2
:1017D00008F42AE08E010F5D1F4F822E912CB12C50
:1017E000A12CBF01A50194010E94C31DF901CA01EA
:1017F0006A3004F5605DD8016E938D01232B242B94
:10180000252B79F790E080E0109719F0BD01C70112
:10181000B9DFA1960FB6F894DEBF0FBECDBFDF9142
:10182000CF911F910F91FF90EF90BF90AF909F903D
:101830008F900895695CDFCFCF92DF92EF92FF9295
:101840000F931F93CF93DF936B01770FEE08FF0881
:10185000F7FE19C0EC016DE2FBDA8C014427552735
:10186000BA014C195D096E097F092AE0CE0199DFA2
:10187000800F911FDF91CF911F910F91FF90EF90FB
:10188000DF90CF9008952AE0B701A601DF91CF91B4
:101890001F910F91FF90EF90DF90CF9082CF65EE78
:1018A00072E070CFCF92DF92EF92FF920F931F936F
:1018B000CF93DF938C016B01770FEE08FF08F7FEE3
:1018C0001CC06DE2C5DAEC0144275527BA014C195A
:1018D0005D096E097F092AE0C80163DFC80FD91FBF
:1018E000C801DDDF8C0F9D1FDF91CF911F910F91FC
:1018F000FF90EF90DF90CF9008952AE0B701A60106
:1019000050DFEC01EDCF82E335DC61E070E0892B44
:1019100011F070E060E08EE394E0C4CF0F931F936A
:10192000CF93DF93EC01AB0170E060E02AE039DF98
:101930008C01CE01B4DF800F911FDF91CF911F91F9
:101940000F9108950F931F93CF93DF93EC01462FD0
:1019500050E070E060E02AE024DF8C01CE019FDFE0
:10196000800F911FDF91CF911F910F9108950F93D9
:101970001F93CF93DF938C01D0E0C0E06115710518
:1019800011F000DFEC01C8018ADF8C0F9D1FDF9191
:10199000CF911F910F9108950F931F93CF93DF93D2
:1019A000EC015DDA8C01CE017ADF800F911FDF91AF
:1019B000CF911F910F910895CF93C82F4091EA04C2
:1019C0005091EB046EE280E061DE882371F0C091FB
:1019D000A505C11104C0C1E08C2FCF91089566E622
:1019E0007BE08EE394E0D8DFF7CF4091EA0450919A
:1019F000EB046CE281E04ADE882339F0C091A50552
:101A000060E27BE0CC2339F3ECCF8C2F37DD40E074
:101A100068E080E05ADC4091EA045091EB046CE20B
:101A200080E034DE882339F0C091A5056DEE7AE0C0
:101A3000CC2389F2D6CF4091EA045091EB046EE2B8
:101A400081E024DEC82F882341F0C091A505CC2376
:101A500009F4C1CF6AEA7AE0C4CF40E068E088E0E8
:101A600034DC80E00BDD80911D0590911E05E5D9E9
:101A7000B3CF0F931F93CF93DF93EC0184E37ADB13
:101A80008C0140E064E084E020DC012B71F484E30D
:101A900071DB019751F440E064E080E016DC83E004
:101AA000DF91CF911F910F9108954091EA045091D9
:101AB000EB046AE280E0EADD882379F08091A505F5
:101AC000882329F06AE77AE08EE394E065DF40E05E
:101AD00064E080E0FADB81E0E3CF40E064E080E0B6
:101AE000F4DB8091DC04882339F088E243DB892B26
:101AF00019F485E08093DB0421DD888340E062E017
:101B000082E0E3DB4091EA045091EB046AE281E079
:101B1000BDDD882359F08091A505882329F06DE467
:101B20007AE08EE394E038DF82E0BACF40E062E012
:101B300080E0CBDB80911D0590911E057ED980E071
:101B4000AFCFCF93DF93C82F83E051DD8C2F34DFED
:101B5000D82F8823B1F08091A505882391F06EE7F6
:101B600079E08EE394E07BD94C2F50E070E060E0A8
:101B700020E18EE394E015DE63E779E08EE394E004
:101B80000BDF8D2FDF91CF91089583E790E00197D0
:101B9000F1F78FE3D6DF811102C08FE5D2CF089530
:101BA000CF93DF93C82FD62F8FE3CBDF811116C0E1
:101BB000DD2359F080E48C0FC4DF81110FC08091C8
:101BC000E404805EDF91CF91BCCF80E28C0FB9DF5F
:101BD000811104C08091E404805CF4CF81E0DF9146
:101BE000CF910895EF92FF920F931F93CF93DF93BE
:101BF0007C01062F8091E304823009F03BC0809184
:101C00000002882321F160E08091E504C9DF882388
:101C1000F1F08091A505882309F46DC06CED7BE09F
:101C20008EE394E01CD94091E50450E070E060E060
:101C30002AE08EE394E0B5DD61ED7BE08EE394E095
:101C4000DF91CF911F910F91FF90EF90A5CE8091E2
:101C5000A60591E089278093000284E0C8DCE701B3
:101C600010E0CE018E199F09801791072CF48991FD
:101C7000A3DEF7CF89E0F2CF8091E70481FD02C0B7
:101C80008DE09ADE8091E70480FD02C08AE094DE58
:101C90008091E204882379F08091A60581110BC020
:101CA00040E060E112DB8BE990E00197F1F740E062
:101CB00060E180E10ADB8091E3048230C1F480912D
:101CC0000002882361F061DF882349F08091A50537
:101CD000882329F06CEA7BE08EE394E05DDE82E00D
:101CE000DF91CF911F910F91FF90EF9080CC8130C9
:101CF00011F487E0F5CFDF91CF911F910F91FF9005
:101D0000EF90089525E0FC0111922A95E9F764EF20
:101D100078E08EE394E040CECF93DF9382E067DCFF
:101D2000CBE4D0E0CE010197F1F740E060E980E03C
:101D3000CCDA2197F1F702DCC82F82E058DC6C2F57
:101D40008EE394E0FFDD8091A505882339F064E1FE
:101D500078E08EE394E0DF91CF911ECEDF91CF91BA
:101D6000089584E1EEDE882349F08091A50588235B
:101D700039F06FEC77E08EE394E00ECE82E037CC62
:101D800008952FB7F8948091360490913704A0916C
:101D90003804B09139042FBF8053984FAF4FBF4FD5
:101DA00028E13EE00FB6F894A895209360000FBE9E
:101DB000309360002FB7F894409136045091370467
:101DC00060913804709139042FBF481759076A078A
:101DD0007B0780F38091A505882329F069E476E0EC
:101DE0008EE394E0D9CD08958091E3048823A9F08F
:101DF00040E061E080E069DA83E592E00197F1F785
:101E000040E061E081E061DA8091A505882329F056
:101E100064E875E08EE394E0BFCD089560E08091C2
:101E2000E504BEDE882339F08091A50567EA74E0F9
:101E300081110BC0089584E084DE882349F08091ED
:101E4000A5058823B9F364E974E08EE394E0A4CD9A
:101E50009CDE882339F08091A5056AE774E0882329
:101E600049F3F3CF82E0C3CB64EE70E08EE394E0FD
:101E700093CD8091A50591E089278093A50568EE13
:101E800072E08EE394E07EDC8091A5056DE073E066
:101E9000882311F061E073E08EE394E068CD8EE377
:101EA00094E0FDDC62EF72E08EE394E06BCCE82F0F
:101EB000F0E0ED5DFA4F90819F3319F491E090933B
:101EC000A70590912305911104C0682F84E295E045
:101ED00089DE8091A60581111092A6058091A50545
:101EE0008111DDDF45DC1092A4050895CF93DF93C7
:101EF000D82FC0912005C7FD6EC08D3049F164F424
:101F00008A3031F18091A505882331F16D2F8EE360
:101F100094E00E94280720C08B3109F452C08B3214
:101F200089F780913204882339F010923204C2304C
:101F300018F481E0809331048BE2FCDB8091A505ED
:101F4000882371F06BE28EE394E00E94280708C0BA
:101F500080913204882331F08D2FECDB1092320413
:101F6000C0E01CC0C11109C003DC8091A50581112E
:101F700096DF8C2FDF91CF910895C33060F0809170
:101F800024058B3241F4809125058B3221F4809118
:101F90003104C1E08111C2E010923104809120052A
:101FA00087FFE7CF809124058B3231F4809125059E
:101FB0008B3211F4CC2389F081E08093A605C2E036
:101FC000D8CF80913204882311F08BE1C6CF81E015
:101FD00080933204C5CFC0E0E5CF8091A50588236A
:101FE00029F069EF70E08EE394E0D6DCC1DBC1CF6D
:101FF0008EE394E00E948F0779DF8093A405089513
:102000000E94BD078111F4DF80E090E0892B49F048
:1020100080E090E0892B29F00E94000081110E944D
:10202000000080E090E0892B49F080E090E0892B6F
:1020300029F00E94000081110E94000080E090E0E1
:10204000892B49F080E090E0892B29F00E94000064
:1020500081110C9400000895AF92BF92CF92DF924D
:10206000EF92FF920F931F93CF93DF9300D0CDB7E2
:10207000DEB719821A821B8280911F05082F077014
:102080001092DB04D090DC04873019F481E0809357
:10209000DC048091E304823009F0E3C061E08091C8
:1020A000E5047EDD8823C1F08091A5058823A1F099
:1020B00060E37AE08EE394E00E942F074091E5040C
:1020C00050E070E060E02AE08EE394E06ADB67E2D3
:1020D0007AE08EE394E060DC4091EA045091EB04F6
:1020E0006CE281E0D3DA85E082DA81B18A7A81B963
:1020F00087B1857587B982B1856582B988B18A6AE9
:1021000088B9F12CE12C87E0C82EA02EB12C1091BB
:10211000DB041111EEC084E32DD80197A9F5CE019F
:102120000196A7DC182F81112FC08091E90483301C
:1021300089F48EE394E00E94B107892B59F08EE375
:1021400094E00E948F07D2DE8093A405813011F4C1
:10215000C092DB048091DB048730B1F084E30AD8BD
:10216000892B91F069818EE394E00E9428078FEF1C
:10217000E81AF80A8091DC04882309F478C0809179
:10218000DB04853009F07DC08091A505882351F0DE
:102190006AE17AE08EE394E00E942F07B7018EE3B4
:1021A00094E080DB8091DB04853099F48091A50573
:1021B000882329F06CE07AE08EE394E0EDDB8091F7
:1021C000E104882331F06091EC048EE394E00E94F6
:1021D0002807D092DC041123B1F08091A505882353
:1021E00039F0113029F460EF79E08EE394E0D4DB2C
:1021F0008091A505882339F0123029F466EC79E046
:102200008EE394E0C9DB8091E304823009F073C06F
:10221000BCDC882351F08091A505882331F063EA66
:1022200079E08EE394E00E942F078091E3048230EE
:1022300009F4DDD98091DB0481111092DB0481E087
:10224000111101C080E00F900F900F90DF91CF919E
:102250001F910F91FF90EF90DF90CF90BF90AF90C4
:10226000089588E0C4D981E08093DC043ECF998151
:1022700080913404882351F080913304891709F444
:1022800083CF8A818B8389818A8341CF073068F528
:10229000F5018827E15BFE4E8F4F0C94E51D56112A
:1022A0005D1160114111631169116C119A3049F788
:1022B0008A818D3031F7102F67CF9D3011F764CFB1
:1022C0009A30F9F661CF9D30E1F68A818A30C9F6FD
:1022D0005BCF9330B1F658CF933099F68A818A302C
:1022E00081F68B818D3069F64FCF9A3051F68A8115
:1022F000F9CF10E049CF87E09CCFCF93DF930097D1
:1023000039F10E945E1DEC01C13385E7D80760F00A
:10231000ABDD8091A505882321F160E279E08EE3B1
:1023200094E0DF91CF9138CBD0931E05C0931D056B
:102330008091A5058823A9F064E679E08EE394E016
:102340000E942F07BE018EE394E0DF91CF91AACACD
:1023500060911D0570911E058EE394E0DF91CF9191
:10236000DDCADF91CF910895CF93DF9365EF72E0DF
:102370000E947B1D0097A9F0FC0101900020E9F765
:102380003197E81BF90B349760F40E945E1DC82F4B
:10239000833040F06DEF78E08EE394E0DF91CF91F1
:1023A000FBCAC0E065EF72E090E080E00E947B1D18
:1023B0000097B1F1FC0101900020E9F73197E81B8B
:1023C000F90BD0E0349718F40E945E1DD82FCC236F
:1023D000D9F041E06FEF8FEF0E94650940E06FEFA9
:1023E0008D2F80950E94650960E177E280E090E0A2
:1023F0000E9434098091E304823021F481E0DF916E
:10240000CF91F5C886E0FBCF8D2F38D860E177E219
:1024100080E090E00E94340980E0DF91CF912EC8E7
:10242000DF91CF910895009731F10E945E1D8230B7
:10243000910550F019DD8091A505882311F167EA17
:1024400078E08EE394E0A8CA019789F01092DF0447
:102450008091A5058823A9F08091DF0464E073E0F2
:10246000882311F068EF72E08EE394E080CA81E087
:102470008093DF04EDCF6091DF0470E08EE394E0A1
:1024800011CA0895CF93DF93009781F10E945E1DDA
:10249000EC018230910560F0E7DC8091A50588238E
:1024A00069F167E778E08EE394E0DF91CF9174CA39
:1024B00081708093DD04CE0121E0822781708093BA
:1024C00023058091A5058823C9F061EA78E08EE3B1
:1024D00094E00E942F076DE073E0CD2B11F061E0D6
:1024E00073E08EE394E0DF91CF9141CA6091DD0407
:1024F00070E08EE394E0DF91CF91D4C9DF91CF916A
:1025000008951F93CF93DF93009761F10E945E1DA2
:10251000EC011091A5058230910550F0112389F14D
:1025200063E378E08EE394E0DF91CF911F9134CAAA
:10253000BC0181E0682786E20E94E208112309F1CC
:102540006DE278E08EE394E00E942F0761E173E092
:10255000CD2B11F46EE173E08EE394E0DF91CF9127
:102560001F9105CA86E20E94BA0861E070E0892BDB
:1025700011F070E060E08EE394E0DF91CF911F9165
:1025800091C9DF91CF911F910895CF93DF93009769
:1025900021F10E945E1DEC018031910560F064DC48
:1025A0008091A505882331F162EE77E08EE394E017
:1025B000DF91CF91F1C980931F058091A5058823F4
:1025C000C9F067E078E08EE394E00E942F07BE0137
:1025D0008EE394E0DF91CF9165C980911F0588302B
:1025E00010F010921F0560911F058EE394E0DF91BB
:1025F000CF91A8C9DF91CF910895CF93DF93009732
:1026000081F10E945E1DEC018230910560F02CDCAE
:102610008091A505882369F16FE977E08EE394E066
:10262000DF91CF91B9C9817080932305CE0121E05C
:10263000822781708093DD048091A5058823C9F0ED
:1026400069EC77E08EE394E00E942F076DE073E081
:10265000CD2B11F061E073E08EE394E0DF91CF9138
:1026600086C96091230570E08EE394E0DF91CF91FD
:1026700019C9DF91CF910895CF93009791F10E94EE
:102680005E1DAC01990F660B770B4130514061051F
:10269000710548F0E9DB8091A5056DE477E08111D3
:1026A00016C0CF9108958093E804C091A50586FFD8
:1026B00012C041E060E480E40E94650940E060E40B
:1026C00080E00E946509CC2361F36FE377E08EE33D
:1026D00094E0CF9161C926D86EE277E0CC2309F36C
:1026E000F6CF6091E8048EE394E0CF912BC9AF92CE
:1026F000BF92CF92DF92EF92FF920F931F93CF93EF
:10270000DF93CDB7DEB72F970FB6F894DEBF0FBEBD
:10271000CDBF5C01CE0101967C010F96F7011192AD
:102720008E179F07E1F7670100E0A114B104A1F53E
:102730008091E504898301E0670110E0C6018E19EC
:102740009F09801791070CF069C060E0F601819144
:102750006F0126DA882309F44BC08091A5056BEF41
:1027600075E0882389F18EE394E02F960FB6F894F4
:10277000DEBF0FBECDBFDF91CF911F910F91FF90B4
:10278000EF90DF90CF90BF90AF9006C9F601819394
:102790006F010F5F0F3081F265EF72E0C50100231A
:1027A00011F090E080E00E947B1D0E945E1D882356
:1027B000E1F09FEF980F9E3148F356DB8091A5051D
:1027C00064E176E08111CFCF2F960FB6F894DEBF8B
:1027D0000FBECDBFDF91CF911F910F91FF90EF9072
:1027E000DF90CF90BF90AF900895002369F3A4CFFE
:1027F00088E0A7D9882339F08091A50562EE75E0BD
:10280000882311F3B0CFC1D9882309F497CF8091E1
:10281000A50566EC75E08823B9F2A5CF82E00E9499
:10282000F70A8091A505882379F26DEA75E09BCFC0
:10283000CF93DF93009791F10E945E1DEC018430ED
:10284000910560F011DB8091A505882371F168EA9C
:1028500073E08EE394E0DF91CF919EC8892B71F0F5
:102860008091A505882351F060E773E08EE394E042
:1028700093D869E373E08EE394E08ED8C093E904C3
:10288000C33011F01092DE048091A505882369F011
:102890006DE273E08EE394E00E942F076091E904FB
:1028A0008EE394E0DF91CF914DC8DF91CF910895F1
:1028B000CF93DF93009731F10E945E1DEC018F3FB3
:1028C000910569F060F0D0DA8091A505882301F1C7
:1028D0006FEC72E08EE394E0DF91CF915DC880935E
:1028E000EC048091A505882399F060E173E08EE304
:1028F00094E00E942F07BE018EE394E0DF91CF9118
:102900000C94520C6091EC04062E000C770BF4CF63
:10291000DF91CF910895CF93DF93009759F10E94F3
:102920005E1DEC018230910560F09EDA8091A50574
:10293000882349F16CE872E08EE394E0DF91CF9157
:102940002BC881708093E1048091A5058823D9F07C
:1029500062EB72E08EE394E00E942F076DE073E07B
:10296000CD2B11F061E073E08EE394E0DF91CF9125
:102970000C94B70C6091E10470E08EE394E0DF9179
:10298000CF910C94520CDF91CF910895CF93DF93A8
:10299000009709F43DC00E945E1DEC018230910554
:1029A00068F062DA8091A5058823E1F16FE672E0B4
:1029B0008EE394E0DF91CF910C94CC0C0197F1F071
:1029C00081E08093E30486E00E94F70A0E949E0A59
:1029D0008091A505882331F167E572E08EE394E0EC
:1029E0000E942F0769E373E0CD2B11F06EE273E0D4
:1029F0008EE394E0DF91CF910C94B70C82E080934A
:102A0000E30481E00E94F70A0E949E0AEDD9E0CF1C
:102A10006091E3046150770B8EE394E0DF91CF91F6
:102A20000C94520CDF91CF910895CF93DF930097D0
:102A300061F10E945E1DEC018230910568F014DAAC
:102A40008091A505882351F16DE172E08EE394E059
:102A5000DF91CF910C94CC0C81708093E204809133
:102A6000A5058823D9F063E472E08EE394E00E9428
:102A70002F076DE073E0CD2B11F061E073E08EE382
:102A800094E0DF91CF910C94B70C6091E20470E078
:102A90008EE394E0DF91CF910C94520CDF91CF91B3
:102AA0000895CF93DF93009731F10E945E1DEC01F2
:102AB0008430910568F0D8D98091A505882319F153
:102AC0006BEE71E08EE394E0DF91CF910C94CC0C2F
:102AD0008093E7048091A5058823A9F060E172E066
:102AE0008EE394E00E942F07BE018EE394E0DF9115
:102AF000CF910C94520C6091E7048EE394E0DF9147
:102B0000CF910C94A20CDF91CF910895CF93DF93D6
:102B1000009759F1D3D7EC01019781159D4750F0EB
:102B2000A3D98091A50569E971E0811118C0DF91F1
:102B3000CF910895D093EB04C093EA048091A5054A
:102B40008823A9F364ED71E08EE394E00E942F07DF
:102B5000BE018EE394E00E941C0C66EC71E08EE3F3
:102B600094E0DF91CF910C94CC0C6091EA047091C9
:102B7000EB048EE394E0DF91CF910C94520CEF9232
:102B8000FF920F931F93CF93DF93DC01EC91E11140
:102B900009C0C1E08C2FDF91CF911F910F91FF9061
:102BA000EF900895E9017A018B011982188286D786
:102BB000998388838017910720F0C0E0E816F90612
:102BC00048F752D9C091A505CC2319F360E271E012
:102BD0008EE394E00E942F07A80170E060E02AE0F5
:102BE0008EE394E00E94D10B6AE171E08EE394E001
:102BF0000E942F07B7018EE394E00E948E0CCACF8B
:102C0000EF92FF920F931F93CF93DF9300D01F9209
:102C1000CDB7DEB7009709F467C065EF72E06BD7F8
:102C2000FC012081211121C065EF72E090E080E07D
:102C300062D7FC01208121112DC060E473E090E097
:102C400080E059D78C01FC018081F12CE12C8111AD
:102C50002CC00AD98091A50562EE78E0882379F02E
:102C60008EE394E00E94CC0C0AC09E012F5F3F4F80
:102C70004FEF50E062E070E082DF8823A9F20F900E
:102C80000F900F900F90DF91CF911F910F91FF90B8
:102C9000EF9008959E012D5F3F4F40E355E770E0B0
:102CA00060E06DDF8111EBCFC8CF89819A81E81692
:102CB000F90628F7F80101900020E9F73197BF01E4
:102CC000601B710B80912305811103C0C8010E9414
:102CD000F20D6B817C8190E080E00E943409BCD9C8
:102CE000FFEFEF1AFF0AE1CFBFD88091A505882337
:102CF00031F26FEC78E0B4CFCF93DF931F921F9245
:102D0000CDB7DEB7009709F45FC065EF72E0F3D688
:102D10009E012F5F3F4F4EE150E061E070E02FDFFA
:102D2000811112C089819A812091E4042817190623
:102D300081F49AD88091A505882331F06DE571E082
:102D40008EE394E00E94CC0C0F900F90DF91CF9116
:102D500008958093E5048091A505882361F06DE3D3
:102D600071E08EE394E00E942F0769817A818EE3FF
:102D700094E00E948E0C1092E6041A82198265EF8C
:102D800072E090E080E0B7D60097F1F29E012F5FED
:102D90003F4F4EE750E060E670E0F1DE8111D4CFA6
:102DA00089818093E6048091A505882369F263E414
:102DB00073E08EE394E00E94C20B69817A818EE316
:102DC00094E00E948E0CC0CF4091E50450E070E08A
:102DD00060E02AE08EE394E00E94D10B8091E6044B
:102DE000882381F06BE371E08EE394E00E942F076B
:102DF0004091E60450E070E060E02AE08EE394E069
:102E00000E94D10B8EE394E00E944F0C9DCFCF9394
:102E1000DF93009759F1DC010D900020E9F7AD0137
:102E200041505109EDEEF4E020E3DF011D922A95B7
:102E3000E9F7481B590B4033510510F04FE250E0C1
:102E4000EC01BC018DEE94E0FDD68091A5058823B0
:102E500069F06BE578E08EE394E00E942F07BE01F5
:102E60008EE394E0DF91CF910C94B70CDF91CF917A
:102E70000895FF920F931F93CF93DF9300EE14E01A
:102E8000D0E0C0E0F801F1908F01CE0166D6F816CF
:102E900019F06F2DCE0169D62196C034D10591F776
:102EA0008091A505882331F06FE777E08EE394E009
:102EB0000E942F078091A505882359F06FE877E0DD
:102EC0008EE394E0DF91CF911F910F91FF900C94CE
:102ED000CC0CDF91CF911F910F91FF9008956F92CD
:102EE0007F928F929F92AF92BF92CF92DF92EF929A
:102EF000FF920F931F93CF93DF93CDB7DEB7609709
:102F00000FB6F894DEBF0FBECDBF4C01188A8E01FC
:102F10000F5F1F4F6E0180E1C80ED11CF8015801F0
:102F20001192CE16DF06E1F7F12C8114910409F01D
:102F300058C08091E5048983E12CFF24F3948FE34A
:102F40000E94A10D811184C08091E404805E0E94E2
:102F5000A10D81117DC088E10E94A10D811178C071
:102F600010E000E08F2C912C081519050CF0CBC057
:102F7000702EE11004C0F501E00FF11F7080809108
:102F8000E404871509F4BCC080E4870D0E94A10DFC
:102F900081115EC085E00E94F70AC6010E94390DCA
:102FA0008111A4C0688981E08F1508F07FC066FF99
:102FB000A7C061EC76E08EE394E00E942F07B80191
:102FC0008EE394E00E941C0C6FEB76E08EE394E0BD
:102FD0000E942F0768898EE394E00E94A20C84016E
:102FE0008FC065EF72E0C401FF2011F090E080E037
:102FF00082D53C0143E050E065E673E015D6892BAD
:1030000071F4E090A505EE2009F44DC066E077E08C
:103010008EE394E00E94CC0C8EE1F82E90CFF40168
:1030200001900020E9F73197E819F909339770F515
:10303000C30144D5882341F19FEF980F9E31E8F0FA
:103040000E94340F8091A50568ED76E0811126C0BD
:1030500060960FB6F894DEBF0FBECDBFDF91CF9163
:103060001F910F91FF90EF90DF90CF90BF90AF90A6
:103070009F908F907F906F900895F80181938F01BA
:10308000F394FFE0FF12ADCFE12C59CF0E94340F33
:103090008091A50566EC76E08823D1F28EE394E07A
:1030A0000E94CC0CD5CFEE24E394B6CF8EE394E00F
:1030B0000E94A20C8091A505882309F490CF68EAAC
:1030C00076E08EE394E00E942F07488950E070E09C
:1030D00060E02AE08EE394E00E94D10B6DE876E098
:1030E0008EE394E00E942F07672D75CF8091A50590
:1030F000882331F06EE676E08EE394E00E94CC0CFB
:103100000F5F1F4F31CFEE2021F08EE394E00E943D
:103110004F0C89E10E94A10D81119ACF8FE50E9489
:10312000A10D811195CF8FE30E94A10D811190CF48
:1031300082E00E94F70A82E30E94BA08892B59F4C0
:1031400081E0809321058091A505882309F480CF33
:1031500067E576E0A3CF10922105F5CF85E693E0F1
:10316000BECECF93DF93EC0186E20E94BA08892B92
:10317000A1F5209729F143E050E065E673E0CE0128
:1031800053D5892B51F540E060E280E20E94650949
:1031900068E270E080E090E00E94340940E060EA7C
:1031A00080E00E94650968E270E080E090E00E94A3
:1031B000340940E060E880E8DF91CF910C94650924
:1031C00060E08091E5040E94D00D882349F0809151
:1031D000A5056AE675E081110EC0DF91CF910895D3
:1031E00081E00E94A10D882361F08091A5058823CC
:1031F000A1F366E575E08EE394E0DF91CF910C9446
:10320000CC0C0E94C50D882339F08091A50569E397
:1032100075E0882311F3EFCF82E0DF91CF910C941A
:10322000F70ACF93DF93EC0186E20E94BA08892B5C
:10323000C9F42097E1F043E050E065E673E0CE0189
:10324000F3D4892B79F481E10E94A10D882351F0F8
:103250008091A505882331F06BE175E08EE394E061
:103260000E94CC0C82E0DF91CF910C94F70A60E0D1
:103270008091E5040E94D00D882349F08091A50536
:103280006DEF74E081110EC0DF91CF91089581E15F
:103290000E94A10D882361F08091A5058823A1F3E8
:1032A00060EE74E08EE394E0DF91CF910C94CC0C4F
:1032B0000E94C50D8823B1F28091A50560EC74E0F1
:1032C000882311F3EFCFCF93DF931092DC04109299
:1032D00034040097A1F0EC01FC0101900020E9F713
:1032E0003197E81BF90B3497A0F08091A50588234E
:1032F00031F061E574E08EE394E00E94CC0C8091A3
:10330000E9048330C9F481E08093DE04DF91CF913A
:10331000089543E050E069E673E086D4892B21F4F8
:1033200081E08093DC04EBCF81E080933404CE0114
:10333000C5D380933304E3CFDF91CF910C942C104D
:10334000009749F043E050E06DE673E06DD461EF23
:1033500073E0892B61F08091ED0461E274E08823D1
:1033600031F06DEE74E08EE394E00C94B70C8EE3D4
:1033700094E00C94CC0C1F920F920FB60F92112474
:103380000BB60F922F933F934F935F936F937F935F
:103390008F939F93AF93BF93EF93FF938EE394E04C
:1033A0000E94C607FF91EF91BF91AF919F918F91BE
:1033B0007F916F915F914F913F912F910F900BBE35
:1033C0000F900FBE0F901F9018951F920F920FB67F
:1033D0000F9211240BB60F922F938F939F93EF931D
:1033E000FF93E0914E04F0914F048081E0915404EA
:1033F000F091550482FD1DC09081809157048F5F2C
:103400008F7320915804821741F0E0915704F0E047
:10341000E25CFB4F958F80935704FF91EF919F9152
:103420008F912F910F900BBE0F900FBE0F901F909A
:1034300018958081F2CF1F920F920FB60F92112430
:103440002F933F938F939F93AF93BF9380913604B5
:1034500090913704A0913804B0913904309135042B
:1034600023E0230F2D3758F50196A11DB11D2093A0
:1034700035048093360490933704A0933804B093B6
:10348000390480913A0490913B04A0913C04B0919E
:103490003D040196A11DB11D80933A0490933B0415
:1034A000A0933C04B0933D04BF91AF919F918F9145
:1034B0003F912F910F900FBE0F901F90189526E807
:1034C000230F0296A11DB11DD2CFCF93DF93CDB7AD
:1034D000DEB7C05CD1090FB6F894DEBF0FBECDBF1A
:1034E000789484B5826084BD84B5816084BD85B5DF
:1034F000826085BD85B5816085BD80916E008160EB
:1035000080936E0010928100809181008260809390
:103510008100809181008160809381008091800092
:103520008160809380008091B10084608093B100BD
:103530008091B00081608093B000809191008260A2
:10354000809391008091910081608093910080919F
:1035500090008160809390008091A10082608093B0
:10356000A1008091A10081608093A1008091A000C2
:1035700081608093A000809121018260809321016D
:1035800080912101816080932101809120018160DF
:103590008093200180917A00846080937A008091EA
:1035A0007A00826080937A0080917A0081608093B3
:1035B0007A0080917A00806880937A001092C1002E
:1035C0000FB6F894A89580916000886180936000A0
:1035D000109260000FBEEBEEFCE02491E5EAFCE007
:1035E0008491882399F090E0880F991FFC01E2589C
:1035F000F34FA591B491FC01EC59F34F859194914F
:103600008FB7F894EC91E22BEC938FBF60E08DE0E4
:103610000E94E2080E94B80BE0914E04F0914F0422
:1036200082E08083E0914A04F0914B041082E091A3
:103630004C04F0914D0480E1808310925604E09197
:103640005204F091530486E08083E0915004F0919D
:103650005104808180618083E0915004F091510495
:10366000808188608083E0915004F09151048081D2
:1036700080688083E0915004F091510480818F7DB7
:1036800080830E94A50B90E080E067D28C3C81F49F
:1036900040EEE42E44E0F42E10E000E0C8015DD2DC
:1036A000D7018D937D010F5F1F4F00341105B1F7D6
:1036B0008091E304813029F486E00E94F70A0E9499
:1036C0009E0A8091E304823039F481E00E94F70A77
:1036D0000E949E0A0E94F40E10922205109221056B
:1036E0008E010F5F1F4F6E01B1E8CB0ED11C90E42D
:1036F000292E26E0322E3FE0432E512C84E30E94F7
:10370000BA0821E0892B09F020E02093220582E30A
:103710000E94BA0821E0892B09F020E020932105BE
:103720008EE394E00E94B1077C01892B49F08EE37F
:1037300094E00E948F070E94760F8093A405F0CF3B
:103740008091A405813009F080C0A0902005B12CA3
:10375000A50164E275E0C80140D20E94B80B109246
:10376000A405F801C50102979F01201B310B281702
:1037700039071CF422812193F7CF800F911FFC01A0
:103780001082FE01EA0DFB1D10828091A5058823A1
:1037900021F08EE394E00E944F0CD601E22D1D92A1
:1037A000EA95E9F78981813009F44AC065EF72E052
:1037B000C801A1D13C0183E1882E82E0982EB3019B
:1037C000D4018D919C9112D25C01892B09F42AC1FC
:1037D000BFEFEB1AFB0AE6E08E0E911CF3E2EF1648
:1037E000F10469F70E94340F2BC08FEFA81AB80AB2
:1037F00065EF72E090E080E07ED14C01DC018C91BD
:10380000882359F0B1E0AB16B10421F060EF72E00B
:10381000C601FFD1B401C601FCD1892831F73E9C15
:10382000F0013F9CF00D1124ED5EFD4F0480F58109
:10383000E02DD6018C91882309F44CC0C60119955E
:103840008091A50581110E944F0F8091E304823081
:1038500081F58091A4058230B1F4809120050E9409
:10386000570F8091E904813011F40E942C1080914F
:10387000E904823041F48091A705882321F00E9459
:103880002C101092A70580912105882349F0809182
:10389000DF04882329F090E080E021DB10922105ED
:1038A0008091E904833029F48091DE0481110E9423
:1038B0002C108091E3048130E1F48091DD048823B1
:1038C00061F08091A4058230A1F4809120050E94CE
:1038D000570F0FC090E080E0B2CFE0902305EE20BC
:1038E00071F00E942C108091A405823011F40E9486
:1038F000B80BC2010197F1F70E940010FFCEF090C3
:103900002205FF20F1F2198288E00E94F70AB12C0B
:10391000A12C912C84E30E94BA08892B11F5C801CF
:103920000E94390D8111F6CF9091E504898120E242
:103930002827921301C0EF2C282F2225921301C0B3
:103940009F2C883151F0893151F08F3319F7109243
:10395000DC04B3E0B093DB04DDCFAF2CDBCFBF2CB6
:10396000D9CFE1100E942C10992009F442C0AA205E
:1039700009F44FC08091A505882331F065E87DE00A
:103980008EE394E00E94CC0C8091A505882361F021
:1039900068E47DE08EE394E00E942F076091E804E4
:1039A0008EE394E00E94A20C89E00E94F70A8091C5
:1039B000E8040E94DC0C87E00E94F70A8091A505CC
:1039C000882331F068E77DE08EE394E00E94CC0C20
:1039D0008091E8048F7B8093E8040E94920B809191
:1039E000A505882391F06EE57DE08EE394E00E94CA
:1039F000CC0CBB2051F08091A505882331F065EBFC
:103A00007DE08EE394E00E94CC0C87E00E94F70AF0
:103A100058CF8091A405823061F7809120050E94E3
:103A2000570FE7CF3E9CF0013F9CF00D1124ED5E57
:103A3000FD4F8091E30490E0228133818223932320
:103A4000892B09F0D2CE0E94340F8091A5058823DE
:103A500009F4F6CE64E27DE08EE394E00E94CC0CA3
:103A6000EFCEEEE3F4E01382128288EE93E0A0E062
:103A7000B0E084839583A683B78385E092E0918349
:103A8000808385EC90E09587848784EC90E097872D
:103A9000868780EC90E0918B808B81EC90E0938B1B
:103AA000828B82EC90E0958B848B86EC90E0978BF8
:103AB000868B118E128E138E148E0895FC0188272A
:103AC0009927E89421912032E9F3293010F02E3023
:103AD000C8F32B3239F02D3231F4689403C035D05D
:103AE000820F911D219120532A30C8F31EF4909526
:103AF00081959F4F089548EA55E000C0FA01A191D1
:103B0000B081009719F41097E1F0CD01DC01CD01EF
:103B10000D90002011F4C00113C0FB01219122235C
:103B200019F02015D9F7F3CFFB012191201519F4D5
:103B30001E92119606C02223C1F70D900020A1F716
:103B4000D001FA01A193B08308957AE0979F902D58
:103B5000879F802D910D11240895F999FECF92BD74
:103B600081BDF89A992780B50895262FF999FECF3F
:103B70001FBA92BD81BD20BD0FB6F894FA9AF99A8A
:103B80000FBE01960895A1E21A2EAA1BBB1BFD01D0
:103B90000DC0AA1FBB1FEE1FFF1FA217B307E4072C
:103BA000F50720F0A21BB30BE40BF50B661F771F84
:103BB000881F991F1A9469F7609570958095909564
:103BC0009B01AC01BD01CF010895EE0FFF1F881FBF
:103BD0008BBF0790F691E02D1994FB01DC0102C028
:103BE00001900D9241505040D8F70895FB01DC013F
:103BF0008D9181341CF08B350CF4805E61916134C1
:103C00001CF06B350CF4605E861B611189F3990B17
:103C10000895FB01DC010D900020E9F71197019058
:103C20000D920020E1F70895FB01DC014150504066
:103C300030F08D910190801919F40020B9F7881B9C
:103C4000990B0895FB01DC014150504048F0019070
:103C50000D920020C9F701C01D9241505040E0F77D
:063C60000895F894FFCF67
:103C66000100000000E807530780073408B1078FFA
:103C760007A307720303007C1677030200AE180839
:103C86000402001814800302000E0F84030200B120
:103C96000E88030300B70B69030300151590030391
:103CA60000C512940303005115980303005814A18C
:103CB6000303008B14AC030200F40EB003020011E0
:103CC60019B4030200B118B8030100FD12BC0302C7
:103CD60000820EC2030300C614C70302008C0ECD79
:103CE6000302006319D20302008615DE0302008177
:103CF60012E20302000016E9030300C10EED0302FF
:103D0600007713F10303003917F903030007177A45
:103D16000302006F1701040200830C05040200135E
:103D2600120D0401003C131404010042121804038E
:103D360000A0191C040300390F240403007D112A76
:103D4600040300B4110D0A00566572626F73653A7A
:103D560020003E2000200900535251206175746FE7
:103D6600204F4E00535251206175746F204F4646C6
:103D76000052454E20617373657274656400524546
:103D86004E20756E2D617373657274656400434FC2
:103D96004E54524F4C4C45520044455649434500FB
:103DA6000A0D005365742064657669636520736542
:103DB600636F6E64617279206164647265737320E7
:103DC600746F3A2000616C6C00656F690072656102
:103DD6006C006164647200616C6C73706F6C6C0073
:103DE600636C720064636C0064656661756C740074
:103DF600656F7200656F7300656F745F63686172EB
:103E060000656F745F656E61626C6500696663006C
:103E16006C6C6F006C6F63006C6F6E006D6163722B
:103E26006F006D6F64650070706F6C6C0072656119
:103E36006400726561645F746D6F5F6D73007265B7
:103E46006E007265706561740072737400747267D7
:103E56000073617665636667007365747673747262
:103E660000737271007372716175746F007374619F
:103E760074757300746F6E00766572007665726293
:103E86006F736500746D62757300786469616700AD
:020000023000CC
:10E000000D9489F10D94B2F10D94B2F10D94B2F129
:10E010000D94B2F10D94B2F10D94B2F10D94B2F1F0
:10E020000D94B2F10D94B2F10D94B2F10D94B2F1E0
:10E030000D94B2F10D94B2F10D94B2F10D94B2F1D0
:10E040000D94B2F10D94B2F10D94B2F10D94B2F1C0
:10E050000D94B2F10D94B2F10D94B2F10D94B2F1B0
:10E060000D94B2F10D94B2F10D94B2F10D94B2F1A0
:10E070000D94B2F10D94B2F10D94B2F10D94B2F190
:10E080000D94B2F10D94B2F10D94B2F10D94B2F180
:10E090000D94B2F10D94B2F10D94B2F10D94B2F170
:10E0A0000D94B2F10D94B2F10D94B2F10D94B2F160
:10E0B0000D94B2F10D94B2F10D94B2F10D94B2F150
:10E0C0000D94B2F10D94B2F10D94B2F10D94B2F140
:10E0D0000D94B2F10D94B2F10D94B2F10D94B2F130
:10E0E0000D94B2F141546D656761323536300041AF
:10E0F000726475696E6F206578706C6F72657220DE
:10E1000073746B3530305632206279204D4C530099
:10E11000426F6F746C6F616465723E004875683F52
:10E1200000436F6D70696C6564206F6E203D200048
:10E130004350552054797065202020203D20005FF9
:10E140005F4156525F415243485F5F3D2000415658
:10E1500052204C696243205665723D20004743437C
:10E160002056657273696F6E203D20004350552024
:10E1700049442020202020203D20004C6F7720663D
:10E18000757365202020203D20004869676820665F
:10E190007573652020203D200045787420667573D6
:10E1A00065202020203D20004C6F636B2066757336
:10E1B000652020203D20004D617220203720323024
:10E1C000313300312E362E3800342E332E350056A2
:10E1D00023202020414444522020206F7020636F70
:10E1E00064652020202020696E73747275637469E1
:10E1F0006F6E2061646472202020496E74657272B3
:10E20000757074006E6F20766563746F7200726A49
:10E210006D702020006A6D70200057686174207056
:10E220006F72743A00506F7274206E6F7420737541
:10E2300070706F72746564004D7573742062652030
:10E2400061206C6574746572002000577269747483
:10E25000696E672045450052656164696E672045B7
:10E26000450045452065727220636E743D00504F35
:10E27000525400303D5A65726F2061646472003FF1
:10E280003D43505520737461747300403D454550C3
:10E29000524F4D207465737400423D426C696E6B41
:10E2A000204C454400453D44756D70204545505215
:10E2B0004F4D00463D44756D7020464C415348001B
:10E2C000483D48656C70004C3D4C69737420492F83
:10E2D0004F20506F72747300513D51756974005234
:10E2E0003D44756D702052414D00563D73686F7707
:10E2F00020696E7465727275707420566563746FF0
:10E30000727300593D506F727420626C696E6B00BD
:10E310002A0011241FBECFEFD1E2DEBFCDBF01E046
:10E320000CBF12E0A0E0B2E0EEE1FDEF03E00BBFB6
:10E3300002C007900D92A030B107D9F712E0A0E01B
:10E34000B2E001C01D92AE30B107E1F70F9460F367
:10E350000D948DFE01E20EBF0FEF0DBF11241FBE05
:10E360000D9460F30D9400F020E030E040ED57E0B4
:10E3700005C0FA013197F1F72F5F3F4F2817390792
:10E38000C0F308959C01260F311DC901A0E0B0E043
:10E390002F5F3F4FABBFFC018791882361F08093D3
:10E3A000C6008091C00086FFFCCF8091C0008064D1
:10E3B0008093C000EACF08958DE08093C6008091DD
:10E3C000C00086FFFCCF8091C00080648093C000B5
:10E3D0008AE08093C6008091C00086FFFCCF8091C8
:10E3E000C00080648093C00008950F94C2F10F9420
:10E3F000DCF10895FC019081992359F09093C600B7
:10E400008091C00086FFFCCF8091C0008064809323
:10E41000C0003196992379F70895282F982F929567
:10E420009F70892F805D8A3308F0895F8093C600D2
:10E430008091C00086FFFCCF8091C00080648093F3
:10E44000C000822F8F70982F905D9A3308F0995FEB
:10E450009093C6008091C00086FFFCCF8091C000E1
:10E4600080648093C00008959C01FB01853691056E
:10E470001CF46330710594F0C90164E670E00F94F8
:10E480002EFE605D7F4F6093C6008091C00086FFC6
:10E49000FCCF8091C00080648093C0002B30310598
:10E4A00014F43297B4F0C90164E670E00F942EFEC4
:10E4B0006AE070E00F942EFE605D7F4F6093C600AF
:10E4C0008091C00086FFFCCF8091C0008064809363
:10E4D000C000C9016AE070E00F942EFEC0968093E0
:10E4E000C6008091C00086FFFCCF8091C000806490
:10E4F0008093C00008951F93182F8EE692EE60E07F
:10E500000F94C2F11093C6008091C00086FFFCCF2B
:10E510008091C00080648093C0000F94DCF11F9153
:10E5200008952F923F924F925F926F927F928F92B7
:10E530009F92AF92BF92CF92DF92EF92FF920F9392
:10E540001F93DF93CF93CDB7DEB762970FB6F894E2
:10E55000DEBF0FBECDBF382E622ECA01DB015C01CB
:10E560006D01772420E2222E2E010894411C511CBB
:10E570008BC081E0A81680E0B80681E0C80680E084
:10E58000D80628F0C601AA27BB270F940DF2BB2797
:10E59000AD2D9C2D8B2D0F940DF28A2D0F940DF225
:10E5A0002092C6008091C00086FFFCCF8091C00001
:10E5B00080648093C0009DE29093C6008091C0006B
:10E5C00086FFFCCF8091C00080648093C0002092C1
:10E5D000C6008091C00086FFFCCF8091C00080649F
:10E5E0008093C00019828601750188249924A1E0D6
:10E5F0003A1651F03A1620F0B2E03B1661F409C029
:10E600000BBFF701779007C0C7010F9477FE782EF4
:10E6100002C0F7017080872D0F940DF22092C60082
:10E620008091C00086FFFCCF8091C0008064809301
:10E63000C000872D8052F401EF70F0708F3520F408
:10E64000E40DF51D708204C0E40DF51D8EE280839B
:10E650000894E11CF11C011D111D0894811C911CE2
:10E6600090E18916910409F0C2CF80E190E0A0E02A
:10E67000B0E0A80EB91ECA1EDB1E198AC2010F9493
:10E68000FAF10F94DCF16A94662009F072CF629679
:10E690000FB6F894DEBF0FBECDBFCF91DF911F91B3
:10E6A0000F91FF90EF90DF90CF90BF90AF909F9031
:10E6B0008F907F906F905F904F903F902F90089534
:10E6C0002F923F924F925F926F927F928F929F9282
:10E6D000AF92BF92CF92DF92EF92FF920F931F9370
:10E6E000DF93CF93CDB7DEB7CD53D1400FB6F894BB
:10E6F000DEBF0FBECDBF01E20EBF0FEF0DBF94B75F
:10E70000F894A89514BE80916000886180936000A1
:10E7100010926000789493FF05C0E0910002F091A0
:10E7200001021995279A2F9A8091C00082608093E8
:10E73000C00080E18093C40088E18093C1000000A4
:10E74000EE24FF24870144E0A42EB12CCC24DD2448
:10E7500024C0C5010197F1F70894E11CF11C011DCB
:10E76000111D21E2E2162EE4F20620E0020720E06D
:10E77000120718F031E0C32ED12CC801B70127ECE5
:10E780003BE140E050E00F9441FE611571058105C9
:10E79000910519F485B1805885B98091C00087FD35
:10E7A00003C0C114D104A9F2A6014F5F5F4FC25E3E
:10E7B000DE4F59834883CE51D140C25EDE4F8881FF
:10E7C0009981CE51D140019711F00D9410FEC05D9A
:10E7D000DE4F19821882C053D14060E0C15DDE4F28
:10E7E0001882CF52D14088249924C35DDE4F19820C
:10E7F0001882CD52D140C05EDE4F188219821A8233
:10E800001B82C052D140CE5CDE4F188219821A8220
:10E810001B82C253D140EE24FF2487010BBFF701B6
:10E8200007911691C45CDE4F19830883CC53D14005
:10E830000D940BFEC25EDE4F28813981CE51D1404E
:10E840002130310509F52091C600C25EDE4F1982E4
:10E850001882CE51D14022C02F5F3F4F4F4F5F4FA4
:10E86000213082E138078AE7480780E0580780F0C6
:10E87000C45CDE4FE881F981CC53D140EF5FFF4F9C
:10E8800019F0EE27FF27099420E030E040E050E047
:10E890008091C00087FFE0CF2091C600C35DDE4FAE
:10E8A00048815981CD52D1404F5F5F4FC35DDE4FEC
:10E8B00059834883CD52D140213209F063C64A3092
:10E8C000510508F05FC60894811C911C53E0851621
:10E8D000910409F059C600E010E018C081E280936D
:10E8E000C6008091C00086FFFCCF8091C00080648C
:10E8F0008093C0002F5F3F4F2931310579F70F9486
:10E90000DCF10F5F1F4F0530110519F020E030E0FA
:10E91000E5CF10920A0210920B0210920C02109294
:10E920000D02109206021092070210920802109235
:10E930000902109202021092030210920402109235
:10E9400005028FEE90EE60E00F94F5F180E191EE1C
:10E9500060E00F94C2F18091C00087FFFCCF9091DE
:10E96000C600903608F09F759032B8F09093C600BC
:10E970008091C00086FFFCCF8091C00080648093AE
:10E98000C000A0E2A093C6008091C00086FFFCCF2B
:10E990008091C00080648093C000983409F4D7C18E
:10E9A0009934B8F4923409F459C1933458F490333B
:10E9B00019F1903308F4E3C59F33A1F1903409F0C5
:10E9C000DEC5BDC0953409F470C1963409F0D7C5D1
:10E9D00098C1923509F42BC2933538F49C3409F46C
:10E9E000F5C1913509F0CBC518C2963509F445C279
:10E9F000993509F0C4C567C483E792EE62E00F94CD
:10EA0000F5F110920602109207021092080210927D
:10EA1000090210920A0210920B0210920C0210923C
:10EA20000D0213C18FE792EE62E00F94F5F18FEEC5
:10EA300090EE60E00F94F5F181E291EE60E00F94CA
:10EA4000C2F187EB91EE60E00F94F5F180E391EE77
:10EA500060E00F94C2F184EE90EE60E00F94F5F167
:10EA60008FE391EE60E00F94C2F186E090E061E008
:10EA700070E00F9434F20F94DCF18DE591EE60E0DC
:10EA80000F94C2F189EC91EE60E00F94F5F18EE401
:10EA900091EE60E00F94C2F183EC91EE60E00F9490
:10EAA000F5F18CE691EE60E00F94C2F18EE10F94E7
:10EAB0000DF288E90F940DF281E00F940DF20F949E
:10EAC000DCF18BE791EE60E00F94C2F119E0E0E039
:10EAD000F0E010935700E4918E2F0F940DF20F94F5
:10EAE000DCF18AE891EE60E00F94C2F1E3E0F0E03F
:10EAF00010935700E4918E2F0F940DF20F94DCF1D8
:10EB000089E991EE60E00F94C2F1E2E0F0E0109349
:10EB10005700E4918E2F0F940DF20F94DCF188EAE8
:10EB200091EE60E00F94C2F1E1E0F0E01093570045
:10EB30001491812F0F940DF20F94DCF107CF8BE825
:10EB400092EE62E00F94F5F18BE492EE60E00F94A8
:10EB5000F5F10F94DCF100E010E019C0C8016F2D51
:10EB60000F947FFEFF2031F489E492EE60E00F9471
:10EB7000C2F10BC0F092C6008091C00086FFFCCFAE
:10EB80008091C00080648093C0000F5F1F4FC80158
:10EB900081519F41A0E0B0E0ABBFFC01F790BAE229
:10EBA000FB1621F0E2E000301E07C1F60F94DCF105
:10EBB0000F94DCF187E592EE60E00F94F5F10F948D
:10EBC000DCF1CC24DD2400E010E01EC0C8010F946D
:10EBD00077FEF82E882331F489E492EE60E00F94FA
:10EBE000C2F10BC08093C6008091C00086FFFCCFAD
:10EBF0008091C00080648093C000FE1419F00894D6
:10EC0000C11CD11C0F5F1F4FC80181519F41A0E063
:10EC1000B0E0ABBFFC01E790FAE2EF1621F022E092
:10EC20000030120799F60F94DCF10F94DCF182E6C4
:10EC300092EE60E00F94C2F1C60161E070E00F94C3
:10EC400034F20F94DCF10F94DCF110920202109276
:10EC50000302109204021092050278CE89E992EE26
:10EC600062E00F94F5F1279A2F9A16C02F9880E052
:10EC700090E0E0EDF7E03197F1F7019684369105E9
:10EC8000C1F72F9A80E090E0E0EDF7E03197F1F7DF
:10EC9000019684369105C1F78091C00087FFE6CFC9
:10ECA0008091C00087FFFCCF64C485EA92EE62E0E9
:10ECB0000F94F5F140910202509103026091040219
:10ECC0007091050281E020E10F9491F2809102029F
:10ECD00090910302A0910402B091050280509F4FD1
:10ECE000AF4FBF4F8093020290930302A0930402A0
:10ECF000B093050280509041A040B04008F426CE69
:10ED0000A4CF83EB92EE62E00F94F5F140910602FE
:10ED100050910702609108027091090280E020E1A1
:10ED20000F9491F28091060290910702A09108023F
:10ED3000B091090280509F4FAF4FBF4F80930602A2
:10ED400090930702A0930802B0930902FFCD80ECD4
:10ED500092EE62E00F94F5F183E792EE60E00F949B
:10ED6000F5F18FE792EE60E00F94F5F18BE892EE0B
:10ED700060E00F94F5F189E992EE60E00F94F5F10F
:10ED800085EA92EE60E00F94F5F183EB92EE60E09D
:10ED90000F94F5F180EC92EE60E00F94F5F187ECC2
:10EDA00092EE60E00F94F5F188ED92EE60E00F9442
:10EDB000F5F18FED92EE60E00F94F5F18AEE92EEB0
:10EDC00060E00F94F5F183E093EEBDCD87EC92EE19
:10EDD00062E00F94F5F181E40F947BF282E40F94EA
:10EDE0007BF283E40F947BF284E40F947BF285E45E
:10EDF0000F947BF286E40F947BF287E40F947BF20E
:10EE000088E40F947BF28AE40F947BF28BE40F94F6
:10EE10007BF28CE40F947BF299CD88ED92EE62E068
:10EE20000F94F5F1772473948824992409C48FED05
:10EE300092EE62E00F94F5F140910A0250910B02BC
:10EE400060910C0270910D0282E020E10F9491F22A
:10EE500080910A0290910B02A0910C02B0910D02D8
:10EE600080509F4FAF4FBF4F80930A0290930B0289
:10EE7000A0930C02B0930D0269CD8AEE92EE62E08F
:10EE80000F94F5F184EE90EE60E00F94F5F18FECC5
:10EE900091EE60E00F94F5F1662477244301CC5D98
:10EEA000DE4F19821882C452D140D401C301B695F5
:10EEB000A79597958795CA5DDE4F88839983AA8326
:10EEC000BB83C652D140CC5DDE4FA881B981C4520C
:10EED000D1401196CC5DDE4FB983A883C452D14096
:10EEE000CD0162E070E00F9434F2B0E2B093C6005E
:10EEF0008091C00086FFFCCF8091C0008064809329
:10EF0000C000EDE2E093C6008091C00086FFFCCF18
:10EF10008091C00080648093C000F0E2F093C6004E
:10EF20008091C00086FFFCCF8091C00080648093F8
:10EF3000C000CA5DDE4FE880F9800A811B81C6529D
:10EF4000D140BB27A12F902F8F2D0F940DF2CA5DBA
:10EF5000DE4F8881C652D1400F940DF2B0E2FB2EF5
:10EF6000F092C6008091C00086FFFCCF8091C00067
:10EF700080648093C0000DE30093C6008091C000C0
:10EF800086FFFCCF8091C00080648093C00010E2B7
:10EF90001093C6008091C00086FFFCCF8091C00016
:10EFA00080648093C0008BBEF3012791C65DDE4F65
:10EFB0002883CA52D140A22EBB24CC24DD2408943D
:10EFC000611C711C811C911C8BBEF3018791282E42
:10EFD0003324442455240894611C711C811C911C09
:10EFE0008BBEF3013791C55DDE4F3883CB52D140E4
:10EFF0000894611C711C811C911C8BBEF30147910C
:10F00000C45DDE4F4883CC52D140ADEFEA2EAFEF66
:10F01000FA2EAFEF0A2FAFEF1A2F6E0C7F1C801E57
:10F02000911E142D032DF22CEE24EA0CFB1C0C1D5A
:10F030001D1D0F940DF220E22093C6008091C000A8
:10F0400086FFFCCF8091C00080648093C000C65DC5
:10F05000DE4F8881CA52D1400F940DF230E23093D6
:10F06000C6008091C00086FFFCCF8091C000806404
:10F070008093C000C45DDE4F8881CC52D1400F9494
:10F080000DF240E24093C6008091C00086FFFCCFA5
:10F090008091C00080648093C000C55DDE4F888190
:10F0A000CB52D1400F940DF250E25093C6008091A4
:10F0B000C00086FFFCCF8091C00080648093C000B8
:10F0C0008FEFE8168FEFF80680E0080780E018075A
:10F0D00031F484E092EE60E00F94C2F1DFC0D80119
:10F0E000C7018070907CA070B0708050904CA040A0
:10F0F000B040D1F52FEF3FE340E050E0E222F322B1
:10F1000004231523CA5DDE4FA880B980CA80DB8046
:10F11000C652D140AE0CBF1CC01ED11EAA0CBB1CD7
:10F12000CC1CDD1C8EE092EE60E00F94C2F1BB2798
:10F13000A12F902F8F2D0F940DF28E2D0F940DF285
:10F1400030E23093C6008091C00086FFFCCF8091F2
:10F15000C00080648093C0004EE34093C60080915D
:10F16000C00086FFFCCF87C08EE09EEFA0E0B0E03D
:10F17000E822F9220A231B239CE0E91694E9F90608
:10F1800090E0090790E0190709F088C0C45DDE4FE0
:10F19000A881CC52D140EA2EFF2400E010E0102FCD
:10F1A0000F2DFE2CEE24C55DDE4FB881CB52D14031
:10F1B000EB0EF11C011D111DD601C501817090706F
:10F1C000A070B070DC0199278827E80EF91E0A1F8D
:10F1D0001B1F20EF30E040E050E0A222B322C42207
:10F1E000D52241E1AA0CBB1CCC1CDD1C4A95D1F7F1
:10F1F000EA0CFB1C0C1D1D1D81E090E0A0E0B0E0BE
:10F20000282239224A225B2235E1220C331C441C7D
:10F21000551C3A95D1F7E20CF31C041D151D57013E
:10F220006801AA0CBB1CCC1CDD1C85E192EE60E0E1
:10F230000F94C2F1C801AA27BB270F940DF2BB2778
:10F24000A12F902F8F2D0F940DF28E2D0F940DF274
:10F2500090E29093C6008091C00086FFFCCF809121
:10F26000C00080648093C000AEE3A093C60080918C
:10F27000C00086FFFCCF8091C00080648093C000F6
:10F28000C601AA27BB270F940DF2BB27AD2D9C2DDD
:10F290008B2D0F940DF28A2D0F940DF20F94DCF14B
:10F2A000CC5DDE4FE881F981C452D140F99709F471
:10F2B0004DCBF4E0EF2EF12C012D112D6E0C7F1CA7
:10F2C000801E911EF2CD83E093EE62E00F94F5F183
:10F2D0008AE192EE60E00F94C2F18091C00087FF56
:10F2E000FCCF1091C6001F751093C6008091C0001E
:10F2F00086FFFCCF8091C00080648093C0000F9493
:10F30000DCF1812F81548A3108F036C1163409F4BA
:10F3100095C0173490F4133409F44EC0143430F40B
:10F320001134F1F0123409F01DC130C0143409F465
:10F3300059C0153409F016C16BC01A3409F4C4C0A1
:10F340001B3438F4173409F48FC0183409F00AC19B
:10F35000A1C01B3409F4D2C01C3409F003C1E8C0B9
:10F360008FEF81B90DC082B1809582B980E090E0C5
:10F37000E0EDF7E03197F1F70196883C9105C1F790
:10F380008091C00087FFEFCF12B8EFC08FEF84B934
:10F390000DC085B1809585B980E090E0E0EDF7E0A3
:10F3A0003197F1F70196883C9105C1F78091C00033
:10F3B00087FFEFCF15B8D9C08FEF87B90DC088B1DF
:10F3C000809588B980E090E0E0EDF7E03197F1F7C3
:10F3D0000196883C9105C1F78091C00087FFEFCF6F
:10F3E00018B8C3C08FEF8AB90DC08BB180958BB9A7
:10F3F00080E090E0E0EDF7E03197F1F70196883C8E
:10F400009105C1F78091C00087FFEFCF1BB8ADC059
:10F410008FEF8DB90DC08EB180958EB980E090E0F0
:10F42000E0EDF7E03197F1F70196883C9105C1F7DF
:10F430008091C00087FFEFCF1EB897C08FEF80BBD1
:10F440000DC081B3809581BB80E090E0E0EDF7E0F6
:10F450003197F1F70196883C9105C1F78091C00082
:10F4600087FFEFCF11BA81C08FEF83BB0DC084B38C
:10F47000809584BB80E090E0E0EDF7E03197F1F714
:10F480000196883C9105C1F78091C00087FFEFCFBE
:10F4900014BA6BC08FEF809301010FC080910201FD
:10F4A00080958093020180E090E0E0EDF7E03197F5
:10F4B000F1F70196883C9105C1F78091C00087FF64
:10F4C000EDCF1092020151C08FEF809304010FC065
:10F4D0008091050180958093050180E090E0E0ED4A
:10F4E000F7E03197F1F70196883C9105C1F78091DB
:10F4F000C00087FFEDCF1092050137C08FEF8093DA
:10F5000007010FC08091080180958093080180E079
:10F5100090E0E0EDF7E03197F1F70196883C910536
:10F52000C1F78091C00087FFEDCF109208011DC088
:10F530008FEF80930A010FC080910B01809580931B
:10F540000B0180E090E0E0EDF7E03197F1F70196F4
:10F55000883C9105C1F78091C00087FFEDCF1092E4
:10F560000B0103C085E292EEEEC98091C00087FFD7
:10F57000FCCF8091C600EAC988E392EEE4C98CE131
:10F5800091EEE1C988249924933011F1943028F444
:10F59000913089F09230B8F408C0953061F195301F
:10F5A000F0F0963009F048C043C02B3109F042C951
:10F5B00091E06BE13FC96227C15DDE4F2883CF52E6
:10F5C000D14092E037C9B22FA0E0622793E032C960
:10F5D000822F90E0A82BB92B622794E02BC92E3004
:10F5E00009F039C3622795E0C05DDE4F19821882A9
:10F5F000C053D1401FC9E1E0F0E0EC0FFD1FC05D3A
:10F60000DE4F08811981C053D140E00FF11F2083E4
:10F610000F5F1F4FC05DDE4F19830883C053D14079
:10F6200062270A171B0709F005C9D80196E002C92D
:10F63000261709F010C303C0973009F0FBC87724E0
:10F640009981933109F412C19431C8F4963009F4C8
:10F65000D8C0973050F4923009F406C1933009F4C1
:10F660006DC0913009F059C253C0913109F477C08F
:10F67000923108F0BBC0903109F04FC2F5C098310B
:10F6800009F487C0993150F4953109F4EFC09531F0
:10F6900008F4C6C1963109F040C2C2C19A3109F4DA
:10F6A0006CC09A3108F491C09B3109F45BC09D3164
:10F6B00009F033C29D81903359F48F81882311F46E
:10F6C0009EE11CC0813011F091E018C098E916C08D
:10F6D000892F807591F0903539F4E0E0F0E089E011
:10F6E0008093570094910AC0983539F4E3E0F0E034
:10F6F00089E080935700949101C090E01A821B82A8
:10F700008D818C831D829E831F8227E030E009C299
:10F710001A8288E08B8381E48C8386E58D8382E581
:10F720008E8389E48F8383E5888780E589878FE5E9
:10F730008A8782E38B872BE030E0F3C18A818139AD
:10F7400041F0823941F0803911F48FE005C080E04A
:10F7500003C082E001C08AE01A828B8344C0772410
:10F76000739482C08D81882311F48EE12CC0813086
:10F7700011F081E028C088E926C01A82E1E0F0E0BB
:10F7800089E08093570084918B831C8224E030E0D1
:10F79000C8C18B81803589F48C81883039F4E2E0EE
:10F7A000F0E089E08093570084910DC0E0E0F0E044
:10F7B00089E080935700849106C0E3E0F0E089E09F
:10F7C0008093570084911A82DFCF8D81836C99E0FA
:10F7D000E1E0F0E0082E90935700E89507B600FCB2
:10F7E000FDCF1A821B8223E030E09BC180EC8A832C
:10F7F000CE5CDE4F188219821A821B82C253D1401E
:10F800008EC18A8190E0A0E0B0E0582F44273327D2
:10F8100022278B8190E0A0E0B0E0DC0199278827C7
:10F82000282B392B4A2B5B2B8D8190E0A0E0B0E098
:10F83000282B392B4A2B5B2B8C8190E0A0E0B0E089
:10F84000BA2FA92F982F8827282B392B4A2B5B2BCF
:10F85000220F331F441F551FC05EDE4F288339839C
:10F860004A835B83C052D1401A8259C13A81C95C34
:10F87000DE4F3883C753D140CA5CDE4F1882C6536F
:10F88000D1408B81C82EDD24CA5CDE4F488159816E
:10F89000C653D140C42AD52A933109F082C0CE5C28
:10F8A000DE4F88819981AA81BB81C253D1408050AB
:10F8B000904CA340B04030F583E0CE5CDE4FE88052
:10F8C000F9800A811B81C253D140F70100935B008C
:10F8D00080935700E89507B600FCFDCFCE5CDE4F65
:10F8E000088119812A813B81C253D14000501F4FAA
:10F8F0002F4F3F4FCE5CDE4F088319832A833B8313
:10F90000C253D140C05EDE4F488159816A817B81FC
:10F91000C052D140DE011B9631E08C9111962C91A2
:10F9200011971296C75CDE4F2883C953D140C85C3B
:10F93000DE4F1882C853D14090E0C85CDE4FE881AA
:10F94000F981C853D1408E2B9F2B0C01FA01609393
:10F950005B0030935700E89511244E5F5F4F6F4F67
:10F960007F4F0EEFE02E0FEFF02ECE0CDF1CC114F8
:10F97000D10499F685E0C05EDE4F088119812A81A5
:10F980003B81C052D140F80120935B008093570027
:10F99000E89507B600FCFDCF81E180935700E8951C
:10F9A00035C0C05EDE4F88819981AA81BB81C0527B
:10F9B000D140B695A795979587957C018601ABE0D8
:10F9C000AA2EB12CAC0EBD1E0BC0D5016D915D01F0
:10F9D000C7010F947FFE0894E11CF11C01501040F8
:10F9E0000115110591F7A60160E070E0440F551F65
:10F9F000661F771FC05EDE4FE880F9800A811B8199
:10FA0000C052D1404E0D5F1D601F711F1A82C05E33
:10FA1000DE4F488359836A837B83C052D1407FC0C5
:10FA2000FA80C55CDE4FF882CB53D140C65CDE4F16
:10FA30001882CA53D1408B81C82EDD24C65CDE4FAC
:10FA400008811981CA53D140C02AD12A1A828981DA
:10FA5000BE016D5F7F4F843121F59601C05EDE4FA0
:10FA6000E880F9800A811B81C052D1400BBFF701A9
:10FA700087919691DB018C9311969C936E5F7F4FDB
:10FA8000D801C7010296A11DB11DC05EDE4F88835B
:10FA90009983AA83BB83C052D14022503040F1F6F3
:10FAA00036C0C05EDE4F288139814A815B81C052F9
:10FAB000D1400894C108D108760100E010E0089414
:10FAC000C11CD11C0894E11CF11C011D111DE20E8A
:10FAD000F31E041F151F21BDBB27A52F942F832FB5
:10FAE00082BD2F5F3F4F4F4F5F4FF89A80B5DB01CC
:10FAF0008D93BD012E153F054007510761F7C05E8C
:10FB0000DE4F288339834A835B83C052D1409601FC
:10FB10002D5F3F4FFB01108204C080EC8A8322E0FE
:10FB200030E08BE18093C6008091C00086FFFCCF5F
:10FB30008091C00080648093C000C15DDE4FF88179
:10FB4000CF52D140F093C6008091C00086FFFCCF19
:10FB50008091C00080648093C000432F3093C60022
:10FB60008091C00086FFFCCF8091C00080648093AC
:10FB7000C000922F2093C6008091C00086FFFCCF6A
:10FB80008091C00080648093C0008EE08093C600A6
:10FB90008091C00086FFFCCF8091C000806480937C
:10FBA000C00065E1C15DDE4FE880CF52D1406E25D7
:10FBB00069276427FE01319610C090819093C6009A
:10FBC0008091C00086FFFCCF31968091C000806498
:10FBD0008093C0006927215030402115310569F715
:10FBE0006093C6008091C00086FFFCCF8091C0006A
:10FBF00080648093C00085B1805885B9772081F4F6
:10FC0000C15DDE4F0881CF52D1400F5FC15DDE4F35
:10FC10000883CF52D14090E0A0E0B0E00D941AF4F8
:10FC200027982F9880E090E020ED37E0F901319798
:10FC3000F1F7019684369105C9F700008091C00064
