:10000000D0C60000FFC60000FDC60000FBC6000011
:10001000F9C60000F7C60000F5C60000F3C60000F0
:10002000F1C60000EFC60000EDC60000EBC6000000
:10003000E9C60000E7C60000E5C60000E3C6000010
:10004000E1C60000DFC60000DDC60000DBC6000020
:10005000D9C60000D7C60000D5C600000C94C5194B
:10006000D1C600000C94391A0C940F1ACBC60000AC
:10007000C9C60000C7C60000C5C60000C3C6000050
:10008000C1C60000BFC60000BDC60000BBC6000060
:10009000B9C60000B7C60000B5C60000B3C6000070
:1000A000B1C60000AFC60000ADC60000ABC6000080
:1000B000A9C60000A7C60000A5C60000A3C6000090
:1000C000A1C600009FC600009DC600009BC60000A0
:1000D00099C6000097C6000095C6000093C60000B0
:1000E00091C60000556E7265636F676E697A6564CC
:1000F00020636F6D6D616E640020616E6420004945
:100100006E76616C69643A2072616E67652069730E
:10011000206265747765656E200020005365742049
:10012000646576696365207072696D6172792061BA
:1001300064647265737320746F3A2000546861744C
:10014000206973206D792061646472657373212066
:1001500041646472657373206F6620612072656DFF
:100160006F746520646576696365206973207265C4
:100170007175697265642E00496E76616C69643AC6
:100180002076616C69642074696D6F75742072618A
:100190006E67652069732031202D20333230303076
:1001A000206D732E00206D696C6C697365636F6ED2
:1001B000647300536574205B726561645F746D6F76
:1001C0005F6D735D20746F3A2000496E76616C69D3
:1001D000643A20657870656374656420454F5320E8
:1001E00076616C7565206F662030202D20330053BA
:1001F000657420454F5320746F3A2000496E766134
:100200006C69643A20657870656374656420454F55
:10021000492076616C7565206F662030206F7220F2
:10022000310053657420454F4920617373657274C2
:10023000696F6E3A2000496E74657266616365206D
:100240006D6F64652073657420746F3A2000496E89
:1002500076616C69643A206D6F6465206D757374A6
:100260002062652030206F72203100496E76616C0B
:1002700069643A20657870656374656420454F54FD
:100280002076616C7565206F662030206F7220319A
:1002900000417070656E64696E67206F6620454F1F
:1002A00054206368617261637465723A2000496E1C
:1002B00076616C69643A2065787065637465642062
:1002C000454F5420636861726163746572204153C5
:1002D0004349492076616C756520696E20746865B4
:1002E0002072616E67652030202D20323535004543
:1002F0004F542073657420746F2041534349492043
:100300006368617261637465723A20004175746F4D
:10031000206D6F64653A20002020202020202020BE
:10032000202761646472657373656420746F207440
:10033000616C6B20627574206E6F7468696E6720E3
:10034000746F2073617927206572726F7273005722
:1003500041524E494E473A206175746F6D6F646526
:10036000204F4E2063616E20636175736520736F4B
:100370006D65206465766963657320746F206765B9
:100380006E6572617465004175746F6D6F64653A76
:100390002076616C69642072616E676520697320E4
:1003A0005B302D64697361626C657C312D50726FB6
:1003B0006C6F6769787C322D6F6E2D7175657279FF
:1003C0007C332D636F6E74696E756F75735D2E006F
:1003D0004152343838204750494220636F6E74725E
:1003E0006F6C6C65722C207665722E20302E34383E
:1003F0002E30332C2030332F30312F32303230003A
:100400004152343838204750494220636F6E74722D
:100410006F6C6C65722C207665722E20302E34380D
:100420002E30332C2030332F30312F323032300009
:10043000496E76616C6964207465726D696E617471
:10044000696F6E20636861726163746572202D202C
:1004500069676E6F72656421004661696C6564202E
:10046000746F20756E74616C6B2047504942206236
:100470007573004661696C656420746F2073656EE6
:100480006420534443004661696C656420746F20A6
:1004900061646472657373206465766963650046A0
:1004A00061696C656420746F20756E6C6973746526
:1004B0006E2074686520475049422062757300467B
:1004C00061696C656420746F2073656E64204C4CA8
:1004D0004F20746F20646576696365004661696CBE
:1004E000656420746F20616464726573732074683E
:1004F00065206465766963652E004661696C656494
:1005000020746F2073656E6420756E6976657273F2
:10051000616C204C4C4F2E004661696C6564207400
:100520006F20756E6C697374656E20475049422068
:100530006275732E004661696C65642073656E6434
:10054000696E67204C4F432E004661696C656420DC
:10055000746F206164647265737320646576696387
:10056000652E00494643207369676E616C20617394
:1005700073657274656420666F7220313530206D4A
:100580006963726F7365636F6E64730047726F7532
:1005900070207472696767657220636F6D706C6537
:1005A0007465642E004661696C656420746F207503
:1005B0006E6C697374656E20475049422062757392
:1005C000004661696C656420746F207472696767A6
:1005D000657220646576696365004661696C65646F
:1005E00020746F206164647265737320646576693A
:1005F000636500496E76616C69643A2047504942F0
:10060000207072696D6172792061646472657373C0
:1006100020697320696E207468652072616E676559
:100620002031202D203330005265736574204641FF
:10063000494C45442E0053657269616C20706F6CA3
:100640006C20636F6D706C657465642E0046616923
:100650006C656420746F20726574726965766520BC
:100660007374617475732062797465005D206672BD
:100670006F6D2064657669636520617420616464D0
:10068000726573733A20005265636569766564200C
:100690007374617475732062797465205B002C003B
:1006A0005352513A00496E76616C696420706172F0
:1006B000616D6574657200496E76616C69643A209B
:1006C00047504942206164647265737365732061A9
:1006D000726520696E207468652072616E6765209E
:1006E000312D33300053657269616C20706F6C6C12
:1006F000206F6620616C6C20646576696365732089
:100700007265717565737465642E2E2E0053525197
:1007100020756E2D61737365727465642E0053527B
:10072000512061737365727465642E00496E766141
:100730006C69643A206578706563746564206279D9
:1007400074652076616C756520696E20746865201B
:1007500072616E67652030202D203235350053657B
:100760007474696E67732073617665642E005365D7
:100770007474696E67732073617665642E004C4FE4
:100780004E3A2076616C69642072616E67652069FB
:1007900073205B302D64697361626C657C312D65FB
:1007A0006E61626C655D2E004C4F4E3A2000544FD6
:1007B0004E3A2076616C69642072616E67652069CB
:1007C00073205B302D64697361626C657C312D65CB
:1007D0006E61626C655D2E00544F4E3A2000536589
:1007E0006E64696E672044434C206661696C656481
:1007F00000506172616C6C656C20706F6C6C206372
:100800006F6D706C657465642E0052454E3A200021
:10081000496E76616C69643A2065787065637465C9
:100820006420303D64652D6173736572742C2031D2
:100830003D617373657274004368616E676564201F
:1008400076657273696F6E20737472696E67207457
:100850006F3A2000496E76616C69643A2065787061
:10086000656374656420303D64697361626C652002
:100870006F7220313D656E61626C65004D69737306
:10088000696E6720706172616D6574657273004D89
:10089000697373696E6720706172616D65746572EA
:1008A0000044697361626C656400496E76616C69CD
:1008B000643A20303D64617461206275733B20317D
:1008C0003D636F6E74726F6C2062757300496E7653
:1008D000616C69643A20657870656374656420456D
:1008E0004F542063686172616374657220415343A1
:1008F00049492076616C756520696E2074686520B1
:1009000072616E67652030202D2033302C303030FE
:1009100000544D6275732073657420746F3A200023
:1009200020746F206465766963650067706962533F
:10093000656E64436D643A206661696C6564207419
:100940006F2073656E6420636F6D6D616E6420004F
:100950006770696253656E64446174613A204661F0
:10096000696C656420746F20756E6C697374656E54
:10097000206275730020746F206C697374656E005B
:100980006770696253656E64446174613A206661A0
:10099000696C656420746F20616464726573732090
:1009A00064657669636520006770696253656E648B
:1009B000446174613A204661696C656420746F20FB
:1009C000756E74616C6B206275730067706962523A
:1009D000656365697665446174613A2074696D6523
:1009E0006F75742077616974696E6720666F722015
:1009F0007472616E7366657220746F20636F6D70C0
:100A00006C657465006770696252656365697665D7
:100A1000446174613A2074696D656F757420776103
:100A20006974696E6720666F722074616C6B6572A1
:100A300000454F4920646574656374656421004214
:100A40007974657320726561643A200020746F20A8
:100A500074616C6B004661696C656420746F206121
:100A60006464726573732074686520646576696375
:100A700065006770696252656164427974653A2005
:100A800074696D656F75742077616974696E67202C
:100A900044415620746F20676F20484947480067DB
:100AA00070696252656164427974653A2074696D57
:100AB000656F75742077616974696E6720666F72FF
:100AC0002044415620746F20676F204C4F570067B9
:100AD0007069625772697465427974653A20746905
:100AE0006D656F75742077616974696E6720666FD4
:100AF0007220646174612061636365707465642051
:100B00005B4E44414320756E617373657274656416
:100B10005D00677069625772697465427974653AFD
:100B20002074696D656F7574207265636569766997
:100B30006E67202D205B4E524644206173736572B0
:100B40007465645D006770696257726974654279A3
:100B500074653A2074696D656F7574207761697486
:100B6000696E6720666F722072656365697665726B
:100B7000207265616479202D205B4E5246442075B9
:100B80006E61737365727465645D00677069625746
:100B900072697465427974653A2074696D656F7520
:100BA000742077616974696E6720666F7220726560
:100BB00063656976657220617474656E74696F6EC1
:100BC000205B4E4441432061737365727465645DBC
:100BD0000000002100240027002A002D00300033EF
:100BE0000001010000040107010A0153656E6469F8
:100BF0006E672073746174757320627974653A202E
:100C0000005352512062697420636C65617265649F
:100C10002028696620736574292E005374617475E9
:100C2000732073656E742E0053657269616C207059
:100C30006F6C6C2072657175657374207265636585
:100C4000697665642066726F6D20636F6E74726F73
:100C50006C6C6572202D3E003C2D207365726961BD
:100C60006C20706F6C6C2072657175657374206593
:100C70006E6465642E0000002200250028002B0011
:100C80002E003100340002010000050108010B01B3
:100C9000000020002300260029002C002F00320035
:100CA000000100000301060109010505050507050E
:100CB00008080808020202020A0A080804040404D8
:100CC0000101010101010101030303030303030304
:100CD000040707070C0C0C0C0C0C0C0C0202020293
:100CE00006060606060606060B0B0B0B0B0B0B0B7C
:100CF000010210202008081020401020408002012E
:100D00000201080402010102040810204080804012
:100D10002010080402018004020180402010080411
:100D200002010804020101020408102040800102AF
:100D300004081020408000000A0B02090C0D0E0868
:100D40000703040100000000000000000000000094
:100D50000000000000000000000000000000000093
:100D60000000121110000000000000000000000050
:100D7000000000000000000000000000436F6D6DE7
:100D8000616E64206E6F7420617661696C61626C63
:100D90006520696E2074686973206D6F64652E002C
:100DA000851C11241FBECFEFD1E2DEBFCDBF00E016
:100DB0000CBF25E0A6E2B4E001C01D92AE39B20737
:100DC000E1F714E0A0E0B2E0EEE0FBE300E00BBFEF
:100DD00002C007900D92A632B107D9F716E0C1ED17
:100DE000D6E000E006C021970109802FFE010E9495
:100DF000391DC03DD10780E00807A9F70E946F1A8E
:100E00000C94851DFDC88150823108F05AC0E82F2E
:100E1000F0E08827E15FF84F8F4F0C94391D2F07C2
:100E20003307210727072B07610736073C074007D1
:100E300046074A074E075407580761075C076207D1
:100E40006607809180008F7780938000089580915D
:100E500080008F7DF9CF80918000877FF5CF84B5AA
:100E60008F7784BD089584B58F7DFBCF8091B000CE
:100E70008F778093B00008958091B0008F7DF9CF77
:100E8000809190008F7780939000089580919000DA
:100E90008F7DF9CF80919000877FF5CF8091A00062
:100EA0008F778093A00008958091A0008F7DF9CF67
:100EB0008091A000877FF5CF809120018F7780936C
:100EC00020010895809120018F7DF9CF809120012C
:100ED000877FF5CFCF93DF93282F30E0F901EA5CCD
:100EE000F24F8491F901E051F34FD491F901E655A5
:100EF000F34FC491CC2399F0811185DFEC2FF0E002
:100F0000EE0FFF1FE057F34FA591B491EC91ED2345
:100F100081E090E009F480E0DF91CF91089580E0D6
:100F200090E0FACF1F93CF93DF93282F30E0F901A1
:100F3000EA5CF24F8491F901E051F34FD491F90149
:100F4000E655F34FC491CC23A1F0162F81115BDF3E
:100F5000EC2FF0E0EE0FFF1FEA58F34FA591B4918C
:100F60008FB7F894EC91111108C0D095DE23DC9373
:100F70008FBFDF91CF911F910895DE2BF8CF823084
:100F8000910538F0880F991F880F991F05970197D1
:100F9000F1F708953FB7F8948091D6049091D70463
:100FA000A091D804B091D90426B5A89B05C02F3FC5
:100FB00019F00196A11DB11D3FBFBA2FA92F982F7F
:100FC0008827BC01CD01620F711D811D911D42E07A
:100FD000660F771F881F991F4A95D1F708958F9242
:100FE0009F92AF92BF92CF92DF92EF92FF926B01EE
:100FF0007C01D0DF4B015C01C114D104E104F10498
:10100000B1F0C8DF681979098A099B09683E734005
:101010008105910588F321E0C21AD108E108F108A1
:1010200088EE880E83E0981EA11CB11CE5CFFF90CE
:10103000EF90DF90CF90BF90AF909F908F900895EA
:10104000DC01ED91FC910190F081E02D1994EF927B
:10105000FF920F931F93CF93DF938C017B01D0E01E
:10106000C0E0F701EC0FFD1F6491662361F0D80129
:10107000ED91FC910190F081E02DC8011995892B2B
:1010800011F02196EECFCE01DF91CF911F910F91FC
:10109000FF90EF900895AF92BF92CF92DF92EF92C0
:1010A000FF920F931F93CF93DF936C017B018B0112
:1010B000040F151FEB015E01AE18BF08C017D10762
:1010C00059F06991D601ED91FC910190F081E02DEC
:1010D000C6011995892B79F7C501DF91CF911F9131
:1010E0000F91FF90EF90DF90CF90BF90AF90089559
:1010F000FC01538D448D252F30E0842F90E0821B1E
:10110000930B541710F0CF96089501970895FC01A2
:10111000918D828D981761F0A28DAE0FBF2FB11DFA
:101120005D968C91928D9F5F9F73928F90E0089552
:101130008FEF9FEF0895FC01918D828D981731F00C
:10114000828DE80FF11D858D90E008958FEF9FEF60
:101150000895FC01918D228D892F90E0805C9F4F36
:10116000821B91098F73992708958BE294E0F1DF38
:1011700021E0892B09F420E0822F0895FC01A48D41
:10118000A80FB92FB11DA35ABF4F2C91848D90E0A9
:1011900001968F739927848FA689B7892C93A0898C
:1011A000B1898C91837080648C93938D848D981316
:1011B00006C00288F389E02D80818F7D80830895A9
:1011C000EF92FF920F931F93CF93DF93EC0181E097
:1011D000888F9B8D8C8D98131AC0E889F98980813E
:1011E00085FF15C09FB7F894EE89FF896083E88971
:1011F000F98980818370806480839FBF81E090E063
:10120000DF91CF911F910F91FF90EF900895F62EEF
:101210000B8D10E00F5F1F4F0F731127E02E8C8D89
:101220008E110BC00FB607FCFACFE889F9898081CF
:1012300085FFF5CFCE01A2DFF2CFEB8DEC0FFD2FB6
:10124000F11DE35AFF4FF0829FB7F8940B8FEA89A4
:10125000FB8980818062D0CFCF93DF93EC01888DB2
:101260008823B1F0AA89BB89E889F9898C9185FD29
:1012700003C0808186FD0CC00FB607FCF7CF8C91B0
:1012800085FFF2CF808185FFEDCFCE0177DFEACFFA
:10129000DF91CF910895EF92FF920F931F93CF9319
:1012A000DF93C82FD0E0E62FF0E08F0196E0159590
:1012B00007959A95E1F723E0000F111F2A95E1F7B2
:1012C0000870661F6627661F660F600F7F0135E096
:1012D000F594E7943A95E1F7F694FE2CEE24F79412
:1012E000E7949F0174E0359527957A95E1F7220FF1
:1012F000331F722F72709F013595279513E0220FCF
:10130000331F1A95E1F72870DF01AA0FBB1FA270E7
:101310002A2BDF01B595A795B595A79535E0AA0FBE
:10132000BB1F3A95E1F7A07253E0F595E7955A9502
:10133000E1F7F695FE2FEE27F795E795EA0FE20F16
:10134000562F50958E0196E0159507959A95E1F7E1
:1013500023E0000F111F2A95E1F70870881F8827E6
:10136000881F880F080F06231E2D10959E0165E02B
:10137000359527956A95E1F73695322F22273795CF
:101380002795E222F72EF0949E01A4E0359527954B
:10139000AA95E1F7220F331F7223FE2FF095DE018D
:1013A000B595A79593E0AA0FBB1F9A95E1F7A87092
:1013B0009E01220F331F2270A22BCE019595879597
:1013C0009595879525E0880F991F2A95E1F78072FA
:1013D0009E0163E0359527956A95E1F73695322FA2
:1013E000222737952795280F2A0F2E234130C9F041
:1013F00085B15823052B05B98BB11823E12AEBB829
:1014000094B39F21972B94BBE0910B01EF232E2BDC
:1014100020930B01DF91CF911F910F91FF90EF90DF
:10142000089584B15823052B04B98AB11823E12A01
:10143000EAB893B39F21972B93BBE0910A01EF2366
:101440002E2B20930A01E6CF91B1956591B997B102
:101450009A6A97B98095282F30E0881F8827881FBF
:10146000982F9295990F990F907C24FB882780F9EB
:10147000892BA9015695542F442757954795842BBE
:10148000A90163E0559547956A95E1F7440F551F0B
:101490004270842BA9015595479555954795F3E0E2
:1014A000440F551FFA95E1F74870842BA901559513
:1014B0004795B5E0440F551FBA95E1F74072842B6C
:1014C000A90196E0559547959A95E1F764E0440F98
:1014D000551F6A95E1F74071842B75E03595279586
:1014E0007A95E1F7220F331F220F331F2470822BCE
:1014F00092B19A7A282F2575922B92B998B1957549
:101500008A7A892B88B9089590B186B195758A7ABF
:10151000982B9095292F30E0A9015595479563E0C8
:10152000440F551F6A95E1F74870B901E3E07595DE
:101530006795EA95E1F7660F771F660F771F862F8D
:101540008470842BA901A5E055954795AA95E1F7EC
:10155000440F551F4270842BB90146E0759567957D
:101560004A95E1F77695762F662777956795A901D5
:1015700074E0440F551F7A95E1F74071462BB9018D
:10158000E4E075956795EA95E1F7F6E0660F771F59
:10159000FA95E1F76074462B359527953595279593
:1015A000B5E0220F331FBA95E1F72072242B991F63
:1015B0009927991F892B822B08958250883088F4AF
:1015C000E82FF0E041E08827E751F54F8F4F0C946A
:1015D000391DF90AFF0A120B0B0B150B1C0B220B02
:1015E000290B41E06FEF88EB56DE40E06FEF8FEDA7
:1015F0000CC06EE988EB4FDE40E06EE9F8CF6FE992
:1016000089EB49DE40E06FE98FE545DE8091170503
:1016100090911805B4CC6EE986EA3DDE40E06EE9B3
:1016200088EDF3CF6EE989EBE6CF6FEF80E033DE34
:1016300040E06FEF8FEFE9CF6EE080E02CDE40E01E
:101640006EE0F8CF6EE086E026DE40E06EE089EFE7
:10165000DCCF6EE088E0F8CFBF92CF92DF92EF92BE
:10166000FF920F931F93CF93DF93C82FB62E2FB700
:10167000F8948091D2049091D304A091D404B091B5
:10168000D5042FBF6A01550FEE08FF08C80ED91EFA
:10169000EA1EFB1E84E31EDC8C01D0E08B2D1ADCDD
:1016A0008C179D0719F12FB7F8948091D20490916F
:1016B000D304A091D404B091D5042FBF8C159D05FF
:1016C000AE05BF0558F081E0DF91CF911F910F91DA
:1016D000FF90EF90DF90CF90BF9008950115110516
:1016E000E9F684E3F7DB0197C9F6EDCF80E0ECCFB4
:1016F00041E060E480E0CFDD40E060E480E4CBCD19
:101700009091CE04E92FF0E0E75EFA4F80839F5F6F
:101710009093CE040895EAEDF4E08FE3DF011D928B
:101720008A95E9F78CEC808382E0838381E085836E
:1017300080EB94E0938782870895EDCFE9E1F5E0AF
:1017400080E8DF011D928A95E9F71092CE04089592
:10175000FB0101900020E9F73197AF01461B570BC1
:10176000DC01ED91FC910280F381E02D19948F92C0
:101770009F92AF92BF92EF92FF920F931F93CF93DE
:10178000DF93CDB7DEB7A1970FB6F894DEBF0FBEDB
:10179000CDBF7C01FA01CB0119A2223008F42AE066
:1017A0008E010F5D1F4F822E912CB12CA12CBF01F9
:1017B000A50194010E94171DF901CA016A3004F5C0
:1017C000605DD8016E938D01232B242B252B79F797
:1017D00090E080E0109719F0BD01C701B9DFA19634
:1017E0000FB6F894DEBF0FBECDBFDF91CF911F9132
:1017F0000F91FF90EF90BF90AF909F908F900895C2
:10180000695CDFCFCF92DF92EF92FF920F931F932D
:10181000CF93DF936B01770FEE08FF08F7FE19C037
:10182000EC016DE20DDC8C0144275527BA014C19FF
:101830005D096E097F092AE0CE0199DF800F911FB3
:10184000DF91CF911F910F91FF90EF90DF90CF909C
:1018500008952AE0B701A601DF91CF911F910F9162
:10186000FF90EF90DF90CF9082CF6EED72E070CF5F
:10187000CF92DF92EF92FF920F931F93CF93DF935C
:101880008C016B01770FEE08FF08F7FE1CC06DE2BC
:10189000D7DBEC0144275527BA014C195D096E09C5
:1018A0007F092AE0C80163DFC80FD91FC801DDDF47
:1018B0008C0F9D1FDF91CF911F910F91FF90EF90A3
:1018C000DF90CF9008952AE0B701A60150DFEC0128
:1018D000EDCF82E3FFDA61E070E0892B11F070E078
:1018E00060E08BE294E0C4CF0F931F93CF93DF931C
:1018F000EC01AB0170E060E02AE039DF8C01CE0141
:10190000B4DF800F911FDF91CF911F910F91089548
:101910000F931F93CF93DF93EC01462F50E070E0BD
:1019200060E02AE024DF8C01CE019FDF800F911F51
:10193000DF91CF911F910F9108950F931F93CF9334
:10194000DF938C01D0E0C0E06115710511F000DF7C
:10195000EC01C8018ADF8C0F9D1FDF91CF911F9191
:101960000F9108950F931F93CF93DF93EC016FDBDB
:101970008C01CE017ADF800F911FDF91CF911F91F3
:101980000F910895CF93C82F4091E4045091E5043E
:101990006EE280E061DE882371F0C0919A05C1118A
:1019A00004C0C1E08C2FCF9108956BE87BE08BE2FF
:1019B00094E0D8DFF7CF4091E4045091E5046CE265
:1019C00081E04ADE882339F0C0919A0565E47BE026
:1019D000CC2339F3ECCF8C2F37DD40E068E080E09A
:1019E0005ADC4091E4045091E5046CE280E034DE7E
:1019F000882339F0C0919A0562E17BE0CC2389F21B
:101A0000D6CF4091E4045091E5046EE281E024DEFB
:101A1000C82F882341F0C0919A05CC2309F4C1CF87
:101A20006FEC7AE0C4CF40E068E088E034DC80E02E
:101A30000BDD8091170590911805A1DAB3CF0F93B4
:101A40001F93CF93DF93EC0184E344DA8C0140E0F1
:101A500064E084E020DC012B71F484E33BDA01973D
:101A600051F440E064E080E016DC83E0DF91CF9148
:101A70001F910F9108954091E4045091E5046AE2AA
:101A800080E0EADD882379F080919A05882329F0A7
:101A90006FE97AE08BE294E065DF40E064E080E0AB
:101AA000FADB81E0E3CF40E064E080E0F4DB8091AA
:101AB000C904882339F088E20DDA892B19F485E00E
:101AC0008093C80421DD888340E062E082E0E3DBAC
:101AD0004091E4045091E5046AE281E0BDDD882391
:101AE00059F080919A05882329F062E77AE08BE229
:101AF00094E038DF82E0BACF40E062E080E0CBDB08
:101B000080911705909118053ADA80E0AFCFCF9316
:101B1000DF93C82F83E051DD8C2F34DFD82F88234B
:101B2000B1F080919A05882391F06BE279E08BE225
:101B300094E08DDA4C2F50E070E060E020E18BE221
:101B400094E015DE60E279E08BE294E00BDF8D2F0C
:101B5000DF91CF91089583E790E00197F1F78FE34C
:101B6000D6DF811102C08FE5D2CF0895CF93DF93E6
:101B7000C82FD62F8FE3CBDF811116C0DD2359F09C
:101B800080E48C0FC4DF81110FC08091DE04805E81
:101B9000DF91CF91BCCF80E28C0FB9DF811104C0FF
:101BA0008091DE04805CF4CF81E0DF91CF910895D5
:101BB000EF92FF920F931F93CF93DF932091CA046C
:101BC000211174C0C62F8C018091DD04823009F090
:101BD0006BC060E08091DF04C9DF8823F1F0809161
:101BE0009A05882309F462C060E879E08BE294E00A
:101BF0002EDA4091DF0450E070E060E02AE08BE2F2
:101C000094E0B5DD65E779E08BE294E0DF91CF9178
:101C10001F910F91FF90EF90A5CE84E0CEDC78016C
:101C2000D0E0C701801B910B8C179D072CF4F701A6
:101C300081917F01A7DEF5CF8091E10481FD02C093
:101C40008DE0A0DE8091E10480FD02C08AE09ADE92
:101C50008091DC04882361F040E060E180E01BDBE0
:101C60008BE990E00197F1F740E060E180E113DB60
:101C70008091DD048230A1F46EDF882349F08091E9
:101C80009A05882329F060E579E08BE294E06ADE2A
:101C900082E0DF91CF911F910F91FF90EF908DCC5B
:101CA000813021F487E0F5CF89E0B8CFDF91CF9183
:101CB0001F910F91FF90EF90089525E0FC01119284
:101CC0002A95E9F761EA78E08BE294E04BCECF9376
:101CD000DF9382E072DCCBE4D0E0CE010197F1F734
:101CE00040E060E980E0D7DA2197F1F70DDCC82FFA
:101CF00082E063DC6C2F8BE294E00ADE80919A052F
:101D0000882339F061EF77E08BE294E0DF91CF91A7
:101D100029CEDF91CF91089584E1F9DE882349F03F
:101D200080919A05882339F06EED77E08BE294E09C
:101D300019CE82E042CC08952FB7F8948091D20456
:101D40009091D304A091D404B091D5042FBF8053B7
:101D5000984FAF4FBF4F28E13EE00FB6F894A895DB
:101D6000209360000FBE309360002FB7F89440912D
:101D7000D2045091D3046091D4047091D5042FBF44
:101D8000481759076A077B0780F380919A058823D3
:101D900029F068E276E08BE294E0E4CD089580914A
:101DA000DD048823A9F040E061E080E074DA83E597
:101DB00092E00197F1F740E061E081E06CDA809118
:101DC0009A05882329F063E675E08BE294E0CACD9A
:101DD000089560E08091DF04C9DE882339F08091A6
:101DE0009A0566E874E081110BC0089584E08FDEE7
:101DF000882349F080919A058823B9F363E774E05A
:101E00008BE294E0AFCDA7DE882339F080919A056C
:101E100069E574E0882349F3F3CF82E0CECB64EE2A
:101E200070E08BE294E09ECD8F929F92AF92BF9232
:101E3000CF92DF92EF92FF920F931F93CF93DF9396
:101E4000CDB7DEB7C05CD1090FB6F894DEBF0FBEC8
:101E5000CDBFD82EC62EE82EF12C8E010F5F1F4F5E
:101E6000A70169E175E0C8010E94411D67DC10927D
:101E70009B05C701019721E0C212B7C0F801A2E09B
:101E8000EA1AF1089F01201B310B2E153F051CF4A7
:101E900022812193F7CFE00EF11EF7011082800F0F
:101EA000911FDC011C9280919A05882319F08BE226
:101EB00094E0DBDC7E01B1E8EB0EF11C80E4F7017D
:101EC00011928A95E9F78981813009F44EC061EE5B
:101ED00072E0C8010E94CF1C4C0182E1A82E82E072
:101EE000B82E10E000E0B401D5018D919C910E94C4
:101EF0004A1D6C01892B09F45BC00F5F1F4FB6E0D0
:101F0000AB0EB11C0232110571F789DF2EC0EFEF65
:101F1000CE1ADE0A61EE72E090E080E00E94CF1CF3
:101F20005C01DC018C91882369F0B1E0CB16D1040F
:101F300029F06FEE72E0C7010E945D1DB501C70177
:101F40000E945D1DAB2819F786E0809FF001819FFC
:101F5000F00D1124EE5EFD4F0480F581E02DD701D8
:101F60008C91882311F1C701199580919A058823D6
:101F700041F08BE294E079DC64EE72E08BE294E075
:101F8000E7DBC054DF4F0FB6F894DEBF0FBECDBF06
:101F9000DF91CF911F910F91FF90EF90DF90CF9045
:101FA000BF90AF909F908F90089590E080E0DCCF3D
:101FB00086E0809FF001819FF00D1124EE5EFD4FC1
:101FC0008091DD0490E02281338182239323892B49
:101FD00009F09DCF24DF80919A05882331F26CE7C8
:101FE0007DE08BE294E0BEDCC0CF800F911FFC014E
:101FF00080818F3319F481E0809399056D2DC8019C
:10200000D7DDB3CFCF93DF93C091CE04CE3708F0A6
:1020100065C0D82F8D3041F15CF48A3029F1809170
:102020009A05882329F16D2F8BE294E009D820C00E
:102030008B3109F449C08B3291F7809128048823B1
:1020400039F010922804C23018F481E080932704FC
:102050008BE256DB80919A058823B1F06BE28BE22C
:1020600094E00E94200810C080912804882329F061
:102070008D2F46DB1092280407C0C11113C05EDB10
:1020800080919A05811102C0C0E008C08BE294E003
:10209000ECDB64EE72E08BE294E05ADB8C2FDF9194
:1020A000CF910895C33060F0809119058B3241F4CF
:1020B00080911A058B3221F480912704C1E08111AF
:1020C000C2E010922704EACF80912804882311F0FF
:1020D0008BE1CFCF81E080932804D6CFC2E0DECF62
:1020E0008BE294E014D88EDF80939B0508953DD851
:1020F0008111F6DF80E090E0892B49F080E090E0EC
:10210000892B29F00E94000081110E94000080E0CC
:1021100090E0892B49F080E090E0892B29F00E9423
:10212000000081110E94000080E090E0892B49F0BE
:1021300080E090E0892B29F00E94000081110C942E
:1021400000000895EF92FF920F931F93CF93DF93B8
:102150001F92CDB7DEB71092C8048091DD048230A3
:1021600009F086C061E08091DF0400DD8823C1F0C2
:1021700080919A058823A1F065E57AE08BE294E0EE
:102180000E9427084091DF0450E070E060E02AE000
:102190008BE294E0ECDA6CE47AE08BE294E0E2DB50
:1021A0004091E4045091E5046CE281E055DA85E069
:1021B00004DA81B18A7A81B987B1857587B982B12C
:1021C000856582B988B18A6A88B9F12CE12C07E06B
:1021D0008091C80481114EC084E30E946A07019770
:1021E00009F048C0CE0101962ADC182F811143C0A6
:1021F0008091C904811104C08091E304833089F483
:102200008BE294E00E94A908892B59F08BE294E0BC
:102210000E948708F7DE80939B05813011F40093BC
:10222000C8048091C804873029F184E30E946A07BA
:10223000892B01F169818BE294E00E942008809152
:10224000C904882321F09091C804953099F09981B0
:1022500020912A04921304C02091290421110AC05C
:102260009A3011F4882331F08FEFE81AF80AB0CFD2
:1022700088E09ECF10E080919A05882351F06FE3AB
:102280007AE08BE294E00E942708B7018BE294E0A9
:10229000EFDA8091C804853099F480919A058823FB
:1022A00029F061E37AE08BE294E05CDB8091DB046F
:1022B000882331F06091E6048BE294E00E942008CC
:1022C0001123B1F080919A05882339F0113029F457
:1022D00065E07AE08BE294E045DB80919A05882303
:1022E00039F0123029F46BEC79E08BE294E03ADBC0
:1022F0008091DD04823019F52EDC882351F0809125
:102300009A05882331F068EA79E08BE294E00E9434
:1023100027088091DD04823009F44FD98091C804E8
:1023200081111092C80481E0111101C080E00F906A
:10233000DF91CF911F910F91FF90EF90089587E06B
:10234000ECCF80919A0591E0892780939A0567EEFA
:1023500072E08BE294E0FCD980919A0566E073E02C
:10236000882311F06AEF72E08BE294E0E6CACF9323
:10237000DF93009739F10E94B21CEC01C13385E76D
:10238000D80760F04CDD80919A05882321F16DEC2F
:1023900078E08BE294E0DF91CF91E4CAD093180506
:1023A000C093170580919A058823A9F061E179E02F
:1023B0008BE294E00E942708BE018BE294E0DF915B
:1023C000CF9156CA60911705709118058BE294E081
:1023D000DF91CF9189CADF91CF910895CF93DF9399
:1023E00061EE72E00E94CF1C0097A9F0FC01019001
:1023F0000020E9F73197E81BF90B349760F40E944D
:10240000B21CC82F833040F06AEA78E08BE294E097
:10241000DF91CF91A7CAC0E061EE72E090E080E06A
:102420000E94CF1C0097B9F1FC0101900020E9F750
:102430003197E81BF90BD0E0349718F40E94B21CD6
:10244000D82FCC23D1F041E06FEF8FEF0E944B09E2
:1024500040E06FEF8D2F0E944B0960E177E280E052
:1024600090E00E94EF078091DD04823021F481E04A
:10247000DF91CF91A2C886E0FBCF8D2F0E94240A66
:1024800060E177E280E090E00E94EF0780E0DF917A
:10249000CF910C94240ADF91CF910895009731F1E8
:1024A0000E94B21C8230910550F0B9DC80919A05EF
:1024B000882311F164E578E08BE294E053CA019738
:1024C00089F01092CD0480919A058823A9F080911B
:1024D000CD046DEF72E0882311F061EF72E08BE2C2
:1024E00094E02BCA81E08093CD04EDCF6091CD04C0
:1024F00070E08BE294E0BCC908951F93CF93DF9303
:10250000009761F10E94B21CEC0110919A05823093
:10251000910550F0112389F160E178E08BE294E0BD
:10252000DF91CF911F911ECABC0181E0682786E22E
:102530000E949207112309F16AE078E08BE294E0AF
:102540000E9427086AE073E0CD2B11F467E173E085
:102550008BE294E0DF91CF911F91EFC986E20E9458
:102560006A0761E070E0892B11F070E060E08BE2B7
:1025700094E0DF91CF911F917BC9DF91CF911F91A3
:102580000895CF93DF93009781F10E94B21CEC0174
:102590008230910560F043DC80919A05882369F1CF
:1025A0006EEA77E08BE294E0DF91CF91DBC9817036
:1025B0008093CB04CE0121E0822781708093CA04EE
:1025C00080919A058823C9F068ED77E08BE294E06A
:1025D0000E94270866E073E0CD2B11F06AEF72E0ED
:1025E0008BE294E0DF91CF91A8C96091CB0470E0B9
:1025F0008BE294E0DF91CF913BC9DF91CF910895B9
:10260000CF93DF93009781F10E94B21CEC018230DE
:10261000910560F004DC80919A05882369F16EE7EA
:1026200077E08BE294E0DF91CF919CC98170809339
:10263000CA04CE0121E0822781708093CB0480916F
:102640009A058823C9F068EA77E08BE294E00E945B
:10265000270866E073E0CD2B11F06AEF72E08BE2A1
:1026600094E0DF91CF9169C96091CA0470E08BE278
:1026700094E0DF91CF91FCC8DF91CF910895CF9383
:10268000009791F10E94B21CAC01990F660B770B79
:10269000413051406105710548F0C1DB80919A05D8
:1026A0006CE277E0811116C0CF9108958093E20427
:1026B000C0919A0586FF12C041E060E480E40E9468
:1026C0004B0940E060E480E00E944B09CC2361F3B9
:1026D0006EE177E08BE294E0CF9144C909D86DE0D8
:1026E00077E0CC2309F3F6CF6091E2048BE294E02B
:1026F000CF910EC9AF92BF92CF92DF92EF92FF922D
:102700000F931F93CF93DF93CDB7DEB72F970FB6FD
:10271000F894DEBF0FBECDBF5C01CE0101967C01F7
:102720000F96F70111928E179F07E1F7670100E0FE
:10273000A114B104A1F58091DF04898301E0670150
:1027400010E0C6018E199F09801791070CF069C02F
:1027500060E0F60181916F0109DA882309F44BC02A
:1027600080919A056AED75E0882389F18BE294E007
:102770002F960FB6F894DEBF0FBECDBFDF91CF917D
:102780001F910F91FF90EF90DF90CF90BF90AF908F
:10279000E9C8F60181936F010F5F0F3081F261EE9E
:1027A00072E0C501002311F090E080E00E94CF1C90
:1027B0000E94B21C8823E1F09FEF980F9E3148F3EE
:1027C0002EDB80919A0563EF75E08111CFCF2F96B4
:1027D0000FB6F894DEBF0FBECDBFDF91CF911F9132
:1027E0000F91FF90EF90DF90CF90BF90AF90089542
:1027F000002369F3A4CF88E08AD9882339F0809137
:102800009A0561EC75E0882311F3B0CFA4D9882331
:1028100009F497CF80919A0565EA75E08823B9F2AB
:10282000A5CF82E00E94DD0A80919A05882379F283
:102830006CE875E09BCFCF93DF93009791F10E94F6
:10284000B21CEC018430910560F0E9DA80919A05C0
:10285000882371F167E873E08BE294E0DF91CF9118
:1028600081C8892B71F080919A05882351F06FE41B
:1028700073E08BE294E076D868E173E08BE294E059
:1028800071D8C093E304C33011F01092CC0480914E
:102890009A05882369F06CE073E08BE294E00E9473
:1028A00027086091E3048BE294E0DF91CF9130C878
:1028B000DF91CF910895CF93DF93009731F10E947C
:1028C000B21CEC018F3F910569F060F0A8DA8091AD
:1028D0009A05882301F16EEA72E08BE294E0DF91C1
:1028E000CF9140C88093E60480919A05882399F09F
:1028F0006FEE72E08BE294E00E942708BE018BE24B
:1029000094E0DF91CF910C94380C6091E604062E90
:10291000000C770BF4CFDF91CF910895CF93DF9325
:10292000009759F10E94B21CEC018230910560F0D1
:1029300076DA80919A05882349F16BE672E08BE2A2
:1029400094E0DF91CF910EC881708093DB04809179
:102950009A058823D9F061E972E08BE294E00E9445
:10296000270866E073E0CD2B11F06AEF72E08BE28E
:1029700094E0DF91CF910C949D0C6091DB0470E0AA
:102980008BE294E0DF91CF910C94380CDF91CF91E2
:102990000895CF93DF93009709F43CC0E3D7EC018F
:1029A0008230910568F03BDA80919A058823E1F145
:1029B0006EE472E08BE294E0DF91CF910C94B20C64
:1029C0000197F1F081E08093DD0486E00E94DD0A4A
:1029D0000E94840A80919A05882331F166E372E0AF
:1029E0008BE294E00E94270862E373E0CD2B11F0A4
:1029F00067E273E08BE294E0DF91CF910C949D0C41
:102A000082E08093DD0481E00E94DD0A0E94840A56
:102A1000C6D9E0CF6091DD046150770B8BE294E082
:102A2000DF91CF910C94380CDF91CF910895CF9323
:102A3000DF93009759F196D7EC018230910568F049
:102A4000EED980919A05882351F16CEF71E08BE209
:102A500094E0DF91CF910C94B20C81708093DC04F0
:102A600080919A058823D9F062E272E08BE294E0CB
:102A70000E94270866E073E0CD2B11F06AEF72E048
:102A80008BE294E0DF91CF910C949D0C6091DC047B
:102A900070E08BE294E0DF91CF910C94380CDF91E1
:102AA000CF910895CF93DF93009729F15BD7EC0185
:102AB0008430910568F0B3D980919A05882319F183
:102AC0006AEC71E08BE294E0DF91CF910C94B20C50
:102AD0008093E10480919A058823A9F06FEE71E05C
:102AE0008BE294E00E942708BE018BE294E0DF9124
:102AF000CF910C94380C6091E1048BE294E0DF916B
:102B0000CF910C94880CDF91CF910895CF93DF93F0
:102B1000009759F127D7EC01019781159D4750F097
:102B20007ED980919A0568E771E0811118C0DF9124
:102B3000CF910895D093E504C093E40480919A0561
:102B40008823A9F363EB71E08BE294E00E942708ED
:102B5000BE018BE294E00E94020C65EA71E08BE218
:102B600094E0DF91CF910C94B20C6091E4047091E9
:102B7000E5048BE294E0DF91CF910C94380CEF9256
:102B8000FF920F931F93CF93DF93DC01EC91E11140
:102B900009C0C1E08C2FDF91CF911F910F91FF9061
:102BA000EF900895E9017A018B0119821882DAD633
:102BB000998388838017910720F0C0E0E816F90612
:102BC00048F72DD9C0919A05CC2319F36FEF70E027
:102BD0008BE294E00E942708A80170E060E02AE000
:102BE0008BE294E00E94B70B69EF70E08BE294E017
:102BF0000E942708B7018BE294E00E94740CCACFB0
:102C0000EF92FF920F931F93CF93DF9300D01F9209
:102C1000CDB7DEB7009709F463C061EE72E0BFD6AE
:102C2000FC012081211121C061EE72E090E080E082
:102C3000B6D6FC01208121112DC069E373E090E03C
:102C400080E0ADD68C01FC018081F12CE12C81115A
:102C50002CC0E5D880919A056FE878E0882379F058
:102C60008BE294E00E94B20C0AC09E012F5F3F4F9E
:102C70004FEF50E062E070E082DF8823A9F20F900E
:102C80000F900F900F90DF91CF911F910F91FF90B8
:102C9000EF9008959E012D5F3F4F40E355E770E0B0
:102CA00060E06DDF8111EBCFC8CF89819A81E81692
:102CB000F90628F7F80101900020E9F73197BF01E4
:102CC000601B710BC8010E94D80D6B817C8190E064
:102CD00080E00E94EF0736DAFFEFEF1AFF0AE5CF38
:102CE0009ED880919A05882351F26CE778E0B8CF9E
:102CF000CF93DF931F921F92CDB7DEB7009709F4F1
:102D00005FC061EE72E04BD69E012F5F3F4F4EE1F8
:102D100050E061E070E033DF811112C089819A8157
:102D20002091DE042817190681F479D880919A053C
:102D3000882331F06CE371E08BE294E00E94B20CE6
:102D40000F900F90DF91CF9108958093DF048091D1
:102D50009A05882361F06CE171E08BE294E00E94B7
:102D6000270869817A818BE294E00E94740C1092AA
:102D7000E0041A82198261EE72E090E080E00FD6E2
:102D80000097F1F29E012F5F3F4F4EE750E060E663
:102D900070E0F5DE8111D4CF89818093E0048091C9
:102DA0009A05882369F26CE373E08BE294E00E9459
:102DB000A80B69817A818BE294E00E94740CC0CFE9
:102DC0004091DF0450E070E060E02AE08BE294E0A4
:102DD0000E94B70B8091E004882381F06AE171E0E2
:102DE0008BE294E00E9427084091E00450E070E0FC
:102DF00060E02AE08BE294E00E94B70B8BE294E063
:102E00000E94350C9DCFCF93DF93009759F1DC01E1
:102E10000D900020E9F7AD0141505109E7EEF4E0D3
:102E200020E3DF011D922A95E9F7481B590B403337
:102E3000510510F04FE250E0EC01BC0187EE94E048
:102E400055D680919A05882369F068E378E08BE293
:102E500094E00E942708BE018BE294E0DF91CF91BD
:102E60000C949D0CDF91CF910895FF920F931F93C7
:102E7000CF93DF930AED14E0D0E0C0E0F801F190C9
:102E80008F01CE01BED5F81619F06F2DCE01C1D538
:102E90002196CF33D10591F780919A05882331F09F
:102EA0006EE577E08BE294E00E94270880919A0516
:102EB000882359F06EE677E08BE294E0DF91CF91C2
:102EC0001F910F91FF900C94B20CDF91CF911F9145
:102ED0000F91FF9008956F927F928F929F92AF9281
:102EE000BF92CF92DF92EF92FF920F931F93CF93F7
:102EF000DF93CDB7DEB760970FB6F894DEBF0FBE95
:102F0000CDBF4C01188A8E010F5F1F4F6E0180E10B
:102F1000C80ED11CF80158011192CE16DF06E1F758
:102F2000F12C8114910409F058C08091DF04898349
:102F3000E12CFF24F3948FE30E94870D811184C05C
:102F40008091DE04805E0E94870D81117DC088E142
:102F50000E94870D811178C010E000E08F2C912C29
:102F6000081519050CF0CBC0702EE11004C0F50156
:102F7000E00FF11F70808091DE04871509F4BCC05A
:102F800080E4870D0E94870D81115EC085E00E945C
:102F9000DD0AC6010E941F0D8111A4C0688981E06D
:102FA0008F1508F07FC066FFA7C060EA76E08BE26D
:102FB00094E00E942708B8018BE294E00E94020C82
:102FC0006EE976E08BE294E00E94270868898BE244
:102FD00094E00E94880C84018FC061EE72E0C4010D
:102FE000FF2011F090E080E0DAD43C0143E050E0B3
:102FF0006EE573E06DD5892B71F4E0909A05EE20B3
:1030000009F44DC065EE76E08BE294E00E94B20CCC
:103010008EE1F82E90CFF40101900020E9F731976E
:10302000E819F909339770F5C3019CD4882341F15D
:103030009FEF980F9E31E8F00E940F0F80919A0544
:1030400067EB76E0811126C060960FB6F894DEBF7C
:103050000FBECDBFDF91CF911F910F91FF90EF90E9
:10306000DF90CF90BF90AF909F908F907F906F90A8
:103070000895F80181938F01F394FFE0FF12ADCF23
:10308000E12C59CF0E940F0F80919A0565EA76E0F6
:103090008823D1F28BE294E00E94B20CD5CFEE24CB
:1030A000E394B6CF8BE294E00E94880C80919A055D
:1030B000882309F490CF67E876E08BE294E00E94E1
:1030C0002708488950E070E060E02AE08BE294E055
:1030D0000E94B70B6CE676E08BE294E00E94270832
:1030E000672D75CF80919A05882331F06DE476E0E5
:1030F0008BE294E00E94B20C0F5F1F4F31CFEE20A5
:1031000021F08BE294E00E94350C89E10E94870D4A
:1031100081119ACF8FE50E94870D811195CF8FE3A2
:103120000E94870D811190CF82E00E94DD0A82E328
:103130000E946A07892B59F481E08093CF04809123
:103140009A05882309F480CF66E376E0A3CF109236
:10315000CF04F5CF8EE593E0BECECF93DF93EC01A5
:1031600086E20E946A07892BE9F5209749F143E03E
:1031700050E06EE573E0CE01ABD4892B99F540E0C9
:1031800060E280E20E944B0968E270E080E090E03B
:103190000E94EF0740E060EA80E00E944B0968E28D
:1031A00070E080E090E00E94EF0740E060E880E897
:1031B0000E944B0960E086E2DF91CF910C94920768
:1031C00040E060E280E20E944B0960E08091DF0411
:1031D0000E94B60D882349F080919A0569E475E054
:1031E00081110EC0DF91CF91089581E00E94870D7B
:1031F000882361F080919A058823A1F365E375E047
:103200008BE294E0DF91CF910C94B20C0E94AB0D55
:10321000882339F080919A0568E175E0882311F3DD
:10322000EFCF40E060E280E00E944B0982E0DF9156
:10323000CF910C94DD0ACF93DF93EC0186E20E94DC
:103240006A07892BC9F42097E1F043E050E06EE56E
:1032500073E0CE013DD4892B79F481E10E94870D82
:10326000882351F080919A05882331F06AEF74E049
:103270008BE294E00E94B20C82E0DF91CF910C943B
:10328000DD0A60E08091DF040E94B60D882349F0DA
:1032900080919A056CED74E081110EC0DF91CF91A1
:1032A000089581E10E94870D882361F080919A053D
:1032B0008823A1F36FEB74E08BE294E0DF91CF9170
:1032C0000C94B20C0E94AB0D8823B1F280919A0548
:1032D0006FE974E0882311F3EFCFCF93DF9310925F
:1032E000C904109229040097A1F0EC01FC0101909F
:1032F0000020E9F73197E81BF90B3497A0F0809193
:103300009A05882331F060E374E08BE294E00E9438
:10331000B20C8091E3048330C9F481E08093CC0443
:10332000DF91CF91089543E050E062E673E0D0D39F
:10333000892B21F481E08093C904EBCF81E0809355
:103340002904CE010FD380932A04E3CFDF91CF91DC
:103350000C94A210009749F043E050E066E673E059
:10336000B7D360ED73E0892B61F08091E70460E0F2
:1033700074E0882331F067EE74E08BE294E00C9403
:103380009D0C8BE294E00C94B20C1F920F920FB63E
:103390000F9211242F933F938F939F93AF93BF93DB
:1033A0008091D2049091D304A091D404B091D5041B
:1033B0003091D10423E0230F2D3758F50196A11D3C
:1033C000B11D2093D1048093D2049093D304A09391
:1033D000D404B093D5048091D6049091D704A091E1
:1033E000D804B091D9040196A11DB11D8093D604D3
:1033F0009093D704A093D804B093D904BF91AF9110
:103400009F918F913F912F910F900FBE0F901F9022
:10341000189526E8230F0296A11DB11DD2CF1F9249
:103420000F920FB60F9211240BB60F922F933F936A
:103430004F935F936F937F938F939F93AF93BF93BC
:10344000EF93FF938BE294E00E94BE08FF91EF910F
:10345000BF91AF919F918F917F916F915F914F91AC
:103460003F912F910F900BBE0F900FBE0F901F90AA
:1034700018951F920F920FB60F9211240BB60F9250
:103480002F938F939F93EF93FF93E0913B04F091E1
:103490003C048081E0914104F091420482FD1DC012
:1034A0009081809144048F5F8F732091450482172F
:1034B00041F0E0914404F0E0E55DFB4F958F80938F
:1034C0004404FF91EF919F918F912F910F900BBE2C
:1034D0000F900FBE0F901F9018958081F2CFCF9361
:1034E000DF931F92CDB7DEB7789484B5826084BD38
:1034F00084B5816084BD85B5826085BD85B58160F8
:1035000085BD80916E00816080936E001092810075
:103510008091810082608093810080918100816030
:1035200080938100809180008160809380008091F1
:10353000B10084608093B1008091B000816080937D
:10354000B000809191008260809391008091910001
:1035500081608093910080919000816080939000C1
:103560008091A10082608093A1008091A100816080
:103570008093A1008091A00081608093A000809141
:1035800021018260809321018091210181608093DB
:1035900021018091200181608093200180917A0037
:1035A000846080937A0080917A00826080937A00B0
:1035B00080917A00816080937A0080917A0080689F
:1035C00080937A001092C1000FB6F894A89580916C
:1035D0006000886180936000109260000FBEEDEF84
:1035E000FCE02491E7EBFCE08491882399F090E0E3
:1035F000880F991FFC01EF52F44FA591B491FC0183
:10360000EA58F34F859194918FB7F894EC91E22B9F
:10361000EC938FBF60E08DE00E9492070E949E0BAA
:10362000E0913B04F0913C0482E08083E091370418
:10363000F09138041082E0913904F0913A0480E16D
:10364000808310924304E0913F04F091400486E0AF
:103650008083E0913D04F0913E048081806180830D
:10366000E0913D04F0913E04808188608083E09188
:103670003D04F0913E04808180688083E0913D04A8
:10368000F0913E0480818F7D80830E948B0B90E0BF
:1036900080E0B7D18C3C81F44AEDE42E44E0F42E76
:1036A00010E000E0C801ADD1F70181937F010F5F09
:1036B0001F4F0F331105B1F78091DD04813029F4DC
:1036C00086E00E94DD0A0E94840A8091DD04823037
:1036D00039F481E00E94DD0A0E94840A0E94CF0E24
:1036E0001092D0041092CF0480E2A82E90E4992E7C
:1036F00023E0822E3FE0E32EF12C84E30E946A0750
:1037000021E0892B09F020E02093D00482E30E947D
:103710006A0721E0892B09F020E02093CF048091F3
:103720009B05813029F461E08091CE040E94140F42
:103730008091DD04823089F580919B058230B9F457
:1037400062E08091CE040E94140F8091E3048130E6
:1037500011F40E94A2108091E304823041F4809120
:103760009905882321F00E94A2101092990580915A
:10377000CF04882349F08091CD04882329F090E07C
:1037800080E0A9DB1092CF048091E304833029F418
:103790008091CC0481110E94A2108091DD048130BF
:1037A00069F48091CB04882379F080919B05823065
:1037B00029F462E08091CE040E94140FC7010197A2
:1037C000F1F70E94771099CF0091CA04002349F0C5
:1037D0000E94A21080919B05823081F70E949E0B6F
:1037E000EDCF1091D004112349F3198288E00E9493
:1037F000DD0AD12CC12CB12C84E30E946A07892BED
:1038000011F5CE0101960E941F0D8111F5CF909107
:10381000DF048981282F2A25921301C0012F282F28
:103820002925921301C0B12E883149F0893149F020
:103830008F3311F71092C9048092C804DDCFC12ED6
:10384000DBCFD12ED9CF01110E94A210BB2009F4E9
:1038500042C0CC2009F44FC080919A05882331F0F2
:1038600068E27CE08BE294E00E94B20C80919A05C1
:10387000882361F06BEE7BE08BE294E00E942708E6
:103880006091E2048BE294E00E94880C89E00E943F
:10389000DD0A8091E2040E94C20C87E00E94DD0AEA
:1038A00080919A05882331F06BE17CE08BE294E013
:1038B0000E94B20C8091E2048F7B8093E2040E940C
:1038C000780B80919A05882391F061E07CE08BE28F
:1038D00094E00E94B20CDD2051F080919A0588237B
:1038E00031F068E57CE08BE294E00E94B20C87E066
:1038F0000E94DD0A63CF80919B05823061F762E010
:103900008091CE040E94140FE6CFEBE2F4E0138224
:10391000128288EE93E0A0E0B0E084839583A683D2
:10392000B78384E092E09183808385EC90E0958773
:10393000848784EC90E09787868780EC90E0918B79
:10394000808B81EC90E0938B828B82EC90E0958B66
:10395000848B86EC90E0978B868B118E128E138E63
:10396000148E0895FC0188279927E894219120322C
:10397000E9F3293010F02E30C8F32B3239F02D3214
:1039800031F4689403C035D0820F911D21912053EA
:103990002A30C8F31EF4909581959F4F08954CE905
:1039A00055E000C0FA01A191B081009719F4109779
:1039B000E1F0CD01DC01CD010D90002011F4C0013A
:1039C00013C0FB012191222319F02015D9F7F3CF61
:1039D000FB012191201519F41E92119606C0222395
:1039E000C1F70D900020A1F7D001FA01A193B08397
:1039F00008957AE0979F902D879F802D910D112437
:103A00000895F999FECF92BD81BDF89A992780B5A6
:103A10000895262FF999FECF1FBA92BD81BD20BD12
:103A20000FB6F894FA9AF99A0FBE01960895A1E29A
:103A30001A2EAA1BBB1BFD010DC0AA1FBB1FEE1F28
:103A4000FF1FA217B307E407F50720F0A21BB30B73
:103A5000E40BF50B661F771F881F991F1A9469F7EF
:103A600060957095809590959B01AC01BD01CF014B
:103A70000895EE0FFF1F881F8BBF0790F691E02D72
:103A80001994FB01DC0102C001900D92415050409D
:103A9000D8F70895FB01DC018D9181341CF08B3542
:103AA0000CF4805E619161341CF06B350CF4605E47
:103AB000861B611189F3990B0895FB01DC010D90C0
:103AC0000020E9F7119701900D920020E1F7089589
:103AD000FB01DC014150504030F08D910190801984
:103AE00019F40020B9F7881B990B0895FB01DC013C
:103AF0004150504048F001900D920020C9F701C09C
:0E3B00001D9241505040E0F70895F894FFCF19
:103B0E0000000000E0084B0878082C09A908870877
:103B1E009B086B030300781670030200AA18FD03BE
:103B2E0002001B1479030200E90E7D0302008C0EC5
:103B3E00810303009D0B6203030017158903030025
:103B4E0052158D0303005B14960303008E14A1031C
:103B5E000200CF0EA50302001B19A9030200AD1827
:103B6E00AD0301000013B10302005D0EB7030300A5
:103B7E00C914BC030200670EC20302006D19C7030D
:103B8E0002008615D30302007D12D7030200001631
:103B9E00DE0303009C0EE20302007A13E603030029
:103BAE003517EE0303000317730302006B17F603BA
:103BBE000200690CFA0302004E12020401003F13C8
:103BCE0009040100C1120D040300AA191104030017
:103BDE00A11119040300B7111F040300EE110D0A01
:103BEE00002009003E2000566572626F73653A2010
:103BFE0000535251206175746F204F4E0053525135
:103C0E00206175746F204F46460052454E206173F9
:103C1E007365727465640052454E20756E2D617326
:103C2E0073657274656400434F4E54524F4C4C454D
:103C3E005200444556494345000A0D005365742011
:103C4E00646576696365207365636F6E646172790E
:103C5E00206164647265737320746F3A2000616C26
:103C6E006C00656F69007265616C0061646472005E
:103C7E00616C6C73706F6C6C00636C720064636C5F
:103C8E000064656661756C7400656F7300656F74B2
:103C9E005F6368617200656F745F656E61626C650B
:103CAE0000696663006C6C6F006C6F63006C6F6E06
:103CBE00006D6163726F006D6F64650070706F6C84
:103CCE006C007265616400726561645F746D6F5F34
:103CDE006D730072656E007265706561740072734B
:103CEE00740074726700736176656366670073654E
:103CFE00747673747200737271007372716175747D
:103D0E006F0073746174757300746F6E00766572F4
:103D1E0000766572626F736500746D6275730078FC
:063D2E00646961670000FA
:020000023000CC
:10E000000D9489F10D94B2F10D94B2F10D94B2F129
:10E010000D94B2F10D94B2F10D94B2F10D94B2F1F0
:10E020000D94B2F10D94B2F10D94B2F10D94B2F1E0
:10E030000D94B2F10D94B2F10D94B2F10D94B2F1D0
:10E040000D94B2F10D94B2F10D94B2F10D94B2F1C0
:10E050000D94B2F10D94B2F10D94B2F10D94B2F1B0
:10E060000D94B2F10D94B2F10D94B2F10D94B2F1A0
:10E070000D94B2F10D94B2F10D94B2F10D94B2F190
:10E080000D94B2F10D94B2F10D94B2F10D94B2F180
:10E090000D94B2F10D94B2F10D94B2F10D94B2F170
:10E0A0000D94B2F10D94B2F10D94B2F10D94B2F160
:10E0B0000D94B2F10D94B2F10D94B2F10D94B2F150
:10E0C0000D94B2F10D94B2F10D94B2F10D94B2F140
:10E0D0000D94B2F10D94B2F10D94B2F10D94B2F130
:10E0E0000D94B2F141546D656761323536300041AF
:10E0F000726475696E6F206578706C6F72657220DE
:10E1000073746B3530305632206279204D4C530099
:10E11000426F6F746C6F616465723E004875683F52
:10E1200000436F6D70696C6564206F6E203D200048
:10E130004350552054797065202020203D20005FF9
:10E140005F4156525F415243485F5F3D2000415658
:10E1500052204C696243205665723D20004743437C
:10E160002056657273696F6E203D20004350552024
:10E1700049442020202020203D20004C6F7720663D
:10E18000757365202020203D20004869676820665F
:10E190007573652020203D200045787420667573D6
:10E1A00065202020203D20004C6F636B2066757336
:10E1B000652020203D20004D617220203720323024
:10E1C000313300312E362E3800342E332E350056A2
:10E1D00023202020414444522020206F7020636F70
:10E1E00064652020202020696E73747275637469E1
:10E1F0006F6E2061646472202020496E74657272B3
:10E20000757074006E6F20766563746F7200726A49
:10E210006D702020006A6D70200057686174207056
:10E220006F72743A00506F7274206E6F7420737541
:10E2300070706F72746564004D7573742062652030
:10E2400061206C6574746572002000577269747483
:10E25000696E672045450052656164696E672045B7
:10E26000450045452065727220636E743D00504F35
:10E27000525400303D5A65726F2061646472003FF1
:10E280003D43505520737461747300403D454550C3
:10E29000524F4D207465737400423D426C696E6B41
:10E2A000204C454400453D44756D70204545505215
:10E2B0004F4D00463D44756D7020464C415348001B
:10E2C000483D48656C70004C3D4C69737420492F83
:10E2D0004F20506F72747300513D51756974005234
:10E2E0003D44756D702052414D00563D73686F7707
:10E2F00020696E7465727275707420566563746FF0
:10E30000727300593D506F727420626C696E6B00BD
:10E310002A0011241FBECFEFD1E2DEBFCDBF01E046
:10E320000CBF12E0A0E0B2E0EEE1FDEF03E00BBFB6
:10E3300002C007900D92A030B107D9F712E0A0E01B
:10E34000B2E001C01D92AE30B107E1F70F9460F367
:10E350000D948DFE01E20EBF0FEF0DBF11241FBE05
:10E360000D9460F30D9400F020E030E040ED57E0B4
:10E3700005C0FA013197F1F72F5F3F4F2817390792
:10E38000C0F308959C01260F311DC901A0E0B0E043
:10E390002F5F3F4FABBFFC018791882361F08093D3
:10E3A000C6008091C00086FFFCCF8091C0008064D1
:10E3B0008093C000EACF08958DE08093C6008091DD
:10E3C000C00086FFFCCF8091C00080648093C000B5
:10E3D0008AE08093C6008091C00086FFFCCF8091C8
:10E3E000C00080648093C00008950F94C2F10F9420
:10E3F000DCF10895FC019081992359F09093C600B7
:10E400008091C00086FFFCCF8091C0008064809323
:10E41000C0003196992379F70895282F982F929567
:10E420009F70892F805D8A3308F0895F8093C600D2
:10E430008091C00086FFFCCF8091C00080648093F3
:10E44000C000822F8F70982F905D9A3308F0995FEB
:10E450009093C6008091C00086FFFCCF8091C000E1
:10E4600080648093C00008959C01FB01853691056E
:10E470001CF46330710594F0C90164E670E00F94F8
:10E480002EFE605D7F4F6093C6008091C00086FFC6
:10E49000FCCF8091C00080648093C0002B30310598
:10E4A00014F43297B4F0C90164E670E00F942EFEC4
:10E4B0006AE070E00F942EFE605D7F4F6093C600AF
:10E4C0008091C00086FFFCCF8091C0008064809363
:10E4D000C000C9016AE070E00F942EFEC0968093E0
:10E4E000C6008091C00086FFFCCF8091C000806490
:10E4F0008093C00008951F93182F8EE692EE60E07F
:10E500000F94C2F11093C6008091C00086FFFCCF2B
:10E510008091C00080648093C0000F94DCF11F9153
:10E5200008952F923F924F925F926F927F928F92B7
:10E530009F92AF92BF92CF92DF92EF92FF920F9392
:10E540001F93DF93CF93CDB7DEB762970FB6F894E2
:10E55000DEBF0FBECDBF382E622ECA01DB015C01CB
:10E560006D01772420E2222E2E010894411C511CBB
:10E570008BC081E0A81680E0B80681E0C80680E084
:10E58000D80628F0C601AA27BB270F940DF2BB2797
:10E59000AD2D9C2D8B2D0F940DF28A2D0F940DF225
:10E5A0002092C6008091C00086FFFCCF8091C00001
:10E5B00080648093C0009DE29093C6008091C0006B
:10E5C00086FFFCCF8091C00080648093C0002092C1
:10E5D000C6008091C00086FFFCCF8091C00080649F
:10E5E0008093C00019828601750188249924A1E0D6
:10E5F0003A1651F03A1620F0B2E03B1661F409C029
:10E600000BBFF701779007C0C7010F9477FE782EF4
:10E6100002C0F7017080872D0F940DF22092C60082
:10E620008091C00086FFFCCF8091C0008064809301
:10E63000C000872D8052F401EF70F0708F3520F408
:10E64000E40DF51D708204C0E40DF51D8EE280839B
:10E650000894E11CF11C011D111D0894811C911CE2
:10E6600090E18916910409F0C2CF80E190E0A0E02A
:10E67000B0E0A80EB91ECA1EDB1E198AC2010F9493
:10E68000FAF10F94DCF16A94662009F072CF629679
:10E690000FB6F894DEBF0FBECDBFCF91DF911F91B3
:10E6A0000F91FF90EF90DF90CF90BF90AF909F9031
:10E6B0008F907F906F905F904F903F902F90089534
:10E6C0002F923F924F925F926F927F928F929F9282
:10E6D000AF92BF92CF92DF92EF92FF920F931F9370
:10E6E000DF93CF93CDB7DEB7CD53D1400FB6F894BB
:10E6F000DEBF0FBECDBF01E20EBF0FEF0DBF94B75F
:10E70000F894A89514BE80916000886180936000A1
:10E7100010926000789493FF05C0E0910002F091A0
:10E7200001021995279A2F9A8091C00082608093E8
:10E73000C00080E18093C40088E18093C1000000A4
:10E74000EE24FF24870144E0A42EB12CCC24DD2448
:10E7500024C0C5010197F1F70894E11CF11C011DCB
:10E76000111D21E2E2162EE4F20620E0020720E06D
:10E77000120718F031E0C32ED12CC801B70127ECE5
:10E780003BE140E050E00F9441FE611571058105C9
:10E79000910519F485B1805885B98091C00087FD35
:10E7A00003C0C114D104A9F2A6014F5F5F4FC25E3E
:10E7B000DE4F59834883CE51D140C25EDE4F8881FF
:10E7C0009981CE51D140019711F00D9410FEC05D9A
:10E7D000DE4F19821882C053D14060E0C15DDE4F28
:10E7E0001882CF52D14088249924C35DDE4F19820C
:10E7F0001882CD52D140C05EDE4F188219821A8233
:10E800001B82C052D140CE5CDE4F188219821A8220
:10E810001B82C253D140EE24FF2487010BBFF701B6
:10E8200007911691C45CDE4F19830883CC53D14005
:10E830000D940BFEC25EDE4F28813981CE51D1404E
:10E840002130310509F52091C600C25EDE4F1982E4
:10E850001882CE51D14022C02F5F3F4F4F4F5F4FA4
:10E86000213082E138078AE7480780E0580780F0C6
:10E87000C45CDE4FE881F981CC53D140EF5FFF4F9C
:10E8800019F0EE27FF27099420E030E040E050E047
:10E890008091C00087FFE0CF2091C600C35DDE4FAE
:10E8A00048815981CD52D1404F5F5F4FC35DDE4FEC
:10E8B00059834883CD52D140213209F063C64A3092
:10E8C000510508F05FC60894811C911C53E0851621
:10E8D000910409F059C600E010E018C081E280936D
:10E8E000C6008091C00086FFFCCF8091C00080648C
:10E8F0008093C0002F5F3F4F2931310579F70F9486
:10E90000DCF10F5F1F4F0530110519F020E030E0FA
:10E91000E5CF10920A0210920B0210920C02109294
:10E920000D02109206021092070210920802109235
:10E930000902109202021092030210920402109235
:10E9400005028FEE90EE60E00F94F5F180E191EE1C
:10E9500060E00F94C2F18091C00087FFFCCF9091DE
:10E96000C600903608F09F759032B8F09093C600BC
:10E970008091C00086FFFCCF8091C00080648093AE
:10E98000C000A0E2A093C6008091C00086FFFCCF2B
:10E990008091C00080648093C000983409F4D7C18E
:10E9A0009934B8F4923409F459C1933458F490333B
:10E9B00019F1903308F4E3C59F33A1F1903409F0C5
:10E9C000DEC5BDC0953409F470C1963409F0D7C5D1
:10E9D00098C1923509F42BC2933538F49C3409F46C
:10E9E000F5C1913509F0CBC518C2963509F445C279
:10E9F000993509F0C4C567C483E792EE62E00F94CD
:10EA0000F5F110920602109207021092080210927D
:10EA1000090210920A0210920B0210920C0210923C
:10EA20000D0213C18FE792EE62E00F94F5F18FEEC5
:10EA300090EE60E00F94F5F181E291EE60E00F94CA
:10EA4000C2F187EB91EE60E00F94F5F180E391EE77
:10EA500060E00F94C2F184EE90EE60E00F94F5F167
:10EA60008FE391EE60E00F94C2F186E090E061E008
:10EA700070E00F9434F20F94DCF18DE591EE60E0DC
:10EA80000F94C2F189EC91EE60E00F94F5F18EE401
:10EA900091EE60E00F94C2F183EC91EE60E00F9490
:10EAA000F5F18CE691EE60E00F94C2F18EE10F94E7
:10EAB0000DF288E90F940DF281E00F940DF20F949E
:10EAC000DCF18BE791EE60E00F94C2F119E0E0E039
:10EAD000F0E010935700E4918E2F0F940DF20F94F5
:10EAE000DCF18AE891EE60E00F94C2F1E3E0F0E03F
:10EAF00010935700E4918E2F0F940DF20F94DCF1D8
:10EB000089E991EE60E00F94C2F1E2E0F0E0109349
:10EB10005700E4918E2F0F940DF20F94DCF188EAE8
:10EB200091EE60E00F94C2F1E1E0F0E01093570045
:10EB30001491812F0F940DF20F94DCF107CF8BE825
:10EB400092EE62E00F94F5F18BE492EE60E00F94A8
:10EB5000F5F10F94DCF100E010E019C0C8016F2D51
:10EB60000F947FFEFF2031F489E492EE60E00F9471
:10EB7000C2F10BC0F092C6008091C00086FFFCCFAE
:10EB80008091C00080648093C0000F5F1F4FC80158
:10EB900081519F41A0E0B0E0ABBFFC01F790BAE229
:10EBA000FB1621F0E2E000301E07C1F60F94DCF105
:10EBB0000F94DCF187E592EE60E00F94F5F10F948D
:10EBC000DCF1CC24DD2400E010E01EC0C8010F946D
:10EBD00077FEF82E882331F489E492EE60E00F94FA
:10EBE000C2F10BC08093C6008091C00086FFFCCFAD
:10EBF0008091C00080648093C000FE1419F00894D6
:10EC0000C11CD11C0F5F1F4FC80181519F41A0E063
:10EC1000B0E0ABBFFC01E790FAE2EF1621F022E092
:10EC20000030120799F60F94DCF10F94DCF182E6C4
:10EC300092EE60E00F94C2F1C60161E070E00F94C3
:10EC400034F20F94DCF10F94DCF110920202109276
:10EC50000302109204021092050278CE89E992EE26
:10EC600062E00F94F5F1279A2F9A16C02F9880E052
:10EC700090E0E0EDF7E03197F1F7019684369105E9
:10EC8000C1F72F9A80E090E0E0EDF7E03197F1F7DF
:10EC9000019684369105C1F78091C00087FFE6CFC9
:10ECA0008091C00087FFFCCF64C485EA92EE62E0E9
:10ECB0000F94F5F140910202509103026091040219
:10ECC0007091050281E020E10F9491F2809102029F
:10ECD00090910302A0910402B091050280509F4FD1
:10ECE000AF4FBF4F8093020290930302A0930402A0
:10ECF000B093050280509041A040B04008F426CE69
:10ED0000A4CF83EB92EE62E00F94F5F140910602FE
:10ED100050910702609108027091090280E020E1A1
:10ED20000F9491F28091060290910702A09108023F
:10ED3000B091090280509F4FAF4FBF4F80930602A2
:10ED400090930702A0930802B0930902FFCD80ECD4
:10ED500092EE62E00F94F5F183E792EE60E00F949B
:10ED6000F5F18FE792EE60E00F94F5F18BE892EE0B
:10ED700060E00F94F5F189E992EE60E00F94F5F10F
:10ED800085EA92EE60E00F94F5F183EB92EE60E09D
:10ED90000F94F5F180EC92EE60E00F94F5F187ECC2
:10EDA00092EE60E00F94F5F188ED92EE60E00F9442
:10EDB000F5F18FED92EE60E00F94F5F18AEE92EEB0
:10EDC00060E00F94F5F183E093EEBDCD87EC92EE19
:10EDD00062E00F94F5F181E40F947BF282E40F94EA
:10EDE0007BF283E40F947BF284E40F947BF285E45E
:10EDF0000F947BF286E40F947BF287E40F947BF20E
:10EE000088E40F947BF28AE40F947BF28BE40F94F6
:10EE10007BF28CE40F947BF299CD88ED92EE62E068
:10EE20000F94F5F1772473948824992409C48FED05
:10EE300092EE62E00F94F5F140910A0250910B02BC
:10EE400060910C0270910D0282E020E10F9491F22A
:10EE500080910A0290910B02A0910C02B0910D02D8
:10EE600080509F4FAF4FBF4F80930A0290930B0289
:10EE7000A0930C02B0930D0269CD8AEE92EE62E08F
:10EE80000F94F5F184EE90EE60E00F94F5F18FECC5
:10EE900091EE60E00F94F5F1662477244301CC5D98
:10EEA000DE4F19821882C452D140D401C301B695F5
:10EEB000A79597958795CA5DDE4F88839983AA8326
:10EEC000BB83C652D140CC5DDE4FA881B981C4520C
:10EED000D1401196CC5DDE4FB983A883C452D14096
:10EEE000CD0162E070E00F9434F2B0E2B093C6005E
:10EEF0008091C00086FFFCCF8091C0008064809329
:10EF0000C000EDE2E093C6008091C00086FFFCCF18
:10EF10008091C00080648093C000F0E2F093C6004E
:10EF20008091C00086FFFCCF8091C00080648093F8
:10EF3000C000CA5DDE4FE880F9800A811B81C6529D
:10EF4000D140BB27A12F902F8F2D0F940DF2CA5DBA
:10EF5000DE4F8881C652D1400F940DF2B0E2FB2EF5
:10EF6000F092C6008091C00086FFFCCF8091C00067
:10EF700080648093C0000DE30093C6008091C000C0
:10EF800086FFFCCF8091C00080648093C00010E2B7
:10EF90001093C6008091C00086FFFCCF8091C00016
:10EFA00080648093C0008BBEF3012791C65DDE4F65
:10EFB0002883CA52D140A22EBB24CC24DD2408943D
:10EFC000611C711C811C911C8BBEF3018791282E42
:10EFD0003324442455240894611C711C811C911C09
:10EFE0008BBEF3013791C55DDE4F3883CB52D140E4
:10EFF0000894611C711C811C911C8BBEF30147910C
:10F00000C45DDE4F4883CC52D140ADEFEA2EAFEF66
:10F01000FA2EAFEF0A2FAFEF1A2F6E0C7F1C801E57
:10F02000911E142D032DF22CEE24EA0CFB1C0C1D5A
:10F030001D1D0F940DF220E22093C6008091C000A8
:10F0400086FFFCCF8091C00080648093C000C65DC5
:10F05000DE4F8881CA52D1400F940DF230E23093D6
:10F06000C6008091C00086FFFCCF8091C000806404
:10F070008093C000C45DDE4F8881CC52D1400F9494
:10F080000DF240E24093C6008091C00086FFFCCFA5
:10F090008091C00080648093C000C55DDE4F888190
:10F0A000CB52D1400F940DF250E25093C6008091A4
:10F0B000C00086FFFCCF8091C00080648093C000B8
:10F0C0008FEFE8168FEFF80680E0080780E018075A
:10F0D00031F484E092EE60E00F94C2F1DFC0D80119
:10F0E000C7018070907CA070B0708050904CA040A0
:10F0F000B040D1F52FEF3FE340E050E0E222F322B1
:10F1000004231523CA5DDE4FA880B980CA80DB8046
:10F11000C652D140AE0CBF1CC01ED11EAA0CBB1CD7
:10F12000CC1CDD1C8EE092EE60E00F94C2F1BB2798
:10F13000A12F902F8F2D0F940DF28E2D0F940DF285
:10F1400030E23093C6008091C00086FFFCCF8091F2
:10F15000C00080648093C0004EE34093C60080915D
:10F16000C00086FFFCCF87C08EE09EEFA0E0B0E03D
:10F17000E822F9220A231B239CE0E91694E9F90608
:10F1800090E0090790E0190709F088C0C45DDE4FE0
:10F19000A881CC52D140EA2EFF2400E010E0102FCD
:10F1A0000F2DFE2CEE24C55DDE4FB881CB52D14031
:10F1B000EB0EF11C011D111DD601C501817090706F
:10F1C000A070B070DC0199278827E80EF91E0A1F8D
:10F1D0001B1F20EF30E040E050E0A222B322C42207
:10F1E000D52241E1AA0CBB1CCC1CDD1C4A95D1F7F1
:10F1F000EA0CFB1C0C1D1D1D81E090E0A0E0B0E0BE
:10F20000282239224A225B2235E1220C331C441C7D
:10F21000551C3A95D1F7E20CF31C041D151D57013E
:10F220006801AA0CBB1CCC1CDD1C85E192EE60E0E1
:10F230000F94C2F1C801AA27BB270F940DF2BB2778
:10F24000A12F902F8F2D0F940DF28E2D0F940DF274
:10F2500090E29093C6008091C00086FFFCCF809121
:10F26000C00080648093C000AEE3A093C60080918C
:10F27000C00086FFFCCF8091C00080648093C000F6
:10F28000C601AA27BB270F940DF2BB27AD2D9C2DDD
:10F290008B2D0F940DF28A2D0F940DF20F94DCF14B
:10F2A000CC5DDE4FE881F981C452D140F99709F471
:10F2B0004DCBF4E0EF2EF12C012D112D6E0C7F1CA7
:10F2C000801E911EF2CD83E093EE62E00F94F5F183
:10F2D0008AE192EE60E00F94C2F18091C00087FF56
:10F2E000FCCF1091C6001F751093C6008091C0001E
:10F2F00086FFFCCF8091C00080648093C0000F9493
:10F30000DCF1812F81548A3108F036C1163409F4BA
:10F3100095C0173490F4133409F44EC0143430F40B
:10F320001134F1F0123409F01DC130C0143409F465
:10F3300059C0153409F016C16BC01A3409F4C4C0A1
:10F340001B3438F4173409F48FC0183409F00AC19B
:10F35000A1C01B3409F4D2C01C3409F003C1E8C0B9
:10F360008FEF81B90DC082B1809582B980E090E0C5
:10F37000E0EDF7E03197F1F70196883C9105C1F790
:10F380008091C00087FFEFCF12B8EFC08FEF84B934
:10F390000DC085B1809585B980E090E0E0EDF7E0A3
:10F3A0003197F1F70196883C9105C1F78091C00033
:10F3B00087FFEFCF15B8D9C08FEF87B90DC088B1DF
:10F3C000809588B980E090E0E0EDF7E03197F1F7C3
:10F3D0000196883C9105C1F78091C00087FFEFCF6F
:10F3E00018B8C3C08FEF8AB90DC08BB180958BB9A7
:10F3F00080E090E0E0EDF7E03197F1F70196883C8E
:10F400009105C1F78091C00087FFEFCF1BB8ADC059
:10F410008FEF8DB90DC08EB180958EB980E090E0F0
:10F42000E0EDF7E03197F1F70196883C9105C1F7DF
:10F430008091C00087FFEFCF1EB897C08FEF80BBD1
:10F440000DC081B3809581BB80E090E0E0EDF7E0F6
:10F450003197F1F70196883C9105C1F78091C00082
:10F4600087FFEFCF11BA81C08FEF83BB0DC084B38C
:10F47000809584BB80E090E0E0EDF7E03197F1F714
:10F480000196883C9105C1F78091C00087FFEFCFBE
:10F4900014BA6BC08FEF809301010FC080910201FD
:10F4A00080958093020180E090E0E0EDF7E03197F5
:10F4B000F1F70196883C9105C1F78091C00087FF64
:10F4C000EDCF1092020151C08FEF809304010FC065
:10F4D0008091050180958093050180E090E0E0ED4A
:10F4E000F7E03197F1F70196883C9105C1F78091DB
:10F4F000C00087FFEDCF1092050137C08FEF8093DA
:10F5000007010FC08091080180958093080180E079
:10F5100090E0E0EDF7E03197F1F70196883C910536
:10F52000C1F78091C00087FFEDCF109208011DC088
:10F530008FEF80930A010FC080910B01809580931B
:10F540000B0180E090E0E0EDF7E03197F1F70196F4
:10F55000883C9105C1F78091C00087FFEDCF1092E4
:10F560000B0103C085E292EEEEC98091C00087FFD7
:10F57000FCCF8091C600EAC988E392EEE4C98CE131
:10F5800091EEE1C988249924933011F1943028F444
:10F59000913089F09230B8F408C0953061F195301F
:10F5A000F0F0963009F048C043C02B3109F042C951
:10F5B00091E06BE13FC96227C15DDE4F2883CF52E6
:10F5C000D14092E037C9B22FA0E0622793E032C960
:10F5D000822F90E0A82BB92B622794E02BC92E3004
:10F5E00009F039C3622795E0C05DDE4F19821882A9
:10F5F000C053D1401FC9E1E0F0E0EC0FFD1FC05D3A
:10F60000DE4F08811981C053D140E00FF11F2083E4
:10F610000F5F1F4FC05DDE4F19830883C053D14079
:10F6200062270A171B0709F005C9D80196E002C92D
:10F63000261709F010C303C0973009F0FBC87724E0
:10F640009981933109F412C19431C8F4963009F4C8
:10F65000D8C0973050F4923009F406C1933009F4C1
:10F660006DC0913009F059C253C0913109F477C08F
:10F67000923108F0BBC0903109F04FC2F5C098310B
:10F6800009F487C0993150F4953109F4EFC09531F0
:10F6900008F4C6C1963109F040C2C2C19A3109F4DA
:10F6A0006CC09A3108F491C09B3109F45BC09D3164
:10F6B00009F033C29D81903359F48F81882311F46E
:10F6C0009EE11CC0813011F091E018C098E916C08D
:10F6D000892F807591F0903539F4E0E0F0E089E011
:10F6E0008093570094910AC0983539F4E3E0F0E034
:10F6F00089E080935700949101C090E01A821B82A8
:10F700008D818C831D829E831F8227E030E009C299
:10F710001A8288E08B8381E48C8386E58D8382E581
:10F720008E8389E48F8383E5888780E589878FE5E9
:10F730008A8782E38B872BE030E0F3C18A818139AD
:10F7400041F0823941F0803911F48FE005C080E04A
:10F7500003C082E001C08AE01A828B8344C0772410
:10F76000739482C08D81882311F48EE12CC0813086
:10F7700011F081E028C088E926C01A82E1E0F0E0BB
:10F7800089E08093570084918B831C8224E030E0D1
:10F79000C8C18B81803589F48C81883039F4E2E0EE
:10F7A000F0E089E08093570084910DC0E0E0F0E044
:10F7B00089E080935700849106C0E3E0F0E089E09F
:10F7C0008093570084911A82DFCF8D81836C99E0FA
:10F7D000E1E0F0E0082E90935700E89507B600FCB2
:10F7E000FDCF1A821B8223E030E09BC180EC8A832C
:10F7F000CE5CDE4F188219821A821B82C253D1401E
:10F800008EC18A8190E0A0E0B0E0582F44273327D2
:10F8100022278B8190E0A0E0B0E0DC0199278827C7
:10F82000282B392B4A2B5B2B8D8190E0A0E0B0E098
:10F83000282B392B4A2B5B2B8C8190E0A0E0B0E089
:10F84000BA2FA92F982F8827282B392B4A2B5B2BCF
:10F85000220F331F441F551FC05EDE4F288339839C
:10F860004A835B83C052D1401A8259C13A81C95C34
:10F87000DE4F3883C753D140CA5CDE4F1882C6536F
:10F88000D1408B81C82EDD24CA5CDE4F488159816E
:10F89000C653D140C42AD52A933109F082C0CE5C28
:10F8A000DE4F88819981AA81BB81C253D1408050AB
:10F8B000904CA340B04030F583E0CE5CDE4FE88052
:10F8C000F9800A811B81C253D140F70100935B008C
:10F8D00080935700E89507B600FCFDCFCE5CDE4F65
:10F8E000088119812A813B81C253D14000501F4FAA
:10F8F0002F4F3F4FCE5CDE4F088319832A833B8313
:10F90000C253D140C05EDE4F488159816A817B81FC
:10F91000C052D140DE011B9631E08C9111962C91A2
:10F9200011971296C75CDE4F2883C953D140C85C3B
:10F93000DE4F1882C853D14090E0C85CDE4FE881AA
:10F94000F981C853D1408E2B9F2B0C01FA01609393
:10F950005B0030935700E89511244E5F5F4F6F4F67
:10F960007F4F0EEFE02E0FEFF02ECE0CDF1CC114F8
:10F97000D10499F685E0C05EDE4F088119812A81A5
:10F980003B81C052D140F80120935B008093570027
:10F99000E89507B600FCFDCF81E180935700E8951C
:10F9A00035C0C05EDE4F88819981AA81BB81C0527B
:10F9B000D140B695A795979587957C018601ABE0D8
:10F9C000AA2EB12CAC0EBD1E0BC0D5016D915D01F0
:10F9D000C7010F947FFE0894E11CF11C01501040F8
:10F9E0000115110591F7A60160E070E0440F551F65
:10F9F000661F771FC05EDE4FE880F9800A811B8199
:10FA0000C052D1404E0D5F1D601F711F1A82C05E33
:10FA1000DE4F488359836A837B83C052D1407FC0C5
:10FA2000FA80C55CDE4FF882CB53D140C65CDE4F16
:10FA30001882CA53D1408B81C82EDD24C65CDE4FAC
:10FA400008811981CA53D140C02AD12A1A828981DA
:10FA5000BE016D5F7F4F843121F59601C05EDE4FA0
:10FA6000E880F9800A811B81C052D1400BBFF701A9
:10FA700087919691DB018C9311969C936E5F7F4FDB
:10FA8000D801C7010296A11DB11DC05EDE4F88835B
:10FA90009983AA83BB83C052D14022503040F1F6F3
:10FAA00036C0C05EDE4F288139814A815B81C052F9
:10FAB000D1400894C108D108760100E010E0089414
:10FAC000C11CD11C0894E11CF11C011D111DE20E8A
:10FAD000F31E041F151F21BDBB27A52F942F832FB5
:10FAE00082BD2F5F3F4F4F4F5F4FF89A80B5DB01CC
:10FAF0008D93BD012E153F054007510761F7C05E8C
:10FB0000DE4F288339834A835B83C052D1409601FC
:10FB10002D5F3F4FFB01108204C080EC8A8322E0FE
:10FB200030E08BE18093C6008091C00086FFFCCF5F
:10FB30008091C00080648093C000C15DDE4FF88179
:10FB4000CF52D140F093C6008091C00086FFFCCF19
:10FB50008091C00080648093C000432F3093C60022
:10FB60008091C00086FFFCCF8091C00080648093AC
:10FB7000C000922F2093C6008091C00086FFFCCF6A
:10FB80008091C00080648093C0008EE08093C600A6
:10FB90008091C00086FFFCCF8091C000806480937C
:10FBA000C00065E1C15DDE4FE880CF52D1406E25D7
:10FBB00069276427FE01319610C090819093C6009A
:10FBC0008091C00086FFFCCF31968091C000806498
:10FBD0008093C0006927215030402115310569F715
:10FBE0006093C6008091C00086FFFCCF8091C0006A
:10FBF00080648093C00085B1805885B9772081F4F6
:10FC0000C15DDE4F0881CF52D1400F5FC15DDE4F35
:10FC10000883CF52D14090E0A0E0B0E00D941AF4F8
:10FC200027982F9880E090E020ED37E0F901319798
:10FC3000F1F7019684369105C9F700008091C00064
:10FC40008D7F8093C00081E180935700E895EE2777
:10FC5000FF270994FFCF90E00D941AF497FB092E2B
:10FC600007260AD077FD04D02ED006D000201AF443
:10FC7000709561957F4F0895F6F7909581959F4F08
:10FC80000895A1E21A2EAA1BBB1BFD010DC0AA1FDD
:10FC9000BB1FEE1FFF1FA217B307E407F50720F0F5
:10FCA000A21BB30BE40BF50B661F771F881F991F70
:10FCB0001A9469F760957095809590959B01AC01B9
:10FCC000BD01CF010895AA1BBB1B51E107C0AA1FAC
:10FCD000BB1FA617B70710F0A61BB70B881F991FED
:10FCE0005A95A9F780959095BC01CD010895F99991
:10FCF000FECF92BD81BDF89A992780B50895262F31
:10FD0000F999FECF1FBA92BD81BD20BD0FB6F89400
:0EFD1000FA9AF99A0FBE01960895F894FFCF63
:040000033000E000E9
:00000001FF
