:100000000C949E050C94C6050C94C6050C94C6056C
:100010000C94C6050C94C6050C94C6050C94C60534
:100020000C94C6050C94C6050C943F1A0C94AE1A99
:100030000C94C6050C94C6050C94C6050C94C60514
:100040000C94C6050C94C6050C94C6050C94C60504
:100050000C94C6050C94C6050C94C6050C94E01CC3
:100060000C94C6050C94C6050C94C6050C94C605E4
:100070000C94C6050C94C6050C94C6050C94C605D4
:100080000C94C6050C94C6050C94C6050C94C605C4
:100090000C94C6050C94C6050C94C6050C94C605B4
:1000A0000C94C6050C94C6050C94C6054552524FD7
:1000B00052202D20436F6D6D616E642062756666FF
:1000C0006572206F766572666C6F772100556E726F
:1000D00065636F676E697A656420636F6D6D616ECD
:1000E000640020616E64200056616C696420726156
:1000F0006E6765206973206265747765656E2000A0
:1001000020005365742064657669636520707269A8
:100110006D617279206164647265737320746F3AE3
:10012000200054686174206973206D7920616464D3
:1001300072657373212041646472657373206F6606
:1001400020612072656D6F746520646576696365F2
:100150002069732072657175697265642E00206D67
:10016000696C6C697365636F6E64730053657420AA
:100170005B726561645F746D6F5F6D735D20746F3A
:100180003A200053657420454F5320746F3A200085
:1001900053657420454F4920617373657274696FAC
:1001A0006E3A2000496E74657266616365206D6FFA
:1001B00064652073657420746F3A20004170706527
:1001C0006E64696E67206F6620454F5420636861D6
:1001D0007261637465723A2000454F5420736574F0
:1001E00020746F2041534349492063686172616301
:1001F0007465723A20004175746F206D6F64653AC2
:1002000020002020202020202020202761646472EC
:10021000657373656420746F2074616C6B20627504
:1002200074206E6F7468696E6720746F20736179D3
:1002300027206572726F7273005741524E494E47C4
:100240003A206175746F6D6F6465204F4E20636155
:100250006E20636175736520736F6D6520646576CC
:100260006963657320746F2067656E65726174657C
:10027000004152343838204750494220636F6E7431
:10028000726F6C6C65722C207665722E20302E3465
:10029000392E31322C2031312F30312F3230323162
:1002A000004152343838204750494220636F6E7401
:1002B000726F6C6C65722C207665722E20302E3435
:1002C000392E31322C2031312F30312F3230323132
:1002D00000496E76616C6964207465726D696E6147
:1002E00074696F6E20636861726163746572202D3A
:1002F0002069676E6F72656421004661696C656490
:1003000020746F20756E74616C6B204750494220D9
:10031000627573004661696C656420746F20736553
:100320006E6420534443004661696C656420746FB9
:100330002061646472657373206465766963650027
:100340004661696C656420746F20756E6C697374A6
:10035000656E2074686520475049422062757300BD
:100360004661696C656420746F2073656E64204C0F
:100370004C4F20746F20646576696365004661693F
:100380006C656420746F206164647265737320749B
:100390006865206465766963652E004661696C65F1
:1003A0006420746F2073656E6420756E6976657263
:1003B00073616C204C4C4F2E004661696C65642063
:1003C000746F20756E6C697374656E204750494276
:1003D000206275732E004661696C65642073656EDA
:1003E00064696E67204C4F432E004661696C6564FA
:1003F00020746F206164647265737320646576692C
:1004000063652E00494643207369676E616C206105
:100410007373657274656420666F722031353020A5
:100420006D6963726F7365636F6E64730047726F9B
:100430007570207472696767657220636F6D706C88
:10044000657465642E004661696C656420746F2074
:10045000756E6C697374656E2047504942206275F1
:1004600073004661696C656420746F2074726967FB
:1004700067657220646576696365004661696C65CD
:100480006420746F206164647265737320646576A0
:10049000696365005265736574204641494C454463
:1004A0002E0053657269616C20706F6C6C20636FF5
:1004B0006D706C657465642E004661696C656420BE
:1004C000746F2072657472696576652073746174E7
:1004D00075732062797465005D2066726F6D2064AB
:1004E0006576696365206174206164647265737305
:1004F0003A2000526563656976656420737461749F
:1005000075732062797465205B002C005352513A58
:1005100000496E76616C696420706172616D65740A
:1005200065720053657269616C20706F6C6C206F2E
:100530006620616C6C206465766963657320726502
:10054000717565737465642E2E2E0053525120759B
:100550006E2D61737365727465642E005352512061
:1005600061737365727465642E0053657474696E8B
:1005700067732073617665642E004C4F4E3A2000FD
:1005800053656E64696E672044434C206661696CF4
:1005900065640053657420454F5220746F3A200003
:1005A000506172616C6C656C20706F6C6C20636F55
:1005B0006D706C657465642E0052454E3A2000548F
:1005C0004F4E3A20004D697373696E6720706172F7
:1005D000616D6574657273004D697373696E672030
:1005E000706172616D657465720044697361626CFB
:1005F000656400496E76616C69643A20303D6461DF
:100600007461206275733B20313D636F6E74726F4D
:100610006C2062757300546D42757320736574208D
:10062000746F3A200053657269616C206E756D625B
:100630006572206D757374206E6F742065786365C4
:100640006564203920636861726163746572732127
:10065000004C656E677468206F66206E616D652062
:100660006D757374206E6F742065786365656420A2
:100670003135206368617261637465727321004C67
:10068000656E677468206F662076657273696F6E39
:1006900020737472696E67206D757374206E6F7449
:1006A0002065786365656420343820636861726111
:1006B000637465727321005665725374723A200038
:1006C00020776974682073657269616C206E756D3E
:1006D0006265720053656E64696E672049444E3AE4
:1006E000200020746F206465766963650067706917
:1006F0006253656E64436D643A206661696C65643B
:1007000020746F2073656E6420636F6D6D616E641D
:1007100020006770696253656E64446174613A20B9
:100720004661696C656420746F20756E74616C6BD2
:10073000206275730054696D656F75742077616907
:1007400074696E6720666F72207472616E7366657D
:100750007220746F20636F6D706C65746521005436
:10076000696D656F75742077616974696E6720665D
:100770006F722073656E6465722100454F49206475
:1007800065746563746564210042797465732072D1
:100790006561643A200020746F2074616C6B0046C0
:1007A00061696C656420746F206164647265737341
:1007B00020746865206465766963650067706962A6
:1007C00052656164427974653A2074696D656F752C
:1007D000742077616974696E672044415620746F94
:1007E00020676F2048494748006770696252656119
:1007F00064427974653A2074696D656F7574207709
:10080000616974696E6720666F7220444156207476
:100810006F20676F204C4F5700677069625772698D
:100820007465427974653A2074696D656F757420DA
:1008300077616974696E6720666F722064617461A4
:10084000206163636570746564207369676E616CB1
:10085000202D205B4E44414320756E617373657299
:100860007465645D00677069625772697465427986
:1008700074653A2074696D656F7574207761697469
:10088000696E6720666F72206461746120746F20E6
:100890006265206163636570746564202D205B4E22
:1008A0005246442061737365727465645D006770BD
:1008B00069625772697465427974653A2074696D2A
:1008C000656F75742077616974696E6720666F72F1
:1008D000207265636569766572207265616479204E
:1008E0002D205B4E52464420756E617373657274A1
:1008F00065645D00677069625772697465427974F6
:10090000653A2074696D656F7574207761697469E3
:100910006E6720666F722072656365697665722006
:10092000617474656E74696F6E205B4E4441432040
:1009300061737365727465645D00677069625365A5
:100940006E64446174613A204661696C6564207428
:100950006F20756E6C697374656E2062757300200C
:10096000746F206C697374656E006770696253659B
:100970006E64446174613A206661696C65642074D8
:100980006F20616464726573732064657669636562
:100990002000000000002300260029002C002F006A
:1009A0000000000200090F0000030401000C000019
:1009B000000000000000000000000000000000082F
:1009C0000B00020202000009040000010202000004
:1009D0000524001001052401010104240206052458
:1009E0000600010705810310004009040100020A06
:1009F00000000007050202400000070583024000D6
:100A0000000403090412010002EF020140412337F0
:100A10008000010102030141726475696E6F204C10
:100A20004C430041726475696E6F204D6963726F4B
:100A30000000000000250028002B002E00310000DF
:100A4000000000240027002A002D003000040404C8
:100A50000404030405020202020403020202020665
:100A60000606060606040402020204040408020143
:100A700010408040102040804080080204018040E7
:100A80002010020110801020404020436F6D6D61E6
:100A90006E64206E6F7420617661696C61626C6552
:100AA00020696E2074686973206D6F64652E005331
:100AB000656E64696E672073746174757320627902
:100AC00074653A20005352512062697420636C654A
:100AD000617265642028696620736574292E00534D
:100AE00074617475732073656E742E00536572693A
:100AF000616C20706F6C6C20726571756573742009
:100B000072656365697665642066726F6D20636FD8
:100B10006E74726F6C6C6572202D3E003C2D2073DC
:100B2000657269616C20706F6C6C2072657175659F
:100B3000737420656E6465642E005D1D11241FBEF4
:100B4000CFEFDAE0DEBFCDBF24E0A0E9B3E001C023
:100B50001D92A73EB207E1F713E0A0E0B1E0EAEE94
:100B6000F8E402C005900D92A039B107D9F715E05D
:100B7000CEE9D5E004C02197FE010E943F21CD3986
:100B8000D107C9F70E94721D0C9473240C940000C5
:100B9000E1E4F4E065E974E02FEF3FEF8191832712
:100BA000982F92959F708927482F50E0922F9A0195
:100BB000322F22273295307F822793279A01B5E082
:100BC000220F331FBA95E1F7282739276E177F07C1
:100BD00029F7C9010895FC018091BB03882311F115
:100BE0003FB7F89482E08093E9002091F200822FD1
:100BF00090E01816190614F481E090E0882339F08B
:100C0000289A44E64093BA034091F100408322239E
:100C100039F02091F200211103C02BE62093E80067
:100C20003FBF08958FEF9FEF08952FB7F89483E0AB
:100C30008093E9009091E800892F807295FF04C0AD
:100C40009091F20080E4891B2FBF08958091B20338
:100C500081110DC082E08093AE0384E08093AF03E6
:100C60001092B1031092B00381E08093B2038EEA38
:100C700093E008958230910538F0880F991F880F0E
:100C8000991F05970197F1F7089540919F0350919F
:100C9000A00320919D0330919E0342175307B4F4A3
:100CA0009091E8009570E1F39091E80092FD19C0F1
:100CB0008093F10080919F039091A00301968F7320
:100CC0009927892B19F48EEF8093E80080919F0378
:100CD0009091A00301969093A00380939F0381E0DD
:100CE000089580E00895DF92EF92FF920F931F9393
:100CF000CF93DF93D82E8A01EB017B01E40EF51E22
:100D0000CE15DF0559F0D7FE12C0FE0184910E9476
:100D1000450621968111F4CF0FEF1FEFC801DF9137
:100D2000CF911F910F91FF90EF90DF9008958881F0
:100D3000EECF0F931F93CF93DF931F92CDB7DEB704
:100D400082E0898342E450E06FEB79E080E80E9422
:100D500073060E942606DC0112960D911C91011566
:100D6000110589F0D801ED91FC910280F381E02D0D
:100D7000BE016F5F7F4FC801099597FD04C0F80160
:100D800000851185ECCF89810F90DF91CF911F9164
:100D90000F910895615030F02091F100FC01208303
:100DA0000196F8CF289A84E68093BA030895DC016F
:100DB000ED91FC910190F081E02D0994EF92FF926A
:100DC0000F931F93CF93DF938C017B01D0E0C0E0A2
:100DD000F701EC0FFD1F6491662361F0D801ED91DE
:100DE000FC910190F081E02DC8010995892B11F04B
:100DF0002196EECFCE01DF91CF911F910F91FF9001
:100E0000EF900895CF93DF931F92CDB7DEB769833C
:100E1000DC01ED91FC910280F381E02D41E050E096
:100E2000BE016F5F7F4F09950F90DF91CF910895BD
:100E300083E08093E9008091F200882319F08AE32F
:100E40008093E80008950E94150690E00895CF93DE
:100E5000DF931F92CDB7DEB7FC018485958597FDA2
:100E600008C02FEF3FEF358724870F90DF91CF9198
:100E70000895CE0101960E94EB05019719F489812E
:100E800090E0F3CF8FEF9FEFF0CF0F931F93CF93AF
:100E9000DF931F92CDB7DEB78C01FC018485958569
:100EA00097FF0BC0CE0101960E94EB05019771F4EC
:100EB000898190E0F80195878487F801848595857C
:100EC0000F90DF91CF911F910F9108958FEF9FEFBA
:100ED000F1CFFC018485958597FD0BC09FB7F894F1
:100EE00082E08093E9008091F2009FBF90E001963C
:100EF00008959FB7F89482E08093E9008091F20012
:100F00009FBF90E0089581508F3008F047C0E82FD0
:100F1000F0E0E357F84F0C943F21AA07AE079C0777
:100F2000A207A607CE07CE07CE07B107B707BB07B4
:100F3000BF07C507CE07C907809180008F778093D0
:100F400080000895809180008F7DF9CF809180008E
:100F5000877FF5CF84B58F7784BD089584B58F7D65
:100F6000FBCF809190008F778093900008958091BF
:100F700090008F7DF9CF80919000877FF5CF809191
:100F8000C0008F778093C00008958091C0008F7D4E
:100F9000F9CF8091C200877F8093C2000895CF93DC
:100FA000DF93282F30E0F901E056F64F8491F901E4
:100FB000E459F54FD491F901E35BF54FC491CC238B
:100FC000A1F081110E948307EC2FF0E0EE0FFF1FCC
:100FD000EE56F64FA591B491EC91ED2381E090E0AF
:100FE00009F480E0DF91CF91089580E090E0FACF9E
:100FF0001F93CF93DF93282F30E0F901E056F64F8F
:101000008491F901E459F54FD491F901E35BF54F6F
:10101000C491CC23A9F0162F81110E948307EC2FD5
:10102000F0E0EE0FFF1FEF5CF54FA591B4918FB785
:10103000F894EC91111108C0D095DE23DC938FBF9A
:10104000DF91CF911F910895DE2BF8CF3FB7F89431
:101050008091990390919A03A0919B03B0919C0376
:1010600026B5A89B05C02F3F19F00196A11DB11D03
:101070003FBFBA2FA92F982F8827BC01CD01620F3F
:10108000711D811D911D42E0660F771F881F991FFA
:101090004A95D1F708958F929F92AF92BF92CF92C7
:1010A000DF92EF92FF926B017C010E9426084B01B8
:1010B0005C01C114D104E104F104B9F00E942608D6
:1010C000681979098A099B09683E73408105910571
:1010D00080F321E0C21AD108E108F10888EE880EF9
:1010E00083E0981EA11CB11CE4CFFF90EF90DF902D
:1010F000CF90BF90AF909F908F9008958F929F92C6
:10110000AF92BF92CF92DF92EF92FF920F931F9315
:10111000CF93DF936C017B018A0180910C018823BE
:1011200009F45CC08091BB03882309F457C0809107
:10113000A30380FF05C08091E00082608093E000FF
:10114000E801B12C8AEFA82E93E0892E2AE3922E93
:10115000209711F4BB20D9F10E94150681110AC015
:10116000AA94AA20D9F161E070E080E090E00E94AA
:101170004B08EECF8C171D0611F00CF08C2F9FB78B
:10118000F8948092E9002091E80025FD02C09FBFFD
:10119000DFCF282F30E0C21BD30BF701815020F0A6
:1011A00041914093F100FACFE20EF31EBB2021F0F3
:1011B0009092E800B12CEBCF8091E80085FDE7CF5D
:1011C0009092E800BB24B394209709F3F3CF5D9A83
:1011D00084E68093A203101611063CF081E090E0B3
:1011E000F6019383828310E000E0C801DF91CF9184
:1011F0001F910F91FF90EF90DF90CF90BF90AF9035
:101200009F908F900895CF93DF93E62FF0E0962F75
:101210009E71A9F09F0153E0220F331F5A95E1F709
:10122000207F322F309598E0899FD00111242A2306
:10123000413009F447C091B39323292B21BB962F4A
:10124000917EE9F1C82FD0E0DF01AA0FBB1FA07487
:101250009F0154E0220F331F5A95E1F7207176E089
:10126000F595E7957A95E1F7E270E22B60749A2F95
:1012700090959E01220F331FA2237E2F70959E0111
:10128000B4E0220F331FBA95E1F7207136E0D5950F
:10129000C7953A95E1F7C2702C2B2E23562F509507
:1012A00068234130A1F038B13923A32BA8B99BB1F1
:1012B0009723292B2BB98EB18523682B6EB9DF912B
:1012C000CF91089590B39323292B20BBB8CF37B18A
:1012D0003923A32BA7B99AB19723292B2AB98DB10A
:1012E0008523682B6DB9EBCF94B19E6794B99AB101
:1012F00091689AB995B180959178282F2E77922B85
:1013000095B99BB19E778178892B8BB9089589B166
:1013100093B181789E77892B80950895825088308B
:1013200078F4E82FF0E0E856F64F41E00C943F21C6
:10133000A909B009C709BF09CA09D209D909E10930
:1013400041E06FEF88EB0E94030940E06FEF8FED03
:101350000EC06EE988EB0E94030940E06EE9F7CF0A
:101360006FE989EB0E94030940E06FE98FE50E9475
:10137000030980917D0490917E040C943A066EE9F5
:1013800086EA0E94030940E06EE988EDF0CF6EE93D
:1013900089EBE1CF6FEF80E00E94030940E06FEF3F
:1013A0008FEFE5CF6EE080E00E94030940E06EE041
:1013B000F7CF6EE086E00E94030940E06EE089EF1F
:1013C000D6CF6EE088E0F7CFBF92CF92DF92EF9258
:1013D000FF920F931F93CF93DF93C82FB62E2FB793
:1013E000F8948091950390919603A0919703B09102
:1013F00098032FBF6A01550FEE08FF08C80ED91ECB
:10140000EA1EFB1E82E00E94CF078C01D0E08B2DEC
:101410000E94CF078C179D0721F12FB7F894809178
:10142000950390919603A0919703B09198032FBFD5
:101430008C159D05AE05BF0558F081E0DF91CF9179
:101440001F910F91FF90EF90DF90CF90BF90089584
:1014500001151105E1F682E00E94CF070197B9F668
:10146000ECCF80E0EBCF41E060E480E00E94030934
:1014700040E060E480E40C9403099091AB03E92F11
:10148000F0E0E354FC4F80839F5F9093AB0308959B
:10149000E1E4F4E084E5DF011D928A95E9F782E05A
:1014A000828381E0848380EB94E092878187089532
:1014B0000C94480AFF920F931F93CF93DF9301E49C
:1014C00014E0C2E0D0E0F801F1908F01CE010E945B
:1014D0000721F81621F06F2DCE010E940F212196D1
:1014E000C635D10581F70E94C805D82FC92F90E0D5
:1014F00080E00E940721D81729F06D2F90E080E04E
:101500000E940F2181E090E00E940721C81751F04E
:101510006C2F81E090E0DF91CF911F910F91FF90B0
:101520000C940F21DF91CF911F910F91FF9008959F
:10153000CF93DF93EC0190E080E00E940721888345
:1015400081E090E00E9407218983CE01DF91CF9155
:101550000895FB0101900020E9F73197AF01461B88
:10156000570BDC01ED91FC910280F381E02D099491
:101570008F929F92AF92BF92EF92FF920F931F9321
:10158000CF93DF93CDB7DEB7A1970FB6F894DEBF48
:101590000FBECDBF7C01FA01CB0119A2223008F4A5
:1015A0002AE08E010F5D1F4F822E912CB12CA12CB1
:1015B000BF01A50194010E941D21F901CA016A30F1
:1015C0000CF5605DD8016E938D01232B242B252B08
:1015D00079F790E080E0109721F0BD01C7010E94EB
:1015E000A90AA1960FB6F894DEBF0FBECDBFDF915A
:1015F000CF911F910F91FF90EF90BF90AF909F9070
:101600008F900895695CDECF64E072E00C94A90AC3
:10161000CF92DF92EF92FF920F931F93CF93DF93BE
:101620008C016B01770FEE08FF08F7FE1FC06DE21B
:101630000E94D706EC0144275527BA014C195D09D1
:101640006E097F092AE0C8010E94B80AC80FD91F95
:10165000C8010E94040B8C0F9D1FDF91CF911F9139
:101660000F91FF90EF90DF90CF9008952AE0B7019F
:10167000A6010E94B80AEC01EBCF87E00E94CF07D9
:1016800061E070E0892B11F070E060E085E994E0A2
:101690000C94080B0F931F93CF93DF93EC01AB01D6
:1016A00070E060E02AE00E94B80A8C01CE010E943E
:1016B000040B800F911FDF91CF911F910F9108951F
:1016C0000F931F93CF93DF93EC01462F50E070E010
:1016D00060E02AE00E94B80A8C01CE010E94040B4F
:1016E000800F911FDF91CF911F910F9108950F935C
:1016F0001F93CF93DF93EC010E94A90A8C01CE01C6
:101700000E94040B800F911FDF91CF911F910F91C9
:1017100008950F931F93CF93DF93EC010E94DE0691
:101720008C01CE010E94040B800F911FDF91CF919D
:101730001F910F910895CF93C82F40914A04509163
:101740004B0465E180E00E94E4098823E9F0C09140
:101750003E04C11112C0C1E040E068E088E00E9490
:10176000030980E00E94740980917D0490917E04B9
:101770000E943A068C2FCF91089564EF78E085E9B6
:1017800094E00E94890BE8CF40914A0450914B04A9
:1017900064E181E00E94E409882339F0C0913E04AD
:1017A0006EEA78E0CC23B9F2EACF8C2F0E9474095C
:1017B00040E068E080E00E94030940914A045091B3
:1017C0004B0464E180E00E94E409882341F0C09169
:1017D0003E0465E678E0CC2309F4BDCFD0CF40913C
:1017E0004A0450914B0465E181E00E94E409C82F4E
:1017F000882309F4B1CFC0913E04CC2309F4ABCFC8
:1018000069E178E0BCCFEF92FF920F931F93CF93E3
:10181000DF938C01EB0182E00E94CF077C011882EC
:1018200040E064E084E00E940309EF2891F482E044
:101830000E94CF07019769F440E064E080E00E94D5
:10184000030983E0DF91CF911F910F91FF90EF90FB
:10185000089540914A0450914B0463E180E00E9456
:10186000E409882389F080913E04882331F069EEF1
:1018700077E085E994E00E94890B40E064E080E035
:101880000E94030981E0DECF40E064E080E00E9436
:1018900003098091A603882339F082E10E94CF07D3
:1018A000892B11F481E088830E948709F8018083E5
:1018B00040E062E082E00E94030940914A045091B6
:1018C0004B0463E181E00E94E409882361F0809188
:1018D0003E04882331F06CEB77E085E994E00E94C8
:1018E000890B82E0AFCF40E062E080E00E94030914
:1018F00080917D0490917E040E943A0680E0A2CF00
:10190000CF93DF93C82F83E00E948E098C2F0E9413
:101910009B0BD82F8823C9F080913E048823A9F01F
:101920006DEE76E085E994E00E94DE064C2F50E0F3
:1019300070E060E020E185E994E00E94B80A62EE80
:1019400076E085E994E00E94890B8D2FDF91CF919D
:10195000089583E790E00197F1F78FE30E94800CF0
:10196000811103C08FE50C94800C0895CF93DF9311
:10197000C82FD62F8FE30E94800C811119C0DD2360
:1019800069F080E48C0F0E94800C811111C080915D
:101990004404805EDF91CF910C94800C80E28C0F28
:1019A0000E94800C811104C080914404805CF2CFBD
:1019B00081E0DF91CF910895CF92DF92EF92FF9275
:1019C0000F931F93CF936C01E62E809143048230D6
:1019D00009F07EC080910001882349F160E0809188
:1019E00045040E94B60C882311F180913E0488239F
:1019F00009F484C06AE679E085E994E00E94DE0695
:101A00004091450450E070E060E02AE085E994E010
:101A10000E94B80A6FE579E085E994E0CF911F91C3
:101A20000F91FF90EF90DF90CF900C94890B8091F5
:101A30003F0491E089278093000184E00E948E0991
:101A40008601F12CC8018C199D098E159F050CF09B
:101A500045C0F80181918F010E949B0BC82F8823FC
:101A600089F380914204882389F080913F04811199
:101A70000DC040E060E10E9403098BE990E001970E
:101A8000F1F740E060E180E10E94030980914304A6
:101A9000823001F5C11112C080910001882371F0DC
:101AA0000E94A90C882351F080913E04882331F0D4
:101AB0006AE379E085E994E00E94890B82E0CF91A6
:101AC0001F910F91FF90EF90DF90CF900C948E09B3
:101AD00089E0B4CF813091F487E0F1CF8091470461
:101AE00081FD03C08DE00E949B0B8091470480FD27
:101AF00003C08AE00E949B0BC0E0B3CFCF911F913F
:101B00000F91FF90EF90DF90CF900895CF93DF93E8
:101B100082E00E948E09CBE4D0E0CE010197F1F77C
:101B200040E060E980E00E9403092197F1F70E94FC
:101B30008709C82F82E00E948E096C2F85E994E006
:101B40000E94600B80913E04882341F060EA75E0BA
:101B500085E994E0DF91CF910C94890BDF91CF91CF
:101B6000089584E10E94800C882351F080913E0406
:101B7000882349F060E875E085E994E00C94890BCE
:101B800082E00C948E0908950E945A0A80913E04C6
:101B9000882331F06AE675E085E994E00C94890BBE
:101BA00008952FB7F8948091950390919603A09192
:101BB0009703B09198032FBF8053984FAF4FBF4FFB
:101BC00028E13EE00FB6F894A895209360000FBE80
:101BD000309360002FB7F89440919503509196038D
:101BE00060919703709198032FBF481759076A07B0
:101BF0007B0780F380913E04882331F064E974E030
:101C000085E994E00C94890B08958091430488231E
:101C1000C1F040E061E080E00E94030983E592E0CA
:101C20000197F1F740E061E081E00E9403098091B3
:101C30003E04882331F064E074E085E994E00C947C
:101C4000890B089560E0809145040E94B60C8823BA
:101C500039F080913E0467E273E081110CC0089571
:101C600084E00E94800C882351F080913E048823F8
:101C7000B1F364E173E085E994E00C94890B0E9470
:101C8000A90C882339F080913E046AEF72E0882322
:101C900031F3F1CF82E00C948E096DEC70E085E9B0
:101CA00094E00C94890B80913E0491E08927809305
:101CB0003E0467E072E085E994E00E94A90A809101
:101CC0003E046CE672E0882311F060E672E085E97C
:101CD00094E00C94770B85E994E00E94040B61E199
:101CE00072E085E994E00C94A90A25E0FC011192C8
:101CF0002A95E9F76AEE75E085E994E00C94890B82
:101D0000EDEBF3E080E8DF011D928A95E9F7109290
:101D1000AB030895E82FF0E0E454FC4F90819F332B
:101D200019F491E0909340049091BC03911105C087
:101D3000682F8DEB93E00E94DC0C80913F048111B1
:101D400010923F0480913E0481110E946B0E0E940C
:101D5000800E10923D040895CF93DF93EC0185E04F
:101D60000E94CF07892BA9F5209731F143E050E07D
:101D700064E172E0CE010E947121892B51F540E0AF
:101D800060E280E20E94030968E270E080E090E097
:101D90000E944B0840E060EA80E00E94030968E28C
:101DA00070E080E090E00E944B0840E060E880E84E
:101DB000DF91CF910C94030960E0809145040E946B
:101DC000B60C882349F080913E046AEE73E08111DD
:101DD0000EC0DF91CF91089581E00E94800C88238E
:101DE00061F080913E048823A1F366ED73E085E9FC
:101DF00094E0DF91CF910C94890B0E94A90C882369
:101E000039F080913E0469EB73E0882311F3EFCF42
:101E100082E0DF91CF910C948E09CF93DF93EC0198
:101E200085E00E94CF07892BD1F42097E9F043E0A9
:101E300050E064E172E0CE010E947121892B79F4B7
:101E400081E10E94800C882351F080913E04882318
:101E500031F06BE973E085E994E00E94890B82E040
:101E6000DF91CF910C948E0960E0809145040E942F
:101E7000B60C882349F080913E046DE773E0811130
:101E80000EC0DF91CF91089581E10E94800C8823DC
:101E900061F080913E048823A1F360E673E085E958
:101EA00094E0DF91CF910C94890B0E94A90C8823B8
:101EB000B1F280913E0460E473E0882311F3EFCF28
:101EC000009751F043E050E068E172E00E94712118
:101ED00061E772E0892B61F080914D0461EA72E064
:101EE000882331F06DE474E085E994E00C94770B7D
:101EF00085E994E00C94890B1F93CF93DF93C0E0A6
:101F000011E085E994E00E946907892B09F4A9C0D2
:101F1000C111A7C085E994E00E942707D82F8091BE
:101F2000AB0387FD57C080913E04882329F06D2FB5
:101F300085E994E00E94D706DD30D1F024F4DA3050
:101F4000B9F08D2F79C0DB3109F471C0DB32C9F7EC
:101F500080919103882341F0109291038091AB030B
:101F6000823010F4109390038BE20E943D0A32C03D
:101F7000809191038111E5CF8091AB03C0913E0424
:101F8000811107C00E94800EC1110E946B0EC0E03B
:101F9000B8CFCC2321F085E994E00E94040BC091D6
:101FA000AB03C33008F440C09091BD039B3221F5D0
:101FB0009091BE039B3201F59091900391111CC04A
:101FC0008091BF03C1E0813219F40E94800EC3E00A
:101FD000109290038091AB0387FF93CF8091BD0354
:101FE0008B3231F48091BE038B3211F4CC2361F13A
:101FF00010933F04C2E085CFC33011F4C2E0E8CFB4
:10200000809194048823D1F345E050E06DE172E0C3
:102010008DEB93E00E947121892B81F71093A70328
:102020000E94800EC0E0D4CFCC2391F2E7CF809104
:102030009103882331F08BE10E943D0A10929103B5
:10204000C9CF10939103C6CF80913E04882331F00D
:102050006CEA70E085E994E00E94890B0E94800E92
:1020600050CF8C2FDF91CF911F910895AF92BF92E7
:10207000DF92EF92FF920F931F93CF93DF9300D0E5
:1020800000D0CDB7DEB719821A821B8280917F04FF
:10209000082F07701C821092A503D090A6038730EA
:1020A00019F481E08093A60380914304823009F003
:1020B000D2C061E0809145040E94B60C8823D1F023
:1020C00080913E048823B1F06FE977E085E994E0E0
:1020D0000E94DE064091450450E070E060E02AE096
:1020E00085E994E00E94B80A66E977E085E994E022
:1020F0000E94890B40914A0450914B0464E181E0B5
:102100000E94E40985E00E948E0984B1817884B937
:102110008AB18E778AB985B18E6785B98BB18168AE
:102120008BB9F12CE12CA02EB12C1091A50311112B
:10213000ECC082E00E94CF07892BD9F0BE016C5F12
:102140007F4FCE0101960E94030C182F8091490405
:10215000833021F08091A603882321F00E947C0F18
:1021600080933D0480913D04882309F47BC0109244
:10217000A90380913E04882359F069E877E085E956
:1021800094E00E94DE06B70185E994E00E94080B06
:102190008C818823A1F080913E04882331F06BE785
:1021A00077E085E994E00E94890B809141048823BF
:1021B00031F060914C0485E994E00E94D706D092FA
:1021C000A6031123C1F080913E04882341F0113011
:1021D00031F46FE577E085E994E00E94890B809106
:1021E0003E04882341F0123031F465E377E085E95D
:1021F00094E00E94890B80914304823009F087C0EB
:102200000E94A90C882351F080913E04882331F06C
:1022100062E177E085E994E00E94DE068091430464
:10222000823011F40E948E098091A50381111092D1
:10223000A50381E0111101C080E00F900F900F9075
:102240000F90DF91CF911F910F91FF90EF90DF9052
:10225000BF90AF90089588E00E948E0981E080933E
:10226000A60353CF82E00E94CF07892B09F481CFC8
:10227000698185E994E00E94D7068FEFE81AF80A91
:102280008091A603882351F08C81811172CF1111A6
:1022900070CF8A818B8389818A8347CF8091930312
:1022A000882331F09981809192039813F0CF61CF08
:1022B000073028F5F501E15AFE4E0C943F217F11BD
:1022C00066116A1147116E117311771189818D3072
:1022D000F1F64FCF89818A30D1F64BCF89818D308D
:1022E000B1F68A81F8CF8981833089F642CF89811E
:1022F000833069F68A818A3051F68B81E8CF8981F3
:102300008A3009F0C4CF8A81E2CF10E032CF87E073
:1023100089CFBF92CF92DF92EF92FF920F931F93DC
:10232000CF93DF93CDB7DEB72A970FB6F894DEBF11
:102330000FBECDBF009709F447C063E272E00E9470
:10234000BE207C01DC010D900020E9F76D01FD014C
:1023500001900020E9F731978F010A1B1B0B46E023
:1023600050E066E272E0002309F482C00E9471210D
:10237000892B69F5F0903E048FEF800F8F32E0F4E7
:10238000EDE4F4E080E3DF011D928A95E9F7A8010E
:102390005527B601CF010E947F21FF2031F067EB66
:1023A00076E085E994E00E94DE066DE474E085E95C
:1023B00094E00E94770B25C0FF2031F06FE776E0B4
:1023C00085E994E00E94890B0E944D0E1AC044E0FA
:1023D00050E06DE272E0C7010E947121892B41F546
:1023E0008FEF800F8F30E8F4E0E8F4E080E1DF0168
:1023F0001D928A95E9F7A8015527B601CF010E94E1
:102400007F212A960FB6F894DEBF0FBECDBFDF91B5
:10241000CF911F910F91FF90EF90DF90CF90BF90E1
:10242000089580913E0461E576E0882369F2C8CF83
:1024300046E050E062E372E0C7010E947121892BFF
:1024400019F6B9E0B01760F0C6010E9497206093BA
:102450009004709391048093920490939304D1CF4D
:1024600080913E0465E276E0882309F4ADCFA8CFE1
:102470000E947121892B09F498CF44E050E06DE26D
:1024800072E0C7010E947121892B19F460E874E0A1
:102490008ECF46E050E062E372E0C7010E947121F6
:1024A000892B09F091CF8AE08E010F5F1F4FF80151
:1024B000982F11929A95E9F7909193049F93909198
:1024C00092049F93909191049F93909190049F9375
:1024D00029E332E03F932F931F928F931F930F9323
:1024E0000E948E21B80185E994E00E94770B0FB617
:1024F000F894DEBF0FBECDBF84CFCF93DF9363E2EE
:1025000072E00E94BE200097B1F0FC010190002013
:10251000E9F73197E81BF90B349768F40E947920AA
:10252000C82F833048F063EF75E085E994E0DF91D0
:10253000CF910C94890BC0E063E272E090E080E000
:102540000E94BE200097C9F1FC0101900020E9F72C
:102550003197E81BF90BD0E0349718F40E947920EA
:10256000D82FCC23E1F041E06FEF8FEF0E940309F9
:1025700040E06FEF8D2F80950E94030960E177E2C4
:1025800080E090E00E944B0880914304823029F45F
:1025900081E0DF91CF910C948E0986E0FACF8D2FE8
:1025A0000E94740960E177E280E090E00E944B08AD
:1025B00080E0DF91CF910C947409DF91CF91089561
:1025C000CF93DF931092A603109293030097A1F08C
:1025D000EC01FC0101900020E9F73197E81BF90BB1
:1025E0003497A0F080913E04882331F061ED72E0D1
:1025F00085E994E00E94890B809149048330D9F4E5
:1026000081E08093A903DF91CF91089543E050E0EA
:102610006FE372E00E947121892B21F481E08093A5
:10262000A603EACF81E080939303CE010E94792034
:1026300080939203E1CFDF91CF910C943610EF920B
:10264000FF920F931F93CF93DF93DC01EC91E11185
:1026500009C0C1E08C2FDF91CF911F910F91FF90A6
:10266000EF900895E9017A018B01198218820E9486
:102670007920998388838017910720F0C0E0E816BD
:10268000F90640F70E944D0EC0913E04CC2309F399
:1026900068EE70E085E994E00E94DE06A80170E033
:1026A00060E02AE085E994E00E94B80A62EE70E0FA
:1026B00085E994E00E94DE06B70185E994E00E9476
:1026C0004A0BC8CFCF93DF9300D0CDB7DEB70097CA
:1026D000B9F19E012F5F3F4F42E050E070E060E0B3
:1026E0000E941F13811127C08981809394048091D7
:1026F0003E04882301F164ED76E085E994E00E94D0
:10270000DE0689819A8163E472E0892B11F06CE422
:1027100072E085E994E00E94A90A89819A81029772
:1027200031F460EC76E085E994E00E94DE0685E90C
:1027300094E00E94040B0F900F90DF91CF910895C9
:102740006091940485E994E00E94600BF4CFCF93EC
:10275000DF9300D0CDB7DEB7009731F19E012F5F38
:102760003F4F40E355E770E060E00E941F13811186
:1027700016C089819A8190937E0480937D04809114
:102780003E04882361F066E176E085E994E00E94EA
:10279000DE0669817A8185E994E00E944A0B0F90F8
:1027A0000F90DF91CF91089560917D0470917E0428
:1027B000F2CFEF92FF920F931F93CF93DF9300D04E
:1027C00000D0CDB7DEB7009709F46EC063E272E0C7
:1027D0000E94BE20FC012081211124C063E272E02E
:1027E00090E080E00E94BE20FC012081211130C0D9
:1027F00064E572E090E080E00E94BE208C01FC0164
:102800008081F12CE12C81112FC00E944D0E80910E
:102810003E0468ED75E0882381F085E994E00E942C
:10282000890B0BC09E012F5F3F4F4FEF50E062E0DE
:1028300070E00E941F13882389F20F900F900F9071
:102840000F90DF91CF911F910F91FF90EF9008951E
:102850009E012D5F3F4F40E355E770E060E00E942E
:102860001F138111EACFC4CF89819A81E816F90636
:1028700020F7F80101900020E9F73197BF01601BB4
:10288000710B8091BC03811103C0C8010E94DC0C54
:102890006B817C8190E080E00E944B080E943610A2
:1028A000FFEFEF1AFF0AE0CF0E944D0E80913E0429
:1028B000882319F265EC75E0B0CFCF93DF9300D099
:1028C000CDB7DEB7009769F19E012F5F3F4F41E022
:1028D00050E070E060E00E941F13811116C08981F2
:1028E0009A810097B9F00197C1F080913E04882346
:1028F00061F08091AA0363E672E0882311F067E536
:1029000072E085E994E00E94770B0F900F90DF91C1
:10291000CF9108951092AA03E8CF81E08093AA0393
:10292000E4CF6091AA0370E085E994E00E94080B6F
:10293000ECCFCF93DF9300D0CDB7DEB7009791F106
:102940009E012F5F3F4F41E050E070E060E00E9449
:102950001F13811122C089819A8121E0009709F417
:1029600020E02093A803892B11F01092BC038091E2
:102970003E04882391F06FEB75E085E994E00E94B6
:10298000DE0689819A816CE672E0892B11F060E69F
:1029900072E085E994E00E94770B0F900F90DF9131
:1029A000CF9108956091A80370E085E994E00E94BA
:1029B000080BF3CFCF93DF9300D0CDB7DEB70097EE
:1029C00079F19E012F5F3F4F41E050E070E060E001
:1029D0000E941F1381111FC061E089819A81892B98
:1029E00009F060E085E00E94F80780913E048823AA
:1029F00091F069EB75E085E994E00E94DE0689813B
:102A00009A816DE772E0892B11F060E772E085E949
:102A100094E00E94770B0F900F90DF91CF91089573
:102A200085E00E94CF0761E070E0892B11F070E033
:102A300060E085E994E00E94080BEDCFCF93DF932F
:102A400000D0CDB7DEB7009719F19E012F5F3F4F41
:102A50004FE050E070E060E00E941F13811113C04E
:102A6000898180937F0480913E04882361F063E92B
:102A700075E085E994E00E94DE0669817A8185E946
:102A800094E00E944A0B0F900F90DF91CF91089530
:102A900080917F04883010F010927F0460917F0451
:102AA00085E994E00E94600BEECFCF93DF9300D0D6
:102AB000CDB7DEB7009799F19E012F5F3F4F41E000
:102AC00050E070E060E00E941F13811123C081E09C
:102AD00029813A81232B09F480E08093BC03809103
:102AE000A80381111092A80380913E04882391F0DD
:102AF0006AE775E085E994E00E94DE0689819A81A3
:102B00006CE672E0892B11F060E672E085E994E0F2
:102B10000E94770B0F900F90DF91CF9108956091F5
:102B2000BC0370E085E994E00E94080BF3CF1F938B
:102B3000CF93DF9300D0CDB7DEB71A82198200970A
:102B400089F19E012F5F3F4F4FEF50E070E060E052
:102B50000E941F13811115C0898180934804109130
:102B60003E0486FF14C041E060E480E40E94030953
:102B700040E060E480E00E9403096CE575E011111B
:102B80000CC00F900F90DF91CF911F9108950E947C
:102B9000330A1123B1F36BE475E085E994E00E94F8
:102BA000890BEFCF6091480485E994E00E94600BA7
:102BB000E8CF6F927F928F929F92AF92BF92CF9207
:102BC000DF92EF92FF920F931F93CF93DF93CDB7D6
:102BD000DEB763970FB6F894DEBF0FBECDBF6C01B2
:102BE0001A8A198A188A1B8A8E010F5F1F4F4E019D
:102BF00080E1880E911CF801580111928E169F06F3
:102C0000E1F7F12CC114D10409F07EC08091450494
:102C10008983E12CFF24F3948FE30E94800C8111BF
:102C20009AC080914404805E0E94800C811193C000
:102C300088E10E94800C81118EC010E000E0CF2C52
:102C4000D12C0C151D050CF0D8C0EE2009F49BC04A
:102C5000198B088B888999892091440428171906B3
:102C600099F1805C0E94800C811175C085E00E9402
:102C70008E09BE016D5E7F4FCE0142960E94030C0D
:102C80008111AFC06A8981E0F81609F484C066FF3B
:102C90001BC06CE075E085E994E00E94DE06A801A7
:102CA000110F660B770B2AE085E994E00E94B80AC1
:102CB0006AE075E085E994E00E94DE066A8985E9AC
:102CC00094E00E94600B86010F5F1F4FBACFF601A0
:102CD00001900020E9F73197EC19FD09339798F539
:102CE00094014EE150E061E070E0C3010E941F13C7
:102CF000E82E811130C08889F80181938F01F39407
:102D0000FFE0FF1609F488CF63E272E0C601FF20FE
:102D100011F090E080E00E94BE203C0143E050E0D2
:102D200064E172E00E947121892B89F6E0903E04F3
:102D3000EE2031F163E275E085E994E00E94890BB1
:102D40008EE1F82E69CF0E944D0E80913E0461E124
:102D500075E0811179C063960FB6F894DEBF0FBE9F
:102D6000CDBFDF91CF911F910F91FF90EF90DF903A
:102D7000CF90BF90AF909F908F907F906F9008956D
:102D8000EE24E394DDCFF501E00FF11F808190E0A8
:102D9000998B888B5FCF85E994E00E94600B8091CE
:102DA0003E048823D9F063EF74E085E994E00E9443
:102DB000DE064A8950E070E060E02AE085E994E0B0
:102DC0000E94B80A68ED74E085E994E00E94DE068E
:102DD0006889798985E994E00E944A0B01E010E056
:102DE00073CF80913E04882309F46ECF69EB74E0C1
:102DF00085E994E00E94890B67CFEE2021F085E9F8
:102E000094E00E94040B89E10E94800C8111A3CF01
:102E10008FE50E94800C81119ECF8FE30E94800C71
:102E2000811199CF82E00E948E0987E00E94CF072E
:102E3000892B79F481E08093AC0380913E04882350
:102E400009F489CF62EA74E085E994E00E94890B75
:102E500082CF1092AC03F1CF84E192E00C94D915AB
:102E60008F929F92AF92BF92CF92DF92EF92FF929A
:102E70000F931F93CF93DF93CDB7DEB761970FB654
:102E8000F894DEBF0FBECDBF4C01198A188ACE015F
:102E900001967C015E0190E1A90EB11CF70111922F
:102EA000EA15FB05E1F7670100E08114910471F573
:102EB00080914504898301E0670110E0C6018E1905
:102EC0009F09801791070CF058C060E0F6018191CE
:102ED0006F010E94B60C882399F180913E046BE744
:102EE00074E0811138C061960FB6F894DEBF0FBE52
:102EF000CDBFDF91CF911F910F91FF90EF90DF90A9
:102F0000CF90BF90AF909F908F90089563E272E052
:102F1000C401002311F090E080E00E94BE209501E2
:102F20004EE150E061E070E00E941F138111DBCFA1
:102F30008889F60181936F010F5F0F3039F7BCCF9D
:102F400088E00E94800C882359F080913E0462E65C
:102F500074E0882341F285E994E00E94890BC3CF95
:102F60000E94A90C882309F4A9CF80913E0466E44D
:102F700074E0882309F4B7CFEECF82E00E948E0977
:102F800080913E04882309F4AECF6DE274E0E3CF74
:102F9000CF93DF9300D0CDB7DEB7009781F19E01CC
:102FA0002F5F3F4F43E050E070E060E00E941F134E
:102FB00081112BC089819A81892B81F080913E04F7
:102FC000882361F069E372E085E994E00E94890B4F
:102FD00062E072E085E994E00E94890B8981809328
:102FE0004904833010F41092A90380913E04882391
:102FF00061F066EF71E085E994E00E94DE06609181
:10300000490485E994E00E94600B0F900F90DF91D6
:10301000CF910895CF93DF9300D0CDB7DEB700975F
:1030200019F19E012F5F3F4F4FEF50E070E060E0DD
:103030000E941F13811113C0898180934C048091D9
:103040003E04882361F069ED71E085E994E00E9417
:10305000DE0669817A8185E994E00E944A0B0F902F
:103060000F90DF91CF91089560914C04062E000CD3
:10307000770B85E994E00E94080BF1CFCF93DF93A3
:1030800000D0CDB7DEB7009771F19E012F5F3F4FA3
:1030900041E050E070E060E00E941F1381111EC00B
:1030A00081E029813A81232B09F480E08093410457
:1030B00080913E04882391F06CEB71E085E994E007
:1030C0000E94DE0689819A816CE672E0892B11F0FC
:1030D00060E672E085E994E00E94770B0F900F9014
:1030E000DF91CF9108956091410470E085E994E00B
:1030F0000E94080BF3CFCF93DF9300D0CDB7DEB79C
:10310000009709F440C09E012F5F3F4F41E050E01F
:1031100070E060E00E941F1381111CC089819A81B8
:103120000097E9F0019721F180913E04882391F006
:1031300064EA71E085E994E00E94DE0689819A8163
:1031400068E972E0892B11F06DE872E085E994E09E
:103150000E94770B0F900F90DF91CF91089581E03F
:103160008093430486E00E948E090E948709DCCF89
:1031700082E08093430481E00E948E090E948709C7
:103180000E94050ED1CF609143046150770B85E911
:1031900094E00E94080BDECFCF93DF9300D0CDB731
:1031A000DEB7009771F19E012F5F3F4F41E050E085
:1031B00070E060E00E941F1381111EC081E0298130
:1031C0003A81232B09F480E08093420480913E04ED
:1031D000882391F060E971E085E994E00E94DE06C1
:1031E00089819A816CE672E0892B11F060E672E0C9
:1031F00085E994E00E94770B0F900F90DF91CF91BB
:1032000008956091420470E085E994E00E94080B03
:10321000F3CFCF93DF9300D0CDB7DEB7009719F18E
:103220009E012F5F3F4F43E050E070E060E00E945E
:103230001F13811113C089818093470480913E043C
:10324000882361F063E871E085E994E00E94DE067E
:1032500069817A8185E994E00E944A0B0F900F9072
:10326000DF91CF9108956091470485E994E00E9431
:10327000600BF4CFCF93DF9300D0CDB7DEB70097CC
:1032800079F19E012F5F3F4F40E05DE761E070E024
:103290000E941F1381111FC089819A8190934B0452
:1032A00080934A0480913E048823A9F06CE671E083
:1032B00085E994E00E94DE0649815A8170E060E071
:1032C0002AE085E994E00E94B80A6EE571E085E99C
:1032D00094E00E94890B0F900F90DF91CF91089599
:1032E00060914A0470914B0485E994E00E94080BB8
:1032F000F2CFCF93DF9300D0CDB7DEB7009709F4BC
:1033000064C063E272E00E94BE209E012F5F3F4FC7
:103310004EE150E061E070E00E941F13811113C084
:1033200089819A81209144042817190689F40E9402
:103330004D0E80913E04882331F062E271E085E910
:1033400094E00E94890B0F900F90DF91CF91089528
:103350008093450480913E04882361F062E071E02F
:1033600085E994E00E94DE0669817A8185E994E02E
:103370000E944A0B109246041A82198263E272E09C
:1033800090E080E00E94BE200097E9F29E012F5F4E
:103390003F4F4EE750E060E670E00E941F1381113E
:1033A000D2CF89818093460480913E04882359F2CC
:1033B0006FE972E085E994E00E94A90A69817A8147
:1033C00085E994E00E944A0BBECF4091450450E04D
:1033D00070E060E02AE085E994E00E94B80A8091FC
:1033E0004604882381F060E071E085E994E00E9462
:1033F000DE064091460450E070E060E02AE085E996
:1034000094E00E94B80A85E994E00E94040B9BCFE7
:10341000CF93DF93CDB7DEB7C054D1090FB6F89480
:10342000DEBF0FBECDBFFC0101900020E9F7319750
:10343000AF01481B590BFE0137962AE3DF011D92AD
:103440002A95E9F727E0E1ECF2E0DE011196019020
:103450000D922A95E1F75527BC01CE0101960E94F5
:103460006121CE0101960E948911C05CDF4F0FB629
:10347000F894DEBF0FBECDBFDF91CF9108951F92AC
:103480000F920FB60F9211248F939F938091E100BA
:103490009091E100937F9093E10083FF0FC0109221
:1034A000E90091E09093EB001092EC0092E390938E
:1034B000ED001092BB0398E09093F00082FF22C0D1
:1034C00093E09093E9009091F200992319F09AE328
:1034D0009093E8009091A203992341F09091A20368
:1034E00091509093A203911101C05D989091BA03FD
:1034F000992341F09091BA0391509093BA0391119E
:1035000001C0289884FF18C08091E2008E7E8160FF
:103510008093E2008091E1008F7E8093E1008091B2
:10352000A3038E7E80618093A3039F918F910F9060
:103530000FBE0F901F90189580FFF7CF8091E2008B
:103540008E7E80618093E2008091E1008E7E809388
:10355000E1008091A3038E7E8160E5CF1F920F92E0
:103560000FB60F921124CF92DF92EF92FF920F933A
:103570001F932F933F934F935F936F937F938F93FB
:103580009F93AF93BF93EF93FF93CF93DF93CDB709
:10359000DEB76C97DEBFCDBF1092E9008091E800E6
:1035A00083FF25C068E0CE0145960E94CA0682EFDF
:1035B0008093E8008D8987FF39C09091E80090FFE3
:1035C000FCCF982F907609F034C19E894F89588D91
:1035D0002F89F88C911131C0803861F58091A40356
:1035E0008093F1001092F1008EEF8093E8006C96CA
:1035F0000FB6F894DEBF0FBECDBFDF91CF91FF9124
:10360000EF91BF91AF919F918F917F916F915F915A
:103610004F913F912F911F910F91FF90EF90DF906D
:10362000CF900F900FBE0F901F9018959EEF909324
:10363000E800C7CF1092F100D5CF913059F4811135
:10364000D3CF4130510581F68091A4038D7F8093C3
:10365000A403CACF933049F48111C6CF413051053C
:1036600019F68091A4038260F2CF953041F48091E5
:10367000E80080FFFCCF20682093E300B5CF9630B0
:1036800009F0A9C00B8D1C8D22E01092E900109268
:10369000A00310929F03F2122EC010929E0310926C
:1036A0009D030E9499061F8299E09983FA8291E016
:1036B0009E8390EA98879AEF998720919F03309193
:1036C000A003275F3F4F3C832B838D831092E9003B
:1036D0001092A00310929F0310939E0300939D03EA
:1036E00049E050E0BE016F5F7F4F80E00E947306AB
:1036F0000E94990679CF10939E0300939D030E9428
:103700002606DC0112960D911C910115110509F494
:1037100051C1D801ED91FC910480F581E02DBE01ED
:103720006B5E7F4FC8010995009709F03EC1F80113
:1037300000851185EACFF3E0FF120EC08F89882340
:1037400009F440C0823061F440E86DE083E29AE021
:103750000E942A1D811148CF81E28093EB0047CF60
:10376000813029F440E86BE087E19AE0F1CF8330C3
:1037700099F70E942606DC011296ED90FC908E01CE
:103780000F5F1F4F6801E114F10479F0D701ED914B
:10379000FC910680F781E02DB801C7010995080F5B
:1037A000111DF701E084F184EECFD8011C92F601DF
:1037B00001900020E9F73197BF016C197D0940E0C5
:1037C000C601C6CF61E07AE0FB01449150E080E899
:1037D0000E94730609CF973009F4BECF983021F4C8
:1037E00081E08093F10000CF993009F0FDCE837025
:1037F00009F0B2CFEEE0F1E081E031E096E3219113
:10380000222371F08093E9003093EB00DF011197E0
:103810002C912093EC009093ED008F5F873079F727
:103820008EE78093EA001092EA008F898093BB03B1
:10383000DBCE8B8D9C8D1092E9001092A00310922C
:103840009F0390939E0380939D03898D811192C065
:103850008E899D89913A49F4813209F07DCF47E004
:1038600050E065E071E080E0B3CF913209F074CFB1
:10387000833269F48F89988DB0E0A0E080930101D4
:1038800090930201A0930301B0930401ADCE803266
:1038900069F48091E80082FFFCCF67E085E091E069
:1038A0000E94CA068BEF8093E8009ECE823209F018
:1038B0009BCE8F8980930C01EEEFFFE78591949169
:1038C0008B3F9C4D51F1E0E0F8E080910501909133
:1038D0000601A0910701B0910801803B9440A10529
:1038E000B105F1F480910C0180FD1AC0EE3F8AE031
:1038F000F80789F587E797E79183808380916000D7
:103900008093A10388E19BE00FB6F894A89580937B
:1039100060000FBE9093600067CEEEEFFAE0D5CF67
:10392000808191818737974709F05ECEA895809175
:1039300060008861809360008091A10380936000A3
:10394000EE3F2AE0F20789F08091FE0A9091FF0A8B
:103950009183808349CE808191818737980751F286
:103960009093FF0A8093FE0AC5CF1092FF0A10922F
:10397000FE0A3ACE0E942606DC0112960D911C9199
:103980000115110509F4E8CED801ED91FC910190E3
:10399000F081E02DBE016B5E7F4FC801099581115A
:1039A00023CEF80100851185EBCF181619060CF40B
:1039B0001BCED2CEF1E0FF12BECE65E07AE004CF9E
:1039C0001F920F920FB60F9211242F933F938F9354
:1039D0009F93AF93BF938091950390919603A0918D
:1039E0009703B09198033091940323E0230F2D3770
:1039F00058F50196A11DB11D209394038093950362
:103A000090939603A0939703B093980380919903A2
:103A100090919A03A0919B03B0919C030196A11DE4
:103A2000B11D8093990390939A03A0939B03B09345
:103A30009C03BF91AF919F918F913F912F910F90D8
:103A40000FBE0F901F90189526E8230F0296A11D18
:103A5000B11DD2CFEF92FF920F931F93CF93DF93BD
:103A6000F82E192FE62E042F81E0860F880F0E9472
:103A7000450683E00E944506CF2DD12FEC0EFD2E8A
:103A8000F11CCE15DF05B9F007FF13C0FE018491CC
:103A90000E944506182F80E00E944506812321964A
:103AA0008111EFCFDF91CF911F910F91FF90EF9098
:103AB00008958881EDCF81E0F5CFE5E9F4E0138248
:103AC000128288EE93E0A0E0B0E084839583A68321
:103AD000B78386EF91E0918380838FEF9FEF958787
:103AE00084870895CF93DF93CDB7DEB7C158D1094E
:103AF0000FB6F894DEBF0FBECDBF789484B5826058
:103B000084BD84B5816084BD85B5826085BD85B581
:103B1000816085BD80916E00816080936E001092FF
:103B2000810080918100826080938100809181007A
:103B3000816080938100809180008160809380000B
:103B400080919100826080939100809191008160CA
:103B5000809391008091900081608093900080918B
:103B6000C10084608093C1008091C1008260809315
:103B7000C1008091C10081608093C1008091C30029
:103B800081608093C3008091C00082608093C000F8
:103B90008091C20081608093C20080917A0084602D
:103BA00080937A0080917A00826080937A0080917D
:103BB0007A00816080937A0080917A008068809397
:103BC0007A001092BB031092A4031092A303809179
:103BD000D70081608093D70080EA8093D80089B5B0
:103BE000806189BD89B5826089BD09B400FEFDCFC1
:103BF00061E070E080E090E00E944B088091D80086
:103C00008F7C80618093D8008091E000807F8093DA
:103C1000E0008091E1008E7E8093E1008DE0809352
:103C2000E200559A209A5D9828980FB6F894A895C6
:103C300080916000886180936000109260000FBEE8
:103C4000E9E7FAE02491EAE5FAE08491882399F023
:103C500090E0880F991FFC01E15CF54FA591B491AC
:103C6000FC01EF5CF54F859194918FB7F894EC913E
:103C7000E22BEC938FBF60E08DE00E94F8070E947A
:103C8000800E8FEF9FEF9093A2048093A1040E9477
:103C9000480A1A8219828E010F5F1F4FC8010E94C5
:103CA000980A89819A81019679F1C8010E94980A3F
:103CB00071E4C72E74E0D72EE2E0EE2EF12CC7019E
:103CC0000E940721D6018D936D01BFEFEB1AFB0A0D
:103CD000E6E5EE16F10499F70E94C80529813A81BC
:103CE0008217930789F0F12CE12C6FEFC7010E9436
:103CF0000F21FFEFEF1AFF0AE11422E0F206A9F705
:103D00000E94480A0E945A0A80914304813029F493
:103D100086E00E948E090E948709809143048230C8
:103D200039F481E00E948E090E9487090E94050EE5
:103D30001092AD031092AC0330E2332E40E4542EC7
:103D40005FE0652E712C63E0462E96E0292E20E080
:103D5000822E20E0922E82E00E94CF0721E0892B64
:103D600009F020E02093AD0387E00E94CF0721E017
:103D7000892B09F020E02093AC0380913D04813031
:103D800009F064C0E090AB03F12CA7016DEB73E088
:103D9000C8010E9445210E94800E10923D04F80146
:103DA000C70102979F01201B310B281739071CF40C
:103DB00022812193F7CF800F911FDC011C92FE011D
:103DC000EE0DFF1D108280913E04882321F085E9CD
:103DD00094E00E94040B8981882399F18D3089F148
:103DE0008A3079F163E272E0C8010E94BE207C0152
:103DF00084E1A82E81E0B82ED12CC12CB701F501A9
:103E0000808191810E944E21892B09F453C1FFEFDB
:103E1000CF1ADF0A26E0A20EB11C85E2C816D10433
:103E200069F70E944D0E0DC0D7010D900020E9F7F3
:103E3000CD010480F581E02D2C91222309F44CC0A2
:103E4000099580913E0481110E946B0E809143047C
:103E5000823089F580913D048230B1F48091AB03CA
:103E60000E948A0E80914904813011F40E9436101C
:103E700080914904823041F480914004882321F0EC
:103E80000E943610109240048091AC03882351F0B8
:103E90008091AA03882331F090E080E00E94D91538
:103EA0001092AC0380914904833029F48091A903D6
:103EB00081110E943610809143048130E9F4809191
:103EC000A803882361F080913D048230A9F4809199
:103ED000AB030E948A0E10C090E080E0B1CFE0906A
:103EE000BC03EE2009F447C00E94361080913D04C7
:103EF000823011F40E94800E8091A703882369F11B
:103F000080919404813031F460E874E085E994E0B4
:103F10000E94770B809194048230E9F460E874E0A9
:103F200085E994E00E94A90A69EC72E085E994E0D1
:103F30000E94A90A409190045091910460919204CA
:103F4000709193042AE085E994E00E94B80A85E91B
:103F500094E00E94040B1092A7030E947C0F8093B0
:103F60003D04C3010197F1F78114910409F4F3CEE4
:103F70000E940000EACEF090AD03FF2009F4A3CF29
:103F8000CF57DF4F1882C158D040198288E00E9475
:103F90008E09D12CC12CB12C82E00E94CF07892B35
:103FA00041F5B801CE018F579F4F0E94030C81113C
:103FB000F3CF90914504CF57DF4F8881C158D0404F
:103FC000282F2325921301C0EF2C282F252592138B
:103FD00001C0BF2C883149F0893149F08F33E1F6B7
:103FE0001092A6034092A503D7CFCF2CD5CFDF2CBC
:103FF000D3CFE1100E943610BB2009F442C0CC2080
:1040000009F44FC080913E04882331F06CEE7AE0D1
:1040100085E994E00E94890B80913E04882361F039
:104020006FEA7AE085E994E00E94DE066091480438
:1040300085E994E00E94600B89E00E948E098091DE
:1040400048040E949B0B87E00E948E0980913E04E9
:10405000882331F06FED7AE085E994E00E94890BC6
:10406000809148048F7B809348040E94330A80919A
:104070003E04882391F065EC7AE085E994E00E94A3
:10408000890BDD2051F080913E04882331F06CE1F2
:104090007BE085E994E00E94890B87E00E948E090D
:1040A00012CF80913D04823061F78091AB030E9472
:1040B0008A0EE7CF2C9CF0012D9CF00D1124EC5EB4
:1040C000FE4F8091430490E0228133818223932329
:1040D000892B09F0A9CE0E944D0E80913E048823C1
:1040E00009F4B4CE6BE87AE085E994E00E94890B8C
:1040F000A8CEFC0188279927E89421912032E9F382
:10410000293010F02E30C8F32B3241F02D3239F423
:10411000689404C00E94FF20820F911D21912053BA
:104120002A30C0F31EF4909581959F4F08951F93F8
:10413000FC0199278827BC01E89411911032E9F31A
:10414000193010F01E30C8F31B3251F01D3249F403
:10415000689406C00E94EA20610F711D811D911DA7
:10416000119110531A30B0F33EF4909580957095EC
:1041700061957F4F8F4F9F4F1F91089545EE54E0FB
:104180000E94C3200895FA01A191B081009719F40B
:104190001097E1F0CD01DC01CD010D90002011F46C
:1041A000C00113C0FB012191222319F02015D9F77A
:1041B000F3CFFB012191201519F41E92119606C030
:1041C0002223C1F70D900020A1F7D001FA01A1939D
:1041D000B0830895592F482F372F262F660F771F4A
:1041E000881F991F660F771F881F991F620F731F03
:1041F000841F951F660F771F881F991F08957AE007
:10420000979F902D879F802D910D11240895F999E6
:10421000FECF92BD81BDF89A992780B50895262FCB
:10422000F999FECF1FBA92BD81BD20BD0FB6F8949B
:10423000FA9AF99A0FBE01960895A1E21A2EAA1BC6
:10424000BB1BFD010DC0AA1FBB1FEE1FFF1FA21746
:10425000B307E407F50720F0A21BB30BE40BF50B43
:10426000661F771F881F991F1A9469F760957095CC
:10427000809590959B01AC01BD01CF010895EE0F93
:10428000FF1F0590F491E02D0994FB01DC0102C0B1
:1042900001900D9241505040D8F70895FB01DC0188
:1042A0008D9181341CF08B350CF4805E619161340A
:1042B0001CF06B350CF4605E861B611189F3990B61
:1042C0000895FB01DC010D900020E9F711974150A2
:1042D000504028F0019000200D92C9F708951C92DB
:1042E0000895FB01DC014150504030F08D91019068
:1042F000801919F40020B9F7881B990B0895FB0168
:10430000DC014150504048F001900D920020C9F767
:1043100001C01D9241505040E0F70895AEE0B0E07A
:10432000E4E9F1E20C944A240D891E898F89988D65
:1043300026E02C831A83098397FF02C080E090E86F
:1043400001979E838D83AE01455E5F4F698D7A8DA7
:10435000CE0101960E94BE214D815E8157FD0AC0AB
:104360002F813885421753070CF49A01020F131F4F
:10437000F80110822E96E4E00C946624ABE0B0E0E5
:10438000E4ECF1E20C943C247C013B018A01FC0149
:1043900017821682838181FFC8C1CE0101965C011C
:1043A000F7019381F30193FD859193FF81913F0183
:1043B000882309F453C1853239F493FD859193FF25
:1043C00081913F01853229F4B70190E00E94AE232C
:1043D000E7CF912C212C312CFFE1F31538F08B32F3
:1043E00011F190F4803209F1833229F137FC3CC09D
:1043F00020ED280F2A3050F536FE20C08AE0989E26
:10440000200D1124922E06C08D3291F0803371F769
:10441000689430F8F30193FD859193FF81913F01FA
:104420008111DACF21C0689431F8689432F8F2CF64
:10443000689433F8EFCF689434F8ECCFEAE02E9E1E
:10444000200D1124222E689435F8E4CF8E3229F401
:1044500036FC04C1689436F8DDCF8C3619F46894C4
:1044600037F8D8CF8836B1F2982F9F7D9554933086
:10447000E0F08336A1F18337C1F1833509F063C0E1
:104480002801F2E04F0E511CF801C080D180692D47
:1044900070E036FC02C06FEF7FEFC6010E949823E8
:1044A0004C01689437F882010AC00C5F1F4FFFE38C
:1044B000F98388248394912C6501E89437F833FEBE
:1044C0002DC0522C8114910471F5552009F468CF48
:1044D000B70180E290E00E94AE235A94F6CFF80133
:1044E000808189830E5F1F4FE4CF2801F2E04F0ED9
:1044F000511CF801C080D180692D70E036FC02C0EB
:104500006FEF7FEFC6010E94A3234C018201D5CF3C
:10451000B70180E290E00E94AE232A942814190487
:1045200009F0B0F7CECFF60137FC859137FE8191C7
:104530006F01B70190E00E94AE2351105A94F1E050
:104540008F1A9108BFCF843619F0893609F077C0E9
:10455000F80137FE6BC060817181828193810C5FAD
:104560001F4FF32DFF763F2E97FF09C09095809542
:10457000709561957F4F8F4F9F4F689437F82AE071
:1045800030E0A5010E94DE23C82ECA188C2C432CD3
:1045900036FE0CC0E89440F8C91440F434FE05C05F
:1045A00032FC03C0F32DFE7E4F2E892C44FE95C0B5
:1045B000FE01EC0DF11D8081803309F087C0242DB0
:1045C000297E422E842D8870582E43FC95C040FED3
:1045D0008FC09C2C821418F42C0C922C981844FE3A
:1045E00091C0B70180E390E00E94AE2342FE09C073
:1045F00088E790E041FE02C088E590E0B7010E94A4
:10460000AE23C91408F48AC0CA94D12C9FEFC91AEA
:10461000D90ACA0CDB1CF60182916F01B70190E048
:104620000E94AE23AC14BD04B1F74FCF60817181FD
:10463000072E000C880B990B0E5F1F4F92CFD32CC7
:10464000E894D4F82AE030E0853739F1232D297F2A
:10465000D22E8F3601F148F48835A9F0F701868112
:1046600097812B96E2E10C945824803749F08837E3
:10467000A9F7D4FE02C06894D2F820E130E00DC062
:104680006894D4F8F6CF34FE03C0822F8660D82E0B
:1046900020E132E002C028E030E0F801D7FE0FC090
:1046A00060817181828193810C5F1F4FA5010E94FF
:1046B000DE23C82ECA183D2CE89437F867CF6081F6
:1046C000718190E080E00E5F1F4FF0CF42FC02C08E
:1046D000839478CF8394839475CF842D867809F45E
:1046E00071CFF6CFB70180E290E00E94AE238394B1
:1046F0008214C0F3512C73CF522C5818821408F432
:104700006ECFF8CF842D867809F47BCF8BE241FE03
:1047100080E247FC8DE2B70190E071CFB70180E302
:1047200090E00E94AE239A946CCF8FEF9FEF99CFC9
:10473000FC010590615070400110D8F7809590956C
:104740008E0F9F1F0895FC01615070400190011071
:10475000D8F7809590958E0F9F1F08950F931F9304
:10476000CF93DF93182F092FEB018B8181FD09C0B7
:104770001FEF0FEF812F902FDF91CF911F910F919E
:10478000089582FF14C02E813F818C819D8128175E
:1047900039073CF4E881F981CF0101969983888338
:1047A00010838E819F8101969F838E83E3CFE8855E
:1047B000F985812F0995892BA1F3DACFFA01AA2770
:1047C000283051F1203181F1E8946F936E7F6E5F54
:1047D0007F4F8F4F9F4FAF4FB1E03ED0B4E03CD002
:1047E000670F781F891F9A1FA11D680F791F8A1FE5
:1047F000911DA11D6A0F711D811D911DA11D20D04C
:1048000009F468943F912AE0269F11243019305D05
:104810003193DEF6CF010895462F4770405D4193F6
:10482000B3E00FD0C9F7F6CF462F4F70405D4A3343
:1048300018F0495D31FD4052419302D0A9F7EACF0B
:10484000B4E0A6959795879577956795BA95C9F73A
:1048500000976105710508959B01AC010A2E06942D
:104860005795479537952795BA95C9F7620F731FE6
:10487000841F951FA01D08952F923F924F925F9223
:104880006F927F928F929F92AF92BF92CF92DF9260
:10489000EF92FF920F931F93CF93DF93CDB7DEB7C5
:1048A000CA1BDB0B0FB6F894DEBF0FBECDBF099459
:1048B0002A88398848885F846E847D848C849B84B0
:1048C000AA84B984C884DF80EE80FD800C811B81BE
:1048D000AA81B981CE0FD11D0FB6F894DEBF0FBEED
:0A48E000CDBFED010895F894FFCF5D
:1048EA0001FFFFFFFF00E100000000000000C1809F
:1048FA0081000000CB0203007919D00202002C17B4
:10490A0068030200C817D9020200220EDD02020063
:10491A00B10DE1020300580A3F020300CC18E90274
:10492A0003001E15ED0203000919F10203000A181B
:10493A00FA0203003E1805030200050E09030300EC
:10494A0089110C0303006213100302000D0F1403F4
:10495A000200AC0E1803010055151C030200750E67
:10496A00220303007B1827030200860D2D03020091
:10497A00E012320302003A193E030200DA1442033B
:10498A000200D91349030300D10D4D030200301769
:10499A0051030300C40D59030300081AD30202008D
:1049AA00D915610302003D0B650302005D146D0316
:1049BA000100971574030100991478030300600F2E
:1049CA007C030300530E84030300A7138A03030026
:1049DA007D120000000002077E08230718076907F6
:1049EA00270745070D0A00566572626F73653A20FC
:1049FA00003E2000616C6C007265616C002A69647B
:104A0A006E3F00200900766572737472006E616DE4
:104A1A00650073657269616C002530396C750065D3
:104A2A006F690044697361626C656400456E616216
:104A3A006C6564000A0D00535251206175746F2031
:104A4A004F4E00535251206175746F204F464600F5
:104A5A0052454E2061737365727465640052454E07
:104A6A0020756E2D617373657274656400434F4ED1
:104A7A0054524F4C4C455200444556494345005305
:104A8A00657420646576696365207365636F6E6417
:104A9A00617279206164647265737320746F3A205D
:104AAA000076657273747220002D0061646472006E
:104ABA00616C6C73706F6C6C00636C720064636C15
:104ACA000064656661756C7400656F7200656F736A
:104ADA0000656F745F6368617200656F745F656E0D
:104AEA0061626C65006966630069640069646E00EE
:104AFA006C6C6F006C6F63006C6F6E006D6163723B
:104B0A006F006D6F64650070706F6C6C0072656128
:104B1A006400726561645F746D6F5F6D73007265C6
:104B2A006E007265706561740072737400747267E6
:104B3A000073617665636667007365747673747271
:104B4A0000737271007372716175746F00737461AE
:104B5A0074757300746F6E007665720076657262A2
:104B6A006F736500746D62757300786469616700BC
:2070000055C000006EC000006CC000006AC0000068C0000066C0000064C0000062C0000043
:2070200060C000005EC00000F2C400005AC0000058C0000056C0000054C0000052C00000EE
:2070400050C0000078C000004CC000004AC0000048C0000046C0000044C0000042C00000BE
:2070600040C000003EC000003CC000003AC0000038C0000036C0000034C0000032C0000048
:2070800030C000002EC000002CC000002AC0000028C0000026C0000024C0000022C00000A8
:2070A00020C000001EC000001CC0000011241FBECFEFDAE0DEBFCDBF11E0A0E0B1E0E2E3BC
:2070C000FFE702C005900D92A83AB107D9F711E0A8EAB1E001C01D92AE3BB107E1F78FD30B
:2070E00026C78ECFF89410926F0010928100109285001092840081E085BF15BE47985D98ED
:2071000028980C94000008952091B2013091B3012F5F3F4F3093B3012093B201932F37FFA8
:2071200003C08EEF831B982F990F921710F447980895479A08951F920F920FB60F9211246E
:207140002F938F939F93EF93FF9310928500109284008091A8019091A901009741F00197D3
:207160009093A9018093A801892B09F45D988091AA019091AB01009741F001979093AB0128
:207180008093AA01892B09F42898E0E0F0E0859194918F5F9F4F49F08091AC019091AD0153
:2071A00001969093AD018093AC01FF91EF919F918F912F910F900FBE0F901F90189584E0BC
:2071C0008093E9000DC08091E8008B778093E80003C08EB3882351F08091E80082FFF9CFBE
:2071E0008091E80085FFEFCF8091F1000895982F83E08093E9008091E80085FD0DC0809136
:20720000E8008E778093E80003C08EB3882369F08091E80080FFF9CF9093F1005D9A84E6C9
:2072200090E09093A9018093A80108954F925F926F927F928F929F92AF92BF92CF92DF921E
:20724000EF92FF920F931F93CF93DF9384E08093E9008091E80082FF57C2289A84E690E065
:207260009093AB018093AA01AADF182F853481F48CE49DE19093AD018093AC0107B600FC4B
:20728000FDCFF999FECF81E180935700E89503C0843519F494DF8DE00DC28C34E1F38035F9
:2072A000D1F3843721F484E4A2DF80E003C2813611F489E5FFC18134B1F481DF182F7FDFE3
:2072C00090E0880F991FAA2797FDA095BA2F312F330F20E0442737FD4095542F822B932B68
:2072E000A42BB52BB8C1803711F483E5E3C1833549F4C0E0D1E089917ADF21E0C730D20714
:20730000D1F7D9C1863521F481E371DF80E3D2C1833731F487E86BDF85E969DF8EE1CAC149
:207320008536B9F4E0E0F0E093E085E090935700E89507B600FCFDCF80935700E89507B65D
:2073400000FCFDCFE058FF4FA0E7E030FA0771F7A2CF823739F4E1E0F0E089E08093570024
:207360008491A8C1863439F4E0E0F0E089E08093570084919FC18E3439F4E3E0F0E089E0E5
:2073800080935700849196C1813539F4E2E0F0E089E08093570084918DC1823631F489E521
:2073A00026DF80E024DF80E885C1823419F0873609F0E5C01092AD011092AC0100DF082FE8
:2073C000FEDEF82EFCDE682E8554823008F071C1902F80E0CF2DD0E0C82BD92B10926F00B3
:2073E000173609F04BC081E180935700E895DD24CC24C3943FC0E090AE01F090AF010091CC
:20740000B0011091B101B6E46B16D9F4ED2DF0E0EE29FF29E4918E2FEADEDD2081F082E08D
:2074200090E0A0E0B0E0E80EF91E0A1F1B1FE092AE01F092AF010093B0011093B101DC2470
:2074400018C0D801C701B695A7959795879559D5CEDE82E090E0A0E0B0E0E80EF91E0A1FF2
:207460001B1FE092AE01F092AF010093B0011093B1012197209709F0BECF7DC08090AE01F5
:207480009090AF01A090B001B090B10196E4691609F05DC083E0F40180935700E89507B63E
:2074A00000FCFDCF54C0F6E46F1661F5772031F1E090AE01F090AF010091B0011091B1019E
:2074C0007EDED82ECC24852D90E08C299D29F7010C0140925700E895112482E090E0A0E08B
:2074E000B0E0E80EF91E0A1F1B1FE092AE01F092AF010093B0011093B10102C060DE582E1A
:20750000742423C0E090AE01F090AF010091B0011091B10116950795F794E79450DE682FFA
:20752000C701F7D48091AE019091AF01A091B001B091B1010296A11DB11D8093AE01909349
:20754000AF01A093B001B093B101219704C05524772444244394209709F0A5CF96E46916B6
:2075600041F485E0F40180935700E89507B600FCFDCF8DE03CDE82E080936F009CC0833492
:2075800071F40091AE011091AF0119DE90E021E0F8010C0120935700E89511247CCE8336C8
:2075A00019F5E090AE01F090AF010091B0011091B10105DEF701E16090E021E00C0120938C
:2075C0005700E895112482E090E0A0E0B0E0E80EF91E0A1F1B1FE092AE01F092AF0100936A
:2075E000B0011093B10157CE8D3661F4E091AE01F091AF0185E080935700E89507B600FCF2
:20760000FDCF49CE823551F4E091AE01F091AF0105911491812FEBDD802F4CC0843421F5FE
:20762000E090AE01F090AF010091B0011091B10116950795F794E794C2DD682FC70169D4DE
:207640008091AE019091AF01A091B001B091B1010296A11DB11D8093AE019093AF01A093D8
:20766000B001B093B10117CE843609F5E090AE01F090AF010091B0011091B101D801C70142
:20768000B695A795979587953CD4B1DD82E090E0A0E0B0E0E80EF91E0A1F1B1FE092AE010A
:2076A000F092AF010093B0011093B10104C08B3111F08FE39CDD83E08093E9009091E8002B
:2076C0008091E8008E778093E80095FF04C010C08EB38823C9F08091E80080FFF9CF809193
:2076E000E8008E778093E80003C08EB3882361F08091E80080FFF9CF84E08093E9008091F1
:20770000E8008B778093E800DF91CF911F910F91FF90EF90DF90CF90BF90AF909F908F90AC
:207720007F906F905F904F9008959091B601892F8F77813249F58091B7018032A1F081328A
:2077400019F5913A09F58091E800877F8093E8008DE091E067E070E00BD28091E8008B770B
:207760008093E8000895913279F48091E800877F8093E8008DE091E067E070E05DD2809192
:20778000E8008E778093E800089582E061EC42E0B5D083E061E842E1B1D084E060E842E1EF
:2077A000ADC084B7877F84BF88E10FB6F89480936000109260000FBE20E880E090E00FB63F
:2077C000F89420936100809361000FBE81E085BF92E095BF3F9A209A559AE1E6F0E02083A1
:2077E000108247985D982898109289008AEF8093880090936F0083E080938100F0C040911A
:20780000000850910108109201081092000894B714BE88E10FB6F8948093600010926000D5
:207820000FBE292F30E0F901E270F07091FD18C090FF05C0859194918F5F9F4F81F423FFFF
:207840000FC08091090190910A014817590741F0E0E0F0E0859194918F5F9F4F09F042DC64
:20786000A0DF78941092AD011092AC010CC0DEDC36D38091AC019091AD0181549F4110F00D
:207880001092140141DC80911401882381F78091E00081608093E00025DC80E090E0089598
:2078A000FA01923049F0933061F09130F9F485E191E022E130E01EC087E291E02EE330E04D
:2078C00019C0882329F485E691E024E030E012C0813029F489E691E022E230E00BC0823006
:2078E00029F48DE891E028E130E004C080E090E020E030E091838083C90108958093E9004E
:207900008091EB0081608093EB001092ED006093EC004093ED008091EE00881F8827881F62
:2079200008958091B60188238CF403C08EB38823B1F08091E80082FFF9CF8091E8008B772A
:207940008093E80008958EB3882349F08091E80080FFF9CF8091E8008E778093E800089594
:20796000EF92FF920F931F9345D04CD008ED10E0F80180818F77808380818068808380819B
:207980008F7D808319BC1EBA1092B40180EEE82EF12CF70180818B7F8083F8018081816052
:2079A000808380E060E042E0A9DFE1EEF0E080818E7F8083E2EEF0E0808181608083808144
:2079C00088608083F70180818E7F8083F8018081806180831F910F91FF90EF900895E7ED06
:2079E000F0E08081816080838AE482BF81E08093B501B6CFE8EDF0E080818E7F808310921C
:207A0000E20008951092DA001092E10008951F920F920FB60F9211242F933F934F935F93F6
:207A20006F937F938F939F93AF93BF93EF93FF938091DA0080FF1BC08091D80080FF17C0B2
:207A40008091DA008E7F8093DA008091D90080FF0BC080E189BD82E189BD09B400FEFDCF36
:207A600081E08EBB3BD203C019BC1EBA37D28091E10080FF17C08091E20080FF13C0809138
:207A8000E2008E7F8093E2008091E20080618093E2008091D80080628093D80019BC85E049
:207AA0008EBB1CD28091E10084FF2CC08091E20084FF28C080E189BD82E189BD09B400FEC5
:207AC000FDCF8091D8008F7D8093D8008091E1008F7E8093E1008091E2008F7E8093E20012
:207AE0008091E20081608093E2008091B401882331F48091E30087FD02C081E001C084E067
:207B00008EBBECD18091E10083FF21C08091E20083FF1DC08091E100877F8093E10082E06A
:207B20008EBB1092B4018091E1008E7F8093E1008091E2008E7F8093E2008091E2008061E9
:207B40008093E20080E060E042E0D8DEC7D1FF91EF91BF91AF919F918F917F916F915F9130
:207B60004F913F912F910F900FBE0F901F9018959C014091BC015091BD014617570718F49D
:207B8000F90190E044C06115710511F0AB01F8CF8091E8008E778093E80040E050E0F0CF0F
:207BA0008EB3882309F444C0853009F443C08091E80083FF02C081E008958091E80082FD70
:207BC00031C08091E80080FF22C08091F3009091F200782F60E0292F30E0262B372B07C07A
:207BE00081918093F100415050402F5F3F4F4115510519F02830310598F390E02830310566
:207C000009F491E08091E8008E778093E8004115510531F6992321F605C08EB3882341F075
:207C2000853041F08091E80082FFF7CF80E0089582E0089583E008959C016115710529F47C
:207C40008091E8008B778093E800F90126C08EB3882391F1853091F18091E80083FF02C06C
:207C600081E008958091E80082FFF1CF06C08091F10081936150704059F02091F300809191
:207C8000F200322F20E090E0822B932B892B79F78091E8008B778093E80061157105B9F601
:207CA00005C08EB3882341F0853041F08091E80080FFF7CF80E0089582E0089583E00895C2
:207CC0000F931F93DF93CF9300D0CDB7DEB7E6EBF1E08091F100819381E0EE3BF807C9F792
:207CE00024DD8091E80083FFE4C08091B6019091B701953009F46DC0963040F4913081F1A7
:207D0000913070F0933009F0D4C02AC0983009F4A3C0993009F4B2C0963009F0CAC07CC023
:207D2000803809F4C6C0823809F0C3C08091BA0187708093E9008091EB001092E9002091DB
:207D4000E800277F2093E80090E025E0969587952A95E1F781708093F1001092F10087C0D8
:207D6000882319F0823009F0A4C08F71823009F0A0C08091B801882331F52091BA01277097
:207D800009F497C02093E9008091EB0080FF1BC0933021F48091EB00806213C08091EB0018
:207DA00080618093EB0081E090E002C0880F991F2A95E2F78093EA001092EA008091EB00E5
:207DC00088608093EB001092E9008091E800877F51C0882309F06DC01091B8011F770FB79B
:207DE000F8948091E800877F8093E8009ADD8091E80080FFFCCF8091E3008078812B809398
:207E0000E30080688093E300112311F482E001C083E08EBB0FBF4DC08058823008F049C033
:207E20008091B8019091B9016091BA01AE014F5F5F4F36DDBC01009709F43BC08091E8008E
:207E4000877F8093E80089819A8192DE8091E8008B778093E8002DC0803859F58091E800AA
:207E6000877F8093E8008091B4018093F1008091E8008E778093E80054DD1BC08823C9F4CA
:207E80009091B8019230A8F48091E800877F8093E8009093B40145DD8091B401882331F420
:207EA0008091E30087FD02C081E001C084E08EBB6CDC8091E80083FF0AC08091EB0080624E
:207EC0008093EB008091E800877F8093E8000F900F90CF91DF911F910F91089508951F9360
:207EE0008EB3882361F01091E9001092E9008091E80083FF01C0E4DE17701093E9001F916F
:207F00000895F999FECF92BD81BDF89A992780B50895262FF999FECF1FBA92BD81BD20BDBD
:207F20000FB6F894FA9AF99A0FBE01960895F894FFCF4341544552494E4100777700080031
:207F40000000000000080112011001020000084123370001000201000109023E00020100FE
:207F600080320904000001020201000524001001042402040524060001070582030800FF0C
:207F800009040100020A000000070504021000010705830210000104030904220341007216
:207FA000006400750069006E006F0020004D006900630072006F0020002000200000001810
:1A7FC00003410072006400750069006E006F0020004C004C004300000000D7
:00000001FF
