:100000000C94CB060C94F3060C94F3060C94F306B4
:100010000C94F3060C94F3060C94F3060C94F3067C
:100020000C94F3060C94F3060C94FE190C946D1AC0
:100030000C94F3060C94F3060C94F3060C94F3065C
:100040000C94F3060C94F3060C94F3060C94F3064C
:100050000C94F3060C94F3060C94F3060C949F1C7A
:100060000C94F3060C94F3060C94F3060C94F3062C
:100070000C94F3060C94F3060C94F3060C94F3061C
:100080000C94F3060C94F3060C94F3060C94F3060C
:100090000C94F3060C94F3060C94F3060C94F306FC
:1000A0000C94F3060C94F3060C94F306556E7265EB
:1000B000636F676E697A656420636F6D6D616E64EE
:1000C000004552524F52202D20436F6D6D616E647A
:1000D00020627566666572206F766572666C6F77F2
:1000E000210020616E642000496E76616C69643A7B
:1000F0002072616E6765206973206265747765653B
:100100006E20002000536574206465766963652065
:100110007072696D617279206164647265737320B5
:10012000746F3A200054686174206973206D7920DF
:1001300061646472657373212041646472657373D2
:10014000206F6620612072656D6F7465206465762E
:100150006963652069732072657175697265642EC3
:1001600000496E76616C69643A2076616C6964203E
:1001700074696D6F75742072616E67652069732094
:1001800031202D203332303030206D732E00206D21
:10019000696C6C697365636F6E647300536574207A
:1001A0005B726561645F746D6F5F6D735D20746F0A
:1001B0003A2000496E76616C69643A206578706512
:1001C0006374656420454F532076616C7565206FBC
:1001D000662030202D20330053657420454F532076
:1001E000746F3A2000496E76616C69643A206578D4
:1001F00070656374656420454F492076616C756550
:10020000206F662030206F722031005365742045C6
:100210004F4920617373657274696F6E3A200049AB
:100220006E74657266616365206D6F6465207365C9
:100230007420746F3A2000496E76616C69643A20CC
:100240006D6F6465206D7573742062652030206F5A
:1002500072203100496E76616C69643A206578706D
:10026000656374656420454F542076616C75652024
:100270006F662030206F72203100417070656E64AF
:10028000696E67206F6620454F5420636861726114
:10029000637465723A2000496E76616C69643A2035
:1002A000657870656374656420454F5420636861A8
:1002B0007261637465722041534349492076616CD1
:1002C000756520696E207468652072616E676520AF
:1002D00030202D2032353500454F54207365742071
:1002E000746F2041534349492063686172616374AC
:1002F00065723A20004175746F206D6F64653A2015
:1003000000202020202020202020276164647265A6
:100310007373656420746F2074616C6B20627574F4
:10032000206E6F7468696E6720746F20736179271F
:10033000206572726F7273005741524E494E473AB0
:10034000206175746F6D6F6465204F4E2063616E20
:1003500020636175736520736F6D652064657669D0
:1003600063657320746F2067656E657261746500E4
:100370004175746F6D6F64653A2076616C696420B5
:1003800072616E6765206973205B302D64697361EB
:10039000626C657C312D50726F6C6F6769787C324E
:1003A0002D6F6E2D71756572797C332D636F6E7450
:1003B000696E756F75735D2E004152343838204771
:1003C00050494220636F6E74726F6C6C65722C20A2
:1003D0007665722E20302E34382E32322C20313871
:1003E0002F30342F323032300041523438382047E9
:1003F00050494220636F6E74726F6C6C65722C2072
:100400007665722E20302E34382E32322C20313840
:100410002F30342F3230323000496E76616C69648F
:10042000207465726D696E6174696F6E20636861B6
:10043000726163746572202D2069676E6F726564E6
:1004400021004661696C656420746F20756E74616B
:100450006C6B204750494220627573004661696C9D
:10046000656420746F2073656E64205344430046B6
:1004700061696C656420746F206164647265737374
:1004800020646576696365004661696C6564207403
:100490006F20756E6C697374656E20746865204793
:1004A00050494220627573004661696C656420742E
:1004B0006F2073656E64204C4C4F20746F20646510
:1004C00076696365004661696C656420746F2061BC
:1004D000646472657373207468652064657669630B
:1004E000652E004661696C656420746F2073656ECB
:1004F0006420756E6976657273616C204C4C4F2E6A
:10050000004661696C656420746F20756E6C697358
:1005100074656E2047504942206275732E00466113
:10052000696C65642073656E64696E67204C4F4327
:100530002E004661696C656420746F20616464728A
:10054000657373206465766963652E0049464320B0
:100550007369676E616C2061737365727465642082
:10056000666F7220313530206D6963726F73656319
:100570006F6E64730047726F75702074726967677D
:10058000657220636F6D706C657465642E004661E2
:10059000696C656420746F20756E6C697374656E28
:1005A000204750494220627573004661696C65645A
:1005B00020746F207472696767657220646576695C
:1005C0006365004661696C656420746F20616464D2
:1005D000726573732064657669636500496E766140
:1005E0006C69643A2047504942207072696D6172AB
:1005F00079206164647265737320697320696E2069
:100600007468652072616E67652031202D2033305B
:10061000005265736574204641494C45442E005391
:10062000657269616C20706F6C6C20636F6D706CAB
:10063000657465642E004661696C656420746F2082
:100640007265747269657665207374617475732060
:1006500062797465005D2066726F6D2064657669ED
:10066000636520617420616464726573733A20006D
:10067000526563656976656420737461747573206F
:1006800062797465205B002C005352513A00496E28
:1006900076616C696420706172616D657465720069
:1006A000496E76616C69643A204750494220616422
:1006B000647265737365732061726520696E20745E
:1006C00068652072616E676520312D333000536597
:1006D0007269616C20706F6C6C206F6620616C6C4D
:1006E00020646576696365732072657175657374DE
:1006F00065642E2E2E0053525120756E2D6173733A
:1007000065727465642E0053525120617373657273
:100710007465642E00496E76616C69643A20657870
:1007200070656374656420627974652076616C75A8
:100730006520696E207468652072616E676520307F
:10074000202D203235350053657474696E6773202F
:1007500073617665642E0053657474696E677320E7
:1007600073617665642E004C4F4E3A2076616C6959
:10077000642072616E6765206973205B302D646947
:100780007361626C657C312D656E61626C655D2E96
:10079000004C4F4E3A200053656E64696E672044EA
:1007A000434C206661696C656400496E76616C69D2
:1007B000643A20657870656374656420454F522003
:1007C00076616C7565206F662030202D20370053D0
:1007D000657420454F5220746F3A20005061726159
:1007E0006C6C656C20706F6C6C20636F6D706C65E9
:1007F0007465642E0052454E3A2000496E76616C55
:1008000069643A20657870656374656420303D756D
:100810006E2D6173736572742C20313D6173736545
:100820007274004368616E676564207665727369EF
:100830006F6E20737472696E6720746F3A20005473
:100840004F4E3A2076616C69642072616E67652054
:100850006973205B302D64697361626C657C312D36
:10086000656E61626C655D2E00544F4E3A20004902
:100870006E76616C69643A2065787065637465644E
:1008800020303D64697361626C65206F7220313D78
:10089000656E61626C65004D697373696E67207087
:1008A0006172616D6574657273004D697373696E11
:1008B0006720706172616D6574657200446973616F
:1008C000626C656400496E76616C69643A20303D03
:1008D00064617461206275733B20313D636F6E7497
:1008E000726F6C2062757300496E76616C69643A50
:1008F00020657870656374656420454F5420636893
:100900006172616374657220415343494920766185
:100910006C756520696E207468652072616E67650C
:100920002030202D2033302C30303000544D627573
:10093000732073657420746F3A200020746F2064F4
:100940006576696365006770696253656E64436DBF
:10095000643A206661696C656420746F2073656E0B
:100960006420636F6D6D616E64200067706962530F
:10097000656E64446174613A204661696C65642007
:10098000746F20756E74616C6B20627573005469AE
:100990006D656F75742077616974696E6720666F25
:1009A00072207472616E7366657220746F20636F5B
:1009B0006D706C657465210054696D656F75742088
:1009C00077616974696E6720666F722073656E6403
:1009D00065722100454F49206465746563746564E0
:1009E0002100427974657320726561643A200020A9
:1009F000746F2074616C6B004661696C656420746F
:100A00006F20616464726573732074686520646527
:100A100076696365006770696252656164427974E2
:100A2000653A2074696D656F7574207761697469C2
:100A30006E672044415620746F20676F20484947F5
:100A400048006770696252656164427974653A2052
:100A500074696D656F75742077616974696E67205C
:100A6000666F722044415620746F20676F204C4F90
:100A70005700677069625772697465427974653AA4
:100A80002074696D656F75742077616974696E672C
:100A900020666F72206461746120616363657074A5
:100AA0006564207369676E616C202D205B4E444144
:100AB0004320756E61737365727465645D00677061
:100AC00069625772697465427974653A2074696D18
:100AD000656F75742077616974696E6720666F72DF
:100AE000206461746120746F2062652061636365B6
:100AF00070746564202D205B4E52464420617373F0
:100B000065727465645D00677069625772697465C7
:100B1000427974653A2074696D656F7574207761E8
:100B20006974696E6720666F7220726563656976A5
:100B30006572207265616479202D205B4E524644B7
:100B400020756E61737365727465645D00677069AA
:100B5000625772697465427974653A2074696D658B
:100B60006F75742077616974696E6720666F722093
:100B7000726563656976657220617474656E746907
:100B80006F6E205B4E4441432061737365727465E0
:100B9000645D006770696253656E64446174613AB4
:100BA000204661696C656420746F20756E6C697392
:100BB00074656E206275730020746F206C697374A5
:100BC000656E006770696253656E64446174613A72
:100BD000206661696C656420746F2061646472656D
:100BE000737320646576696365200000000000234C
:100BF00000260029002C002F000000000200090F31
:100C00000000030401000C000000000000000000D0
:100C10000000000000000000080B000202020000BB
:100C2000090400000102020000052400100105244F
:100C300001010104240206052406000107058103C1
:100C400010004009040100020A000000070502022A
:100C5000400000070583024000000403090412015C
:100C60000002EF020140412337800001010203012D
:100C700041726475696E6F204C4C4300417264751B
:100C8000696E6F204D6963726F00000000002500DF
:100C900028002B002E003100000000002400270057
:100CA0002A002D0030000404040404030405020299
:100CB00002020403020202020606060606060404F5
:100CC0000202020404040802011040804010204087
:100CD0008040800802040180402010020110801032
:100CE00020404020436F6D6D616E64206E6F7420F4
:100CF000617661696C61626C6520696E20746869F7
:100D000073206D6F64652E0053656E64696E672095
:100D100073746174757320627974653A200053525C
:100D2000512062697420636C656172656420286972
:100D30006620736574292E00537461747573207373
:100D4000656E742E0053657269616C20706F6C6CF7
:100D50002072657175657374207265636569766567
:100D6000642066726F6D20636F6E74726F6C6C6559
:100D700072202D3E003C2D2073657269616C2070DD
:100D80006F6C6C207265717565737420656E646537
:100D9000642E0000F01F11241FBECFEFDAE0DEBF8B
:100DA000CDBF24E0A4E4B3E001C01D92A738B20790
:100DB000E1F713E0A0E0B1E0E6EBF1E402C005905A
:100DC0000D92A434B107D9F716E0CBECD6E004C0FD
:100DD0002197FE010E948F20CA3CD107C9F70E94CB
:100DE0001C1D0C94D9200C940000FC018091FF0381
:100DF000882311F13FB7F89482E08093E9002091B5
:100E0000F200822F90E01816190614F481E090E0A9
:100E1000882339F0289A44E64093FE034091F1007C
:100E20004083222339F02091F200211103C02BE6E8
:100E30002093E8003FBF08958FEF9FEF08952FB7ED
:100E4000F89483E08093E9009091E800892F807204
:100E500095FF04C09091F20080E4891B2FBF089594
:100E60008091F60381110DC082E08093F20384E04B
:100E70008093F3031092F5031092F40381E08093C2
:100E8000F60382EF93E008958230910538F0880FE1
:100E9000991F880F991F05970197F1F708954091C1
:100EA000A4035091A5032091A2033091A3034217FC
:100EB0005307B4F49091E8009570E1F39091E80045
:100EC00092FD19C08093F1008091A4039091A50335
:100ED00001968F739927892B19F48EEF8093E80080
:100EE0008091A4039091A50301969093A50380930C
:100EF000A40381E0089580E00895DF92EF92FF92CD
:100F00000F931F93CF93DF93D82E8A01EB017B01C0
:100F1000E40EF51ECE15DF0559F0D7FE12C0FE0116
:100F200084910E944F0721968111F4CF0FEF1FEF9C
:100F3000C801DF91CF911F910F91FF90EF90DF904B
:100F400008958881EECF0F931F93CF93DF931F9265
:100F5000CDB7DEB782E0898342E450E068E17CE00F
:100F600080E80E947D070E943007DC0112960D91F7
:100F70001C910115110589F0D801ED91FC910280B9
:100F8000F381E02DBE016F5F7F4FC801099597FD8A
:100F900004C0F80100851185ECCF89810F90DF91A5
:100FA000CF911F910F910895615030F02091F10081
:100FB000FC0120830196F8CF289A84E68093FE03F3
:100FC0000895DC01ED91FC910190F081E02D0994F0
:100FD000EF92FF920F931F93CF93DF938C017B01CE
:100FE000D0E0C0E0F701EC0FFD1F6491662361F0D3
:100FF000D801ED91FC910190F081E02DC801099597
:10100000892B11F02196EECFCE01DF91CF911F9168
:101010000F91FF90EF900895CF93DF931F92CDB77C
:10102000DEB76983DC01ED91FC910280F381E02D54
:1010300041E050E0BE016F5F7F4F09950F90DF9157
:10104000CF91089583E08093E9008091F200882396
:1010500019F08AE38093E80008950E941F0790E04A
:101060000895CF93DF931F92CDB7DEB7FC0184853F
:10107000958597FD08C02FEF3FEF358724870F90A8
:10108000DF91CF910895CE0101960E94F506019758
:1010900019F4898190E0F3CF8FEF9FEFF0CF0F939A
:1010A0001F93CF93DF931F92CDB7DEB78C01FC0166
:1010B0008485958597FF0BC0CE0101960E94F506A9
:1010C000019771F4898190E0F80195878487F80190
:1010D000848595850F90DF91CF911F910F91089591
:1010E0008FEF9FEFF1CFFC018485958597FD0BC0B5
:1010F0009FB7F89482E08093E9008091F2009FBF4F
:1011000090E0019608959FB7F89482E08093E900FB
:101110008091F2009FBF90E0089581508F3008F0D9
:1011200047C0E82FF0E0E956F74F0C948F20B40841
:10113000B808A608AC08B008D808D808D808BB0872
:10114000C108C508C908CF08D808D3088091800015
:101150008F77809380000895809180008F7DF9CFF4
:1011600080918000877FF5CF84B58F7784BD089507
:1011700084B58F7DFBCF809190008F778093900016
:101180000895809190008F7DF9CF80919000877FA6
:10119000F5CF8091C0008F778093C0000895809133
:1011A000C0008F7DF9CF8091C200877F8093C200FD
:1011B0000895CF93DF93282F30E0F901E750F44FE3
:1011C0008491F901EB53F34FD491F901EA55F34FB0
:1011D000C491CC23A1F081110E948D08EC2FF0E086
:1011E000EE0FFF1FE551F44FA591B491EC91ED2363
:1011F00081E090E009F480E0DF91CF91089580E0F4
:1012000090E0FACF1F93CF93DF93282F30E0F901BE
:10121000E750F44F8491F901EB53F34FD491F90166
:10122000EA55F34FC491CC23A9F0162F81110E94E7
:101230008D08EC2FF0E0EE0FFF1FE657F34FA5915E
:10124000B4918FB7F894EC91111108C0D095DE23BA
:10125000DC938FBFDF91CF911F910895DE2BF8CFE4
:101260003FB7F89480914E0390914F03A0915003A3
:10127000B091510326B5A89B05C02F3F19F00196E8
:10128000A11DB11D3FBFBA2FA92F982F8827BC01E0
:10129000CD01620F711D811D911D42E0660F771F08
:1012A000881F991F4A95D1F708958F929F92AF9208
:1012B000BF92CF92DF92EF92FF926B017C010E946E
:1012C00030094B015C01C114D104E104F104B9F00F
:1012D0000E943009681979098A099B09683E7340A0
:1012E0008105910580F321E0C21AD108E108F108D7
:1012F00088EE880E83E0981EA11CB11CE4CFFF90FD
:10130000EF90DF90CF90BF90AF909F908F90089517
:101310008F929F92AF92BF92CF92DF92EF92FF9205
:101320000F931F93CF93DF936C017B018A01809110
:101330000C01882309F45CC08091FF03882309F421
:1013400057C08091A80380FF05C08091E0008260B3
:101350008093E000E801B12C8AEFA82E93E0892E5B
:101360002AE3922E209711F4BB20D9F10E941F0787
:1013700081110AC0AA94AA20D9F161E070E080E04E
:1013800090E00E945509EECF8C171D0611F00CF06D
:101390008C2F9FB7F8948092E9002091E80025FDFA
:1013A00002C09FBFDFCF282F30E0C21BD30BF70155
:1013B000815020F041914093F100FACFE20EF31EEC
:1013C000BB2021F09092E800B12CEBCF8091E80097
:1013D00085FDE7CF9092E800BB24B394209709F3F2
:1013E000F3CF5D9A84E68093A703101611063CF0B4
:1013F00081E090E0F6019383828310E000E0C80171
:10140000DF91CF911F910F91FF90EF90DF90CF90E0
:10141000BF90AF909F908F900895CF93DF93E62F6A
:10142000F0E0962F9E71A9F09F0153E0220F331F29
:101430005A95E1F7207F322F309598E0899FD001AF
:1014400011242A23413009F447C091B39323292B57
:1014500021BB962F917EE9F1C82FD0E0DF01AA0FC2
:10146000BB1FA0749F0154E0220F331F5A95E1F770
:10147000207176E0F595E7957A95E1F7E270E22B39
:1014800060749A2F90959E01220F331FA2237E2F06
:1014900070959E01B4E0220F331FBA95E1F72071D9
:1014A00036E0D595C7953A95E1F7C2702C2B2E23DF
:1014B000562F509568234130A1F038B13923A32B22
:1014C000A8B99BB19723292B2BB98EB18523682B03
:1014D0006EB9DF91CF91089590B39323292B20BB50
:1014E000B8CF37B13923A32BA7B99AB19723292BAA
:1014F0002AB98DB18523682B6DB9EBCF94B19E6766
:1015000094B99AB191689AB995B180959178282F3C
:101510002E77922B95B99BB19E778178892B8BB9C9
:10152000089589B193B181789E77892B809508952C
:101530008250883078F4E82FF0E0EE55F54F41E026
:101540000C948F20B30ABA0AD10AC90AD40ADC0A59
:10155000E30AEB0A41E06FEF88EB0E940D0A40E0DE
:101560006FEF8FED0EC06EE988EB0E940D0A40E030
:101570006EE9F7CF6FE989EB0E940D0A40E06FE951
:101580008FE50E940D0A8091EC039091ED030C947D
:1015900044076EE986EA0E940D0A40E06EE988ED94
:1015A000F0CF6EE989EBE1CF6FEF80E00E940D0A8A
:1015B00040E06FEF8FEFE5CF6EE080E00E940D0A14
:1015C00040E06EE0F7CF6EE086E00E940D0A40E05A
:1015D0006EE089EFD6CF6EE088E0F7CFBF92CF9272
:1015E000DF92EF92FF920F931F93CF93DF93C82F59
:1015F000B62E2FB7F89480914A0390914B03A09197
:101600004C03B0914D032FBF6A01550FEE08FF0840
:10161000C80ED91EEA1EFB1E82E00E94D9088C016A
:10162000D0E08B2D0E94D9088C179D0721F12FB790
:10163000F89480914A0390914B03A0914C03B09190
:101640004D032FBF8C159D05AE05BF0558F081E0F9
:10165000DF91CF911F910F91FF90EF90DF90CF908E
:10166000BF90089501151105E1F682E00E94D908A6
:101670000197B9F6ECCF80E0EBCF41E060E480E089
:101680000E940D0A40E060E480E40C940D0A909101
:10169000EF03E92FF0E0EF5FFB4F80839F5F9093B4
:1016A000EF030895EFEAF3E080E4DF011D928A95ED
:1016B000E9F78CEC808382E0838381E0858380EB93
:1016C00094E09387828708950C94520BE1E0F4E054
:1016D00080E8DF011D928A95E9F71092EF030895E3
:1016E000FB0101900020E9F73197AF01461B570B32
:1016F000DC01ED91FC910280F381E02D09948F9241
:101700009F92AF92BF92EF92FF920F931F93CF934E
:10171000DF93CDB7DEB7A1970FB6F894DEBF0FBE4B
:10172000CDBF7C01FA01CB0119A2223008F42AE0D6
:101730008E010F5D1F4F822E912CB12CA12CBF0169
:10174000A50194010E946D20F901CA016A300CF5CF
:10175000605DD8016E938D01232B242B252B79F707
:1017600090E080E0109721F0BD01C7010E94700B4E
:10177000A1960FB6F894DEBF0FBECDBFDF91CF911B
:101780001F910F91FF90EF90BF90AF909F908F901F
:101790000895695CDECFCF92DF92EF92FF920F93B4
:1017A0001F93CF93DF936B01770FEE08FF08F7FECF
:1017B0001BC0EC016DE20E94E1078C014427552714
:1017C000BA014C195D096E097F092AE0CE010E9419
:1017D0007F0B800F911FDF91CF911F910F91FF9091
:1017E000EF90DF90CF9008952AE0B701A601DF9136
:1017F000CF911F910F91FF90EF90DF90CF900C94BD
:101800007F0B68EF71E00C94700BCF92DF92EF9238
:10181000FF920F931F93CF93DF938C016B01770F90
:10182000EE08FF08F7FE1FC06DE20E94E107EC0121
:1018300044275527BA014C195D096E097F092AE032
:10184000C8010E947F0BC80FD91FC8010E94010C5C
:101850008C0F9D1FDF91CF911F910F91FF90EF9003
:10186000DF90CF9008952AE0B701A6010E947F0B78
:10187000EC01EBCF87E00E94D90861E070E0892B92
:1018800011F070E060E082E593E00C94050C0F939A
:101890001F93CF93DF93EC01AB0170E060E02AE08F
:1018A0000E947F0B8C01CE010E94010C800F911FC2
:1018B000DF91CF911F910F9108950F931F93CF93B5
:1018C000DF93EC01462F50E070E060E02AE00E94D8
:1018D0007F0B8C01CE010E94010C800F911FDF91C4
:1018E000CF911F910F9108950F931F93CF93DF9383
:1018F0008C01D0E0C0E06115710519F00E94700BF9
:10190000EC01C8010E94010C8C0F9D1FDF91CF914B
:101910001F910F9108950F931F93CF93DF93EC01C5
:101920000E94E8078C01CE010E94010C800F911FDC
:10193000DF91CF911F910F910895CF93C82F4091C0
:10194000B9035091BA0365E180E00E94EE0A882352
:10195000E9F0C0918204C11112C0C1E040E068E02A
:1019600088E00E940D0A80E00E947E0A8091EC03CC
:101970009091ED030E9444078C2FCF9108956DE460
:101980007BE082E593E00E948B0CE8CF4091B903A5
:101990005091BA0364E181E00E94EE0A882339F095
:1019A000C091820467E07BE0CC23B9F2EACF8C2FB0
:1019B0000E947E0A40E068E080E00E940D0A4091AB
:1019C000B9035091BA0364E180E00E94EE0A8823D3
:1019D00041F0C09182046EEB7AE0CC2309F4BDCFD4
:1019E000D0CF4091B9035091BA0365E181E00E94E4
:1019F000EE0AC82F882309F4B1CFC0918204CC230A
:101A000009F4ABCF62E77AE0BCCF0F931F93CF937B
:101A1000DF93EC0182E00E94D9088C0140E064E091
:101A200084E00E940D0A012B81F482E00E94D90813
:101A3000019759F440E064E080E00E940D0A83E0E1
:101A4000DF91CF911F910F9108954091B90350916B
:101A5000BA0363E180E00E94EE0A882389F0809156
:101A60008204882331F062E47AE082E593E00E9408
:101A70008B0C40E064E080E00E940D0A81E0E0CF42
:101A800040E064E080E00E940D0A8091AB0388236F
:101A900041F082E10E94D908892B19F485E08093F6
:101AA000AA030E94910A888340E062E082E00E94DB
:101AB0000D0A4091B9035091BA0363E181E00E949D
:101AC000EE0A882361F080918204882331F065E179
:101AD0007AE082E593E00E948B0C82E0B1CF40E097
:101AE00062E080E00E940D0A8091EC039091ED038A
:101AF0000E94440780E0A4CFCF93DF93C82F83E0F8
:101B00000E94980A8C2F0E949D0CD82F8823C9F020
:101B1000809182048823A9F066E479E082E593E06D
:101B20000E94E8074C2F50E070E060E020E182E581
:101B300093E00E947F0B6BE379E082E593E00E94E3
:101B40008B0C8D2FDF91CF91089583E790E0019763
:101B5000F1F78FE30E947C0D811103C08FE50C9497
:101B60007C0D0895CF93DF93C82FD62F8FE30E946B
:101B70007C0D811119C0DD2369F080E48C0F0E9477
:101B80007C0D811111C08091B303805EDF91CF91F4
:101B90000C947C0D80E28C0F0E947C0D811104C09E
:101BA0008091B303805CF2CF81E0DF91CF91089503
:101BB000CF92DF92EF92FF920F931F93CF936C011E
:101BC000E62E8091B203823009F07EC08091000140
:101BD000882349F160E08091B4030E94B20D88230C
:101BE00011F180918204882309F484C063EC7BE0C6
:101BF00082E593E00E94E8074091B40350E070E072
:101C000060E02AE082E593E00E947F0B68EB7BE0D6
:101C100082E593E0CF911F910F91FF90EF90DF90BD
:101C2000CF900C948B0C8091830491E08927809352
:101C3000000184E00E94980A8601F12CC8018C19E9
:101C40009D098E159F050CF045C0F80181918F010B
:101C50000E949D0CC82F882389F38091B1038823AB
:101C600089F08091830481110DC040E060E10E9401
:101C70000D0A8BE990E00197F1F740E060E180E127
:101C80000E940D0A8091B203823001F5C11112C089
:101C900080910001882371F00E94A50D882351F0E6
:101CA00080918204882331F063E97BE082E593E050
:101CB0000E948B0C82E0CF911F910F91FF90EF90CB
:101CC000DF90CF900C94980A89E0B4CF813091F4E2
:101CD00087E0F1CF8091B60381FD03C08DE00E94C3
:101CE0009D0C8091B60380FD03C08AE00E949D0C8C
:101CF000C0E0B3CFCF911F910F91FF90EF90DF9095
:101D0000CF90089525E0FC0111922A95E9F76CEB3C
:101D100078E082E593E00C948B0CCF93DF9382E024
:101D20000E94980ACBE4D0E0CE010197F1F740E0A1
:101D300060E980E00E940D0A2197F1F70E94910A64
:101D4000C82F82E00E94980A6C2F82E593E00E94DF
:101D50005D0C80918204882341F06CED77E082E590
:101D600093E0DF91CF910C948B0CDF91CF9108958C
:101D700084E10E947C0D882351F0809182048823A5
:101D800049F067E977E082E593E00C948B0C82E000
:101D90000C94980A08952FB7F89480914A03909173
:101DA0004B03A0914C03B0914D032FBF8053984F2C
:101DB000AF4FBF4F28E13EE00FB6F894A8952093AF
:101DC00060000FBE309360002FB7F89440914A0333
:101DD00050914B0360914C0370914D032FBF4817F6
:101DE00059076A077B0780F380918204882331F0CA
:101DF00061E176E082E593E00C948B0C089580918C
:101E0000B2038823C1F040E061E080E00E940D0A47
:101E100083E592E00197F1F740E061E081E00E9404
:101E20000D0A80918204882331F06CE475E082E52C
:101E300093E00C948B0C089560E08091B4030E94B1
:101E4000B20D882339F0809182046FE674E081112D
:101E50000CC0089584E00E947C0D882351F080918D
:101E600082048823B1F36CE574E082E593E00C947E
:101E70008B0C0E94A50D882339F08091820462E4C6
:101E800074E0882331F3F1CF82E00C94980A6CEA75
:101E900070E082E593E00C948B0C8091820491E0D9
:101EA0008927809382046BEF71E082E593E00E94C2
:101EB000700B8091820460E272E0882311F064E18B
:101EC00072E082E593E00C94740C82E593E00E944A
:101ED000010C65E072E082E593E00C94700BE82F52
:101EE000F0E0E050FC4F90819F3319F491E0909323
:101EF000840490910004911105C0682F81E094E062
:101F00000E94D80D809183048111109283048091E6
:101F1000820481110E94650F0E94660B1092810459
:101F20000895CF93DF93D82FC091EF03C7FD72C000
:101F30008D3051F164F48A3039F180918204882324
:101F400039F16D2F82E593E00E94E10721C08B31CA
:101F500009F456C08B3289F780914603882339F003
:101F600010924603C23018F481E0809345038BE25F
:101F70000E94470B80918204882379F06BE282E50E
:101F800093E00E94E10709C080914603882339F05D
:101F90008D2F0E94470B10924603C0E01EC0C11156
:101FA0000BC00E94660B8091820481110E94650F14
:101FB0008C2FDF91CF910895C33060F080910104A0
:101FC0008B3241F4809102048B3221F480914503DD
:101FD000C1E08111C2E0109245038091EF0387FFB9
:101FE000E7CF809101048B3231F4809102048B326F
:101FF00011F4CC2389F081E080938304C2E0D8CF30
:1020000080914603882311F08BE1C3CF81E0809358
:102010004603C3CFC0E0E5CF80918204882331F02E
:1020200061EC70E082E593E00E948B0C0E94660BED
:10203000BFCFAF92BF92CF92DF92EF92FF920F93FA
:102040001F93CF93DF9300D01F92CDB7DEB71982D5
:102050001A821B828091EE03082F07701092AA0348
:10206000D090AB03873019F481E08093AB0380916B
:10207000B203823009F0F2C061E08091B4030E94A3
:10208000B20D8823D1F0809182048823B1F068EFEB
:1020900079E082E593E00E94E8074091B40350E0C4
:1020A00070E060E02AE082E593E00E947F0B6FEE33
:1020B00079E082E593E00E948B0C4091B903509146
:1020C000BA0364E181E00E94EE0A85E00E94980A6A
:1020D00084B1817884B98AB18E778AB985B18E67E7
:1020E00085B98BB181688BB9F12CE12C87E0C82EC2
:1020F000A02EB12C1091AA031111F1C082E00E9410
:10210000D9080197C1F5CE0101960E94050D182F3F
:10211000811131C08091B803833091F482E593E05E
:102120000E947308892B61F082E593E00E943108D8
:102130000E94910F80938104813011F4C092AA0310
:102140008091AA038730B9F082E00E94D908892BD8
:1021500091F0698182E593E00E94E1078FEFE81A30
:10216000F80A8091AB03882309F47FC08091AA0309
:10217000853009F084C080918204882359F062EE92
:1021800079E082E593E00E94E807B70182E593E0F9
:102190000E94050C8091AA038530A1F480918204ED
:1021A000882331F064ED79E082E593E00E948B0CA6
:1021B0008091B003882331F06091BB0382E593E006
:1021C0000E94E107D092AB031123C1F080918204F9
:1021D000882341F0113031F468EB79E082E593E037
:1021E0000E948B0C80918204882341F0123031F4DC
:1021F0006EE879E082E593E00E948B0C8091B20357
:10220000823009F06EC00E94A50D882351F08091A4
:102210008204882331F06BE679E082E593E00E9446
:10222000E8078091B203823011F40E94980A8091ED
:10223000AA0381111092AA0381E0111101C080E06C
:102240000F900F900F90DF91CF911F910F91FF9002
:10225000EF90DF90CF90BF90AF90089588E00E94FC
:10226000980A81E08093AB0333CF89819091480332
:10227000992351F090914703981709F47CCF8A81F4
:102280008B8389818A8336CF073028F5F501E55B9A
:10229000FE4E0C948F20521168115C113F115911A0
:1022A0005F1162118A3059F78A818D3041F7102F02
:1022B00062CF8D3021F78A818A3009F75CCF833075
:1022C000F1F659CF8330D9F68A818A30C1F68B81F5
:1022D0008D30A9F650CF8A3091F68A81F9CF10E07F
:1022E0004ACF87E0A2CFCF93DF93009751F10E94AE
:1022F0000520EC01C13385E7D80770F00E94470F35
:1023000080918204882339F168EE78E082E593E0D9
:10231000DF91CF910C948B0CD093ED03C093EC0321
:10232000809182048823B9F06CE279E082E593E041
:102330000E94E807BE0182E593E0DF91CF910C9403
:10234000050C6091EC037091ED0382E593E0DF9161
:10235000CF910C94470CDF91CF910895CF93DF93E9
:1023600068E072E00E9423200097B1F0FC01019028
:102370000020E9F73197E81BF90B349768F40E94C5
:102380000520C82F833048F065EC78E082E593E0C3
:10239000DF91CF910C948B0CC0E068E072E090E08C
:1023A00080E00E9423200097C9F1FC0101900020E9
:1023B000E9F73197E81BF90BD0E0349718F40E9445
:1023C0000520D82FCC23E1F041E06FEF8FEF0E9482
:1023D0000D0A40E06FEF8D2F80950E940D0A60E19D
:1023E00077E280E090E00E9455098091B20382304C
:1023F00029F481E0DF91CF910C94980A86E0FACF1E
:102400008D2F0E947E0A60E177E280E090E00E94DA
:10241000550980E0DF91CF910C947E0ADF91CF9136
:102420000895009749F10E9405208230910560F0DF
:102430000E94470F80918204882329F16FE678E09B
:1024400082E593E00C948B0C019791F01092AE030F
:10245000809182048823B9F08091AE0367E172E035
:10246000882311F06BE072E082E593E00C94740C29
:1024700081E08093AE03ECCF6091AE0370E082E523
:1024800093E00C94050C0895CF93DF93009799F196
:102490000E940520EC018230910570F00E94470FE8
:1024A00080918204882381F16FE378E082E593E0F4
:1024B000DF91CF910C948B0C81708093AC03CE0193
:1024C00021E0822781708093000480918204882318
:1024D000D9F069E678E082E593E00E94E80760E2DF
:1024E00072E0CD2B11F064E172E082E593E0DF91C0
:1024F000CF910C94740C6091AC0370E082E593E092
:10250000DF91CF910C94050CDF91CF9108951F932B
:10251000CF93DF93009771F10E940520EC01109199
:1025200082048230910558F01123A1F16BEF77E01E
:1025300082E593E0DF91CF911F910C948B0CBC014D
:1025400081E0682785E00E940209112319F165EFF7
:1025500077E082E593E00E94E80764E272E0CD2B29
:1025600011F461E372E082E593E0DF91CF911F9176
:102570000C94740C85E00E94D90861E070E0892B0E
:1025800011F070E060E082E593E0DF91CF911F9160
:102590000C94050CDF91CF911F910895CF93DF9399
:1025A000009739F10E940520EC018031910570F00F
:1025B0000E94470F80918204882349F16AEA77E0FC
:1025C00082E593E0DF91CF910C948B0C8093EE0326
:1025D000809182048823D9F06FEC77E082E593E064
:1025E0000E94E807BE0182E593E0DF91CF910C9451
:1025F000050C8091EE03883010F01092EE0360918C
:10260000EE0382E593E0DF91CF910C945D0CDF91B6
:10261000CF910895CF93DF93009799F10E94052001
:10262000EC018230910570F00E94470F8091820486
:10263000882381F167E677E082E593E0DF91CF912F
:102640000C948B0C817080930004CE0121E08227D2
:1026500081708093AC03809182048823D9F061E972
:1026600077E082E593E00E94E80760E272E0CD2B1C
:1026700011F064E172E082E593E0DF91CF910C9478
:10268000740C6091000470E082E593E0DF91CF91DB
:102690000C94050CDF91CF910895CF930097A9F189
:1026A0000E940520AC01990F660B770B4130514019
:1026B0006105710550F00E94470F8091820465E129
:1026C00077E0811116C0CF9108958093B703C09130
:1026D000820486FF13C041E060E480E40E940D0A9A
:1026E00040E060E480E00E940D0ACC2361F367E0E3
:1026F00077E082E593E0CF910C948B0C0E943D0B28
:1027000066EF76E0CC23F9F2F4CF6091B70382E56F
:1027100093E0CF910C945D0CAF92BF92CF92DF9279
:10272000EF92FF920F931F93CF93DF93CDB7DEB756
:102730002F970FB6F894DEBF0FBECDBF5C01CE0160
:1027400001967C010F96F70111928E179F07E1F712
:10275000670100E0A114B104B1F58091B40389834D
:1027600001E0670110E0C6018E199F0980179107EB
:102770000CF06EC060E0F60181916F010E94B20D15
:10278000882309F44DC08091820463EC75E08823AE
:1027900099F182E593E02F960FB6F894DEBF0FBE55
:1027A000CDBFDF91CF911F910F91FF90EF90DF9000
:1027B000CF90BF90AF900C948B0CF60181936F017A
:1027C0000F5F0F3071F268E072E0C501002311F075
:1027D00090E080E00E9423200E9405208823E9F0F9
:1027E0009FEF980F9E3148F30E94470F809182041B
:1027F0006CED75E08111CDCF2F960FB6F894DEBF4A
:102800000FBECDBFDF91CF911F910F91FF90EF9041
:10281000DF90CF90BF90AF900895002369F3A1CFD0
:1028200088E00E947C0D882339F0809182046AEA56
:1028300075E0882309F3ADCF0E94A50D882309F424
:1028400092CF809182046EE875E08823A9F2A1CF2F
:1028500082E00E94980A80918204882369F265E7E9
:1028600075E097CFCF93DF930097B1F10E940520D9
:10287000EC018430910570F00E94470F8091820432
:10288000882391F160E773E082E593E0DF91CF91D7
:102890000C948B0C892B81F080918204882361F049
:1028A00068E373E082E593E00E948B0C61E073E0E3
:1028B00082E593E00E948B0CC093B803C33011F003
:1028C0001092AD0380918204882371F065EF72E06D
:1028D00082E593E00E94E8076091B80382E593E007
:1028E000DF91CF910C945D0CDF91CF910895CF9340
:1028F000DF93009741F10E940520EC018F3F910585
:1029000079F070F00E94470F80918204882309F1CA
:1029100067E972E082E593E0DF91CF910C948B0C34
:102920008093BB0380918204882399F068ED72E064
:1029300082E593E00E94E807BE0182E593E0DF9123
:10294000CF910C94050C6091BB03062E000C770B05
:10295000F4CFDF91CF910895CF93DF93009769F182
:102960000E940520EC018230910570F00E94470F13
:1029700080918204882351F164E572E082E593E05E
:10298000DF91CF910C948B0C81708093B003809178
:1029900082048823D9F06AE772E082E593E00E941E
:1029A000E80760E272E0CD2B11F064E172E082E5AD
:1029B00093E0DF91CF910C94740C6091B00370E0C0
:1029C00082E593E0DF91CF910C94050CDF91CF91DC
:1029D0000895CF93DF93009709F43FC00E9405202C
:1029E000EC018230910570F00E94470F80918204C3
:1029F0008823E9F167E372E082E593E0DF91CF910C
:102A00000C948B0C0197F1F081E08093B20386E087
:102A10000E94980A0E94910A80918204882339F1C9
:102A20006FE172E082E593E00E94E8076CE472E0F7
:102A3000CD2B11F061E472E082E593E0DF91CF915C
:102A40000C94740C82E08093B20381E00E94980A97
:102A50000E94910A0E94FF0EDFCF6091B203615085
:102A6000770B82E593E0DF91CF910C94050CDF9119
:102A7000CF910895CF93DF93009769F10E940520CD
:102A8000EC018230910570F00E94470F8091820422
:102A9000882351F165EE71E082E593E0DF91CF91FB
:102AA0000C948B0C81708093B103809182048823F5
:102AB000D9F06BE072E082E593E00E94E80760E203
:102AC00072E0CD2B11F064E172E082E593E0DF91DA
:102AD000CF910C94740C6091B10370E082E593E0A7
:102AE000DF91CF910C94050CDF91CF910895CF9396
:102AF000DF93009739F10E940520EC0184309105A5
:102B000070F00E94470F80918204882319F163EBD3
:102B100071E082E593E0DF91CF910C948B0C809370
:102B2000B603809182048823A9F068ED71E082E504
:102B300093E00E94E807BE0182E593E0DF91CF9128
:102B40000C94050C6091B60382E593E0DF91CF9180
:102B50000C945D0CDF91CF910895CF93DF93009794
:102B600069F10E940520EC01019781159D4758F0FD
:102B70000E94470F8091820461E671E0811118C0C4
:102B8000DF91CF910895D093BA03C093B903809198
:102B900082048823A9F36CE971E082E593E00E9446
:102BA000E807BE0182E593E00E94CB0B6EE871E07E
:102BB00082E593E0DF91CF910C948B0C6091B90387
:102BC0007091BA0382E593E0DF91CF910C94050CEC
:102BD000EF92FF920F931F93CF93DF93DC01EC9161
:102BE000E11109C0C1E08C2FDF91CF911F910F91AE
:102BF000FF90EF900895E9017A018B011982188204
:102C00000E940520998388838017910720F0C0E0F7
:102C1000E816F90640F70E94470FC0918204CC23C2
:102C200009F368EE70E082E593E00E94E807A801EE
:102C300070E060E02AE082E593E00E947F0B62EEA4
:102C400070E082E593E00E94E807B70182E593E037
:102C50000E94470CC8CFEF92FF920F931F93CF9320
:102C6000DF9300D000D0CDB7DEB7009709F46EC077
:102C700068E072E00E942320FC012081211124C021
:102C800068E072E090E080E00E942320FC01208157
:102C9000211130C063E572E090E080E00E942320C3
:102CA0008C01FC018081F12CE12C81112FC00E944C
:102CB000470F809182046AEA78E0882381F082E5F8
:102CC00093E00E948B0C0BC09E012F5F3F4F4FEF94
:102CD00050E062E070E00E94E815882389F20F90CE
:102CE0000F900F900F90DF91CF911F910F91FF9058
:102CF000EF9008959E012D5F3F4F40E355E770E050
:102D000060E00E94E8158111EACFC4CF89819A81E1
:102D1000E816F90620F7F80101900020E9F731974D
:102D2000BF01601B710B80910004811103C0C801B9
:102D30000E94D80D6B817C8190E080E00E94550953
:102D40000E941910FFEFEF1AFF0AE0CF0E94470F11
:102D500080918204882319F267E978E0B0CFCF939D
:102D6000DF9300D0CDB7DEB7009709F464C068E008
:102D700072E00E9423209E012F5F3F4F4EE150E002
:102D800061E070E00E94E815811113C089819A8189
:102D90002091B3032817190689F40E94470F8091E8
:102DA0008204882331F065E271E082E593E00E94BD
:102DB0008B0C0F900F90DF91CF9108958093B40307
:102DC00080918204882361F065E071E082E593E000
:102DD0000E94E80769817A8182E593E00E94470CAE
:102DE0001092B5031A82198268E072E090E080E0E8
:102DF0000E9423200097E9F29E012F5F3F4F4EE78C
:102E000050E060E670E00E94E8158111D2CF898120
:102E10008093B50380918204882359F266E572E0BD
:102E200082E593E00E94700B69817A8182E593E0EC
:102E30000E94470CBECF4091B40350E070E060E0C8
:102E40002AE082E593E00E947F0B8091B5038823FE
:102E500081F063E071E082E593E00E94E807409131
:102E6000B50350E070E060E02AE082E593E00E9464
:102E70007F0B82E593E00E94010C9BCFCF93DF9301
:102E8000009761F1DC010D900020E9F7AD014150A0
:102E90005109ECEBF3E020E3DF011D922A95E9F7FD
:102EA000481B590B4033510510F04FE250E0EC0144
:102EB000BC018CEB93E00E94CA208091820488239D
:102EC00069F063E278E082E593E00E94E807BE01E2
:102ED00082E593E0DF91CF910C94740CDF91CF9158
:102EE0000895FF920F931F93CF93DF930FEA13E0A0
:102EF000D0E0C0E0F801F1908F01CE010E94572090
:102F0000F81621F06F2DCE010E945F202196C0346B
:102F1000D10581F780918204882331F067E477E05E
:102F200082E593E00E94E80780918204882359F0AB
:102F300067E577E082E593E0DF91CF911F910F91F4
:102F4000FF900C948B0CDF91CF911F910F91FF900C
:102F500008956F927F928F929F92AF92BF92CF927D
:102F6000DF92EF92FF920F931F93CF93DF93CDB732
:102F7000DEB760970FB6F894DEBF0FBECDBF4C0131
:102F8000188A8E010F5F1F4F6E0180E1C80ED11CA1
:102F9000F80158011192CE16DF06E1F7F12C8114E9
:102FA000910409F058C08091B4038983E12CFF2477
:102FB000F3948FE30E947C0D811187C08091B3034D
:102FC000805E0E947C0D811180C088E10E947C0D92
:102FD00081117BC010E000E08F2C912C08151905A1
:102FE0000CF0CEC0702EE11004C0F501E00FF11F0F
:102FF00070808091B303871509F4BFC080E4870D0A
:103000000E947C0D811161C085E00E94980AC60172
:103010000E94050D8111A7C0688981E08F1508F015
:1030200082C066FFAAC069E876E082E593E00E946C
:10303000E807B80182E593E00E94CB0B67E876E0F1
:1030400082E593E00E94E807688982E593E00E94A8
:103050005D0C840192C068E072E0C401FF2011F0B1
:1030600090E080E00E9423203C0143E050E068E7CC
:1030700072E00E94BC20892B71F4E0908204EE2063
:1030800009F44EC06EEC76E082E593E00E948B0C72
:103090008EE1F82E8ECFF40101900020E9F73197F0
:1030A000E819F909339778F5C3010E9405208823B0
:1030B00041F19FEF980F9E31E8F00E94470F8091F9
:1030C000820460EA76E0811126C060960FB6F8941B
:1030D000DEBF0FBECDBFDF91CF911F910F91FF904B
:1030E000EF90DF90CF90BF90AF909F908F907F90A8
:1030F0006F900895F80181938F01F394FFE0FF1220
:10310000AACFE12C56CF0E94470F809182046EE82F
:1031100076E08823D1F282E593E00E948B0CD5CF34
:10312000EE24E394B5CF82E593E00E945D0C80919C
:103130008204882309F48DCF60E776E082E593E08E
:103140000E94E807488950E070E060E02AE082E5EC
:1031500093E00E947F0B65E576E082E593E00E94B4
:10316000E807672D72CF80918204882331F066E3EF
:1031700076E082E593E00E948B0C0F5F1F4F2ECF0D
:10318000EE2021F082E593E00E94010C89E10E948B
:103190007C0D81119ACF8FE50E947C0D811195CF16
:1031A0008FE30E947C0D811190CF82E00E94980AEB
:1031B00087E00E94D908892B59F481E08093F003BD
:1031C00080918204882309F480CF6FE176E0A3CF59
:1031D0001092F003F5CF88E792E00C94A917CF93F3
:1031E000DF93EC0185E00E94D908892BA9F520978F
:1031F00031F143E050E068E772E0CE010E94BC206C
:10320000892B51F540E060E280E20E940D0A68E2FD
:1032100070E080E090E00E94550940E060EA80E0C4
:103220000E940D0A68E270E080E090E00E9455097B
:1032300040E060E880E8DF91CF910C940D0A60E0F7
:103240008091B4030E94B20D882349F080918204DA
:1032500062E375E081110EC0DF91CF91089581E0A6
:103260000E947C0D882361F0809182048823A1F361
:103270006EE175E082E593E0DF91CF910C948B0CC9
:103280000E94A50D882339F08091820461E075E0E9
:10329000882311F3EFCF82E0DF91CF910C94980A4D
:1032A000CF93DF93EC0185E00E94D908892BD1F4FC
:1032B0002097E9F043E050E068E772E0CE010E9419
:1032C000BC20892B79F481E10E947C0D882351F088
:1032D00080918204882331F063EE74E082E593E00C
:1032E0000E948B0C82E0DF91CF910C94980A60E0F1
:1032F0008091B4030E94B20D882349F0809182042A
:1033000065EC74E081110EC0DF91CF91089581E1E9
:103310000E947C0D882361F0809182048823A1F3B0
:1033200068EA74E082E593E0DF91CF910C948B0C16
:103330000E94A50D8823B1F28091820468E874E0B0
:10334000882311F3EFCFCF93DF931092AB0310924A
:1033500048030097A1F0EC01FC0101900020E9F77F
:103360003197E81BF90B3497A0F0809182048823F1
:1033700031F069E174E082E593E00E948B0C80916A
:10338000B8038330D9F481E08093AD03DF91CF910E
:10339000089543E050E06CE772E00E94BC20892B66
:1033A00021F481E08093AB03EACF81E0809348036E
:1033B000CE010E94052080934703E1CFDF91CF919A
:1033C0000C941910009751F043E050E060E872E06F
:1033D0000E94BC2069EB73E0892B61F08091BC03F3
:1033E00069EE73E0882331F06CEB73E082E593E0E3
:1033F0000C94740C82E593E00C948B0C1F920F924A
:103400000FB60F9211248F939F938091E1009091BA
:10341000E100937F9093E10083FF0FC01092E900D9
:1034200091E09093EB001092EC0092E39093ED000A
:103430001092FF0398E09093F00082FF22C093E087
:103440009093E9009091F200992319F09AE39093F8
:10345000E8009091A703992341F09091A703915020
:103460009093A703911101C05D989091FE03992359
:1034700041F09091FE0391509093FE03911101C091
:10348000289884FF18C08091E2008E7E816080932E
:10349000E2008091E1008F7E8093E1008091A8039B
:1034A0008E7E80618093A8039F918F910F900FBEB5
:1034B0000F901F90189580FFF7CF8091E2008E7ECD
:1034C00080618093E2008091E1008E7E8093E10034
:1034D0008091A8038E7E8160E5CF1F920F920FB678
:1034E0000F921124CF92DF92EF92FF920F931F93CE
:1034F0002F933F934F935F936F937F938F939F93FC
:10350000AF93BF93EF93FF93CF93DF93CDB7DEB726
:103510006C97DEBFCDBF1092E9008091E80083FF79
:1035200025C068E0CE0145960E94D40782EF8093C3
:10353000E8008D8987FF39C09091E80090FFFCCFAB
:10354000982F907609F034C19E894F89588D2F8924
:10355000F88C911131C0803861F58091A903809376
:10356000F1001092F1008EEF8093E8006C960FB698
:10357000F894DEBF0FBECDBFDF91CF91FF91EF91E9
:10358000BF91AF919F918F917F916F915F914F917B
:103590003F912F911F910F91FF90EF90DF90CF906F
:1035A0000F900FBE0F901F9018959EEF9093E8001C
:1035B000C7CF1092F100D5CF913059F48111D3CFFC
:1035C0004130510581F68091A9038D7F8093A90335
:1035D000CACF933049F48111C6CF4130510519F655
:1035E0008091A9038260F2CF953041F48091E80088
:1035F00080FFFCCF20682093E300B5CF963009F020
:10360000A9C00B8D1C8D22E01092E9001092A50339
:103610001092A403F2122EC01092A3031092A203E0
:103620000E94A3071F8299E09983FA8291E09E830A
:1036300090EA98879AEF99872091A4033091A50387
:10364000275F3F4F3C832B838D831092E9001092BC
:10365000A5031092A4031093A3030093A20349E0CF
:1036600050E0BE016F5F7F4F80E00E947D070E94A7
:10367000A30779CF1093A3030093A2030E943007FE
:10368000DC0112960D911C910115110509F451C12F
:10369000D801ED91FC910480F581E02DBE016B5EB7
:1036A0007F4FC8010995009709F03EC1F8010085D8
:1036B0001185EACFF3E0FF120EC08F89882309F449
:1036C00040C0823061F440E86DE08CE79CE00E94ED
:1036D000E91C811148CF81E28093EB0047CF813014
:1036E00029F440E86BE080E79CE0F1CF833099F764
:1036F0000E943007DC011296ED90FC908E010F5F66
:103700001F4F6801E114F10479F0D701ED91FC91AC
:103710000680F781E02DB801C7010995080F111D3A
:10372000F701E084F184EECFD8011C92F6010190FC
:103730000020E9F73197BF016C197D0940E0C6010F
:10374000C6CF6AE57CE0FB01449150E080E80E942E
:103750007D0709CF973009F4BECF983021F481E07E
:103760008093F10000CF993009F0FDCE837009F00D
:10377000B2CFE0E2F1E081E031E096E32191222353
:1037800071F08093E9003093EB00DF0111972C91E9
:103790002093EC009093ED008F5F873079F78EE7F0
:1037A0008093EA001092EA008F898093FF03DBCEBA
:1037B0008B8D9C8D1092E9001092A5031092A403AA
:1037C0009093A3038093A203898D811192C08E8967
:1037D0009D89913A49F4813209F07DCF47E050E06C
:1037E00065E071E080E0B3CF913209F074CF8332AD
:1037F00069F48F89988DB0E0A0E0809301019093E7
:103800000201A0930301B0930401ADCE803269F4AC
:103810008091E80082FFFCCF67E085E091E00E94A4
:10382000D4078BEF8093E8009ECE823209F09BCEC6
:103830008F8980930C01EEEFFFE7859194918B3F88
:103840009C4D51F1E0E0F8E0809105019091060176
:10385000A0910701B0910801803B9440A105B105FA
:10386000F1F480910C0180FD1AC0EE3F8AE0F80768
:1038700089F587E797E79183808380916000809343
:10388000A60388E19BE00FB6F894A89580936000AA
:103890000FBE9093600067CEEEEFFAE0D5CF808147
:1038A00091818737974709F05ECEA8958091600097
:1038B0008861809360008091A60380936000EE3F52
:1038C0002AE0F20789F08091FE0A9091FF0A918325
:1038D000808349CE808191818737980751F29093F8
:1038E000FF0A8093FE0AC5CF1092FF0A1092FE0ACB
:1038F0003ACE0E943007DC0112960D911C91011501
:10390000110509F4E8CED801ED91FC910190F08108
:10391000E02DBE016B5E7F4FC8010995811123CE5A
:10392000F80100851185EBCF181619060CF41BCE93
:10393000D2CEF1E0FF12BECE6EE57CE004CF1F9246
:103940000F920FB60F9211242F933F938F939F9353
:10395000AF93BF9380914A0390914B03A0914C0386
:10396000B0914D033091490323E0230F2D3758F5D3
:103970000196A11DB11D2093490380934A039093A2
:103980004B03A0934C03B0934D0380914E03909151
:103990004F03A0915003B09151030196A11DB11D99
:1039A00080934E0390934F03A0935003B093510321
:1039B000BF91AF919F918F913F912F910F900FBE2B
:1039C0000F901F90189526E8230F0296A11DB11D98
:1039D000D2CFEF92FF920F931F93CF93DF93F82EE6
:1039E000192FE62E042F81E0860F880F0E944F07C3
:1039F00083E00E944F07CF2DD12FEC0EFD2EF11C3E
:103A0000CE15DF05B9F007FF13C0FE0184910E94B7
:103A10004F07182F80E00E944F07812321968111C4
:103A2000EFCFDF91CF911F910F91FF90EF9008950D
:103A30008881EDCF81E0F5CFCF93DF93CDB7DEB7AF
:103A4000C05CD1090FB6F894DEBF0FBECDBF78942D
:103A500084B5826084BD84B5816084BD85B5826093
:103A600085BD85B5816085BD80916E008160809344
:103A70006E001092810080918100826080938100AD
:103A800080918100816080938100809180008160BD
:103A9000809380008091910082608093910080915A
:103AA000910081608093910080919000816080936B
:103AB00090008091C10084608093C1008091C1001A
:103AC00082608093C1008091C10081608093C100B9
:103AD0008091C30081608093C3008091C0008260A8
:103AE0008093C0008091C20081608093C200809169
:103AF0007A00846080937A0080917A00826080935B
:103B00007A0080917A00816080937A0080917A00B7
:103B1000806880937A001092FF031092A90310929C
:103B2000A8038091D70081608093D70080EA8093BA
:103B3000D80089B5806189BD89B5826089BD09B425
:103B400000FEFDCF61E070E080E090E00E9455094A
:103B50008091D8008F7C80618093D8008091E000B4
:103B6000807F8093E0008091E1008E7E8093E10071
:103B70008DE08093E200559A209A5D9828980FB6C0
:103B8000F894A895809160008861809360001092FD
:103B900060000FBEE2EDFCE02491E3EBFCE08491D9
:103BA000882399F090E0880F991FFC01E856F34FA5
:103BB000A591B491FC01E657F34F859194918FB78D
:103BC000F894EC91E22BEC938FBF60E08DE00E94C3
:103BD00002090E94660B8FEF9FEF90935F03809323
:103BE0005E030E94520B90E080E00E9457208C3CC4
:103BF00089F43FEAE32E33E0F32E10E000E0C80141
:103C00000E945720D7018D937D010F5F1F4F003415
:103C10001105A9F78091B203813029F486E00E9452
:103C2000980A0E94910A8091B203823039F481E0AF
:103C30000E94980A0E94910A0E94FF0E1092F103BE
:103C40001092F0038E010F5F1F4F6E01B1E8CB0E93
:103C5000D11C9FE0292E312C20E0422E20E0522E54
:103C600082E00E94D90821E0892B09F020E020930E
:103C7000F10387E00E94D90821E0892B09F020E0B8
:103C80002093F00382E593E00E9473087C01892B66
:103C900049F082E593E00E9431080E94910F8093E1
:103CA0008104F0CF80918104813009F087C0A09019
:103CB000EF03B12CA50161E074E0C8010E949520DA
:103CC0000E94660B10928104F801C50102979F01C2
:103CD000201B310B281739071CF422812193F7CFC1
:103CE000800F911FFC011082FE01EA0DFB1D108266
:103CF00080918204882321F082E593E00E94010CE8
:103D0000D601E0E41D92EA95E9F78981813009F452
:103D100050C068E072E0C8010E9423203C0186E2A6
:103D2000882E81E0982EB301D4018D919C910E9440
:103D30009E205C01892B09F433C1BFEFEB1AFB0A0B
:103D4000E6E08E0E911CF3E2EF16F10461F70E949B
:103D5000470F2FC08FEFA81AB80A68E072E090E012
:103D600080E00E9423204C01DC018C91882369F0C3
:103D7000B1E0AB16B10429F063E072E0C6010E9425
:103D8000B120B401C6010E94B120892819F786E04C
:103D90008E9DF0018F9DF00D1124EA5DFE4F048091
:103DA000F581E02DD6018C91882309F44DC0C60120
:103DB00009958091820481110E94650F8091B20360
:103DC000823089F5809181048230B1F48091EF03D3
:103DD0000E946F0F8091B803813011F40E94191076
:103DE0008091B803823041F480918404882321F0CB
:103DF0000E941910109284048091F003882351F0DE
:103E00008091AE03882331F090E080E00E94A917F2
:103E10001092F0038091B803833029F48091AD03B0
:103E200081110E9419108091B2038130E1F48091D8
:103E3000AC03882361F0809181048230A1F48091E9
:103E4000EF030E946F0F0FC090E080E0B1CFE090D1
:103E50000004EE2091F00E941910809181048230BC
:103E600011F40E94660BC1010197F1F7411451044E
:103E700009F4F6CE0E940000ECCEF090F103FF2092
:103E8000D1F2198288E00E94980AB12CA12C912CC1
:103E900082E00E94D908892B11F5C8010E94050D06
:103EA0008111F6CF9091B403898120E228279213E3
:103EB00001C0EF2C20E42827921301C09F2C8831E9
:103EC00051F0893151F08F3319F71092AB03B3E001
:103ED000B093AA03DDCFAF2CDBCFBF2CD9CFE1103D
:103EE0000E941910992009F442C0AA2009F44FC079
:103EF00080918204882331F065E47DE082E593E0DF
:103F00000E948B0C80918204882361F068E07DE040
:103F100082E593E00E94E8076091B70382E593E0B1
:103F20000E945D0C89E00E94980A8091B7030E946C
:103F30009D0C87E00E94980A80918204882331F0CA
:103F400068E37DE082E593E00E948B0C8091B703EB
:103F50008F7B8093B7030E943D0B8091820488235E
:103F600091F06EE17DE082E593E00E948B0CBB2036
:103F700051F080918204882331F065E77DE082E58D
:103F800093E00E948B0C87E00E94980A54CF8091A6
:103F90008104823061F78091EF030E946F0FE7CFB9
:103FA00086E08E9DF0018F9DF00D1124EA5DFE4F9D
:103FB0008091B20390E02281338182239323892B65
:103FC00009F0C8CE0E94470F80918204882309F42B
:103FD000F0CE64EE7CE082E593E00E948B0CE9CEAB
:103FE000E2E5F3E01382128288EE93E0A0E0B0E015
:103FF00084839583A683B78381E191E09183808355
:104000008FEF9FEF958784870895FC018827992774
:10401000E89421912032E9F3293010F02E30C8F3D2
:104020002B3241F02D3239F4689404C00E944F20A5
:10403000820F911D219120532A30C0F31EF49095D8
:1040400081959F4F089545E854E00E9428200895E7
:10405000FA01A191B081009719F41097E1F0CD0118
:10406000DC01CD010D90002011F4C00113C0FB0153
:104070002191222319F02015D9F7F3CFFB012191CB
:10408000201519F41E92119606C02223C1F70D9037
:104090000020A1F7D001FA01A193B08308957AE03E
:1040A000979F902D879F802D910D11240895F99948
:1040B000FECF92BD81BDF89A992780B50895262F2D
:1040C000F999FECF1FBA92BD81BD20BD0FB6F894FD
:1040D000FA9AF99A0FBE01960895A1E21A2EAA1B28
:1040E000BB1BFD010DC0AA1FBB1FEE1FFF1FA217A8
:1040F000B307E407F50720F0A21BB30BE40BF50BA5
:10410000661F771F881F991F1A9469F7609570952D
:10411000809590959B01AC01BD01CF010895EE0FF4
:10412000FF1F0590F491E02D0994FB01DC0102C012
:1041300001900D9241505040D8F70895FB01DC01E9
:104140008D9181341CF08B350CF4805E619161346B
:104150001CF06B350CF4605E861B611189F3990BC2
:104160000895FB01DC010D900020E9F71197019003
:104170000D920020E1F70895FB01DC014150504011
:1041800030F08D910190801919F40020B9F7881B47
:10419000990B0895FB01DC014150504048F001901B
:1041A0000D920020C9F701C01D9241505040E0F728
:0641B0000895F894FFCF12
:1041B60001FFFFFFFF00E10000000000000000001B
:1041C600000C0888092D082208730831084F0800DA
:1041D600C1808100000085020300AF168A0202003A
:1041E600EB181B0302003214930202001C0F970205
:1041F6000200B80E9B020300640B7C0203003A1512
:10420600A3020300CE12A70203007715AB02030038
:104216007714B4020300AC14BF020200FF0EC302FF
:1042260002005019C7020200EF18CB0201000A1360
:10423600CF020200820ED5020300E914DA02020060
:104246008D0EE0020200A319E5020200AD15F1028F
:1042560002008712F50202002B16FC020300CB0EA9
:10426600000302008C130403030071170C03030000
:104276003E178D020200A917140302003A0C180318
:1042860002001112200301004D13270301004412FE
:104296002B030300E2192F0303004D0F370303001E
:1042A60073113D030300AE110D0A00566572626F6D
:1042B60073653A20003E20002009005352512061C8
:1042C60075746F204F4E00535251206175746F20E4
:1042D6004F46460052454E2061737365727465649D
:1042E6000052454E20756E2D617373657274656458
:1042F60000434F4E54524F4C4C455200444556498C
:104306004345000A0D00536574206465766963654C
:10431600207365636F6E646172792061646472658F
:10432600737320746F3A2000616C6C00656F6900CE
:104336007265616C006164647200616C6C73706FAD
:104346006C6C00636C720064636C00646566617516
:104356006C7400656F7200656F7300656F745F63E0
:1043660068617200656F745F656E61626C65006995
:104376006663006C6C6F006C6F63006C6F6E006D33
:104386006163726F006D6F64650070706F6C6C00B6
:104396007265616400726561645F746D6F5F6D73F1
:1043A6000072656E007265706561740072737400E8
:1043B6007472670073617665636667007365747609
:1043C60073747200737271007372716175746F0029
:1043D60073746174757300746F6E0076657200761F
:1043E6006572626F736500746D62757300786469D7
:0443F60061670000FB
:2070000055C000006EC000006CC000006AC0000068C0000066C0000064C0000062C0000043
:2070200060C000005EC00000F2C400005AC0000058C0000056C0000054C0000052C00000EE
:2070400050C0000078C000004CC000004AC0000048C0000046C0000044C0000042C00000BE
:2070600040C000003EC000003CC000003AC0000038C0000036C0000034C0000032C0000048
:2070800030C000002EC000002CC000002AC0000028C0000026C0000024C0000022C00000A8
:2070A00020C000001EC000001CC0000011241FBECFEFDAE0DEBFCDBF11E0A0E0B1E0E2E3BC
:2070C000FFE702C005900D92A83AB107D9F711E0A8EAB1E001C01D92AE3BB107E1F78FD30B
:2070E00026C78ECFF89410926F0010928100109285001092840081E085BF15BE47985D98ED
:2071000028980C94000008952091B2013091B3012F5F3F4F3093B3012093B201932F37FFA8
:2071200003C08EEF831B982F990F921710F447980895479A08951F920F920FB60F9211246E
:207140002F938F939F93EF93FF9310928500109284008091A8019091A901009741F00197D3
:207160009093A9018093A801892B09F45D988091AA019091AB01009741F001979093AB0128
:207180008093AA01892B09F42898E0E0F0E0859194918F5F9F4F49F08091AC019091AD0153
:2071A00001969093AD018093AC01FF91EF919F918F912F910F900FBE0F901F90189584E0BC
:2071C0008093E9000DC08091E8008B778093E80003C08EB3882351F08091E80082FFF9CFBE
:2071E0008091E80085FFEFCF8091F1000895982F83E08093E9008091E80085FD0DC0809136
:20720000E8008E778093E80003C08EB3882369F08091E80080FFF9CF9093F1005D9A84E6C9
:2072200090E09093A9018093A80108954F925F926F927F928F929F92AF92BF92CF92DF921E
:20724000EF92FF920F931F93CF93DF9384E08093E9008091E80082FF57C2289A84E690E065
:207260009093AB018093AA01AADF182F853481F48CE49DE19093AD018093AC0107B600FC4B
:20728000FDCFF999FECF81E180935700E89503C0843519F494DF8DE00DC28C34E1F38035F9
:2072A000D1F3843721F484E4A2DF80E003C2813611F489E5FFC18134B1F481DF182F7FDFE3
:2072C00090E0880F991FAA2797FDA095BA2F312F330F20E0442737FD4095542F822B932B68
:2072E000A42BB52BB8C1803711F483E5E3C1833549F4C0E0D1E089917ADF21E0C730D20714
:20730000D1F7D9C1863521F481E371DF80E3D2C1833731F487E86BDF85E969DF8EE1CAC149
:207320008536B9F4E0E0F0E093E085E090935700E89507B600FCFDCF80935700E89507B65D
:2073400000FCFDCFE058FF4FA0E7E030FA0771F7A2CF823739F4E1E0F0E089E08093570024
:207360008491A8C1863439F4E0E0F0E089E08093570084919FC18E3439F4E3E0F0E089E0E5
:2073800080935700849196C1813539F4E2E0F0E089E08093570084918DC1823631F489E521
:2073A00026DF80E024DF80E885C1823419F0873609F0E5C01092AD011092AC0100DF082FE8
:2073C000FEDEF82EFCDE682E8554823008F071C1902F80E0CF2DD0E0C82BD92B10926F00B3
:2073E000173609F04BC081E180935700E895DD24CC24C3943FC0E090AE01F090AF010091CC
:20740000B0011091B101B6E46B16D9F4ED2DF0E0EE29FF29E4918E2FEADEDD2081F082E08D
:2074200090E0A0E0B0E0E80EF91E0A1F1B1FE092AE01F092AF010093B0011093B101DC2470
:2074400018C0D801C701B695A7959795879559D5CEDE82E090E0A0E0B0E0E80EF91E0A1FF2
:207460001B1FE092AE01F092AF010093B0011093B1012197209709F0BECF7DC08090AE01F5
:207480009090AF01A090B001B090B10196E4691609F05DC083E0F40180935700E89507B63E
:2074A00000FCFDCF54C0F6E46F1661F5772031F1E090AE01F090AF010091B0011091B1019E
:2074C0007EDED82ECC24852D90E08C299D29F7010C0140925700E895112482E090E0A0E08B
:2074E000B0E0E80EF91E0A1F1B1FE092AE01F092AF010093B0011093B10102C060DE582E1A
:20750000742423C0E090AE01F090AF010091B0011091B10116950795F794E79450DE682FFA
:20752000C701F7D48091AE019091AF01A091B001B091B1010296A11DB11D8093AE01909349
:20754000AF01A093B001B093B101219704C05524772444244394209709F0A5CF96E46916B6
:2075600041F485E0F40180935700E89507B600FCFDCF8DE03CDE82E080936F009CC0833492
:2075800071F40091AE011091AF0119DE90E021E0F8010C0120935700E89511247CCE8336C8
:2075A00019F5E090AE01F090AF010091B0011091B10105DEF701E16090E021E00C0120938C
:2075C0005700E895112482E090E0A0E0B0E0E80EF91E0A1F1B1FE092AE01F092AF0100936A
:2075E000B0011093B10157CE8D3661F4E091AE01F091AF0185E080935700E89507B600FCF2
:20760000FDCF49CE823551F4E091AE01F091AF0105911491812FEBDD802F4CC0843421F5FE
:20762000E090AE01F090AF010091B0011091B10116950795F794E794C2DD682FC70169D4DE
:207640008091AE019091AF01A091B001B091B1010296A11DB11D8093AE019093AF01A093D8
:20766000B001B093B10117CE843609F5E090AE01F090AF010091B0011091B101D801C70142
:20768000B695A795979587953CD4B1DD82E090E0A0E0B0E0E80EF91E0A1F1B1FE092AE010A
:2076A000F092AF010093B0011093B10104C08B3111F08FE39CDD83E08093E9009091E8002B
:2076C0008091E8008E778093E80095FF04C010C08EB38823C9F08091E80080FFF9CF809193
:2076E000E8008E778093E80003C08EB3882361F08091E80080FFF9CF84E08093E9008091F1
:20770000E8008B778093E800DF91CF911F910F91FF90EF90DF90CF90BF90AF909F908F90AC
:207720007F906F905F904F9008959091B601892F8F77813249F58091B7018032A1F081328A
:2077400019F5913A09F58091E800877F8093E8008DE091E067E070E00BD28091E8008B770B
:207760008093E8000895913279F48091E800877F8093E8008DE091E067E070E05DD2809192
:20778000E8008E778093E800089582E061EC42E0B5D083E061E842E1B1D084E060E842E1EF
:2077A000ADC084B7877F84BF88E10FB6F89480936000109260000FBE20E880E090E00FB63F
:2077C000F89420936100809361000FBE81E085BF92E095BF3F9A209A559AE1E6F0E02083A1
:2077E000108247985D982898109289008AEF8093880090936F0083E080938100F0C040911A
:20780000000850910108109201081092000894B714BE88E10FB6F8948093600010926000D5
:207820000FBE292F30E0F901E270F07091FD18C090FF05C0859194918F5F9F4F81F423FFFF
:207840000FC08091090190910A014817590741F0E0E0F0E0859194918F5F9F4F09F042DC64
:20786000A0DF78941092AD011092AC010CC0DEDC36D38091AC019091AD0181549F4110F00D
:207880001092140141DC80911401882381F78091E00081608093E00025DC80E090E0089598
:2078A000FA01923049F0933061F09130F9F485E191E022E130E01EC087E291E02EE330E04D
:2078C00019C0882329F485E691E024E030E012C0813029F489E691E022E230E00BC0823006
:2078E00029F48DE891E028E130E004C080E090E020E030E091838083C90108958093E9004E
:207900008091EB0081608093EB001092ED006093EC004093ED008091EE00881F8827881F62
:2079200008958091B60188238CF403C08EB38823B1F08091E80082FFF9CF8091E8008B772A
:207940008093E80008958EB3882349F08091E80080FFF9CF8091E8008E778093E800089594
:20796000EF92FF920F931F9345D04CD008ED10E0F80180818F77808380818068808380819B
:207980008F7D808319BC1EBA1092B40180EEE82EF12CF70180818B7F8083F8018081816052
:2079A000808380E060E042E0A9DFE1EEF0E080818E7F8083E2EEF0E0808181608083808144
:2079C00088608083F70180818E7F8083F8018081806180831F910F91FF90EF900895E7ED06
:2079E000F0E08081816080838AE482BF81E08093B501B6CFE8EDF0E080818E7F808310921C
:207A0000E20008951092DA001092E10008951F920F920FB60F9211242F933F934F935F93F6
:207A20006F937F938F939F93AF93BF93EF93FF938091DA0080FF1BC08091D80080FF17C0B2
:207A40008091DA008E7F8093DA008091D90080FF0BC080E189BD82E189BD09B400FEFDCF36
:207A600081E08EBB3BD203C019BC1EBA37D28091E10080FF17C08091E20080FF13C0809138
:207A8000E2008E7F8093E2008091E20080618093E2008091D80080628093D80019BC85E049
:207AA0008EBB1CD28091E10084FF2CC08091E20084FF28C080E189BD82E189BD09B400FEC5
:207AC000FDCF8091D8008F7D8093D8008091E1008F7E8093E1008091E2008F7E8093E20012
:207AE0008091E20081608093E2008091B401882331F48091E30087FD02C081E001C084E067
:207B00008EBBECD18091E10083FF21C08091E20083FF1DC08091E100877F8093E10082E06A
:207B20008EBB1092B4018091E1008E7F8093E1008091E2008E7F8093E2008091E2008061E9
:207B40008093E20080E060E042E0D8DEC7D1FF91EF91BF91AF919F918F917F916F915F9130
:207B60004F913F912F910F900FBE0F901F9018959C014091BC015091BD014617570718F49D
:207B8000F90190E044C06115710511F0AB01F8CF8091E8008E778093E80040E050E0F0CF0F
:207BA0008EB3882309F444C0853009F443C08091E80083FF02C081E008958091E80082FD70
:207BC00031C08091E80080FF22C08091F3009091F200782F60E0292F30E0262B372B07C07A
:207BE00081918093F100415050402F5F3F4F4115510519F02830310598F390E02830310566
:207C000009F491E08091E8008E778093E8004115510531F6992321F605C08EB3882341F075
:207C2000853041F08091E80082FFF7CF80E0089582E0089583E008959C016115710529F47C
:207C40008091E8008B778093E800F90126C08EB3882391F1853091F18091E80083FF02C06C
:207C600081E008958091E80082FFF1CF06C08091F10081936150704059F02091F300809191
:207C8000F200322F20E090E0822B932B892B79F78091E8008B778093E80061157105B9F601
:207CA00005C08EB3882341F0853041F08091E80080FFF7CF80E0089582E0089583E00895C2
:207CC0000F931F93DF93CF9300D0CDB7DEB7E6EBF1E08091F100819381E0EE3BF807C9F792
:207CE00024DD8091E80083FFE4C08091B6019091B701953009F46DC0963040F4913081F1A7
:207D0000913070F0933009F0D4C02AC0983009F4A3C0993009F4B2C0963009F0CAC07CC023
:207D2000803809F4C6C0823809F0C3C08091BA0187708093E9008091EB001092E9002091DB
:207D4000E800277F2093E80090E025E0969587952A95E1F781708093F1001092F10087C0D8
:207D6000882319F0823009F0A4C08F71823009F0A0C08091B801882331F52091BA01277097
:207D800009F497C02093E9008091EB0080FF1BC0933021F48091EB00806213C08091EB0018
:207DA00080618093EB0081E090E002C0880F991F2A95E2F78093EA001092EA008091EB00E5
:207DC00088608093EB001092E9008091E800877F51C0882309F06DC01091B8011F770FB79B
:207DE000F8948091E800877F8093E8009ADD8091E80080FFFCCF8091E3008078812B809398
:207E0000E30080688093E300112311F482E001C083E08EBB0FBF4DC08058823008F049C033
:207E20008091B8019091B9016091BA01AE014F5F5F4F36DDBC01009709F43BC08091E8008E
:207E4000877F8093E80089819A8192DE8091E8008B778093E8002DC0803859F58091E800AA
:207E6000877F8093E8008091B4018093F1008091E8008E778093E80054DD1BC08823C9F4CA
:207E80009091B8019230A8F48091E800877F8093E8009093B40145DD8091B401882331F420
:207EA0008091E30087FD02C081E001C084E08EBB6CDC8091E80083FF0AC08091EB0080624E
:207EC0008093EB008091E800877F8093E8000F900F90CF91DF911F910F91089508951F9360
:207EE0008EB3882361F01091E9001092E9008091E80083FF01C0E4DE17701093E9001F916F
:207F00000895F999FECF92BD81BDF89A992780B50895262FF999FECF1FBA92BD81BD20BDBD
:207F20000FB6F894FA9AF99A0FBE01960895F894FFCF4341544552494E4100777700080031
:207F40000000000000080112011001020000084123370001000201000109023E00020100FE
:207F600080320904000001020201000524001001042402040524060001070582030800FF0C
:207F800009040100020A000000070504021000010705830210000104030904220341007216
:207FA000006400750069006E006F0020004D006900630072006F0020002000200000001810
:1A7FC00003410072006400750069006E006F0020004C004C004300000000D7
:00000001FF
