:10000000CDC50000FCC50000FAC50000F8C5000021
:10001000F6C50000F4C50000F2C50000F0C5000000
:10002000EEC50000ECC50000EAC50000E8C5000010
:10003000E6C50000E4C50000E2C50000E0C5000020
:10004000DEC50000DCC50000DAC50000D8C5000030
:10005000D6C50000D4C50000D2C500000C942C19F0
:10006000CEC500000C94F6180C94CC18C8C500003E
:10007000C6C50000C4C50000C2C50000C0C5000060
:10008000BEC50000BCC50000BAC50000B8C5000070
:10009000B6C50000B4C50000B2C50000B0C5000080
:1000A000AEC50000ACC50000AAC50000A8C5000090
:1000B000A6C50000A4C50000A2C50000A0C50000A0
:1000C0009EC500009CC500009AC5000098C50000B0
:1000D00096C5000094C5000092C5000090C50000C0
:1000E0008EC500004552524F52202D20436F6D6D3A
:1000F000616E6420627566666572206F76657266F1
:100100006C6F772100556E7265636F676E697A65F3
:100110006420636F6D6D616E640020616E64200009
:1001200056616C69642072616E6765206973206234
:1001300065747765656E20002000536574206465E2
:1001400076696365207072696D617279206164649B
:100150007265737320746F3A20005468617420696B
:1001600073206D792061646472657373212041642A
:100170006472657373206F6620612072656D6F74A1
:1001800065206465766963652069732072657175A1
:10019000697265642E00206D696C6C697365636FAC
:1001A0006E647300536574205B726561645F746D87
:1001B0006F5F6D735D20746F3A2000536574204546
:1001C0004F5320746F3A200053657420454F4920E7
:1001D000617373657274696F6E3A2000496E74655D
:1001E0007266616365206D6F646520736574207449
:1001F0006F3A2000417070656E64696E67206F66AB
:1002000020454F54206368617261637465723A20BF
:1002100000454F542073657420746F204153434947
:1002200049206368617261637465723A20004175A8
:10023000746F206D6F64653A2000202020202020FC
:100240002020202761646472657373656420746F75
:100250002074616C6B20627574206E6F7468696EB7
:100260006720746F2073617927206572726F7273D3
:10027000005741524E494E473A206175746F6D6F79
:100280006465204F4E2063616E2063617573652045
:10029000736F6D65206465766963657320746F2084
:1002A00067656E6572617465004152343838204765
:1002B00050494220636F6E74726F6C6C65722C20B3
:1002C0007665722E20302E34392E31322C20313189
:1002D0002F30312F323032310041523438382047FC
:1002E00050494220636F6E74726F6C6C65722C2083
:1002F0007665722E20302E34392E31322C20313159
:100300002F30312F3230323100496E76616C6964A2
:10031000207465726D696E6174696F6E20636861C7
:10032000726163746572202D2069676E6F726564F7
:1003300021004661696C656420746F20756E74617C
:100340006C6B204750494220627573004661696CAE
:10035000656420746F2073656E64205344430046C7
:1003600061696C656420746F206164647265737385
:1003700020646576696365004661696C6564207414
:100380006F20756E6C697374656E207468652047A4
:1003900050494220627573004661696C656420743F
:1003A0006F2073656E64204C4C4F20746F20646521
:1003B00076696365004661696C656420746F2061CD
:1003C000646472657373207468652064657669631C
:1003D000652E004661696C656420746F2073656EDC
:1003E0006420756E6976657273616C204C4C4F2E7B
:1003F000004661696C656420746F20756E6C69736A
:1004000074656E2047504942206275732E00466124
:10041000696C65642073656E64696E67204C4F4338
:100420002E004661696C656420746F20616464729B
:10043000657373206465766963652E0049464320C1
:100440007369676E616C2061737365727465642093
:10045000666F7220313530206D6963726F7365632A
:100460006F6E64730047726F75702074726967678E
:10047000657220636F6D706C657465642E004661F3
:10048000696C656420746F20756E6C697374656E39
:10049000204750494220627573004661696C65646B
:1004A00020746F207472696767657220646576696D
:1004B0006365004661696C656420746F20616464E3
:1004C0007265737320646576696365005265736550
:1004D00074204641494C45442E0053657269616C55
:1004E00020706F6C6C20636F6D706C657465642E2A
:1004F000004661696C656420746F2072657472696E
:100500006576652073746174757320627974650013
:100510005D2066726F6D2064657669636520617425
:1005200020616464726573733A2000526563656983
:1005300076656420737461747573206279746520C4
:100540005B002C005352513A00496E76616C69642D
:1005500020706172616D65746572005365726961C6
:100560006C20706F6C6C206F6620616C6C20646511
:100570007669636573207265717565737465642E41
:100580002E2E0053525120756E2D61737365727457
:1005900065642E00535251206173736572746564F3
:1005A0002E0053657474696E677320736176656499
:1005B0002E004C4F4E3A200053656E64696E6720E2
:1005C00044434C206661696C656400536574204542
:1005D0004F5220746F3A2000506172616C6C656CF0
:1005E00020706F6C6C20636F6D706C657465642E29
:1005F0000052454E3A2000544F4E3A20004D697348
:1006000073696E6720706172616D657465727300E5
:100610004D697373696E6720706172616D65746591
:10062000720044697361626C656400496E76616C46
:1006300069643A20303D64617461206275733B20C7
:10064000313D636F6E74726F6C2062757300546D10
:100650004275732073657420746F3A20005365727D
:1006600069616C206E756D626572206D75737420A2
:100670006E6F7420657863656564203920636861F6
:100680007261637465727321004C656E67746820D3
:100690006F66206E616D65206D757374206E6F746A
:1006A0002065786365656420313520636861726117
:1006B000637465727321004C656E677468206F66A1
:1006C0002076657273696F6E20737472696E67202D
:1006D0006D757374206E6F74206578636565642032
:1006E00034382063686172616374657273210056E7
:1006F00065725374723A20002077697468207365BC
:100700007269616C206E756D6265720053656E640E
:10071000696E672049444E3A200020746F2064655A
:1007200076696365006770696253656E64436D64E2
:100730003A206661696C656420746F2073656E642D
:1007400020636F6D6D616E64200067706962536530
:100750006E64446174613A204661696C656420741A
:100760006F20756E74616C6B206275730054696DD7
:10077000656F75742077616974696E6720666F7242
:10078000207472616E7366657220746F20636F6D82
:10079000706C657465210054696D656F75742077A0
:1007A000616974696E6720666F722073656E646537
:1007B000722100454F492064657465637465642146
:1007C00000427974657320726561643A2000207478
:1007D0006F2074616C6B004661696C656420746F96
:1007E0002061646472657373207468652064657643
:1007F0006963650067706962526561644279746516
:100800003A2074696D656F75742077616974696EDB
:10081000672044415620746F20676F20484947483D
:10082000006770696252656164427974653A207448
:10083000696D656F75742077616974696E6720668C
:100840006F722044415620746F20676F204C4F57C1
:1008500000677069625772697465427974653A20FD
:1008600074696D656F75742077616974696E67204E
:10087000666F722064617461206163636570746582
:1008800064207369676E616C202D205B4E44414388
:1008900020756E61737365727465645D006770695D
:1008A000625772697465427974653A2074696D653E
:1008B0006F75742077616974696E6720666F722046
:1008C0006461746120746F20626520616363657088
:1008D000746564202D205B4E52464420617373651D
:1008E000727465645D00677069625772697465420D
:1008F0007974653A2074696D656F757420776169E4
:1009000074696E6720666F722072656365697665CB
:1009100072207265616479202D205B4E524644201E
:10092000756E61737365727465645D00677069628A
:100930005772697465427974653A2074696D656FA0
:1009400075742077616974696E6720666F722072B2
:100950006563656976657220617474656E74696F2C
:100960006E205B4E4441432061737365727465640D
:100970005D006770696253656E64446174613A201A
:100980004661696C656420746F20756E6C69737460
:10099000656E206275730020746F206C69737465D6
:1009A0006E006770696253656E64446174613A20D9
:1009B0006661696C656420746F206164647265733C
:1009C00073206465766963652000000020002300C1
:1009D000260029002C002F00320000010000030136
:1009E0000601090100000A0B02090C0D0E0807039D
:1009F00004010000000000000000000000000000F2
:100A000000000000000000000000000000000000E6
:100A100012111000000000000000000000000000A3
:100A2000000000000000000000000000220025007F
:100A300028002B002E0031003400020100000501C7
:100A400008010B0100002100240027002A002D00CE
:100A50003000330001010000040107010A0105050F
:100A60000505070508080808020202020A0A080824
:100A70000404040401010101010101010303030352
:100A800003030303040707070C0C0C0C0C0C0C0CE1
:100A90000202020206060606060606060B0B0B0BF2
:100AA0000B0B0B0B01021020200808102040102017
:100AB0004080020102010804020101020408102022
:100AC0004080804020100804020180040201804020
:100AD0002010080402010804020101020408102089
:100AE00040800102040810204080436F6D6D616EEC
:100AF00064206E6F7420617661696C61626C652040
:100B0000696E2074686973206D6F64652E0053658B
:100B10006E64696E67207374617475732062797492
:100B2000653A20005352512062697420636C6561FC
:100B30007265642028696620736574292E005374D9
:100B4000617475732073656E742E005365726961EC
:100B50006C20706F6C6C2072657175657374207297
:100B6000656365697665642066726F6D20636F6E7C
:100B700074726F6C6C6572202D3E003C2D20736585
:100B80007269616C20706F6C6C2072657175657331
:100B90007420656E6465642E0000761911241FBEF2
:100BA000CFEFD1E2DEBFCDBF00E00CBF26E0AEE765
:100BB000B4E001C01D92AC30B207E1F714E0A0E050
:100BC000B2E0E6E1F1E400E00BBF02C007900D9255
:100BD000AE37B107D9F715E0CEECD5E000E006C09E
:100BE00021970109802FFE010E94631DCD3CD10792
:100BF00080E00807A9F70E94A3190C94892000CA75
:100C0000E9E1F5E06DE675E02FEF3FEF8191832795
:100C1000982F92959F708927482F50E0922F9A0124
:100C2000322F22273295307F822793279A01B5E011
:100C3000220F331FBA95E1F7282739276E177F0750
:100C400029F7C90108958230910538F0880F991F5E
:100C5000880F991F05970197F1F70895DC01ED9131
:100C6000FC910190F081E02D1994EF92FF920F9387
:100C70001F93CF93DF938C017B01D0E0C0E0F7019D
:100C8000EC0FFD1F6491662361F0D801ED91FC919A
:100C90000190F081E02DC8011995892B11F0219662
:100CA000EECFCE01DF91CF911F910F91FF90EF908A
:100CB0000895AF92BF92CF92DF92EF92FF920F937F
:100CC0001F93CF93DF936C017B018B01040F151FE2
:100CD000EB015E01AE18BF08C017D10759F069914A
:100CE000D601ED91FC910190F081E02DC60119959E
:100CF000892B79F7C501DF91CF911F910F91FF905B
:100D0000EF90DF90CF90BF90AF900895FC01538D8E
:100D1000448D252F30E0842F90E0821B930B5417D5
:100D200010F0CF96089501970895FC01918D828D62
:100D3000981761F0A28DAE0FBF2FB11D5D968C91FB
:100D4000928D9F5F9F73928F90E008958FEF9FEF3A
:100D50000895FC01918D828D981731F0828DE80FF6
:100D6000F11D858D90E008958FEF9FEF0895FC01B0
:100D7000918D228D892F90E0805C9F4F821B91097D
:100D80008F73992708958DE695E0F1DF21E0892B97
:100D900009F420E0822F0895FC01A48DA80FB92F3B
:100DA000B11DA35ABF4F2C91848D90E001968F7393
:100DB0009927848FA689B7892C93A089B1898C91B2
:100DC000837080648C93938D848D981306C0028801
:100DD000F389E02D80818F7D80830895EF92FF92CB
:100DE0000F931F93CF93DF93EC0181E0888F9B8D4E
:100DF0008C8D98131AC0E889F989808185FF15C008
:100E00009FB7F894EE89FF896083E889F98980812A
:100E10008370806480839FBF81E090E0DF91CF91F9
:100E20001F910F91FF90EF900895F62E0B8D10E01B
:100E30000F5F1F4F0F731127E02E8C8D8E110BC08B
:100E40000FB607FCFACFE889F989808185FFF5CFD5
:100E5000CE01A2DFF2CFEB8DEC0FFD2FF11DE35A97
:100E6000FF4FF0829FB7F8940B8FEA89FB8980814E
:100E70008062D0CFCF93DF93EC01888D8823B1F0CF
:100E8000AA89BB89E889F9898C9185FD03C0808195
:100E900086FD0CC00FB607FCF7CF8C9185FFF2CF13
:100EA000808185FFEDCFCE0177DFEACFDF91CF9153
:100EB000089580E090E0892B21F065DF81110E9488
:100EC000000080E090E0892B49F080E090E0892BE1
:100ED00029F00E94000081110E94000080E090E053
:100EE000892B49F080E090E0892B29F00E940000D6
:100EF00081110E94000080E090E0892B49F080E0A1
:100F000090E0892B29F00E94000081110C940000D0
:100F100008958150823108F05AC0E82FF0E0882708
:100F2000EB56F84F8F4F0C94631DB507B907A70711
:100F3000AD07B107E707BC07C207C607CC07D00754
:100F4000D407DA07DE07E707E207E807EC07809136
:100F500080008F77809380000895809180008F7D3E
:100F6000F9CF80918000877FF5CF84B58F7784BDDE
:100F7000089584B58F7DFBCF8091B0008F778093EB
:100F8000B00008958091B0008F7DF9CF80919000DE
:100F90008F77809390000895809190008F7DF9CF96
:100FA00080919000877FF5CF8091A0008F7780930C
:100FB000A00008958091A0008F7DF9CF8091A000BE
:100FC000877FF5CF809120018F778093200108954E
:100FD000809120018F7DF9CF80912001877FF5CF0F
:100FE000CF93DF93282F30E0F901EC51F64F849135
:100FF000F901EC55F54FD491F901E25AF54FC4913E
:10100000CC2399F0811185DFEC2FF0E0EE0FFF1F6C
:10101000E653F64FA591B491EC91ED2381E090E079
:1010200009F480E0DF91CF91089580E090E0FACF5D
:101030001F93CF93DF93282F30E0F901EC51F64F47
:101040008491F901EC55F54FD491F901E25AF54F2D
:10105000C491CC23A1F0162F81115BDFEC2FF0E0BF
:10106000EE0FFF1FE65DF54FA591B4918FB7F89491
:10107000EC91111108C0D095DE23DC938FBFDF9176
:10108000CF911F910895DE2BF8CF3FB7F894809150
:10109000870490918804A0918904B0918A0426B5B0
:1010A000A89B05C02F3F19F00196A11DB11D3FBFA0
:1010B000BA2FA92F982F8827BC01CD01620F711D6F
:1010C000811D911D42E0660F771F881F991F4A9569
:1010D000D1F708958F929F92AF92BF92CF92DF92F5
:1010E000EF92FF926B017C01D0DF4B015C01C114D8
:1010F000D104E104F104B1F0C8DF681979098A0963
:101100009B09683E73408105910588F321E0C21A6E
:10111000D108E108F10888EE880E83E0981EA11C32
:10112000B11CE5CFFF90EF90DF90CF90BF90AF90D4
:101130009F908F900895CF93DF93C82FD0E0262FF4
:1011400030E0D901AA0FBB1FA8776370A62B359595
:1011500027953595279520733A2F3095FE01EE0F90
:10116000FF1FE8778370E82BEA23922F9095D5959F
:10117000C795D595C7952C23413069F06091020140
:101180006323E62BE093020185B18923282B25B93F
:10119000DF91CF910895609101016323E62BE093E5
:1011A000010184B18923282B24B9F2CF82508830E1
:1011B00088F4E82FF0E041E08827EE51F74F8F4F99
:1011C0000C94631DF208F8080B0904090E091509AF
:1011D0001B09220941E06FEF88EBADDF40E06FEFC4
:1011E0008FED0CC06EE988EBA6DF40E06EE9F8CF2A
:1011F0006FE989EBA0DF40E06FE98FE59CDF80912C
:101200005505909156051FCD6EE986EA94DF40E0C2
:101210006EE988EDF3CF6EE989EBE6CF6FEF80E002
:101220008ADF40E06FEF8FEFE9CF6EE080E083DF91
:1012300040E06EE0F8CF6EE086E07DDF40E06EE0FB
:1012400089EFDCCF6EE088E0F8CFBF92CF92DF92DB
:10125000EF92FF920F931F93CF93DF93C82FB62E79
:101260002FB7F8948091830490918404A091850411
:10127000B09186042FBF6A01550FEE08FF08C80E13
:10128000D91EEA1EFB1E8BE0ABDE8C01D0E08B2D5D
:10129000A7DE8C179D0719F12FB7F894809183046E
:1012A00090918404A0918504B09186042FBF8C1581
:1012B0009D05AE05BF0558F081E0DF91CF911F91EC
:1012C0000F91FF90EF90DF90CF90BF9008950115A0
:1012D0001105E9F68BE084DE0197C9F6EDCF80E0D9
:1012E000ECCF41E060E480E026DF40E060E480E4B1
:1012F00022CF90919104E92FF0E0EB56FB4F8083D1
:101300009F5F909391040895E9E1F5E084E5DF01A2
:101310001D928A95E9F782E0828381E0848380EBE5
:1013200094E0928781870895EFCFFF920F931F93E8
:10133000CF93DF9309E115E0C2E0D0E0F801F1902E
:101340008F01CE010E942B1DF81621F06F2DCE01CA
:101350000E94331D2196C635D10581F751DCD82F67
:10136000C92F90E080E00E942B1DD81729F06D2F27
:1013700090E080E00E94331D81E090E00E942B1DF0
:10138000C81751F06C2F81E090E0DF91CF911F9151
:101390000F91FF900C94331DDF91CF911F910F910E
:1013A000FF900895CF93DF93EC0190E080E00E94DE
:1013B0002B1D888381E090E00E942B1D8983CE0144
:1013C000DF91CF910895FB0101900020E9F731975B
:1013D000AF01461B570BDC01ED91FC910280F381BC
:1013E000E02D19948F929F92AF92BF92EF92FF924D
:1013F0000F931F93CF93DF93CDB7DEB7A1970FB6AF
:10140000F894DEBF0FBECDBF7C01FA01CB0119A25B
:10141000223008F42AE08E010F5D1F4F822E912C9E
:10142000B12CA12CBF01A50194010E94411DF9011D
:10143000CA016A3004F5605DD8016E938D01232BDB
:10144000242B252B79F790E080E0109719F0BD014F
:10145000C701B9DFA1960FB6F894DEBF0FBECDBFAE
:10146000DF91CF911F910F91FF90EF90BF90AF90C0
:101470009F908F900895695CDFCF61EF72E0A3CFFA
:10148000CF92DF92EF92FF920F931F93CF93DF9350
:101490008C016B01770FEE08FF08F7FE1CC06DE2B0
:1014A000DDDBEC0144275527BA014C195D096E09B3
:1014B0007F092AE0C80196DFC80FD91FC801DDDF08
:1014C0008C0F9D1FDF91CF911F910F91FF90EF9097
:1014D000DF90CF9008952AE0B701A60183DFEC01E9
:1014E000EDCF8AE07DDD61E070E0892B11F070E0E6
:1014F00060E08DE695E0C4CF0F931F93CF93DF9309
:10150000EC01AB0170E060E02AE06CDF8C01CE0101
:10151000B4DF800F911FDF91CF911F910F9108953C
:101520000F931F93CF93DF93EC01462F50E070E0B1
:1015300060E02AE057DF8C01CE019FDF800F911F12
:10154000DF91CF911F910F9108950F931F93CF9328
:10155000DF93EC0138DF8C01CE018FDF800F911F0C
:10156000DF91CF911F910F9108950F931F93CF9308
:10157000DF93EC017ADB8C01CE017FDF800F911FBE
:10158000DF91CF911F910F910895CF93C82F409174
:1015900022055091230560E180E057DE8823D9F0D1
:1015A000C0911605C11111C0C1E040E068E088E0BB
:1015B000C2DD80B38FEF80BB81BB809155059091D8
:1015C000560541DB8C2FCF9108956CE279E08DE6D2
:1015D00095E0CBDFEACF409122055091230566E0EC
:1015E00081E033DE882339F0C091160566EE78E09D
:1015F000CC23D1F2ECCF80B38FEF80BBC095C1BBC1
:1016000040E068E080E097DD40912205509123059D
:1016100066E080E01ADE882341F0C09116056DE98E
:1016200078E0CC2309F4C0CFD2CF4091220550916D
:10163000230560E181E009DEC82F882309F4B5CFD6
:10164000C0911605CC2309F4AFCF61E578E0BFCF98
:10165000EF92FF920F931F93CF93DF938C01EB01D7
:101660008BE0BEDC7C01188240E064E084E063DD56
:10167000EF2881F48BE0B4DC019761F440E064E092
:1016800080E059DD83E0DF91CF911F910F91FF90B2
:10169000EF900895409122055091230567E080E086
:1016A000D4DD882379F080911605882329F061E242
:1016B00078E08DE695E059DF40E064E080E03BDDD6
:1016C00081E0E1CF40E064E080E035DD80918C0492
:1016D000882331F088E084DC892B11F481E0888351
:1016E0008FB18095F801808340E062E082E023DDE5
:1016F000409122055091230567E081E0A6DD882313
:1017000059F080911605882329F064EF77E08DE683
:1017100095E02BDF82E0B7CF40E062E080E00BDDB8
:1017200080915505909156058EDA80E0ACCFCF932D
:10173000DF93C82F83E03ADD8C2F27DFD82F882353
:10174000B1F080911605882391F065E277E08DE68F
:1017500095E08BDA4C2F50E070E060E020E18DE600
:1017600095E040DE6AE177E08DE695E0FEDE8D2FC4
:10177000DF91CF91089583E790E00197F1F78FE330
:10178000D6DF811102C08FE5D2CF0895CF93DF93CA
:10179000C82FD62F8FE3CBDF811116C0DD2359F080
:1017A00080E48C0FC4DF81110FC080911C05805E26
:1017B000DF91CF91BCCF80E28C0FB9DF811104C0E3
:1017C00080911C05805CF4CF81E0DF91CF9108957A
:1017D000CF92DF92EF92FF920F931F93CF936C0102
:1017E000E62E80911B05823009F073C080910002C3
:1017F000882329F160E080911D05C8DF8823F9F076
:1018000080911605882309F478C062EA79E08DE6B4
:1018100095E02BDA40911D0550E070E060E02AE091
:101820008DE695E0DFDD67E979E08DE695E0CF9123
:101830001F910F91FF90EF90DF90CF9096CE809107
:10184000170591E089278093000284E0AFDC8601D0
:10185000F12CC8018C199D098E159F050CF03FC015
:10186000F80181918F0191DEC82F882391F3809137
:101870001A05882379F08091170581110BC040E08B
:1018800060E159DC8BE990E00197F1F740E060E11D
:1018900080E151DC80911B058230E9F4C11110C058
:1018A00080910002882361F066DF882349F08091EF
:1018B0001605882329F062E779E08DE695E055DE8C
:1018C00082E0CF911F910F91FF90EF90DF90CF902A
:1018D0006DCC89E0BBCF813081F487E0F2CF80917D
:1018E0001F0581FD02C08DE050DE80911F0580FD47
:1018F00002C08AE04ADEC0E0BACFCF911F910F91BB
:10190000FF90EF90DF90CF900895CF93DF9382E028
:101910004DDCCBE4D0E0CE010197F1F740E060E987
:1019200080E009DC2197F1F7CFB182E03FDC6C2F3A
:1019300060958DE695E0F4DD80911605882339F0F9
:1019400068ED75E08DE695E0DF91CF910ECEDF91E9
:10195000CF91089584E1EBDE882349F0809116054C
:10196000882339F068EB75E08DE695E0FECD82E0E6
:101970001DCC0895DADC80911605882329F062EAEF
:1019800075E08DE695E0F1CD08952FB7F89480913C
:10199000830490918404A0918504B09186042FBFA4
:1019A0008053984FAF4FBF4F28E13EE00FB6F894F9
:1019B000A895209360000FBE309360002FB7F89475
:1019C0004091830450918404609185047091860451
:1019D0002FBF481759076A077B0780F380911605C8
:1019E000882329F06CEC74E08DE695E0BECD089577
:1019F00080911B058823A9F040E061E080E09BDB3B
:101A000083E592E00197F1F740E061E081E093DB4C
:101A100080911605882329F06CE374E08DE695E04B
:101A2000A4CD089560E080911D05B0DE882339F0D3
:101A3000809116056FE573E081110BC0089584E075
:101A400076DE882349F0809116058823B9F36CE48B
:101A500073E08DE695E089CD8EDE882339F08091A4
:101A6000160562E373E0882349F3F3CF82E09ECB4F
:101A700065E071E08DE695E078CD8091160591E006
:101A800089278093160564EF72E08DE695E09BDC74
:101A90008091160569E573E0882311F06DE473E029
:101AA0008DE695E052CD8DE695E0E7DC6EEF72E0D5
:101AB0008DE695E088CC25E0FC0111922A95E9F7A6
:101AC00062E276E08DE695E050CDE5E9F4E080E86D
:101AD000DF011D928A95E9F7109291040895E82F8D
:101AE000F0E0EC56FB4F90819F3319F491E0909316
:101AF000180590919404911104C0682F85E994E031
:101B000067DE8091170581111092170580911605E7
:101B10008111C9DFDADF109215050895CF93DF93A5
:101B2000EC0189E05DDA892B79F5209709F143E032
:101B300050E061E073E0CE010E94971D892B21F5F2
:101B400040E060E280E2F7DA68E270E080E090E096
:101B5000C1DA40E060EA80E0EEDA68E270E080E05E
:101B600090E0B8DA40E060E880E8DF91CF91E3CA26
:101B700060E080911D050ADE882349F080911605FA
:101B800062E274E081110DC0DF91CF91089581E090
:101B9000CEDD882359F0809116058823A9F36EE0E5
:101BA00074E08DE695E0DF91CF91DFCCE4DD882312
:101BB00039F08091160561EF73E0882329F3F1CFA6
:101BC00082E0DF91CF91F2CACF93DF93EC0189E0FD
:101BD00007DA892BC1F42097D1F043E050E061E0AF
:101BE00073E0CE010E94971D892B69F481E19FDD8E
:101BF000882349F080911605882329F063ED73E06E
:101C00008DE695E0B2DC82E0DF91CF91CFCA60E053
:101C100080911D05BBDD882349F08091160565EB99
:101C200073E081110DC0DF91CF91089581E17FDDD7
:101C3000882359F0809116058823A9F368E973E099
:101C40008DE695E0DF91CF9190CC95DD8823D9F298
:101C50008091160568E773E0882329F3F1CF009798
:101C600051F043E050E065E073E00E94971D69EA9F
:101C700072E0892B59F08091250569ED72E0882387
:101C800029F065E275E08DE695E05FCC8DE695E0A4
:101C90006CCC1F93CF93DF93C0E011E08DE695E00D
:101CA00066D8892B09F49FC0C1119DC08DE695E0CF
:101CB0003CD8D82F8091910487FD52C080911605A1
:101CC000882329F06D2F8DE695E00E942E06DD30E9
:101CD000C9F024F4DA30B1F08D2F73C0DB3109F490
:101CE0006BC0DB32C9F780917F04882341F01092EA
:101CF0007F0480919104823010F410937E048BE273
:101D0000F8DA2EC080917F048111E6CF8091910492
:101D1000C0911605811105C0D8DEC111C4DEC0E036
:101D2000BDCFCC2319F08DE695E0A7DBC0919104DF
:101D3000C33008F43EC0909195049B3219F5909100
:101D400096049B32F9F490917E0491111BC080910E
:101D50009704C1E0813211F4B8DEC3E010927E0432
:101D60008091910487FF9ACF809195048B3231F452
:101D7000809196048B3211F4CC2351F11093170506
:101D8000C2E08CCFC33011F4C2E0E8CF80916C0583
:101D90008823D1F345E050E06AE073E085E994E000
:101DA0000E94971D892B81F710938D048EDEC0E071
:101DB000D5CFCC2399F2E8CF80917F04882329F0F6
:101DC0008BE197DA10927F04CBCF10937F04C8CFBA
:101DD00080911605882329F064EE70E08DE695E089
:101DE000C4DB73DE5BCF8C2FDF91CF911F91089501
:101DF000AF92BF92DF92EF92FF920F931F93CF9318
:101E0000DF9300D01F92CDB7DEB719821A821B82F2
:101E100080915705082F07701C8210928B04D09078
:101E20008C04873019F481E080938C0480911B0529
:101E3000823009F0BDC061E080911D05A7DC8823D8
:101E4000C1F0809116058823A1F067ED77E08DE65B
:101E500095E00E94350640911D0550E070E060E07D
:101E60002AE08DE695E0BEDA6EEC77E08DE695E04F
:101E70007CDB409122055091230566E081E0E5D9A5
:101E800085E094D980B310BA81B38FEF81BBF12C78
:101E9000E12CA02EB12C10918B041111E4C08BE029
:101EA0009FD8892BC9F0BE016C5F7F4FCE01019690
:101EB000CFDB182F80912105833021F080918C0495
:101EC000882319F0E6DE8093150580911505882397
:101ED00009F474C010928F0480911605882351F084
:101EE00061EC77E08DE695E00E943506B7018DE65E
:101EF00095E0C6DA8C81882399F0809116058823B5
:101F000029F063EB77E08DE695E02FDB80911905F2
:101F1000882331F0609124058DE695E00E942E061D
:101F2000D0928C041123B1F080911605882339F0EA
:101F3000113029F467E977E08DE695E016DB8091B2
:101F40001605882339F0123029F46DE677E08DE626
:101F500095E00BDB80911B05823009F086C00BDC1D
:101F6000882351F080911605882331F06AE477E0E8
:101F70008DE695E00E94350680911B05823009F4BC
:101F800015D980918B04811110928B0481E011117D
:101F900001C080E00F900F900F900F90DF91CF91D4
:101FA0001F910F91FF90EF90DF90BF90AF90089539
:101FB00088E0FCD881E080938C0464CF8BE010D85B
:101FC000892B09F489CF69818DE695E00E942E0660
:101FD0008FEFE81AF80A80918C04882351F08C81E5
:101FE00081117ACF111178CF8A818B8389818A837D
:101FF00052CF80918104882331F0998180918004AF
:102000009813F0CF69CF073040F5F5018827E45FDA
:10201000FF4E8F4F0C94631D2D1013101710F20FED
:102020001B102010241089818D30E1F655CF898155
:102030008A30C1F651CF89818D30A1F68A81F8CFDF
:102040008981833079F648CF8981833059F68A8136
:102050008A3009F0C7CF8B81E7CF89818A3009F0B8
:10206000C1CF8A81E1CF10E037CF87E089CFBF921F
:10207000CF92DF92EF92FF920F931F93CF93DF9354
:1020800000D000D000D01F92CDB7DEB7009709F482
:1020900045C060E173E00E94E41C7C01DC010D900E
:1020A0000020E9F76D01FD0101900020E9F731976B
:1020B0008F010A1B1B0B46E050E063E173E0002335
:1020C00009F47FC00E94971D892B51F5F0901605E9
:1020D0008FEF800F8F32D8F4E5E2F5E080E3DF0187
:1020E0001D928A95E9F7A8015527B601CF010E94F4
:1020F000A51DFF2031F06FEE76E08DE695E00E94A1
:10210000350665E275E08DE695E01FDA23C0FF2015
:1021100029F067EB76E08DE695E027DAA9DC1AC0B6
:1021200044E050E06AE173E0C7010E94971D892BEB
:1021300041F58FEF800F8F30E8F4E8E5F5E080E1BE
:10214000DF011D928A95E9F7A8015527B601CF0155
:102150000E94A51D2A960FB6F894DEBF0FBECDBF14
:10216000DF91CF911F910F91FF90EF90DF90CF9073
:10217000BF9008958091160569E876E0882371F292
:10218000CACF46E050E06FE173E0C7010E94971D9F
:10219000892B21F6B9E0B01760F0C6010E94BE1C81
:1021A000609368057093690580936A0590936B0549
:1021B000D1CF809116056DE576E0882309F4AECF86
:1021C000AACF0E94971D892B09F49BCF44E050E0D1
:1021D0006AE173E0C7010E94971D892B19F468E535
:1021E00075E091CF46E050E06FE173E0C7010E94D7
:1021F000971D892B09F092CF8AE08E010F5F1F4F48
:10220000F801982F11929A95E9F790916B059F9399
:1022100090916A059F93909169059F9390916805AD
:102220009F9326E233E03F932F931F928F931F9348
:102230000F930E94B41DB8018DE695E086D90FB6C4
:10224000F894DEBF0FBECDBF85CFCF93DF9360E1A3
:1022500073E00E94E41C0097A9F0FC0101900020AB
:10226000E9F73197E81BF90B349760F40E94A11C41
:10227000D82F833040F06BE276E08DE695E0DF9179
:10228000CF9173C9D0E060E173E090E080E00E94FC
:10229000E41C0097C9F1FC0101900020E9F7319797
:1022A000E81BF90B3497F8F40E94A11CC82FC095C5
:1022B000DD23E9F041E06FEF8FEF0E949B0840E0E3
:1022C0006FEF8C2F0E949B0860E177E280E090E046
:1022D0000E946A0880911B05823039F481E0DF9109
:1022E000CF910C94D60880E0E1CF86E0F8CF80B3A0
:1022F000DFEFD0BBC1BB60E177E280E090E00E94FD
:102300006A0880B3D0BBD1BBDF91CF910895CF9342
:10231000DF9310928C0410928104009799F0EC01E5
:10232000FC0101900020E9F73197E81BF90B349785
:1023300098F080911605882329F069E073E08DE616
:1023400095E013D9809121058330D9F481E0809301
:102350008F04DF91CF91089543E050E06CE273E089
:102360000E94971D892B21F481E080938C04EACF91
:1023700081E080938104CE010E94A11C809380049F
:10238000E1CFDF91CF9134CDEF92FF920F931F9366
:10239000CF93DF93DC01EC91E11109C0C1E08C2FF8
:1023A000DF91CF911F910F91FF90EF900895E90178
:1023B0007A018B01198218820E94A11C998388835B
:1023C0008017910720F0C0E0E816F90640F750DBCF
:1023D000C0911605CC2311F360E271E08DE695E023
:1023E0000E943506A80170E060E02AE08DE695E0E5
:1023F0000E94F2096AE171E08DE695E00E943506DF
:10240000B7018DE695E078D8CACFCF93DF931F92BE
:102410001F92CDB7DEB70097A9F19E012F5F3F4F06
:1024200042E050E070E060E0AFDF811126C08981BA
:1024300080936C05809116058823F9F06CE077E0B5
:102440008DE695E00E94350689819A8160E373E00C
:10245000892B11F069E373E08DE695E00E94E309B2
:1024600089819A81029731F468EF76E08DE695E0F4
:102470000E9435068DE695E000D80F900F90DF9111
:10248000CF91089560916C058DE695E049D8F5CF20
:10249000CF93DF931F921F92CDB7DEB7009721F144
:1024A0009E012F5F3F4F40E355E770E060E06CDF37
:1024B000811115C089819A819093560580935505A5
:1024C00080911605882359F06EE476E08DE695E05C
:1024D0000E94350669817A818DE695E00DD80F90CE
:1024E0000F90DF91CF910895609155057091560539
:1024F000F3CFEF92FF920F931F93CF93DF9300D010
:102500001F92CDB7DEB7009709F468C060E173E0B1
:102510000E94E41CFC012081211122C060E173E0D3
:1025200090E080E00E94E41CFC01208121112DC07C
:1025300061E473E090E080E00E94E41C8C01FC0107
:102540008081F12CE12C81112BC092DA809116054B
:1025500060E176E0882371F08DE695E006D80AC048
:102560009E012F5F3F4F4FEF50E062E070E00CDFC5
:102570008823A1F20F900F900F900F90DF91CF91D1
:102580001F910F91FF90EF9008959E012D5F3F4F97
:1025900040E355E770E060E0F7DE8111EBCFC8CF94
:1025A00089819A81E816F90628F7F8010190002040
:1025B000E9F73197BF01601B710B80919404811181
:1025C00002C0C80105D96B817C8190E080E00E9447
:1025D0006A080EDCFFEFEF1AFF0AE2CF49DA8091BA
:1025E0001605882339F26DEF75E0B6CFCF93DF93F0
:1025F0001F921F92CDB7DEB7009761F19E012F5F4A
:102600003F4F41E050E070E060E0BEDE811116C057
:1026100089819A810097B9F00197C1F080911605E0
:10262000882361F08091900460E573E0882311F0C5
:1026300064E473E08DE695E00E94A50A0F900F9088
:10264000DF91CF91089510929004E8CF81E08093BC
:102650009004E4CF6091900470E08DE695E00E94D4
:10266000400AECCFCF93DF931F921F92CDB7DEB716
:10267000009789F19E012F5F3F4F41E050E070E0ED
:1026800060E082DE811122C089819A8121E0009779
:1026900009F420E020938E04892B11F01092940409
:1026A00080911605882391F067EF75E08DE695E03F
:1026B0000E94350689819A8169E573E0892B11F0C2
:1026C0006DE473E08DE695E00E94A50A0F900F90EF
:1026D000DF91CF91089560918E0470E08DE695E0D2
:1026E0000E94400AF3CFCF93DF931F921F92CDB782
:1026F000DEB7009771F19E012F5F3F4F41E050E040
:1027000070E060E041DE81111FC061E089819A8143
:10271000892B09F060E089E00E9418088091160575
:10272000882391F061EF75E08DE695E00E94350613
:1027300089819A816AE673E0892B11F06DE573E077
:102740008DE695E00E94A50A0F900F90DF91CF9142
:10275000089589E00E94F00761E070E0892B11F094
:1027600070E060E08DE695E00E94400AEDCFCF93E7
:10277000DF931F921F92CDB7DEB7009711F19E0134
:102780002F5F3F4F4FE050E070E060E0FDDD8111D2
:1027900013C089818093570580911605882361F0C5
:1027A0006BEC75E08DE695E00E94350669817A81D3
:1027B0008DE695E00E947C0A0F900F90DF91CF91FB
:1027C000089580915705883010F010925705609158
:1027D00057058DE695E00E94900AEECFCF93DF93E8
:1027E0001F921F92CDB7DEB7009791F19E012F5F28
:1027F0003F4F41E050E070E060E0C6DD811123C052
:1028000081E029813A81232B09F480E080939404AC
:1028100080918E04811110928E0480911605882378
:1028200091F062EB75E08DE695E00E9435068981B6
:102830009A8169E573E0892B11F06DE473E08DE610
:1028400095E00E94A50A0F900F90DF91CF91089517
:102850006091940470E08DE695E00E94400AF3CF09
:102860001F93CF93DF931F921F92CDB7DEB71A82CB
:102870001982009781F19E012F5F3F4F4FEF50E08B
:1028800070E060E081DD811115C0898180932005B1
:102890001091160586FF14C041E060E480E40E94B8
:1028A0009B0840E060E480E00E949B0864E975E0DA
:1028B00011110CC00F900F90DF91CF911F910895CF
:1028C0000E9471091123B1F363E875E08DE695E08C
:1028D0000E94B50AEFCF609120058DE695E00E9439
:1028E000900AE8CF6F927F928F929F92AF92BF92A1
:1028F000CF92DF92EF92FF920F931F93CF93DF93CC
:10290000CDB7DEB763970FB6F894DEBF0FBECDBF6D
:102910006C011A8A198A188A1B8A8E010F5F1F4F51
:102920004E0180E1880E911CF801580111928E161B
:102930009F06E1F7F12CC114D10409F07DC080910C
:102940001D058983E12CFF24F3948FE30E94970BEC
:10295000811198C080911C05805E0E94970B8111A7
:1029600091C088E10E94970B81118CC010E000E0BB
:10297000CF2CD12C0C151D050CF0D6C0EE2009F47F
:1029800099C0198B088B8889998920911C05281773
:10299000190699F1805C0E94970B811173C085E044
:1029A0000E94D608BE016D5E7F4FCE0142960E9406
:1029B000280B8111ADC06A8981E0F81609F482C044
:1029C00066FF1BC064E475E08DE695E00E94350665
:1029D000A801110F660B770B2AE08DE695E00E94A7
:1029E000F20962E475E08DE695E00E9435066A8999
:1029F0008DE695E00E94900A86010F5F1F4FBACFC7
:102A0000F60101900020E9F73197EC19FD093397A1
:102A100088F594014EE150E061E070E0C301B4DC60
:102A2000E82E81112FC08889F80181938F01F394DA
:102A3000FFE0FF1609F489CF60E173E0C601FF20D3
:102A400011F090E080E0C0D73C0143E050E061E04D
:102A500073E00E94971D892B99F6E0901605EE20F1
:102A600031F16BE575E08DE695E00E94B50A8EE1E7
:102A7000F82E6BCF0E94380D8091160569E475E041
:102A8000811179C063960FB6F894DEBF0FBECDBF3B
:102A9000DF91CF911F910F91FF90EF90DF90CF903A
:102AA000BF90AF909F908F907F906F900895EE248D
:102AB000E394DDCFF501E00FF11F808190E0998B69
:102AC000888B61CF8DE695E00E94900A8091160573
:102AD0008823D9F06BE275E08DE695E00E9435061B
:102AE0004A8950E070E060E02AE08DE695E00E94BF
:102AF000F20960E175E08DE695E00E94350668898F
:102B000079898DE695E00E947C0A01E010E075CF9E
:102B100080911605882309F470CF61EF74E08DE68B
:102B200095E00E94B50A69CFEE2021F08DE695E090
:102B30000E943D0A89E10E94970B8111A3CF8FE586
:102B40000E94970B81119ECF8FE30E94970B8111FA
:102B500099CF82E00E94D6088AE00E94F007892B74
:102B600079F481E08093920480911605882309F41A
:102B700089CF6AED74E08DE695E00E94B50A82CFB8
:102B800010929204F1CF81E093E0ACCE8F929F92AD
:102B9000AF92BF92CF92DF92EF92FF920F931F936B
:102BA000CF93DF93CDB7DEB761970FB6F894DEBF52
:102BB0000FBECDBF4C01198A188ACE0101967C0147
:102BC0005E0190E1A90EB11CF7011192EA15FB0517
:102BD000E1F7670100E08114910471F580911D0512
:102BE000898301E0670110E0C6018E199F098017F3
:102BF00091070CF056C060E0F60181916F010E94D0
:102C0000C60B882389F18091160563EB74E081116E
:102C100036C061960FB6F894DEBF0FBECDBFDF9110
:102C2000CF911F910F91FF90EF90DF90CF90BF90C9
:102C3000AF909F908F90089560E173E0C4010023EE
:102C400011F090E080E0C0D695014EE150E061E0E7
:102C500070E09ADB8111DDCF8889F60181936F01E5
:102C60000F5F0F3049F7BECF88E00E94970B882393
:102C700059F0809116056AE974E0882351F28DE6D7
:102C800095E00E94B50AC5CF0E94BB0B882309F4CA
:102C9000ABCF809116056EE774E0882309F4B9CFB5
:102CA000EECF82E00E94D60880911605882309F4B1
:102CB000B0CF65E674E0E3CFCF93DF931F921F920E
:102CC000CDB7DEB7009779F19E012F5F3F4F43E00C
:102CD00050E070E060E058DB81112BC089819A815F
:102CE000892B81F080911605882361F061E772E0FD
:102CF0008DE695E00E94B50A6AE372E08DE695E004
:102D00000E94B50A898180932105833010F41092C6
:102D10008F0480911605882361F06EE272E08DE6E3
:102D200095E00E943506609121058DE695E00E94B0
:102D3000900A0F900F90DF91CF910895CF93DF937A
:102D40001F921F92CDB7DEB7009711F19E012F5F42
:102D50003F4F4FEF50E070E060E016DB811113C091
:102D600089818093240580911605882361F061E1B3
:102D700072E08DE695E00E94350669817A818DE6E4
:102D800095E00E947C0A0F900F90DF91CF910895FB
:102D900060912405062E000C770B8DE695E00E94CD
:102DA000400AF1CFCF93DF931F921F92CDB7DEB7CA
:102DB000009769F19E012F5F3F4F41E050E070E0C6
:102DC00060E0E2DA81111EC081E029813A81232B83
:102DD00009F480E08093190580911605882391F00D
:102DE00064EF71E08DE695E00E94350689819A8155
:102DF00069E573E0892B11F06DE473E08DE695E0F1
:102E00000E94A50A0F900F90DF91CF9108956091D5
:102E1000190570E08DE695E00E94400AF3CFCF934C
:102E2000DF931F921F92CDB7DEB70097E9F19E01A5
:102E30002F5F3F4F41E050E070E060E0A5DA811184
:102E40001CC089819A810097E9F0019719F180915E
:102E50001605882391F06CED71E08DE695E00E94F7
:102E6000350689819A8165E873E0892B11F06AE75C
:102E700073E08DE695E00E94A50A0F900F90DF9118
:102E8000CF91089581E080931B0586E00E94D608CB
:102E90008FB1DDCF82E080931B0581E00E94D608D0
:102EA0008FB10E94F80CD3CF60911B056150770B56
:102EB0008DE695E00E94400AE0CFCF93DF931F920A
:102EC0001F92CDB7DEB7009769F19E012F5F3F4F8C
:102ED00041E050E070E060E057DA81111EC081E00F
:102EE00029813A81232B09F480E080931A0580918F
:102EF0001605882391F068EC71E08DE695E00E945C
:102F0000350689819A8169E573E0892B11F06DE4BA
:102F100073E08DE695E00E94A50A0F900F90DF9177
:102F2000CF91089560911A0570E08DE695E00E94BA
:102F3000400AF3CFCF93DF931F921F92CDB7DEB736
:102F4000009711F19E012F5F3F4F43E050E070E08A
:102F500060E01ADA811113C0898180931F05809186
:102F60001605882361F06BEB71E08DE695E00E9419
:102F7000350669817A818DE695E00E947C0A0F9082
:102F80000F90DF91CF91089560911F058DE695E038
:102F90000E94900AF4CFCF93DF931F921F92CDB778
:102FA000DEB7009771F19E012F5F3F4F40E05DE774
:102FB00061E070E0E9D981111FC089819A81909305
:102FC000230580932205809116058823A9F064EAE1
:102FD00071E08DE695E00E94350649815A8170E0E6
:102FE00060E02AE08DE695E00E94F20966E971E072
:102FF0008DE695E00E94B50A0F900F90DF91CF917A
:10300000089560912205709123058DE695E00E9458
:10301000400AF2CFCF93DF931F921F92CDB7DEB756
:10302000009709F460C060E173E0CED49E012F5F89
:103030003F4F4EE150E061E070E0A6D9811113C02E
:1030400089819A8120911C052817190689F40E940C
:10305000380D80911605882331F06AE571E08DE620
:1030600095E00E94B50A0F900F90DF91CF910895DF
:1030700080931D0580911605882361F06AE371E055
:103080008DE695E00E94350669817A818DE695E0AE
:103090000E947C0A10921E051A82198260E173E078
:1030A00090E080E091D40097F1F29E012F5F3F4FB6
:1030B0004EE750E060E670E067D98111D4CF898196
:1030C00080931E0580911605882369F26CE873E0F1
:1030D0008DE695E00E94E30969817A818DE695E0AD
:1030E0000E947C0AC0CF40911D0550E070E060E076
:1030F0002AE08DE695E00E94F20980911E05882362
:1031000081F068E371E08DE695E00E94350640911C
:103110001E0550E070E060E02AE08DE695E00E9438
:10312000F2098DE695E00E943D0A9DCFCF93DF9393
:10313000CDB7DEB7C054D1090FB6F894DEBF0FBECD
:10314000CDBFFC0101900020E9F73197AF01481B8A
:10315000590BFE0137962AE3DF011D922A95E9F704
:1031600027E0EEEAF3E0DE01119601900D922A9538
:10317000E1F75527BC01CE010196C9D4CE010196D5
:103180000E943710C05CDF4F0FB6F894DEBF0FBE51
:10319000CDBFDF91CF9108951F920F920FB60F927E
:1031A00011240BB60F922F933F934F935F936F931E
:1031B0007F938F939F93AF93BF93EF93FF938DE68E
:1031C00095E00E94CC06FF91EF91BF91AF919F9146
:1031D0008F917F916F915F914F913F912F910F90C0
:1031E0000BBE0F900FBE0F901F9018951F920F925D
:1031F0000FB60F9211240BB60F922F938F939F93BC
:10320000EF93FF93E0917D05F0917E058081E09141
:103210008305F091840582FD1DC090818091860513
:103220008F5F8F7320918705821741F0E0918605AB
:10323000F0E0E359FA4F958F80938605FF91EF9167
:103240009F918F912F910F900BBE0F900FBE0F90FB
:103250001F9018958081F2CF1F920F920FB60F9298
:1032600011242F933F938F939F93AF93BF9380919C
:10327000830490918404A0918504B09186043091D8
:10328000820423E0230F2D3758F50196A11DB11DAF
:10329000209382048093830490938404A0938504F4
:1032A000B09386048091870490918804A09189044A
:1032B000B0918A040196A11DB11D8093870490935B
:1032C0008804A0938904B0938A04BF91AF919F9121
:1032D0008F913F912F910F900FBE0F901F901895D7
:1032E00026E8230F0296A11DB11DD2CFEDE6F5E031
:1032F0001382128288EE93E0A0E0B0E0848395838D
:10330000A683B78383EE92E09183808385EC90E07F
:103310009587848784EC90E09787868780EC90E09F
:10332000918B808B81EC90E0938B828B82EC90E090
:10333000958B848B86EC90E0978B868B118E128E0A
:10334000138E148E0895CF93DF93CDB7DEB7C15897
:10335000D1090FB6F894DEBF0FBECDBF789484B507
:10336000826084BD84B5816084BD85B5826085BD81
:1033700085B5816085BD80916E00816080936E000F
:103380001092810080918100826080938100809101
:1033900081008160809381008091800081608093B2
:1033A00080008091B10084608093B1008091B00072
:1033B00081608093B0008091910082608093910041
:1033C0008091910081608093910080919000816054
:1033D000809390008091A10082608093A1008091F1
:1033E000A10081608093A1008091A0008160809302
:1033F000A0008091210182608093210180912101B0
:10340000816080932101809120018160809320015F
:1034100080917A00846080937A0080917A00826043
:1034200080937A0080917A00816080937A00809105
:103430007A00806880937A001092C1000FB6F894E9
:10344000A895809160008861809360001092600070
:103450000FBEE1EBFAE02491EBE6FAE084918823D9
:1034600099F090E0880F991FFC01EC5BF54FA59156
:10347000B491FC01E65DF54F859194918FB7F89476
:10348000EC91E22BEC938FBF60E08DE00E94180876
:103490000E94650DE0917D05F0917E0582E08083BC
:1034A000E0917905F0917A051082E0917B05F09129
:1034B0007C0580E1808310928505E0918105F09183
:1034C000820586E08083E0917F05F0918005808110
:1034D00080618083E0917F05F09180058081886024
:1034E0008083E0917F05F0918005808180688083F2
:1034F000E0917F05F091800580818F7D80830E941F
:1035000084091A8219828E010F5F1F4FC8010E9421
:10351000D20989819A81019669F1C8010E94D20974
:1035200069E1C62E65E0D62E72E0E72EF12CC701C8
:1035300092D2D6018D936D01BFEFEB1AFB0AE6E53F
:10354000EE16F104A1F70E94000629813A81821744
:10355000930781F0F12CE12C6FEFC70184D2FFEFCC
:10356000EF1AFF0AE11422E0F206B1F70E94840983
:103570000E94950980911B05813021F486E00E940C
:10358000D6088FB180911B05823031F481E00E9412
:10359000D6088FB10E94F80C1092930410929204F6
:1035A00096E0792E20E2622E30E4532E43E0442E42
:1035B0005FE0A52EB12C8BE00E94F00721E0892B63
:1035C00009F020E0209393048AE00E94F00721E0B4
:1035D000892B09F020E02093920480911505813019
:1035E00009F061C0E0909104F12CA70165E974E055
:1035F000C80171D20E94650D10921505F801C7012E
:1036000002979F01201B310B281739071CF42281D8
:103610002193F7CF800F911FDC011C92FE01EE0D6C
:10362000FF1D108280911605882321F08DE695E01C
:103630000E943D0A8981882389F18D3079F18A3091
:1036400069F160E173E0C801BFD17C0181E0882E9F
:1036500082E0982ED12CC12CB701F4018081918198
:1036600043D2892B09F44EC1FFEFCF1ADF0A26E0BF
:10367000820E911C85E2C816D10471F70E94380DA4
:103680000DC0D7010D900020E9F7CD010480F58130
:10369000E02D2C91222309F44BC019958091160539
:1036A00081110E94530D80911B05823081F580911C
:1036B00015058230B1F4809191040E946F0D8091C4
:1036C0002105813011F40E94F80E8091210582308D
:1036D00041F480911805882321F00E94F80E109281
:1036E000180580919204882349F0809190048823E2
:1036F00029F090E080E0F6D81092920480912105A4
:10370000833029F480918F0481110E94F80E8091FA
:103710001B058130E9F480918E04882361F080914B
:1037200015058230A9F4809191040E946F0D10C09C
:1037300090E080E0B2CFE0909404EE2009F443C022
:103740000E94F80E80911505823011F40E94650DDB
:1037500080918D04882369F180916C05813031F46A
:1037600068E575E08DE695E00E94A50A80916C05FC
:103770008230E9F468E575E08DE695E00E94E309A2
:1037800066EB73E08DE695E00E94E30940916805E1
:103790005091690560916A0570916B052AE08DE68C
:1037A00095E00E94F2098DE695E00E943D0A109294
:1037B0008D040E94490E80931505C5010197F1F70C
:1037C0000E945907F8CEF0909304FF2009F4A7CF88
:1037D000CF57DF4F1882C158D040198288E00E942D
:1037E000D608D12CC12C912C8BE00E94F007892B9C
:1037F00041F5B801CE018F579F4F0E94280B8111D0
:10380000F3CF90911D05CF57DF4F8881C158D0402D
:10381000282F2625921301C0EF2C282F252592133F
:1038200001C09F2C883149F0893149F08F33E1F68E
:1038300010928C0440928B04D7CFCF2CD5CFDF2CA5
:10384000D3CFE1100E94F80E992009F442C0CC2099
:1038500009F44FC080911605882331F06BE47BE0BA
:103860008DE695E00E94B50A80911605882361F0E7
:103870006EE07BE08DE695E00E94350660912005C4
:103880008DE695E00E94900A89E00E94D60880911A
:1038900020050E94C50A87E00E94D608809116057F
:1038A000882331F06EE37BE08DE695E00E94B50A57
:1038B000809120058F7B809320050E947109809163
:1038C0001605882391F064E27BE08DE695E00E9486
:1038D000B50ADD2051F080911605882331F06BE7A1
:1038E0007BE08DE695E00E94B50A87E00E94D6084D
:1038F00016CF80911505823061F7809191040E9466
:103900006F0DE7CF7C9CF0017D9CF00D1124EF5FE3
:10391000FD4F80911B0590E0228133818223932308
:10392000892B09F0AECE0E94380D809116058823B0
:1039300009F4B9CE6AEE7AE08DE695E00E94B50A08
:10394000ADCEFC0188279927E89421912032E9F334
:10395000293010F02E30C8F32B3239F02D3231F4EB
:10396000689403C070D0820F911D219120532A309A
:10397000C8F31EF4909581959F4F08951F93FC0105
:1039800099278827BC01E89411911032E9F3193086
:1039900010F01E30C8F31B3249F01D3241F4689418
:1039A00005C03CD0610F711D811D911D11911053F7
:1039B0001A30B8F33EF490958095709561957F4FDD
:1039C0008F4F9F4F1F9108954AE056E000C0FA01C3
:1039D000A191B081009719F41097E1F0CD01DC01BD
:1039E000CD010D90002011F4C00113C0FB01219105
:1039F000222319F02015D9F7F3CFFB0121912015CF
:103A000019F41E92119606C02223C1F70D900020D2
:103A1000A1F7D001FA01A193B0830895592F482F3F
:103A2000372F262F660F771F881F991F660F771F66
:103A3000881F991F620F731F841F951F660F771FC2
:103A4000881F991F08957AE0979F902D879F802D5A
:103A5000910D11240895F999FECF92BD81BDF89A78
:103A6000992780B50895262FF999FECF1FBA92BDE8
:103A700081BD20BD0FB6F894FA9AF99A0FBE01964F
:103A80000895A1E21A2EAA1BBB1BFD010DC0AA1F9F
:103A9000BB1FEE1FFF1FA217B307E407F50720F0B7
:103AA000A21BB30BE40BF50B661F771F881F991F32
:103AB0001A9469F760957095809590959B01AC017B
:103AC000BD01CF010895EE0FFF1F881F8BBF079028
:103AD000F691E02D1994FB01DC0102C001900D92DA
:103AE00041505040D8F70895FB01DC018D9181349D
:103AF0001CF08B350CF4805E619161341CF06B35E9
:103B00000CF4605E861B611189F3990B0895FB012B
:103B1000DC010D900020E9F711974150504028F04A
:103B2000019000200D92C9F708951C920895FB01A1
:103B3000DC014150504030F08D910190801919F412
:103B40000020B9F7881B990B0895FB01DC01415057
:103B5000504048F001900D920020C9F701C01D921D
:103B600041505040E0F708950F931F93CF93DF9398
:103B7000CDB7DEB72E970FB6F894DEBF0FBECDBF20
:103B80000E891F89888D998D26E02C831A830983DD
:103B900097FF02C080E090E801979E838D83AE017D
:103BA000445E5F4F6A8D7B8DCE01019619D04D81A9
:103BB0005E8157FD0AC02F813885421753070CF4E8
:103BC0009A01020F131FF80110822E960FB6F89477
:103BD000DEBF0FBECDBFDF91CF911F910F91089532
:103BE0002F923F924F925F926F927F928F929F920D
:103BF000AF92BF92CF92DF92EF92FF920F931F93FB
:103C0000CF93DF9300D000D000D01F921F92CDB78A
:103C1000DEB77C013B018A01FC0117821682838199
:103C200081FFD0C1CE0101965C01F7019381F301C0
:103C300093FD859193FF81913F01882309F449C148
:103C4000853239F493FD859193FF81913F0185324F
:103C500021F4B70190E0CFD1E8CF912C212C312C69
:103C6000FFE1F31538F08B3211F190F4803209F155
:103C7000833229F137FC3CC020ED280F2A3050F563
:103C800036FE20C08AE0989E200D1124922E06C098
:103C90008D3291F0803371F7689430F8F30193FD21
:103CA000859193FF81913F018111DACF21C0689402
:103CB00031F8689432F8F2CF689433F8EFCF689413
:103CC00034F8ECCFEAE02E9E200D1124222E6894C9
:103CD00035F8E4CF8E3229F436FCFBC0689436F810
:103CE000DDCF8C3619F4689437F8D8CF8836B1F226
:103CF000982F9F7D95549330D8F0833691F1833778
:103D0000B1F1833509F05EC02801F2E04F0E511C7D
:103D1000F801C080D180692D70E036FC02C06FEFE1
:103D20007FEFC60152D14C01689437F882010AC076
:103D30000C5F1F4FFFE3F98388248394912C650166
:103D4000E89437F833FE2AC0522C8114910459F5B7
:103D5000552009F46ACFB70180E290E04CD15A9423
:103D6000F7CFF801808189830E5F1F4FE5CF2801CF
:103D7000F2E04F0E511CF801C080D180692D70E037
:103D800036FC02C06FEF7FEFC6012AD14C018201E1
:103D9000D7CFB70180E290E02ED12A9428141904DD
:103DA00009F0B8F7D1CFF60137FC859137FE819144
:103DB0006F01B70190E01FD151105A94F1E08F1AB2
:103DC0009108C3CF843619F0893609F073C0F80121
:103DD00037FE67C060817181828193810C5F1F4FC4
:103DE000F32DFF763F2E97FF09C090958095709533
:103DF00061957F4F8F4F9F4F689437F82AE030E0EE
:103E0000A50129D1C82ECA188C2C432C36FE0CC013
:103E1000E89440F8C91440F434FE05C032FC03C0F5
:103E2000F32DFE7E4F2E892C44FEA6C0FE01EC0D24
:103E3000F11D8081803309F098C0242D297E422E07
:103E4000842D8870582E43FCA5C040FE9FC09C2C3A
:103E5000821418F42C0C922C981844FEA1C0B701BF
:103E600080E390E0C8D042FE08C088E790E041FEC1
:103E700002C088E590E0B701BED0C91408F49CC028
:103E8000CA94D12C9FEFC91AD90ACA0CDB1CF601BF
:103E900082916F01B70190E0AED0AC14BD04B9F7C8
:103EA00057CF60817181072E000C880B990B0E5F34
:103EB0001F4F96CFD32CE894D4F82AE030E0853712
:103EC000E1F1232D297FD22E8F36A9F1F0F4883528
:103ED00051F1F701868197812B960FB6F894DEBFDA
:103EE0000FBECDBFDF91CF911F910F91FF90EF904B
:103EF000DF90CF90BF90AF909F908F907F906F900A
:103F00005F904F903F902F900895803749F0883709
:103F100001F7D4FE02C06894D2F820E130E00DC071
:103F20006894D4F8F6CF34FE03C0822F8660D82E72
:103F300020E132E002C028E030E0F801D7FE0EC0F8
:103F400060817181828193810C5F1F4FA50183D0B5
:103F5000C82ECA183D2CE89437F856CF608171817D
:103F600090E080E00E5F1F4FF1CF42FC02C08394CF
:103F700067CF8394839464CF842D867809F460CFCF
:103F8000F6CFB70180E290E036D083948214C8F374
:103F9000512C63CF522C5818821408F45ECFF8CFFE
:103FA000842D867809F469CF8BE241FE80E247FCDC
:103FB0008DE2B70190E060CFB70180E390E01BD0C5
:103FC0009A945BCF8FEF9FEF87CFFC0105906150F4
:103FD00070400110D8F7809590958E0F9F1F08951F
:103FE000FC016150704001900110D8F780959095C8
:103FF0008E0F9F1F08950F931F93CF93DF93182F5A
:10400000092FEB018B8181FD09C01FEF0FEF812F7D
:10401000902FDF91CF911F910F91089582FF14C0CF
:104020002E813F818C819D81281739073CF4E881DE
:10403000F981CF0101969983888310838E819F81B6
:1040400001969F838E83E3CFE885F985812F1995AB
:10405000892BA1F3DACFFA01AA27283051F12031B8
:1040600081F1E8946F936E7F6E5F7F4F8F4F9F4F0C
:10407000AF4FB1E03ED0B4E03CD0670F781F891F4E
:104080009A1FA11D680F791F8A1F911DA11D6A0F1C
:10409000711D811D911DA11D20D009F468943F91CF
:1040A0002AE0269F11243019305D3193DEF6CF01CE
:1040B0000895462F4770405D4193B3E00FD0C9F794
:1040C000F6CF462F4F70405D4A3318F0495D31FD01
:1040D0004052419302D0A9F7EACFB4E0A695979554
:1040E000879577956795BA95C9F70097610571052A
:1040F00008959B01AC010A2E069457954795379574
:104100002795BA95C9F7620F731F841F951FA01DCD
:064110000895F894FFCFB2
:1041160001B80303000A18BD030200C315550402C3
:10412600005C16C6030200120DCA030200AA0CCEDA
:1041360003030094092C0303005D17D6030300B79D
:1041460013DA0303009A17DE0303009E16E7030340
:1041560000D216F2030200F80CF60303003710F93A
:104166000303000512FD030200E40D010402008EA4
:104176000D05040100EE13090402005B0D0F040394
:10418600000F1714040200850C1A04020087111F81
:10419600040200CB172B04020073132F04020079CC
:1041A6001236040300C50C3A040200C6153E040389
:1041B60000BA0C460403009618C003020072144E9F
:1041C600040200710A52040200F6125A0401003079
:1041D60014610401003213650403002F0E69040301
:1041E600003D0D71040300481277040300251100F9
:1041F600000000EE06590686063A07B7069506A998
:10420600060D0A00566572626F73653A20003E20FD
:1042160000616C6C007265616C002A69646E3F0017
:10422600200900766572737472006E616D650073A5
:10423600657269616C002530396C7500656F6900BF
:1042460044697361626C656400456E61626C6564A5
:10425600000A0D00535251206175746F204F4E00B5
:10426600535251206175746F204F46460052454E99
:104276002061737365727465640052454E20756ED5
:104286002D617373657274656400434F4E54524FCB
:104296004C4C4552004445564943450053657420ED
:1042A600646576696365207365636F6E64617279B0
:1042B600206164647265737320746F3A20007665BA
:1042C6007273747220002D006164647200616C6CFC
:1042D60073706F6C6C00636C720064636C00646571
:1042E6006661756C7400656F7200656F7300656F4B
:1042F600745F6368617200656F745F656E61626C9E
:1043060065006966630069640069646E006C6C6FC1
:10431600006C6F63006C6F6E006D6163726F006D91
:104326006F64650070706F6C6C007265616400721A
:104336006561645F746D6F5F6D730072656E0072A8
:1043460065706561740072737400747267007361DE
:10435600766563666700736574767374720073724C
:1043660071007372716175746F0073746174757323
:1043760000746F6E0076657200766572626F7365A3
:0E43860000746D6275730078646961670000F1
:020000023000CC
:10E000000D9489F10D94B2F10D94B2F10D94B2F129
:10E010000D94B2F10D94B2F10D94B2F10D94B2F1F0
:10E020000D94B2F10D94B2F10D94B2F10D94B2F1E0
:10E030000D94B2F10D94B2F10D94B2F10D94B2F1D0
:10E040000D94B2F10D94B2F10D94B2F10D94B2F1C0
:10E050000D94B2F10D94B2F10D94B2F10D94B2F1B0
:10E060000D94B2F10D94B2F10D94B2F10D94B2F1A0
:10E070000D94B2F10D94B2F10D94B2F10D94B2F190
:10E080000D94B2F10D94B2F10D94B2F10D94B2F180
:10E090000D94B2F10D94B2F10D94B2F10D94B2F170
:10E0A0000D94B2F10D94B2F10D94B2F10D94B2F160
:10E0B0000D94B2F10D94B2F10D94B2F10D94B2F150
:10E0C0000D94B2F10D94B2F10D94B2F10D94B2F140
:10E0D0000D94B2F10D94B2F10D94B2F10D94B2F130
:10E0E0000D94B2F141546D656761323536300041AF
:10E0F000726475696E6F206578706C6F72657220DE
:10E1000073746B3530305632206279204D4C530099
:10E11000426F6F746C6F616465723E004875683F52
:10E1200000436F6D70696C6564206F6E203D200048
:10E130004350552054797065202020203D20005FF9
:10E140005F4156525F415243485F5F3D2000415658
:10E1500052204C696243205665723D20004743437C
:10E160002056657273696F6E203D20004350552024
:10E1700049442020202020203D20004C6F7720663D
:10E18000757365202020203D20004869676820665F
:10E190007573652020203D200045787420667573D6
:10E1A00065202020203D20004C6F636B2066757336
:10E1B000652020203D20004D617220203720323024
:10E1C000313300312E362E3800342E332E350056A2
:10E1D00023202020414444522020206F7020636F70
:10E1E00064652020202020696E73747275637469E1
:10E1F0006F6E2061646472202020496E74657272B3
:10E20000757074006E6F20766563746F7200726A49
:10E210006D702020006A6D70200057686174207056
:10E220006F72743A00506F7274206E6F7420737541
:10E2300070706F72746564004D7573742062652030
:10E2400061206C6574746572002000577269747483
:10E25000696E672045450052656164696E672045B7
:10E26000450045452065727220636E743D00504F35
:10E27000525400303D5A65726F2061646472003FF1
:10E280003D43505520737461747300403D454550C3
:10E29000524F4D207465737400423D426C696E6B41
:10E2A000204C454400453D44756D70204545505215
:10E2B0004F4D00463D44756D7020464C415348001B
:10E2C000483D48656C70004C3D4C69737420492F83
:10E2D0004F20506F72747300513D51756974005234
:10E2E0003D44756D702052414D00563D73686F7707
:10E2F00020696E7465727275707420566563746FF0
:10E30000727300593D506F727420626C696E6B00BD
:10E310002A0011241FBECFEFD1E2DEBFCDBF01E046
:10E320000CBF12E0A0E0B2E0EEE1FDEF03E00BBFB6
:10E3300002C007900D92A030B107D9F712E0A0E01B
:10E34000B2E001C01D92AE30B107E1F70F9460F367
:10E350000D948DFE01E20EBF0FEF0DBF11241FBE05
:10E360000D9460F30D9400F020E030E040ED57E0B4
:10E3700005C0FA013197F1F72F5F3F4F2817390792
:10E38000C0F308959C01260F311DC901A0E0B0E043
:10E390002F5F3F4FABBFFC018791882361F08093D3
:10E3A000C6008091C00086FFFCCF8091C0008064D1
:10E3B0008093C000EACF08958DE08093C6008091DD
:10E3C000C00086FFFCCF8091C00080648093C000B5
:10E3D0008AE08093C6008091C00086FFFCCF8091C8
:10E3E000C00080648093C00008950F94C2F10F9420
:10E3F000DCF10895FC019081992359F09093C600B7
:10E400008091C00086FFFCCF8091C0008064809323
:10E41000C0003196992379F70895282F982F929567
:10E420009F70892F805D8A3308F0895F8093C600D2
:10E430008091C00086FFFCCF8091C00080648093F3
:10E44000C000822F8F70982F905D9A3308F0995FEB
:10E450009093C6008091C00086FFFCCF8091C000E1
:10E4600080648093C00008959C01FB01853691056E
:10E470001CF46330710594F0C90164E670E00F94F8
:10E480002EFE605D7F4F6093C6008091C00086FFC6
:10E49000FCCF8091C00080648093C0002B30310598
:10E4A00014F43297B4F0C90164E670E00F942EFEC4
:10E4B0006AE070E00F942EFE605D7F4F6093C600AF
:10E4C0008091C00086FFFCCF8091C0008064809363
:10E4D000C000C9016AE070E00F942EFEC0968093E0
:10E4E000C6008091C00086FFFCCF8091C000806490
:10E4F0008093C00008951F93182F8EE692EE60E07F
:10E500000F94C2F11093C6008091C00086FFFCCF2B
:10E510008091C00080648093C0000F94DCF11F9153
:10E5200008952F923F924F925F926F927F928F92B7
:10E530009F92AF92BF92CF92DF92EF92FF920F9392
:10E540001F93DF93CF93CDB7DEB762970FB6F894E2
:10E55000DEBF0FBECDBF382E622ECA01DB015C01CB
:10E560006D01772420E2222E2E010894411C511CBB
:10E570008BC081E0A81680E0B80681E0C80680E084
:10E58000D80628F0C601AA27BB270F940DF2BB2797
:10E59000AD2D9C2D8B2D0F940DF28A2D0F940DF225
:10E5A0002092C6008091C00086FFFCCF8091C00001
:10E5B00080648093C0009DE29093C6008091C0006B
:10E5C00086FFFCCF8091C00080648093C0002092C1
:10E5D000C6008091C00086FFFCCF8091C00080649F
:10E5E0008093C00019828601750188249924A1E0D6
:10E5F0003A1651F03A1620F0B2E03B1661F409C029
:10E600000BBFF701779007C0C7010F9477FE782EF4
:10E6100002C0F7017080872D0F940DF22092C60082
:10E620008091C00086FFFCCF8091C0008064809301
:10E63000C000872D8052F401EF70F0708F3520F408
:10E64000E40DF51D708204C0E40DF51D8EE280839B
:10E650000894E11CF11C011D111D0894811C911CE2
:10E6600090E18916910409F0C2CF80E190E0A0E02A
:10E67000B0E0A80EB91ECA1EDB1E198AC2010F9493
:10E68000FAF10F94DCF16A94662009F072CF629679
:10E690000FB6F894DEBF0FBECDBFCF91DF911F91B3
:10E6A0000F91FF90EF90DF90CF90BF90AF909F9031
:10E6B0008F907F906F905F904F903F902F90089534
:10E6C0002F923F924F925F926F927F928F929F9282
:10E6D000AF92BF92CF92DF92EF92FF920F931F9370
:10E6E000DF93CF93CDB7DEB7CD53D1400FB6F894BB
:10E6F000DEBF0FBECDBF01E20EBF0FEF0DBF94B75F
:10E70000F894A89514BE80916000886180936000A1
:10E7100010926000789493FF05C0E0910002F091A0
:10E7200001021995279A2F9A8091C00082608093E8
:10E73000C00080E18093C40088E18093C1000000A4
:10E74000EE24FF24870144E0A42EB12CCC24DD2448
:10E7500024C0C5010197F1F70894E11CF11C011DCB
:10E76000111D21E2E2162EE4F20620E0020720E06D
:10E77000120718F031E0C32ED12CC801B70127ECE5
:10E780003BE140E050E00F9441FE611571058105C9
:10E79000910519F485B1805885B98091C00087FD35
:10E7A00003C0C114D104A9F2A6014F5F5F4FC25E3E
:10E7B000DE4F59834883CE51D140C25EDE4F8881FF
:10E7C0009981CE51D140019711F00D9410FEC05D9A
:10E7D000DE4F19821882C053D14060E0C15DDE4F28
:10E7E0001882CF52D14088249924C35DDE4F19820C
:10E7F0001882CD52D140C05EDE4F188219821A8233
:10E800001B82C052D140CE5CDE4F188219821A8220
:10E810001B82C253D140EE24FF2487010BBFF701B6
:10E8200007911691C45CDE4F19830883CC53D14005
:10E830000D940BFEC25EDE4F28813981CE51D1404E
:10E840002130310509F52091C600C25EDE4F1982E4
:10E850001882CE51D14022C02F5F3F4F4F4F5F4FA4
:10E86000213082E138078AE7480780E0580780F0C6
:10E87000C45CDE4FE881F981CC53D140EF5FFF4F9C
:10E8800019F0EE27FF27099420E030E040E050E047
:10E890008091C00087FFE0CF2091C600C35DDE4FAE
:10E8A00048815981CD52D1404F5F5F4FC35DDE4FEC
:10E8B00059834883CD52D140213209F063C64A3092
:10E8C000510508F05FC60894811C911C53E0851621
:10E8D000910409F059C600E010E018C081E280936D
:10E8E000C6008091C00086FFFCCF8091C00080648C
:10E8F0008093C0002F5F3F4F2931310579F70F9486
:10E90000DCF10F5F1F4F0530110519F020E030E0FA
:10E91000E5CF10920A0210920B0210920C02109294
:10E920000D02109206021092070210920802109235
:10E930000902109202021092030210920402109235
:10E9400005028FEE90EE60E00F94F5F180E191EE1C
:10E9500060E00F94C2F18091C00087FFFCCF9091DE
:10E96000C600903608F09F759032B8F09093C600BC
:10E970008091C00086FFFCCF8091C00080648093AE
:10E98000C000A0E2A093C6008091C00086FFFCCF2B
:10E990008091C00080648093C000983409F4D7C18E
:10E9A0009934B8F4923409F459C1933458F490333B
:10E9B00019F1903308F4E3C59F33A1F1903409F0C5
:10E9C000DEC5BDC0953409F470C1963409F0D7C5D1
:10E9D00098C1923509F42BC2933538F49C3409F46C
:10E9E000F5C1913509F0CBC518C2963509F445C279
:10E9F000993509F0C4C567C483E792EE62E00F94CD
:10EA0000F5F110920602109207021092080210927D
:10EA1000090210920A0210920B0210920C0210923C
:10EA20000D0213C18FE792EE62E00F94F5F18FEEC5
:10EA300090EE60E00F94F5F181E291EE60E00F94CA
:10EA4000C2F187EB91EE60E00F94F5F180E391EE77
:10EA500060E00F94C2F184EE90EE60E00F94F5F167
:10EA60008FE391EE60E00F94C2F186E090E061E008
:10EA700070E00F9434F20F94DCF18DE591EE60E0DC
:10EA80000F94C2F189EC91EE60E00F94F5F18EE401
:10EA900091EE60E00F94C2F183EC91EE60E00F9490
:10EAA000F5F18CE691EE60E00F94C2F18EE10F94E7
:10EAB0000DF288E90F940DF281E00F940DF20F949E
:10EAC000DCF18BE791EE60E00F94C2F119E0E0E039
:10EAD000F0E010935700E4918E2F0F940DF20F94F5
:10EAE000DCF18AE891EE60E00F94C2F1E3E0F0E03F
:10EAF00010935700E4918E2F0F940DF20F94DCF1D8
:10EB000089E991EE60E00F94C2F1E2E0F0E0109349
:10EB10005700E4918E2F0F940DF20F94DCF188EAE8
:10EB200091EE60E00F94C2F1E1E0F0E01093570045
:10EB30001491812F0F940DF20F94DCF107CF8BE825
:10EB400092EE62E00F94F5F18BE492EE60E00F94A8
:10EB5000F5F10F94DCF100E010E019C0C8016F2D51
:10EB60000F947FFEFF2031F489E492EE60E00F9471
:10EB7000C2F10BC0F092C6008091C00086FFFCCFAE
:10EB80008091C00080648093C0000F5F1F4FC80158
:10EB900081519F41A0E0B0E0ABBFFC01F790BAE229
:10EBA000FB1621F0E2E000301E07C1F60F94DCF105
:10EBB0000F94DCF187E592EE60E00F94F5F10F948D
:10EBC000DCF1CC24DD2400E010E01EC0C8010F946D
:10EBD00077FEF82E882331F489E492EE60E00F94FA
:10EBE000C2F10BC08093C6008091C00086FFFCCFAD
:10EBF0008091C00080648093C000FE1419F00894D6
:10EC0000C11CD11C0F5F1F4FC80181519F41A0E063
:10EC1000B0E0ABBFFC01E790FAE2EF1621F022E092
:10EC20000030120799F60F94DCF10F94DCF182E6C4
:10EC300092EE60E00F94C2F1C60161E070E00F94C3
:10EC400034F20F94DCF10F94DCF110920202109276
:10EC50000302109204021092050278CE89E992EE26
:10EC600062E00F94F5F1279A2F9A16C02F9880E052
:10EC700090E0E0EDF7E03197F1F7019684369105E9
:10EC8000C1F72F9A80E090E0E0EDF7E03197F1F7DF
:10EC9000019684369105C1F78091C00087FFE6CFC9
:10ECA0008091C00087FFFCCF64C485EA92EE62E0E9
:10ECB0000F94F5F140910202509103026091040219
:10ECC0007091050281E020E10F9491F2809102029F
:10ECD00090910302A0910402B091050280509F4FD1
:10ECE000AF4FBF4F8093020290930302A0930402A0
:10ECF000B093050280509041A040B04008F426CE69
:10ED0000A4CF83EB92EE62E00F94F5F140910602FE
:10ED100050910702609108027091090280E020E1A1
:10ED20000F9491F28091060290910702A09108023F
:10ED3000B091090280509F4FAF4FBF4F80930602A2
:10ED400090930702A0930802B0930902FFCD80ECD4
:10ED500092EE62E00F94F5F183E792EE60E00F949B
:10ED6000F5F18FE792EE60E00F94F5F18BE892EE0B
:10ED700060E00F94F5F189E992EE60E00F94F5F10F
:10ED800085EA92EE60E00F94F5F183EB92EE60E09D
:10ED90000F94F5F180EC92EE60E00F94F5F187ECC2
:10EDA00092EE60E00F94F5F188ED92EE60E00F9442
:10EDB000F5F18FED92EE60E00F94F5F18AEE92EEB0
:10EDC00060E00F94F5F183E093EEBDCD87EC92EE19
:10EDD00062E00F94F5F181E40F947BF282E40F94EA
:10EDE0007BF283E40F947BF284E40F947BF285E45E
:10EDF0000F947BF286E40F947BF287E40F947BF20E
:10EE000088E40F947BF28AE40F947BF28BE40F94F6
:10EE10007BF28CE40F947BF299CD88ED92EE62E068
:10EE20000F94F5F1772473948824992409C48FED05
:10EE300092EE62E00F94F5F140910A0250910B02BC
:10EE400060910C0270910D0282E020E10F9491F22A
:10EE500080910A0290910B02A0910C02B0910D02D8
:10EE600080509F4FAF4FBF4F80930A0290930B0289
:10EE7000A0930C02B0930D0269CD8AEE92EE62E08F
:10EE80000F94F5F184EE90EE60E00F94F5F18FECC5
:10EE900091EE60E00F94F5F1662477244301CC5D98
:10EEA000DE4F19821882C452D140D401C301B695F5
:10EEB000A79597958795CA5DDE4F88839983AA8326
:10EEC000BB83C652D140CC5DDE4FA881B981C4520C
:10EED000D1401196CC5DDE4FB983A883C452D14096
:10EEE000CD0162E070E00F9434F2B0E2B093C6005E
:10EEF0008091C00086FFFCCF8091C0008064809329
:10EF0000C000EDE2E093C6008091C00086FFFCCF18
:10EF10008091C00080648093C000F0E2F093C6004E
:10EF20008091C00086FFFCCF8091C00080648093F8
:10EF3000C000CA5DDE4FE880F9800A811B81C6529D
:10EF4000D140BB27A12F902F8F2D0F940DF2CA5DBA
:10EF5000DE4F8881C652D1400F940DF2B0E2FB2EF5
:10EF6000F092C6008091C00086FFFCCF8091C00067
:10EF700080648093C0000DE30093C6008091C000C0
:10EF800086FFFCCF8091C00080648093C00010E2B7
:10EF90001093C6008091C00086FFFCCF8091C00016
:10EFA00080648093C0008BBEF3012791C65DDE4F65
:10EFB0002883CA52D140A22EBB24CC24DD2408943D
:10EFC000611C711C811C911C8BBEF3018791282E42
:10EFD0003324442455240894611C711C811C911C09
:10EFE0008BBEF3013791C55DDE4F3883CB52D140E4
:10EFF0000894611C711C811C911C8BBEF30147910C
:10F00000C45DDE4F4883CC52D140ADEFEA2EAFEF66
:10F01000FA2EAFEF0A2FAFEF1A2F6E0C7F1C801E57
:10F02000911E142D032DF22CEE24EA0CFB1C0C1D5A
:10F030001D1D0F940DF220E22093C6008091C000A8
:10F0400086FFFCCF8091C00080648093C000C65DC5
:10F05000DE4F8881CA52D1400F940DF230E23093D6
:10F06000C6008091C00086FFFCCF8091C000806404
:10F070008093C000C45DDE4F8881CC52D1400F9494
:10F080000DF240E24093C6008091C00086FFFCCFA5
:10F090008091C00080648093C000C55DDE4F888190
:10F0A000CB52D1400F940DF250E25093C6008091A4
:10F0B000C00086FFFCCF8091C00080648093C000B8
:10F0C0008FEFE8168FEFF80680E0080780E018075A
:10F0D00031F484E092EE60E00F94C2F1DFC0D80119
:10F0E000C7018070907CA070B0708050904CA040A0
:10F0F000B040D1F52FEF3FE340E050E0E222F322B1
:10F1000004231523CA5DDE4FA880B980CA80DB8046
:10F11000C652D140AE0CBF1CC01ED11EAA0CBB1CD7
:10F12000CC1CDD1C8EE092EE60E00F94C2F1BB2798
:10F13000A12F902F8F2D0F940DF28E2D0F940DF285
:10F1400030E23093C6008091C00086FFFCCF8091F2
:10F15000C00080648093C0004EE34093C60080915D
:10F16000C00086FFFCCF87C08EE09EEFA0E0B0E03D
:10F17000E822F9220A231B239CE0E91694E9F90608
:10F1800090E0090790E0190709F088C0C45DDE4FE0
:10F19000A881CC52D140EA2EFF2400E010E0102FCD
:10F1A0000F2DFE2CEE24C55DDE4FB881CB52D14031
:10F1B000EB0EF11C011D111DD601C501817090706F
:10F1C000A070B070DC0199278827E80EF91E0A1F8D
:10F1D0001B1F20EF30E040E050E0A222B322C42207
:10F1E000D52241E1AA0CBB1CCC1CDD1C4A95D1F7F1
:10F1F000EA0CFB1C0C1D1D1D81E090E0A0E0B0E0BE
:10F20000282239224A225B2235E1220C331C441C7D
:10F21000551C3A95D1F7E20CF31C041D151D57013E
:10F220006801AA0CBB1CCC1CDD1C85E192EE60E0E1
:10F230000F94C2F1C801AA27BB270F940DF2BB2778
:10F24000A12F902F8F2D0F940DF28E2D0F940DF274
:10F2500090E29093C6008091C00086FFFCCF809121
:10F26000C00080648093C000AEE3A093C60080918C
:10F27000C00086FFFCCF8091C00080648093C000F6
:10F28000C601AA27BB270F940DF2BB27AD2D9C2DDD
:10F290008B2D0F940DF28A2D0F940DF20F94DCF14B
:10F2A000CC5DDE4FE881F981C452D140F99709F471
:10F2B0004DCBF4E0EF2EF12C012D112D6E0C7F1CA7
:10F2C000801E911EF2CD83E093EE62E00F94F5F183
:10F2D0008AE192EE60E00F94C2F18091C00087FF56
:10F2E000FCCF1091C6001F751093C6008091C0001E
:10F2F00086FFFCCF8091C00080648093C0000F9493
:10F30000DCF1812F81548A3108F036C1163409F4BA
:10F3100095C0173490F4133409F44EC0143430F40B
:10F320001134F1F0123409F01DC130C0143409F465
:10F3300059C0153409F016C16BC01A3409F4C4C0A1
:10F340001B3438F4173409F48FC0183409F00AC19B
:10F35000A1C01B3409F4D2C01C3409F003C1E8C0B9
:10F360008FEF81B90DC082B1809582B980E090E0C5
:10F37000E0EDF7E03197F1F70196883C9105C1F790
:10F380008091C00087FFEFCF12B8EFC08FEF84B934
:10F390000DC085B1809585B980E090E0E0EDF7E0A3
:10F3A0003197F1F70196883C9105C1F78091C00033
:10F3B00087FFEFCF15B8D9C08FEF87B90DC088B1DF
:10F3C000809588B980E090E0E0EDF7E03197F1F7C3
:10F3D0000196883C9105C1F78091C00087FFEFCF6F
:10F3E00018B8C3C08FEF8AB90DC08BB180958BB9A7
:10F3F00080E090E0E0EDF7E03197F1F70196883C8E
:10F400009105C1F78091C00087FFEFCF1BB8ADC059
:10F410008FEF8DB90DC08EB180958EB980E090E0F0
:10F42000E0EDF7E03197F1F70196883C9105C1F7DF
:10F430008091C00087FFEFCF1EB897C08FEF80BBD1
:10F440000DC081B3809581BB80E090E0E0EDF7E0F6
:10F450003197F1F70196883C9105C1F78091C00082
:10F4600087FFEFCF11BA81C08FEF83BB0DC084B38C
:10F47000809584BB80E090E0E0EDF7E03197F1F714
:10F480000196883C9105C1F78091C00087FFEFCFBE
:10F4900014BA6BC08FEF809301010FC080910201FD
:10F4A00080958093020180E090E0E0EDF7E03197F5
:10F4B000F1F70196883C9105C1F78091C00087FF64
:10F4C000EDCF1092020151C08FEF809304010FC065
:10F4D0008091050180958093050180E090E0E0ED4A
:10F4E000F7E03197F1F70196883C9105C1F78091DB
:10F4F000C00087FFEDCF1092050137C08FEF8093DA
:10F5000007010FC08091080180958093080180E079
:10F5100090E0E0EDF7E03197F1F70196883C910536
:10F52000C1F78091C00087FFEDCF109208011DC088
:10F530008FEF80930A010FC080910B01809580931B
:10F540000B0180E090E0E0EDF7E03197F1F70196F4
:10F55000883C9105C1F78091C00087FFEDCF1092E4
:10F560000B0103C085E292EEEEC98091C00087FFD7
:10F57000FCCF8091C600EAC988E392EEE4C98CE131
:10F5800091EEE1C988249924933011F1943028F444
:10F59000913089F09230B8F408C0953061F195301F
:10F5A000F0F0963009F048C043C02B3109F042C951
:10F5B00091E06BE13FC96227C15DDE4F2883CF52E6
:10F5C000D14092E037C9B22FA0E0622793E032C960
:10F5D000822F90E0A82BB92B622794E02BC92E3004
:10F5E00009F039C3622795E0C05DDE4F19821882A9
:10F5F000C053D1401FC9E1E0F0E0EC0FFD1FC05D3A
:10F60000DE4F08811981C053D140E00FF11F2083E4
:10F610000F5F1F4FC05DDE4F19830883C053D14079
:10F6200062270A171B0709F005C9D80196E002C92D
:10F63000261709F010C303C0973009F0FBC87724E0
:10F640009981933109F412C19431C8F4963009F4C8
:10F65000D8C0973050F4923009F406C1933009F4C1
:10F660006DC0913009F059C253C0913109F477C08F
:10F67000923108F0BBC0903109F04FC2F5C098310B
:10F6800009F487C0993150F4953109F4EFC09531F0
:10F6900008F4C6C1963109F040C2C2C19A3109F4DA
:10F6A0006CC09A3108F491C09B3109F45BC09D3164
:10F6B00009F033C29D81903359F48F81882311F46E
:10F6C0009EE11CC0813011F091E018C098E916C08D
:10F6D000892F807591F0903539F4E0E0F0E089E011
:10F6E0008093570094910AC0983539F4E3E0F0E034
:10F6F00089E080935700949101C090E01A821B82A8
:10F700008D818C831D829E831F8227E030E009C299
:10F710001A8288E08B8381E48C8386E58D8382E581
:10F720008E8389E48F8383E5888780E589878FE5E9
:10F730008A8782E38B872BE030E0F3C18A818139AD
