:100000000C94CC060C94F4060C94F4060C94F406B0
:100010000C94F4060C94F4060C94F4060C94F40678
:100020000C94F4060C94F4060C942F1A0C949E1A5B
:100030000C94F4060C94F4060C94F4060C94F40658
:100040000C94F4060C94F4060C94F4060C94F40648
:100050000C94F4060C94F4060C94F4060C94D01C46
:100060000C94F4060C94F4060C94F4060C94F40628
:100070000C94F4060C94F4060C94F4060C94F40618
:100080000C94F4060C94F4060C94F4060C94F40608
:100090000C94F4060C94F4060C94F4060C94F406F8
:1000A0000C94F4060C94F4060C94F406556E7265E8
:1000B000636F676E697A656420636F6D6D616E64EE
:1000C000004552524F52202D20436F6D6D616E647A
:1000D00020627566666572206F766572666C6F77F2
:1000E000210020616E642000496E76616C69643A7B
:1000F0002072616E6765206973206265747765653B
:100100006E20002000536574206465766963652065
:100110007072696D617279206164647265737320B5
:10012000746F3A200054686174206973206D7920DF
:1001300061646472657373212041646472657373D2
:10014000206F6620612072656D6F7465206465762E
:100150006963652069732072657175697265642EC3
:1001600000496E76616C69643A2076616C6964203E
:1001700074696D6F75742072616E67652069732094
:1001800031202D203332303030206D732E00206D21
:10019000696C6C697365636F6E647300536574207A
:1001A0005B726561645F746D6F5F6D735D20746F0A
:1001B0003A2000496E76616C69643A206578706512
:1001C0006374656420454F532076616C7565206FBC
:1001D000662030202D20330053657420454F532076
:1001E000746F3A2000496E76616C69643A206578D4
:1001F00070656374656420454F492076616C756550
:10020000206F662030206F722031005365742045C6
:100210004F4920617373657274696F6E3A200049AB
:100220006E74657266616365206D6F6465207365C9
:100230007420746F3A2000496E76616C69643A20CC
:100240006D6F6465206D7573742062652030206F5A
:1002500072203100496E76616C69643A206578706D
:10026000656374656420454F542076616C75652024
:100270006F662030206F72203100417070656E64AF
:10028000696E67206F6620454F5420636861726114
:10029000637465723A2000496E76616C69643A2035
:1002A000657870656374656420454F5420636861A8
:1002B0007261637465722041534349492076616CD1
:1002C000756520696E207468652072616E676520AF
:1002D00030202D2032353500454F54207365742071
:1002E000746F2041534349492063686172616374AC
:1002F00065723A20004175746F206D6F64653A2015
:1003000000202020202020202020276164647265A6
:100310007373656420746F2074616C6B20627574F4
:10032000206E6F7468696E6720746F20736179271F
:10033000206572726F7273005741524E494E473AB0
:10034000206175746F6D6F6465204F4E2063616E20
:1003500020636175736520736F6D652064657669D0
:1003600063657320746F2067656E657261746500E4
:100370004175746F6D6F64653A2076616C696420B5
:1003800072616E6765206973205B302D64697361EB
:10039000626C657C312D50726F6C6F6769787C324E
:1003A0002D6F6E2D71756572797C332D636F6E7450
:1003B000696E756F75735D2E004152343838204771
:1003C00050494220636F6E74726F6C6C65722C20A2
:1003D0007665722E20302E34382E32342C20323571
:1003E0002F30342F323032300041523438382047E9
:1003F00050494220636F6E74726F6C6C65722C2072
:100400007665722E20302E34382E32342C20323540
:100410002F30342F3230323000496E76616C69648F
:10042000207465726D696E6174696F6E20636861B6
:10043000726163746572202D2069676E6F726564E6
:1004400021004661696C656420746F20756E74616B
:100450006C6B204750494220627573004661696C9D
:10046000656420746F2073656E64205344430046B6
:1004700061696C656420746F206164647265737374
:1004800020646576696365004661696C6564207403
:100490006F20756E6C697374656E20746865204793
:1004A00050494220627573004661696C656420742E
:1004B0006F2073656E64204C4C4F20746F20646510
:1004C00076696365004661696C656420746F2061BC
:1004D000646472657373207468652064657669630B
:1004E000652E004661696C656420746F2073656ECB
:1004F0006420756E6976657273616C204C4C4F2E6A
:10050000004661696C656420746F20756E6C697358
:1005100074656E2047504942206275732E00466113
:10052000696C65642073656E64696E67204C4F4327
:100530002E004661696C656420746F20616464728A
:10054000657373206465766963652E0049464320B0
:100550007369676E616C2061737365727465642082
:10056000666F7220313530206D6963726F73656319
:100570006F6E64730047726F75702074726967677D
:10058000657220636F6D706C657465642E004661E2
:10059000696C656420746F20756E6C697374656E28
:1005A000204750494220627573004661696C65645A
:1005B00020746F207472696767657220646576695C
:1005C0006365004661696C656420746F20616464D2
:1005D000726573732064657669636500496E766140
:1005E0006C69643A2047504942207072696D6172AB
:1005F00079206164647265737320697320696E2069
:100600007468652072616E67652031202D2033305B
:10061000005265736574204641494C45442E005391
:10062000657269616C20706F6C6C20636F6D706CAB
:10063000657465642E004661696C656420746F2082
:100640007265747269657665207374617475732060
:1006500062797465005D2066726F6D2064657669ED
:10066000636520617420616464726573733A20006D
:10067000526563656976656420737461747573206F
:1006800062797465205B002C005352513A00496E28
:1006900076616C696420706172616D657465720069
:1006A000496E76616C69643A204750494220616422
:1006B000647265737365732061726520696E20745E
:1006C00068652072616E676520312D333000536597
:1006D0007269616C20706F6C6C206F6620616C6C4D
:1006E00020646576696365732072657175657374DE
:1006F00065642E2E2E0053525120756E2D6173733A
:1007000065727465642E0053525120617373657273
:100710007465642E00496E76616C69643A20657870
:1007200070656374656420627974652076616C75A8
:100730006520696E207468652072616E676520307F
:10074000202D203235350053657474696E6773202F
:1007500073617665642E0053657474696E677320E7
:1007600073617665642E004C4F4E3A2076616C6959
:10077000642072616E6765206973205B302D646947
:100780007361626C657C312D656E61626C655D2E96
:10079000004C4F4E3A200053656E64696E672044EA
:1007A000434C206661696C656400496E76616C69D2
:1007B000643A20657870656374656420454F522003
:1007C00076616C7565206F662030202D20370053D0
:1007D000657420454F5220746F3A20005061726159
:1007E0006C6C656C20706F6C6C20636F6D706C65E9
:1007F0007465642E0052454E3A2000496E76616C55
:1008000069643A20657870656374656420303D756D
:100810006E2D6173736572742C20313D6173736545
:100820007274004368616E676564207665727369EF
:100830006F6E20737472696E6720746F3A20005473
:100840004F4E3A2076616C69642072616E67652054
:100850006973205B302D64697361626C657C312D36
:10086000656E61626C655D2E00544F4E3A20004902
:100870006E76616C69643A2065787065637465644E
:1008800020303D64697361626C65206F7220313D78
:10089000656E61626C65004D697373696E67207087
:1008A0006172616D6574657273004D697373696E11
:1008B0006720706172616D6574657200446973616F
:1008C000626C656400496E76616C69643A20303D03
:1008D00064617461206275733B20313D636F6E7497
:1008E000726F6C2062757300496E76616C69643A50
:1008F00020657870656374656420454F5420636893
:100900006172616374657220415343494920766185
:100910006C756520696E207468652072616E67650C
:100920002030202D2033302C30303000544D627573
:10093000732073657420746F3A200020746F2064F4
:100940006576696365006770696253656E64436DBF
:10095000643A206661696C656420746F2073656E0B
:100960006420636F6D6D616E64200067706962530F
:10097000656E64446174613A204661696C65642007
:10098000746F20756E74616C6B20627573005469AE
:100990006D656F75742077616974696E6720666F25
:1009A00072207472616E7366657220746F20636F5B
:1009B0006D706C657465210054696D656F75742088
:1009C00077616974696E6720666F722073656E6403
:1009D00065722100454F49206465746563746564E0
:1009E0002100427974657320726561643A200020A9
:1009F000746F2074616C6B004661696C656420746F
:100A00006F20616464726573732074686520646527
:100A100076696365006770696252656164427974E2
:100A2000653A2074696D656F7574207761697469C2
:100A30006E672044415620746F20676F20484947F5
:100A400048006770696252656164427974653A2052
:100A500074696D656F75742077616974696E67205C
:100A6000666F722044415620746F20676F204C4F90
:100A70005700677069625772697465427974653AA4
:100A80002074696D656F75742077616974696E672C
:100A900020666F72206461746120616363657074A5
:100AA0006564207369676E616C202D205B4E444144
:100AB0004320756E61737365727465645D00677061
:100AC00069625772697465427974653A2074696D18
:100AD000656F75742077616974696E6720666F72DF
:100AE000206461746120746F2062652061636365B6
:100AF00070746564202D205B4E52464420617373F0
:100B000065727465645D00677069625772697465C7
:100B1000427974653A2074696D656F7574207761E8
:100B20006974696E6720666F7220726563656976A5
:100B30006572207265616479202D205B4E524644B7
:100B400020756E61737365727465645D00677069AA
:100B5000625772697465427974653A2074696D658B
:100B60006F75742077616974696E6720666F722093
:100B7000726563656976657220617474656E746907
:100B80006F6E205B4E4441432061737365727465E0
:100B9000645D006770696253656E64446174613AB4
:100BA000204661696C656420746F20756E6C697392
:100BB00074656E206275730020746F206C697374A5
:100BC000656E006770696253656E64446174613A72
:100BD000206661696C656420746F2061646472656D
:100BE000737320646576696365200000000000234C
:100BF00000260029002C002F000000000200090F31
:100C00000000030401000C000000000000000000D0
:100C10000000000000000000080B000202020000BB
:100C2000090400000102020000052400100105244F
:100C300001010104240206052406000107058103C1
:100C400010004009040100020A000000070502022A
:100C5000400000070583024000000403090412015C
:100C60000002EF020140412336800001010203012E
:100C700041726475696E6F204C4C4300417264751B
:100C8000696E6F204C656F6E6172646F00000000CA
:100C900000250028002B002E003100000000002459
:100CA0000027002A002D003000040404040403047B
:100CB00005020202020403020202020606060606FA
:100CC00006040402020204040408020110408040E9
:100CD0001020408040800802040180402010020162
:100CE00010801020404020436F6D6D616E64206E57
:100CF0006F7420617661696C61626C6520696E2039
:100D000074686973206D6F64652E0053656E646945
:100D10006E672073746174757320627974653A200C
:100D2000005352512062697420636C65617265647E
:100D30002028696620736574292E005374617475C8
:100D4000732073656E742E0053657269616C207038
:100D50006F6C6C2072657175657374207265636564
:100D6000697665642066726F6D20636F6E74726F52
:100D70006C6C6572202D3E003C2D2073657269619C
:100D80006C20706F6C6C2072657175657374206572
:100D90006E6465642E004D1D11241FBECFEFDAE096
:100DA000DEBFCDBF24E0A4E4B3E001C01D92A738AC
:100DB000B207E1F713E0A0E0B1E0E4E1F2E402C041
:100DC00005900D92A434B107D9F716E0CCECD6E02B
:100DD00004C02197FE010E94BE20CB3CD107C9F779
:100DE0000E94621D0C9408210C940000FC0180916B
:100DF000AF03882311F13FB7F89482E08093E900B4
:100E00002091F200822F90E01816190614F481E068
:100E100090E0882339F0289844E64093AE0340914F
:100E2000F1004083222339F02091F200211103C008
:100E30002BE62093E8003FBF08958FEF9FEF0895C2
:100E40002FB7F89483E08093E9009091E800892F10
:100E5000807295FF04C09091F20080E4891B2FBF3F
:100E600008958091A60381110DC082E08093A203B2
:100E700084E08093A3031092A5031092A40381E061
:100E80008093A60382EA93E008958230910538F0BA
:100E9000880F991F880F991F05970197F1F70895FB
:100EA00040915403509155032091520330915303C4
:100EB00042175307B4F49091E8009570E1F39091D4
:100EC000E80092FD19C08093F10080915403909145
:100ED000550301968F739927892B19F48EEF809310
:100EE000E800809154039091550301969093550327
:100EF0008093540381E0089580E00895DF92EF929B
:100F0000FF920F931F93CF93DF93D82E8A01EB01AB
:100F10007B01E40EF51ECE15DF0559F0D7FE12C099
:100F2000FE0184910E94500721968111F4CF0FEFAA
:100F30001FEFC801DF91CF911F910F91FF90EF90AC
:100F4000DF9008958881EECF0F931F93CF93DF93A7
:100F50001F92CDB7DEB782E0898342E450E068E1BA
:100F60007CE080E80E947E070E943107DC01129637
:100F70000D911C910115110589F0D801ED91FC919D
:100F80000280F381E02DBE016F5F7F4FC80109959C
:100F900097FD04C0F80100851185ECCF89810F9081
:100FA000DF91CF911F910F910895615030F0209102
:100FB000F100FC0120830196F8CF289884E6809305
:100FC000AE030895DC01ED91FC910190F081E02DDC
:100FD0000994EF92FF920F931F93CF93DF938C01AD
:100FE0007B01D0E0C0E0F701EC0FFD1F64916623A8
:100FF00061F0D801ED91FC910190F081E02DC801E4
:101000000995892B11F02196EECFCE01DF91CF917A
:101010001F910F91FF90EF900895CF93DF931F9250
:10102000CDB7DEB76983DC01ED91FC910280F381DD
:10103000E02D41E050E0BE016F5F7F4F09950F90BA
:10104000DF91CF91089583E08093E9008091F200D1
:10105000882319F08AE38093E80008950E9420070E
:1010600090E00895CF93DF931F92CDB7DEB7FC01D8
:101070008485958597FD08C02FEF3FEF358724873E
:101080000F90DF91CF910895CE0101960E94F60650
:10109000019719F4898190E0F3CF8FEF9FEFF0CFA4
:1010A0000F931F93CF93DF931F92CDB7DEB78C01C1
:1010B000FC018485958597FF0BC0CE0101960E94A7
:1010C000F606019771F4898190E0F801958784878D
:1010D000F801848595850F90DF91CF911F910F9135
:1010E00008958FEF9FEFF1CFFC018485958597FDE3
:1010F0000BC09FB7F89482E08093E9008091F200E2
:101100009FBF90E0019608959FB7F89482E0809386
:10111000E9008091F2009FBF90E0089581508F30E8
:1011200008F047C0E82FF0E0E856F74F0C94BE20D7
:10113000B508B908A708AD08B108D908D908D90871
:10114000BC08C208C608CA08D008D908D4088091CB
:1011500080008F77809380000895809180008F7D3C
:10116000F9CF80918000877FF5CF84B58F7784BDDC
:10117000089584B58F7DFBCF809190008F77809309
:1011800090000895809190008F7DF9CF809190001C
:10119000877FF5CF8091C0008F778093C00008953E
:1011A0008091C0008F7DF9CF8091C200877F8093AE
:1011B000C2000895CF93DF93282F30E0F901E75064
:1011C000F44F8491F901E853F34FD491F901E755B5
:1011D000F34FC491CC23A1F081110E948E08EC2F13
:1011E000F0E0EE0FFF1FE551F44FA591B491EC91A3
:1011F000ED2381E090E009F480E0DF91CF91089544
:1012000080E090E0FACF1F93CF93DF93282F30E058
:10121000F901E750F44F8491F901E853F34FD49169
:10122000F901E755F34FC491CC23A9F0162F811192
:101230000E948E08EC2FF0E0EE0FFF1FE357F34FF4
:10124000A591B4918FB7F894EC91111108C0D09585
:10125000DE23DC938FBFDF91CF911F910895DE2BAA
:10126000F8CF3FB7F89480914E0390914F03A0912F
:101270005003B091510326B5A89B05C02F3F19F02C
:101280000196A11DB11D3FBFBA2FA92F982F882706
:10129000BC01CD01620F711D811D911D42E0660FE1
:1012A000771F881F991F4A95D1F708958F929F92B3
:1012B000AF92BF92CF92DF92EF92FF926B017C01CF
:1012C0000E9431094B015C01C114D104E104F10415
:1012D000B9F00E943109681979098A099B09683EA9
:1012E00073408105910580F321E0C21AD108E1081D
:1012F000F10888EE880E83E0981EA11CB11CE4CF93
:10130000FF90EF90DF90CF90BF90AF909F908F9025
:1013100008958F929F92AF92BF92CF92DF92EF92F9
:10132000FF920F931F93CF93DF936C017B018A0190
:1013300080910C01882309F45CC08091AF0388235D
:1013400009F457C08091580380FF05C08091E000E8
:1013500082608093E000E801B12C8AEFA82E93E030
:10136000892E2AE3922E209711F4BB20D9F10E94F6
:10137000200781110AC0AA94AA20D9F161E070E087
:1013800080E090E00E945609EECF8C171D0611F008
:101390000CF08C2F9FB7F8948092E9002091E80020
:1013A00025FD02C09FBFDFCF282F30E0C21BD30B2B
:1013B000F701815020F041914093F100FACFE20E05
:1013C000F31EBB2021F09092E800B12CEBCF80916E
:1013D000E80085FDE7CF9092E800BB24B394209706
:1013E00009F3F3CF5D9884E6809357031016110636
:1013F0003CF081E090E0F6019383828310E000E00E
:10140000C801DF91CF911F910F91FF90EF90DF9076
:10141000CF90BF90AF909F908F900895829590E06D
:101420009C0135952795359527952373880F991F2E
:10143000880F991F8C7C282B30E0C90195958795E2
:101440008575220F331F2A7A822B08950F931F93DD
:10145000CF93DF9390E070E08B0124E0000F111F29
:101460002A95E1F7EC0135E0D595C7953A95E1F776
:101470009B0155E0359527955A95E1F7FB01EE0F55
:10148000FF1FEE0FFF1FE074322F3170E32B22702D
:10149000E20F759567956074F02FF095DC01D4E04C
:1014A000AA0FBB1FDA95E1F7A0237E2F70959C0150
:1014B000220F331F220F331F20743C2F3170232B38
:1014C000C2702C0F2E23562F509595958795682323
:1014D000413089F035B13F233A2B35B99BB1972381
:1014E000292B2BB98EB18523682B6EB9DF91CF9153
:1014F0001F910F91089534B13F233A2B34B99AB11B
:101500009723292B2AB98DB18523682B6DB9EECF8E
:10151000CF93DF933E9A549A90B3936F90BB80958C
:10152000C82FD0E09E01220F331F220F331F207CD3
:101530008F70822B0E940E0A98B19E0135952795D7
:1015400020749F7B292B28B99BB1D595C795D5953C
:10155000C795C0719F7EC92BCBB991B39C70837F17
:10156000982B91BBDF91CF9108952FB19FB134E0BB
:10157000939FC00111248C70207F822B0E940E0A41
:1015800099B146B154E0959F900111242074942F95
:10159000990F9078292B820F80950895825088307A
:1015A00078F4E82FF0E0E852F54F41E00C94BE20CB
:1015B000E90AF00A070BFF0A0A0B120B190B210BA1
:1015C00041E06FEF88EB0E94260A40E06FEF8FED5D
:1015D0000EC06EE988EB0E94260A40E06EE9F7CF64
:1015E0006FE989EB0E94260A40E06FE98FE50E94CF
:1015F000260A80919C0390919D030C9445076EE907
:1016000086EA0E94260A40E06EE988EDF0CF6EE996
:1016100089EBE1CF6FEF80E00E94260A40E06FEF98
:101620008FEFE5CF6EE080E00E94260A40E06EE09A
:10163000F7CF6EE086E00E94260A40E06EE089EF78
:10164000D6CF6EE088E0F7CFBF92CF92DF92EF92D5
:10165000FF920F931F93CF93DF93C82FB62E2FB710
:10166000F89480914A0390914B03A0914C03B09160
:101670004D032FBF6A01550FEE08FF08C80ED91E93
:10168000EA1EFB1E87E00E94DA088C01D0E08B2D59
:101690000E94DA088C179D0721F12FB7F8948091EA
:1016A0004A0390914B03A0914C03B0914D032FBF7F
:1016B0008C159D05AE05BF0558F081E0DF91CF91F7
:1016C0001F910F91FF90EF90DF90CF90BF90089502
:1016D00001151105E1F687E00E94DA080197B9F6D5
:1016E000ECCF80E0EBCF41E060E480E00E94260A8E
:1016F00040E060E480E40C94260A90919F03E92F77
:10170000F0E0EF54FC4F80839F5F90939F03089518
:10171000EFE5F3E080E4DF011D928A95E9F78CECB8
:10172000808382E0838381E0858380EB94E09387EC
:10173000828708950C94880BE1EBF3E080E8DF01E9
:101740001D928A95E9F710929F030895FB0101907D
:101750000020E9F73197AF01461B570BDC01ED91F3
:10176000FC910280F381E02D09948F929F92AF92B9
:10177000BF92EF92FF920F931F93CF93DF93CDB75A
:10178000DEB7A1970FB6F894DEBF0FBECDBF7C01C8
:10179000FA01CB0119A2223008F42AE08E010F5D74
:1017A0001F4F822E912CB12CA12CBF01A5019401B9
:1017B0000E949C20F901CA016A300CF5605DD801D5
:1017C0006E938D01232B242B252B79F790E080E05D
:1017D000109721F0BD01C7010E94A60BA1960FB67C
:1017E000F894DEBF0FBECDBFDF91CF911F910F9157
:1017F000FF90EF90BF90AF909F908F900895695C9D
:10180000DECFCF92DF92EF92FF920F931F93CF9391
:10181000DF936B01770FEE08FF08F7FE1BC0EC01AA
:101820006DE20E94E2078C0144275527BA014C194A
:101830005D096E097F092AE0CE010E94B50B800F79
:10184000911FDF91CF911F910F91FF90EF90DF904B
:10185000CF9008952AE0B701A601DF91CF911F91A3
:101860000F91FF90EF90DF90CF900C94B50B68EF45
:1018700071E00C94A60BCF92DF92EF92FF920F9340
:101880001F93CF93DF938C016B01770FEE08FF0856
:10189000F7FE1FC06DE20E94E207EC0144275527C6
:1018A000BA014C195D096E097F092AE0C8010E943E
:1018B000B50BC80FD91FC8010E94370C8C0F9D1F94
:1018C000DF91CF911F910F91FF90EF90DF90CF901C
:1018D00008952AE0B701A6010E94B50BEC01EBCFF9
:1018E00082E00E94DA0861E070E0892B11F070E07C
:1018F00060E085E394E00C943B0C0F931F93CF932F
:10190000DF93EC01AB0170E060E02AE00E94B50BD0
:101910008C01CE010E94370C800F911FDF91CF9177
:101920001F910F9108950F931F93CF93DF93EC01B5
:10193000462F50E070E060E02AE00E94B50B8C0179
:10194000CE010E94370C800F911FDF91CF911F9124
:101950000F9108950F931F93CF93DF938C01D0E0E5
:10196000C0E06115710519F00E94A60BEC01C801D9
:101970000E94370C8C0F9D1FDF91CF911F910F910B
:1019800008950F931F93CF93DF93EC010E94E90713
:101990008C01CE010E94370C800F911FDF91CF91F7
:1019A0001F910F910895CF93C82F409169035091D3
:1019B0006A0369E080E00E94240B8823E9F0C0916B
:1019C0003204C11112C0C1E040E068E088E00E942A
:1019D000260A80E00E94880A80919C0390919D03D2
:1019E0000E9445078C2FCF9108956DE47BE085E33D
:1019F00094E00E94C10CE8CF4091690350916A03C2
:101A00006AE081E00E94240B882339F0C0913204FF
:101A100067E07BE0CC23B9F2EACF8C2F0E94880AE2
:101A200040E068E080E00E94260A409169035091FE
:101A30006A036AE080E00E94240B882341F0C09191
:101A400032046EEB7AE0CC2309F4BDCFD0CF4091C5
:101A5000690350916A0369E081E00E94240BC82F5A
:101A6000882309F4B1CFC0913204CC2309F4ABCF61
:101A700062E77AE0BCCF0F931F93CF93DF93EC0123
:101A800087E00E94DA088C0140E064E084E00E9474
:101A9000260A012B81F487E00E94DA08019759F4A5
:101AA00040E064E080E00E94260A83E0DF91CF916D
:101AB0001F910F9108954091690350916A036BE063
:101AC00080E00E94240B882389F0809132048823CF
:101AD00031F062E47AE085E394E00E94C10C40E0DA
:101AE00064E080E00E94260A81E0E0CF40E064E00C
:101AF00080E00E94260A80915B03882341F08CE0FD
:101B00000E94DA08892B19F485E080935A030E9419
:101B1000B50A888340E062E082E00E94260A409194
:101B2000690350916A036BE081E00E94240B8823D3
:101B300061F080913204882331F065E17AE085E339
:101B400094E00E94C10C82E0B1CF40E062E080E00E
:101B50000E94260A80919C0390919D030E94450754
:101B600080E0A4CFCF93DF93C82F83E00E94CE0AFA
:101B70008C2F0E94D30CD82F8823C9F08091320477
:101B80008823A9F066E479E085E394E00E94E90700
:101B90004C2F50E070E060E020E185E394E00E948B
:101BA000B50B6BE379E085E394E00E94C10C8D2FC7
:101BB000DF91CF91089583E790E00197F1F78FE3EC
:101BC0000E94B20D811103C08FE50C94B20D0895EF
:101BD000CF93DF93C82FD62F8FE30E94B20D8111D0
:101BE00019C0DD2369F080E48C0F0E94B20D8111D1
:101BF00011C080916303805EDF91CF910C94B20D90
:101C000080E28C0F0E94B20D811104C080916303A9
:101C1000805CF2CF81E0DF91CF910895CF92DF9287
:101C2000EF92FF920F931F93CF936C01E62E80915A
:101C30006203823009F07EC080910001882349F15F
:101C400060E0809164030E94E80D882311F1809187
:101C50003204882309F484C063EC7BE085E394E0DC
:101C60000E94E9074091640350E070E060E02AE0E0
:101C700085E394E00E94B50B68EB7BE085E394E09C
:101C8000CF911F910F91FF90EF90DF90CF900C9428
:101C9000C10C8091330491E089278093000184E096
:101CA0000E94CE0A8601F12CC8018C199D098E155F
:101CB0009F050CF045C0F80181918F010E94D30C63
:101CC000C82F882389F380916103882389F080914C
:101CD000330481110DC040E060E10E94260A8BE9C7
:101CE00090E00197F1F740E060E180E10E94260A70
:101CF00080916203823001F5C11112C08091000110
:101D0000882371F00E94DB0D882351F0809132040A
:101D1000882331F063E97BE085E394E00E94C10C05
:101D200082E0CF911F910F91FF90EF90DF90CF90C5
:101D30000C94CE0A89E0B4CF813091F487E0F1CFE2
:101D40008091660381FD03C08DE00E94D30C8091D9
:101D5000660380FD03C08AE00E94D30CC0E0B3CFCD
:101D6000CF911F910F91FF90EF90DF90CF9008954A
:101D700025E0FC0111922A95E9F76CEB78E085E308
:101D800094E00C94C10CCF93DF9382E00E94CE0AC2
:101D9000CBE4D0E0CE010197F1F740E060E980E0CC
:101DA0000E94260A2197F1F70E94B50AC82F82E007
:101DB0000E94CE0A6C2F85E394E00E94930C8091E0
:101DC0003204882341F06CED77E085E394E0DF9105
:101DD000CF910C94C10CDF91CF91089584E10E94C2
:101DE000B20D882351F080913204882349F067E9CD
:101DF00077E085E394E00C94C10C82E00C94CE0A69
:101E000008952FB7F89480914A0390914B03A091C5
:101E10004C03B0914D032FBF8053984FAF4FBF4F2E
:101E200028E13EE00FB6F894A895209360000FBE1D
:101E3000309360002FB7F89440914A0350914B03C0
:101E400060914C0370914D032FBF481759076A07E3
:101E50007B0780F380913204882331F061E176E0E2
:101E600085E394E00C94C10C08958091620388236B
:101E7000C1F040E061E080E00E94260A83E592E044
:101E80000197F1F740E061E081E00E94260A80912D
:101E90003204882331F06CE475E085E394E00C941F
:101EA000C10C089560E0809164030E94E80D8823CE
:101EB00039F0809132046FE674E081110CC008950E
:101EC00084E00E94B20D882351F08091320488236F
:101ED000B1F36CE574E085E394E00C94C10C0E94CE
:101EE000DB0D882339F08091320462E474E08823AA
:101EF00031F3F1CF82E00C94CE0A6CEA70E085E316
:101F000094E00C94C10C8091320491E08927809375
:101F100032046BEF71E085E394E00E94A60B8091A0
:101F2000320460E272E0882311F064E172E085E33C
:101F300094E00C94AA0C85E394E00E94370C65E0D1
:101F400072E085E394E00C94A60BE82FF0E0E055F6
:101F5000FC4F90819F3319F491E090933404909159
:101F6000B003911105C0682F81EB93E00E940E0E23
:101F700080913304811110923304809132048111D5
:101F80000E949B0F0E949C0B109231040895CF93E6
:101F9000DF93D82FC0919F03C7FD72C08D3051F1E0
:101FA00064F48A3039F180913204882339F16D2F3D
:101FB00085E394E00E94E20721C08B3109F456C00A
:101FC0008B3289F780914603882339F010924603BB
:101FD000C23018F481E0809345038BE20E947D0BB0
:101FE00080913204882379F06BE285E394E00E94CB
:101FF000E20709C080914603882339F08D2F0E94A3
:102000007D0B10924603C0E01EC0C1110BC00E94A0
:102010009C0B8091320481110E949B0F8C2FDF91C9
:10202000CF910895C33060F08091B1038B3241F4B9
:102030008091B2038B3221F480914503C1E081117C
:10204000C2E01092450380919F0387FFE7CF809104
:10205000B1038B3231F48091B2038B3211F4CC2373
:1020600089F081E080933304C2E0D8CF80914603A9
:10207000882311F08BE1C3CF81E080934603C3CF67
:10208000C0E0E5CF80913204882331F061EC70E04C
:1020900085E394E00E94C10C0E949C0BBFCFAF92DD
:1020A000BF92DF92EF92FF920F931F93CF93DF9334
:1020B00000D01F92CDB7DEB719821A821B828091A1
:1020C0009E03082F077010925A03D0905B0387304D
:1020D00019F481E080935B0380916203823009F000
:1020E000EEC061E0809164030E94E80D8823D1F086
:1020F000809132048823B1F068EF79E085E394E0C1
:102100000E94E9074091640350E070E060E02AE03B
:1021100085E394E00E94B50B6FEE79E085E394E0EF
:102120000E94C10C4091690350916A036AE081E00A
:102130000E94240B85E00E94CE0A3E98549880B3FA
:102140008C7080BB469A5C9A81B3836F81BBF12C03
:10215000E12CA02EB12C10915A031111F1C087E08F
:102160000E94DA080197C9F5CE0101960E943B0D45
:10217000182F811132C080916803833099F485E370
:1021800094E00E947408892B69F085E394E00E9432
:1021900032080E94C70F80933104813019F487E020
:1021A00080935A0380915A038730B9F087E00E94E8
:1021B000DA08892B91F0698185E394E00E94E207B7
:1021C0008FEFE81AF80A80915B03882309F47EC038
:1021D00080915A03853009F083C0809132048823AE
:1021E00059F062EE79E085E394E00E94E907B701D7
:1021F00085E394E00E943B0C80915A038530A1F462
:1022000080913204882331F064ED79E085E394E035
:102210000E94C10C80916003882331F060916B03B0
:1022200085E394E00E94E207D0925B031123C1F0A2
:1022300080913204882341F0113031F468EB79E069
:1022400085E394E00E94C10C80913204882341F020
:10225000123031F46EE879E085E394E00E94C10C1D
:1022600080916203823009F06DC00E94DB0D8823EB
:1022700051F080913204882331F06BE679E085E3F8
:1022800094E00E94E90780916203823011F40E9479
:10229000CE0A80915A03811110925A0381E01111E4
:1022A00001C080E00F900F900F90DF91CF911F91B0
:1022B0000F91FF90EF90DF90BF90AF90089588E06E
:1022C0000E94CE0A81E080935B0337CF8981909191
:1022D0004803992351F090914703981709F47DCF53
:1022E0008A818B8389818A8336CF073028F5F5016F
:1022F000E458FE4E0C94BE20831199118D1170117B
:102300008A11901193118A3059F78A818D3041F7E3
:10231000102F63CF8D3021F78A818A3009F75DCF86
:102320008330F1F65ACF8330D9F68A818A30C1F6EC
:102330008B818D30A9F651CF8A3091F68A81F9CF01
:1023400010E04BCF87E0A3CFCF93DF93009751F1FD
:102350000E943420EC01C13385E7D80770F00E9459
:102360007D0F80913204882339F168EE78E085E3AF
:1023700094E0DF91CF910C94C10CD0939D03C09356
:102380009C03809132048823B9F06CE279E085E304
:1023900094E00E94E907BE0185E394E0DF91CF91CC
:1023A0000C943B0C60919C0370919D0385E394E039
:1023B000DF91CF910C947D0CDF91CF910895CF9355
:1023C000DF9368E072E00E9452200097B1F0FC01B8
:1023D00001900020E9F73197E81BF90B349768F476
:1023E0000E943420C82F833048F065EC78E085E304
:1023F00094E0DF91CF910C94C10CC0E068E072E0F2
:1024000090E080E00E9452200097C9F1FC01019009
:102410000020E9F73197E81BF90BD0E0349718F466
:102420000E943420D82FCC23E1F041E06FEF8FEFF2
:102430000E94260A40E06FEF8D2F80950E94260AA9
:1024400060E177E280E090E00E94560980916203AB
:10245000823029F481E0DF91CF910C94CE0A86E09E
:10246000FACF8D2F0E94880A60E177E280E090E049
:102470000E94560980E0DF91CF910C94880ADF9189
:10248000CF910895009749F10E9434208230910540
:1024900060F00E947D0F80913204882329F16FE65D
:1024A00078E085E394E00C94C10C019791F01092D0
:1024B0005E03809132048823B9F080915E0367E166
:1024C00072E0882311F06BE072E085E394E00C94F5
:1024D000AA0C81E080935E03ECCF60915E0370E014
:1024E00085E394E00C943B0C0895CF93DF93009721
:1024F00099F10E943420EC018230910570F00E9425
:102500007D0F80913204882381F16FE378E085E3C9
:1025100094E0DF91CF910C94C10C817080935C03A7
:10252000CE0121E0822781708093B0038091320434
:102530008823D9F069E678E085E394E00E94E90712
:1025400060E272E0CD2B11F064E172E085E394E08B
:10255000DF91CF910C94AA0C60915C0370E085E34D
:1025600094E0DF91CF910C943B0CDF91CF910895D3
:102570001F93CF93DF93009771F10E943420EC01F9
:10258000109132048230910558F01123A1F16BEFC4
:1025900077E085E394E0DF91CF911F910C94C10C1B
:1025A000BC0181E0682783E00E940309112319F12F
:1025B00065EF77E085E394E00E94E90764E272E06A
:1025C000CD2B11F461E372E085E394E0DF91CF91CC
:1025D0001F910C94AA0C83E00E94DA0861E070E07D
:1025E000892B11F070E060E085E394E0DF91CF91FA
:1025F0001F910C943B0CDF91CF911F910895CF93C5
:10260000DF93009739F10E943420EC01803191056D
:1026100070F00E947D0F80913204882349F16AEAAC
:1026200077E085E394E0DF91CF910C94C10C809327
:102630009E03809132048823D9F06FEC77E085E324
:1026400094E00E94E907BE0185E394E0DF91CF9119
:102650000C943B0C80919E03883010F010929E03E6
:1026600060919E0385E394E0DF91CF910C94930CED
:10267000DF91CF910895CF93DF93009799F10E9456
:102680003420EC018230910570F00E947D0F809122
:102690003204882381F167E677E085E394E0DF91F7
:1026A000CF910C94C10C81708093B003CE0121E0D6
:1026B0008227817080935C03809132048823D9F053
:1026C00061E977E085E394E00E94E90760E272E067
:1026D000CD2B11F064E172E085E394E0DF91CF91BE
:1026E0000C94AA0C6091B00370E085E394E0DF9154
:1026F000CF910C943B0CDF91CF910895CF9300972D
:10270000A9F10E943420AC01990F660B770B413080
:1027100051406105710550F00E947D0F8091320497
:1027200065E177E0811116C0CF910895809367032A
:10273000C091320486FF13C041E060E480E40E944F
:10274000260A40E060E480E00E94260ACC2361F380
:1027500067E077E085E394E0CF910C94C10C0E9490
:10276000730B66EF76E0CC23F9F2F4CF6091670348
:1027700085E394E0CF910C94930CAF92BF92CF92EB
:10278000DF92EF92FF920F931F93CF93DF93CDB71A
:10279000DEB72F970FB6F894DEBF0FBECDBF5C013A
:1027A000CE0101967C010F96F70111928E179F07BB
:1027B000E1F7670100E0A114B104B1F58091640371
:1027C000898301E0670110E0C6018E199F09801717
:1027D00091070CF06EC060E0F60181916F010E94DC
:1027E000E80D882309F44DC08091320463EC75E054
:1027F000882399F185E394E02F960FB6F894DEBF15
:102800000FBECDBFDF91CF911F910F91FF90EF9041
:10281000DF90CF90BF90AF900C94C10CF6018193E4
:102820006F010F5F0F3071F268E072E0C5010023A5
:1028300011F090E080E00E9452200E943420882312
:10284000E9F09FEF980F9E3148F30E947D0F809131
:1028500032046CED75E08111CDCF2F960FB6F89450
:10286000DEBF0FBECDBFDF91CF911F910F91FF90C3
:10287000EF90DF90CF90BF90AF900895002369F361
:10288000A1CF88E00E94B20D882339F080913204F4
:102890006AEA75E0882309F3ADCF0E94DB0D882337
:1028A00009F492CF809132046EE875E08823A9F292
:1028B000A1CF82E00E94CE0A80913204882369F27F
:1028C00065E775E097CFCF93DF930097B1F10E9452
:1028D0003420EC018430910570F00E947D0F8091CE
:1028E0003204882391F160E773E085E394E0DF919F
:1028F000CF910C94C10C892B81F0809132048823F4
:1029000061F068E373E085E394E00E94C10C61E04C
:1029100073E085E394E00E94C10CC0936803C33068
:1029200011F010925D0380913204882371F065EFFD
:1029300072E085E394E00E94E9076091680385E313
:1029400094E0DF91CF910C94930CDF91CF91089597
:10295000CF93DF93009741F10E943420EC018F3F29
:10296000910579F070F00E947D0F809132048823E8
:1029700009F167E972E085E394E0DF91CF910C946F
:10298000C10C80936B0380913204882399F068ED29
:1029900072E085E394E00E94E907BE0185E394E0DC
:1029A000DF91CF910C943B0C60916B03062E000CD1
:1029B000770BF4CFDF91CF910895CF93DF930097FA
:1029C00069F10E943420EC018230910570F00E9480
:1029D0007D0F80913204882351F164E572E085E334
:1029E00094E0DF91CF910C94C10C817080936003CF
:1029F000809132048823D9F06AE772E085E394E09D
:102A00000E94E90760E272E0CD2B11F064E172E010
:102A100085E394E0DF91CF910C94AA0C6091600360
:102A200070E085E394E0DF91CF910C943B0CDF9153
:102A3000CF910895CF93DF93009709F43FC00E9490
:102A40003420EC018230910570F00E947D0F80915E
:102A500032048823E9F167E372E085E394E0DF91D3
:102A6000CF910C94C10C0197F1F081E08093620347
:102A700086E00E94CE0A0E94B50A80913204882323
:102A800039F16FE172E085E394E00E94E9076CE4BC
:102A900072E0CD2B11F061E472E085E394E0DF9108
:102AA000CF910C94AA0C82E08093620381E00E9493
:102AB000CE0A0E94B50A0E94350FDFCF60916203F3
:102AC0006150770B85E394E0DF91CF910C943B0C40
:102AD000DF91CF910895CF93DF93009769F10E9422
:102AE0003420EC018230910570F00E947D0F8091BE
:102AF0003204882351F165EE71E085E394E0DF91C3
:102B0000CF910C94C10C8170809361038091320449
:102B10008823D9F06BE072E085E394E00E94E90736
:102B200060E272E0CD2B11F064E172E085E394E0A5
:102B3000DF91CF910C94AA0C6091610370E085E362
:102B400094E0DF91CF910C943B0CDF91CF910895ED
:102B5000CF93DF93009739F10E943420EC01843049
:102B6000910570F00E947D0F80913204882319F145
:102B700063EB71E085E394E0DF91CF910C94C10C9D
:102B800080936603809132048823A9F068ED71E098
:102B900085E394E00E94E907BE0185E394E0DF91BC
:102BA000CF910C943B0C6091660385E394E0DF9138
:102BB000CF910C94930CDF91CF910895CF93DF9335
:102BC000009769F10E943420EC01019781159D471F
:102BD00058F00E947D0F8091320461E671E081110E
:102BE00018C0DF91CF910895D0936A03C093690311
:102BF000809132048823A9F36CE971E085E394E0C5
:102C00000E94E907BE0185E394E00E94010C6EE892
:102C100071E085E394E0DF91CF910C94C10C609159
:102C2000690370916A0385E394E0DF91CF910C947E
:102C30003B0CEF92FF920F931F93CF93DF93DC0136
:102C4000EC91E11109C0C1E08C2FDF91CF911F9170
:102C50000F91FF90EF900895E9017A018B0119829D
:102C600018820E943420998388838017910720F06E
:102C7000C0E0E816F90640F70E947D0FC0913204CB
:102C8000CC2309F368EE70E085E394E00E94E90745
:102C9000A80170E060E02AE085E394E00E94B50BB3
:102CA00062EE70E085E394E00E94E907B70185E3F6
:102CB00094E00E947D0CC8CFEF92FF920F931F9378
:102CC000CF93DF9300D000D0CDB7DEB7009709F4E3
:102CD0006EC068E072E00E945220FC012081211148
:102CE00024C068E072E090E080E00E945220FC0185
:102CF0002081211130C063E572E090E080E00E9405
:102D000052208C01FC018081F12CE12C81112FC01B
:102D10000E947D0F809132046AEA78E0882381F076
:102D200085E394E00E94C10C0BC09E012F5F3F4FD2
:102D30004FEF50E062E070E00E941916882389F29C
:102D40000F900F900F900F90DF91CF911F910F91E7
:102D5000FF90EF9008959E012D5F3F4F40E355E7B0
:102D600070E060E00E9419168111EACFC4CF89811A
:102D70009A81E816F90620F7F80101900020E9F79A
:102D80003197BF01601B710B8091B003811103C0AB
:102D9000C8010E940E0E6B817C8190E080E00E9451
:102DA00056090E944F10FFEFEF1AFF0AE0CF0E9472
:102DB0007D0F80913204882319F267E978E0B0CF63
:102DC000CF93DF9300D0CDB7DEB7009709F464C08E
:102DD00068E072E00E9452209E012F5F3F4F4EE15B
:102DE00050E061E070E00E941916811113C08981E2
:102DF0009A81209163032817190689F40E947D0F98
:102E000080913204882331F065E271E085E394E03B
:102E10000E94C10C0F900F90DF91CF910895809385
:102E2000640380913204882361F065E071E085E3FA
:102E300094E00E94E90769817A8185E394E00E9429
:102E40007D0C109265031A82198268E072E090E0AE
:102E500080E00E9452200097E9F29E012F5F3F4FD1
:102E60004EE750E060E670E00E9419168111D2CF63
:102E700089818093650380913204882359F266E545
:102E800072E085E394E00E94A60B69817A8185E374
:102E900094E00E947D0CBECF4091640350E070E04E
:102EA00060E02AE085E394E00E94B50B8091650321
:102EB000882381F063E071E085E394E00E94E907F4
:102EC0004091650350E070E060E02AE085E394E023
:102ED0000E94B50B85E394E00E94370C9BCFCF9303
:102EE000DF93009761F1DC010D900020E9F7AD015F
:102EF00041505109ECE6F3E020E3DF011D922A95F1
:102F0000E9F7481B590B4033510510F04FE250E0F0
:102F1000EC01BC018CE693E00E94F9208091320420
:102F2000882369F063E278E085E394E00E94E90792
:102F3000BE0185E394E0DF91CF910C94AA0CDF9160
:102F4000CF910895FF920F931F93CF93DF930FE5D7
:102F500013E0D0E0C0E0F801F1908F01CE010E94B3
:102F60008620F81621F06F2DCE010E948E2021962A
:102F7000C034D10581F780913204882331F067E4B1
:102F800077E085E394E00E94E9078091320488238A
:102F900059F067E577E085E394E0DF91CF911F91E9
:102FA0000F91FF900C94C10CDF91CF911F910F9165
:102FB000FF9008956F927F928F929F92AF92BF92EF
:102FC000CF92DF92EF92FF920F931F93CF93DF93F5
:102FD000CDB7DEB760970FB6F894DEBF0FBECDBF9A
:102FE0004C01188A8E010F5F1F4F6E0180E1C80EE1
:102FF000D11CF80158011192CE16DF06E1F7F12C31
:103000008114910409F058C0809164038983E12CF4
:10301000FF24F3948FE30E94B20D811187C0809149
:103020006303805E0E94B20D811180C088E10E941E
:10303000B20D81117BC010E000E08F2C912C08159F
:1030400019050CF0CEC0702EE11004C0F501E00FA0
:10305000F11F708080916303871509F4BFC080E47D
:10306000870D0E94B20D811161C085E00E94CE0AD9
:10307000C6010E943B0D8111A7C0688981E08F15B0
:1030800008F082C066FFAAC069E876E085E394E0B4
:103090000E94E907B80185E394E00E94010C67E80B
:1030A00076E085E394E00E94E907688985E394E08F
:1030B0000E94930C840192C068E072E0C401FF207A
:1030C00011F090E080E00E9452203C0143E050E08B
:1030D00068E772E00E94EB20892B71F4E0903204E3
:1030E000EE2009F44EC06EEC76E085E394E00E9499
:1030F000C10C8EE1F82E8ECFF40101900020E9F78B
:103100003197E819F909339778F5C3010E94342003
:10311000882341F19FEF980F9E31E8F00E947D0FC8
:103120008091320460EA76E0811126C060960FB685
:10313000F894DEBF0FBECDBFDF91CF911F910F91ED
:10314000FF90EF90DF90CF90BF90AF909F908F90C7
:103150007F906F900895F80181938F01F394FFE0C1
:10316000FF12AACFE12C56CF0E947D0F809132042E
:103170006EE876E08823D1F285E394E00E94C10CEA
:10318000D5CFEE24E394B5CF85E394E00E94930C71
:1031900080913204882309F48DCF60E776E085E3DF
:1031A00094E00E94E907488950E070E060E02AE07E
:1031B00085E394E00E94B50B65E576E085E394E055
:1031C0000E94E907672D72CF80913204882331F085
:1031D00066E376E085E394E00E94C10C0F5F1F4F29
:1031E0002ECFEE2021F085E394E00E94370C89E198
:1031F0000E94B20D81119ACF8FE50E94B20D81110C
:1032000095CF8FE30E94B20D811190CF82E00E9492
:10321000CE0A82E00E94DA08892B59F481E080937B
:10322000A00380913204882309F480CF6FE176E017
:10323000A3CF1092A003F5CF88E792E00C94DA17A1
:10324000CF93DF93EC0183E00E94DA08892BA9F584
:10325000209731F143E050E068E772E0CE010E9430
:10326000EB20892B51F540E060E280E20E94260AC3
:1032700068E270E080E090E00E94560940E060EA79
:1032800080E00E94260A68E270E080E090E00E9400
:10329000560940E060E880E8DF91CF910C94260A5F
:1032A00060E0809164030E94E80D882349F08091DA
:1032B000320462E375E081110EC0DF91CF91089571
:1032C00081E00E94B20D882361F08091320488234E
:1032D000A1F36EE175E085E394E0DF91CF910C946A
:1032E000C10C0E94DB0D882339F08091320461E02B
:1032F00075E0882311F3EFCF82E0DF91CF910C943A
:10330000CE0ACF93DF93EC0183E00E94DA08892B89
:10331000D1F42097E9F043E050E068E772E0CE0195
:103320000E94EB20892B79F481E10E94B20D882361
:1033300051F080913204882331F063EE74E085E32C
:1033400094E00E94C10C82E0DF91CF910C94CE0AF0
:1033500060E0809164030E94E80D882349F0809129
:10336000320465EC74E081110EC0DF91CF910895B5
:1033700081E10E94B20D882361F08091320488239C
:10338000A1F368EA74E085E394E0DF91CF910C94B7
:10339000C10C0E94DB0D8823B1F28091320468E8F1
:1033A00074E0882311F3EFCFCF93DF9310925B0388
:1033B000109248030097A1F0EC01FC01019000205D
:1033C000E9F73197E81BF90B3497A0F080913204AC
:1033D000882331F069E174E085E394E00E94C10C38
:1033E000809168038330D9F481E080935D03DF919D
:1033F000CF91089543E050E06CE772E00E94EB202B
:10340000892B21F481E080935B03EACF81E08093F4
:103410004803CE010E94342080934703E1CFDF911F
:10342000CF910C944F10009751F043E050E060E8CA
:1034300072E00E94EB2069EB73E0892B61F08091D0
:103440006C0369EE73E0882331F06CE673E085E38A
:1034500094E00C94AA0C85E394E00C94C10C1F92A8
:103460000F920FB60F9211248F939F938091E100DA
:103470009091E100937F9093E10083FF0FC0109241
:10348000E90091E09093EB001092EC0092E39093AE
:10349000ED001092AF0398E09093F00082FF22C0FD
:1034A00093E09093E9009091F200992319F09AE348
:1034B0009093E80090915703992341F0909157031E
:1034C000915090935703911101C05D9A9091AE0372
:1034D000992341F09091AE0391509093AE039111D6
:1034E00001C0289A84FF18C08091E2008E7E81601E
:1034F0008093E2008091E1008F7E8093E1008091D3
:1035000058038E7E8061809358039F918F910F9016
:103510000FBE0F901F90189580FFF7CF8091E200AB
:103520008E7E80618093E2008091E1008E7E8093A8
:10353000E100809158038E7E8160E5CF1F920F924B
:103540000FB60F921124CF92DF92EF92FF920F935A
:103550001F932F933F934F935F936F937F938F931B
:103560009F93AF93BF93EF93FF93CF93DF93CDB729
:10357000DEB76C97DEBFCDBF1092E9008091E80006
:1035800083FF25C068E0CE0145960E94D50782EFF3
:103590008093E8008D8987FF39C09091E80090FF03
:1035A000FCCF982F907609F034C19E894F89588DB1
:1035B0002F89F88C911131C0803861F580915903C1
:1035C0008093F1001092F1008EEF8093E8006C96EA
:1035D0000FB6F894DEBF0FBECDBFDF91CF91FF9144
:1035E000EF91BF91AF919F918F917F916F915F917B
:1035F0004F913F912F911F910F91FF90EF90DF908E
:10360000CF900F900FBE0F901F9018959EEF909344
:10361000E800C7CF1092F100D5CF913059F4811155
:10362000D3CF4130510581F6809159038D7F80932E
:103630005903CACF933049F48111C6CF41305105A7
:1036400019F6809159038260F2CF953041F4809150
:10365000E80080FFFCCF20682093E300B5CF9630D0
:1036600009F0A9C00B8D1C8D22E01092E900109288
:10367000550310925403F2122EC01092530310926D
:1036800052030E94A4071F8299E09983FA8291E075
:103690009E8390EA98879AEF9987209154033091FE
:1036A0005503275F3F4F3C832B838D831092E900A6
:1036B0001092550310925403109353030093520336
:1036C00049E050E0BE016F5F7F4F80E00E947E07BF
:1036D0000E94A40779CF10935303009352030E94D2
:1036E0003107DC0112960D911C910115110509F4A9
:1036F00051C1D801ED91FC910480F581E02DBE010E
:103700006B5E7F4FC8010995009709F03EC1F80133
:1037100000851185EACFF3E0FF120EC08F89882360
:1037200009F440C0823061F440E860E18CE79CE03D
:103730000E941A1D811148CF81E28093EB0047CF90
:10374000813029F440E86BE080E79CE0F1CF8330E2
:1037500099F70E943107DC011296ED90FC908E01E2
:103760000F5F1F4F6801E114F10479F0D701ED916B
:10377000FC910680F781E02DB801C7010995080F7B
:10378000111DF701E084F184EECFD8011C92F601FF
:1037900001900020E9F73197BF016C197D0940E0E5
:1037A000C601C6CF6AE57CE0FB01449150E080E8A9
:1037B0000E947E0709CF973009F4BECF983021F4DC
:1037C00081E08093F10000CF993009F0FDCE837045
:1037D00009F0B2CFEEE0F1E081E031E096E3219133
:1037E000222371F08093E9003093EB00DF01119701
:1037F0002C912093EC009093ED008F5F873079F748
:103800008EE78093EA001092EA008F898093AF03DD
:10381000DBCE8B8D9C8D1092E90010925503109297
:1038200054039093530380935203898D811192C066
:103830008E899D89913A49F4813209F07DCF47E024
:1038400050E065E071E080E0B3CF913209F074CFD1
:10385000833269F48F89988DB0E0A0E080930101F4
:1038600090930201A0930301B0930401ADCE803286
:1038700069F48091E80082FFFCCF67E085E091E089
:103880000E94D5078BEF8093E8009ECE823209F02C
:103890009BCE8F8980930C01EEEFFFE78591949189
:1038A0008B3F9C4D51F1E0E0F8E080910501909153
:1038B0000601A0910701B0910801803B9440A10549
:1038C000B105F1F480910C0180FD1AC0EE3F8AE051
:1038D000F80789F587E797E79183808380916000F7
:1038E0008093560388E19BE00FB6F894A8958093E7
:1038F00060000FBE9093600067CEEEEFFAE0D5CF88
:10390000808191818737974709F05ECEA895809195
:10391000600088618093600080915603809360000E
:10392000EE3F2AE0F20789F08091FE0A9091FF0AAB
:103930009183808349CE808191818737980751F2A6
:103940009093FF0A8093FE0AC5CF1092FF0A10924F
:10395000FE0A3ACE0E943107DC0112960D911C91AD
:103960000115110509F4E8CED801ED91FC91019003
:10397000F081E02DBE016B5E7F4FC801099581117A
:1039800023CEF80100851185EBCF181619060CF42B
:103990001BCED2CEF1E0FF12BECE6EE57CE004CFAE
:1039A0001F920F920FB60F9211242F933F938F9374
:1039B0009F93AF93BF9380914A0390914B03A09143
:1039C0004C03B0914D033091490323E0230F2D3771
:1039D00058F50196A11DB11D2093490380934A0318
:1039E00090934B03A0934C03B0934D0380914E03EF
:1039F00090914F03A0915003B09151030196A11DE6
:103A0000B11D80934E0390934F03A0935003B09346
:103A10005103BF91AF919F918F913F912F910F9043
:103A20000FBE0F901F90189526E8230F0296A11D38
:103A3000B11DD2CFEF92FF920F931F93CF93DF93DD
:103A4000F82E192FE62E042F81E0860F880F0E9492
:103A5000500783E00E945007CF2DD12FEC0EFD2E92
:103A6000F11CCE15DF05B9F007FF13C0FE018491EC
:103A70000E945007182F80E00E9450078123219652
:103A80008111EFCFDF91CF911F910F91FF90EF90B8
:103A900008958881EDCF81E0F5CFE5E3F4E013826E
:103AA000128288EE93E0A0E0B0E084839583A68341
:103AB000B7838AEE91E0918380838FEF9FEF9587A4
:103AC00084870895CF93DF93CDB7DEB7C05CD1096B
:103AD0000FB6F894DEBF0FBECDBF789484B5826078
:103AE00084BD84B5816084BD85B5826085BD85B5A2
:103AF000816085BD80916E00816080936E00109220
:103B0000810080918100826080938100809181009A
:103B1000816080938100809180008160809380002B
:103B200080919100826080939100809191008160EA
:103B300080939100809190008160809390008091AB
:103B4000C10084608093C1008091C1008260809335
:103B5000C1008091C10081608093C1008091C30049
:103B600081608093C3008091C00082608093C00018
:103B70008091C20081608093C20080917A0084604D
:103B800080937A0080917A00826080937A0080919D
:103B90007A00816080937A0080917A0080688093B7
:103BA0007A001092AF03109259031092580380913B
:103BB000D70081608093D70080EA8093D80089B5D0
:103BC000806189BD89B5826089BD09B400FEFDCFE1
:103BD00061E070E080E090E00E9456098091D8009A
:103BE0008F7C80618093D8008091E000807F8093FB
:103BF000E0008091E1008E7E8093E1008DE0809373
:103C0000E200559A209A0FB6F894A895809160002A
:103C1000886180936000109260000FBEE5EDFCE0CB
:103C20002491E6EBFCE08491882399F090E0880FE2
:103C3000991FFC01E556F34FA591B491FC01E357A0
:103C4000F34F859194918FB7F894EC91E22BEC931C
:103C50008FBF60E08DE00E9403090E949C0B8FEFF4
:103C60009FEF90934204809341040E94880B90E060
:103C700080E00E9486208C3C89F43FE5E32E33E00F
:103C8000F32E10E000E0C8010E948620D7018D933A
:103C90007D010F5F1F4F00341105A9F7809162036A
:103CA000813029F486E00E94CE0A0E94B50A8091F4
:103CB0006203823039F481E00E94CE0A0E94B50A84
:103CC0000E94350F1092A1031092A0038E010F5F86
:103CD0001F4F6E01B1E8CB0ED11C9FE0292E312C75
:103CE00020E0422E20E0522E87E00E94DA0821E0F8
:103CF000892B09F020E02093A10382E00E94DA08DA
:103D000021E0892B09F020E02093A00385E394E0D3
:103D10000E9474087C01892B49F085E394E00E949D
:103D200032080E94C70F80933104F0CF8091310494
:103D3000813009F087C0A0909F03B12CA50161EBF1
:103D400073E0C8010E94C4200E949C0B10923104B1
:103D5000F801C50102979F01201B310B2817390775
:103D60001CF422812193F7CF800F911FFC01108258
:103D7000FE01EA0DFB1D108280913204882321F0A0
:103D800085E394E00E94370CD601E0E41D92EA95A9
:103D9000E9F78981813009F450C068E072E0C80118
:103DA0000E9452203C0184E1882E81E0982EB301CC
:103DB000D4018D919C910E94CD205C01892B09F446
:103DC00033C1BFEFEB1AFB0AE6E08E0E911CF3E263
:103DD000EF16F10461F70E947D0F2FC08FEFA81A34
:103DE000B80A68E072E090E080E00E9452204C0146
:103DF000DC018C91882369F0B1E0AB16B10429F0A5
:103E000063E072E0C6010E94E020B401C6010E9496
:103E1000E020892819F786E08E9DF0018F9DF00D36
:103E20001124EC5EFE4F0480F581E02DD6018C91CB
:103E3000882309F44DC0C60109958091320481118F
:103E40000E949B0F80916203823089F5809131043A
:103E50008230B1F480919F030E94A50F8091680386
:103E6000813011F40E944F1080916803823041F438
:103E700080913404882321F00E944F101092340462
:103E80008091A003882351F080915E03882331F054
:103E900090E080E00E94DA171092A00380916803FE
:103EA000833029F480915D0381110E944F1080912D
:103EB00062038130E1F480915C03882361F080919A
:103EC00031048230A1F480919F030E94A50F0FC09E
:103ED00090E080E0B1CFE090B003EE2091F00E943E
:103EE0004F1080913104823011F40E949C0BC1016B
:103EF0000197F1F74114510409F4F6CE0E94000035
:103F0000ECCEF090A103FF20D1F2198288E00E944C
:103F1000CE0AB12CA12C912C87E00E94DA08892BC3
:103F200011F5C8010E943B0D8111F6CF90916403F9
:103F3000898120E22827921301C0EF2C20E4282752
:103F4000921301C09F2C883151F0893151F08F3389
:103F500019F710925B03B3E0B0935A03DDCFAF2C97
:103F6000DBCFBF2CD9CFE1100E944F10992009F46C
:103F700042C0AA2009F44FC080913204882331F056
:103F800068E47DE085E394E00E94C10C80913204F6
:103F9000882361F06BE07DE085E394E00E94E9070F
:103FA0006091670385E394E00E94930C89E00E948E
:103FB000CE0A809167030E94D30C87E00E94CE0A4C
:103FC00080913204882331F06BE37DE085E394E057
:103FD0000E94C10C809167038F7B809367030E94CE
:103FE000730B80913204882391F061E27DE085E3D8
:103FF00094E00E94C10CBB2051F0809132048823D0
:1040000031F068E77DE085E394E00E94C10C87E031
:104010000E94CE0A54CF80913104823061F78091A2
:104020009F030E94A50FE7CF86E08E9DF0018F9D34
:10403000F00D1124EC5EFE4F8091620390E022812E
:10404000338182239323892B09F0C8CE0E947D0FF0
:1040500080913204882309F4F0CE67EE7CE085E39A
:1040600094E00E94C10CE9CEFC0188279927E894CE
:1040700021912032E9F3293010F02E30C8F32B3291
:1040800041F02D3239F4689404C00E947E20820FE2
:10409000911D219120532A30C0F31EF490958195F3
:1040A0009F4F089545E854E00E9457200895FA0173
:1040B000A191B081009719F41097E1F0CD01DC01D6
:1040C000CD010D90002011F4C00113C0FB0121911E
:1040D000222319F02015D9F7F3CFFB0121912015E8
:1040E00019F41E92119606C02223C1F70D900020EC
:1040F000A1F7D001FA01A193B08308957AE0979FC8
:10410000902D879F802D910D11240895F999FECF50
:1041100092BD81BDF89A992780B50895262FF99907
:10412000FECF1FBA92BD81BD20BD0FB6F894FA9A9A
:10413000F99A0FBE01960895A1E21A2EAA1BBB1B85
:10414000FD010DC0AA1FBB1FEE1FFF1FA217B30763
:10415000E407F50720F0A21BB30BE40BF50B661F79
:10416000771F881F991F1A9469F76095709580953D
:1041700090959B01AC01BD01CF010895EE0FFF1F8B
:104180000590F491E02D0994FB01DC0102C001903F
:104190000D9241505040D8F70895FB01DC018D91FC
:1041A00081341CF08B350CF4805E619161341CF01D
:1041B0006B350CF4605E861B611189F3990B0895D1
:1041C000FB01DC010D900020E9F7119701900D92A1
:1041D0000020E1F70895FB01DC014150504030F030
:1041E0008D910190801919F40020B9F7881B990B63
:1041F0000895FB01DC014150504048F001900D92C0
:104200000020C9F701C01D9241505040E0F70895C9
:04421000F894FFCF50
:1042140001FFFFFFFF00E100000000000000C1807B
:104224008100000085020300E0168A0202001C19C6
:104234001B030200631493020200520F9702020050
:10424400EE0E9B0203009A0B7C0203006B15A30283
:104254000300FF12A7020300A815AB020300A81471
:10426400B4020300DD14BF020200350FC3020200D2
:104274008119C70202002019CB0201003B13CF02AF
:104284000200B80ED50203001A15DA020200C30EAA
:10429400E0020200D419E5020200DE15F102020078
:1042A400B812F50202005C16FC020300010F0003C1
:1042B4000200BD1304030300A2170C0303006F17CD
:1042C4008D020200DA1714030200700C18030200B6
:1042D4004212200301007E132703010075122B03F1
:1042E4000300131A2F030300830F37030300A411E1
:1042F4003D030300DF11000000000D0889092E08AA
:1043040023087408320850080D0A00566572626F5B
:1043140073653A20003E2000200900535251206169
:1043240075746F204F4E00535251206175746F2085
:104334004F46460052454E2061737365727465643E
:104344000052454E20756E2D6173736572746564F9
:1043540000434F4E54524F4C4C455200444556492D
:104364004345000A0D0053657420646576696365EE
:10437400207365636F6E6461727920616464726531
:10438400737320746F3A2000616C6C00656F690070
:104394007265616C006164647200616C6C73706F4F
:1043A4006C6C00636C720064636C006465666175B8
:1043B4006C7400656F7200656F7300656F745F6382
:1043C40068617200656F745F656E61626C65006937
:1043D4006663006C6C6F006C6F63006C6F6E006DD5
:1043E4006163726F006D6F64650070706F6C6C0058
:1043F4007265616400726561645F746D6F5F6D7393
:104404000072656E00726570656174007273740089
:1044140074726700736176656366670073657476AA
:1044240073747200737271007372716175746F00CA
:1044340073746174757300746F6E007665720076C0
:104444006572626F736500746D6275730078646978
:04445400616700009C
:2070000055C000006EC000006CC000006AC0000068C0000066C0000064C0000062C0000043
:2070200060C000005EC00000F2C400005AC0000058C0000056C0000054C0000052C00000EE
:2070400050C0000078C000004CC000004AC0000048C0000046C0000044C0000042C00000BE
:2070600040C000003EC000003CC000003AC0000038C0000036C0000034C0000032C0000048
:2070800030C000002EC000002CC000002AC0000028C0000026C0000024C0000022C00000A8
:2070A00020C000001EC000001CC0000011241FBECFEFDAE0DEBFCDBF11E0A0E0B1E0E2E3BC
:2070C000FFE702C005900D92A83AB107D9F711E0A8EAB1E001C01D92AE3BB107E1F78FD30B
:2070E00026C78ECFF89410926F0010928100109285001092840081E085BF15BE47985D9AEB
:20710000289A0C94000008952091B2013091B3012F5F3F4F3093B3012093B201932F37FFA6
:2071200003C08EEF831B982F990F921710F447980895479A08951F920F920FB60F9211246E
:207140002F938F939F93EF93FF9310928500109284008091A8019091A901009741F00197D3
:207160009093A9018093A801892B09F45D9A8091AA019091AB01009741F001979093AB0126
:207180008093AA01892B09F4289AE0E0F0E0859194918F5F9F4F49F08091AC019091AD0151
:2071A00001969093AD018093AC01FF91EF919F918F912F910F900FBE0F901F90189584E0BC
:2071C0008093E9000DC08091E8008B778093E80003C08EB3882351F08091E80082FFF9CFBE
:2071E0008091E80085FFEFCF8091F1000895982F83E08093E9008091E80085FD0DC0809136
:20720000E8008E778093E80003C08EB3882369F08091E80080FFF9CF9093F1005D9884E6CB
:2072200090E09093A9018093A80108954F925F926F927F928F929F92AF92BF92CF92DF921E
:20724000EF92FF920F931F93CF93DF9384E08093E9008091E80082FF57C2289884E690E067
:207260009093AB018093AA01AADF182F853481F48CE49DE19093AD018093AC0107B600FC4B
:20728000FDCFF999FECF81E180935700E89503C0843519F494DF8DE00DC28C34E1F38035F9
:2072A000D1F3843721F484E4A2DF80E003C2813611F489E5FFC18134B1F481DF182F7FDFE3
:2072C00090E0880F991FAA2797FDA095BA2F312F330F20E0442737FD4095542F822B932B68
:2072E000A42BB52BB8C1803711F483E5E3C1833549F4C0E0D1E089917ADF21E0C730D20714
:20730000D1F7D9C1863521F481E371DF80E3D2C1833731F487E86BDF85E969DF8EE1CAC149
:207320008536B9F4E0E0F0E093E085E090935700E89507B600FCFDCF80935700E89507B65D
:2073400000FCFDCFE058FF4FA0E7E030FA0771F7A2CF823739F4E1E0F0E089E08093570024
:207360008491A8C1863439F4E0E0F0E089E08093570084919FC18E3439F4E3E0F0E089E0E5
:2073800080935700849196C1813539F4E2E0F0E089E08093570084918DC1823631F489E521
:2073A00026DF80E024DF80E885C1823419F0873609F0E5C01092AD011092AC0100DF082FE8
:2073C000FEDEF82EFCDE682E8554823008F071C1902F80E0CF2DD0E0C82BD92B10926F00B3
:2073E000173609F04BC081E180935700E895DD24CC24C3943FC0E090AE01F090AF010091CC
:20740000B0011091B101B6E46B16D9F4ED2DF0E0EE29FF29E4918E2FEADEDD2081F082E08D
:2074200090E0A0E0B0E0E80EF91E0A1F1B1FE092AE01F092AF010093B0011093B101DC2470
:2074400018C0D801C701B695A7959795879559D5CEDE82E090E0A0E0B0E0E80EF91E0A1FF2
:207460001B1FE092AE01F092AF010093B0011093B1012197209709F0BECF7DC08090AE01F5
:207480009090AF01A090B001B090B10196E4691609F05DC083E0F40180935700E89507B63E
:2074A00000FCFDCF54C0F6E46F1661F5772031F1E090AE01F090AF010091B0011091B1019E
:2074C0007EDED82ECC24852D90E08C299D29F7010C0140925700E895112482E090E0A0E08B
:2074E000B0E0E80EF91E0A1F1B1FE092AE01F092AF010093B0011093B10102C060DE582E1A
:20750000742423C0E090AE01F090AF010091B0011091B10116950795F794E79450DE682FFA
:20752000C701F7D48091AE019091AF01A091B001B091B1010296A11DB11D8093AE01909349
:20754000AF01A093B001B093B101219704C05524772444244394209709F0A5CF96E46916B6
:2075600041F485E0F40180935700E89507B600FCFDCF8DE03CDE82E080936F009CC0833492
:2075800071F40091AE011091AF0119DE90E021E0F8010C0120935700E89511247CCE8336C8
:2075A00019F5E090AE01F090AF010091B0011091B10105DEF701E16090E021E00C0120938C
:2075C0005700E895112482E090E0A0E0B0E0E80EF91E0A1F1B1FE092AE01F092AF0100936A
:2075E000B0011093B10157CE8D3661F4E091AE01F091AF0185E080935700E89507B600FCF2
:20760000FDCF49CE823551F4E091AE01F091AF0105911491812FEBDD802F4CC0843421F5FE
:20762000E090AE01F090AF010091B0011091B10116950795F794E794C2DD682FC70169D4DE
:207640008091AE019091AF01A091B001B091B1010296A11DB11D8093AE019093AF01A093D8
:20766000B001B093B10117CE843609F5E090AE01F090AF010091B0011091B101D801C70142
:20768000B695A795979587953CD4B1DD82E090E0A0E0B0E0E80EF91E0A1F1B1FE092AE010A
:2076A000F092AF010093B0011093B10104C08B3111F08FE39CDD83E08093E9009091E8002B
:2076C0008091E8008E778093E80095FF04C010C08EB38823C9F08091E80080FFF9CF809193
:2076E000E8008E778093E80003C08EB3882361F08091E80080FFF9CF84E08093E9008091F1
:20770000E8008B778093E800DF91CF911F910F91FF90EF90DF90CF90BF90AF909F908F90AC
:207720007F906F905F904F9008959091B601892F8F77813249F58091B7018032A1F081328A
:2077400019F5913A09F58091E800877F8093E8008DE091E067E070E00BD28091E8008B770B
:207760008093E8000895913279F48091E800877F8093E8008DE091E067E070E05DD2809192
:20778000E8008E778093E800089582E061EC42E0B5D083E061E842E1B1D084E060E842E1EF
:2077A000ADC084B7877F84BF88E10FB6F89480936000109260000FBE20E880E090E00FB63F
:2077C000F89420936100809361000FBE81E085BF92E095BF3F9A209A559AE1E6F0E02083A1
:2077E000108247985D9A289A109289008AEF8093880090936F0083E080938100F0C0409116
:20780000000850910108109201081092000894B714BE88E10FB6F8948093600010926000D5
:207820000FBE292F30E0F901E270F07091FD18C090FF05C0859194918F5F9F4F81F423FFFF
:207840000FC08091090190910A014817590741F0E0E0F0E0859194918F5F9F4F09F042DC64
:20786000A0DF78941092AD011092AC010CC0DEDC36D38091AC019091AD0181549F4110F00D
:207880001092140141DC80911401882381F78091E00081608093E00025DC80E090E0089598
:2078A000FA01923049F0933061F09130F9F485E191E022E130E01EC087E291E02EE330E04D
:2078C00019C0882329F485E691E024E030E012C0813029F489E691E022E230E00BC0823006
:2078E00029F48DE891E028E130E004C080E090E020E030E091838083C90108958093E9004E
:207900008091EB0081608093EB001092ED006093EC004093ED008091EE00881F8827881F62
:2079200008958091B60188238CF403C08EB38823B1F08091E80082FFF9CF8091E8008B772A
:207940008093E80008958EB3882349F08091E80080FFF9CF8091E8008E778093E800089594
:20796000EF92FF920F931F9345D04CD008ED10E0F80180818F77808380818068808380819B
:207980008F7D808319BC1EBA1092B40180EEE82EF12CF70180818B7F8083F8018081816052
:2079A000808380E060E042E0A9DFE1EEF0E080818E7F8083E2EEF0E0808181608083808144
:2079C00088608083F70180818E7F8083F8018081806180831F910F91FF90EF900895E7ED06
:2079E000F0E08081816080838AE482BF81E08093B501B6CFE8EDF0E080818E7F808310921C
:207A0000E20008951092DA001092E10008951F920F920FB60F9211242F933F934F935F93F6
:207A20006F937F938F939F93AF93BF93EF93FF938091DA0080FF1BC08091D80080FF17C0B2
:207A40008091DA008E7F8093DA008091D90080FF0BC080E189BD82E189BD09B400FEFDCF36
:207A600081E08EBB3BD203C019BC1EBA37D28091E10080FF17C08091E20080FF13C0809138
:207A8000E2008E7F8093E2008091E20080618093E2008091D80080628093D80019BC85E049
:207AA0008EBB1CD28091E10084FF2CC08091E20084FF28C080E189BD82E189BD09B400FEC5
:207AC000FDCF8091D8008F7D8093D8008091E1008F7E8093E1008091E2008F7E8093E20012
:207AE0008091E20081608093E2008091B401882331F48091E30087FD02C081E001C084E067
:207B00008EBBECD18091E10083FF21C08091E20083FF1DC08091E100877F8093E10082E06A
:207B20008EBB1092B4018091E1008E7F8093E1008091E2008E7F8093E2008091E2008061E9
:207B40008093E20080E060E042E0D8DEC7D1FF91EF91BF91AF919F918F917F916F915F9130
:207B60004F913F912F910F900FBE0F901F9018959C014091BC015091BD014617570718F49D
:207B8000F90190E044C06115710511F0AB01F8CF8091E8008E778093E80040E050E0F0CF0F
:207BA0008EB3882309F444C0853009F443C08091E80083FF02C081E008958091E80082FD70
:207BC00031C08091E80080FF22C08091F3009091F200782F60E0292F30E0262B372B07C07A
:207BE00081918093F100415050402F5F3F4F4115510519F02830310598F390E02830310566
:207C000009F491E08091E8008E778093E8004115510531F6992321F605C08EB3882341F075
:207C2000853041F08091E80082FFF7CF80E0089582E0089583E008959C016115710529F47C
:207C40008091E8008B778093E800F90126C08EB3882391F1853091F18091E80083FF02C06C
:207C600081E008958091E80082FFF1CF06C08091F10081936150704059F02091F300809191
:207C8000F200322F20E090E0822B932B892B79F78091E8008B778093E80061157105B9F601
:207CA00005C08EB3882341F0853041F08091E80080FFF7CF80E0089582E0089583E00895C2
:207CC0000F931F93DF93CF9300D0CDB7DEB7E6EBF1E08091F100819381E0EE3BF807C9F792
:207CE00024DD8091E80083FFE4C08091B6019091B701953009F46DC0963040F4913081F1A7
:207D0000913070F0933009F0D4C02AC0983009F4A3C0993009F4B2C0963009F0CAC07CC023
:207D2000803809F4C6C0823809F0C3C08091BA0187708093E9008091EB001092E9002091DB
:207D4000E800277F2093E80090E025E0969587952A95E1F781708093F1001092F10087C0D8
:207D6000882319F0823009F0A4C08F71823009F0A0C08091B801882331F52091BA01277097
:207D800009F497C02093E9008091EB0080FF1BC0933021F48091EB00806213C08091EB0018
:207DA00080618093EB0081E090E002C0880F991F2A95E2F78093EA001092EA008091EB00E5
:207DC00088608093EB001092E9008091E800877F51C0882309F06DC01091B8011F770FB79B
:207DE000F8948091E800877F8093E8009ADD8091E80080FFFCCF8091E3008078812B809398
:207E0000E30080688093E300112311F482E001C083E08EBB0FBF4DC08058823008F049C033
:207E20008091B8019091B9016091BA01AE014F5F5F4F36DDBC01009709F43BC08091E8008E
:207E4000877F8093E80089819A8192DE8091E8008B778093E8002DC0803859F58091E800AA
:207E6000877F8093E8008091B4018093F1008091E8008E778093E80054DD1BC08823C9F4CA
:207E80009091B8019230A8F48091E800877F8093E8009093B40145DD8091B401882331F420
:207EA0008091E30087FD02C081E001C084E08EBB6CDC8091E80083FF0AC08091EB0080624E
:207EC0008093EB008091E800877F8093E8000F900F90CF91DF911F910F91089508951F9360
:207EE0008EB3882361F01091E9001092E9008091E80083FF01C0E4DE17701093E9001F916F
:207F00000895F999FECF92BD81BDF89A992780B50895262FF999FECF1FBA92BD81BD20BDBD
:207F20000FB6F894FA9AF99A0FBE01960895F894FFCF4341544552494E4100777700080031
:207F40000000000000080112011001020000084123360001000201000109023E00020100FF
:207F600080320904000001020201000524001001042402040524060001070582030800FF0C
:207F800009040100020A000000070504021000010705830210000104030904220341007216
:207FA000006400750069006E006F0020004C0065006F006E006100720064006F0000001836
:1A7FC00003410072006400750069006E006F0020004C004C004300000000D7
:00000001FF
