:100000000C942D050C9455050C9455050C94550530
:100010000C9455050C9442190C9455050C945505F7
:100020000C9455050C9455050C9455050C945505E8
:100030000C9455050C9455050C9455050C945505D8
:100040000C94F8180C9455050C94C6180C94A01830
:100050000C9455050C9455050C9455050C945505B8
:100060000C9455050C9455054552524F52202D20A5
:10007000436F6D6D616E6420627566666572206F98
:10008000766572666C6F772100556E7265636F6777
:100090006E697A656420636F6D6D616E64002061C6
:1000A0006E64200056616C69642072616E67652021
:1000B0006973206265747765656E20002000536562
:1000C0007420646576696365207072696D61727908
:1000D000206164647265737320746F3A2000546801
:1000E0006174206973206D79206164647265737333
:1000F000212041646472657373206F6620612072F1
:10010000656D6F7465206465766963652069732029
:1001100072657175697265642E00206D696C6C6919
:100120007365636F6E647300536574205B72656101
:10013000645F746D6F5F6D735D20746F3A20005360
:10014000657420454F5320746F3A20005365742026
:10015000454F4920617373657274696F6E3A200070
:10016000496E74657266616365206D6F64652073A6
:10017000657420746F3A2000417070656E64696E1A
:1001800067206F6620454F54206368617261637415
:1001900065723A2000454F542073657420746F20B7
:1001A0004153434949206368617261637465723ADF
:1001B00020004175746F206D6F64653A2000202027
:1001C00020202020202020276164647265737365DD
:1001D0006420746F2074616C6B20627574206E6F84
:1001E0007468696E6720746F207361792720657267
:1001F000726F7273005741524E494E473A206175F3
:10020000746F6D6F6465204F4E2063616E20636173
:1002100075736520736F6D652064657669636573BA
:1002200020746F2067656E65726174650041523499
:100230003838204750494220636F6E74726F6C6C7F
:1002400065722C207665722E20302E34392E313492
:100250002C2030322F30332F3230323100415234A3
:100260003838204750494220636F6E74726F6C6C4F
:1002700065722C207665722E20302E34392E313462
:100280002C2030322F30332F3230323100496E760D
:10029000616C6964207465726D696E6174696F6EFA
:1002A00020636861726163746572202D2069676ED6
:1002B0006F72656421004661696C656420746F200B
:1002C000756E74616C6B20475049422062757300F3
:1002D0004661696C656420746F2073656E64205399
:1002E0004443004661696C656420746F20616464F6
:1002F0007265737320646576696365004661696C35
:10030000656420746F20756E6C697374656E2074FB
:100310006865204750494220627573004661696CE8
:10032000656420746F2073656E64204C4C4F20749C
:100330006F20646576696365004661696C65642059
:10034000746F2061646472657373207468652064DF
:1003500065766963652E004661696C656420746F1B
:100360002073656E6420756E6976657273616C20AA
:100370004C4C4F2E004661696C656420746F20758B
:100380006E6C697374656E204750494220627573C4
:100390002E004661696C65642073656E64696E67E2
:1003A000204C4F432E004661696C656420746F20B9
:1003B00061646472657373206465766963652E0099
:1003C000494643207369676E616C2061737365727F
:1003D00074656420666F7220313530206D696372F8
:1003E0006F7365636F6E64730047726F757020740E
:1003F00072696767657220636F6D706C65746564A0
:100400002E004661696C656420746F20756E6C699E
:100410007374656E204750494220627573004661CF
:10042000696C656420746F207472696767657220F7
:10043000646576696365004661696C656420746F04
:100440002061646472657373206465766963650016
:100450005265736574204641494C45442E005365EE
:100460007269616C20706F6C6C20636F6D706C656D
:100470007465642E004661696C656420746F207237
:100480006574726965766520737461747573206232
:10049000797465005D2066726F6D206465766963AE
:1004A0006520617420616464726573733A20005240
:1004B0006563656976656420737461747573206221
:1004C000797465205B002C005352513A00496E76D6
:1004D000616C696420706172616D6574657200534E
:1004E000657269616C20706F6C6C206F6620616C46
:1004F0006C206465766963657320726571756573D8
:100500007465642E2E2E0053525120756E2D61732A
:100510007365727465642E00535251206173736564
:10052000727465642E0053657474696E677320730A
:10053000617665642E004C4F4E3A200053656E6420
:10054000696E672044434C206661696C65640053A2
:10055000657420454F5220746F3A200050617261DB
:100560006C6C656C20706F6C6C20636F6D706C656B
:100570007465642E0052454E3A2000544F4E3A2086
:10058000004D697373696E6720706172616D657487
:10059000657273004D697373696E67207061726173
:1005A0006D657465720044697361626C65640049CD
:1005B0006E76616C69643A20303D646174612062DA
:1005C00075733B20313D636F6E74726F6C20627582
:1005D0007300546D4275732073657420746F3A20F4
:1005E0000053657269616C206E756D626572206D75
:1005F000757374206E6F7420657863656564203947
:10060000206368617261637465727321004C656E6A
:10061000677468206F66206E616D65206D757374F8
:10062000206E6F74206578636565642031352063C2
:1006300068617261637465727321004C656E6774E2
:1006400068206F662076657273696F6E20737472AE
:10065000696E67206D757374206E6F7420657863A2
:100660006565642034382063686172616374657203
:100670007321005665725374723A200020776974B2
:10068000682073657269616C206E756D62657200B9
:1006900053656E64696E672049444E3A20002074A9
:1006A0006F20646576696365006770696253656E83
:1006B00064436D643A206661696C656420746F20E0
:1006C00073656E6420636F6D6D616E64200067708A
:1006D000696253656E64446174613A204661696C75
:1006E000656420746F20756E74616C6B2062757325
:1006F0000054696D656F75742077616974696E6700
:1007000020666F72207472616E7366657220746FFA
:1007100020636F6D706C657465210054696D656F41
:1007200075742077616974696E6720666F722073D3
:10073000656E6465722100454F4920646574656388
:100740007465642100427974657320726561643A4E
:10075000200020746F2074616C6B004661696C65C9
:100760006420746F206164647265737320746865BB
:1007700020646576696365006770696252656164CB
:10078000427974653A2074696D656F75742077617C
:100790006974696E672044415620746F20676F202A
:1007A00048494748006770696252656164427974DC
:1007B000653A2074696D656F757420776169746935
:1007C0006E6720666F722044415620746F20676FF9
:1007D000204C4F570067706962577269746542799F
:1007E00074653A2074696D656F75742077616974FA
:1007F000696E6720666F7220646174612061636353
:100800006570746564207369676E616C202D205B70
:100810004E44414320756E61737365727465645D07
:1008200000677069625772697465427974653A202D
:1008300074696D656F75742077616974696E67207E
:10084000666F72206461746120746F20626520613C
:1008500063636570746564202D205B4E52464420AE
:1008600061737365727465645D0067706962577265
:10087000697465427974653A2074696D656F757441
:100880002077616974696E6720666F722072656394
:100890006569766572207265616479202D205B4EF2
:1008A00052464420756E61737365727465645D00B1
:1008B000677069625772697465427974653A207429
:1008C000696D656F75742077616974696E672066FC
:1008D0006F722072656365697665722061747465F4
:1008E0006E74696F6E205B4E444143206173736583
:1008F000727465645D006770696253656E6444611B
:1009000074613A204661696C656420746F20756E6D
:100910006C697374656E206275730020746F206C4F
:10092000697374656E006770696253656E644461D3
:1009300074613A206661696C656420746F2061643B
:1009400064726573732064657669636520000000D6
:10095000000023002600290000000008000201001A
:100960000003040700000000000000000000000079
:10097000250028002B0000000000240027002A008A
:100980000404040404040404020202020202030335
:10099000030303030102040810204080010204083D
:1009A0001020010204081020436F6D6D616E6420F9
:1009B0006E6F7420617661696C61626C6520696E2E
:1009C0002074686973206D6F64652E0053656E64D2
:1009D000696E672073746174757320627974653A07
:1009E00020005352512062697420636C6561726506
:1009F000642028696620736574292E00537461741D
:100A000075732073656E742E0053657269616C2076
:100A1000706F6C6C2072657175657374207265639C
:100A200065697665642066726F6D20636F6E74729F
:100A30006F6C6C6572202D3E003C2D2073657269D1
:100A4000616C20706F6C6C207265717565737420B9
:100A5000656E6465642E0000711911241FBECFEF0E
:100A6000D8E0DEBFCDBF25E0AEE7B3E001C01D9208
:100A7000AE30B207E1F713E0A0E0B1E0E0E3F1E46B
:100A800002C005900D92AE37B107D9F715E0CDE25F
:100A9000D5E004C02197FE010E944A1DCC32D10747
:100AA000C9F70E94A4190C9496200C940000E9E167
:100AB000F4E06DE674E02FEF3FEF81918327982FEC
:100AC00092959F708927482F50E0922F9A01322FDC
:100AD00022273295307F822793279A01B5E0220F93
:100AE000331FBA95E1F7282739276E177F0729F7B3
:100AF000C90108958230910538F0880F991F880F39
:100B0000991F05970197F1F70895DC01ED91FC918C
:100B10000190F081E02D0994EF92FF920F931F93C3
:100B2000CF93DF938C017B01D0E0C0E0F701EC0FA5
:100B3000FD1F6491662361F0D801ED91FC91019055
:100B4000F081E02DC8010995892B11F02196EECF97
:100B5000CE01DF91CF911F910F91FF90EF900895FB
:100B6000AF92BF92CF92DF92EF92FF920F931F93BB
:100B7000CF93DF936C017B018B01040F151FEB01F9
:100B80005E01AE18BF08C017D10759F06991D601B0
:100B9000ED91FC910190F081E02DC6010995892B22
:100BA00079F7C501DF91CF911F910F91FF90EF90E1
:100BB000DF90CF90BF90AF900895FC01538D448D8E
:100BC000252F30E0842F90E0821B930B541710F0F8
:100BD000CF96089501970895FC01918D828D981705
:100BE00061F0A28DAE0FBF2FB11D5D968C91928DDD
:100BF0009F5F9F73928F90E008958FEF9FEF08950E
:100C0000FC01918D828D981731F0828DE80FF11DD6
:100C1000858D90E008958FEF9FEF0895FC01918DF1
:100C2000228D892F90E0805C9F4F821B91098F73EA
:100C3000992708958DE694E00E940E0621E0892B05
:100C400009F420E0822F089580E090E0892B29F0BC
:100C50000E941A0681110C9400000895FC01A48DD5
:100C6000A80FB92FB11DA35ABF4F2C91848D90E0CE
:100C700001968F739927848FA689B7892C93A089B1
:100C8000B1898C91837080648C93938D848D98133B
:100C900006C00288F389E02D80818F7D80830895CE
:100CA000EF92FF920F931F93CF93DF93EC0181E0BC
:100CB000888F9B8D8C8D98131AC0E889F989808163
:100CC00085FF15C09FB7F894EE89FF896083E88996
:100CD000F98980818370806480839FBF81E090E088
:100CE000DF91CF911F910F91FF90EF900895F62E15
:100CF0000B8D10E00F5F1F4F0F731127E02E8C8DAF
:100D00008E110CC00FB607FCFACFE889F9898081F3
:100D100085FFF5CFCE010E942E06F1CFEB8DEC0FB3
:100D2000FD2FF11DE35AFF4FF0829FB7F8940B8F10
:100D3000EA89FB8980818062CFCFCF93DF93EC017A
:100D4000888D8823B9F0AA89BB89E889F9898C91B3
:100D500085FD03C0808186FD0DC00FB607FCF7CF6F
:100D60008C9185FFF2CF808185FFEDCFCE010E946F
:100D70002E06E9CFDF91CF910895833081F028F4DA
:100D8000813099F08230A9F008958730A9F0883039
:100D9000C9F08430B1F4809180008F7D03C08091D0
:100DA00080008F7780938000089584B58F7784BD0D
:100DB000089584B58F7DFBCF8091B0008F778093AD
:100DC000B00008958091B0008F7DF9CFCF93DF936D
:100DD000282F30E0F901E85AF64F8491F901EC56DA
:100DE000F64FD491F901E058F64FC491CC23A1F00D
:100DF00081110E94BD06EC2FF0E0EE0FFF1FE25BB9
:100E0000F64FA591B491EC91ED2381E090E009F4C7
:100E100080E0DF91CF91089580E090E0FACF1F93BA
:100E2000CF93DF93282F30E0F901E85AF64F8491F1
:100E3000F901EC56F64FD491F901E058F64FC49100
:100E4000CC23A9F0162F81110E94BD06EC2FF0E0F3
:100E5000EE0FFF1FE459F64FA591B4918FB7F894A8
:100E6000EC91111108C0D095DE23DC938FBFDF9188
:100E7000CF911F910895DE2BF8CF3FB7F894809162
:100E8000870390918803A0918903B0918A0326B5C6
:100E9000A89B05C02F3F19F00196A11DB11D3FBFB2
:100EA000BA2FA92F982F8827BC01CD01620F711D81
:100EB000811D911D42E0660F771F881F991F4A957B
:100EC000D1F708958F929F92AF92BF92CF92DF9207
:100ED000EF92FF926B017C010E943D074B015C0188
:100EE000C114D104E104F104B9F00E943D0768196E
:100EF00079098A099B09683E73408105910580F351
:100F000021E0C21AD108E108F10888EE880E83E0DA
:100F1000981EA11CB11CE4CFFF90EF90DF90CF9002
:100F2000BF90AF909F908F900895CF93DF93562FEF
:100F30005F71A82FB0E0C62FD0E0FE0194E0F595D8
:100F4000E7959A95E1F7E4706078E62BD595C7951B
:100F5000D595C795C870EC0F752F709558236E2FD7
:100F600060959D01F4E035952795FA95E1F7247099
:100F70008078282BB595A795B595A795A8702A0FC9
:100F80002E23413059F095B19723952B95B98BB10C
:100F90008623282B2BB9DF91CF91089594B1972305
:100FA000952B94B98AB18623282B2AB9F4CF9AB10C
:100FB00090639AB997B19F6397B9809598B1907CE7
:100FC000282F2F73922B98B99BB1869586958073A5
:100FD0009F7C892B8BB9089599B126B134E0939FFA
:100FE000C0011124807C2F73822B8095089582503C
:100FF000883078F4E82FF0E0EF5FF74F41E00C9491
:101000004A1D120819083008280833083B0842080E
:101010004A0841E06FEF88EB0E94950740E06FEFD0
:101020008FED0EC06EE988EB0E94950740E06EE9F7
:10103000F7CF6FE989EB0E94950740E06FE98FE5F4
:101040000E94950780915504909156040C947A055E
:101050006EE986EA0E94950740E06EE988EDF0CFE0
:101060006EE989EBE1CF6FEF80E00E94950740E0E9
:101070006FEF8FEFE5CF6EE080E00E94950740E0D4
:101080006EE0F7CF6EE086E00E94950740E06EE0EC
:1010900089EFD6CF6EE088E0F7CFBF92CF92DF9294
:1010A000EF92FF920F931F93CF93DF93C82FB62E2B
:1010B0002FB7F8948091830390918403A0918503C6
:1010C000B09186032FBF6A01550FEE08FF08C80EC6
:1010D000D91EEA1EFB1E87E00E94E6068C01D0E0C6
:1010E0008B2D0E94E6068C179D0721F12FB7F894EF
:1010F0008091830390918403A0918503B09186032E
:101100002FBF8C159D05AE05BF0558F081E0DF911E
:10111000CF911F910F91FF90EF90DF90CF90BF90F4
:10112000089501151105E1F687E00E94E606019792
:10113000B9F6ECCF80E0EBCF41E060E480E00E94C4
:10114000950740E060E480E40C9495079091930348
:10115000E92FF0E0EB56FC4F80839F5F9093930361
:101160000895E9E1F4E084E5DF011D928A95E9F74D
:1011700082E0828381E0848380EB94E092878187A0
:1011800008950C94B108FF920F931F93CF93DF93B0
:1011900009E114E0C2E0D0E0F801F1908F01CE0146
:1011A0000E94121DF81621F06F2DCE010E941A1D0B
:1011B0002196C635D10581F70E945705D82FC92F32
:1011C00090E080E00E94121DD81729F06D2F90E06A
:1011D00080E00E941A1D81E090E00E94121DC81755
:1011E00051F06C2F81E090E0DF91CF911F910F9132
:1011F000FF900C941A1DDF91CF911F910F91FF90DA
:101200000895CF93DF93EC0190E080E00E94121DDF
:10121000888381E090E00E94121D8983CE01DF91D6
:10122000CF910895FB0101900020E9F73197AF01BC
:10123000461B570BDC01ED91FC910280F381E02D00
:1012400009948F929F92AF92BF92EF92FF920F9369
:101250001F93CF93DF93CDB7DEB7A1970FB6F89466
:10126000DEBF0FBECDBF7C01FA01CB0119A2223037
:1012700008F42AE08E010F5D1F4F822E912CB12CB5
:10128000A12CBF01A50194010E94281DF901CA01EA
:101290006A300CF5605DD8016E938D01232B242BF1
:1012A000252B79F790E080E0109721F0BD01C70170
:1012B0000E941209A1960FB6F894DEBF0FBECDBFF3
:1012C000DF91CF911F910F91FF90EF90BF90AF9062
:1012D0009F908F900895695CDECF61EF71E00C9470
:1012E0001209CF92DF92EF92FF920F931F93CF9349
:1012F000DF938C016B01770FEE08FF08F7FE1FC02C
:101300006DE20E948505EC0144275527BA014C196E
:101310005D096E097F092AE0C8010E942109C80FF2
:10132000D91FC8010E946D098C0F9D1FDF91CF91BD
:101330001F910F91FF90EF90DF90CF9008952AE0DA
:10134000B701A6010E942109EC01EBCF82E00E94C7
:10135000E60661E070E0892B11F070E060E08DE658
:1013600094E00C9471090F931F93CF93DF93EC01DA
:10137000AB0170E060E02AE00E9421098C01CE01FF
:101380000E946D09800F911FDF91CF911F910F91E6
:1013900008950F931F93CF93DF93EC01462F50E0F6
:1013A00070E060E02AE00E9421098C01CE010E94D9
:1013B0006D09800F911FDF91CF911F910F910895BB
:1013C0000F931F93CF93DF93EC010E9412098C01BE
:1013D000CE010E946D09800F911FDF91CF911F9167
:1013E0000F9108950F931F93CF93DF93EC010E9409
:1013F0008C058C01CE010E946D09800F911FDF9139
:10140000CF911F910F910895CF93C82F409122043F
:101410005091230469E080E00E944D088823E9F0A0
:10142000C0911604C11112C0C1E040E068E088E03C
:101430000E94950780E00E94D70780915504909103
:1014400056040E947A058C2FCF91089560EB78E0C6
:101450008DE694E00E94F209E8CF40912204509179
:1014600023046AE081E00E944D08882339F0C0918E
:1014700016046AE678E0CC23B9F2EACF8C2F0E94FA
:10148000D70740E068E080E00E9495074091220481
:10149000509123046AE080E00E944D08882341F0C7
:1014A000C091160461E278E0CC2309F4BDCFD0CF1F
:1014B000409122045091230469E081E00E944D088C
:1014C000C82F882309F4B1CFC0911604CC2309F4A6
:1014D000ABCF65ED77E0BCCFEF92FF920F931F93F8
:1014E000CF93DF938C01EB0187E00E94E6067C013D
:1014F000188240E064E084E00E949507EF2891F4B0
:1015000087E00E94E606019769F440E064E080E02D
:101510000E94950783E0DF91CF911F910F91FF907B
:10152000EF90089540912204509123046BE080E0F5
:101530000E944D08882389F080911604882331F099
:1015400065EA77E08DE694E00E94F20940E064E00D
:1015500080E00E94950781E0DECF40E064E080E01B
:101560000E94950780918C03882339F08CE00E94BB
:10157000E606892B11F481E088830E94EC07F801CC
:10158000808340E062E082E00E949507409122045F
:10159000509123046BE081E00E944D08882361F0A4
:1015A00080911604882331F068E777E08DE694E0B7
:1015B0000E94F20982E0AFCF40E062E080E00E944A
:1015C000950780915504909156040E947A0580E019
:1015D000A2CFCF93DF93C82F83E00E94F7078C2F11
:1015E0000E94040AD82F8823C9F08091160488230A
:1015F000A9F069EA76E08DE694E00E948C054C2F14
:1016000050E070E060E020E18DE694E00E94210966
:101610006EE976E08DE694E00E94F2098D2FDF916D
:10162000CF91089583E790E00197F1F78FE30E944F
:10163000E90A811103C08FE50C94E90A0895CF935C
:10164000DF93C82FD62F8FE30E94E90A811119C0BA
:10165000DD2369F080E48C0F0E94E90A811111C03A
:1016600080911C04805EDF91CF910C94E90A80E2A6
:101670008C0F0E94E90A811104C080911C04805CD7
:10168000F2CF81E0DF91CF910895CF92DF92EF9278
:10169000FF920F931F93CF936C01E62E80911B0452
:1016A000823009F07EC080910001882349F160E01A
:1016B00080911D040E941F0B882311F18091160454
:1016C000882309F482C066E279E08DE694E00E9406
:1016D0008C0540911D0450E070E060E02AE08DE64A
:1016E00094E00E9421096BE179E08DE694E0CF91CE
:1016F0001F910F91FF90EF90DF90CF900C94F20923
:101700008091170491E089278093000184E00E9472
:10171000F7078601F12CC8018C199D098E159F05CC
:101720000CF043C0F80181918F010E94040AC82F78
:10173000882389F380911A04882389F08091170403
:1017400081110DC040E060E10E9495078BE990E0B7
:101750000197F1F740E060E180E10E9495078091F8
:101760001B04823001F5C11112C080910001882351
:1017700071F00E94120B882351F080911604882387
:1017800031F066EF78E08DE694E00E94F20982E0A5
:10179000CF911F910F91FF90EF90DF90CF900C941D
:1017A000F70789E0B4CF87E0F3CF80911F0481FD74
:1017B00003C08DE00E94040A80911F0480FD03C0D5
:1017C0008AE00E94040AC0E0B5CFCF911F910F912B
:1017D000FF90EF90DF90CF900895CF93DF9382E05A
:1017E0000E94F707CBE4D0E0CE010197F1F740E08B
:1017F00060E980E00E9495072197F1F70E94EC07CD
:10180000C82F82E00E94F7076C2F8DE694E00E94BB
:10181000C90980911604882341F06CE575E08DE6D6
:1018200094E0DF91CF910C94F209DF91CF9108956C
:1018300084E10E94E90A882351F0809116048823EC
:1018400049F06CE375E08DE694E00C94F20982E0D7
:101850000C94F70708950E94C3088091160488230A
:1018600031F066E275E08DE694E00C94F20908959B
:101870002FB7F8948091830390918403A0918503FE
:10188000B09186032FBF8053984FAF4FBF4F28E1D1
:101890003EE00FB6F894A895209360000FBE3093F9
:1018A00060002FB7F89440918303509184036091B6
:1018B0008503709186032FBF481759076A077B0776
:1018C00080F380911604882331F060E574E08DE6A2
:1018D00094E00C94F209089580911B048230C1F4C5
:1018E00040E061E080E00E94950783E592E0019787
:1018F000F1F740E061E081E00E94950780911604D5
:10190000882331F060EC73E08DE694E00C94F209EA
:10191000089560E080911D040E941F0B882339F018
:101920008091160463EE72E081110CC0089584E08A
:101930000E94E90A882351F0809116048823B1F3AC
:1019400060ED72E08DE694E00C94F2090E94120BB7
:10195000882339F08091160466EB72E0882331F316
:10196000F1CF82E00C94F70769E870E08DE694E02F
:101970000C94F2098091160491E089278093160453
:1019800064EF71E08DE694E00E94120980911604E4
:101990006CE472E0882311F060E472E08DE694E07C
:1019A0000C94E0098DE694E00E946D096EEF71E001
:1019B0008DE694E00C94120925E0FC0111922A9521
:1019C000E9F766EA75E08DE694E00C94F209E5E942
:1019D000F3E080E8DF011D928A95E9F71092930306
:1019E0000895E82FF0E0EC56FC4F90819F3319F4F6
:1019F00091E09093180490919403911105C0682F81
:101A000085E993E00E94450B8091170481111092A3
:101A100017048091160481110E94D20C0E94E70CD9
:101A2000109215040895CF93DF93EC0183E00E9498
:101A3000E606892BA9F5209731F143E050E061E0FB
:101A400072E0CE010E94941D892B51F540E060E2C6
:101A500080E20E94950768E270E080E090E00E94DA
:101A6000620740E060EA80E00E94950768E270E06B
:101A700080E090E00E94620740E060E880E8DF914B
:101A8000CF910C94950760E080911D040E941F0B7C
:101A9000882349F08091160466EA73E081110EC034
:101AA000DF91CF91089581E00E94E90A882361F0D7
:101AB000809116048823A1F362E973E08DE694E037
:101AC000DF91CF910C94F2090E94120B882339F018
:101AD0008091160465E773E0882311F3EFCF82E06D
:101AE000DF91CF910C94F707CF93DF93EC0183E064
:101AF0000E94E606892BD1F42097E9F043E050E0FC
:101B000061E072E0CE010E94941D892B79F481E19D
:101B10000E94E90A882351F080911604882331F04D
:101B200067E573E08DE694E00E94F20982E0DF91C0
:101B3000CF910C94F70760E080911D040E941F0B69
:101B4000882349F08091160469E373E081110EC087
:101B5000DF91CF91089581E10E94E90A882361F025
:101B6000809116048823A1F36CE173E08DE694E084
:101B7000DF91CF910C94F2090E94120B8823B1F2ED
:101B8000809116046CEF72E0882311F3EFCF009779
:101B900051F043E050E065E072E00E94941D6DE278
:101BA00072E0892B61F0809125046DE572E0882355
:101BB00031F065E274E08DE694E00C94E0098DE686
:101BC00094E00C94F209BF92CF92DF92EF92FF92D1
:101BD0000F931F93CF93DF93CDB7DEB72A970FB63E
:101BE000F894DEBF0FBECDBF009709F447C06AE08E
:101BF00072E00E94C91C7C01DC010D900020E9F715
:101C00006D01FD0101900020E9F731978F010A1B5A
:101C10001B0B46E050E06DE072E0002309F482C047
:101C20000E94941D892B69F5F09016048FEF800FA8
:101C30008F32E0F4E5E2F4E080E3DF011D928A9563
:101C4000E9F7A8015527B601CF010E94A21DFF2088
:101C500031F063E776E08DE694E00E948C0565E262
:101C600074E08DE694E00E94E00925C0FF2031F089
:101C70006BE376E08DE694E00E94F2090E94B40CDA
:101C80001AC044E050E064E172E0C7010E94941D74
:101C9000892B41F58FEF800F8F30E8F4E8E5F4E011
:101CA00080E1DF011D928A95E9F7A8015527B60169
:101CB000CF010E94A21D2A960FB6F894DEBF0FBE78
:101CC000CDBFDF91CF911F910F91FF90EF90DF90EB
:101CD000CF90BF900895809116046DE076E0882340
:101CE00069F2C8CF46E050E069E172E0C7010E94A6
:101CF000941D892B19F6B9E0B01760F0C6010E9457
:101D0000A21C609368047093690480936A049093A2
:101D10006B04D1CF8091160461EE75E0882309F43D
:101D2000ADCFA8CF0E94941D892B09F498CF44E031
:101D300050E064E172E0C7010E94941D892B19F400
:101D400068E574E08ECF46E050E069E172E0C701DB
:101D50000E94941D892B09F091CF8AE08E010F5FBC
:101D60001F4FF801982F11929A95E9F790916B0403
:101D70009F9390916A049F93909169049F9390918F
:101D800068049F9320E232E03F932F931F928F933A
:101D90001F930F930E94B11DB8018DE694E00E943D
:101DA000E0090FB6F894DEBF0FBECDBF84CFCF934E
:101DB000DF936AE072E00E94C91C0097B1F0FC0159
:101DC00001900020E9F73197E81BF90B349768F48C
:101DD0000E94841CC82F833048F06FEA75E08DE6BE
:101DE00094E0DF91CF910C94F209C0E06AE072E0D8
:101DF00090E080E00E94C91C0097C9F1FC010190AD
:101E00000020E9F73197E81BF90BD0E0349718F47C
:101E10000E94841CD82FCC23E1F041E06FEF8FEFBC
:101E20000E94950740E06FEF8D2F80950E949507E7
:101E300060E177E280E090E00E94620780911B04FD
:101E4000823029F481E0DF91CF910C94F70786E08E
:101E5000FACF8D2F0E94D70760E177E280E090E013
:101E60000E94620780E0DF91CF910C94D707DF9149
:101E7000CF910895EF92FF920F931F93CF93DF932B
:101E8000DC01EC91E11109C0C1E08C2FDF91CF9111
:101E90001F910F91FF90EF900895E9017A018B0156
:101EA000198218820E94841C998388838017910765
:101EB00020F0C0E0E816F90640F70E94B40CC0918B
:101EC0001604CC2309F364EA70E08DE694E00E94E6
:101ED0008C05A80170E060E02AE08DE694E00E94A5
:101EE00021096EE970E08DE694E00E948C05B7014F
:101EF0008DE694E00E94B309C8CFCF93DF9300D062
:101F0000CDB7DEB70097B9F19E012F5F3F4F42E09A
:101F100050E070E060E00E943A0F811127C0898193
:101F200080936C0480911604882301F160E976E0C7
:101F30008DE694E00E948C0589819A8166E272E0C8
:101F4000892B11F06FE272E08DE694E00E94120995
:101F500089819A81029731F46CE776E08DE694E00E
:101F60000E948C058DE694E00E946D090F900F9001
:101F7000DF91CF91089560916C048DE694E00E940A
:101F8000C909F4CFCF93DF9300D0CDB7DEB7009768
:101F900031F19E012F5F3F4F40E355E770E060E075
:101FA0000E943A0F811116C089819A81909356043C
:101FB0008093550480911604882361F062ED75E0EA
:101FC0008DE694E00E948C0569817A818DE694E02B
:101FD0000E94B3090F900F90DF91CF910895609107
:101FE000550470915604F2CFCF93DF9300D0CDB754
:101FF000DEB7009769F19E012F5F3F4F41E050E04F
:1020000070E060E00E943A0F811116C089819A81C8
:102010000097B9F00197C1F080911604882361F010
:102020008091910363E472E0882311F067E372E02A
:102030008DE694E00E94E0090F900F90DF91CF9120
:10204000089510929103E8CF81E080939103E4CF4B
:102050006091910370E08DE694E00E947109ECCFED
:10206000CF93DF9300D0CDB7DEB7009791F19E01FB
:102070002F5F3F4F41E050E070E060E00E943A0F78
:10208000811122C089819A8121E0009709F420E022
:1020900020938F03892B11F01092940380911604E2
:1020A000882391F06BE775E08DE694E00E948C0543
:1020B00089819A816CE472E0892B11F060E472E00E
:1020C0008DE694E00E94E0090F900F90DF91CF9190
:1020D000089560918F0370E08DE694E00E9471098D
:1020E000F3CFCF93DF9300D0CDB7DEB7009779F170
:1020F0009E012F5F3F4F41E050E070E060E00E94A2
:102100003A0F81111FC061E089819A81892B09F002
:1021100060E083E00E940F0780911604882391F00D
:1021200065E775E08DE694E00E948C0589819A81CF
:102130006DE572E0892B11F060E572E08DE694E0C8
:102140000E94E0090F900F90DF91CF91089583E0F6
:102150000E94E60661E070E0892B11F070E060E01B
:102160008DE694E00E947109EDCFCF93DF9300D00C
:10217000CDB7DEB7009719F19E012F5F3F4F4FE0BB
:1021800050E070E060E00E943A0F811113C0898135
:102190008093570480911604882361F06FE475E002
:1021A0008DE694E00E948C0569817A818DE694E049
:1021B0000E94B3090F900F90DF91CF910895809105
:1021C0005704883010F010925704609157048DE640
:1021D00094E00E94C909EECFCF93DF9300D0CDB732
:1021E000DEB7009799F19E012F5F3F4F41E050E02D
:1021F00070E060E00E943A0F811123C081E02981E4
:102200003A81232B09F480E08093940380918F031B
:10221000811110928F0380911604882391F066E358
:1022200075E08DE694E00E948C0589819A816CE4CA
:1022300072E0892B11F060E472E08DE694E00E9478
:10224000E0090F900F90DF91CF9108956091940372
:1022500070E08DE694E00E947109F3CF1F93CF9355
:10226000DF9300D0CDB7DEB71A821982009789F1CB
:102270009E012F5F3F4F4FEF50E070E060E00E9403
:102280003A0F811115C089818093200410911604A2
:1022900086FF14C041E060E480E40E94950740E0BE
:1022A00060E480E00E94950768E175E011110CC0C0
:1022B0000F900F90DF91CF911F9108950E949C087D
:1022C0001123B1F367E075E08DE694E00E94F20916
:1022D000EFCF609120048DE694E00E94C909E8CF19
:1022E0006F927F928F929F92AF92BF92CF92DF9226
:1022F000EF92FF920F931F93CF93DF93CDB7DEB78B
:1023000063970FB6F894DEBF0FBECDBF6C011A8A7B
:10231000198A188A1B8A8E010F5F1F4F4E0180E1B8
:10232000880E911CF801580111928E169F06E1F754
:10233000F12CC114D10409F07EC080911D04898361
:10234000E12CFF24F3948FE30E94E90A81119AC0E3
:1023500080911C04805E0E94E90A811193C088E18B
:102360000E94E90A81118EC010E000E0CF2CD12C30
:102370000C151D050CF0D8C0EE2009F49BC0198B7C
:10238000088B8889998920911C042817190699F1CE
:10239000805C0E94E90A811175C085E00E94F70700
:1023A000BE016D5E7F4FCE0142960E946C0A811184
:1023B000AFC06A8981E0F81609F484C066FF1BC0CB
:1023C00068EC74E08DE694E00E948C05A801110F82
:1023D000660B770B2AE08DE694E00E94210966ECFB
:1023E00074E08DE694E00E948C056A898DE694E0A5
:1023F0000E94C90986010F5F1F4FBACFF6010190F5
:102400000020E9F73197EC19FD09339798F594010D
:102410004EE150E061E070E0C3010E943A0FE82E07
:10242000811130C08889F80181938F01F394FFE016
:10243000FF1609F488CF6AE072E0C601FF2011F0B0
:1024400090E080E00E94C91C3C0143E050E061E064
:1024500072E00E94941D892B89F6E0901604EE200C
:1024600031F16FED74E08DE694E00E94F2098EE1A7
:10247000F82E69CF0E94B40C809116046DEC74E0C4
:10248000811179C063960FB6F894DEBF0FBECDBF41
:10249000DF91CF911F910F91FF90EF90DF90CF9040
:1024A000BF90AF909F908F907F906F900895EE2493
:1024B000E394DDCFF501E00FF11F808190E0998B6F
:1024C000888B5FCF8DE694E00E94C9098091160445
:1024D0008823D9F06FEA74E08DE694E00E948C05C1
:1024E0004A8950E070E060E02AE08DE694E00E94C6
:1024F000210964E974E08DE694E00E948C05688906
:1025000079898DE694E00E94B30901E010E073CF71
:1025100080911604882309F46ECF65E774E08DE698
:1025200094E00E94F20967CFEE2021F08DE694E05E
:102530000E946D0989E10E94E90A8111A3CF8FE50C
:102540000E94E90A81119ECF8FE30E94E90A81115E
:1025500099CF82E00E94F70782E00E94E606892B6D
:1025600079F481E08093920380911604882309F422
:1025700089CF6EE574E08DE694E00E94F20982CF87
:1025800010929203F1CF81E092E00C9470118F923F
:102590009F92AF92BF92CF92DF92EF92FF920F93F2
:1025A0001F93CF93DF93CDB7DEB761970FB6F89443
:1025B000DEBF0FBECDBF4C01198A188ACE0101962D
:1025C0007C015E0190E1A90EB11CF7011192EA15A0
:1025D000FB05E1F7670100E08114910471F580913A
:1025E0001D04898301E0670110E0C6018E199F096F
:1025F000801791070CF058C060E0F60181916F01DF
:102600000E941F0B882399F18091160467E374E000
:10261000811138C061960FB6F894DEBF0FBECDBFF2
:10262000DF91CF911F910F91FF90EF90DF90CF90AE
:10263000BF90AF909F908F9008956AE072E0C401C0
:10264000002311F090E080E00E94C91C95014EE14A
:1026500050E061E070E00E943A0F8111DBCF888981
:10266000F60181936F010F5F0F3039F7BCCF88E01F
:102670000E94E90A882359F0809116046EE174E003
:10268000882341F28DE694E00E94F209C3CF0E94B4
:10269000120B882309F4A9CF8091160462E074E03C
:1026A000882309F4B7CFEECF82E00E94F70780912C
:1026B0001604882309F4AECF69EE73E0E3CFCF931D
:1026C000DF9300D0CDB7DEB7009781F19E012F5F79
:1026D0003F4F43E050E070E060E00E943A0F81110C
:1026E0002BC089819A81892B81F0809116048823DF
:1026F00061F065EF71E08DE694E00E94F2096EEB07
:1027000071E08DE694E00E94F209898180932104B2
:10271000833010F41092900380911604882361F0A6
:1027200062EB71E08DE694E00E948C0560912104DB
:102730008DE694E00E94C9090F900F90DF91CF9130
:102740000895CF93DF9300D0CDB7DEB7009719F18E
:102750009E012F5F3F4F4FEF50E070E060E00E941E
:102760003A0F811113C0898180932404809116044B
:10277000882361F065E971E08DE694E00E948C05A4
:1027800069817A818DE694E00E94B3090F900F90E1
:10279000DF91CF91089560912404062E000C770BF1
:1027A0008DE694E00E947109F1CFCF93DF9300D0C2
:1027B000CDB7DEB7009771F19E012F5F3F4F41E02B
:1027C00050E070E060E00E943A0F81111EC081E08D
:1027D00029813A81232B09F480E0809319048091A8
:1027E0001604882391F068E771E08DE694E00E947A
:1027F0008C0589819A816CE472E0892B11F060E488
:1028000072E08DE694E00E94E0090F900F90DF9156
:10281000CF9108956091190470E08DE694E00E94D4
:102820007109F3CFCF93DF9300D0CDB7DEB7009718
:1028300009F440C09E012F5F3F4F41E050E070E03F
:1028400060E00E943A0F81111CC089819A81009733
:10285000E9F0019721F180911604882391F060E658
:1028600071E08DE694E00E948C0589819A8168E789
:1028700072E0892B11F06DE672E08DE694E00E9423
:10288000E0090F900F90DF91CF91089581E0809340
:102890001B0486E00E94F7070E94EC07DCCF82E071
:1028A00080931B0481E00E94F7070E94EC070E94BE
:1028B0006C0CD1CF60911B046150770B8DE694E0D6
:1028C0000E947109DECFCF93DF9300D0CDB7DEB782
:1028D000009771F19E012F5F3F4F41E050E070E0A3
:1028E00060E00E943A0F81111EC081E029813A8187
:1028F000232B09F480E080931A0480911604882326
:1029000091F06CE471E08DE694E00E948C05898181
:102910009A816CE472E0892B11F060E472E08DE63C
:1029200094E00E94E0090F900F90DF91CF910895FD
:1029300060911A0470E08DE694E00E947109F3CF73
:10294000CF93DF9300D0CDB7DEB7009719F19E018A
:102950002F5F3F4F43E050E070E060E00E943A0F8D
:10296000811113C0898180931F04809116048823EC
:1029700061F06FE371E08DE694E00E948C0569815F
:102980007A818DE694E00E94B3090F900F90DF9159
:10299000CF91089560911F048DE694E00E94C909CB
:1029A000F4CFCF93DF9300D0CDB7DEB7009779F1A6
:1029B0009E012F5F3F4F40E05DE761E070E00E94C5
:1029C0003A0F81111FC089819A81909323048093CB
:1029D0002204809116048823A9F068E271E08DE654
:1029E00094E00E948C0549815A8170E060E02AE001
:1029F0008DE694E00E9421096AE171E08DE694E0A1
:102A00000E94F2090F900F90DF91CF91089560918D
:102A10002204709123048DE694E00E947109F2CFA4
:102A2000CF93DF9300D0CDB7DEB7009709F464C031
:102A30006AE072E00E94C91C9E012F5F3F4F4EE189
:102A400050E061E070E00E943A0F811113C089816B
:102A50009A8120911C042817190689F40E94B40C4D
:102A600080911604882331F06EED70E08DE694E0DD
:102A70000E94F2090F900F90DF91CF9108958093FB
:102A80001D0480911604882361F06EEB70E08DE6E2
:102A900094E00E948C0569817A818DE694E00E9421
:102AA000B30910921E041A8219826AE072E090E063
:102AB00080E00E94C91C0097E9F29E012F5F3F4F02
:102AC0004EE750E060E670E00E943A0F8111D2CFED
:102AD000898180931E0480911604882359F26FE740
:102AE00072E08DE694E00E94120969817A818DE698
:102AF00094E00E94B309BECF40911D0450E070E005
:102B000060E02AE08DE694E00E94210980911E0495
:102B1000882381F06CEB70E08DE694E00E948C05D8
:102B200040911E0450E070E060E02AE08DE694E001
:102B30000E9421098DE694E00E946D099BCFCF93FE
:102B4000DF93CDB7DEB7C054D1090FB6F894DEBF1E
:102B50000FBECDBFFC0101900020E9F73197AF0116
:102B6000481B590BFE0137962AE3DF011D922A9577
:102B7000E9F727E0E1EAF2E0DE01119601900D921B
:102B80002A95E1F75527BC01CE0101960E94841DCC
:102B9000CE0101960E94E30DC05CDF4F0FB6F894A2
:102BA000DEBF0FBECDBFDF91CF9108951F93CF93AE
:102BB000DF93C0E011E08DE694E00E940E06892BC1
:102BC00009F4A9C0C111A7C08DE694E00E94EC05EC
:102BD000D82F8091930387FD57C0809116048823D6
:102BE00029F06D2F8DE694E00E948505DD30D1F04F
:102BF00024F4DA30B9F08D2F79C0DB3109F471C0DB
:102C0000DB32C9F780917F03882341F010927F0364
:102C100080919303823010F410937E038BE20E9424
:102C2000A60832C080917F038111E5CF8091930384
:102C3000C0911604811107C00E94E70CC1110E94C7
:102C4000D20CC0E0B8CFCC2321F08DE694E00E94F6
:102C50006D09C0919303C33008F440C0909195036F
:102C60009B3221F5909196039B3201F590917E0362
:102C700091111CC080919703C1E0813219F40E9428
:102C8000E70CC3E010927E038091930387FF93CFFC
:102C9000809195038B3231F4809196038B3211F43D
:102CA000CC2361F110931704C2E085CFC33011F437
:102CB000C2E0E8CF80916C048823D1F345E050E076
:102CC00069EA72E085E993E00E946C1D892B81F727
:102CD00010938D030E94E70CC0E0D4CFCC2391F277
:102CE000E7CF80917F03882331F08BE10E94A60813
:102CF00010927F03C9CF10937F03C6CF8091160433
:102D0000882331F068E670E08DE694E00E94F209D5
:102D10000E94E70C50CF8C2FDF91CF911F91089527
:102D2000AF92BF92DF92EF92FF920F931F93CF93D8
:102D3000DF9300D000D0CDB7DEB719821A821B8294
:102D400080915704082F07701C8210928B03D0903B
:102D50008C03873019F481E080938C0380911B04ED
:102D6000823009F0CEC061E080911D040E941F0BEB
:102D70008823D1F0809116048823B1F06BE577E0C9
:102D80008DE694E00E948C0540911D0450E070E0B7
:102D900060E02AE08DE694E00E94210962E577E098
:102DA0008DE694E00E94F2094091220450912304A0
:102DB0006AE081E00E944D0885E00E94F7078AB131
:102DC0008F7C8AB987B1807C87B98BB180638BB9DE
:102DD00088B18F6388B9F12CE12CA02EB12C109111
:102DE0008B031111E6C080918E0381111BC0BE01BF
:102DF0006C5F7F4FCE0101960E946C0A182F809164
:102E00002104833021F080918C03882321F00E94DB
:102E1000D6158093150480911504882309F478C091
:102E20001092900380911604882359F065E477E0AE
:102E30008DE694E00E948C05B7018DE694E00E9437
:102E400071098C818823A1F080911604882331F0C8
:102E500067E377E08DE694E00E94F209809119041F
:102E6000882331F0609124048DE694E00E9485056A
:102E7000D0928C031123C1F080911604882341F075
:102E8000113031F46BE177E08DE694E00E94F209B5
:102E900080911604882341F0123031F461EF76E01E
:102EA0008DE694E00E94F20980911B04823009F0C3
:102EB00082C00E94120B882351F08091160488234F
:102EC00031F06EEC76E08DE694E00E948C0582E0B5
:102ED0000E94F70780918B03811110928B0381E090
:102EE000111101C080E00F900F900F900F90DF91B3
:102EF000CF911F910F91FF90EF90DF90BF90AF9017
:102F0000089588E00E94F70781E080938C0357CFF3
:102F100080918E03811186CF69818DE694E00E94B5
:102F200085058FEFE81AF80A80918C03882351F009
:102F30008C81811177CF111175CF8A818B83898123
:102F40008A834DCF80918103882331F099818091CC
:102F500080039813F0CF66CF073028F5F501ED54C4
:102F6000F84E0C944A1DD317BA17BE179B17C217F9
:102F7000C717CB1789818D30F1F654CF89818A30FC
:102F8000D1F650CF89818D30B1F68A81F8CF898111
:102F9000833089F647CF8981833069F68A818A3008
:102FA00051F68B81E8CF89818A3009F0C4CF8A81BC
:102FB000E2CF10E037CF87E08BCFEF92FF920F93F5
:102FC0001F93CF93DF9300D000D0CDB7DEB700972B
:102FD00009F46EC06AE072E00E94C91CFC01208105
:102FE000211124C06AE072E090E080E00E94C91CD8
:102FF000FC012081211130C06FEA72E090E080E096
:103000000E94C91C8C01FC018081F12CE12C8111F2
:103010002FC00E94B40C8091160464E975E08823E7
:1030200081F08DE694E00E94F2090BC09E012F5FB3
:103030003F4F4FEF50E062E070E00E943A0F88236C
:1030400089F20F900F900F900F90DF91CF911F9109
:103050000F91FF90EF9008959E012D5F3F4F40E349
:1030600055E770E060E00E943A0F8111EACFC4CFCB
:1030700089819A81E816F90620F7F801019000206D
:10308000E9F73197BF01601B710B809194038111A7
:1030900003C0C8010E94450B6B817C8190E080E0F9
:1030A0000E9462070E949016FFEFEF1AFF0AE0CF1E
:1030B0000E94B40C80911604882319F261E875E02F
:1030C000B0CFCF93DF9310928C03109281030097BF
:1030D000A1F0EC01FC0101900020E9F73197E81B19
:1030E000F90B3497A0F080911604882331F06DE835
:1030F00072E08DE694E00E94F20980912104833011
:10310000D9F481E080939003DF91CF91089543E05B
:1031100050E062EB72E00E94941D892B21F481E063
:1031200080938C03EACF81E080938103CE010E94DB
:10313000841C80938003E1CFDF91CF910C94901693
:103140001F920F920FB60F9211242F933F934F931C
:103150005F936F937F938F939F93AF93BF93EF93FF
:10316000FF938DE694E00E942E06FF91EF91BF91B0
:10317000AF919F918F917F916F915F914F913F910F
:103180002F910F900FBE0F901F9018951F920F92C6
:103190000FB60F9211242F938F939F93EF93FF936A
:1031A000E0917D04F0917E048081E0918304F091B0
:1031B000840482FD1BC09081809186048F5F8F7391
:1031C00020918704821741F0E0918604F0E0E359F2
:1031D000FB4F958F80938604FF91EF919F918F9184
:1031E0002F910F900FBE0F901F9018958081F4CFF4
:1031F0001F920F920FB60F9211242F933F938F932C
:103200009F93AF93BF938091830390918403A09188
:103210008503B09186033091820323E0230F2D377D
:1032200058F50196A11DB11D20938203809383035D
:1032300090938403A0938503B093860380918703C2
:1032400090918803A0918903B0918A030196A11DF2
:10325000B11D8093870390938803A0938903B09353
:103260008A03BF91AF919F918F913F912F910F90C2
:103270000FBE0F901F90189526E8230F0296A11DF0
:10328000B11DD2CF1F920F920FB60F9211248F93C0
:103290009F9389B190910B05892787FF07C089B15A
:1032A0008095881F8827881F80938E0389B190910D
:1032B0000A05892782FF08C089B182FB882780F927
:1032C00091E089278093920389B180930B0589B19E
:1032D00080930A059F918F910F900FBE0F901F90C2
:1032E0001895EDE6F4E01382128288EE93E0A0E0F8
:1032F000B0E084839583A683B78383EE91E09183C6
:10330000808385EC90E09587848784EC90E09787B4
:10331000868780EC90E0918B808B81EC90E0938BA2
:10332000828B82EC90E0958B848B86EC90E0978B7F
:10333000868B118E128E138E148E89B180930B059D
:1033400089B180930A050895CF93DF93CDB7DEB797
:10335000C158D1090FB6F894DEBF0FBECDBF789427
:1033600084B5826084BD84B5816084BD85B582608A
:1033700085BD85B5816085BD80916E00816080933B
:103380006E001092810080918100826080938100A4
:1033900080918100816080938100809180008160B4
:1033A000809380008091B10084608093B10080910F
:1033B000B00081608093B00080917A008460809337
:1033C0007A0080917A00826080937A0080917A00FE
:1033D000816080937A0080917A00806880937A007F
:1033E0001092C1000FB6F894A89580916000886192
:1033F00080936000109260000FBEE1EAF9E0249132
:10340000EDE8F9E08491882399F090E0880F991F06
:10341000FC01EA58F64FA591B491FC01E459F64F2E
:10342000859194918FB7F894EC91E22BEC938FBF38
:1034300060E08DE00E940F07F8948091680084603E
:103440008093680080916D00846880936D0078940B
:103450000E94E70CE0917D04F0917E0482E080837D
:10346000E0917904F0917A041082E0917B04F0916C
:103470007C0480E1808310928504E0918104F091C6
:10348000820486E08083E0917F04F0918004808153
:1034900080618083E0917F04F09180048081886066
:1034A0008083E0917F04F091800480818068808334
:1034B000E0917F04F091800480818F7D80830E9461
:1034C000B1081A8219828E010F5F1F4FC8010E9436
:1034D000010989819A81019679F1C8010E94010947
:1034E00079E1C72E74E0D72EE2E0EE2EF12CC70171
:1034F0000E94121DD6018D936D01BFEFEB1AFB0ADE
:10350000E6E5EE16F10499F70E94570529813A8104
:103510008217930789F0F12CE12C6FEFC7010E940D
:103520001A1DFFEFEF1AFF0AE11422E0F206A9F7D5
:103530000E94B1080E94C30880911B04813029F4C5
:1035400086E00E94F7070E94EC0780911B048230FE
:1035500039F481E00E94F7070E94EC070E946C0C8E
:1035600010928E031092920340E2342E50E4552EB6
:1035700063E0462E96E0292E2FE0622E712C30E07B
:10358000832E30E0932E80911504813009F064C0C1
:10359000E0909303F12CA70165E973E0C8010E9454
:1035A000501D0E94E70C10921504F801C701029704
:1035B0009F01201B310B281739071CF4228121930E
:1035C000F7CF800F911FDC011C92FE01EE0DFF1D55
:1035D000108280911604882321F08DE694E00E94E9
:1035E0006D098981882399F18D3089F18A3079F1CB
:1035F0006AE072E0C8010E94C91C7C0181E0A82E2B
:1036000081E0B82ED12CC12CB701F50180819181C8
:103610000E94591D892B09F458C1FFEFCF1ADF0A08
:1036200026E0A20EB11C85E2C816D10469F70E94FB
:10363000B40C0DC0D7010D900020E9F7CD01048036
:10364000F581E02D2C91222309F44CC0099580913D
:10365000160481110E94D20C80911B04823089F5DE
:10366000809115048230B1F4809193030E94F10C93
:1036700080912104813011F40E94901680912104E0
:10368000823041F480911804882321F00E94901622
:103690001092180480919203882351F08091910335
:1036A000882331F090E080E00E9470111092920324
:1036B00080912104833029F48091900381110E942C
:1036C000901680911B048130E9F480918F03882348
:1036D00061F0809115048230A9F4809193030E94D7
:1036E000F10C10C090E080E0B1CFE0909403EE20A8
:1036F00009F44CC00E94901680911504823011F498
:103700000E94E70C80918D03882369F180916C04FD
:10371000813031F468E574E08DE694E00E94E009C0
:1037200080916C048230E9F468E574E08DE694E001
:103730000E94120966EB72E08DE694E00E94120985
:10374000409168045091690460916A0470916B041F
:103750002AE08DE694E00E9421098DE694E00E9423
:103760006D0910928D030E94D61580931504C30134
:103770000197F1F78114910409F405CF0E941A060C
:10378000882309F400CF0E940000F4CEF0908E034D
:10379000FF2009F49ECFCF57DF4F1882C158D04089
:1037A000198288E00E94F707D12CC12CB12C87E048
:1037B0000E94E606892B41F5B801CE018F579F4F35
:1037C0000E946C0A8111F3CF90911D04CF57DF4FF7
:1037D0008881C158D040282F2325921301C0EF2C97
:1037E000282F2525921301C0BF2C883149F089313B
:1037F00049F08F33E1F610928C0340928B03D7CFC0
:10380000CF2CD5CFDF2CD3CFE1100E949016BB2058
:1038100009F442C0CC2009F44FC0809116048823DB
:1038200031F069E07AE08DE694E00E94F20980913F
:103830001604882361F06CEC79E08DE694E00E9438
:103840008C05609120048DE694E00E94C90989E00E
:103850000E94F707809120040E94040A87E00E94DA
:10386000F70780911604882331F06CEF79E08DE63C
:1038700094E00E94F209809120048F7B80932004C1
:103880000E949C0880911604882391F062EE79E0F2
:103890008DE694E00E94F209DD2051F0809116043B
:1038A000882331F069E37AE08DE694E00E94F20922
:1038B00087E00E94F7070DCF80911504823061F7F1
:1038C000809193030E94F10CE7CF2C9CF0012D9C7A
:1038D000F00D1124EF5FFE4F80911B0490E02281D8
:1038E000338182239323892B09F0A4CE0E94B40C48
:1038F00080911604882309F4AFCE68EA79E08DE65A
:1039000094E00E94F209A3CEFC0188279927E8944D
:1039100021912032E9F3293010F02E30C8F32B32F8
:1039200041F02D3239F4689404C00E940A1D820FC0
:10393000911D219120532A30C0F31EF4909581955A
:103940009F4F08951F93FC0199278827BC01E89495
:1039500011911032E9F3193010F01E30C8F31B3208
:1039600051F01D3249F4689406C00E94F51C610FA5
:10397000711D811D911D119110531A30B0F33EF449
:1039800090958095709561957F4F8F4F9F4F1F91B8
:1039900008954CE055E00E94CE1C0895FA01A191D3
:1039A000B081009719F41097E1F0CD01DC01CD0151
:1039B0000D90002011F4C00113C0FB0121912223BE
:1039C00019F02015D9F7F3CFFB012191201519F437
:1039D0001E92119606C02223C1F70D900020A1F778
:1039E000D001FA01A193B0830895592F482F372FA2
:1039F000262F660F771F881F991F660F771F881F56
:103A0000991F620F731F841F951F660F771F881FF2
:103A1000991F08957AE0979F902D879F802D910D93
:103A200011240895F999FECF92BD81BDF89A992786
:103A300080B50895262FF999FECF1FBA92BD81BD9A
:103A400020BD0FB6F894FA9AF99A0FBE0196089520
:103A5000A1E21A2EAA1BBB1BFD010DC0AA1FBB1F92
:103A6000EE1FFF1FA217B307E407F50720F0A21B04
:103A7000B30BE40BF50B661F771F881F991F1A9471
:103A800069F760957095809590959B01AC01BD019B
:103A9000CF010895EE0FFF1F0590F491E02D0994DA
:103AA000FB01DC0102C001900D9241505040D8F75B
:103AB0000895FB01DC018D9181341CF08B350CF4F1
:103AC000805E619161341CF06B350CF4605E861B86
:103AD000611189F3990B0895FB01DC0141505040BD
:103AE00088F08D9181341CF08B350CF4805E6191EF
:103AF00061341CF06B350CF4605E861B611171F350
:103B0000990B0895881BFCCFFB01DC010D90002070
:103B1000E9F711974150504028F0019000200D9294
:103B2000C9F708951C920895FB01DC0141505040F3
:103B300030F08D910190801919F40020B9F7881B9D
:103B4000990B0895FB01DC014150504048F0019071
:103B50000D920020C9F701C01D9241505040E0F77E
:103B60000895AEE0B0E0E7EBFDE10C946D200D8927
:103B70001E898F89988D26E02C831A83098397FFED
:103B800002C080E090E801979E838D83AE01455E80
:103B90005F4F698D7A8DCE0101960E94E11D4D81A6
:103BA0005E8157FD0AC02F813885421753070CF4F8
:103BB0009A01020F131FF80110822E96E4E00C9474
:103BC0008920ABE0B0E0E7EEFDE10C945F207C01E2
:103BD0003B018A01FC0117821682838181FFC8C1E3
:103BE000CE0101965C01F7019381F30193FD85916C
:103BF00093FF81913F01882309F453C1853239F441
:103C000093FD859193FF81913F01853229F4B7019E
:103C100090E00E94D11FE7CF912C212C312CFFE1A5
:103C2000F31538F08B3211F190F4803209F18332C0
:103C300029F137FC3CC020ED280F2A3050F536FE24
:103C400020C08AE0989E200D1124922E06C08D324D
:103C500091F0803371F7689430F8F30193FD85910A
:103C600093FF81913F018111DACF21C0689431F82F
:103C7000689432F8F2CF689433F8EFCF689434F850
:103C8000ECCFEAE02E9E200D1124222E689435F808
:103C9000E4CF8E3229F436FC04C1689436F8DDCFC7
:103CA0008C3619F4689437F8D8CF8836B1F2982F4B
:103CB0009F7D95549330E0F08336A1F18337C1F1B5
:103CC000833509F063C02801F2E04F0E511CF80162
:103CD000C080D180692D70E036FC02C06FEF7FEFAD
:103CE000C6010E94BB1F4C01689437F882010AC0CC
:103CF0000C5F1F4FFFE3F98388248394912C6501A7
:103D0000E89437F833FE2DC0522C8114910471F5DC
:103D1000552009F468CFB70180E290E00E94D11FDE
:103D20005A94F6CFF801808189830E5F1F4FE4CF4C
:103D30002801F2E04F0E511CF801C080D180692D9E
:103D400070E036FC02C06FEF7FEFC6010E94C61F15
:103D50004C018201D5CFB70180E290E00E94D11FD3
:103D60002A942814190409F0B0F7CECFF60137FCD5
:103D7000859137FE81916F01B70190E00E94D11FBC
:103D800051105A94F1E08F1A9108BFCF843619F080
:103D9000893609F077C0F80137FE6BC06081718108
:103DA000828193810C5F1F4FF32DFF763F2E97FF8B
:103DB00009C090958095709561957F4F8F4F9F4F6B
:103DC000689437F82AE030E0A5010E940120C82E4F
:103DD000CA188C2C432C36FE0CC0E89440F8C91449
:103DE00040F434FE05C032FC03C0F32DFE7E4F2E9E
:103DF000892C44FE95C0FE01EC0DF11D80818033BD
:103E000009F087C0242D297E422E842D8870582EDB
:103E100043FC95C040FE8FC09C2C821418F42C0CDF
:103E2000922C981844FE91C0B70180E390E00E9464
:103E3000D11F42FE09C088E790E041FE02C088E53C
:103E400090E0B7010E94D11FC91408F48AC0CA9437
:103E5000D12C9FEFC91AD90ACA0CDB1CF60182913A
:103E60006F01B70190E00E94D11FAC14BD04B1F7FF
:103E70004FCF60817181072E000C880B990B0E5F6C
:103E80001F4F92CFD32CE894D4F82AE030E0853746
:103E900039F1232D297FD22E8F3601F148F4883550
:103EA000A9F0F701868197812B96E2E10C947B20A3
:103EB000803749F08837A9F7D4FE02C06894D2F859
:103EC00020E130E00DC06894D4F8F6CF34FE03C092
:103ED000822F8660D82E20E132E002C028E030E058
:103EE000F801D7FE0FC060817181828193810C5FE0
:103EF0001F4FA5010E940120C82ECA183D2CE8942E
:103F000037F867CF6081718190E080E00E5F1F4FCE
:103F1000F0CF42FC02C0839478CF8394839475CF12
:103F2000842D867809F471CFF6CFB70180E290E056
:103F30000E94D11F83948214C0F3512C73CF522C52
:103F40005818821408F46ECFF8CF842D867809F4BF
:103F50007BCF8BE241FE80E247FC8DE2B70190E02F
:103F600071CFB70180E390E00E94D11F9A946CCF8B
:103F70008FEF9FEF99CFFC010590615070400110C9
:103F8000D8F7809590958E0F9F1F0895FC01615082
:103F9000704001900110D8F7809590958E0F9F1F6B
:103FA00008950F931F93CF93DF93182F092FEB01E1
:103FB0008B8181FD09C01FEF0FEF812F902FDF91C3
:103FC000CF911F910F91089582FF14C02E813F81E0
:103FD0008C819D81281739073CF4E881F981CF0154
:103FE00001969983888310838E819F8101969F8398
:103FF0008E83E3CFE885F985812F0995892BA1F37D
:10400000DACFFA01AA27283051F1203181F1E89462
:104010006F936E7F6E5F7F4F8F4F9F4FAF4FB1E0BB
:104020003ED0B4E03CD0670F781F891F9A1FA11DB6
:10403000680F791F8A1F911DA11D6A0F711D811DB7
:10404000911DA11D20D009F468943F912AE0269F7C
:1040500011243019305D3193DEF6CF010895462FDB
:104060004770405D4193B3E00FD0C9F7F6CF462FBC
:104070004F70405D4A3318F0495D31FD4052419325
:1040800002D0A9F7EACFB4E0A695979587957795E2
:104090006795BA95C9F700976105710508959B0169
:1040A000AC010A2E06945795479537952795BA95F2
:1040B000C9F7620F731F841F951FA01D08952F92CB
:1040C0003F924F925F926F927F928F929F92AF92A8
:1040D000BF92CF92DF92EF92FF920F931F93CF93F5
:1040E000DF93CDB7DEB7CA1BDB0B0FB6F894DEBF8C
:1040F0000FBECDBF09942A88398848885F846E84B2
:104100007D848C849B84AA84B984C884DF80EE80FB
:10411000FD800C811B81AA81B981CE0FD11D0FB604
:10412000F894DEBF0FBECDBFED010895F894FFCF28
:1041300001B80203001015BD020200C312550302AC
:10414000005F13C6020200890CCA020200180CCEDE
:10415000020300C108B20203006314D6020300B5D3
:1041600010DA020300A014DE020300A113E7020329
:1041700000D513F20202006C0CF6020300E30DF905
:104180000203007D0FFD020200740D010302001303
:104190000D05030100EC1009030200DC0C0F030302
:1041A00000121414030200ED0B1A03020061181F21
:1041B000030200D1142B03020071102F030200DD53
:1041C0001736030300380C3A030200C7123E0303FC
:1041D000002B0C460303009F15C002020070114E15
:1041E000030200A60952030200F40F5A0301002E35
:1041F0001161030100301065030300C70D6903035B
:1042000000BA0C71030300C20F77030300D70E003E
:104210000000005006B005DD059D060E06EC050009
:10422000060D0A00566572626F73653A20003E20E3
:1042300000616C6C007265616C002009007665722B
:10424000737472006E616D650073657269616C00F4
:104250002530396C750044697361626C6564004592
:104260006E61626C656400535251206175746F20F9
:104270004F4E00535251206175746F204F464600D7
:1042800052454E2061737365727465640052454EE9
:1042900020756E2D617373657274656400434F4EB3
:1042A00054524F4C4C4552004445564943450053E7
:1042B000657420646576696365207365636F6E64F9
:1042C000617279206164647265737320746F3A203F
:1042D0000076657273747220002A69646E3F000A6A
:1042E0000D00656F69002D006164647200616C6C83
:1042F00073706F6C6C00636C720064636C00646557
:104300006661756C7400656F7200656F7300656F30
:10431000745F6368617200656F745F656E61626C83
:1043200065006966630069640069646E006C6C6FA7
:10433000006C6F63006C6F6E006D6163726F006D77
:104340006F64650070706F6C6C0072656164007200
:104350006561645F746D6F5F6D730072656E00728E
:1043600065706561740072737400747267007361C4
:104370007665636667007365747673747200737232
:1043800071007372716175746F0073746174757309
:1043900000746F6E0076657200766572626F736589
:0E43A00000746D6275730078646961670000D7
:107E0000112484B714BE81FFF0D085E080938100F7
:107E100082E08093C00088E18093C10086E0809377
:107E2000C20080E18093C4008EE0C9D0259A86E02C
:107E300020E33CEF91E0309385002093840096BBD3
:107E4000B09BFECF1D9AA8958150A9F7CC24DD24C4
:107E500088248394B5E0AB2EA1E19A2EF3E0BF2EE7
:107E6000A2D0813461F49FD0082FAFD0023811F036
:107E7000013811F484E001C083E08DD089C08234E0
:107E800011F484E103C0853419F485E0A6D080C0E4
:107E9000853579F488D0E82EFF2485D0082F10E0AE
:107EA000102F00270E291F29000F111F8ED06801E7
:107EB0006FC0863521F484E090D080E0DECF843638
:107EC00009F040C070D06FD0082F6DD080E0C81688
:107ED00080E7D80618F4F601B7BEE895C0E0D1E017
:107EE00062D089930C17E1F7F0E0CF16F0E7DF06D8
:107EF00018F0F601B7BEE89568D007B600FCFDCFD4
:107F0000A601A0E0B1E02C9130E011968C91119780
:107F100090E0982F8827822B932B1296FA010C0160
:107F200087BEE89511244E5F5F4FF1E0A038BF0790
:107F300051F7F601A7BEE89507B600FCFDCF97BE46
:107F4000E89526C08437B1F42ED02DD0F82E2BD052
:107F50003CD0F601EF2C8F010F5F1F4F84911BD097
:107F6000EA94F801C1F70894C11CD11CFA94CF0C13
:107F7000D11C0EC0853739F428D08EE10CD085E9AC
:107F80000AD08FE07ACF813511F488E018D01DD067
:107F900080E101D065CF982F8091C00085FFFCCF94
:107FA0009093C60008958091C00087FFFCCF809118
:107FB000C00084FD01C0A8958091C6000895E0E648
:107FC000F0E098E1908380830895EDDF803219F02E
:107FD00088E0F5DFFFCF84E1DECF1F93182FE3DFCA
:107FE0001150E9F7F2DF1F91089580E0E8DFEE27F6
:047FF000FF270994CA
:027FFE00040479
:0400000300007E007B
:00000001FF
