:100000000C94BB060C94E3060C94E3060C94E306F4
:100010000C94E3060C94E3060C94E3060C94E306BC
:100020000C94E3060C94E3060C94E0190C944F1A1C
:100030000C94E3060C94E3060C94E3060C94E3069C
:100040000C94E3060C94E3060C94E3060C94E3068C
:100050000C94E3060C94E3060C94E3060C94811CC8
:100060000C94E3060C94E3060C94E3060C94E3066C
:100070000C94E3060C94E3060C94E3060C94E3065C
:100080000C94E3060C94E3060C94E3060C94E3064C
:100090000C94E3060C94E3060C94E3060C94E3063C
:1000A0000C94E3060C94E3060C94E306556E72651B
:1000B000636F676E697A656420636F6D6D616E64EE
:1000C000004552524F52202D20436F6D6D616E647A
:1000D00020627566666572206F766572666C6F77F2
:1000E000210020616E642000496E76616C69643A7B
:1000F0002072616E6765206973206265747765653B
:100100006E20002000536574206465766963652065
:100110007072696D617279206164647265737320B5
:10012000746F3A200054686174206973206D7920DF
:1001300061646472657373212041646472657373D2
:10014000206F6620612072656D6F7465206465762E
:100150006963652069732072657175697265642EC3
:1001600000496E76616C69643A2076616C6964203E
:1001700074696D6F75742072616E67652069732094
:1001800031202D203332303030206D732E00206D21
:10019000696C6C697365636F6E647300536574207A
:1001A0005B726561645F746D6F5F6D735D20746F0A
:1001B0003A2000496E76616C69643A206578706512
:1001C0006374656420454F532076616C7565206FBC
:1001D000662030202D20330053657420454F532076
:1001E000746F3A2000496E76616C69643A206578D4
:1001F00070656374656420454F492076616C756550
:10020000206F662030206F722031005365742045C6
:100210004F4920617373657274696F6E3A200049AB
:100220006E74657266616365206D6F6465207365C9
:100230007420746F3A2000496E76616C69643A20CC
:100240006D6F6465206D7573742062652030206F5A
:1002500072203100496E76616C69643A206578706D
:10026000656374656420454F542076616C75652024
:100270006F662030206F72203100417070656E64AF
:10028000696E67206F6620454F5420636861726114
:10029000637465723A2000496E76616C69643A2035
:1002A000657870656374656420454F5420636861A8
:1002B0007261637465722041534349492076616CD1
:1002C000756520696E207468652072616E676520AF
:1002D00030202D2032353500454F54207365742071
:1002E000746F2041534349492063686172616374AC
:1002F00065723A20004175746F206D6F64653A2015
:1003000000202020202020202020276164647265A6
:100310007373656420746F2074616C6B20627574F4
:10032000206E6F7468696E6720746F20736179271F
:10033000206572726F7273005741524E494E473AB0
:10034000206175746F6D6F6465204F4E2063616E20
:1003500020636175736520736F6D652064657669D0
:1003600063657320746F2067656E657261746500E4
:100370004175746F6D6F64653A2076616C696420B5
:1003800072616E6765206973205B302D64697361EB
:10039000626C657C312D50726F6C6F6769787C324E
:1003A0002D6F6E2D71756572797C332D636F6E7450
:1003B000696E756F75735D2E004152343838204771
:1003C00050494220636F6E74726F6C6C65722C20A2
:1003D0007665722E20302E34382E32312C20303675
:1003E0002F30342F323032300041523438382047E9
:1003F00050494220636F6E74726F6C6C65722C2072
:100400007665722E20302E34382E32312C20303644
:100410002F30342F3230323000496E76616C69648F
:10042000207465726D696E6174696F6E20636861B6
:10043000726163746572202D2069676E6F726564E6
:1004400021004661696C656420746F20756E74616B
:100450006C6B204750494220627573004661696C9D
:10046000656420746F2073656E64205344430046B6
:1004700061696C656420746F206164647265737374
:1004800020646576696365004661696C6564207403
:100490006F20756E6C697374656E20746865204793
:1004A00050494220627573004661696C656420742E
:1004B0006F2073656E64204C4C4F20746F20646510
:1004C00076696365004661696C656420746F2061BC
:1004D000646472657373207468652064657669630B
:1004E000652E004661696C656420746F2073656ECB
:1004F0006420756E6976657273616C204C4C4F2E6A
:10050000004661696C656420746F20756E6C697358
:1005100074656E2047504942206275732E00466113
:10052000696C65642073656E64696E67204C4F4327
:100530002E004661696C656420746F20616464728A
:10054000657373206465766963652E0049464320B0
:100550007369676E616C2061737365727465642082
:10056000666F7220313530206D6963726F73656319
:100570006F6E64730047726F75702074726967677D
:10058000657220636F6D706C657465642E004661E2
:10059000696C656420746F20756E6C697374656E28
:1005A000204750494220627573004661696C65645A
:1005B00020746F207472696767657220646576695C
:1005C0006365004661696C656420746F20616464D2
:1005D000726573732064657669636500496E766140
:1005E0006C69643A2047504942207072696D6172AB
:1005F00079206164647265737320697320696E2069
:100600007468652072616E67652031202D2033305B
:10061000005265736574204641494C45442E005391
:10062000657269616C20706F6C6C20636F6D706CAB
:10063000657465642E004661696C656420746F2082
:100640007265747269657665207374617475732060
:1006500062797465005D2066726F6D2064657669ED
:10066000636520617420616464726573733A20006D
:10067000526563656976656420737461747573206F
:1006800062797465205B002C005352513A00496E28
:1006900076616C696420706172616D657465720069
:1006A000496E76616C69643A204750494220616422
:1006B000647265737365732061726520696E20745E
:1006C00068652072616E676520312D333000536597
:1006D0007269616C20706F6C6C206F6620616C6C4D
:1006E00020646576696365732072657175657374DE
:1006F00065642E2E2E0053525120756E2D6173733A
:1007000065727465642E0053525120617373657273
:100710007465642E00496E76616C69643A20657870
:1007200070656374656420627974652076616C75A8
:100730006520696E207468652072616E676520307F
:10074000202D203235350053657474696E6773202F
:1007500073617665642E0053657474696E677320E7
:1007600073617665642E004C4F4E3A2076616C6959
:10077000642072616E6765206973205B302D646947
:100780007361626C657C312D656E61626C655D2E96
:10079000004C4F4E3A200053656E64696E672044EA
:1007A000434C206661696C656400496E76616C69D2
:1007B000643A20657870656374656420454F522003
:1007C00076616C7565206F662030202D20370053D0
:1007D000657420454F5220746F3A20005061726159
:1007E0006C6C656C20706F6C6C20636F6D706C65E9
:1007F0007465642E0052454E3A2000496E76616C55
:1008000069643A20657870656374656420303D756D
:100810006E2D6173736572742C20313D6173736545
:100820007274004368616E676564207665727369EF
:100830006F6E20737472696E6720746F3A20005473
:100840004F4E3A2076616C69642072616E67652054
:100850006973205B302D64697361626C657C312D36
:10086000656E61626C655D2E00544F4E3A20004902
:100870006E76616C69643A2065787065637465644E
:1008800020303D64697361626C65206F7220313D78
:10089000656E61626C65004D697373696E67207087
:1008A0006172616D6574657273004D697373696E11
:1008B0006720706172616D6574657200446973616F
:1008C000626C656400496E76616C69643A20303D03
:1008D00064617461206275733B20313D636F6E7497
:1008E000726F6C2062757300496E76616C69643A50
:1008F00020657870656374656420454F5420636893
:100900006172616374657220415343494920766185
:100910006C756520696E207468652072616E67650C
:100920002030202D2033302C30303000544D627573
:10093000732073657420746F3A200020746F2064F4
:100940006576696365006770696253656E64436DBF
:10095000643A206661696C656420746F2073656E0B
:100960006420636F6D6D616E64200067706962530F
:10097000656E64446174613A204661696C65642007
:10098000746F20756E74616C6B20627573005469AE
:100990006D656F75742077616974696E6720666F25
:1009A00072207472616E7366657220746F20636F5B
:1009B0006D706C657465210054696D656F75742088
:1009C00077616974696E6720666F722073656E6403
:1009D00065722100454F49206465746563746564E0
:1009E0002100427974657320726561643A200020A9
:1009F000746F2074616C6B004661696C656420746F
:100A00006F20616464726573732074686520646527
:100A100076696365006770696252656164427974E2
:100A2000653A2074696D656F7574207761697469C2
:100A30006E672044415620746F20676F20484947F5
:100A400048006770696252656164427974653A2052
:100A500074696D656F75742077616974696E67205C
:100A6000666F722044415620746F20676F204C4F90
:100A70005700677069625772697465427974653AA4
:100A80002074696D656F75742077616974696E672C
:100A900020666F72206461746120616363657074A5
:100AA0006564205B4E44414320756E6173736572CB
:100AB0007465645D00677069625772697465427934
:100AC00074653A2074696D656F757420726563652D
:100AD0006976696E67202D205B4E52464420617313
:100AE0007365727465645D006770696257726974DA
:100AF00065427974653A2074696D656F7574207705
:100B0000616974696E6720666F72207265636569DA
:100B1000766572207265616479202D205B4E5246A5
:100B20004420756E61737365727465645D006770EF
:100B300069625772697465427974653A2074696DA7
:100B4000656F75742077616974696E6720666F726E
:100B500020726563656976657220617474656E7470
:100B6000696F6E205B4E44414320617373657274FC
:100B700065645D006770696253656E6444617461A9
:100B80003A204661696C656420746F20756E6C69EB
:100B90007374656E206275730020746F206C6973C6
:100BA00074656E006770696253656E644461746158
:100BB0003A206661696C656420746F2061646472B8
:100BC000657373206465766963652000000000002A
:100BD0002300260029002C002F000000000200093D
:100BE0000F0000030401000C0000000000000000E2
:100BF000000000000000000000080B0002020200DC
:100C00000009040000010202000005240010010593
:100C100024010101042402060524060001070581C0
:100C20000310004009040100020A00000007050249
:100C3000024000000705830240000004030904127B
:100C4000010002EF0201404123378000010102034D
:100C50000141726475696E6F204C4C4300417264AF
:100C600075696E6F204D6963726F0000000000258A
:100C70000028002B002E0031000000000024002777
:100C8000002A002D003000040404040403040502BB
:100C90000202020403020202020606060606060417
:100CA00004020202040404080201104080401020E3
:100CB0004080408008020401804020100201108022
:100CC0001020404020436F6D6D616E64206E6F7424
:100CD00020617661696C61626C6520696E20746860
:100CE0006973206D6F64652E0053656E64696E676D
:100CF0002073746174757320627974653A200053AF
:100D000052512062697420636C65617265642028A9
:100D1000696620736574292E00537461747573209D
:100D200073656E742E0053657269616C20706F6C10
:100D30006C20726571756573742072656365697680
:100D400065642066726F6D20636F6E74726F6C6C79
:100D50006572202D3E003C2D2073657269616C2008
:100D6000706F6C6C207265717565737420656E644C
:100D700065642E00D21F11241FBECFEFDAE0DEBF64
:100D8000CDBF24E0A4E4B3E001C01D92A738B207B0
:100D9000E1F713E0A0E0B1E0EAE7F1E402C005907A
:100DA0000D92A434B107D9F716E0CBEBD6E004C01E
:100DB0002197FE010E947120CA3BD107C9F70E940A
:100DC000FE1C0C94BB200C940000FC018091FF03DE
:100DD000882311F13FB7F89482E08093E9002091D5
:100DE000F200822F90E01816190614F481E090E0CA
:100DF000882339F0289A44E64093FE034091F1009D
:100E00004083222339F02091F200211103C02BE608
:100E10002093E8003FBF08958FEF9FEF08952FB70D
:100E2000F89483E08093E9009091E800892F807224
:100E300095FF04C09091F20080E4891B2FBF0895B4
:100E40008091F60381110DC082E08093F20384E06B
:100E50008093F3031092F5031092F40381E08093E2
:100E6000F60382EF93E008958230910538F0880F01
:100E7000991F880F991F05970197F1F708954091E1
:100E8000A4035091A5032091A2033091A30342171C
:100E90005307B4F49091E8009570E1F39091E80065
:100EA00092FD19C08093F1008091A4039091A50355
:100EB00001968F739927892B19F48EEF8093E800A0
:100EC0008091A4039091A50301969093A50380932C
:100ED000A40381E0089580E00895DF92EF92FF92ED
:100EE0000F931F93CF93DF93D82E8A01EB017B01E1
:100EF000E40EF51ECE15DF0559F0D7FE12C0FE0137
:100F000084910E943F0721968111F4CF0FEF1FEFCC
:100F1000C801DF91CF911F910F91FF90EF90DF906B
:100F200008958881EECF0F931F93CF93DF931F9285
:100F3000CDB7DEB782E0898342E450E069EF7BE021
:100F400080E80E946D070E942007DC0112960D9137
:100F50001C910115110589F0D801ED91FC910280D9
:100F6000F381E02DBE016F5F7F4FC801099597FDAA
:100F700004C0F80100851185ECCF89810F90DF91C5
:100F8000CF911F910F910895615030F02091F100A1
:100F9000FC0120830196F8CF289A84E68093FE0313
:100FA0000895DC01ED91FC910190F081E02D099410
:100FB000EF92FF920F931F93CF93DF938C017B01EE
:100FC000D0E0C0E0F701EC0FFD1F6491662361F0F3
:100FD000D801ED91FC910190F081E02DC8010995B7
:100FE000892B11F02196EECFCE01DF91CF911F9189
:100FF0000F91FF90EF900895CF93DF931F92CDB79D
:10100000DEB76983DC01ED91FC910280F381E02D74
:1010100041E050E0BE016F5F7F4F09950F90DF9177
:10102000CF91089583E08093E9008091F2008823B6
:1010300019F08AE38093E80008950E940F0790E07A
:101040000895CF93DF931F92CDB7DEB7FC0184855F
:10105000958597FD08C02FEF3FEF358724870F90C8
:10106000DF91CF910895CE0101960E94E506019788
:1010700019F4898190E0F3CF8FEF9FEFF0CF0F93BA
:101080001F93CF93DF931F92CDB7DEB78C01FC0186
:101090008485958597FF0BC0CE0101960E94E506D9
:1010A000019771F4898190E0F80195878487F801B0
:1010B000848595850F90DF91CF911F910F910895B1
:1010C0008FEF9FEFF1CFFC018485958597FD0BC0D5
:1010D0009FB7F89482E08093E9008091F2009FBF6F
:1010E00090E0019608959FB7F89482E08093E9001C
:1010F0008091F2009FBF90E0089581508F3008F0FA
:1011000047C0E82FF0E0E957F74F0C947120A4088E
:10111000A80896089C08A008C808C808C808AB0812
:10112000B108B508B908BF08C808C3088091800095
:101130008F77809380000895809180008F7DF9CF14
:1011400080918000877FF5CF84B58F7784BD089527
:1011500084B58F7DFBCF809190008F778093900036
:101160000895809190008F7DF9CF80919000877FC6
:10117000F5CF8091C0008F778093C0000895809153
:10118000C0008F7DF9CF8091C200877F8093C2001D
:101190000895CF93DF93282F30E0F901E652F44F02
:1011A0008491F901EA55F34FD491F901E957F34FCE
:1011B000C491CC23A1F081110E947D08EC2FF0E0B6
:1011C000EE0FFF1FE453F44FA591B491EC91ED2382
:1011D00081E090E009F480E0DF91CF91089580E014
:1011E00090E0FACF1F93CF93DF93282F30E0F901DF
:1011F000E652F44F8491F901EA55F34FD491F90185
:10120000E957F34FC491CC23A9F0162F81110E9406
:101210007D08EC2FF0E0EE0FFF1FE559F34FA5918D
:10122000B4918FB7F894EC91111108C0D095DE23DA
:10123000DC938FBFDF91CF911F910895DE2BF8CF04
:101240003FB7F89480914E0390914F03A0915003C3
:10125000B091510326B5A89B05C02F3F19F0019608
:10126000A11DB11D3FBFBA2FA92F982F8827BC0100
:10127000CD01620F711D811D911D42E0660F771F28
:10128000881F991F4A95D1F708958F929F92AF9228
:10129000BF92CF92DF92EF92FF926B017C010E948E
:1012A00020094B015C01C114D104E104F104B9F03F
:1012B0000E942009681979098A099B09683E7340D0
:1012C0008105910580F321E0C21AD108E108F108F7
:1012D00088EE880E83E0981EA11CB11CE4CFFF901D
:1012E000EF90DF90CF90BF90AF909F908F90089538
:1012F0008F929F92AF92BF92CF92DF92EF92FF9226
:101300000F931F93CF93DF936C017B018A01809130
:101310000C01882309F45CC08091FF03882309F441
:1013200057C08091A80380FF05C08091E0008260D3
:101330008093E000E801B12C8AEFA82E93E0892E7B
:101340002AE3922E209711F4BB20D9F10E940F07B7
:1013500081110AC0AA94AA20D9F161E070E080E06E
:1013600090E00E944509EECF8C171D0611F00CF09D
:101370008C2F9FB7F8948092E9002091E80025FD1A
:1013800002C09FBFDFCF282F30E0C21BD30BF70175
:10139000815020F041914093F100FACFE20EF31E0C
:1013A000BB2021F09092E800B12CEBCF8091E800B7
:1013B00085FDE7CF9092E800BB24B394209709F312
:1013C000F3CF5D9A84E68093A703101611063CF0D4
:1013D00081E090E0F6019383828310E000E0C80191
:1013E000DF91CF911F910F91FF90EF90DF90CF9001
:1013F000BF90AF909F908F900895CF93DF93E62F8B
:10140000F0E0962F9E71A9F09F0153E0220F331F49
:101410005A95E1F7207F322F309598E0899FD001CF
:1014200011242A23413009F447C091B39323292B77
:1014300021BB962F917EE9F1C82FD0E0DF01AA0FE2
:10144000BB1FA0749F0154E0220F331F5A95E1F790
:10145000207176E0F595E7957A95E1F7E270E22B59
:1014600060749A2F90959E01220F331FA2237E2F26
:1014700070959E01B4E0220F331FBA95E1F72071F9
:1014800036E0D595C7953A95E1F7C2702C2B2E23FF
:10149000562F509568234130A1F038B13923A32B42
:1014A000A8B99BB19723292B2BB98EB18523682B23
:1014B0006EB9DF91CF91089590B39323292B20BB70
:1014C000B8CF37B13923A32BA7B99AB19723292BCA
:1014D0002AB98DB18523682B6DB9EBCF94B19E6786
:1014E00094B99AB191689AB995B180959178282F5D
:1014F0002E77922B95B99BB19E778178892B8BB9EA
:10150000089589B193B181789E77892B809508954C
:101510008250883078F4E82FF0E0EE56F54F41E045
:101520000C947120A30AAA0AC10AB90AC40ACC0AF7
:10153000D30ADB0A41E06FEF88EB0E94FD0940E02F
:101540006FEF8FED0EC06EE988EB0E94FD0940E061
:101550006EE9F7CF6FE989EB0E94FD0940E06FE982
:101560008FE50E94FD098091EC039091ED030C94AE
:1015700034076EE986EA0E94FD0940E06EE988EDD5
:10158000F0CF6EE989EBE1CF6FEF80E00E94FD09BB
:1015900040E06FEF8FEFE5CF6EE080E00E94FD0945
:1015A00040E06EE0F7CF6EE086E00E94FD0940E08B
:1015B0006EE089EFD6CF6EE088E0F7CFBF92CF9292
:1015C000DF92EF92FF920F931F93CF93DF93C82F79
:1015D000B62E2FB7F89480914A0390914B03A091B7
:1015E0004C03B0914D032FBF6A01550FEE08FF0861
:1015F000C80ED91EEA1EFB1E82E00E94C9088C019B
:10160000D0E08B2D0E94C9088C179D0721F12FB7C0
:10161000F89480914A0390914B03A0914C03B091B0
:101620004D032FBF8C159D05AE05BF0558F081E019
:10163000DF91CF911F910F91FF90EF90DF90CF90AE
:10164000BF90089501151105E1F682E00E94C908D6
:101650000197B9F6ECCF80E0EBCF41E060E480E0A9
:101660000E94FD0940E060E480E40C94FD09909143
:10167000EF03E92FF0E0EF5FFB4F80839F5F9093D4
:10168000EF030895EFEAF3E080E4DF011D928A950D
:10169000E9F78CEC808382E0838381E0858380EBB3
:1016A00094E09387828708950C94420BE1E0F4E084
:1016B00080E8DF011D928A95E9F71092EF03089503
:1016C000FB0101900020E9F73197AF01461B570B52
:1016D000DC01ED91FC910280F381E02D09948F9261
:1016E0009F92AF92BF92EF92FF920F931F93CF936F
:1016F000DF93CDB7DEB7A1970FB6F894DEBF0FBE6C
:10170000CDBF7C01FA01CB0119A2223008F42AE0F6
:101710008E010F5D1F4F822E912CB12CA12CBF0189
:10172000A50194010E944F20F901CA016A300CF50D
:10173000605DD8016E938D01232B242B252B79F727
:1017400090E080E0109721F0BD01C7010E94600B7E
:10175000A1960FB6F894DEBF0FBECDBFDF91CF913B
:101760001F910F91FF90EF90BF90AF909F908F903F
:101770000895695CDECFCF92DF92EF92FF920F93D4
:101780001F93CF93DF936B01770FEE08FF08F7FEEF
:101790001BC0EC016DE20E94D1078C014427552744
:1017A000BA014C195D096E097F092AE0CE010E9439
:1017B0006F0B800F911FDF91CF911F910F91FF90C1
:1017C000EF90DF90CF9008952AE0B701A601DF9156
:1017D000CF911F910F91FF90EF90DF90CF900C94DD
:1017E0006F0B68EF71E00C94600BCF92DF92EF9279
:1017F000FF920F931F93CF93DF938C016B01770FB1
:10180000EE08FF08F7FE1FC06DE20E94D107EC0151
:1018100044275527BA014C195D096E097F092AE052
:10182000C8010E946F0BC80FD91FC8010E94F10B9D
:101830008C0F9D1FDF91CF911F910F91FF90EF9023
:10184000DF90CF9008952AE0B701A6010E946F0BA8
:10185000EC01EBCF87E00E94C90861E070E0892BC2
:1018600011F070E060E082E593E00C94F50B0F93CB
:101870001F93CF93DF93EC01AB0170E060E02AE0AF
:101880000E946F0B8C01CE010E94F10B800F911F03
:10189000DF91CF911F910F9108950F931F93CF93D5
:1018A000DF93EC01462F50E070E060E02AE00E94F8
:1018B0006F0B8C01CE010E94F10B800F911FDF9105
:1018C000CF911F910F9108950F931F93CF93DF93A3
:1018D0008C01D0E0C0E06115710519F00E94600B29
:1018E000EC01C8010E94F10B8C0F9D1FDF91CF917D
:1018F0001F910F9108950F931F93CF93DF93EC01E6
:101900000E94D8078C01CE010E94F10B800F911F1D
:10191000DF91CF911F910F910895CF93C82F4091E0
:10192000B9035091BA0365E180E00E94DE0A882382
:1019300079F0C0918204C11104C0C1E08C2FCF9115
:1019400008956EE27BE082E593E00E947B0CF6CF87
:101950004091B9035091BA0364E181E00E94DE0A2C
:10196000882339F0C091820468EE7AE0CC2329F311
:10197000EACF8C2F0E946E0A40E068E080E00E946F
:10198000FD094091B9035091BA0364E180E00E94DF
:10199000DE0A882339F0C091820465EB7AE0CC231B
:1019A00061F2D1CF4091B9035091BA0365E181E072
:1019B0000E94DE0AC82F882341F0C0918204CC2304
:1019C00009F4BBCF62E77AE0BECF40E068E088E090
:1019D0000E94FD0980E00E946E0A8091EC039091C4
:1019E000ED030E943407AACF0F931F93CF93DF9389
:1019F000EC0182E00E94C9088C0140E064E084E0D0
:101A00000E94FD09012B81F482E00E94C908019720
:101A100059F440E064E080E00E94FD0983E0DF913A
:101A2000CF911F910F9108954091B9035091BA033E
:101A300063E180E00E94DE0A882389F080918204BD
:101A4000882331F062E47AE082E593E00E947B0C27
:101A500040E064E080E00E94FD0981E0E0CF40E0EA
:101A600064E080E00E94FD098091AB03882341F08F
:101A700082E10E94C908892B19F485E08093AA03AA
:101A80000E94810A888340E062E082E00E94FD09B2
:101A90004091B9035091BA0363E181E00E94DE0AEC
:101AA000882361F080918204882331F065E17AE037
:101AB00082E593E00E947B0C82E0B1CF40E062E0DF
:101AC00080E00E94FD098091EC039091ED030E945B
:101AD000340780E0A4CFCF93DF93C82F83E00E9428
:101AE000880A8C2F0E948D0CD82F8823C9F08091F2
:101AF00082048823A9F066E479E082E593E00E94FD
:101B0000D8074C2F50E070E060E020E182E593E0E0
:101B10000E946F0B6BE379E082E593E00E947B0CFF
:101B20008D2FDF91CF91089583E790E00197F1F732
:101B30008FE30E946B0D811103C08FE50C946B0D38
:101B40000895CF93DF93C82FD62F8FE30E946B0D9C
:101B5000811119C0DD2369F080E48C0F0E946B0DA8
:101B6000811111C08091B303805EDF91CF910C94FD
:101B70006B0D80E28C0F0E946B0D811104C080916F
:101B8000B303805CF2CF81E0DF91CF910895EF92B3
:101B9000FF920F931F93CF93DF937C01062F8091C9
:101BA000B203823009F041C080910001882341F1E5
:101BB00060E08091B4030E94A10D882309F1809117
:101BC0008204882309F479C064EA7BE082E593E02B
:101BD0000E94D8074091B40350E070E060E02AE032
:101BE00082E593E00E946F0B69E97BE082E593E078
:101BF000DF91CF911F910F91FF90EF900C947B0C90
:101C00008091830491E089278093000184E00E9401
:101C1000880AE70110E0CE018E199F09801791070D
:101C200034F489910E948D0CF6CF89E0F0CF809139
:101C3000B60381FD03C08DE00E948D0C8091B60338
:101C400080FD03C08AE00E948D0C8091B10388233F
:101C500089F08091830481110DC040E060E10E9411
:101C6000FD098BE990E00197F1F740E060E180E148
:101C70000E94FD098091B2038230D9F48091000165
:101C8000882371F00E94940D882351F08091820482
:101C9000882331F064E77BE082E593E00E947B0CCF
:101CA00082E0DF91CF911F910F91FF90EF900C9404
:101CB000880A813011F487E0F4CFDF91CF911F9132
:101CC0000F91FF90EF90089525E0FC0111922A9565
:101CD000E9F76CEB78E082E593E00C947B0CCF9312
:101CE000DF9382E00E94880ACBE4D0E0CE01019726
:101CF000F1F740E060E980E00E94FD092197F1F7EB
:101D00000E94810AC82F82E00E94880A6C2F82E517
:101D100093E00E944D0C80918204882341F06CED89
:101D200077E082E593E0DF91CF910C947B0CDF911B
:101D3000CF91089584E10E946B0D882351F080912A
:101D40008204882349F067E977E082E593E00C9408
:101D50007B0C82E00C94880A08952FB7F894809148
:101D60004A0390914B03A0914C03B0914D032FBFB8
:101D70008053984FAF4FBF4F28E13EE00FB6F89425
:101D8000A895209360000FBE309360002FB7F894A1
:101D900040914A0350914B0360914C0370914D0365
:101DA0002FBF481759076A077B0780F38091820489
:101DB000882331F061E176E082E593E00C947B0CBE
:101DC00008958091B2038823C1F040E061E080E093
:101DD0000E94FD0983E592E00197F1F740E061E0A0
:101DE00081E00E94FD0980918204882331F06CE437
:101DF00075E082E593E00C947B0C089560E080919F
:101E0000B4030E94A10D882339F0809182046FE60B
:101E100074E081110CC0089584E00E946B0D88234A
:101E200051F0809182048823B1F36CE574E082E57F
:101E300093E00C947B0C0E94940D882339F08091E0
:101E4000820462E474E0882331F3F1CF82E00C94E1
:101E5000880A6CEA70E082E593E00C947B0C809138
:101E6000820491E08927809382046BEF71E082E520
:101E700093E00E94600B8091820460E272E088230C
:101E800011F064E172E082E593E00C94640C82E569
:101E900093E00E94F10B65E072E082E593E00C9420
:101EA000600BE82FF0E0E050FC4F90819F3319F475
:101EB00091E09093840490910004911105C0682FE3
:101EC00081E094E00E94C70D8091830481111092FB
:101ED00083048091820481110E94470F0E94560B57
:101EE000109281040895CF93DF93D82FC091EF0310
:101EF000C7FD72C08D3051F164F48A3039F18091A0
:101F00008204882339F16D2F82E593E00E94D10786
:101F100021C08B3109F456C08B3289F7809146037A
:101F2000882339F010924603C23018F481E0809380
:101F300045038BE20E94370B80918204882379F05D
:101F40006BE282E593E00E94D10709C080914603CD
:101F5000882339F08D2F0E94370B10924603C0E082
:101F60001EC0C1110BC00E94560B809182048111CA
:101F70000E94470F8C2FDF91CF910895C33060F0FE
:101F8000809101048B3241F4809102048B3221F460
:101F900080914503C1E08111C2E010924503809118
:101FA000EF0387FFE7CF809101048B3231F48091FA
:101FB00002048B3211F4CC2389F081E080938304F6
:101FC000C2E0D8CF80914603882311F08BE1C3CFC4
:101FD00081E080934603C3CFC0E0E5CF80918204C7
:101FE000882331F061EC70E082E593E00E947B0C85
:101FF0000E94560BBFCFAF92BF92CF92DF92EF926B
:10200000FF920F931F93CF93DF9300D01F92CDB712
:10201000DEB719821A821B828091EE03082F0770A7
:102020001092AA03D090AB03873019F481E080931B
:10203000AB038091B203823009F0F2C061E080917D
:10204000B4030E94A10D8823D1F0809182048823DB
:10205000B1F068EF79E082E593E00E94D807409103
:10206000B40350E070E060E02AE082E593E00E9473
:102070006F0B6FEE79E082E593E00E947B0C40915C
:10208000B9035091BA0364E181E00E94DE0A85E061
:102090000E94880A84B1817884B98AB18E778AB91E
:1020A00085B18E6785B98BB181688BB9F12CE12C34
:1020B00087E0C82EA02EB12C1091AA031111F1C0F7
:1020C00082E00E94C9080197C1F5CE0101960E94E5
:1020D000F40C182F811131C08091B803833091F432
:1020E00082E593E00E946308892B61F082E593E02A
:1020F0000E9421080E94730F80938104813011F4A3
:10210000C092AA038091AA038730B9F082E00E94AE
:10211000C908892B91F0698182E593E00E94D1077B
:102120008FEFE81AF80A8091AB03882309F47FC087
:102130008091AA03853009F084C0809182048823AD
:1021400059F062EE79E082E593E00E94D807B7018A
:1021500082E593E00E94F50B8091AA038530A1F4FB
:1021600080918204882331F064ED79E082E593E088
:102170000E947B0C8091B003882331F06091BB03F7
:1021800082E593E00E94D107D092AB031123C1F006
:1021900080918204882341F0113031F468EB79E0BA
:1021A00082E593E00E947B0C80918204882341F0B9
:1021B000123031F46EE879E082E593E00E947B0C06
:1021C0008091B203823009F06EC00E94940D882382
:1021D00051F080918204882331F06BE679E082E54A
:1021E00093E00E94D8078091B203823011F40E94DC
:1021F000880A8091AA0381111092AA0381E011112B
:1022000001C080E00F900F900F90DF91CF911F9150
:102210000F91FF90EF90DF90CF90BF90AF90089517
:1022200088E00E94880A81E08093AB0333CF8981E4
:1022300090914803992351F090914703981709F41E
:102240007CCF8A818B8389818A8336CF073028F5BA
:10225000F501E35DFE4E0C94712034114A113E11DC
:1022600021113B11411144118A3059F78A818D3077
:1022700041F7102F62CF8D3021F78A818A3009F71C
:102280005CCF8330F1F659CF8330D9F68A818A301A
:10229000C1F68B818D30A9F650CF8A3091F68A81B4
:1022A000F9CF10E04ACF87E0A2CFCF93DF9300971A
:1022B00051F10E94E71FEC01C13385E7D80770F0A8
:1022C0000E94290F80918204882339F168EE78E01A
:1022D00082E593E0DF91CF910C947B0CD093ED03DA
:1022E000C093EC03809182048823B9F06CE279E01A
:1022F00082E593E00E94D807BE0182E593E0DF917A
:10230000CF910C94F50B6091EC037091ED0382E595
:1023100093E0DF91CF910C94370CDF91CF9108952A
:10232000CF93DF9368E072E00E9405200097B1F040
:10233000FC0101900020E9F73197E81BF90B349775
:1023400068F40E94E71FC82F833048F065EC78E0FE
:1023500082E593E0DF91CF910C947B0CC0E068E0C4
:1023600072E090E080E00E9405200097C9F1FC0136
:1023700001900020E9F73197E81BF90BD0E0349782
:1023800018F40E94E71FD82FCC23E1F041E06FEF53
:102390008FEF0E94FD0940E06FEF8D2F80950E9426
:1023A000FD0960E177E280E090E00E9445098091BC
:1023B000B203823029F481E0DF91CF910C94880A36
:1023C00086E0FACF8D2F0E946E0A60E177E280E00E
:1023D00090E00E94450980E0DF91CF910C946E0A55
:1023E000DF91CF910895009749F10E94E71F823055
:1023F000910560F00E94290F80918204882329F1C1
:102400006FE678E082E593E00C947B0C019791F005
:102410001092AE03809182048823B9F08091AE03BC
:1024200067E172E0882311F06BE072E082E593E0EF
:102430000C94640C81E08093AE03ECCF6091AE030A
:1024400070E082E593E00C94F50B0895CF93DF9351
:10245000009799F10E94E71FEC018230910570F01E
:102460000E94290F80918204882381F16FE378E034
:1024700082E593E0DF91CF910C947B0C8170809387
:10248000AC03CE0121E0822781708093000480910B
:1024900082048823D9F069E678E082E593E00E941F
:1024A000D80760E272E0CD2B11F064E172E082E5C2
:1024B00093E0DF91CF910C94640C6091AC0370E0D9
:1024C00082E593E0DF91CF910C94F50BDF91CF91F2
:1024D00008951F93CF93DF93009771F10E94E71F38
:1024E000EC01109182048230910558F01123A1F182
:1024F0006BEF77E082E593E0DF91CF911F910C9431
:102500007B0CBC0181E0682785E00E94F208112362
:1025100019F165EF77E082E593E00E94D80764E265
:1025200072E0CD2B11F461E372E082E593E0DF917C
:10253000CF911F910C94640C85E00E94C90861E062
:1025400070E0892B11F070E060E082E593E0DF91AC
:10255000CF911F910C94F50BDF91CF911F910895AE
:10256000CF93DF93009739F10E94E71FEC01803190
:10257000910570F00E94290F80918204882349F10F
:102580006AEA77E082E593E0DF91CF910C947B0CCF
:102590008093EE03809182048823D9F06FEC77E07A
:1025A00082E593E00E94D807BE0182E593E0DF91C7
:1025B000CF910C94F50B8091EE03883010F01092BF
:1025C000EE036091EE0382E593E0DF91CF910C94EE
:1025D0004D0CDF91CF910895CF93DF93009799F140
:1025E0000E94E71FEC018230910570F00E94290FD4
:1025F00080918204882381F167E677E082E593E0A9
:10260000DF91CF910C947B0C817080930004CE01FC
:1026100021E0822781708093AC038091820488231B
:10262000D9F061E977E082E593E00E94D80760E2A3
:1026300072E0CD2B11F064E172E082E593E0DF916E
:10264000CF910C94640C6091000470E082E593E0FB
:10265000DF91CF910C94F50BDF91CF910895CF933B
:102660000097A9F10E94E71FAC01990F660B770B49
:10267000413051406105710550F00E94290F809151
:10268000820465E177E0811116C0CF9108958093AF
:10269000B703C091820486FF13C041E060E480E488
:1026A0000E94FD0940E060E480E00E94FD09CC2327
:1026B00061F367E077E082E593E0CF910C947B0CC7
:1026C0000E942D0B66EF76E0CC23F9F2F4CF6091F7
:1026D000B70382E593E0CF910C944D0CAF92BF927B
:1026E000CF92DF92EF92FF920F931F93CF93DF93DE
:1026F000CDB7DEB72F970FB6F894DEBF0FBECDBFB4
:102700005C01CE0101967C010F96F70111928E17A4
:102710009F07E1F7670100E0A114B104B1F58091D2
:10272000B403898301E0670110E0C6018E199F0997
:10273000801791070CF06EC060E0F60181916F0187
:102740000E94A10D882309F44DC08091820463EC9E
:1027500075E0882399F182E593E02F960FB6F894FF
:10276000DEBF0FBECDBFDF91CF911F910F91FF90C4
:10277000EF90DF90CF90BF90AF900C947B0CF60160
:1027800081936F010F5F0F3071F268E072E0C50155
:10279000002311F090E080E00E9405200E94E71FD6
:1027A0008823E9F09FEF980F9E3148F30E94290F8C
:1027B000809182046CED75E08111CDCF2F960FB61C
:1027C000F894DEBF0FBECDBFDF91CF911F910F9167
:1027D000FF90EF90DF90CF90BF90AF9008950023CF
:1027E00069F3A1CF88E00E946B0D882339F08091B6
:1027F00082046AEA75E0882309F3ADCF0E94940D44
:10280000882309F492CF809182046EE875E08823D2
:10281000A9F2A1CF82E00E94880A809182048823D5
:1028200069F265E775E097CFCF93DF930097B1F139
:102830000E94E71FEC018430910570F00E94290F7F
:1028400080918204882391F160E773E082E593E050
:10285000DF91CF910C947B0C892B81F080918204C5
:10286000882361F068E373E082E593E00E947B0CCB
:1028700061E073E082E593E00E947B0CC093B803B3
:10288000C33011F01092AD0380918204882371F05F
:1028900065EF72E082E593E00E94D8076091B8038B
:1028A00082E593E0DF91CF910C944D0CDF91CF91B5
:1028B0000895CF93DF93009741F10E94E71FEC0149
:1028C0008F3F910579F070F00E94290F809182046A
:1028D000882309F167E972E082E593E0DF91CF9107
:1028E0000C947B0C8093BB0380918204882399F025
:1028F00068ED72E082E593E00E94D807BE0182E5B0
:1029000093E0DF91CF910C94F50B6091BB03062E01
:10291000000C770BF4CFDF91CF910895CF93DF9325
:10292000009769F10E94E71FEC018230910570F079
:102930000E94290F80918204882351F164E572E09E
:1029400082E593E0DF91CF910C947B0C81708093B2
:10295000B003809182048823D9F06AE772E082E5AF
:1029600093E00E94D80760E272E0CD2B11F064E1A1
:1029700072E082E593E0DF91CF910C94640C60915A
:10298000B00370E082E593E0DF91CF910C94F50BFA
:10299000DF91CF910895CF93DF93009709F43FC063
:1029A0000E94E71FEC018230910570F00E94290F10
:1029B000809182048823E9F167E372E082E593E085
:1029C000DF91CF910C947B0C0197F1F081E0809323
:1029D000B20386E00E94880A0E94810A80918204E4
:1029E000882339F16FE172E082E593E00E94D80715
:1029F0006CE472E0CD2B11F061E472E082E593E0CB
:102A0000DF91CF910C94640C82E08093B20381E05B
:102A10000E94880A0E94810A0E94E10EDFCF609125
:102A2000B2036150770B82E593E0DF91CF910C9474
:102A3000F50BDF91CF910895CF93DF93009769F164
:102A40000E94E71FEC018230910570F00E94290F6F
:102A500080918204882351F165EE71E082E593E074
:102A6000DF91CF910C947B0C81708093B1038091A6
:102A700082048823D9F06BE072E082E593E00E9443
:102A8000D80760E272E0CD2B11F064E172E082E5DC
:102A900093E0DF91CF910C94640C6091B10370E0EE
:102AA00082E593E0DF91CF910C94F50BDF91CF910C
:102AB0000895CF93DF93009739F10E94E71FEC014F
:102AC0008430910570F00E94290F80918204882340
:102AD00019F163EB71E082E593E0DF91CF910C9403
:102AE0007B0C8093B603809182048823A9F068ED63
:102AF00071E082E593E00E94D807BE0182E593E091
:102B0000DF91CF910C94F50B6091B60382E593E0D1
:102B1000DF91CF910C944D0CDF91CF910895CF931D
:102B2000DF93009769F10E94E71FEC01019781157F
:102B30009D4758F00E94290F8091820461E671E060
:102B4000811118C0DF91CF910895D093BA03C0933B
:102B5000B903809182048823A9F36CE971E082E5CE
:102B600093E00E94D807BE0182E593E00E94BB0B70
:102B70006EE871E082E593E0DF91CF910C947B0CDD
:102B80006091B9037091BA0382E593E0DF91CF9130
:102B90000C94F50BEF92FF920F931F93CF93DF935B
:102BA000DC01EC91E11109C0C1E08C2FDF91CF91E4
:102BB0001F910F91FF90EF900895E9017A018B0129
:102BC000198218820E94E71F9983888380179107D2
:102BD00020F0C0E0E816F90640F70E94290FC091E6
:102BE0008204CC2309F368EE70E082E593E00E9452
:102BF000D807A80170E060E02AE082E593E00E9437
:102C00006F0B62EE70E082E593E00E94D807B70197
:102C100082E593E00E94370CC8CFEF92FF920F93AA
:102C20001F93CF93DF9300D000D0CDB7DEB70097CE
:102C300009F46EC068E072E00E940520FC0120816A
:102C4000211124C068E072E090E080E00E9405203D
:102C5000FC012081211130C063E572E090E080E04A
:102C60000E9405208C01FC018081F12CE12C811156
:102C70002FC00E94290F809182046AEA78E088239D
:102C800081F082E593E00E947B0C0BC09E012F5FD8
:102C90003F4F4FEF50E062E070E00E94CA1588237A
:102CA00089F20F900F900F900F90DF91CF911F91AD
:102CB0000F91FF90EF9008959E012D5F3F4F40E3ED
:102CC00055E770E060E00E94CA158111EACFC4CFD9
:102CD00089819A81E816F90620F7F8010190002011
:102CE000E9F73197BF01601B710B809100048111DE
:102CF00003C0C8010E94C70D6B817C8190E080E019
:102D00000E9445090E94FB0FFFEFEF1AFF0AE0CF78
:102D10000E94290F80918204882319F267E978E0E4
:102D2000B0CFCF93DF9300D0CDB7DEB7009709F4D3
:102D300064C068E072E00E9405209E012F5F3F4F53
:102D40004EE150E061E070E00E94CA15811113C0AD
:102D500089819A812091B3032817190689F40E946A
:102D6000290F80918204882331F065E271E082E5C9
:102D700093E00E947B0C0F900F90DF91CF9108950C
:102D80008093B40380918204882361F065E071E050
:102D900082E593E00E94D80769817A8182E593E019
:102DA0000E94370C1092B5031A82198268E072E013
:102DB00090E080E00E9405200097E9F29E012F5FDD
:102DC0003F4F4EE750E060E670E00E94CA15811167
:102DD000D2CF89818093B50380918204882359F2F0
:102DE00066E572E082E593E00E94600B69817A817A
:102DF00082E593E00E94370CBECF4091B40350E0CF
:102E000070E060E02AE082E593E00E946F0B809121
:102E1000B503882381F063E071E082E593E00E94CE
:102E2000D8074091B50350E070E060E02AE082E509
:102E300093E00E946F0B82E593E00E94F10B9BCF21
:102E4000CF93DF93009761F1DC010D900020E9F74B
:102E5000AD0141505109ECEBF3E020E3DF011D929D
:102E60002A95E9F7481B590B4033510510F04FE202
:102E700050E0EC01BC018CEB93E00E94AC2080910F
:102E80008204882369F063E278E082E593E00E949F
:102E9000D807BE0182E593E0DF91CF910C94640CDA
:102EA000DF91CF910895FF920F931F93CF93DF93FC
:102EB0000FEA13E0D0E0C0E0F801F1908F01CE01FD
:102EC0000E943920F81621F06F2DCE010E9441207A
:102ED0002196C034D10581F780918204882331F096
:102EE00067E477E082E593E00E94D807809182044E
:102EF000882359F067E577E082E593E0DF91CF9191
:102F00001F910F91FF900C947B0CDF91CF911F913B
:102F10000F91FF9008956F927F928F929F92AF9240
:102F2000BF92CF92DF92EF92FF920F931F93CF93B6
:102F3000DF93CDB7DEB760970FB6F894DEBF0FBE54
:102F4000CDBF4C01188A8E010F5F1F4F6E0180E1CB
:102F5000C80ED11CF80158011192CE16DF06E1F718
:102F6000F12C8114910409F058C08091B403898335
:102F7000E12CFF24F3948FE30E946B0D811187C035
:102F80008091B303805E0E946B0D811180C088E147
:102F90000E946B0D81117BC010E000E08F2C912C02
:102FA000081519050CF0CEC0702EE11004C0F50113
:102FB000E00FF11F70808091B303871509F4BFC043
:102FC00080E4870D0E946B0D811161C085E00E9435
:102FD000880AC6010E94F40C8111A7C0688981E0AB
:102FE0008F1508F082C066FFAAC069E876E082E526
:102FF00093E00E94D807B80182E593E00E94BB0BE2
:1030000067E876E082E593E00E94D807688982E568
:1030100093E00E944D0C840192C068E072E0C4010C
:10302000FF2011F090E080E00E9405203C0143E089
:1030300050E068E772E00E949E20892B71F4E090D6
:103040008204EE2009F44EC06EEC76E082E593E057
:103050000E947B0C8EE1F82E8ECFF40101900020AF
:10306000E9F73197E819F909339778F5C3010E9418
:10307000E71F882341F19FEF980F9E31E8F00E94EF
:10308000290F8091820460EA76E0811126C0609663
:103090000FB6F894DEBF0FBECDBFDF91CF911F9169
:1030A0000F91FF90EF90DF90CF90BF90AF909F90E7
:1030B0008F907F906F900895F80181938F01F39422
:1030C000FFE0FF12AACFE12C56CF0E94290F80917A
:1030D00082046EE876E08823D1F282E593E00E94D4
:1030E0007B0CD5CFEE24E394B5CF82E593E00E942C
:1030F0004D0C80918204882309F48DCF60E776E03F
:1031000082E593E00E94D807488950E070E060E0D3
:103110002AE082E593E00E946F0B65E576E082E5A8
:1031200093E00E94D807672D72CF80918204882394
:1031300031F066E376E082E593E00E947B0C0F5F5E
:103140001F4F2ECFEE2021F082E593E00E94F10B7D
:1031500089E10E946B0D81119ACF8FE50E946B0D62
:10316000811195CF8FE30E946B0D811190CF82E08A
:103170000E94880A87E00E94C908892B59F481E0DF
:103180008093F00380918204882309F480CF6FE15B
:1031900076E0A3CF1092F003F5CF88E792E00C948D
:1031A0008B17CF93DF93EC0185E00E94C908892B30
:1031B000A9F5209731F143E050E068E772E0CE01D5
:1031C0000E949E20892B51F540E060E280E20E943F
:1031D000FD0968E270E080E090E00E94450940E06F
:1031E00060EA80E00E94FD0968E270E080E090E023
:1031F0000E94450940E060E880E8DF91CF910C949F
:10320000FD0960E08091B4030E94A10D882349F07C
:103210008091820462E375E081110EC0DF91CF914D
:10322000089581E00E946B0D882361F080918204F3
:103230008823A1F36EE175E082E593E0DF91CF9101
:103240000C947B0C0E94940D882339F080918204A9
:1032500061E075E0882311F3EFCF82E0DF91CF9139
:103260000C94880ACF93DF93EC0185E00E94C90893
:10327000892BD1F42097E9F043E050E068E772E051
:10328000CE010E949E20892B79F481E10E946B0D72
:10329000882351F080918204882331F063EE74E03A
:1032A00082E593E00E947B0C82E0DF91CF910C9449
:1032B000880A60E08091B4030E94A10D882349F040
:1032C0008091820465EC74E081110EC0DF91CF9192
:1032D000089581E10E946B0D882361F08091820442
:1032E0008823A1F368EA74E082E593E0DF91CF914F
:1032F0000C947B0C0E94940D8823B1F2809182047F
:1033000068E874E0882311F3EFCFCF93DF93109236
:10331000AB03109248030097A1F0EC01FC0101906F
:103320000020E9F73197E81BF90B3497A0F0809162
:103330008204882331F069E174E082E593E00E9421
:103340007B0C8091B8038330D9F481E08093AD0386
:10335000DF91CF91089543E050E06CE772E00E9466
:103360009E20892B21F481E08093AB03EACF81E09A
:1033700080934803CE010E94E71F80934703E1CF6B
:10338000DF91CF910C94FB0F009751F043E050E098
:1033900060E872E00E949E2069EB73E0892B61F087
:1033A0008091BC0369EE73E0882331F06CEB73E02D
:1033B00082E593E00C94640C82E593E00C947B0C22
:1033C0001F920F920FB60F9211248F939F938091AB
:1033D000E1009091E100937F9093E10083FF0FC0A3
:1033E0001092E90091E09093EB001092EC0092E3D0
:1033F0009093ED001092FF0398E09093F00082FF0D
:1034000022C093E09093E9009091F200992319F083
:103410009AE39093E8009091A703992341F090914B
:10342000A70391509093A703911101C05D989091CB
:10343000FE03992341F09091FE0391509093FE0377
:10344000911101C0289884FF18C08091E2008E7EFF
:1034500081608093E2008091E1008F7E8093E100A3
:103460008091A8038E7E80618093A8039F918F91A5
:103470000F900FBE0F901F90189580FFF7CF80918F
:10348000E2008E7E80618093E2008091E1008E7E7A
:103490008093E1008091A8038E7E8160E5CF1F922A
:1034A0000F920FB60F921124CF92DF92EF92FF92FC
:1034B0000F931F932F933F934F935F936F937F933C
:1034C0008F939F93AF93BF93EF93FF93CF93DF932C
:1034D000CDB7DEB76C97DEBFCDBF1092E90080910B
:1034E000E80083FF25C068E0CE0145960E94C4072E
:1034F00082EF8093E8008D8987FF39C09091E800C2
:1035000090FFFCCF982F907609F034C19E894F89A7
:10351000588D2F89F88C911131C0803861F58091D8
:10352000A9038093F1001092F1008EEF8093E800E0
:103530006C960FB6F894DEBF0FBECDBFDF91CF9172
:10354000FF91EF91BF91AF919F918F917F916F917B
:103550005F914F913F912F911F910F91FF90EF90AD
:10356000DF90CF900F900FBE0F901F9018959EEF99
:103570009093E800C7CF1092F100D5CF913059F465
:103580008111D3CF4130510581F68091A9038D7F00
:103590008093A903CACF933049F48111C6CF41303B
:1035A000510519F68091A9038260F2CF953041F45C
:1035B0008091E80080FFFCCF20682093E300B5CF26
:1035C000963009F0A9C00B8D1C8D22E01092E90005
:1035D0001092A5031092A403F2122EC01092A3031E
:1035E0001092A2030E9493071F8299E09983FA82A6
:1035F00091E09E8390EA98879AEF99872091A4039F
:103600003091A503275F3F4F3C832B838D8310921E
:10361000E9001092A5031092A4031093A303009352
:10362000A20349E050E0BE016F5F7F4F80E00E943F
:103630006D070E94930779CF1093A3030093A20311
:103640000E942007DC0112960D911C9101151105B5
:1036500009F451C1D801ED91FC910480F581E02D70
:10366000BE016B5E7F4FC8010995009709F03EC10E
:10367000F80100851185EACFF3E0FF120EC08F89B3
:10368000882309F440C0823061F440E86DE08DE5A4
:103690009CE00E94CB1C811148CF81E28093EB001B
:1036A00047CF813029F440E86BE081E59CE0F1CF21
:1036B000833099F70E942007DC011296ED90FC9070
:1036C0008E010F5F1F4F6801E114F10479F0D701FB
:1036D000ED91FC910680F781E02DB801C7010995B5
:1036E000080F111DF701E084F184EECFD8011C9280
:1036F000F60101900020E9F73197BF016C197D09AF
:1037000040E0C601C6CF6BE37CE0FB01449150E092
:1037100080E80E946D0709CF973009F4BECF98303A
:1037200021F481E08093F10000CF993009F0FDCEC3
:10373000837009F0B2CFE0E2F1E081E031E096E39E
:103740002191222371F08093E9003093EB00DF0197
:1037500011972C912093EC009093ED008F5F8730B0
:1037600079F78EE78093EA001092EA008F898093C0
:10377000FF03DBCE8B8D9C8D1092E9001092A50388
:103780001092A4039093A3038093A203898D8111C7
:1037900092C08E899D89913A49F4813209F07DCF9A
:1037A00047E050E065E071E080E0B3CF913209F08E
:1037B00074CF833269F48F89988DB0E0A0E0809354
:1037C000010190930201A0930301B0930401ADCED7
:1037D000803269F48091E80082FFFCCF67E085E0E9
:1037E00091E00E94C4078BEF8093E8009ECE823266
:1037F00009F09BCE8F8980930C01EEEFFFE7859156
:1038000094918B3F9C4D51F1E0E0F8E080910501EF
:1038100090910601A0910701B0910801803B94406E
:10382000A105B105F1F480910C0180FD1AC0EE3FB5
:103830008AE0F80789F587E797E79183808380918D
:1038400060008093A60388E19BE00FB6F894A895EA
:10385000809360000FBE9093600067CEEEEFFAE0B9
:10386000D5CF808191818737974709F05ECEA895A3
:10387000809160008861809360008091A6038093AE
:103880006000EE3F2AE0F20789F08091FE0A9091F5
:10389000FF0A9183808349CE808191818737980781
:1038A00051F29093FF0A8093FE0AC5CF1092FF0A4F
:1038B0001092FE0A3ACE0E942007DC0112960D916A
:1038C0001C910115110509F4E8CED801ED91FC9188
:1038D0000190F081E02DBE016B5E7F4FC80109951C
:1038E000811123CEF80100851185EBCF181619063A
:1038F0000CF41BCED2CEF1E0FF12BECE6FE37CE023
:1039000004CF1F920F920FB60F9211242F933F9363
:103910008F939F93AF93BF9380914A0390914B03F2
:10392000A0914C03B0914D033091490323E0230F44
:103930002D3758F50196A11DB11D209349038093A1
:103940004A0390934B03A0934C03B0934D03809193
:103950004E0390914F03A0915003B09151030196F3
:10396000A11DB11D80934E0390934F03A09350036C
:10397000B0935103BF91AF919F918F913F912F9140
:103980000F900FBE0F901F90189526E8230F0296F8
:10399000A11DB11DD2CFEF92FF920F931F93CF9332
:1039A000DF93F82E192FE62E042F81E0860F880F63
:1039B0000E943F0783E00E943F07CF2DD12FEC0EDE
:1039C000FD2EF11CCE15DF05B9F007FF13C0FE0177
:1039D00084910E943F07182F80E00E943F078123B7
:1039E00021968111EFCFDF91CF911F910F91FF9021
:1039F000EF9008958881EDCF81E0F5CFCF93DF93ED
:103A0000CDB7DEB7C05CD1090FB6F894DEBF0FBEEC
:103A1000CDBF789484B5826084BD84B5816084BD57
:103A200085B5826085BD85B5816085BD80916E005C
:103A3000816080936E00109281008091810082608D
:103A400080938100809181008160809381008091CA
:103A500080008160809380008091910082608093DB
:103A600091008091910081608093910080919000FD
:103A70008160809390008091C10084608093C10038
:103A80008091C10082608093C1008091C1008160FB
:103A90008093C1008091C30081608093C3008091B6
:103AA000C00082608093C0008091C20081608093DA
:103AB000C20080917A00846080937A0080917A00BD
:103AC000826080937A0080917A00816080937A008E
:103AD00080917A00806880937A001092FF031092A0
:103AE000A9031092A8038091D70081608093D7002A
:103AF00080EA8093D80089B5806189BD89B58260EC
:103B000089BD09B400FEFDCF61E070E080E090E087
:103B10000E9445098091D8008F7C80618093D800F5
:103B20008091E000807F8093E0008091E1008E7EB4
:103B30008093E1008DE08093E200559A209A5D9891
:103B400028980FB6F894A8958091600088618093BA
:103B50006000109260000FBEE3EBFCE02491E4E90A
:103B6000FCE08491882399F090E0880F991FFC0174
:103B7000E758F34FA591B491FC01E559F34F8591B6
:103B800094918FB7F894EC91E22BEC938FBF60E0A7
:103B90008DE00E94F2080E94560B8FEF9FEF9093EA
:103BA0005F0380935E030E94420B90E080E00E94DE
:103BB00039208C3C89F43FEAE32E33E0F32E10E009
:103BC00000E0C8010E943920D7018D937D010F5F6D
:103BD0001F4F00341105A9F78091B203813029F4F9
:103BE00086E00E94880A0E94810A8091B203823096
:103BF00039F481E00E94880A0E94810A0E94E10E45
:103C00001092F1031092F0038E010F5F1F4F6E01AF
:103C1000B1E8CB0ED11C9FE0292E312C20E0422EA2
:103C200020E0522E82E00E94C90821E0892B09F091
:103C300020E02093F10387E00E94C90821E0892B4E
:103C400009F020E02093F00382E593E00E946308EE
:103C50007C01892B49F082E593E00E9421080E94B3
:103C6000730F80938104F0CF80918104813009F03B
:103C700087C0A090EF03B12CA50161E074E0C801FA
:103C80000E9477200E94560B10928104F801C50112
:103C900002979F01201B310B281739071CF4228142
:103CA0002193F7CF800F911FFC011082FE01EA0DD6
:103CB000FB1D108280918204882321F082E593E02D
:103CC0000E94F10BD601E0E41D92EA95E9F78981A3
:103CD000813009F450C068E072E0C8010E940520FC
:103CE0003C0186E2882E81E0982EB301D4018D91AB
:103CF0009C910E9480205C01892B09F433C1BFEFA5
:103D0000EB1AFB0AE6E08E0E911CF3E2EF16F104CB
:103D100061F70E94290F2FC08FEFA81AB80A68E038
:103D200072E090E080E00E9405204C01DC018C9163
:103D3000882369F0B1E0AB16B10429F063E072E0CA
:103D4000C6010E949320B401C6010E9493208928D5
:103D500019F786E08E9DF0018F9DF00D1124EA5D2C
:103D6000FE4F0480F581E02DD6018C91882309F463
:103D70004DC0C60109958091820481110E94470FB0
:103D80008091B203823089F5809181048230B1F450
:103D90008091EF030E94510F8091B803813011F49C
:103DA0000E94FB0F8091B803823041F4809184041B
:103DB000882321F00E94FB0F109284048091F0036D
:103DC000882351F08091AE03882331F090E080E0A9
:103DD0000E948B171092F0038091B803833029F46E
:103DE0008091AD0381110E94FB0F8091B20381305D
:103DF000E1F48091AC03882361F0809181048230EA
:103E0000A1F48091EF030E94510F0FC090E080E079
:103E1000B1CFE0900004EE2091F00E94FB0F809162
:103E20008104823011F40E94560BC1010197F1F711
:103E30004114510409F4F6CE0E940000ECCEF0903B
:103E4000F103FF20D1F2198288E00E94880AB12C88
:103E5000A12C912C82E00E94C908892B11F5C80180
:103E60000E94F40C8111F6CF9091B403898120E275
:103E70002827921301C0EF2C20E42827921301C0B9
:103E80009F2C883151F0893151F08F3319F71092FE
:103E9000AB03B3E0B093AA03DDCFAF2CDBCFBF2CD5
:103EA000D9CFE1100E94FB0F992009F442C0AA204B
:103EB00009F44FC080918204882331F066E27DE0EE
:103EC00082E593E00E947B0C80918204882361F05C
:103ED00069EE7CE082E593E00E94D8076091B70329
:103EE00082E593E00E944D0C89E00E94880A80914F
:103EF000B7030E948D0C87E00E94880A809182049B
:103F0000882331F069E17DE082E593E00E947B0C3B
:103F10008091B7038F7B8093B7030E942D0B809114
:103F20008204882391F06FEF7CE082E593E00E94A9
:103F30007B0CBB2051F080918204882331F066E530
:103F40007DE082E593E00E947B0C87E00E94880A76
:103F500054CF80918104823061F78091EF030E94F9
:103F6000510FE7CF86E08E9DF0018F9DF00D11245B
:103F7000EA5DFE4F8091B20390E02281338182237B
:103F80009323892B09F0C8CE0E94290F80918204C7
:103F9000882309F4F0CE65EC7CE082E593E00E9492
:103FA0007B0CE9CEE2E5F3E01382128288EE93E027
:103FB000A0E0B0E084839583A683B78381E191E09C
:103FC000918380838FEF9FEF958784870895FC010D
:103FD00088279927E89421912032E9F3293010F0BD
:103FE0002E30C8F32B3241F02D3239F4689404C0DE
:103FF0000E943120820F911D219120532A30C0F35D
:104000001EF4909581959F4F089545E854E00E94D5
:104010000A200895FA01A191B081009719F4109730
:10402000E1F0CD01DC01CD010D90002011F4C001C3
:1040300013C0FB012191222319F02015D9F7F3CFEA
:10404000FB012191201519F41E92119606C022231E
:10405000C1F70D900020A1F7D001FA01A193B08320
:1040600008957AE0979F902D879F802D910D1124C0
:104070000895F999FECF92BD81BDF89A992780B530
:104080000895262FF999FECF1FBA92BD81BD20BD9C
:104090000FB6F894FA9AF99A0FBE01960895A1E224
:1040A0001A2EAA1BBB1BFD010DC0AA1FBB1FEE1FB2
:1040B000FF1FA217B307E407F50720F0A21BB30BFD
:1040C000E40BF50B661F771F881F991F1A9469F779
:1040D00060957095809590959B01AC01BD01CF01D5
:1040E0000895EE0FFF1F0590F491E02D0994FB0158
:1040F000DC0102C001900D9241505040D8F7089564
:10410000FB01DC018D9181341CF08B350CF4805E59
:10411000619161341CF06B350CF4605E861B61119B
:1041200089F3990B0895FB01DC010D900020E9F75C
:10413000119701900D920020E1F70895FB01DC0139
:104140004150504030F08D910190801919F40020B9
:10415000B9F7881B990B0895FB01DC0141505040D1
:1041600048F001900D920020C9F701C01D92415006
:0A4170005040E0F70895F894FFCFE7
:10417A0001FFFFFFFF00E100000000000000000057
:10418A0000FC0778091D081208630821083F080087
:10419A00C180810000008502030091168A02020094
:1041AA00CD181B030200141493020200FE0E97029C
:1041BA0002009A0E9B020300540B7C0203001C159A
:1041CA00A3020300B012A70203005915AB020300B1
:1041DA005914B40203008E14BF020200E10EC30296
:1041EA0002003219C7020200D118CB020100EC12F8
:1041FA00CF020200640ED5020300CB14DA020200D9
:10420A006F0EE00202008519E50202008F15F10225
:10421A0002006912F50202000D16FC020300AD0E3F
:10422A00000302006E130403030053170C03030078
:10423A0020178D0202008B17140302002A0C1803A0
:10424A000200F311200301002F1327030100261295
:10425A002B030300C4192F0303002F0F3703030096
:10426A0055113D03030090110D0A00566572626FE5
:10427A0073653A20003E2000200900535251206104
:10428A0075746F204F4E00535251206175746F2020
:10429A004F46460052454E206173736572746564D9
:1042AA000052454E20756E2D617373657274656494
:1042BA0000434F4E54524F4C4C45520044455649C8
:1042CA004345000A0D005365742064657669636589
:1042DA00207365636F6E64617279206164647265CC
:1042EA00737320746F3A2000616C6C00656F69000B
:1042FA007265616C006164647200616C6C73706FEA
:10430A006C6C00636C720064636C00646566617552
:10431A006C7400656F7200656F7300656F745F631C
:10432A0068617200656F745F656E61626C650069D1
:10433A006663006C6C6F006C6F63006C6F6E006D6F
:10434A006163726F006D6F64650070706F6C6C00F2
:10435A007265616400726561645F746D6F5F6D732D
:10436A000072656E00726570656174007273740024
:10437A007472670073617665636667007365747645
:10438A0073747200737271007372716175746F0065
:10439A0073746174757300746F6E0076657200765B
:1043AA006572626F736500746D6275730078646913
:0443BA006167000037
:2070000055C000006EC000006CC000006AC0000068C0000066C0000064C0000062C0000043
:2070200060C000005EC00000F2C400005AC0000058C0000056C0000054C0000052C00000EE
:2070400050C0000078C000004CC000004AC0000048C0000046C0000044C0000042C00000BE
:2070600040C000003EC000003CC000003AC0000038C0000036C0000034C0000032C0000048
:2070800030C000002EC000002CC000002AC0000028C0000026C0000024C0000022C00000A8
:2070A00020C000001EC000001CC0000011241FBECFEFDAE0DEBFCDBF11E0A0E0B1E0E2E3BC
:2070C000FFE702C005900D92A83AB107D9F711E0A8EAB1E001C01D92AE3BB107E1F78FD30B
:2070E00026C78ECFF89410926F0010928100109285001092840081E085BF15BE47985D98ED
:2071000028980C94000008952091B2013091B3012F5F3F4F3093B3012093B201932F37FFA8
:2071200003C08EEF831B982F990F921710F447980895479A08951F920F920FB60F9211246E
:207140002F938F939F93EF93FF9310928500109284008091A8019091A901009741F00197D3
:207160009093A9018093A801892B09F45D988091AA019091AB01009741F001979093AB0128
:207180008093AA01892B09F42898E0E0F0E0859194918F5F9F4F49F08091AC019091AD0153
:2071A00001969093AD018093AC01FF91EF919F918F912F910F900FBE0F901F90189584E0BC
:2071C0008093E9000DC08091E8008B778093E80003C08EB3882351F08091E80082FFF9CFBE
:2071E0008091E80085FFEFCF8091F1000895982F83E08093E9008091E80085FD0DC0809136
:20720000E8008E778093E80003C08EB3882369F08091E80080FFF9CF9093F1005D9A84E6C9
:2072200090E09093A9018093A80108954F925F926F927F928F929F92AF92BF92CF92DF921E
:20724000EF92FF920F931F93CF93DF9384E08093E9008091E80082FF57C2289A84E690E065
:207260009093AB018093AA01AADF182F853481F48CE49DE19093AD018093AC0107B600FC4B
:20728000FDCFF999FECF81E180935700E89503C0843519F494DF8DE00DC28C34E1F38035F9
:2072A000D1F3843721F484E4A2DF80E003C2813611F489E5FFC18134B1F481DF182F7FDFE3
:2072C00090E0880F991FAA2797FDA095BA2F312F330F20E0442737FD4095542F822B932B68
:2072E000A42BB52BB8C1803711F483E5E3C1833549F4C0E0D1E089917ADF21E0C730D20714
:20730000D1F7D9C1863521F481E371DF80E3D2C1833731F487E86BDF85E969DF8EE1CAC149
:207320008536B9F4E0E0F0E093E085E090935700E89507B600FCFDCF80935700E89507B65D
:2073400000FCFDCFE058FF4FA0E7E030FA0771F7A2CF823739F4E1E0F0E089E08093570024
:207360008491A8C1863439F4E0E0F0E089E08093570084919FC18E3439F4E3E0F0E089E0E5
:2073800080935700849196C1813539F4E2E0F0E089E08093570084918DC1823631F489E521
:2073A00026DF80E024DF80E885C1823419F0873609F0E5C01092AD011092AC0100DF082FE8
:2073C000FEDEF82EFCDE682E8554823008F071C1902F80E0CF2DD0E0C82BD92B10926F00B3
:2073E000173609F04BC081E180935700E895DD24CC24C3943FC0E090AE01F090AF010091CC
:20740000B0011091B101B6E46B16D9F4ED2DF0E0EE29FF29E4918E2FEADEDD2081F082E08D
:2074200090E0A0E0B0E0E80EF91E0A1F1B1FE092AE01F092AF010093B0011093B101DC2470
:2074400018C0D801C701B695A7959795879559D5CEDE82E090E0A0E0B0E0E80EF91E0A1FF2
:207460001B1FE092AE01F092AF010093B0011093B1012197209709F0BECF7DC08090AE01F5
:207480009090AF01A090B001B090B10196E4691609F05DC083E0F40180935700E89507B63E
:2074A00000FCFDCF54C0F6E46F1661F5772031F1E090AE01F090AF010091B0011091B1019E
:2074C0007EDED82ECC24852D90E08C299D29F7010C0140925700E895112482E090E0A0E08B
:2074E000B0E0E80EF91E0A1F1B1FE092AE01F092AF010093B0011093B10102C060DE582E1A
:20750000742423C0E090AE01F090AF010091B0011091B10116950795F794E79450DE682FFA
:20752000C701F7D48091AE019091AF01A091B001B091B1010296A11DB11D8093AE01909349
:20754000AF01A093B001B093B101219704C05524772444244394209709F0A5CF96E46916B6
:2075600041F485E0F40180935700E89507B600FCFDCF8DE03CDE82E080936F009CC0833492
:2075800071F40091AE011091AF0119DE90E021E0F8010C0120935700E89511247CCE8336C8
:2075A00019F5E090AE01F090AF010091B0011091B10105DEF701E16090E021E00C0120938C
:2075C0005700E895112482E090E0A0E0B0E0E80EF91E0A1F1B1FE092AE01F092AF0100936A
:2075E000B0011093B10157CE8D3661F4E091AE01F091AF0185E080935700E89507B600FCF2
:20760000FDCF49CE823551F4E091AE01F091AF0105911491812FEBDD802F4CC0843421F5FE
:20762000E090AE01F090AF010091B0011091B10116950795F794E794C2DD682FC70169D4DE
:207640008091AE019091AF01A091B001B091B1010296A11DB11D8093AE019093AF01A093D8
:20766000B001B093B10117CE843609F5E090AE01F090AF010091B0011091B101D801C70142
:20768000B695A795979587953CD4B1DD82E090E0A0E0B0E0E80EF91E0A1F1B1FE092AE010A
:2076A000F092AF010093B0011093B10104C08B3111F08FE39CDD83E08093E9009091E8002B
:2076C0008091E8008E778093E80095FF04C010C08EB38823C9F08091E80080FFF9CF809193
:2076E000E8008E778093E80003C08EB3882361F08091E80080FFF9CF84E08093E9008091F1
:20770000E8008B778093E800DF91CF911F910F91FF90EF90DF90CF90BF90AF909F908F90AC
:207720007F906F905F904F9008959091B601892F8F77813249F58091B7018032A1F081328A
:2077400019F5913A09F58091E800877F8093E8008DE091E067E070E00BD28091E8008B770B
:207760008093E8000895913279F48091E800877F8093E8008DE091E067E070E05DD2809192
:20778000E8008E778093E800089582E061EC42E0B5D083E061E842E1B1D084E060E842E1EF
:2077A000ADC084B7877F84BF88E10FB6F89480936000109260000FBE20E880E090E00FB63F
:2077C000F89420936100809361000FBE81E085BF92E095BF3F9A209A559AE1E6F0E02083A1
:2077E000108247985D982898109289008AEF8093880090936F0083E080938100F0C040911A
:20780000000850910108109201081092000894B714BE88E10FB6F8948093600010926000D5
:207820000FBE292F30E0F901E270F07091FD18C090FF05C0859194918F5F9F4F81F423FFFF
:207840000FC08091090190910A014817590741F0E0E0F0E0859194918F5F9F4F09F042DC64
:20786000A0DF78941092AD011092AC010CC0DEDC36D38091AC019091AD0181549F4110F00D
:207880001092140141DC80911401882381F78091E00081608093E00025DC80E090E0089598
:2078A000FA01923049F0933061F09130F9F485E191E022E130E01EC087E291E02EE330E04D
:2078C00019C0882329F485E691E024E030E012C0813029F489E691E022E230E00BC0823006
:2078E00029F48DE891E028E130E004C080E090E020E030E091838083C90108958093E9004E
:207900008091EB0081608093EB001092ED006093EC004093ED008091EE00881F8827881F62
:2079200008958091B60188238CF403C08EB38823B1F08091E80082FFF9CF8091E8008B772A
:207940008093E80008958EB3882349F08091E80080FFF9CF8091E8008E778093E800089594
:20796000EF92FF920F931F9345D04CD008ED10E0F80180818F77808380818068808380819B
:207980008F7D808319BC1EBA1092B40180EEE82EF12CF70180818B7F8083F8018081816052
:2079A000808380E060E042E0A9DFE1EEF0E080818E7F8083E2EEF0E0808181608083808144
:2079C00088608083F70180818E7F8083F8018081806180831F910F91FF90EF900895E7ED06
:2079E000F0E08081816080838AE482BF81E08093B501B6CFE8EDF0E080818E7F808310921C
:207A0000E20008951092DA001092E10008951F920F920FB60F9211242F933F934F935F93F6
:207A20006F937F938F939F93AF93BF93EF93FF938091DA0080FF1BC08091D80080FF17C0B2
:207A40008091DA008E7F8093DA008091D90080FF0BC080E189BD82E189BD09B400FEFDCF36
:207A600081E08EBB3BD203C019BC1EBA37D28091E10080FF17C08091E20080FF13C0809138
:207A8000E2008E7F8093E2008091E20080618093E2008091D80080628093D80019BC85E049
:207AA0008EBB1CD28091E10084FF2CC08091E20084FF28C080E189BD82E189BD09B400FEC5
:207AC000FDCF8091D8008F7D8093D8008091E1008F7E8093E1008091E2008F7E8093E20012
:207AE0008091E20081608093E2008091B401882331F48091E30087FD02C081E001C084E067
:207B00008EBBECD18091E10083FF21C08091E20083FF1DC08091E100877F8093E10082E06A
:207B20008EBB1092B4018091E1008E7F8093E1008091E2008E7F8093E2008091E2008061E9
:207B40008093E20080E060E042E0D8DEC7D1FF91EF91BF91AF919F918F917F916F915F9130
:207B60004F913F912F910F900FBE0F901F9018959C014091BC015091BD014617570718F49D
:207B8000F90190E044C06115710511F0AB01F8CF8091E8008E778093E80040E050E0F0CF0F
:207BA0008EB3882309F444C0853009F443C08091E80083FF02C081E008958091E80082FD70
:207BC00031C08091E80080FF22C08091F3009091F200782F60E0292F30E0262B372B07C07A
:207BE00081918093F100415050402F5F3F4F4115510519F02830310598F390E02830310566
:207C000009F491E08091E8008E778093E8004115510531F6992321F605C08EB3882341F075
:207C2000853041F08091E80082FFF7CF80E0089582E0089583E008959C016115710529F47C
:207C40008091E8008B778093E800F90126C08EB3882391F1853091F18091E80083FF02C06C
:207C600081E008958091E80082FFF1CF06C08091F10081936150704059F02091F300809191
:207C8000F200322F20E090E0822B932B892B79F78091E8008B778093E80061157105B9F601
:207CA00005C08EB3882341F0853041F08091E80080FFF7CF80E0089582E0089583E00895C2
:207CC0000F931F93DF93CF9300D0CDB7DEB7E6EBF1E08091F100819381E0EE3BF807C9F792
:207CE00024DD8091E80083FFE4C08091B6019091B701953009F46DC0963040F4913081F1A7
:207D0000913070F0933009F0D4C02AC0983009F4A3C0993009F4B2C0963009F0CAC07CC023
:207D2000803809F4C6C0823809F0C3C08091BA0187708093E9008091EB001092E9002091DB
:207D4000E800277F2093E80090E025E0969587952A95E1F781708093F1001092F10087C0D8
:207D6000882319F0823009F0A4C08F71823009F0A0C08091B801882331F52091BA01277097
:207D800009F497C02093E9008091EB0080FF1BC0933021F48091EB00806213C08091EB0018
:207DA00080618093EB0081E090E002C0880F991F2A95E2F78093EA001092EA008091EB00E5
:207DC00088608093EB001092E9008091E800877F51C0882309F06DC01091B8011F770FB79B
:207DE000F8948091E800877F8093E8009ADD8091E80080FFFCCF8091E3008078812B809398
:207E0000E30080688093E300112311F482E001C083E08EBB0FBF4DC08058823008F049C033
:207E20008091B8019091B9016091BA01AE014F5F5F4F36DDBC01009709F43BC08091E8008E
:207E4000877F8093E80089819A8192DE8091E8008B778093E8002DC0803859F58091E800AA
:207E6000877F8093E8008091B4018093F1008091E8008E778093E80054DD1BC08823C9F4CA
:207E80009091B8019230A8F48091E800877F8093E8009093B40145DD8091B401882331F420
:207EA0008091E30087FD02C081E001C084E08EBB6CDC8091E80083FF0AC08091EB0080624E
:207EC0008093EB008091E800877F8093E8000F900F90CF91DF911F910F91089508951F9360
:207EE0008EB3882361F01091E9001092E9008091E80083FF01C0E4DE17701093E9001F916F
:207F00000895F999FECF92BD81BDF89A992780B50895262FF999FECF1FBA92BD81BD20BDBD
:207F20000FB6F894FA9AF99A0FBE01960895F894FFCF4341544552494E4100777700080031
:207F40000000000000080112011001020000084123370001000201000109023E00020100FE
:207F600080320904000001020201000524001001042402040524060001070582030800FF0C
:207F800009040100020A000000070504021000010705830210000104030904220341007216
:207FA000006400750069006E006F0020004D006900630072006F0020002000200000001810
:1A7FC00003410072006400750069006E006F0020004C004C004300000000D7
:00000001FF
