:10000000F9C6000028C7000026C7000024C700006A
:1000100022C7000020C700001EC700001CC7000048
:100020001AC7000018C7000016C7000014C7000058
:1000300012C7000010C700000EC700000CC7000068
:100040000AC7000008C7000006C7000004C7000078
:1000500002C7000000C70000FEC600000C94391A59
:10006000FAC600000C94031A0C94D919F4C60000C7
:10007000F2C60000F0C60000EEC60000ECC60000AC
:10008000EAC60000E8C60000E6C60000E4C60000BC
:10009000E2C60000E0C60000DEC60000DCC60000CC
:1000A000DAC60000D8C60000D6C60000D4C60000DC
:1000B000D2C60000D0C60000CEC60000CCC60000EC
:1000C000CAC60000C8C60000C6C60000C4C60000FC
:1000D000C2C60000C0C60000BEC60000BCC600000C
:1000E000BAC60000556E7265636F676E697A6564A3
:1000F00020636F6D6D616E64004552524F52202D2A
:1001000020436F6D6D616E64206275666665722056
:100110006F766572666C6F77210020616E642000D7
:10012000496E76616C69643A2072616E6765206918
:1001300073206265747765656E20002000536574D6
:1001400020646576696365207072696D61727920DB
:100150006164647265737320746F3A20005468613F
:1001600074206973206D79206164647265737321F2
:100170002041646472657373206F6620612072652C
:100180006D6F74652064657669636520697320729C
:10019000657175697265642E00496E76616C69647B
:1001A0003A2076616C69642074696D6F7574207291
:1001B000616E67652069732031202D203332303025
:1001C00030206D732E00206D696C6C697365636FF0
:1001D0006E647300536574205B726561645F746D57
:1001E0006F5F6D735D20746F3A2000496E76616CAD
:1001F00069643A20657870656374656420454F537F
:100200002076616C7565206F662030202D203300CC
:1002100053657420454F5320746F3A2000496E7621
:10022000616C69643A206578706563746564204523
:100230004F492076616C7565206F662030206F72A3
:1002400020310053657420454F49206173736572F6
:1002500074696F6E3A2000496E74657266616365F9
:10026000206D6F64652073657420746F3A200049B7
:100270006E76616C69643A206D6F6465206D75738C
:10028000742062652030206F72203100496E7661E3
:100290006C69643A20657870656374656420454FC5
:1002A000542076616C7565206F662030206F722057
:1002B0003100417070656E64696E67206F6620451D
:1002C0004F54206368617261637465723A2000491B
:1002D0006E76616C69643A206578706563746564F4
:1002E00020454F54206368617261637465722041D8
:1002F000534349492076616C756520696E207468A6
:10030000652072616E67652030202D203235350002
:10031000454F542073657420746F204153434949FD
:10032000206368617261637465723A20004175747C
:100330006F206D6F64653A2000202020202020204F
:1003400020202761646472657373656420746F2074
:1003500074616C6B20627574206E6F7468696E676F
:1003600020746F2073617927206572726F72730039
:100370005741524E494E473A206175746F6D6F6414
:1003800065204F4E2063616E206361757365207335
:100390006F6D65206465766963657320746F20678F
:1003A000656E6572617465004175746F6D6F64652B
:1003B0003A2076616C69642072616E6765206973AA
:1003C000205B302D64697361626C657C312D5072E5
:1003D0006F6C6F6769787C322D6F6E2D71756572E9
:1003E000797C332D636F6E74696E756F75735D2ED6
:1003F000004152343838204750494220636F6E74B0
:10040000726F6C6C65722C207665722E20302E34E3
:10041000382E32322C2031382F30342F32303230D7
:10042000004152343838204750494220636F6E747F
:10043000726F6C6C65722C207665722E20302E34B3
:10044000382E32322C2031382F30342F32303230A7
:1004500000496E76616C6964207465726D696E61C5
:1004600074696F6E20636861726163746572202DB8
:100470002069676E6F72656421004661696C65640E
:1004800020746F20756E74616C6B20475049422058
:10049000627573004661696C656420746F207365D2
:1004A0006E6420534443004661696C656420746F38
:1004B00020616464726573732064657669636500A6
:1004C0004661696C656420746F20756E6C69737425
:1004D000656E20746865204750494220627573003C
:1004E0004661696C656420746F2073656E64204C8E
:1004F0004C4F20746F2064657669636500466169BE
:100500006C656420746F2061646472657373207419
:100510006865206465766963652E004661696C656F
:100520006420746F2073656E6420756E69766572E1
:1005300073616C204C4C4F2E004661696C656420E1
:10054000746F20756E6C697374656E2047504942F4
:10055000206275732E004661696C65642073656E58
:1005600064696E67204C4F432E004661696C656478
:1005700020746F20616464726573732064657669AA
:1005800063652E00494643207369676E616C206184
:100590007373657274656420666F72203135302024
:1005A0006D6963726F7365636F6E64730047726F1A
:1005B0007570207472696767657220636F6D706C07
:1005C000657465642E004661696C656420746F20F3
:1005D000756E6C697374656E204750494220627570
:1005E00073004661696C656420746F20747269677A
:1005F00067657220646576696365004661696C654C
:100600006420746F2061646472657373206465761E
:1006100069636500496E76616C69643A20475049A8
:1006200042207072696D61727920616464726573D1
:100630007320697320696E207468652072616E672B
:10064000652031202D2033300052657365742046BB
:1006500041494C45442E0053657269616C20706FAE
:100660006C6C20636F6D706C657465642E00466100
:10067000696C656420746F20726574726965766553
:10068000207374617475732062797465005D2066EF
:10069000726F6D20646576696365206174206164A2
:1006A00064726573733A20005265636569766564A8
:1006B000207374617475732062797465205B002CFB
:1006C000005352513A00496E76616C696420706142
:1006D00072616D6574657200496E76616C69643A29
:1006E00020475049422061646472657373657320CA
:1006F00061726520696E207468652072616E67653D
:1007000020312D33300053657269616C20706F6C3D
:100710006C206F6620616C6C20646576696365731C
:10072000207265717565737465642E2E2E005352A8
:100730005120756E2D61737365727465642E00535C
:1007400052512061737365727465642E00496E7630
:10075000616C69643A2065787065637465642062D1
:100760007974652076616C756520696E20746865A2
:100770002072616E67652030202D203235350053A0
:10078000657474696E67732073617665642E0053B7
:10079000657474696E67732073617665642E004CAE
:1007A0004F4E3A2076616C69642072616E676520F5
:1007B0006973205B302D64697361626C657C312DD7
:1007C000656E61626C655D2E004C4F4E3A200053A1
:1007D000656E64696E672044434C206661696C6590
:1007E0006400496E76616C69643A2065787065636F
:1007F00074656420454F522076616C7565206F6684
:100800002030202D20370053657420454F5220742E
:100810006F3A2000506172616C6C656C20706F6C77
:100820006C20636F6D706C657465642E0052454E6C
:100830003A2000496E76616C69643A20657870658B
:100840006374656420303D756E2D617373657274D9
:100850002C20313D617373657274004368616E676B
:1008600065642076657273696F6E20737472696E49
:100870006720746F3A2000544F4E3A2076616C69BD
:10088000642072616E6765206973205B302D646936
:100890007361626C657C312D656E61626C655D2E85
:1008A00000544F4E3A2000496E76616C69643A20DC
:1008B000657870656374656420303D646973616256
:1008C0006C65206F7220313D656E61626C65004D14
:1008D000697373696E6720706172616D65746572AA
:1008E00073004D697373696E6720706172616D6525
:1008F0007465720044697361626C656400496E7668
:10090000616C69643A20303D646174612062757382
:100910003B20313D636F6E74726F6C2062757300A3
:10092000496E76616C69643A2065787065637465B8
:100930006420454F5420636861726163746572205E
:1009400041534349492076616C756520696E207476
:1009500068652072616E67652030202D2033302C51
:1009600030303000544D6275732073657420746F9D
:100970003A200020746F20646576696365006770B3
:10098000696253656E64436D643A206661696C65A3
:100990006420746F2073656E6420636F6D6D616E8B
:1009A0006420006770696253656E64446174613AE3
:1009B000204661696C656420746F20756E74616C8B
:1009C0006B206275730054696D656F757420776173
:1009D0006974696E6720666F72207472616E7366E7
:1009E000657220746F20636F6D706C657465210093
:1009F00054696D656F75742077616974696E6720DD
:100A0000666F722073656E6465722100454F4920E0
:100A1000646574656374656421004279746573204C
:100A2000726561643A200020746F2074616C6B0001
:100A30004661696C656420746F20616464726573DB
:100A40007320746865206465766963650067706902
:100A50006252656164427974653A2074696D656FAC
:100A600075742077616974696E67204441562074FB
:100A70006F20676F20484947480067706962526578
:100A80006164427974653A2074696D656F7574208C
:100A900077616974696E6720666F722044415620E1
:100AA000746F20676F204C4F5700677069625772F0
:100AB000697465427974653A2074696D656F7574FF
:100AC0002077616974696E6720666F722064617453
:100AD00061206163636570746564207369676E612A
:100AE0006C202D205B4E44414320756E617373650D
:100AF000727465645D0067706962577269746542FB
:100B00007974653A2074696D656F757420776169D1
:100B100074696E6720666F72206461746120746FFF
:100B2000206265206163636570746564202D205BBD
:100B30004E5246442061737365727465645D00674C
:100B40007069625772697465427974653A20746994
:100B50006D656F75742077616974696E6720666F63
:100B60007220726563656976657220726561647969
:100B7000202D205B4E52464420756E617373657262
:100B80007465645D00677069625772697465427963
:100B900074653A2074696D656F7574207761697446
:100BA000696E6720666F722072656365697665722B
:100BB00020617474656E74696F6E205B4E444143AE
:100BC0002061737365727465645D00677069625358
:100BD000656E64446174613A204661696C656420A5
:100BE000746F20756E6C697374656E206275730026
:100BF00020746F206C697374656E0067706962534E
:100C0000656E64446174613A206661696C65642054
:100C1000746F2061646472657373206465766963C0
:100C2000652000000020002300260029002C002F52
:100C30000032000001000003010601090100000A62
:100C40000B02090C0D0E0807030401000000000050
:100C50000000000000000000000000000000000094
:100C60000000000000000000001211100000000051
:100C70000000000000000000000000000000000074
:100C800000000000002200250028002B002E00316B
:100C900000340002010000050108010B01000021E1
:100CA00000240027002A002D00300033000101003D
:100CB00000040107010A01050505050705080808E4
:100CC00008020202020A0A080804040404010101DD
:100CD00001010101010303030303030303040707E5
:100CE000070C0C0C0C0C0C0C0C0202020206060683
:100CF00006060606060B0B0B0B0B0B0B0B0102106B
:100D00002020080810204010204080020102010825
:100D100004020101020408102040808040201008D5
:100D2000040201800402018040201008040201082E
:100D3000040201010204081020408001020408108E
:100D4000204080436F6D6D616E64206E6F74206112
:100D50007661696C61626C6520696E207468697384
:100D6000206D6F64652E0053656E64696E67207335
:100D7000746174757320627974653A20005352511E
:100D80002062697420636C656172656420286966FD
:100D900020736574292E0053746174757320736514
:100DA0006E742E0053657269616C20706F6C6C20DC
:100DB00072657175657374207265636569766564C3
:100DC0002066726F6D20636F6E74726F6C6C6572EB
:100DD000202D3E003C2D2073657269616C20706F80
:100DE0006C6C207265717565737420656E646564E2
:100DF0002E004F1D11241FBECFEFD1E2DEBFCDBFAD
:100E000000E00CBF25E0A0E3B4E001C01D92AA3AC7
:100E1000B207E1F714E0A0E0B2E0E2EAFCE300E0B0
:100E20000BBF02C007900D92A033B107D9F716E0AF
:100E3000CAEFD6E000E006C021970109802FFE012D
:100E40000E94031EC93FD10780E00807A9F70E944E
:100E5000831A0C944F1ED4C88230910538F0880F45
:100E6000991F880F991F05970197F1F70895DC01E5
:100E7000ED91FC910190F081E02D1994EF92FF9299
:100E80000F931F93CF93DF938C017B01D0E0C0E0E1
:100E9000F701EC0FFD1F6491662361F0D801ED911D
:100EA000FC910190F081E02DC8011995892B11F07A
:100EB0002196EECFCE01DF91CF911F910F91FF9040
:100EC000EF900895AF92BF92CF92DF92EF92FF9290
:100ED0000F931F93CF93DF936C017B018B01040F62
:100EE000151FEB015E01AE18BF08C017D10759F0FE
:100EF0006991D601ED91FC910190F081E02DC60140
:100F00001995892B79F7C501DF91CF911F910F9129
:100F1000FF90EF90DF90CF90BF90AF900895FC01CD
:100F2000538D448D252F30E0842F90E0821B930B4E
:100F3000541710F0CF96089501970895FC01918DF4
:100F4000828D981761F0A28DAE0FBF2FB11D5D96F7
:100F50008C91928D9F5F9F73928F90E008958FEF99
:100F60009FEF0895FC01918D828D981731F0828D4D
:100F7000E80FF11D858D90E008958FEF9FEF0895A4
:100F8000FC01918D228D892F90E0805C9F4F821B08
:100F900091098F73992708958EE394E0F1DF21E0A2
:100FA000892B09F420E0822F0895FC01A48DA80F5D
:100FB000B92FB11DA35ABF4F2C91848D90E001969B
:100FC0008F739927848FA689B7892C93A089B189BB
:100FD0008C91837080648C93938D848D981306C05C
:100FE0000288F389E02D80818F7D80830895EF92C0
:100FF000FF920F931F93CF93DF93EC0181E0888FD3
:101000009B8D8C8D98131AC0E889F989808185FFA2
:1010100015C09FB7F894EE89FF896083E889F98944
:1010200080818370806480839FBF81E090E0DF9146
:10103000CF911F910F91FF90EF900895F62E0B8D99
:1010400010E00F5F1F4F0F731127E02E8C8D8E1154
:101050000BC00FB607FCFACFE889F989808185FFBC
:10106000F5CFCE01A2DFF2CFEB8DEC0FFD2FF11DFE
:10107000E35AFF4FF0829FB7F8940B8FEA89FB8900
:1010800080818062D0CFCF93DF93EC01888D88235D
:10109000B1F0AA89BB89E889F9898C9185FD03C0E3
:1010A000808186FD0CC00FB607FCF7CF8C9185FFC1
:1010B000F2CF808185FFEDCFCE0177DFEACFDF91E0
:1010C000CF9108958150823108F05AC0E82FF0E0A6
:1010D0008827E259F74F8F4F0C94031E8E08920811
:1010E000800886088A08C00895089B089F08A508FC
:1010F000A908AD08B308B708C008BB08C108C508EF
:10110000809180008F778093800008958091800087
:101110008F7DF9CF80918000877FF5CF84B58F7761
:1011200084BD089584B58F7DFBCF8091B0008F770B
:101130008093B00008958091B0008F7DF9CF8091A9
:1011400090008F77809390000895809190008F7D1C
:10115000F9CF80919000877FF5CF8091A0008F77A5
:101160008093A00008958091A0008F7DF9CF809199
:10117000A000877FF5CF809120018F778093200199
:101180000895809120018F7DF9CF80912001877F84
:10119000F5CFCF93DF93282F30E0F901E35CF34FD5
:1011A0008491F901E350F34FD491F901E954F34FDD
:1011B000C491CC2399F0811185DFEC2FF0E0EE0F84
:1011C000FF1FED5DF34FA591B491EC91ED2381E00C
:1011D00090E009F480E0DF91CF91089580E090E005
:1011E000FACF1F93CF93DF93282F30E0F901E35C10
:1011F000F34F8491F901E350F34FD491F901E9548D
:10120000F34FC491CC23A1F0162F81115BDFEC2F9B
:10121000F0E0EE0FFF1FED57F34FA591B4918FB79C
:10122000F894EC91111108C0D095DE23DC938FBFA8
:10123000DF91CF911F910895DE2BF8CF3FB7F8943F
:1012400080913A0490913B04A0913C04B0913D04FC
:1012500026B5A89B05C02F3F19F00196A11DB11D11
:101260003FBFBA2FA92F982F8827BC01CD01620F4D
:10127000711D811D911D42E0660F771F881F991F08
:101280004A95D1F708958F929F92AF92BF92CF92D5
:10129000DF92EF92FF926B017C01D0DF4B015C018A
:1012A000C114D104E104F104B1F0C8DF681979096F
:1012B0008A099B09683E73408105910588F321E006
:1012C000C21AD108E108F10888EE880E83E0981E62
:1012D000A11CB11CE5CFFF90EF90DF90CF90BF90A5
:1012E000AF909F908F900895EF92FF920F931F936E
:1012F000CF93DF93C82FD0E0E62FF0E08F0196E088
:10130000159507959A95E1F723E0000F111F2A958F
:10131000E1F70870661F6627661F660F600F7F0182
:1013200035E0F594E7943A95E1F7F694FE2CEE2437
:10133000F794E7949F0174E0359527957A95E1F746
:10134000220F331F722F72709F013595279513E07E
:10135000220F331F1A95E1F72870DF01AA0FBB1F78
:10136000A2702A2BDF01B595A795B595A79535E015
:10137000AA0FBB1F3A95E1F7A07253E0F595E795E8
:101380005A95E1F7F695FE2FEE27F795E795EA0FC8
:10139000E20F562F50958E0196E0159507959A9578
:1013A000E1F723E0000F111F2A95E1F70870881F6D
:1013B0008827881F880F080F06231E2D10959E0171
:1013C00065E0359527956A95E1F73695322F222706
:1013D00037952795E222F72EF0949E01A4E03595EB
:1013E0002795AA95E1F7220F331F7223FE2FF09560
:1013F000DE01B595A79593E0AA0FBB1F9A95E1F77B
:10140000A8709E01220F331F2270A22BCE0195954A
:1014100087959595879525E0880F991F2A95E1F77F
:1014200080729E0163E0359527956A95E1F73695C0
:10143000322F222737952795280F2A0F2E23413048
:10144000C9F085B15823052B05B98BB11823E12AC2
:10145000EBB894B39F21972B94BBE0910B01EF2342
:101460002E2B20930B01DF91CF911F910F91FF90B5
:10147000EF90089584B15823052B04B98AB118233D
:10148000E12AEAB893B39F21972B93BBE0910A011D
:10149000EF232E2B20930A01E6CF91B1956591B9E8
:1014A00097B19A6A97B98095282F30E0881F8827CE
:1014B000881F982F9295990F990F907C24FB88276D
:1014C00080F9892BA9015695542F442757954795A4
:1014D000842BA90163E0559547956A95E1F7440F80
:1014E000551F4270842BA9015595479555954795F1
:1014F000F3E0440F551FFA95E1F74870842BA901DA
:1015000055954795B5E0440F551FBA95E1F74072E0
:10151000842BA90196E0559547959A95E1F764E0EB
:10152000440F551F6A95E1F74071842B75E035959E
:1015300027957A95E1F7220F331F220F331F24706E
:10154000822B92B19A7A282F2575922B92B998B155
:1015500095758A7A892B88B9089590B186B1957569
:101560008A7A982B9095292F30E0A90155954795B7
:1015700063E0440F551F6A95E1F74870B901E3E055
:1015800075956795EA95E1F7660F771F660F771FE8
:10159000862F8470842BA901A5E055954795AA95BF
:1015A000E1F7440F551F4270842BB90146E0759551
:1015B00067954A95E1F77695762F66277795679533
:1015C000A90174E0440F551F7A95E1F74071462B4D
:1015D000B901E4E075956795EA95E1F7F6E0660FE5
:1015E000771FFA95E1F76074462B35952795359569
:1015F0002795B5E0220F331FBA95E1F72072242B0F
:10160000991F9927991F892B822B08958250883022
:1016100088F4E82FF0E041E08827EE5EF44F8F4F2A
:101620000C94031E220B280B3B0B340B3E0B450B7B
:101630004B0B520B41E06FEF88EB56DE40E06FEF53
:101640008FED0CC06EE988EB4FDE40E06EE9F8CF1D
:101650006FE989EB49DE40E06FE98FE545DE809177
:101660001D0590911E05F8CB6EE986EA3DDE40E04F
:101670006EE988EDF3CF6EE989EBE6CF6FEF80E09E
:1016800033DE40E06FEF8FEFE9CF6EE080E02CDEDD
:1016900040E06EE0F8CF6EE086E026DE40E06EE0EF
:1016A00089EFDCCF6EE088E0F8CFBF92CF92DF9277
:1016B000EF92FF920F931F93CF93DF93C82FB62E15
:1016C0002FB7F8948091360490913704A091380494
:1016D000B09139042FBF6A01550FEE08FF08C80EFC
:1016E000D91EEA1EFB1E84E354DD8C01D0E08B2D55
:1016F00050DD8C179D0719F12FB7F89480913604AF
:1017000090913704A0913804B09139042FBF8C1503
:101710009D05AE05BF0558F081E0DF91CF911F9187
:101720000F91FF90EF90DF90CF90BF90089501153B
:101730001105E9F684E32DDD0197C9F6EDCF80E0D0
:10174000ECCF41E060E480E0CFDD40E060E480E4A5
:10175000CBCD90912005E92FF0E0EC5DFA4F80832E
:101760009F5F909320050895E0EEF4E080E4DF01B0
:101770001D928A95E9F78CEC808382E0838381E077
:10178000858380EB94E0938782870895EDCFE4E230
:10179000F5E080E8DF011D928A95E9F710922005B7
:1017A0000895FB0101900020E9F73197AF01461B36
:1017B000570BDC01ED91FC910280F381E02D19942F
:1017C0008F929F92AF92BF92EF92FF920F931F93CF
:1017D000CF93DF93CDB7DEB7A1970FB6F894DEBFF6
:1017E0000FBECDBF7C01FA01CB0119A2223008F453
:1017F0002AE08E010F5D1F4F822E912CB12CA12C5F
:10180000BF01A50194010E94E11DF901CA016A30DE
:1018100004F5605DD8016E938D01232B242B252BBD
:1018200079F790E080E0109719F0BD01C701B9DFAA
:10183000A1960FB6F894DEBF0FBECDBFDF91CF915A
:101840001F910F91FF90EF90BF90AF909F908F905E
:101850000895695CDFCFCF92DF92EF92FF920F93F2
:101860001F93CF93DF936B01770FEE08FF08F7FE0E
:1018700019C0EC016DE2FBDA8C0144275527BA014F
:101880004C195D096E097F092AE0CE0199DF800FAE
:10189000911FDF91CF911F910F91FF90EF90DF90FB
:1018A000CF9008952AE0B701A601DF91CF911F9153
:1018B0000F91FF90EF90DF90CF9082CF65EE72E0B6
:1018C00070CFCF92DF92EF92FF920F931F93CF933F
:1018D000DF938C016B01770FEE08FF08F7FE1CC049
:1018E0006DE2C5DAEC0144275527BA014C195D09B0
:1018F0006E097F092AE0C80163DFC80FD91FC8013C
:10190000DDDF8C0F9D1FDF91CF911F910F91FF9015
:10191000EF90DF90CF9008952AE0B701A60150DF45
:10192000EC01EDCF82E335DC61E070E0892B11F052
:1019300070E060E08EE394E0C4CF0F931F93CF93E9
:10194000DF93EC01AB0170E060E02AE039DF8C014D
:10195000CE01B4DF800F911FDF91CF911F910F91C6
:1019600008950F931F93CF93DF93EC01462F50E020
:1019700070E060E02AE024DF8C01CE019FDF800F61
:10198000911FDF91CF911F910F9108950F931F9396
:10199000CF93DF938C01D0E0C0E06115710511F0A9
:1019A00000DFEC01C8018ADF8C0F9D1FDF91CF9112
:1019B0001F910F9108950F931F93CF93DF93EC0125
:1019C0005DDA8C01CE017ADF800F911FDF91CF911C
:1019D0001F910F910895CF93C82F4091EA04509121
:1019E000EB046EE280E061DE8823C9F0C091A505BA
:1019F000C1110FC0C1E040E068E088E075DC80E024
:101A00004CDD80911D0590911E0526DA8C2FCF911B
:101A1000089565E87BE08EE394E0CDDFECCF409164
:101A2000EA045091EB046CE281E03FDE882339F058
:101A3000C091A5056FE37BE0CC23E1F2ECCF8C2FC6
:101A40002CDD40E068E080E04FDC4091EA045091FA
:101A5000EB046CE280E029DE882341F0C091A5050B
:101A600066EF7AE0CC2309F4C5CFD5CF4091EA04E4
:101A70005091EB046EE281E018DEC82F882309F450
:101A8000BACFC091A505CC2309F4B4CF6AEA7AE0B5
:101A9000C2CF0F931F93CF93DF93EC0184E379DBE5
:101AA0008C0140E064E084E01FDC012B71F484E3EE
:101AB00070DB019751F440E064E080E015DC83E0E6
:101AC000DF91CF911F910F9108954091EA045091B9
:101AD000EB046AE280E0E9DD882379F08091A505D6
:101AE000882329F06AE77AE08EE394E064DF40E03F
:101AF00064E080E0F9DB81E0E3CF40E064E080E097
:101B0000F3DB8091DC04882339F088E242DB892B07
:101B100019F485E08093DB0420DD888340E062E0F7
:101B200082E0E2DB4091EA045091EB046AE281E05A
:101B3000BCDD882359F08091A505882329F06DE448
:101B40007AE08EE394E037DF82E0BACF40E062E0F3
:101B500080E0CADB80911D0590911E057DD980E053
:101B6000AFCFCF93DF93C82F83E050DD8C2F33DFCF
:101B7000D82F8823B1F08091A505882391F06EE7D6
:101B800079E08EE394E07AD94C2F50E070E060E089
:101B900020E18EE394E014DE63E779E08EE394E0E5
:101BA0000ADF8D2FDF91CF91089583E790E00197B1
:101BB000F1F78FE3D6DF811102C08FE5D2CF089510
:101BC000CF93DF93C82FD62F8FE3CBDF811116C0C1
:101BD000DD2359F080E48C0FC4DF81110FC08091A8
:101BE000E404805EDF91CF91BCCF80E28C0FB9DF3F
:101BF000811104C08091E404805CF4CF81E0DF9126
:101C0000CF910895CF92DF92EF92FF920F931F939F
:101C1000CF936C01E62E8091E304823009F073C00B
:101C200080910002882329F160E08091E504C8DFFB
:101C30008823F9F08091A505882309F478C06BEF1B
:101C40007BE08EE394E01AD94091E50450E070E027
:101C500060E02AE08EE394E0B3DD60EF7BE08EE3AA
:101C600094E0CF911F910F91FF90EF90DF90CF9074
:101C7000A2CE8091A60591E089278093000284E09E
:101C8000C5DC8601F12CC8018C199D098E159F05B4
:101C90000CF03FC0F80181918F019DDEC82F882391
:101CA00091F38091E204882379F08091A605811157
:101CB0000BC040E060E118DB8BE990E00197F1F7A1
:101CC00040E060E180E110DB8091E3048230E9F4E0
:101CD000C11110C080910002882361F066DF882363
:101CE00049F08091A505882329F06BEC7BE08EE319
:101CF00094E061DE82E0CF911F910F91FF90EF9011
:101D0000DF90CF9083CC89E0BBCF813081F487E036
:101D1000F2CF8091E70481FD02C08DE05CDE80910E
:101D2000E70480FD02C08AE056DEC0E0BACFCF9162
:101D30001F910F91FF90EF90DF90CF90089525E0D5
:101D4000FC0111922A95E9F764EF78E08EE394E0C4
:101D500032CECF93DF9382E059DCCBE4D0E0CE01EA
:101D60000197F1F740E060E980E0BEDA2197F1F7F2
:101D7000F4DBC82F82E04ADC6C2F8EE394E0F1DDC7
:101D80008091A505882339F064E178E08EE394E042
:101D9000DF91CF9110CEDF91CF91089584E1E1DE04
:101DA000882349F08091A505882339F06FEC77E00E
:101DB0008EE394E000CE82E029CC08952FB7F8940A
:101DC0008091360490913704A0913804B091390481
:101DD0002FBF8053984FAF4FBF4F28E13EE00FB663
:101DE000F894A895209360000FBE309360002FB741
:101DF000F894409136045091370460913804709102
:101E000039042FBF481759076A077B0780F3809171
:101E1000A505882329F069E476E08EE394E0CBCD34
:101E200008958091E3048823A9F040E061E080E018
:101E30005BDA83E592E00197F1F740E061E081E051
:101E400053DA8091A505882329F064E875E08EE3D4
:101E500094E0B1CD089560E08091E504B1DE88237F
:101E600039F08091A50567EA74E081110BC00895EF
:101E700084E077DE882349F08091A5058823B9F3B3
:101E800064E974E08EE394E096CD8FDE882339F028
:101E90008091A5056AE774E0882349F3F3CF82E0D7
:101EA000B5CB64EE70E08EE394E085CD8091A5051E
:101EB00091E089278093A50568EE72E08EE394E0B7
:101EC00070DC8091A5056DE073E0882311F061E07E
:101ED00073E08EE394E05ACD8EE394E0EFDC62EFA2
:101EE00072E08EE394E05DCCE82FF0E0ED5DFA4F18
:101EF00090819F3319F491E09093A7059091230569
:101F0000911104C0682F84E295E07CDE8091A605E3
:101F100081111092A6058091A5058111DDDF37DCC6
:101F20001092A4050895CF93DF93D82FC091200578
:101F3000C7FD6EC08D3049F164F48A3031F1809173
:101F4000A505882331F16D2F8EE394E00E943707B9
:101F500020C08B3109F452C08B3289F78091320452
:101F6000882339F010923204C23018F481E0809353
:101F700031048BE2EEDB8091A505882371F06BE2E2
:101F80008EE394E00E94370708C0809132048823D2
:101F900031F08D2FDEDB10923204C0E01CC0C11185
:101FA00009C0F5DB8091A505811196DF8C2FDF91AB
:101FB000CF910895C33060F0809124058B3241F4B5
:101FC000809125058B3221F480913104C1E081118B
:101FD000C2E0109231048091200587FFE7CF809105
:101FE00024058B3231F4809125058B3211F4CC23FA
:101FF00089F081E08093A605C2E0D8CF80913204B9
:10200000882311F08BE1C6CF81E080933204C5CFE5
:10201000C0E0E5CF8091A505882329F069EF70E045
:102020008EE394E0C8DCB3DBC1CF8EE394E00E9482
:102030009E0779DF8093A40508950E94CC07811143
:10204000F4DF80E090E0892B49F080E090E0892B7C
:1020500029F00E94000081110E94000080E090E0C1
:10206000892B49F080E090E0892B29F00E94000044
:1020700081110E94000080E090E0892B49F080E00F
:1020800090E0892B29F00E94000081110C9400003F
:102090000895AF92BF92CF92DF92EF92FF920F938B
:1020A0001F93CF93DF9300D0CDB7DEB719821A828A
:1020B0001B8280911F05082F07701092DB04D090BF
:1020C000DC04873019F481E08093DC048091E30420
:1020D000823009F0E4C061E08091E50471DD88237D
:1020E000C1F08091A5058823A1F060E37AE08EE33A
:1020F00094E00E943E074091E50450E070E060E00B
:102100002AE08EE394E05CDB67E27AE08EE394E021
:1021100052DC4091EA045091EB046CE281E0C5DAB4
:1021200085E074DA81B18A7A81B987B1857587B91A
:1021300082B1856582B988B18A6A88B9F12CE12CAF
:1021400087E0C82EA02EB12C1091DB041111EFC036
:1021500084E31FD80197B1F5CE0101969ADC182FC0
:10216000811130C08091E904833089F48EE394E0DA
:102170000E94C007892B59F08EE394E00E949E07CD
:10218000D2DE8093A405813011F4C092DB048091EB
:10219000DB048730B9F084E30E94C908892B91F0F1
:1021A00069818EE394E00E9437078FEFE81AF80AFE
:1021B0008091DC04882309F478C08091DB048530A9
:1021C00009F07DC08091A505882351F06AE17AE08D
:1021D0008EE394E00E943E07B7018EE394E071DB4A
:1021E0008091DB04853099F48091A505882329F03E
:1021F0006CE07AE08EE394E0DEDB8091E1048823FA
:1022000031F06091EC048EE394E00E943707D092A5
:10221000DC041123B1F08091A505882339F0113039
:1022200029F460EF79E08EE394E0C5DB8091A505A9
:10223000882339F0123029F466EC79E08EE394E0DB
:10224000BADB8091E304823009F073C0AEDC8823EE
:1022500051F08091A505882331F063EA79E08EE39F
:1022600094E00E943E078091E304823009F4CED9C5
:102270008091DB0481111092DB0481E0111101C017
:1022800080E00F900F900F90DF91CF911F910F91F1
:10229000FF90EF90DF90CF90BF90AF90089588E0CF
:1022A000B5D981E08093DC043DCF998180913404DD
:1022B000882351F080913304891709F483CF8A81F0
:1022C0008B8389818A8340CF073068F5F5018827A1
:1022D000E359FE4E8F4F0C94031E74117B117E1137
:1022E0005F11811187118A119A3049F78A818D30E7
:1022F00031F7102F67CF9D3011F764CF9A30F9F680
:1023000061CF9D30E1F68A818A30C9F65BCF933088
:10231000B1F658CF933099F68A818A3081F68B8155
:102320008D3069F64FCF9A3051F68A81F9CF10E09F
:1023300049CF87E09CCFCF93DF93009739F10E947C
:102340007C1DEC01C13385E7D80760F0AADD8091E0
:10235000A505882321F160E279E08EE394E0DF9126
:10236000CF9129CBD0931E05C0931D058091A50563
:102370008823A9F064E679E08EE394E00E943E07AA
:10238000BE018EE394E0DF91CF919BCA60911D0561
:1023900070911E058EE394E0DF91CF91CECADF915C
:1023A000CF910895CF93DF9365EF72E00E94991D5E
:1023B0000097A9F0FC0101900020E9F73197E81B94
:1023C000F90B349760F40E947C1DC82F833040F0D5
:1023D0006DEF78E08EE394E0DF91CF91ECCAC0E03E
:1023E00065EF72E090E080E00E94991D0097B1F1E6
:1023F000FC0101900020E9F73197E81BF90BD0E0D0
:10240000349718F40E947C1DD82FCC23D9F041E0DA
:102410006FEF8FEF0E94740940E06FEF8D2F809572
:102420000E94740960E177E280E090E00E94430935
:102430008091E304823021F481E0DF91CF91E6C8FE
:1024400086E0FBCF8D2F29D860E177E280E090E035
:102450000E94430980E0DF91CF911FC8DF91CF91A7
:102460000895009731F10E947C1D8230910550F053
:1024700018DD8091A505882311F167EA78E08EE3E5
:1024800094E099CA019789F01092DF048091A50524
:102490008823A9F08091DF0464E073E0882311F0C1
:1024A00068EF72E08EE394E071CA81E08093DF040C
:1024B000EDCF6091DF0470E08EE394E002CA0895EE
:1024C000CF93DF93009781F10E947C1DEC01823055
:1024D000910560F0E6DC8091A505882369F167E746
:1024E00078E08EE394E0DF91CF9165CA81708093AC
:1024F000DD04CE0121E08227817080932305809145
:10250000A5058823C9F061EA78E08EE394E00E9493
:102510003E076DE073E0CD2B11F061E073E08EE3D8
:1025200094E0DF91CF9132CA6091DD0470E08EE3D8
:1025300094E0DF91CF91C5C9DF91CF9108951F93AA
:10254000CF93DF93009761F10E947C1DEC01109105
:10255000A5058230910550F0112389F163E378E0FD
:102560008EE394E0DF91CF911F9125CABC0181E0F9
:10257000682786E20E94F108112309F16DE278E0F4
:102580008EE394E00E943E0761E173E0CD2B11F4ED
:102590006EE173E08EE394E0DF91CF911F91F6C975
:1025A00086E20E94C90861E070E0892B11F070E0BA
:1025B00060E08EE394E0DF91CF911F9182C9DF91BB
:1025C000CF911F910895CF93DF93009721F10E943F
:1025D0007C1DEC018031910560F063DC8091A505E4
:1025E000882331F162EE77E08EE394E0DF91CF91C2
:1025F000E2C980931F058091A5058823C9F067E093
:1026000078E08EE394E00E943E07BE018EE394E002
:10261000DF91CF9156C980911F05883010F010923C
:102620001F0560911F058EE394E0DF91CF9199C95A
:10263000DF91CF910895CF93DF93009781F10E94AE
:102640007C1DEC018230910560F02BDC8091A505AA
:10265000882369F16FE977E08EE394E0DF91CF9111
:10266000AAC9817080932305CE0121E08227817061
:102670008093DD048091A5058823C9F069EC77E09B
:102680008EE394E00E943E076DE073E0CD2B11F0E5
:1026900061E073E08EE394E0DF91CF9177C96091C0
:1026A000230570E08EE394E0DF91CF910AC9DF91BA
:1026B000CF910895CF93009791F10E947C1DAC01BA
:1026C000990F660B770B413051406105710548F059
:1026D000E8DB8091A5056DE477E0811116C0CF910C
:1026E00008958093E804C091A50586FF12C041E0DB
:1026F00060E480E40E94740940E060E480E00E94AD
:102700007409CC2361F36FE377E08EE394E0CF911B
:1027100052C917D86EE277E0CC2309F3F6CF609167
:10272000E8048EE394E0CF911CC9AF92BF92CF92A0
:10273000DF92EF92FF920F931F93CF93DF93CDB76A
:10274000DEB72F970FB6F894DEBF0FBECDBF5C018A
:10275000CE0101967C010F96F70111928E179F070B
:10276000E1F7670100E0A114B104A1F58091E5044F
:10277000898301E0670110E0C6018E199F09801767
:1027800091070CF069C060E0F60181916F0118DAE1
:10279000882309F44BC08091A5056BEF75E0882371
:1027A00089F18EE394E02F960FB6F894DEBF0FBE4A
:1027B000CDBFDF91CF911F910F91FF90EF90DF90F0
:1027C000CF90BF90AF90F7C8F60181936F010F5F74
:1027D0000F3081F265EF72E0C501002311F090E047
:1027E00080E00E94991D0E947C1D8823E1F09FEFEC
:1027F000980F9E3148F355DB8091A50564E176E0A2
:102800008111CFCF2F960FB6F894DEBF0FBECDBF8C
:10281000DF91CF911F910F91FF90EF90DF90CF90BC
:10282000BF90AF900895002369F3A4CF88E099D9B1
:10283000882339F08091A50562EE75E0882311F3B5
:10284000B0CFB3D9882309F497CF8091A50566EC62
:1028500075E08823B9F2A5CF82E00E94060B809133
:10286000A505882379F26DEA75E09BCFCF93DF93BE
:10287000009791F10E947C1DEC018430910560F07D
:1028800010DB8091A505882371F168EA73E08EE37F
:1028900094E0DF91CF918FC8892B71F08091A505CD
:1028A000882351F060E773E08EE394E084D869E315
:1028B00073E08EE394E07FD8C093E904C33011F055
:1028C0001092DE048091A505882369F06DE273E023
:1028D0008EE394E00E943E076091E9048EE394E069
:1028E000DF91CF913EC8DF91CF910895CF93DF93D1
:1028F000009731F10E947C1DEC018F3F910569F03A
:1029000060F0CFDA8091A505882301F16FEC72E0C9
:102910008EE394E0DF91CF914EC88093EC048091D8
:10292000A505882399F060E173E08EE394E00E94AE
:102930003E07BE018EE394E0DF91CF910C94610CD1
:102940006091EC04062E000C770BF4CFDF91CF9151
:102950000895CF93DF93009759F10E947C1DEC01FD
:102960008230910560F09DDA8091A505882349F1B8
:102970006CE872E08EE394E0DF91CF911CC8817027
:102980008093E1048091A5058823D9F062EB72E081
:102990008EE394E00E943E076DE073E0CD2B11F0D2
:1029A00061E073E08EE394E0DF91CF910C94C60C6C
:1029B0006091E10470E08EE394E0DF91CF910C949C
:1029C000610CDF91CF910895CF93DF93009709F4C5
:1029D0003DC00E947C1DEC018230910568F061DAF7
:1029E0008091A5058823E1F16FE672E08EE394E023
:1029F000DF91CF910C94DB0C0197F1F081E0809393
:102A0000E30486E00E94060B0E94AD0A8091A505B2
:102A1000882331F167E572E08EE394E00E943E077F
:102A200069E373E0CD2B11F06EE273E08EE394E086
:102A3000DF91CF910C94C60C82E08093E30481E097
:102A40000E94060B0E94AD0AECD9E0CF6091E3042E
:102A50006150770B8EE394E0DF91CF910C94610C81
:102A6000DF91CF910895CF93DF93009761F10E949A
:102A70007C1DEC018230910568F013DA8091A50588
:102A8000882351F16DE172E08EE394E0DF91CF9104
:102A90000C94DB0C81708093E2048091A50588235F
:102AA000D9F063E472E08EE394E00E943E076DE0AB
:102AB00073E0CD2B11F061E073E08EE394E0DF91E1
:102AC000CF910C94C60C6091E20470E08EE394E028
:102AD000DF91CF910C94610CDF91CF910895CF934A
:102AE000DF93009731F10E947C1DEC018430910549
:102AF00068F0D7D98091A505882319F16BEE71E0B4
:102B00008EE394E0DF91CF910C94DB0C8093E7048B
:102B10008091A5058823A9F060E172E08EE394E03E
:102B20000E943E07BE018EE394E0DF91CF910C94AA
:102B3000610C6091E7048EE394E0DF91CF910C94F7
:102B4000B10CDF91CF910895CF93DF93009759F1A6
:102B5000D3D7EC01019781159D4750F0A2D9809100
:102B6000A50569E971E0811118C0DF91CF91089541
:102B7000D093EB04C093EA048091A5058823A9F3C0
:102B800064ED71E08EE394E00E943E07BE018EE3A7
:102B900094E00E942B0C66EC71E08EE394E0DF91F0
:102BA000CF910C94DB0C6091EA047091EB048EE3FE
:102BB00094E0DF91CF910C94610CEF92FF920F9310
:102BC0001F93CF93DF93DC01EC91E11109C0C1E0C9
:102BD0008C2FDF91CF911F910F91FF90EF9008956F
:102BE000E9017A018B011982188286D7998388833B
:102BF0008017910720F0C0E0E816F90648F751D990
:102C0000C091A505CC2319F360E271E08EE394E056
:102C10000E943E07A80170E060E02AE08EE394E0A5
:102C20000E94E00B6AE171E08EE394E00E943E07AF
:102C3000B7018EE394E00E949D0CCACFEF92FF9201
:102C40000F931F93CF93DF9300D01F92CDB7DEB7C2
:102C5000009709F467C065EF72E06BD7FC01208133
:102C6000211121C065EF72E090E080E062D7FC01A5
:102C7000208121112DC060E473E090E080E059D7FD
:102C80008C01FC018081F12CE12C81112CC009D92F
:102C90008091A50562EE78E0882379F08EE394E0D8
:102CA0000E94DB0C0AC09E012F5F3F4F4FEF50E0A8
:102CB00062E070E082DF8823A9F20F900F900F90FE
:102CC0000F90DF91CF911F910F91FF90EF9008959A
:102CD0009E012D5F3F4F40E355E770E060E06DDF00
:102CE0008111EBCFC8CF89819A81E816F90628F7C0
:102CF000F80101900020E9F73197BF01601B710BCB
:102D000080912305811103C0C8010E94020E6B81CE
:102D10007C8190E080E00E944309BBD9FFEFEF1A6D
:102D2000FF0AE1CFBED88091A505882331F26FEC70
:102D300078E0B4CFCF93DF931F921F92CDB7DEB769
:102D4000009709F45FC065EF72E0F3D69E012F5F34
:102D50003F4F4EE150E061E070E02FDF811112C083
:102D600089819A812091E4042817190681F499D861
:102D70008091A505882331F06DE571E08EE394E044
:102D80000E94DB0C0F900F90DF91CF9108958093FC
:102D9000E5048091A505882361F06DE371E08EE381
:102DA00094E00E943E0769817A818EE394E00E945C
:102DB0009D0C1092E6041A82198265EF72E090E091
:102DC00080E0B7D60097F1F29E012F5F3F4F4EE7AC
:102DD00050E060E670E0F1DE8111D4CF898180930C
:102DE000E6048091A505882369F263E473E08EE32D
:102DF00094E00E94D10B69817A818EE394E00E9475
:102E00009D0CC0CF4091E50450E070E060E02AE006
:102E10008EE394E00E94E00B8091E604882381F029
:102E20006BE371E08EE394E00E943E074091E6047C
:102E300050E070E060E02AE08EE394E00E94E00B56
:102E40008EE394E00E945E0C9DCFCF93DF930097BA
:102E500059F1DC010D900020E9F7AD014150510915
:102E6000EDEEF4E020E3DF011D922A95E9F7481B1F
:102E7000590B4033510510F04FE250E0EC01BC011A
:102E80008DEE94E0FDD68091A505882369F06BE571
:102E900078E08EE394E00E943E07BE018EE394E06A
:102EA000DF91CF910C94C60CDF91CF910895FF92E2
:102EB0000F931F93CF93DF9300EE14E0D0E0C0E0B8
:102EC000F801F1908F01CE0166D6F81619F06F2D3A
:102ED000CE0169D62196C034D10591F78091A50520
:102EE000882331F06FE777E08EE394E00E943E079D
:102EF0008091A505882359F06FE877E08EE394E090
:102F0000DF91CF911F910F91FF900C94DB0CDF911B
:102F1000CF911F910F91FF9008956F927F928F92A2
:102F20009F92AF92BF92CF92DF92EF92FF920F9358
:102F30001F93CF93DF93CDB7DEB760970FB6F894AA
:102F4000DEBF0FBECDBF4C01188A8E010F5F1F4F31
:102F50006E0180E1C80ED11CF80158011192CE1605
:102F6000DF06E1F7F12C8114910409F058C080913B
:102F7000E5048983E12CFF24F3948FE30E94B10DD3
:102F8000811184C08091E404805E0E94B10D8111A2
:102F90007DC088E10E94B10D811178C010E000E091
:102FA0008F2C912C081519050CF0CBC0702EE11058
:102FB00004C0F501E00FF11F70808091E4048715D3
:102FC00009F4BCC080E4870D0E94B10D81115EC080
:102FD00085E00E94060BC6010E94490D8111A4C024
:102FE000688981E08F1508F07FC066FFA7C061EC9B
:102FF00076E08EE394E00E943E07B8018EE394E011
:103000000E942B0C6FEB76E08EE394E00E943E076B
:1030100068898EE394E00E94B10C84018FC065EF53
:1030200072E0C401FF2011F090E080E082D53C0105
:1030300043E050E065E673E015D6892B71F4E0902B
:10304000A505EE2009F44DC066E077E08EE394E03C
:103050000E94DB0C8EE1F82E90CFF401019000204D
:10306000E9F73197E819F909339770F5C30144D5A9
:10307000882341F19FEF980F9E31E8F00E94510F95
:103080008091A50568ED76E0811126C060960FB6A7
:10309000F894DEBF0FBECDBFDF91CF911F910F918E
:1030A000FF90EF90DF90CF90BF90AF909F908F9068
:1030B0007F906F900895F80181938F01F394FFE062
:1030C000FF12ADCFE12C59CF0E94510F8091A50581
:1030D00066EC76E08823D1F28EE394E00E94DB0C6C
:1030E000D5CFEE24E394B6CF8EE394E00E94B10CEA
:1030F0008091A505882309F490CF68EA76E08EE3F5
:1031000094E00E943E07488950E070E060E02AE0C9
:103110008EE394E00E94E00B6DE876E08EE394E0AD
:103120000E943E07672D75CF8091A505882331F059
:103130006EE676E08EE394E00E94DB0C0F5F1F4F9B
:1031400031CFEE2021F08EE394E00E945E0C89E105
:103150000E94B10D81119ACF8FE50E94B10D8111AE
:1031600095CF8FE30E94B10D811190CF82E00E9434
:10317000060B82E30E94C908892B59F481E08093F1
:1031800021058091A505882309F480CF67E576E0C5
:10319000A3CF10922105F5CF85E693E0BECECF9365
:1031A000DF93EC0186E20E94C908892BA1F52097E4
:1031B00029F143E050E065E673E0CE0153D5892B59
:1031C00051F540E060E280E20E94740968E270E03C
:1031D00080E090E00E94430940E060EA80E00E94C5
:1031E000740968E270E080E090E00E94430940E0EA
:1031F00060E880E8DF91CF910C94740960E08091E1
:10320000E5040E94E00D882349F08091A5056AE657
:1032100075E081110EC0DF91CF91089581E00E9489
:10322000B10D882361F08091A5058823A1F366E59F
:1032300075E08EE394E0DF91CF910C94DB0C0E945B
:10324000D50D882339F08091A50569E375E08823C1
:1032500011F3EFCF82E0DF91CF910C94060BCF9367
:10326000DF93EC0186E20E94C908892BC9F42097FC
:10327000E1F043E050E065E673E0CE01F3D4892B42
:1032800079F481E10E94B10D882351F08091A50568
:10329000882331F06BE175E08EE394E00E94DB0C53
:1032A00082E0DF91CF910C94060B60E08091E50401
:1032B0000E94E00D882349F08091A5056DEF74E030
:1032C00081110EC0DF91CF91089581E10E94B10D6F
:1032D000882361F08091A5058823A1F360EE74E056
:1032E0008EE394E0DF91CF910C94DB0C0E94D50D1E
:1032F0008823B1F28091A50560EC74E0882311F376
:10330000EFCFCF93DF931092DC0410923404009738
:10331000A1F0EC01FC0101900020E9F73197E81BD6
:10332000F90B3497A0F08091A505882331F061E571
:1033300074E08EE394E00E94DB0C8091E90483301A
:10334000C9F481E08093DE04DF91CF91089543E0DA
:1033500050E069E673E086D4892B21F481E0809304
:10336000DC04EBCF81E080933404CE01C5D380939D
:103370003304E3CFDF91CF910C944910009749F0CB
:1033800043E050E06DE673E06DD461EF73E0892BAC
:1033900061F08091ED0461E274E0882331F06DEE1C
:1033A00074E08EE394E00C94C60C8EE394E00C94ED
:1033B000DB0C1F920F920FB60F9211240BB60F92D7
:1033C0002F933F934F935F936F937F938F939F932D
:1033D000AF93BF93EF93FF938EE394E00E94D507E2
:1033E000FF91EF91BF91AF919F918F917F916F91DD
:1033F0005F914F913F912F910F900BBE0F900FBE99
:103400000F901F9018951F920F920FB60F921124D4
:103410000BB60F922F938F939F93EF93FF93E091AF
:103420004E04F0914F048081E0915404F0915504D2
:1034300082FD1DC09081809157048F5F8F73209112
:103440005804821741F0E0915704F0E0E25CFB4F32
:10345000958F80935704FF91EF919F918F912F91BA
:103460000F900BBE0F900FBE0F901F90189580818C
:10347000F2CF1F920F920FB60F9211242F933F930A
:103480008F939F93AF93BF938091360490913704AD
:10349000A0913804B09139043091350423E0230F12
:1034A0002D3758F50196A11DB11D20933504809349
:1034B000360490933704A0933804B0933904809174
:1034C0003A0490913B04A0913C04B0913D040196D4
:1034D000A11DB11D80933A0490933B04A0933C043A
:1034E000B0933D04BF91AF919F918F913F912F91E8
:1034F0000F900FBE0F901F90189526E8230F02968D
:10350000A11DB11DD2CFCF93DF93CDB7DEB7C05C85
:10351000D1090FB6F894DEBF0FBECDBF789484B545
:10352000826084BD84B5816084BD85B5826085BDBF
:1035300085B5816085BD80916E00816080936E004D
:10354000109281008091810082608093810080913F
:1035500081008160809381008091800081608093F0
:1035600080008091B10084608093B1008091B000B0
:1035700081608093B000809191008260809391007F
:103580008091910081608093910080919000816092
:10359000809390008091A10082608093A10080912F
:1035A000A10081608093A1008091A0008160809340
:1035B000A0008091210182608093210180912101EE
:1035C000816080932101809120018160809320019E
:1035D00080917A00846080937A0080917A00826082
:1035E00080937A0080917A00816080937A00809144
:1035F0007A00806880937A001092C1000FB6F89428
:10360000A8958091600088618093600010926000AE
:103610000FBEEAE0FDE02491E4ECFCE08491882315
:1036200099F090E0880F991FFC01E356F34FA591A4
:10363000B491FC01ED57F34F859194918FB7F894B5
:10364000EC91E22BEC938FBF60E08DE00E94F108DB
:103650000E94C70BE0914E04F0914F0482E08083FA
:10366000E0914A04F0914B041082E0914C04F091F7
:103670004D0480E1808310925604E0915204F09151
:10368000530486E08083E0915004F09151048081DE
:1036900080618083E0915004F091510480818860C2
:1036A0008083E0915004F091510480818068808390
:1036B000E0915004F091510480818F7D80830E94BD
:1036C000B40B90E080E067D28C3C81F440EEE42EB5
:1036D00044E0F42E10E000E0C8015DD2D7018D93E4
:1036E0007D010F5F1F4F00341105B1F78091E30496
:1036F000813029F486E00E94060B0E94AD0A809179
:10370000E304823039F481E00E94060B0E94AD0A86
:103710000E94110F10922205109221058E010F5F59
:103720001F4F6E01B1E8CB0ED11C90E4292E26E08C
:10373000322E3FE0432E512C84E30E94C90821E041
:10374000892B09F020E02093220582E30E94C9081A
:1037500021E0892B09F020E0209321058EE394E0FD
:103760000E94C0077C01892B49F08EE394E00E94FF
:103770009E070E94930F8093A405F0CF8091A4052B
:10378000813009F080C0A0902005B12CA50164E231
:1037900075E0C80140D20E94C70B1092A405F80141
:1037A000C50102979F01201B310B281739071CF414
:1037B00022812193F7CF800F911FFC011082FE011F
:1037C000EA0DFB1D10828091A505882321F08EE370
:1037D00094E00E945E0CD601E22D1D92EA95E9F775
:1037E0008981813009F44AC065EF72E0C801A1D136
:1037F0003C0183E1882E82E0982EB301D4018D91A3
:103800009C9112D25C01892B09F42AC1BFEFEB1AFB
:10381000FB0AE6E08E0E911CF3E2EF16F10469F765
:103820000E94510F2BC08FEFA81AB80A65EF72E003
:1038300090E080E07ED14C01DC018C91882359F02E
:10384000B1E0AB16B10421F060EF72E0C601FFD128
:10385000B401C601FCD1892831F73E9CF0013F9CA0
:10386000F00D1124ED5EFD4F0480F581E02DD601B1
:103870008C91882309F44CC0C60119958091A50547
:1038800081110E946C0F8091E304823081F5809158
:10389000A4058230B1F4809120050E94740F8091BC
:1038A000E904813011F40E9449108091E9048230CA
:1038B00041F48091A705882321F00E9449101092BD
:1038C000A70580912105882349F08091DF04882392
:1038D00029F090E080E021DB109221058091E9043D
:1038E000833029F48091DE0481110E944910809177
:1038F000E3048130E1F48091DD04882361F080915C
:10390000A4058230A1F4809120050E94740F0FC09D
:1039100090E080E0B2CFE0902305EE2071F00E94AD
:1039200049108091A405823011F40E94C70BC20196
:103930000197F1F70E941D10FFCEF0902205FF20A5
:10394000F1F2198288E00E94060BB12CA12C912C77
:1039500084E30E94C908892B11F5C8010E94490D12
:103960008111F6CF9091E504898120E228279213F6
:1039700001C0EF2C282F2225921301C09F2C8831E3
:1039800051F0893151F08F3319F71092DC04B3E014
:10399000B093DB04DDCFAF2CDBCFBF2CD9CFE11050
:1039A0000E944910992009F442C0AA2009F44FC08E
:1039B0008091A505882331F064EA7DE08EE394E0F0
:1039C0000E94DB0C8091A505882361F067E67DE00D
:1039D0008EE394E00E943E076091E8048EE394E059
:1039E0000E94B10C89E00E94060B8091E8040E94BD
:1039F000EB0C87E00E94060B8091A505882331F02F
:103A000067E97DE08EE394E00E94DB0C8091E8049E
:103A10008F7B8093E8040E94A10B8091A5058823E9
:103A200091F06DE77DE08EE394E00E94DB0CBB201B
:103A300051F08091A505882331F064ED7DE08EE39F
:103A400094E00E94DB0C87E00E94060B58CF809127
:103A5000A405823061F7809120050E94740FE7CFA2
:103A60003E9CF0013F9CF00D1124ED5EFD4F8091D6
:103A7000E30490E02281338182239323892B09F090
:103A8000D2CE0E94510F8091A505882309F4F6CE6D
:103A900063E47DE08EE394E00E94DB0CEFCEEEE386
:103AA000F4E01382128288EE93E0A0E0B0E0848319
:103AB0009583A683B78385E092E09183808385EC2C
:103AC00090E09587848784EC90E09787868780ECE8
:103AD00090E0918B808B81EC90E0938B828B82ECD9
:103AE00090E0958B848B86EC90E0978B868B118E83
:103AF000128E138E148E0895FC0188279927E8945E
:103B000021912032E9F3293010F02E30C8F32B3206
:103B100039F02D3231F4689403C035D0820F911DF5
:103B2000219120532A30C8F31EF4909581959F4F20
:103B3000089548EA55E000C0FA01A191B0810097CC
:103B400019F41097E1F0CD01DC01CD010D900020BA
:103B500011F4C00113C0FB012191222319F020159B
:103B6000D9F7F3CFFB012191201519F41E9211967C
:103B700006C02223C1F70D900020A1F7D001FA0161
:103B8000A193B08308957AE0979F902D879F802D11
:103B9000910D11240895F999FECF92BD81BDF89A37
:103BA000992780B50895262FF999FECF1FBA92BDA7
:103BB00081BD20BD0FB6F894FA9AF99A0FBE01960E
:103BC0000895A1E21A2EAA1BBB1BFD010DC0AA1F5E
:103BD000BB1FEE1FFF1FA217B307E407F50720F076
:103BE000A21BB30BE40BF50B661F771F881F991FF1
:103BF0001A9469F760957095809590959B01AC013A
:103C0000BD01CF010895EE0FFF1F881F8BBF0790E6
:103C1000F691E02D1994FB01DC0102C001900D9298
:103C200041505040D8F70895FB01DC018D9181345B
:103C30001CF08B350CF4805E619161341CF06B35A7
:103C40000CF4605E861B611189F3990B0895FB01EA
:103C5000DC010D900020E9F7119701900D920020F2
:103C6000E1F70895FB01DC014150504030F08D91A7
:103C70000190801919F40020B9F7881B990B089559
:103C8000FB01DC014150504048F001900D920020B2
:103C9000C9F701C01D9241505040E0F70895F894D3
:023CA000FFCF54
:103CA2000100000000F70762078F074308C0079E64
:103CB20007B207720303009A1677030200CC1808B2
:103CC2000402003614800302002B0F84030200CE8C
:103CD2000E88030300C60B69030300331590030328
:103CE20000E312940303006F15980303007614A1F6
:103CF200030300A914AC030200110FB00302002F4A
:103D020019B4030200CF18B80301001B13BC03024D
:103D1200009F0EC2030300E414C7030200A90ECDE4
:103D22000302008119D2030200A415DE0302009FE0
:103D320012E20302001E16E9030300DE0EED030287
:103D4200009513F10303005717F903030025177AAF
:103D52000302008D1701040200920C0504020031D7
:103D6200120D0401005A1314040100601218040316
:103D720000BE191C040300560F240403009B112AE1
:103D8200040300D2110D0A00566572626F73653A20
:103D920020003E2000200900535251206175746FAB
:103DA200204F4E00535251206175746F204F46468A
:103DB2000052454E2061737365727465640052450A
:103DC2004E20756E2D617373657274656400434F86
:103DD2004E54524F4C4C45520044455649434500BF
:103DE2000A0D005365742064657669636520736506
:103DF200636F6E64617279206164647265737320AB
:103E0200746F3A2000616C6C00656F6900726561C5
:103E12006C006164647200616C6C73706F6C6C0036
:103E2200636C720064636C0064656661756C740037
:103E3200656F7200656F7300656F745F63686172AE
:103E420000656F745F656E61626C65006966630030
:103E52006C6C6F006C6F63006C6F6E006D616372EF
:103E62006F006D6F64650070706F6C6C00726561DD
:103E72006400726561645F746D6F5F6D730072657B
:103E82006E0072657065617400727374007472679B
:103E92000073617665636667007365747673747226
:103EA20000737271007372716175746F0073746163
:103EB20074757300746F6E00766572007665726257
:103EC2006F736500746D6275730078646961670071
:020000023000CC
:10E000000D9489F10D94B2F10D94B2F10D94B2F129
:10E010000D94B2F10D94B2F10D94B2F10D94B2F1F0
:10E020000D94B2F10D94B2F10D94B2F10D94B2F1E0
:10E030000D94B2F10D94B2F10D94B2F10D94B2F1D0
:10E040000D94B2F10D94B2F10D94B2F10D94B2F1C0
:10E050000D94B2F10D94B2F10D94B2F10D94B2F1B0
:10E060000D94B2F10D94B2F10D94B2F10D94B2F1A0
:10E070000D94B2F10D94B2F10D94B2F10D94B2F190
:10E080000D94B2F10D94B2F10D94B2F10D94B2F180
:10E090000D94B2F10D94B2F10D94B2F10D94B2F170
:10E0A0000D94B2F10D94B2F10D94B2F10D94B2F160
:10E0B0000D94B2F10D94B2F10D94B2F10D94B2F150
:10E0C0000D94B2F10D94B2F10D94B2F10D94B2F140
:10E0D0000D94B2F10D94B2F10D94B2F10D94B2F130
:10E0E0000D94B2F141546D656761323536300041AF
:10E0F000726475696E6F206578706C6F72657220DE
:10E1000073746B3530305632206279204D4C530099
:10E11000426F6F746C6F616465723E004875683F52
:10E1200000436F6D70696C6564206F6E203D200048
:10E130004350552054797065202020203D20005FF9
:10E140005F4156525F415243485F5F3D2000415658
:10E1500052204C696243205665723D20004743437C
:10E160002056657273696F6E203D20004350552024
:10E1700049442020202020203D20004C6F7720663D
:10E18000757365202020203D20004869676820665F
:10E190007573652020203D200045787420667573D6
:10E1A00065202020203D20004C6F636B2066757336
:10E1B000652020203D20004D617220203720323024
:10E1C000313300312E362E3800342E332E350056A2
:10E1D00023202020414444522020206F7020636F70
:10E1E00064652020202020696E73747275637469E1
:10E1F0006F6E2061646472202020496E74657272B3
:10E20000757074006E6F20766563746F7200726A49
:10E210006D702020006A6D70200057686174207056
:10E220006F72743A00506F7274206E6F7420737541
:10E2300070706F72746564004D7573742062652030
:10E2400061206C6574746572002000577269747483
:10E25000696E672045450052656164696E672045B7
:10E26000450045452065727220636E743D00504F35
:10E27000525400303D5A65726F2061646472003FF1
:10E280003D43505520737461747300403D454550C3
:10E29000524F4D207465737400423D426C696E6B41
:10E2A000204C454400453D44756D70204545505215
:10E2B0004F4D00463D44756D7020464C415348001B
:10E2C000483D48656C70004C3D4C69737420492F83
:10E2D0004F20506F72747300513D51756974005234
:10E2E0003D44756D702052414D00563D73686F7707
:10E2F00020696E7465727275707420566563746FF0
:10E30000727300593D506F727420626C696E6B00BD
:10E310002A0011241FBECFEFD1E2DEBFCDBF01E046
:10E320000CBF12E0A0E0B2E0EEE1FDEF03E00BBFB6
:10E3300002C007900D92A030B107D9F712E0A0E01B
:10E34000B2E001C01D92AE30B107E1F70F9460F367
:10E350000D948DFE01E20EBF0FEF0DBF11241FBE05
:10E360000D9460F30D9400F020E030E040ED57E0B4
:10E3700005C0FA013197F1F72F5F3F4F2817390792
:10E38000C0F308959C01260F311DC901A0E0B0E043
:10E390002F5F3F4FABBFFC018791882361F08093D3
:10E3A000C6008091C00086FFFCCF8091C0008064D1
:10E3B0008093C000EACF08958DE08093C6008091DD
:10E3C000C00086FFFCCF8091C00080648093C000B5
:10E3D0008AE08093C6008091C00086FFFCCF8091C8
:10E3E000C00080648093C00008950F94C2F10F9420
:10E3F000DCF10895FC019081992359F09093C600B7
:10E400008091C00086FFFCCF8091C0008064809323
:10E41000C0003196992379F70895282F982F929567
:10E420009F70892F805D8A3308F0895F8093C600D2
:10E430008091C00086FFFCCF8091C00080648093F3
:10E44000C000822F8F70982F905D9A3308F0995FEB
:10E450009093C6008091C00086FFFCCF8091C000E1
:10E4600080648093C00008959C01FB01853691056E
:10E470001CF46330710594F0C90164E670E00F94F8
:10E480002EFE605D7F4F6093C6008091C00086FFC6
:10E49000FCCF8091C00080648093C0002B30310598
:10E4A00014F43297B4F0C90164E670E00F942EFEC4
:10E4B0006AE070E00F942EFE605D7F4F6093C600AF
:10E4C0008091C00086FFFCCF8091C0008064809363
:10E4D000C000C9016AE070E00F942EFEC0968093E0
:10E4E000C6008091C00086FFFCCF8091C000806490
:10E4F0008093C00008951F93182F8EE692EE60E07F
:10E500000F94C2F11093C6008091C00086FFFCCF2B
:10E510008091C00080648093C0000F94DCF11F9153
:10E5200008952F923F924F925F926F927F928F92B7
:10E530009F92AF92BF92CF92DF92EF92FF920F9392
:10E540001F93DF93CF93CDB7DEB762970FB6F894E2
:10E55000DEBF0FBECDBF382E622ECA01DB015C01CB
:10E560006D01772420E2222E2E010894411C511CBB
:10E570008BC081E0A81680E0B80681E0C80680E084
:10E58000D80628F0C601AA27BB270F940DF2BB2797
:10E59000AD2D9C2D8B2D0F940DF28A2D0F940DF225
:10E5A0002092C6008091C00086FFFCCF8091C00001
:10E5B00080648093C0009DE29093C6008091C0006B
:10E5C00086FFFCCF8091C00080648093C0002092C1
:10E5D000C6008091C00086FFFCCF8091C00080649F
:10E5E0008093C00019828601750188249924A1E0D6
:10E5F0003A1651F03A1620F0B2E03B1661F409C029
:10E600000BBFF701779007C0C7010F9477FE782EF4
:10E6100002C0F7017080872D0F940DF22092C60082
:10E620008091C00086FFFCCF8091C0008064809301
:10E63000C000872D8052F401EF70F0708F3520F408
:10E64000E40DF51D708204C0E40DF51D8EE280839B
:10E650000894E11CF11C011D111D0894811C911CE2
:10E6600090E18916910409F0C2CF80E190E0A0E02A
:10E67000B0E0A80EB91ECA1EDB1E198AC2010F9493
:10E68000FAF10F94DCF16A94662009F072CF629679
:10E690000FB6F894DEBF0FBECDBFCF91DF911F91B3
:10E6A0000F91FF90EF90DF90CF90BF90AF909F9031
:10E6B0008F907F906F905F904F903F902F90089534
:10E6C0002F923F924F925F926F927F928F929F9282
:10E6D000AF92BF92CF92DF92EF92FF920F931F9370
:10E6E000DF93CF93CDB7DEB7CD53D1400FB6F894BB
:10E6F000DEBF0FBECDBF01E20EBF0FEF0DBF94B75F
:10E70000F894A89514BE80916000886180936000A1
:10E7100010926000789493FF05C0E0910002F091A0
:10E7200001021995279A2F9A8091C00082608093E8
:10E73000C00080E18093C40088E18093C1000000A4
:10E74000EE24FF24870144E0A42EB12CCC24DD2448
:10E7500024C0C5010197F1F70894E11CF11C011DCB
:10E76000111D21E2E2162EE4F20620E0020720E06D
:10E77000120718F031E0C32ED12CC801B70127ECE5
:10E780003BE140E050E00F9441FE611571058105C9
:10E79000910519F485B1805885B98091C00087FD35
:10E7A00003C0C114D104A9F2A6014F5F5F4FC25E3E
:10E7B000DE4F59834883CE51D140C25EDE4F8881FF
:10E7C0009981CE51D140019711F00D9410FEC05D9A
:10E7D000DE4F19821882C053D14060E0C15DDE4F28
:10E7E0001882CF52D14088249924C35DDE4F19820C
:10E7F0001882CD52D140C05EDE4F188219821A8233
:10E800001B82C052D140CE5CDE4F188219821A8220
:10E810001B82C253D140EE24FF2487010BBFF701B6
:10E8200007911691C45CDE4F19830883CC53D14005
:10E830000D940BFEC25EDE4F28813981CE51D1404E
:10E840002130310509F52091C600C25EDE4F1982E4
:10E850001882CE51D14022C02F5F3F4F4F4F5F4FA4
:10E86000213082E138078AE7480780E0580780F0C6
:10E87000C45CDE4FE881F981CC53D140EF5FFF4F9C
:10E8800019F0EE27FF27099420E030E040E050E047
:10E890008091C00087FFE0CF2091C600C35DDE4FAE
:10E8A00048815981CD52D1404F5F5F4FC35DDE4FEC
:10E8B00059834883CD52D140213209F063C64A3092
:10E8C000510508F05FC60894811C911C53E0851621
:10E8D000910409F059C600E010E018C081E280936D
:10E8E000C6008091C00086FFFCCF8091C00080648C
:10E8F0008093C0002F5F3F4F2931310579F70F9486
:10E90000DCF10F5F1F4F0530110519F020E030E0FA
:10E91000E5CF10920A0210920B0210920C02109294
:10E920000D02109206021092070210920802109235
:10E930000902109202021092030210920402109235
:10E9400005028FEE90EE60E00F94F5F180E191EE1C
:10E9500060E00F94C2F18091C00087FFFCCF9091DE
:10E96000C600903608F09F759032B8F09093C600BC
:10E970008091C00086FFFCCF8091C00080648093AE
:10E98000C000A0E2A093C6008091C00086FFFCCF2B
:10E990008091C00080648093C000983409F4D7C18E
:10E9A0009934B8F4923409F459C1933458F490333B
:10E9B00019F1903308F4E3C59F33A1F1903409F0C5
:10E9C000DEC5BDC0953409F470C1963409F0D7C5D1
:10E9D00098C1923509F42BC2933538F49C3409F46C
:10E9E000F5C1913509F0CBC518C2963509F445C279
:10E9F000993509F0C4C567C483E792EE62E00F94CD
:10EA0000F5F110920602109207021092080210927D
:10EA1000090210920A0210920B0210920C0210923C
:10EA20000D0213C18FE792EE62E00F94F5F18FEEC5
:10EA300090EE60E00F94F5F181E291EE60E00F94CA
:10EA4000C2F187EB91EE60E00F94F5F180E391EE77
:10EA500060E00F94C2F184EE90EE60E00F94F5F167
:10EA60008FE391EE60E00F94C2F186E090E061E008
:10EA700070E00F9434F20F94DCF18DE591EE60E0DC
:10EA80000F94C2F189EC91EE60E00F94F5F18EE401
:10EA900091EE60E00F94C2F183EC91EE60E00F9490
:10EAA000F5F18CE691EE60E00F94C2F18EE10F94E7
:10EAB0000DF288E90F940DF281E00F940DF20F949E
:10EAC000DCF18BE791EE60E00F94C2F119E0E0E039
:10EAD000F0E010935700E4918E2F0F940DF20F94F5
:10EAE000DCF18AE891EE60E00F94C2F1E3E0F0E03F
:10EAF00010935700E4918E2F0F940DF20F94DCF1D8
:10EB000089E991EE60E00F94C2F1E2E0F0E0109349
:10EB10005700E4918E2F0F940DF20F94DCF188EAE8
:10EB200091EE60E00F94C2F1E1E0F0E01093570045
:10EB30001491812F0F940DF20F94DCF107CF8BE825
:10EB400092EE62E00F94F5F18BE492EE60E00F94A8
:10EB5000F5F10F94DCF100E010E019C0C8016F2D51
:10EB60000F947FFEFF2031F489E492EE60E00F9471
:10EB7000C2F10BC0F092C6008091C00086FFFCCFAE
:10EB80008091C00080648093C0000F5F1F4FC80158
:10EB900081519F41A0E0B0E0ABBFFC01F790BAE229
:10EBA000FB1621F0E2E000301E07C1F60F94DCF105
:10EBB0000F94DCF187E592EE60E00F94F5F10F948D
:10EBC000DCF1CC24DD2400E010E01EC0C8010F946D
:10EBD00077FEF82E882331F489E492EE60E00F94FA
:10EBE000C2F10BC08093C6008091C00086FFFCCFAD
:10EBF0008091C00080648093C000FE1419F00894D6
:10EC0000C11CD11C0F5F1F4FC80181519F41A0E063
:10EC1000B0E0ABBFFC01E790FAE2EF1621F022E092
:10EC20000030120799F60F94DCF10F94DCF182E6C4
:10EC300092EE60E00F94C2F1C60161E070E00F94C3
:10EC400034F20F94DCF10F94DCF110920202109276
:10EC50000302109204021092050278CE89E992EE26
:10EC600062E00F94F5F1279A2F9A16C02F9880E052
:10EC700090E0E0EDF7E03197F1F7019684369105E9
:10EC8000C1F72F9A80E090E0E0EDF7E03197F1F7DF
:10EC9000019684369105C1F78091C00087FFE6CFC9
:10ECA0008091C00087FFFCCF64C485EA92EE62E0E9
:10ECB0000F94F5F140910202509103026091040219
:10ECC0007091050281E020E10F9491F2809102029F
:10ECD00090910302A0910402B091050280509F4FD1
:10ECE000AF4FBF4F8093020290930302A0930402A0
:10ECF000B093050280509041A040B04008F426CE69
:10ED0000A4CF83EB92EE62E00F94F5F140910602FE
:10ED100050910702609108027091090280E020E1A1
:10ED20000F9491F28091060290910702A09108023F
:10ED3000B091090280509F4FAF4FBF4F80930602A2
:10ED400090930702A0930802B0930902FFCD80ECD4
:10ED500092EE62E00F94F5F183E792EE60E00F949B
:10ED6000F5F18FE792EE60E00F94F5F18BE892EE0B
:10ED700060E00F94F5F189E992EE60E00F94F5F10F
:10ED800085EA92EE60E00F94F5F183EB92EE60E09D
:10ED90000F94F5F180EC92EE60E00F94F5F187ECC2
:10EDA00092EE60E00F94F5F188ED92EE60E00F9442
:10EDB000F5F18FED92EE60E00F94F5F18AEE92EEB0
:10EDC00060E00F94F5F183E093EEBDCD87EC92EE19
:10EDD00062E00F94F5F181E40F947BF282E40F94EA
:10EDE0007BF283E40F947BF284E40F947BF285E45E
:10EDF0000F947BF286E40F947BF287E40F947BF20E
:10EE000088E40F947BF28AE40F947BF28BE40F94F6
:10EE10007BF28CE40F947BF299CD88ED92EE62E068
:10EE20000F94F5F1772473948824992409C48FED05
:10EE300092EE62E00F94F5F140910A0250910B02BC
:10EE400060910C0270910D0282E020E10F9491F22A
:10EE500080910A0290910B02A0910C02B0910D02D8
:10EE600080509F4FAF4FBF4F80930A0290930B0289
:10EE7000A0930C02B0930D0269CD8AEE92EE62E08F
:10EE80000F94F5F184EE90EE60E00F94F5F18FECC5
:10EE900091EE60E00F94F5F1662477244301CC5D98
:10EEA000DE4F19821882C452D140D401C301B695F5
:10EEB000A79597958795CA5DDE4F88839983AA8326
:10EEC000BB83C652D140CC5DDE4FA881B981C4520C
:10EED000D1401196CC5DDE4FB983A883C452D14096
:10EEE000CD0162E070E00F9434F2B0E2B093C6005E
:10EEF0008091C00086FFFCCF8091C0008064809329
:10EF0000C000EDE2E093C6008091C00086FFFCCF18
:10EF10008091C00080648093C000F0E2F093C6004E
:10EF20008091C00086FFFCCF8091C00080648093F8
:10EF3000C000CA5DDE4FE880F9800A811B81C6529D
:10EF4000D140BB27A12F902F8F2D0F940DF2CA5DBA
:10EF5000DE4F8881C652D1400F940DF2B0E2FB2EF5
:10EF6000F092C6008091C00086FFFCCF8091C00067
:10EF700080648093C0000DE30093C6008091C000C0
:10EF800086FFFCCF8091C00080648093C00010E2B7
:10EF90001093C6008091C00086FFFCCF8091C00016
:10EFA00080648093C0008BBEF3012791C65DDE4F65
:10EFB0002883CA52D140A22EBB24CC24DD2408943D
:10EFC000611C711C811C911C8BBEF3018791282E42
:10EFD0003324442455240894611C711C811C911C09
:10EFE0008BBEF3013791C55DDE4F3883CB52D140E4
:10EFF0000894611C711C811C911C8BBEF30147910C
:10F00000C45DDE4F4883CC52D140ADEFEA2EAFEF66
:10F01000FA2EAFEF0A2FAFEF1A2F6E0C7F1C801E57
:10F02000911E142D032DF22CEE24EA0CFB1C0C1D5A
:10F030001D1D0F940DF220E22093C6008091C000A8
:10F0400086FFFCCF8091C00080648093C000C65DC5
:10F05000DE4F8881CA52D1400F940DF230E23093D6
:10F06000C6008091C00086FFFCCF8091C000806404
:10F070008093C000C45DDE4F8881CC52D1400F9494
:10F080000DF240E24093C6008091C00086FFFCCFA5
:10F090008091C00080648093C000C55DDE4F888190
:10F0A000CB52D1400F940DF250E25093C6008091A4
:10F0B000C00086FFFCCF8091C00080648093C000B8
:10F0C0008FEFE8168FEFF80680E0080780E018075A
:10F0D00031F484E092EE60E00F94C2F1DFC0D80119
:10F0E000C7018070907CA070B0708050904CA040A0
:10F0F000B040D1F52FEF3FE340E050E0E222F322B1
:10F1000004231523CA5DDE4FA880B980CA80DB8046
:10F11000C652D140AE0CBF1CC01ED11EAA0CBB1CD7
:10F12000CC1CDD1C8EE092EE60E00F94C2F1BB2798
:10F13000A12F902F8F2D0F940DF28E2D0F940DF285
:10F1400030E23093C6008091C00086FFFCCF8091F2
:10F15000C00080648093C0004EE34093C60080915D
:10F16000C00086FFFCCF87C08EE09EEFA0E0B0E03D
:10F17000E822F9220A231B239CE0E91694E9F90608
:10F1800090E0090790E0190709F088C0C45DDE4FE0
:10F19000A881CC52D140EA2EFF2400E010E0102FCD
:10F1A0000F2DFE2CEE24C55DDE4FB881CB52D14031
:10F1B000EB0EF11C011D111DD601C501817090706F
:10F1C000A070B070DC0199278827E80EF91E0A1F8D
:10F1D0001B1F20EF30E040E050E0A222B322C42207
:10F1E000D52241E1AA0CBB1CCC1CDD1C4A95D1F7F1
:10F1F000EA0CFB1C0C1D1D1D81E090E0A0E0B0E0BE
:10F20000282239224A225B2235E1220C331C441C7D
:10F21000551C3A95D1F7E20CF31C041D151D57013E
:10F220006801AA0CBB1CCC1CDD1C85E192EE60E0E1
:10F230000F94C2F1C801AA27BB270F940DF2BB2778
:10F24000A12F902F8F2D0F940DF28E2D0F940DF274
:10F2500090E29093C6008091C00086FFFCCF809121
:10F26000C00080648093C000AEE3A093C60080918C
:10F27000C00086FFFCCF8091C00080648093C000F6
:10F28000C601AA27BB270F940DF2BB27AD2D9C2DDD
:10F290008B2D0F940DF28A2D0F940DF20F94DCF14B
:10F2A000CC5DDE4FE881F981C452D140F99709F471
:10F2B0004DCBF4E0EF2EF12C012D112D6E0C7F1CA7
:10F2C000801E911EF2CD83E093EE62E00F94F5F183
:10F2D0008AE192EE60E00F94C2F18091C00087FF56
:10F2E000FCCF1091C6001F751093C6008091C0001E
:10F2F00086FFFCCF8091C00080648093C0000F9493
:10F30000DCF1812F81548A3108F036C1163409F4BA
:10F3100095C0173490F4133409F44EC0143430F40B
:10F320001134F1F0123409F01DC130C0143409F465
:10F3300059C0153409F016C16BC01A3409F4C4C0A1
:10F340001B3438F4173409F48FC0183409F00AC19B
:10F35000A1C01B3409F4D2C01C3409F003C1E8C0B9
:10F360008FEF81B90DC082B1809582B980E090E0C5
:10F37000E0EDF7E03197F1F70196883C9105C1F790
:10F380008091C00087FFEFCF12B8EFC08FEF84B934
:10F390000DC085B1809585B980E090E0E0EDF7E0A3
:10F3A0003197F1F70196883C9105C1F78091C00033
:10F3B00087FFEFCF15B8D9C08FEF87B90DC088B1DF
:10F3C000809588B980E090E0E0EDF7E03197F1F7C3
:10F3D0000196883C9105C1F78091C00087FFEFCF6F
:10F3E00018B8C3C08FEF8AB90DC08BB180958BB9A7
:10F3F00080E090E0E0EDF7E03197F1F70196883C8E
:10F400009105C1F78091C00087FFEFCF1BB8ADC059
:10F410008FEF8DB90DC08EB180958EB980E090E0F0
:10F42000E0EDF7E03197F1F70196883C9105C1F7DF
:10F430008091C00087FFEFCF1EB897C08FEF80BBD1
:10F440000DC081B3809581BB80E090E0E0EDF7E0F6
:10F450003197F1F70196883C9105C1F78091C00082
:10F4600087FFEFCF11BA81C08FEF83BB0DC084B38C
:10F47000809584BB80E090E0E0EDF7E03197F1F714
:10F480000196883C9105C1F78091C00087FFEFCFBE
:10F4900014BA6BC08FEF809301010FC080910201FD
:10F4A00080958093020180E090E0E0EDF7E03197F5
:10F4B000F1F70196883C9105C1F78091C00087FF64
:10F4C000EDCF1092020151C08FEF809304010FC065
:10F4D0008091050180958093050180E090E0E0ED4A
:10F4E000F7E03197F1F70196883C9105C1F78091DB
:10F4F000C00087FFEDCF1092050137C08FEF8093DA
:10F5000007010FC08091080180958093080180E079
:10F5100090E0E0EDF7E03197F1F70196883C910536
:10F52000C1F78091C00087FFEDCF109208011DC088
:10F530008FEF80930A010FC080910B01809580931B
:10F540000B0180E090E0E0EDF7E03197F1F70196F4
:10F55000883C9105C1F78091C00087FFEDCF1092E4
:10F560000B0103C085E292EEEEC98091C00087FFD7
:10F57000FCCF8091C600EAC988E392EEE4C98CE131
:10F5800091EEE1C988249924933011F1943028F444
:10F59000913089F09230B8F408C0953061F195301F
:10F5A000F0F0963009F048C043C02B3109F042C951
:10F5B00091E06BE13FC96227C15DDE4F2883CF52E6
:10F5C000D14092E037C9B22FA0E0622793E032C960
:10F5D000822F90E0A82BB92B622794E02BC92E3004
:10F5E00009F039C3622795E0C05DDE4F19821882A9
:10F5F000C053D1401FC9E1E0F0E0EC0FFD1FC05D3A
:10F60000DE4F08811981C053D140E00FF11F2083E4
:10F610000F5F1F4FC05DDE4F19830883C053D14079
:10F6200062270A171B0709F005C9D80196E002C92D
:10F63000261709F010C303C0973009F0FBC87724E0
:10F640009981933109F412C19431C8F4963009F4C8
:10F65000D8C0973050F4923009F406C1933009F4C1
:10F660006DC0913009F059C253C0913109F477C08F
:10F67000923108F0BBC0903109F04FC2F5C098310B
:10F6800009F487C0993150F4953109F4EFC09531F0
:10F6900008F4C6C1963109F040C2C2C19A3109F4DA
:10F6A0006CC09A3108F491C09B3109F45BC09D3164
:10F6B00009F033C29D81903359F48F81882311F46E
:10F6C0009EE11CC0813011F091E018C098E916C08D
:10F6D000892F807591F0903539F4E0E0F0E089E011
:10F6E0008093570094910AC0983539F4E3E0F0E034
:10F6F00089E080935700949101C090E01A821B82A8
:10F700008D818C831D829E831F8227E030E009C299
:10F710001A8288E08B8381E48C8386E58D8382E581
:10F720008E8389E48F8383E5888780E589878FE5E9
:10F730008A8782E38B872BE030E0F3C18A818139AD
:10F7400041F0823941F0803911F48FE005C080E04A
:10F7500003C082E001C08AE01A828B8344C0772410
:10F76000739482C08D81882311F48EE12CC0813086
:10F7700011F081E028C088E926C01A82E1E0F0E0BB
:10F7800089E08093570084918B831C8224E030E0D1
:10F79000C8C18B81803589F48C81883039F4E2E0EE
:10F7A000F0E089E08093570084910DC0E0E0F0E044
:10F7B00089E080935700849106C0E3E0F0E089E09F
:10F7C0008093570084911A82DFCF8D81836C99E0FA
:10F7D000E1E0F0E0082E90935700E89507B600FCB2
:10F7E000FDCF1A821B8223E030E09BC180EC8A832C
:10F7F000CE5CDE4F188219821A821B82C253D1401E
:10F800008EC18A8190E0A0E0B0E0582F44273327D2
:10F8100022278B8190E0A0E0B0E0DC0199278827C7
:10F82000282B392B4A2B5B2B8D8190E0A0E0B0E098
:10F83000282B392B4A2B5B2B8C8190E0A0E0B0E089
:10F84000BA2FA92F982F8827282B392B4A2B5B2BCF
:10F85000220F331F441F551FC05EDE4F288339839C
:10F860004A835B83C052D1401A8259C13A81C95C34
:10F87000DE4F3883C753D140CA5CDE4F1882C6536F
:10F88000D1408B81C82EDD24CA5CDE4F488159816E
:10F89000C653D140C42AD52A933109F082C0CE5C28
:10F8A000DE4F88819981AA81BB81C253D1408050AB
:10F8B000904CA340B04030F583E0CE5CDE4FE88052
:10F8C000F9800A811B81C253D140F70100935B008C
:10F8D00080935700E89507B600FCFDCFCE5CDE4F65
:10F8E000088119812A813B81C253D14000501F4FAA
:10F8F0002F4F3F4FCE5CDE4F088319832A833B8313
:10F90000C253D140C05EDE4F488159816A817B81FC
:10F91000C052D140DE011B9631E08C9111962C91A2
:10F9200011971296C75CDE4F2883C953D140C85C3B
:10F93000DE4F1882C853D14090E0C85CDE4FE881AA
:10F94000F981C853D1408E2B9F2B0C01FA01609393
:10F950005B0030935700E89511244E5F5F4F6F4F67
:10F960007F4F0EEFE02E0FEFF02ECE0CDF1CC114F8
:10F97000D10499F685E0C05EDE4F088119812A81A5
:10F980003B81C052D140F80120935B008093570027
:10F99000E89507B600FCFDCF81E180935700E8951C
:10F9A00035C0C05EDE4F88819981AA81BB81C0527B
:10F9B000D140B695A795979587957C018601ABE0D8
:10F9C000AA2EB12CAC0EBD1E0BC0D5016D915D01F0
:10F9D000C7010F947FFE0894E11CF11C01501040F8
:10F9E0000115110591F7A60160E070E0440F551F65
:10F9F000661F771FC05EDE4FE880F9800A811B8199
:10FA0000C052D1404E0D5F1D601F711F1A82C05E33
:10FA1000DE4F488359836A837B83C052D1407FC0C5
:10FA2000FA80C55CDE4FF882CB53D140C65CDE4F16
:10FA30001882CA53D1408B81C82EDD24C65CDE4FAC
:10FA400008811981CA53D140C02AD12A1A828981DA
:10FA5000BE016D5F7F4F843121F59601C05EDE4FA0
:10FA6000E880F9800A811B81C052D1400BBFF701A9
:10FA700087919691DB018C9311969C936E5F7F4FDB
:10FA8000D801C7010296A11DB11DC05EDE4F88835B
:10FA90009983AA83BB83C052D14022503040F1F6F3
:10FAA00036C0C05EDE4F288139814A815B81C052F9
:10FAB000D1400894C108D108760100E010E0089414
:10FAC000C11CD11C0894E11CF11C011D111DE20E8A
:10FAD000F31E041F151F21BDBB27A52F942F832FB5
:10FAE00082BD2F5F3F4F4F4F5F4FF89A80B5DB01CC
:10FAF0008D93BD012E153F054007510761F7C05E8C
:10FB0000DE4F288339834A835B83C052D1409601FC
:10FB10002D5F3F4FFB01108204C080EC8A8322E0FE
:10FB200030E08BE18093C6008091C00086FFFCCF5F
:10FB30008091C00080648093C000C15DDE4FF88179
:10FB4000CF52D140F093C6008091C00086FFFCCF19
:10FB50008091C00080648093C000432F3093C60022
:10FB60008091C00086FFFCCF8091C00080648093AC
:10FB7000C000922F2093C6008091C00086FFFCCF6A
:10FB80008091C00080648093C0008EE08093C600A6
:10FB90008091C00086FFFCCF8091C000806480937C
:10FBA000C00065E1C15DDE4FE880CF52D1406E25D7
:10FBB00069276427FE01319610C090819093C6009A
:10FBC0008091C00086FFFCCF31968091C000806498
:10FBD0008093C0006927215030402115310569F715
:10FBE0006093C6008091C00086FFFCCF8091C0006A
:10FBF00080648093C00085B1805885B9772081F4F6
